{
	"simpleAuction.sol": {
		"SimpleAuction": {
			"abi": [
				{
					"inputs": [
						{
							"internalType": "uint256",
							"name": "biddingTime",
							"type": "uint256"
						},
						{
							"internalType": "address payable",
							"name": "beneficiaryAddress",
							"type": "address"
						}
					],
					"stateMutability": "nonpayable",
					"type": "constructor"
				},
				{
					"anonymous": false,
					"inputs": [
						{
							"indexed": false,
							"internalType": "address",
							"name": "winner",
							"type": "address"
						},
						{
							"indexed": false,
							"internalType": "uint256",
							"name": "amount",
							"type": "uint256"
						}
					],
					"name": "AuctionEnded",
					"type": "event"
				},
				{
					"anonymous": false,
					"inputs": [
						{
							"indexed": false,
							"internalType": "address",
							"name": "bidder",
							"type": "address"
						},
						{
							"indexed": false,
							"internalType": "uint256",
							"name": "amount",
							"type": "uint256"
						}
					],
					"name": "HighestBidIncreased",
					"type": "event"
				},
				{
					"inputs": [],
					"name": "TheHighistBid",
					"outputs": [
						{
							"internalType": "address",
							"name": "Adress",
							"type": "address"
						},
						{
							"internalType": "uint256",
							"name": "bid",
							"type": "uint256"
						}
					],
					"stateMutability": "view",
					"type": "function"
				},
				{
					"inputs": [],
					"name": "auctionEnd",
					"outputs": [],
					"stateMutability": "nonpayable",
					"type": "function"
				},
				{
					"inputs": [],
					"name": "auctionEndTime",
					"outputs": [
						{
							"internalType": "uint256",
							"name": "",
							"type": "uint256"
						}
					],
					"stateMutability": "view",
					"type": "function"
				},
				{
					"inputs": [],
					"name": "beneficiary",
					"outputs": [
						{
							"internalType": "address payable",
							"name": "",
							"type": "address"
						}
					],
					"stateMutability": "view",
					"type": "function"
				},
				{
					"inputs": [],
					"name": "bid",
					"outputs": [],
					"stateMutability": "payable",
					"type": "function"
				},
				{
					"inputs": [],
					"name": "withdraw",
					"outputs": [
						{
							"internalType": "bool",
							"name": "",
							"type": "bool"
						}
					],
					"stateMutability": "nonpayable",
					"type": "function"
				}
			],
			"devdoc": {
				"kind": "dev",
				"methods": {},
				"version": 1
			},
			"evm": {
				"assembly": "    /* \"simpleAuction.sol\":64:4146  contract SimpleAuction {\r... */\n  mstore(0x40, 0x80)\n    /* \"simpleAuction.sol\":994:1169  constructor( uint biddingTime, address payable beneficiaryAddress) {\r... */\n  callvalue\n  dup1\n  iszero\n  tag_1\n  jumpi\n  0x00\n  dup1\n  revert\ntag_1:\n  pop\n  mload(0x40)\n  sub(codesize, bytecodeSize)\n  dup1\n  bytecodeSize\n  dup4\n  codecopy\n  dup2\n  dup2\n  add\n  0x40\n  mstore\n  dup2\n  add\n  swap1\n  tag_2\n  swap2\n  swap1\n  tag_3\n  jump\t// in\ntag_2:\n    /* \"simpleAuction.sol\":1086:1104  beneficiaryAddress */\n  dup1\n    /* \"simpleAuction.sol\":1072:1083  beneficiary */\n  0x00\n  dup1\n    /* \"simpleAuction.sol\":1072:1104  beneficiary = beneficiaryAddress */\n  0x0100\n  exp\n  dup2\n  sload\n  dup2\n  0xffffffffffffffffffffffffffffffffffffffff\n  mul\n  not\n  and\n  swap1\n  dup4\n  0xffffffffffffffffffffffffffffffffffffffff\n  and\n  mul\n  or\n  swap1\n  sstore\n  pop\n    /* \"simpleAuction.sol\":1150:1161  biddingTime */\n  dup2\n    /* \"simpleAuction.sol\":1132:1147  block.timestamp */\n  timestamp\n    /* \"simpleAuction.sol\":1132:1161  block.timestamp + biddingTime */\n  tag_6\n  swap2\n  swap1\n  tag_7\n  jump\t// in\ntag_6:\n    /* \"simpleAuction.sol\":1115:1129  auctionEndTime */\n  0x01\n    /* \"simpleAuction.sol\":1115:1161  auctionEndTime = block.timestamp + biddingTime */\n  dup2\n  swap1\n  sstore\n  pop\n    /* \"simpleAuction.sol\":994:1169  constructor( uint biddingTime, address payable beneficiaryAddress) {\r... */\n  pop\n  pop\n    /* \"simpleAuction.sol\":64:4146  contract SimpleAuction {\r... */\n  jump(tag_8)\n    /* \"#utility.yul\":7:166   */\ntag_10:\n    /* \"#utility.yul\":72:77   */\n  0x00\n    /* \"#utility.yul\":103:109   */\n  dup2\n    /* \"#utility.yul\":97:110   */\n  mload\n    /* \"#utility.yul\":88:110   */\n  swap1\n  pop\n    /* \"#utility.yul\":119:160   */\n  tag_12\n    /* \"#utility.yul\":154:159   */\n  dup2\n    /* \"#utility.yul\":119:160   */\n  tag_13\n  jump\t// in\ntag_12:\n    /* \"#utility.yul\":7:166   */\n  swap3\n  swap2\n  pop\n  pop\n  jump\t// out\n    /* \"#utility.yul\":172:315   */\ntag_14:\n    /* \"#utility.yul\":229:234   */\n  0x00\n    /* \"#utility.yul\":260:266   */\n  dup2\n    /* \"#utility.yul\":254:267   */\n  mload\n    /* \"#utility.yul\":245:267   */\n  swap1\n  pop\n    /* \"#utility.yul\":276:309   */\n  tag_16\n    /* \"#utility.yul\":303:308   */\n  dup2\n    /* \"#utility.yul\":276:309   */\n  tag_17\n  jump\t// in\ntag_16:\n    /* \"#utility.yul\":172:315   */\n  swap3\n  swap2\n  pop\n  pop\n  jump\t// out\n    /* \"#utility.yul\":321:844   */\ntag_3:\n    /* \"#utility.yul\":408:414   */\n  0x00\n    /* \"#utility.yul\":416:422   */\n  dup1\n    /* \"#utility.yul\":465:467   */\n  0x40\n    /* \"#utility.yul\":453:462   */\n  dup4\n    /* \"#utility.yul\":444:451   */\n  dup6\n    /* \"#utility.yul\":440:463   */\n  sub\n    /* \"#utility.yul\":436:468   */\n  slt\n    /* \"#utility.yul\":433:552   */\n  iszero\n  tag_19\n  jumpi\n    /* \"#utility.yul\":471:550   */\n  tag_20\n  tag_21\n  jump\t// in\ntag_20:\n    /* \"#utility.yul\":433:552   */\ntag_19:\n    /* \"#utility.yul\":591:592   */\n  0x00\n    /* \"#utility.yul\":616:680   */\n  tag_22\n    /* \"#utility.yul\":672:679   */\n  dup6\n    /* \"#utility.yul\":663:669   */\n  dup3\n    /* \"#utility.yul\":652:661   */\n  dup7\n    /* \"#utility.yul\":648:670   */\n  add\n    /* \"#utility.yul\":616:680   */\n  tag_14\n  jump\t// in\ntag_22:\n    /* \"#utility.yul\":606:680   */\n  swap3\n  pop\n    /* \"#utility.yul\":562:690   */\n  pop\n    /* \"#utility.yul\":729:731   */\n  0x20\n    /* \"#utility.yul\":755:827   */\n  tag_23\n    /* \"#utility.yul\":819:826   */\n  dup6\n    /* \"#utility.yul\":810:816   */\n  dup3\n    /* \"#utility.yul\":799:808   */\n  dup7\n    /* \"#utility.yul\":795:817   */\n  add\n    /* \"#utility.yul\":755:827   */\n  tag_10\n  jump\t// in\ntag_23:\n    /* \"#utility.yul\":745:827   */\n  swap2\n  pop\n    /* \"#utility.yul\":700:837   */\n  pop\n    /* \"#utility.yul\":321:844   */\n  swap3\n  pop\n  swap3\n  swap1\n  pop\n  jump\t// out\n    /* \"#utility.yul\":931:1236   */\ntag_7:\n    /* \"#utility.yul\":971:974   */\n  0x00\n    /* \"#utility.yul\":990:1010   */\n  tag_27\n    /* \"#utility.yul\":1008:1009   */\n  dup3\n    /* \"#utility.yul\":990:1010   */\n  tag_28\n  jump\t// in\ntag_27:\n    /* \"#utility.yul\":985:1010   */\n  swap2\n  pop\n    /* \"#utility.yul\":1024:1044   */\n  tag_29\n    /* \"#utility.yul\":1042:1043   */\n  dup4\n    /* \"#utility.yul\":1024:1044   */\n  tag_28\n  jump\t// in\ntag_29:\n    /* \"#utility.yul\":1019:1044   */\n  swap3\n  pop\n    /* \"#utility.yul\":1178:1179   */\n  dup3\n    /* \"#utility.yul\":1110:1176   */\n  0xffffffffffffffffffffffffffffffffffffffffffffffffffffffffffffffff\n    /* \"#utility.yul\":1106:1180   */\n  sub\n    /* \"#utility.yul\":1103:1104   */\n  dup3\n    /* \"#utility.yul\":1100:1181   */\n  gt\n    /* \"#utility.yul\":1097:1204   */\n  iszero\n  tag_30\n  jumpi\n    /* \"#utility.yul\":1184:1202   */\n  tag_31\n  tag_32\n  jump\t// in\ntag_31:\n    /* \"#utility.yul\":1097:1204   */\ntag_30:\n    /* \"#utility.yul\":1228:1229   */\n  dup3\n    /* \"#utility.yul\":1225:1226   */\n  dup3\n    /* \"#utility.yul\":1221:1230   */\n  add\n    /* \"#utility.yul\":1214:1230   */\n  swap1\n  pop\n    /* \"#utility.yul\":931:1236   */\n  swap3\n  swap2\n  pop\n  pop\n  jump\t// out\n    /* \"#utility.yul\":1242:1346   */\ntag_33:\n    /* \"#utility.yul\":1287:1294   */\n  0x00\n    /* \"#utility.yul\":1316:1340   */\n  tag_35\n    /* \"#utility.yul\":1334:1339   */\n  dup3\n    /* \"#utility.yul\":1316:1340   */\n  tag_36\n  jump\t// in\ntag_35:\n    /* \"#utility.yul\":1305:1340   */\n  swap1\n  pop\n    /* \"#utility.yul\":1242:1346   */\n  swap2\n  swap1\n  pop\n  jump\t// out\n    /* \"#utility.yul\":1352:1478   */\ntag_36:\n    /* \"#utility.yul\":1389:1396   */\n  0x00\n    /* \"#utility.yul\":1429:1471   */\n  0xffffffffffffffffffffffffffffffffffffffff\n    /* \"#utility.yul\":1422:1427   */\n  dup3\n    /* \"#utility.yul\":1418:1472   */\n  and\n    /* \"#utility.yul\":1407:1472   */\n  swap1\n  pop\n    /* \"#utility.yul\":1352:1478   */\n  swap2\n  swap1\n  pop\n  jump\t// out\n    /* \"#utility.yul\":1484:1561   */\ntag_28:\n    /* \"#utility.yul\":1521:1528   */\n  0x00\n    /* \"#utility.yul\":1550:1555   */\n  dup2\n    /* \"#utility.yul\":1539:1555   */\n  swap1\n  pop\n    /* \"#utility.yul\":1484:1561   */\n  swap2\n  swap1\n  pop\n  jump\t// out\n    /* \"#utility.yul\":1567:1747   */\ntag_32:\n    /* \"#utility.yul\":1615:1692   */\n  0x4e487b7100000000000000000000000000000000000000000000000000000000\n    /* \"#utility.yul\":1612:1613   */\n  0x00\n    /* \"#utility.yul\":1605:1693   */\n  mstore\n    /* \"#utility.yul\":1712:1716   */\n  0x11\n    /* \"#utility.yul\":1709:1710   */\n  0x04\n    /* \"#utility.yul\":1702:1717   */\n  mstore\n    /* \"#utility.yul\":1736:1740   */\n  0x24\n    /* \"#utility.yul\":1733:1734   */\n  0x00\n    /* \"#utility.yul\":1726:1741   */\n  revert\n    /* \"#utility.yul\":1876:1993   */\ntag_21:\n    /* \"#utility.yul\":1985:1986   */\n  0x00\n    /* \"#utility.yul\":1982:1983   */\n  dup1\n    /* \"#utility.yul\":1975:1987   */\n  revert\n    /* \"#utility.yul\":1999:2137   */\ntag_13:\n    /* \"#utility.yul\":2080:2112   */\n  tag_44\n    /* \"#utility.yul\":2106:2111   */\n  dup2\n    /* \"#utility.yul\":2080:2112   */\n  tag_33\n  jump\t// in\ntag_44:\n    /* \"#utility.yul\":2073:2078   */\n  dup2\n    /* \"#utility.yul\":2070:2113   */\n  eq\n    /* \"#utility.yul\":2060:2131   */\n  tag_45\n  jumpi\n    /* \"#utility.yul\":2127:2128   */\n  0x00\n    /* \"#utility.yul\":2124:2125   */\n  dup1\n    /* \"#utility.yul\":2117:2129   */\n  revert\n    /* \"#utility.yul\":2060:2131   */\ntag_45:\n    /* \"#utility.yul\":1999:2137   */\n  pop\n  jump\t// out\n    /* \"#utility.yul\":2143:2265   */\ntag_17:\n    /* \"#utility.yul\":2216:2240   */\n  tag_47\n    /* \"#utility.yul\":2234:2239   */\n  dup2\n    /* \"#utility.yul\":2216:2240   */\n  tag_28\n  jump\t// in\ntag_47:\n    /* \"#utility.yul\":2209:2214   */\n  dup2\n    /* \"#utility.yul\":2206:2241   */\n  eq\n    /* \"#utility.yul\":2196:2259   */\n  tag_48\n  jumpi\n    /* \"#utility.yul\":2255:2256   */\n  0x00\n    /* \"#utility.yul\":2252:2253   */\n  dup1\n    /* \"#utility.yul\":2245:2257   */\n  revert\n    /* \"#utility.yul\":2196:2259   */\ntag_48:\n    /* \"#utility.yul\":2143:2265   */\n  pop\n  jump\t// out\n    /* \"simpleAuction.sol\":64:4146  contract SimpleAuction {\r... */\ntag_8:\n  dataSize(sub_0)\n  dup1\n  dataOffset(sub_0)\n  0x00\n  codecopy\n  0x00\n  return\nstop\n\nsub_0: assembly {\n        /* \"simpleAuction.sol\":64:4146  contract SimpleAuction {\r... */\n      mstore(0x40, 0x80)\n      jumpi(tag_1, lt(calldatasize, 0x04))\n      shr(0xe0, calldataload(0x00))\n      dup1\n      0x1998aeef\n      eq\n      tag_2\n      jumpi\n      dup1\n      0x2a24f46c\n      eq\n      tag_3\n      jumpi\n      dup1\n      0x38af3eed\n      eq\n      tag_4\n      jumpi\n      dup1\n      0x3ccfd60b\n      eq\n      tag_5\n      jumpi\n      dup1\n      0x4b449cba\n      eq\n      tag_6\n      jumpi\n      dup1\n      0x523d7886\n      eq\n      tag_7\n      jumpi\n    tag_1:\n      0x00\n      dup1\n      revert\n        /* \"simpleAuction.sol\":1177:2036  function bid() external payable {\r... */\n    tag_2:\n      tag_8\n      tag_9\n      jump\t// in\n    tag_8:\n      stop\n        /* \"simpleAuction.sol\":2997:4143  function auctionEnd() external {\r... */\n    tag_3:\n      callvalue\n      dup1\n      iszero\n      tag_10\n      jumpi\n      0x00\n      dup1\n      revert\n    tag_10:\n      pop\n      tag_11\n      tag_12\n      jump\t// in\n    tag_11:\n      stop\n        /* \"simpleAuction.sol\":134:168  address payable public beneficiary */\n    tag_4:\n      callvalue\n      dup1\n      iszero\n      tag_13\n      jumpi\n      0x00\n      dup1\n      revert\n    tag_13:\n      pop\n      tag_14\n      tag_15\n      jump\t// in\n    tag_14:\n      mload(0x40)\n      tag_16\n      swap2\n      swap1\n      tag_17\n      jump\t// in\n    tag_16:\n      mload(0x40)\n      dup1\n      swap2\n      sub\n      swap1\n      return\n        /* \"simpleAuction.sol\":2086:2910  function withdraw() external returns (bool) {\r... */\n    tag_5:\n      callvalue\n      dup1\n      iszero\n      tag_18\n      jumpi\n      0x00\n      dup1\n      revert\n    tag_18:\n      pop\n      tag_19\n      tag_20\n      jump\t// in\n    tag_19:\n      mload(0x40)\n      tag_21\n      swap2\n      swap1\n      tag_22\n      jump\t// in\n    tag_21:\n      mload(0x40)\n      dup1\n      swap2\n      sub\n      swap1\n      return\n        /* \"simpleAuction.sol\":280:306  uint public auctionEndTime */\n    tag_6:\n      callvalue\n      dup1\n      iszero\n      tag_23\n      jumpi\n      0x00\n      dup1\n      revert\n    tag_23:\n      pop\n      tag_24\n      tag_25\n      jump\t// in\n    tag_24:\n      mload(0x40)\n      tag_26\n      swap2\n      swap1\n      tag_27\n      jump\t// in\n    tag_26:\n      mload(0x40)\n      dup1\n      swap2\n      sub\n      swap1\n      return\n        /* \"simpleAuction.sol\":428:459  higgestBid public TheHighistBid */\n    tag_7:\n      callvalue\n      dup1\n      iszero\n      tag_28\n      jumpi\n      0x00\n      dup1\n      revert\n    tag_28:\n      pop\n      tag_29\n      tag_30\n      jump\t// in\n    tag_29:\n      mload(0x40)\n      tag_31\n      swap3\n      swap2\n      swap1\n      tag_32\n      jump\t// in\n    tag_31:\n      mload(0x40)\n      dup1\n      swap2\n      sub\n      swap1\n      return\n        /* \"simpleAuction.sol\":1177:2036  function bid() external payable {\r... */\n    tag_9:\n        /* \"simpleAuction.sol\":1281:1295  auctionEndTime */\n      sload(0x01)\n        /* \"simpleAuction.sol\":1263:1278  block.timestamp */\n      timestamp\n        /* \"simpleAuction.sol\":1263:1295  block.timestamp < auctionEndTime */\n      lt\n        /* \"simpleAuction.sol\":1254:1330  require (block.timestamp < auctionEndTime , \"The auction has already ended\") */\n      tag_34\n      jumpi\n      mload(0x40)\n      0x08c379a000000000000000000000000000000000000000000000000000000000\n      dup2\n      mstore\n      0x04\n      add\n      tag_35\n      swap1\n      tag_36\n      jump\t// in\n    tag_35:\n      mload(0x40)\n      dup1\n      swap2\n      sub\n      swap1\n      revert\n    tag_34:\n        /* \"simpleAuction.sol\":1409:1422  TheHighistBid */\n      0x02\n        /* \"simpleAuction.sol\":1409:1426  TheHighistBid.bid */\n      0x01\n      add\n      sload\n        /* \"simpleAuction.sol\":1397:1406  msg.value */\n      callvalue\n        /* \"simpleAuction.sol\":1397:1426  msg.value > TheHighistBid.bid */\n      gt\n        /* \"simpleAuction.sol\":1388:1471  require (msg.value > TheHighistBid.bid , \"There is already a higher or equal bid.\") */\n      tag_37\n      jumpi\n      mload(0x40)\n      0x08c379a000000000000000000000000000000000000000000000000000000000\n      dup2\n      mstore\n      0x04\n      add\n      tag_38\n      swap1\n      tag_39\n      jump\t// in\n    tag_38:\n      mload(0x40)\n      dup1\n      swap2\n      sub\n      swap1\n      revert\n    tag_37:\n        /* \"simpleAuction.sol\":1509:1510  0 */\n      0x00\n        /* \"simpleAuction.sol\":1488:1501  TheHighistBid */\n      0x02\n        /* \"simpleAuction.sol\":1488:1505  TheHighistBid.bid */\n      0x01\n      add\n      sload\n        /* \"simpleAuction.sol\":1488:1510  TheHighistBid.bid != 0 */\n      eq\n        /* \"simpleAuction.sol\":1484:1887  if (TheHighistBid.bid != 0) {\r... */\n      tag_40\n      jumpi\n        /* \"simpleAuction.sol\":1858:1871  TheHighistBid */\n      0x02\n        /* \"simpleAuction.sol\":1858:1875  TheHighistBid.bid */\n      0x01\n      add\n      sload\n        /* \"simpleAuction.sol\":1818:1832  pendingReturns */\n      0x04\n        /* \"simpleAuction.sol\":1818:1854  pendingReturns[TheHighistBid.Adress] */\n      0x00\n        /* \"simpleAuction.sol\":1833:1846  TheHighistBid */\n      0x02\n        /* \"simpleAuction.sol\":1833:1853  TheHighistBid.Adress */\n      0x00\n      add\n      0x00\n      swap1\n      sload\n      swap1\n      0x0100\n      exp\n      swap1\n      div\n      0xffffffffffffffffffffffffffffffffffffffff\n      and\n        /* \"simpleAuction.sol\":1818:1854  pendingReturns[TheHighistBid.Adress] */\n      0xffffffffffffffffffffffffffffffffffffffff\n      and\n      0xffffffffffffffffffffffffffffffffffffffff\n      and\n      dup2\n      mstore\n      0x20\n      add\n      swap1\n      dup2\n      mstore\n      0x20\n      add\n      0x00\n      keccak256\n      0x00\n        /* \"simpleAuction.sol\":1818:1875  pendingReturns[TheHighistBid.Adress] += TheHighistBid.bid */\n      dup3\n      dup3\n      sload\n      tag_41\n      swap2\n      swap1\n      tag_42\n      jump\t// in\n    tag_41:\n      swap3\n      pop\n      pop\n      dup2\n      swap1\n      sstore\n      pop\n        /* \"simpleAuction.sol\":1484:1887  if (TheHighistBid.bid != 0) {\r... */\n    tag_40:\n        /* \"simpleAuction.sol\":1920:1930  msg.sender */\n      caller\n        /* \"simpleAuction.sol\":1897:1910  TheHighistBid */\n      0x02\n        /* \"simpleAuction.sol\":1897:1917  TheHighistBid.Adress */\n      0x00\n      add\n      0x00\n        /* \"simpleAuction.sol\":1897:1930  TheHighistBid.Adress = msg.sender */\n      0x0100\n      exp\n      dup2\n      sload\n      dup2\n      0xffffffffffffffffffffffffffffffffffffffff\n      mul\n      not\n      and\n      swap1\n      dup4\n      0xffffffffffffffffffffffffffffffffffffffff\n      and\n      mul\n      or\n      swap1\n      sstore\n      pop\n        /* \"simpleAuction.sol\":1961:1970  msg.value */\n      callvalue\n        /* \"simpleAuction.sol\":1941:1954  TheHighistBid */\n      0x02\n        /* \"simpleAuction.sol\":1941:1958  TheHighistBid.bid */\n      0x01\n      add\n        /* \"simpleAuction.sol\":1941:1970  TheHighistBid.bid = msg.value */\n      dup2\n      swap1\n      sstore\n      pop\n        /* \"simpleAuction.sol\":1986:2028  HighestBidIncreased(msg.sender, msg.value) */\n      0xf4757a49b326036464bec6fe419a4ae38c8a02ce3e68bf0809674f6aab8ad300\n        /* \"simpleAuction.sol\":2006:2016  msg.sender */\n      caller\n        /* \"simpleAuction.sol\":2018:2027  msg.value */\n      callvalue\n        /* \"simpleAuction.sol\":1986:2028  HighestBidIncreased(msg.sender, msg.value) */\n      mload(0x40)\n      tag_43\n      swap3\n      swap2\n      swap1\n      tag_32\n      jump\t// in\n    tag_43:\n      mload(0x40)\n      dup1\n      swap2\n      sub\n      swap1\n      log1\n        /* \"simpleAuction.sol\":1177:2036  function bid() external payable {\r... */\n      jump\t// out\n        /* \"simpleAuction.sol\":2997:4143  function auctionEnd() external {\r... */\n    tag_12:\n        /* \"simpleAuction.sol\":3814:3828  auctionEndTime */\n      sload(0x01)\n        /* \"simpleAuction.sol\":3796:3811  block.timestamp */\n      timestamp\n        /* \"simpleAuction.sol\":3796:3828  block.timestamp > auctionEndTime */\n      gt\n        /* \"simpleAuction.sol\":3788:3862  require(block.timestamp > auctionEndTime,\"The auction has not ended yet.\") */\n      tag_45\n      jumpi\n      mload(0x40)\n      0x08c379a000000000000000000000000000000000000000000000000000000000\n      dup2\n      mstore\n      0x04\n      add\n      tag_46\n      swap1\n      tag_47\n      jump\t// in\n    tag_46:\n      mload(0x40)\n      dup1\n      swap2\n      sub\n      swap1\n      revert\n    tag_45:\n        /* \"simpleAuction.sol\":3882:3887  ended */\n      0x05\n      0x00\n      swap1\n      sload\n      swap1\n      0x0100\n      exp\n      swap1\n      div\n      0xff\n      and\n        /* \"simpleAuction.sol\":3881:3887  !ended */\n      iszero\n        /* \"simpleAuction.sol\":3873:3939  require(!ended,\"The function auctionEnd has already been called.\") */\n      tag_48\n      jumpi\n      mload(0x40)\n      0x08c379a000000000000000000000000000000000000000000000000000000000\n      dup2\n      mstore\n      0x04\n      add\n      tag_49\n      swap1\n      tag_50\n      jump\t// in\n    tag_49:\n      mload(0x40)\n      dup1\n      swap2\n      sub\n      swap1\n      revert\n    tag_48:\n        /* \"simpleAuction.sol\":3983:3987  true */\n      0x01\n        /* \"simpleAuction.sol\":3975:3980  ended */\n      0x05\n      0x00\n        /* \"simpleAuction.sol\":3975:3987  ended = true */\n      0x0100\n      exp\n      dup2\n      sload\n      dup2\n      0xff\n      mul\n      not\n      and\n      swap1\n      dup4\n      iszero\n      iszero\n      mul\n      or\n      swap1\n      sstore\n      pop\n        /* \"simpleAuction.sol\":4003:4056  AuctionEnded(TheHighistBid.Adress, TheHighistBid.bid) */\n      0xdaec4582d5d9595688c8c98545fdd1c696d41c6aeaeb636737e84ed2f5c00eda\n        /* \"simpleAuction.sol\":4016:4029  TheHighistBid */\n      0x02\n        /* \"simpleAuction.sol\":4016:4036  TheHighistBid.Adress */\n      0x00\n      add\n      0x00\n      swap1\n      sload\n      swap1\n      0x0100\n      exp\n      swap1\n      div\n      0xffffffffffffffffffffffffffffffffffffffff\n      and\n        /* \"simpleAuction.sol\":4038:4051  TheHighistBid */\n      0x02\n        /* \"simpleAuction.sol\":4038:4055  TheHighistBid.bid */\n      0x01\n      add\n      sload\n        /* \"simpleAuction.sol\":4003:4056  AuctionEnded(TheHighistBid.Adress, TheHighistBid.bid) */\n      mload(0x40)\n      tag_51\n      swap3\n      swap2\n      swap1\n      tag_32\n      jump\t// in\n    tag_51:\n      mload(0x40)\n      dup1\n      swap2\n      sub\n      swap1\n      log1\n        /* \"simpleAuction.sol\":4096:4107  beneficiary */\n      0x00\n      dup1\n      sload\n      swap1\n      0x0100\n      exp\n      swap1\n      div\n      0xffffffffffffffffffffffffffffffffffffffff\n      and\n        /* \"simpleAuction.sol\":4096:4116  beneficiary.transfer */\n      0xffffffffffffffffffffffffffffffffffffffff\n      and\n        /* \"simpleAuction.sol\":4096:4135  beneficiary.transfer(TheHighistBid.bid) */\n      0x08fc\n        /* \"simpleAuction.sol\":4117:4130  TheHighistBid */\n      0x02\n        /* \"simpleAuction.sol\":4117:4134  TheHighistBid.bid */\n      0x01\n      add\n      sload\n        /* \"simpleAuction.sol\":4096:4135  beneficiary.transfer(TheHighistBid.bid) */\n      swap1\n      dup2\n      iszero\n      mul\n      swap1\n      mload(0x40)\n      0x00\n      mload(0x40)\n      dup1\n      dup4\n      sub\n      dup2\n      dup6\n      dup9\n      dup9\n      call\n      swap4\n      pop\n      pop\n      pop\n      pop\n      iszero\n      dup1\n      iszero\n      tag_53\n      jumpi\n      returndatasize\n      0x00\n      dup1\n      returndatacopy\n      revert(0x00, returndatasize)\n    tag_53:\n      pop\n        /* \"simpleAuction.sol\":2997:4143  function auctionEnd() external {\r... */\n      jump\t// out\n        /* \"simpleAuction.sol\":134:168  address payable public beneficiary */\n    tag_15:\n      0x00\n      dup1\n      sload\n      swap1\n      0x0100\n      exp\n      swap1\n      div\n      0xffffffffffffffffffffffffffffffffffffffff\n      and\n      dup2\n      jump\t// out\n        /* \"simpleAuction.sol\":2086:2910  function withdraw() external returns (bool) {\r... */\n    tag_20:\n        /* \"simpleAuction.sol\":2124:2128  bool */\n      0x00\n        /* \"simpleAuction.sol\":2141:2152  uint amount */\n      dup1\n        /* \"simpleAuction.sol\":2155:2169  pendingReturns */\n      0x04\n        /* \"simpleAuction.sol\":2155:2181  pendingReturns[msg.sender] */\n      0x00\n        /* \"simpleAuction.sol\":2170:2180  msg.sender */\n      caller\n        /* \"simpleAuction.sol\":2155:2181  pendingReturns[msg.sender] */\n      0xffffffffffffffffffffffffffffffffffffffff\n      and\n      0xffffffffffffffffffffffffffffffffffffffff\n      and\n      dup2\n      mstore\n      0x20\n      add\n      swap1\n      dup2\n      mstore\n      0x20\n      add\n      0x00\n      keccak256\n      sload\n        /* \"simpleAuction.sol\":2141:2181  uint amount = pendingReturns[msg.sender] */\n      swap1\n      pop\n        /* \"simpleAuction.sol\":2205:2206  0 */\n      0x00\n        /* \"simpleAuction.sol\":2196:2202  amount */\n      dup2\n        /* \"simpleAuction.sol\":2196:2206  amount > 0 */\n      gt\n        /* \"simpleAuction.sol\":2192:2881  if (amount > 0) {\r... */\n      iszero\n      tag_55\n      jumpi\n        /* \"simpleAuction.sol\":2440:2441  0 */\n      0x00\n        /* \"simpleAuction.sol\":2411:2425  pendingReturns */\n      0x04\n        /* \"simpleAuction.sol\":2411:2437  pendingReturns[msg.sender] */\n      0x00\n        /* \"simpleAuction.sol\":2426:2436  msg.sender */\n      caller\n        /* \"simpleAuction.sol\":2411:2437  pendingReturns[msg.sender] */\n      0xffffffffffffffffffffffffffffffffffffffff\n      and\n      0xffffffffffffffffffffffffffffffffffffffff\n      and\n      dup2\n      mstore\n      0x20\n      add\n      swap1\n      dup2\n      mstore\n      0x20\n      add\n      0x00\n      keccak256\n        /* \"simpleAuction.sol\":2411:2441  pendingReturns[msg.sender] = 0 */\n      dup2\n      swap1\n      sstore\n      pop\n        /* \"simpleAuction.sol\":2667:2677  msg.sender */\n      caller\n        /* \"simpleAuction.sol\":2659:2683  payable(msg.sender).send */\n      0xffffffffffffffffffffffffffffffffffffffff\n      and\n        /* \"simpleAuction.sol\":2659:2691  payable(msg.sender).send(amount) */\n      0x08fc\n        /* \"simpleAuction.sol\":2684:2690  amount */\n      dup3\n        /* \"simpleAuction.sol\":2659:2691  payable(msg.sender).send(amount) */\n      swap1\n      dup2\n      iszero\n      mul\n      swap1\n      mload(0x40)\n      0x00\n      mload(0x40)\n      dup1\n      dup4\n      sub\n      dup2\n      dup6\n      dup9\n      dup9\n      call\n      swap4\n      pop\n      pop\n      pop\n      pop\n        /* \"simpleAuction.sol\":2654:2870  if (!payable(msg.sender).send(amount)) {\r... */\n      tag_57\n      jumpi\n        /* \"simpleAuction.sol\":2817:2823  amount */\n      dup1\n        /* \"simpleAuction.sol\":2788:2802  pendingReturns */\n      0x04\n        /* \"simpleAuction.sol\":2788:2814  pendingReturns[msg.sender] */\n      0x00\n        /* \"simpleAuction.sol\":2803:2813  msg.sender */\n      caller\n        /* \"simpleAuction.sol\":2788:2814  pendingReturns[msg.sender] */\n      0xffffffffffffffffffffffffffffffffffffffff\n      and\n      0xffffffffffffffffffffffffffffffffffffffff\n      and\n      dup2\n      mstore\n      0x20\n      add\n      swap1\n      dup2\n      mstore\n      0x20\n      add\n      0x00\n      keccak256\n        /* \"simpleAuction.sol\":2788:2823  pendingReturns[msg.sender] = amount */\n      dup2\n      swap1\n      sstore\n      pop\n        /* \"simpleAuction.sol\":2849:2854  false */\n      0x00\n        /* \"simpleAuction.sol\":2842:2854  return false */\n      swap2\n      pop\n      pop\n      jump(tag_54)\n        /* \"simpleAuction.sol\":2654:2870  if (!payable(msg.sender).send(amount)) {\r... */\n    tag_57:\n        /* \"simpleAuction.sol\":2192:2881  if (amount > 0) {\r... */\n    tag_55:\n        /* \"simpleAuction.sol\":2898:2902  true */\n      0x01\n        /* \"simpleAuction.sol\":2891:2902  return true */\n      swap2\n      pop\n      pop\n        /* \"simpleAuction.sol\":2086:2910  function withdraw() external returns (bool) {\r... */\n    tag_54:\n      swap1\n      jump\t// out\n        /* \"simpleAuction.sol\":280:306  uint public auctionEndTime */\n    tag_25:\n      sload(0x01)\n      dup2\n      jump\t// out\n        /* \"simpleAuction.sol\":428:459  higgestBid public TheHighistBid */\n    tag_30:\n      0x02\n      dup1\n      0x00\n      add\n      0x00\n      swap1\n      sload\n      swap1\n      0x0100\n      exp\n      swap1\n      div\n      0xffffffffffffffffffffffffffffffffffffffff\n      and\n      swap1\n      dup1\n      0x01\n      add\n      sload\n      swap1\n      pop\n      dup3\n      jump\t// out\n        /* \"#utility.yul\":7:149   */\n    tag_59:\n        /* \"#utility.yul\":110:142   */\n      tag_61\n        /* \"#utility.yul\":136:141   */\n      dup2\n        /* \"#utility.yul\":110:142   */\n      tag_62\n      jump\t// in\n    tag_61:\n        /* \"#utility.yul\":105:108   */\n      dup3\n        /* \"#utility.yul\":98:143   */\n      mstore\n        /* \"#utility.yul\":7:149   */\n      pop\n      pop\n      jump\t// out\n        /* \"#utility.yul\":155:273   */\n    tag_63:\n        /* \"#utility.yul\":242:266   */\n      tag_65\n        /* \"#utility.yul\":260:265   */\n      dup2\n        /* \"#utility.yul\":242:266   */\n      tag_66\n      jump\t// in\n    tag_65:\n        /* \"#utility.yul\":237:240   */\n      dup3\n        /* \"#utility.yul\":230:267   */\n      mstore\n        /* \"#utility.yul\":155:273   */\n      pop\n      pop\n      jump\t// out\n        /* \"#utility.yul\":279:388   */\n    tag_67:\n        /* \"#utility.yul\":360:381   */\n      tag_69\n        /* \"#utility.yul\":375:380   */\n      dup2\n        /* \"#utility.yul\":360:381   */\n      tag_70\n      jump\t// in\n    tag_69:\n        /* \"#utility.yul\":355:358   */\n      dup3\n        /* \"#utility.yul\":348:382   */\n      mstore\n        /* \"#utility.yul\":279:388   */\n      pop\n      pop\n      jump\t// out\n        /* \"#utility.yul\":394:760   */\n    tag_71:\n        /* \"#utility.yul\":536:539   */\n      0x00\n        /* \"#utility.yul\":557:624   */\n      tag_73\n        /* \"#utility.yul\":621:623   */\n      0x1e\n        /* \"#utility.yul\":616:619   */\n      dup4\n        /* \"#utility.yul\":557:624   */\n      tag_74\n      jump\t// in\n    tag_73:\n        /* \"#utility.yul\":550:624   */\n      swap2\n      pop\n        /* \"#utility.yul\":633:726   */\n      tag_75\n        /* \"#utility.yul\":722:725   */\n      dup3\n        /* \"#utility.yul\":633:726   */\n      tag_76\n      jump\t// in\n    tag_75:\n        /* \"#utility.yul\":751:753   */\n      0x20\n        /* \"#utility.yul\":746:749   */\n      dup3\n        /* \"#utility.yul\":742:754   */\n      add\n        /* \"#utility.yul\":735:754   */\n      swap1\n      pop\n        /* \"#utility.yul\":394:760   */\n      swap2\n      swap1\n      pop\n      jump\t// out\n        /* \"#utility.yul\":766:1132   */\n    tag_77:\n        /* \"#utility.yul\":908:911   */\n      0x00\n        /* \"#utility.yul\":929:996   */\n      tag_79\n        /* \"#utility.yul\":993:995   */\n      0x30\n        /* \"#utility.yul\":988:991   */\n      dup4\n        /* \"#utility.yul\":929:996   */\n      tag_74\n      jump\t// in\n    tag_79:\n        /* \"#utility.yul\":922:996   */\n      swap2\n      pop\n        /* \"#utility.yul\":1005:1098   */\n      tag_80\n        /* \"#utility.yul\":1094:1097   */\n      dup3\n        /* \"#utility.yul\":1005:1098   */\n      tag_81\n      jump\t// in\n    tag_80:\n        /* \"#utility.yul\":1123:1125   */\n      0x40\n        /* \"#utility.yul\":1118:1121   */\n      dup3\n        /* \"#utility.yul\":1114:1126   */\n      add\n        /* \"#utility.yul\":1107:1126   */\n      swap1\n      pop\n        /* \"#utility.yul\":766:1132   */\n      swap2\n      swap1\n      pop\n      jump\t// out\n        /* \"#utility.yul\":1138:1504   */\n    tag_82:\n        /* \"#utility.yul\":1280:1283   */\n      0x00\n        /* \"#utility.yul\":1301:1368   */\n      tag_84\n        /* \"#utility.yul\":1365:1367   */\n      0x27\n        /* \"#utility.yul\":1360:1363   */\n      dup4\n        /* \"#utility.yul\":1301:1368   */\n      tag_74\n      jump\t// in\n    tag_84:\n        /* \"#utility.yul\":1294:1368   */\n      swap2\n      pop\n        /* \"#utility.yul\":1377:1470   */\n      tag_85\n        /* \"#utility.yul\":1466:1469   */\n      dup3\n        /* \"#utility.yul\":1377:1470   */\n      tag_86\n      jump\t// in\n    tag_85:\n        /* \"#utility.yul\":1495:1497   */\n      0x40\n        /* \"#utility.yul\":1490:1493   */\n      dup3\n        /* \"#utility.yul\":1486:1498   */\n      add\n        /* \"#utility.yul\":1479:1498   */\n      swap1\n      pop\n        /* \"#utility.yul\":1138:1504   */\n      swap2\n      swap1\n      pop\n      jump\t// out\n        /* \"#utility.yul\":1510:1876   */\n    tag_87:\n        /* \"#utility.yul\":1652:1655   */\n      0x00\n        /* \"#utility.yul\":1673:1740   */\n      tag_89\n        /* \"#utility.yul\":1737:1739   */\n      0x1d\n        /* \"#utility.yul\":1732:1735   */\n      dup4\n        /* \"#utility.yul\":1673:1740   */\n      tag_74\n      jump\t// in\n    tag_89:\n        /* \"#utility.yul\":1666:1740   */\n      swap2\n      pop\n        /* \"#utility.yul\":1749:1842   */\n      tag_90\n        /* \"#utility.yul\":1838:1841   */\n      dup3\n        /* \"#utility.yul\":1749:1842   */\n      tag_91\n      jump\t// in\n    tag_90:\n        /* \"#utility.yul\":1867:1869   */\n      0x20\n        /* \"#utility.yul\":1862:1865   */\n      dup3\n        /* \"#utility.yul\":1858:1870   */\n      add\n        /* \"#utility.yul\":1851:1870   */\n      swap1\n      pop\n        /* \"#utility.yul\":1510:1876   */\n      swap2\n      swap1\n      pop\n      jump\t// out\n        /* \"#utility.yul\":1882:2000   */\n    tag_92:\n        /* \"#utility.yul\":1969:1993   */\n      tag_94\n        /* \"#utility.yul\":1987:1992   */\n      dup2\n        /* \"#utility.yul\":1969:1993   */\n      tag_95\n      jump\t// in\n    tag_94:\n        /* \"#utility.yul\":1964:1967   */\n      dup3\n        /* \"#utility.yul\":1957:1994   */\n      mstore\n        /* \"#utility.yul\":1882:2000   */\n      pop\n      pop\n      jump\t// out\n        /* \"#utility.yul\":2006:2260   */\n    tag_17:\n        /* \"#utility.yul\":2115:2119   */\n      0x00\n        /* \"#utility.yul\":2153:2155   */\n      0x20\n        /* \"#utility.yul\":2142:2151   */\n      dup3\n        /* \"#utility.yul\":2138:2156   */\n      add\n        /* \"#utility.yul\":2130:2156   */\n      swap1\n      pop\n        /* \"#utility.yul\":2166:2253   */\n      tag_97\n        /* \"#utility.yul\":2250:2251   */\n      0x00\n        /* \"#utility.yul\":2239:2248   */\n      dup4\n        /* \"#utility.yul\":2235:2252   */\n      add\n        /* \"#utility.yul\":2226:2232   */\n      dup5\n        /* \"#utility.yul\":2166:2253   */\n      tag_59\n      jump\t// in\n    tag_97:\n        /* \"#utility.yul\":2006:2260   */\n      swap3\n      swap2\n      pop\n      pop\n      jump\t// out\n        /* \"#utility.yul\":2266:2598   */\n    tag_32:\n        /* \"#utility.yul\":2387:2391   */\n      0x00\n        /* \"#utility.yul\":2425:2427   */\n      0x40\n        /* \"#utility.yul\":2414:2423   */\n      dup3\n        /* \"#utility.yul\":2410:2428   */\n      add\n        /* \"#utility.yul\":2402:2428   */\n      swap1\n      pop\n        /* \"#utility.yul\":2438:2509   */\n      tag_99\n        /* \"#utility.yul\":2506:2507   */\n      0x00\n        /* \"#utility.yul\":2495:2504   */\n      dup4\n        /* \"#utility.yul\":2491:2508   */\n      add\n        /* \"#utility.yul\":2482:2488   */\n      dup6\n        /* \"#utility.yul\":2438:2509   */\n      tag_63\n      jump\t// in\n    tag_99:\n        /* \"#utility.yul\":2519:2591   */\n      tag_100\n        /* \"#utility.yul\":2587:2589   */\n      0x20\n        /* \"#utility.yul\":2576:2585   */\n      dup4\n        /* \"#utility.yul\":2572:2590   */\n      add\n        /* \"#utility.yul\":2563:2569   */\n      dup5\n        /* \"#utility.yul\":2519:2591   */\n      tag_92\n      jump\t// in\n    tag_100:\n        /* \"#utility.yul\":2266:2598   */\n      swap4\n      swap3\n      pop\n      pop\n      pop\n      jump\t// out\n        /* \"#utility.yul\":2604:2814   */\n    tag_22:\n        /* \"#utility.yul\":2691:2695   */\n      0x00\n        /* \"#utility.yul\":2729:2731   */\n      0x20\n        /* \"#utility.yul\":2718:2727   */\n      dup3\n        /* \"#utility.yul\":2714:2732   */\n      add\n        /* \"#utility.yul\":2706:2732   */\n      swap1\n      pop\n        /* \"#utility.yul\":2742:2807   */\n      tag_102\n        /* \"#utility.yul\":2804:2805   */\n      0x00\n        /* \"#utility.yul\":2793:2802   */\n      dup4\n        /* \"#utility.yul\":2789:2806   */\n      add\n        /* \"#utility.yul\":2780:2786   */\n      dup5\n        /* \"#utility.yul\":2742:2807   */\n      tag_67\n      jump\t// in\n    tag_102:\n        /* \"#utility.yul\":2604:2814   */\n      swap3\n      swap2\n      pop\n      pop\n      jump\t// out\n        /* \"#utility.yul\":2820:3239   */\n    tag_47:\n        /* \"#utility.yul\":2986:2990   */\n      0x00\n        /* \"#utility.yul\":3024:3026   */\n      0x20\n        /* \"#utility.yul\":3013:3022   */\n      dup3\n        /* \"#utility.yul\":3009:3027   */\n      add\n        /* \"#utility.yul\":3001:3027   */\n      swap1\n      pop\n        /* \"#utility.yul\":3073:3082   */\n      dup2\n        /* \"#utility.yul\":3067:3071   */\n      dup2\n        /* \"#utility.yul\":3063:3083   */\n      sub\n        /* \"#utility.yul\":3059:3060   */\n      0x00\n        /* \"#utility.yul\":3048:3057   */\n      dup4\n        /* \"#utility.yul\":3044:3061   */\n      add\n        /* \"#utility.yul\":3037:3084   */\n      mstore\n        /* \"#utility.yul\":3101:3232   */\n      tag_104\n        /* \"#utility.yul\":3227:3231   */\n      dup2\n        /* \"#utility.yul\":3101:3232   */\n      tag_71\n      jump\t// in\n    tag_104:\n        /* \"#utility.yul\":3093:3232   */\n      swap1\n      pop\n        /* \"#utility.yul\":2820:3239   */\n      swap2\n      swap1\n      pop\n      jump\t// out\n        /* \"#utility.yul\":3245:3664   */\n    tag_50:\n        /* \"#utility.yul\":3411:3415   */\n      0x00\n        /* \"#utility.yul\":3449:3451   */\n      0x20\n        /* \"#utility.yul\":3438:3447   */\n      dup3\n        /* \"#utility.yul\":3434:3452   */\n      add\n        /* \"#utility.yul\":3426:3452   */\n      swap1\n      pop\n        /* \"#utility.yul\":3498:3507   */\n      dup2\n        /* \"#utility.yul\":3492:3496   */\n      dup2\n        /* \"#utility.yul\":3488:3508   */\n      sub\n        /* \"#utility.yul\":3484:3485   */\n      0x00\n        /* \"#utility.yul\":3473:3482   */\n      dup4\n        /* \"#utility.yul\":3469:3486   */\n      add\n        /* \"#utility.yul\":3462:3509   */\n      mstore\n        /* \"#utility.yul\":3526:3657   */\n      tag_106\n        /* \"#utility.yul\":3652:3656   */\n      dup2\n        /* \"#utility.yul\":3526:3657   */\n      tag_77\n      jump\t// in\n    tag_106:\n        /* \"#utility.yul\":3518:3657   */\n      swap1\n      pop\n        /* \"#utility.yul\":3245:3664   */\n      swap2\n      swap1\n      pop\n      jump\t// out\n        /* \"#utility.yul\":3670:4089   */\n    tag_39:\n        /* \"#utility.yul\":3836:3840   */\n      0x00\n        /* \"#utility.yul\":3874:3876   */\n      0x20\n        /* \"#utility.yul\":3863:3872   */\n      dup3\n        /* \"#utility.yul\":3859:3877   */\n      add\n        /* \"#utility.yul\":3851:3877   */\n      swap1\n      pop\n        /* \"#utility.yul\":3923:3932   */\n      dup2\n        /* \"#utility.yul\":3917:3921   */\n      dup2\n        /* \"#utility.yul\":3913:3933   */\n      sub\n        /* \"#utility.yul\":3909:3910   */\n      0x00\n        /* \"#utility.yul\":3898:3907   */\n      dup4\n        /* \"#utility.yul\":3894:3911   */\n      add\n        /* \"#utility.yul\":3887:3934   */\n      mstore\n        /* \"#utility.yul\":3951:4082   */\n      tag_108\n        /* \"#utility.yul\":4077:4081   */\n      dup2\n        /* \"#utility.yul\":3951:4082   */\n      tag_82\n      jump\t// in\n    tag_108:\n        /* \"#utility.yul\":3943:4082   */\n      swap1\n      pop\n        /* \"#utility.yul\":3670:4089   */\n      swap2\n      swap1\n      pop\n      jump\t// out\n        /* \"#utility.yul\":4095:4514   */\n    tag_36:\n        /* \"#utility.yul\":4261:4265   */\n      0x00\n        /* \"#utility.yul\":4299:4301   */\n      0x20\n        /* \"#utility.yul\":4288:4297   */\n      dup3\n        /* \"#utility.yul\":4284:4302   */\n      add\n        /* \"#utility.yul\":4276:4302   */\n      swap1\n      pop\n        /* \"#utility.yul\":4348:4357   */\n      dup2\n        /* \"#utility.yul\":4342:4346   */\n      dup2\n        /* \"#utility.yul\":4338:4358   */\n      sub\n        /* \"#utility.yul\":4334:4335   */\n      0x00\n        /* \"#utility.yul\":4323:4332   */\n      dup4\n        /* \"#utility.yul\":4319:4336   */\n      add\n        /* \"#utility.yul\":4312:4359   */\n      mstore\n        /* \"#utility.yul\":4376:4507   */\n      tag_110\n        /* \"#utility.yul\":4502:4506   */\n      dup2\n        /* \"#utility.yul\":4376:4507   */\n      tag_87\n      jump\t// in\n    tag_110:\n        /* \"#utility.yul\":4368:4507   */\n      swap1\n      pop\n        /* \"#utility.yul\":4095:4514   */\n      swap2\n      swap1\n      pop\n      jump\t// out\n        /* \"#utility.yul\":4520:4742   */\n    tag_27:\n        /* \"#utility.yul\":4613:4617   */\n      0x00\n        /* \"#utility.yul\":4651:4653   */\n      0x20\n        /* \"#utility.yul\":4640:4649   */\n      dup3\n        /* \"#utility.yul\":4636:4654   */\n      add\n        /* \"#utility.yul\":4628:4654   */\n      swap1\n      pop\n        /* \"#utility.yul\":4664:4735   */\n      tag_112\n        /* \"#utility.yul\":4732:4733   */\n      0x00\n        /* \"#utility.yul\":4721:4730   */\n      dup4\n        /* \"#utility.yul\":4717:4734   */\n      add\n        /* \"#utility.yul\":4708:4714   */\n      dup5\n        /* \"#utility.yul\":4664:4735   */\n      tag_92\n      jump\t// in\n    tag_112:\n        /* \"#utility.yul\":4520:4742   */\n      swap3\n      swap2\n      pop\n      pop\n      jump\t// out\n        /* \"#utility.yul\":4748:4917   */\n    tag_74:\n        /* \"#utility.yul\":4832:4843   */\n      0x00\n        /* \"#utility.yul\":4866:4872   */\n      dup3\n        /* \"#utility.yul\":4861:4864   */\n      dup3\n        /* \"#utility.yul\":4854:4873   */\n      mstore\n        /* \"#utility.yul\":4906:4910   */\n      0x20\n        /* \"#utility.yul\":4901:4904   */\n      dup3\n        /* \"#utility.yul\":4897:4911   */\n      add\n        /* \"#utility.yul\":4882:4911   */\n      swap1\n      pop\n        /* \"#utility.yul\":4748:4917   */\n      swap3\n      swap2\n      pop\n      pop\n      jump\t// out\n        /* \"#utility.yul\":4923:5228   */\n    tag_42:\n        /* \"#utility.yul\":4963:4966   */\n      0x00\n        /* \"#utility.yul\":4982:5002   */\n      tag_115\n        /* \"#utility.yul\":5000:5001   */\n      dup3\n        /* \"#utility.yul\":4982:5002   */\n      tag_95\n      jump\t// in\n    tag_115:\n        /* \"#utility.yul\":4977:5002   */\n      swap2\n      pop\n        /* \"#utility.yul\":5016:5036   */\n      tag_116\n        /* \"#utility.yul\":5034:5035   */\n      dup4\n        /* \"#utility.yul\":5016:5036   */\n      tag_95\n      jump\t// in\n    tag_116:\n        /* \"#utility.yul\":5011:5036   */\n      swap3\n      pop\n        /* \"#utility.yul\":5170:5171   */\n      dup3\n        /* \"#utility.yul\":5102:5168   */\n      0xffffffffffffffffffffffffffffffffffffffffffffffffffffffffffffffff\n        /* \"#utility.yul\":5098:5172   */\n      sub\n        /* \"#utility.yul\":5095:5096   */\n      dup3\n        /* \"#utility.yul\":5092:5173   */\n      gt\n        /* \"#utility.yul\":5089:5196   */\n      iszero\n      tag_117\n      jumpi\n        /* \"#utility.yul\":5176:5194   */\n      tag_118\n      tag_119\n      jump\t// in\n    tag_118:\n        /* \"#utility.yul\":5089:5196   */\n    tag_117:\n        /* \"#utility.yul\":5220:5221   */\n      dup3\n        /* \"#utility.yul\":5217:5218   */\n      dup3\n        /* \"#utility.yul\":5213:5222   */\n      add\n        /* \"#utility.yul\":5206:5222   */\n      swap1\n      pop\n        /* \"#utility.yul\":4923:5228   */\n      swap3\n      swap2\n      pop\n      pop\n      jump\t// out\n        /* \"#utility.yul\":5234:5330   */\n    tag_66:\n        /* \"#utility.yul\":5271:5278   */\n      0x00\n        /* \"#utility.yul\":5300:5324   */\n      tag_121\n        /* \"#utility.yul\":5318:5323   */\n      dup3\n        /* \"#utility.yul\":5300:5324   */\n      tag_122\n      jump\t// in\n    tag_121:\n        /* \"#utility.yul\":5289:5324   */\n      swap1\n      pop\n        /* \"#utility.yul\":5234:5330   */\n      swap2\n      swap1\n      pop\n      jump\t// out\n        /* \"#utility.yul\":5336:5440   */\n    tag_62:\n        /* \"#utility.yul\":5381:5388   */\n      0x00\n        /* \"#utility.yul\":5410:5434   */\n      tag_124\n        /* \"#utility.yul\":5428:5433   */\n      dup3\n        /* \"#utility.yul\":5410:5434   */\n      tag_122\n      jump\t// in\n    tag_124:\n        /* \"#utility.yul\":5399:5434   */\n      swap1\n      pop\n        /* \"#utility.yul\":5336:5440   */\n      swap2\n      swap1\n      pop\n      jump\t// out\n        /* \"#utility.yul\":5446:5536   */\n    tag_70:\n        /* \"#utility.yul\":5480:5487   */\n      0x00\n        /* \"#utility.yul\":5523:5528   */\n      dup2\n        /* \"#utility.yul\":5516:5529   */\n      iszero\n        /* \"#utility.yul\":5509:5530   */\n      iszero\n        /* \"#utility.yul\":5498:5530   */\n      swap1\n      pop\n        /* \"#utility.yul\":5446:5536   */\n      swap2\n      swap1\n      pop\n      jump\t// out\n        /* \"#utility.yul\":5542:5668   */\n    tag_122:\n        /* \"#utility.yul\":5579:5586   */\n      0x00\n        /* \"#utility.yul\":5619:5661   */\n      0xffffffffffffffffffffffffffffffffffffffff\n        /* \"#utility.yul\":5612:5617   */\n      dup3\n        /* \"#utility.yul\":5608:5662   */\n      and\n        /* \"#utility.yul\":5597:5662   */\n      swap1\n      pop\n        /* \"#utility.yul\":5542:5668   */\n      swap2\n      swap1\n      pop\n      jump\t// out\n        /* \"#utility.yul\":5674:5751   */\n    tag_95:\n        /* \"#utility.yul\":5711:5718   */\n      0x00\n        /* \"#utility.yul\":5740:5745   */\n      dup2\n        /* \"#utility.yul\":5729:5745   */\n      swap1\n      pop\n        /* \"#utility.yul\":5674:5751   */\n      swap2\n      swap1\n      pop\n      jump\t// out\n        /* \"#utility.yul\":5757:5937   */\n    tag_119:\n        /* \"#utility.yul\":5805:5882   */\n      0x4e487b7100000000000000000000000000000000000000000000000000000000\n        /* \"#utility.yul\":5802:5803   */\n      0x00\n        /* \"#utility.yul\":5795:5883   */\n      mstore\n        /* \"#utility.yul\":5902:5906   */\n      0x11\n        /* \"#utility.yul\":5899:5900   */\n      0x04\n        /* \"#utility.yul\":5892:5907   */\n      mstore\n        /* \"#utility.yul\":5926:5930   */\n      0x24\n        /* \"#utility.yul\":5923:5924   */\n      0x00\n        /* \"#utility.yul\":5916:5931   */\n      revert\n        /* \"#utility.yul\":5943:6123   */\n    tag_76:\n        /* \"#utility.yul\":6083:6115   */\n      0x5468652061756374696f6e20686173206e6f7420656e646564207965742e0000\n        /* \"#utility.yul\":6079:6080   */\n      0x00\n        /* \"#utility.yul\":6071:6077   */\n      dup3\n        /* \"#utility.yul\":6067:6081   */\n      add\n        /* \"#utility.yul\":6060:6116   */\n      mstore\n        /* \"#utility.yul\":5943:6123   */\n      pop\n      jump\t// out\n        /* \"#utility.yul\":6129:6364   */\n    tag_81:\n        /* \"#utility.yul\":6269:6303   */\n      0x5468652066756e6374696f6e2061756374696f6e456e642068617320616c7265\n        /* \"#utility.yul\":6265:6266   */\n      0x00\n        /* \"#utility.yul\":6257:6263   */\n      dup3\n        /* \"#utility.yul\":6253:6267   */\n      add\n        /* \"#utility.yul\":6246:6304   */\n      mstore\n        /* \"#utility.yul\":6338:6356   */\n      0x616479206265656e2063616c6c65642e00000000000000000000000000000000\n        /* \"#utility.yul\":6333:6335   */\n      0x20\n        /* \"#utility.yul\":6325:6331   */\n      dup3\n        /* \"#utility.yul\":6321:6336   */\n      add\n        /* \"#utility.yul\":6314:6357   */\n      mstore\n        /* \"#utility.yul\":6129:6364   */\n      pop\n      jump\t// out\n        /* \"#utility.yul\":6370:6596   */\n    tag_86:\n        /* \"#utility.yul\":6510:6544   */\n      0x546865726520697320616c7265616479206120686967686572206f7220657175\n        /* \"#utility.yul\":6506:6507   */\n      0x00\n        /* \"#utility.yul\":6498:6504   */\n      dup3\n        /* \"#utility.yul\":6494:6508   */\n      add\n        /* \"#utility.yul\":6487:6545   */\n      mstore\n        /* \"#utility.yul\":6579:6588   */\n      0x616c206269642e00000000000000000000000000000000000000000000000000\n        /* \"#utility.yul\":6574:6576   */\n      0x20\n        /* \"#utility.yul\":6566:6572   */\n      dup3\n        /* \"#utility.yul\":6562:6577   */\n      add\n        /* \"#utility.yul\":6555:6589   */\n      mstore\n        /* \"#utility.yul\":6370:6596   */\n      pop\n      jump\t// out\n        /* \"#utility.yul\":6602:6781   */\n    tag_91:\n        /* \"#utility.yul\":6742:6773   */\n      0x5468652061756374696f6e2068617320616c726561647920656e646564000000\n        /* \"#utility.yul\":6738:6739   */\n      0x00\n        /* \"#utility.yul\":6730:6736   */\n      dup3\n        /* \"#utility.yul\":6726:6740   */\n      add\n        /* \"#utility.yul\":6719:6774   */\n      mstore\n        /* \"#utility.yul\":6602:6781   */\n      pop\n      jump\t// out\n\n    auxdata: 0xa26469706673582212202e3445500e8a5e6e836ea7ac6e6711a2713e372be12ecf512c2de94573816bb564736f6c63430008070033\n}\n",
				"bytecode": {
					"linkReferences": {},
					"object": "60806040523480156200001157600080fd5b5060405162000bbd38038062000bbd8339818101604052810190620000379190620000c1565b806000806101000a81548173ffffffffffffffffffffffffffffffffffffffff021916908373ffffffffffffffffffffffffffffffffffffffff160217905550814262000085919062000108565b60018190555050506200020b565b600081519050620000a481620001d7565b92915050565b600081519050620000bb81620001f1565b92915050565b60008060408385031215620000db57620000da620001d2565b5b6000620000eb85828601620000aa565b9250506020620000fe8582860162000093565b9150509250929050565b6000620001158262000199565b9150620001228362000199565b9250827fffffffffffffffffffffffffffffffffffffffffffffffffffffffffffffffff038211156200015a5762000159620001a3565b5b828201905092915050565b6000620001728262000179565b9050919050565b600073ffffffffffffffffffffffffffffffffffffffff82169050919050565b6000819050919050565b7f4e487b7100000000000000000000000000000000000000000000000000000000600052601160045260246000fd5b600080fd5b620001e28162000165565b8114620001ee57600080fd5b50565b620001fc8162000199565b81146200020857600080fd5b50565b6109a2806200021b6000396000f3fe6080604052600436106100555760003560e01c80631998aeef1461005a5780632a24f46c1461006457806338af3eed1461007b5780633ccfd60b146100a65780634b449cba146100d1578063523d7886146100fc575b600080fd5b610062610128565b005b34801561007057600080fd5b506100796102ca565b005b34801561008757600080fd5b5061009061044a565b60405161009d9190610692565b60405180910390f35b3480156100b257600080fd5b506100bb61046e565b6040516100c891906106d6565b60405180910390f35b3480156100dd57600080fd5b506100e6610592565b6040516100f39190610771565b60405180910390f35b34801561010857600080fd5b50610111610598565b60405161011f9291906106ad565b60405180910390f35b600154421061016c576040517f08c379a000000000000000000000000000000000000000000000000000000000815260040161016390610751565b60405180910390fd5b60026001015434116101b3576040517f08c379a00000000000000000000000000000000000000000000000000000000081526004016101aa90610731565b60405180910390fd5b6000600260010154146102415760026001015460046000600260000160009054906101000a900473ffffffffffffffffffffffffffffffffffffffff1673ffffffffffffffffffffffffffffffffffffffff1673ffffffffffffffffffffffffffffffffffffffff1681526020019081526020016000206000828254610239919061079d565b925050819055505b33600260000160006101000a81548173ffffffffffffffffffffffffffffffffffffffff021916908373ffffffffffffffffffffffffffffffffffffffff160217905550346002600101819055507ff4757a49b326036464bec6fe419a4ae38c8a02ce3e68bf0809674f6aab8ad30033346040516102c09291906106ad565b60405180910390a1565b600154421161030e576040517f08c379a0000000000000000000000000000000000000000000000000000000008152600401610305906106f1565b60405180910390fd5b600560009054906101000a900460ff161561035e576040517f08c379a000000000000000000000000000000000000000000000000000000000815260040161035590610711565b60405180910390fd5b6001600560006101000a81548160ff0219169083151502179055507fdaec4582d5d9595688c8c98545fdd1c696d41c6aeaeb636737e84ed2f5c00eda600260000160009054906101000a900473ffffffffffffffffffffffffffffffffffffffff166002600101546040516103d49291906106ad565b60405180910390a160008054906101000a900473ffffffffffffffffffffffffffffffffffffffff1673ffffffffffffffffffffffffffffffffffffffff166108fc6002600101549081150290604051600060405180830381858888f19350505050158015610447573d6000803e3d6000fd5b50565b60008054906101000a900473ffffffffffffffffffffffffffffffffffffffff1681565b600080600460003373ffffffffffffffffffffffffffffffffffffffff1673ffffffffffffffffffffffffffffffffffffffff1681526020019081526020016000205490506000811115610589576000600460003373ffffffffffffffffffffffffffffffffffffffff1673ffffffffffffffffffffffffffffffffffffffff168152602001908152602001600020819055503373ffffffffffffffffffffffffffffffffffffffff166108fc829081150290604051600060405180830381858888f193505050506105885780600460003373ffffffffffffffffffffffffffffffffffffffff1673ffffffffffffffffffffffffffffffffffffffff16815260200190815260200160002081905550600091505061058f565b5b60019150505b90565b60015481565b60028060000160009054906101000a900473ffffffffffffffffffffffffffffffffffffffff16908060010154905082565b6105d381610805565b82525050565b6105e2816107f3565b82525050565b6105f181610817565b82525050565b6000610604601e8361078c565b915061060f8261087c565b602082019050919050565b600061062760308361078c565b9150610632826108a5565b604082019050919050565b600061064a60278361078c565b9150610655826108f4565b604082019050919050565b600061066d601d8361078c565b915061067882610943565b602082019050919050565b61068c81610843565b82525050565b60006020820190506106a760008301846105ca565b92915050565b60006040820190506106c260008301856105d9565b6106cf6020830184610683565b9392505050565b60006020820190506106eb60008301846105e8565b92915050565b6000602082019050818103600083015261070a816105f7565b9050919050565b6000602082019050818103600083015261072a8161061a565b9050919050565b6000602082019050818103600083015261074a8161063d565b9050919050565b6000602082019050818103600083015261076a81610660565b9050919050565b60006020820190506107866000830184610683565b92915050565b600082825260208201905092915050565b60006107a882610843565b91506107b383610843565b9250827fffffffffffffffffffffffffffffffffffffffffffffffffffffffffffffffff038211156107e8576107e761084d565b5b828201905092915050565b60006107fe82610823565b9050919050565b600061081082610823565b9050919050565b60008115159050919050565b600073ffffffffffffffffffffffffffffffffffffffff82169050919050565b6000819050919050565b7f4e487b7100000000000000000000000000000000000000000000000000000000600052601160045260246000fd5b7f5468652061756374696f6e20686173206e6f7420656e646564207965742e0000600082015250565b7f5468652066756e6374696f6e2061756374696f6e456e642068617320616c726560008201527f616479206265656e2063616c6c65642e00000000000000000000000000000000602082015250565b7f546865726520697320616c7265616479206120686967686572206f722065717560008201527f616c206269642e00000000000000000000000000000000000000000000000000602082015250565b7f5468652061756374696f6e2068617320616c726561647920656e64656400000060008201525056fea26469706673582212202e3445500e8a5e6e836ea7ac6e6711a2713e372be12ecf512c2de94573816bb564736f6c63430008070033",
					"opcodes": "PUSH1 0x80 PUSH1 0x40 MSTORE CALLVALUE DUP1 ISZERO PUSH3 0x11 JUMPI PUSH1 0x0 DUP1 REVERT JUMPDEST POP PUSH1 0x40 MLOAD PUSH3 0xBBD CODESIZE SUB DUP1 PUSH3 0xBBD DUP4 CODECOPY DUP2 DUP2 ADD PUSH1 0x40 MSTORE DUP2 ADD SWAP1 PUSH3 0x37 SWAP2 SWAP1 PUSH3 0xC1 JUMP JUMPDEST DUP1 PUSH1 0x0 DUP1 PUSH2 0x100 EXP DUP2 SLOAD DUP2 PUSH20 0xFFFFFFFFFFFFFFFFFFFFFFFFFFFFFFFFFFFFFFFF MUL NOT AND SWAP1 DUP4 PUSH20 0xFFFFFFFFFFFFFFFFFFFFFFFFFFFFFFFFFFFFFFFF AND MUL OR SWAP1 SSTORE POP DUP2 TIMESTAMP PUSH3 0x85 SWAP2 SWAP1 PUSH3 0x108 JUMP JUMPDEST PUSH1 0x1 DUP2 SWAP1 SSTORE POP POP POP PUSH3 0x20B JUMP JUMPDEST PUSH1 0x0 DUP2 MLOAD SWAP1 POP PUSH3 0xA4 DUP2 PUSH3 0x1D7 JUMP JUMPDEST SWAP3 SWAP2 POP POP JUMP JUMPDEST PUSH1 0x0 DUP2 MLOAD SWAP1 POP PUSH3 0xBB DUP2 PUSH3 0x1F1 JUMP JUMPDEST SWAP3 SWAP2 POP POP JUMP JUMPDEST PUSH1 0x0 DUP1 PUSH1 0x40 DUP4 DUP6 SUB SLT ISZERO PUSH3 0xDB JUMPI PUSH3 0xDA PUSH3 0x1D2 JUMP JUMPDEST JUMPDEST PUSH1 0x0 PUSH3 0xEB DUP6 DUP3 DUP7 ADD PUSH3 0xAA JUMP JUMPDEST SWAP3 POP POP PUSH1 0x20 PUSH3 0xFE DUP6 DUP3 DUP7 ADD PUSH3 0x93 JUMP JUMPDEST SWAP2 POP POP SWAP3 POP SWAP3 SWAP1 POP JUMP JUMPDEST PUSH1 0x0 PUSH3 0x115 DUP3 PUSH3 0x199 JUMP JUMPDEST SWAP2 POP PUSH3 0x122 DUP4 PUSH3 0x199 JUMP JUMPDEST SWAP3 POP DUP3 PUSH32 0xFFFFFFFFFFFFFFFFFFFFFFFFFFFFFFFFFFFFFFFFFFFFFFFFFFFFFFFFFFFFFFFF SUB DUP3 GT ISZERO PUSH3 0x15A JUMPI PUSH3 0x159 PUSH3 0x1A3 JUMP JUMPDEST JUMPDEST DUP3 DUP3 ADD SWAP1 POP SWAP3 SWAP2 POP POP JUMP JUMPDEST PUSH1 0x0 PUSH3 0x172 DUP3 PUSH3 0x179 JUMP JUMPDEST SWAP1 POP SWAP2 SWAP1 POP JUMP JUMPDEST PUSH1 0x0 PUSH20 0xFFFFFFFFFFFFFFFFFFFFFFFFFFFFFFFFFFFFFFFF DUP3 AND SWAP1 POP SWAP2 SWAP1 POP JUMP JUMPDEST PUSH1 0x0 DUP2 SWAP1 POP SWAP2 SWAP1 POP JUMP JUMPDEST PUSH32 0x4E487B7100000000000000000000000000000000000000000000000000000000 PUSH1 0x0 MSTORE PUSH1 0x11 PUSH1 0x4 MSTORE PUSH1 0x24 PUSH1 0x0 REVERT JUMPDEST PUSH1 0x0 DUP1 REVERT JUMPDEST PUSH3 0x1E2 DUP2 PUSH3 0x165 JUMP JUMPDEST DUP2 EQ PUSH3 0x1EE JUMPI PUSH1 0x0 DUP1 REVERT JUMPDEST POP JUMP JUMPDEST PUSH3 0x1FC DUP2 PUSH3 0x199 JUMP JUMPDEST DUP2 EQ PUSH3 0x208 JUMPI PUSH1 0x0 DUP1 REVERT JUMPDEST POP JUMP JUMPDEST PUSH2 0x9A2 DUP1 PUSH3 0x21B PUSH1 0x0 CODECOPY PUSH1 0x0 RETURN INVALID PUSH1 0x80 PUSH1 0x40 MSTORE PUSH1 0x4 CALLDATASIZE LT PUSH2 0x55 JUMPI PUSH1 0x0 CALLDATALOAD PUSH1 0xE0 SHR DUP1 PUSH4 0x1998AEEF EQ PUSH2 0x5A JUMPI DUP1 PUSH4 0x2A24F46C EQ PUSH2 0x64 JUMPI DUP1 PUSH4 0x38AF3EED EQ PUSH2 0x7B JUMPI DUP1 PUSH4 0x3CCFD60B EQ PUSH2 0xA6 JUMPI DUP1 PUSH4 0x4B449CBA EQ PUSH2 0xD1 JUMPI DUP1 PUSH4 0x523D7886 EQ PUSH2 0xFC JUMPI JUMPDEST PUSH1 0x0 DUP1 REVERT JUMPDEST PUSH2 0x62 PUSH2 0x128 JUMP JUMPDEST STOP JUMPDEST CALLVALUE DUP1 ISZERO PUSH2 0x70 JUMPI PUSH1 0x0 DUP1 REVERT JUMPDEST POP PUSH2 0x79 PUSH2 0x2CA JUMP JUMPDEST STOP JUMPDEST CALLVALUE DUP1 ISZERO PUSH2 0x87 JUMPI PUSH1 0x0 DUP1 REVERT JUMPDEST POP PUSH2 0x90 PUSH2 0x44A JUMP JUMPDEST PUSH1 0x40 MLOAD PUSH2 0x9D SWAP2 SWAP1 PUSH2 0x692 JUMP JUMPDEST PUSH1 0x40 MLOAD DUP1 SWAP2 SUB SWAP1 RETURN JUMPDEST CALLVALUE DUP1 ISZERO PUSH2 0xB2 JUMPI PUSH1 0x0 DUP1 REVERT JUMPDEST POP PUSH2 0xBB PUSH2 0x46E JUMP JUMPDEST PUSH1 0x40 MLOAD PUSH2 0xC8 SWAP2 SWAP1 PUSH2 0x6D6 JUMP JUMPDEST PUSH1 0x40 MLOAD DUP1 SWAP2 SUB SWAP1 RETURN JUMPDEST CALLVALUE DUP1 ISZERO PUSH2 0xDD JUMPI PUSH1 0x0 DUP1 REVERT JUMPDEST POP PUSH2 0xE6 PUSH2 0x592 JUMP JUMPDEST PUSH1 0x40 MLOAD PUSH2 0xF3 SWAP2 SWAP1 PUSH2 0x771 JUMP JUMPDEST PUSH1 0x40 MLOAD DUP1 SWAP2 SUB SWAP1 RETURN JUMPDEST CALLVALUE DUP1 ISZERO PUSH2 0x108 JUMPI PUSH1 0x0 DUP1 REVERT JUMPDEST POP PUSH2 0x111 PUSH2 0x598 JUMP JUMPDEST PUSH1 0x40 MLOAD PUSH2 0x11F SWAP3 SWAP2 SWAP1 PUSH2 0x6AD JUMP JUMPDEST PUSH1 0x40 MLOAD DUP1 SWAP2 SUB SWAP1 RETURN JUMPDEST PUSH1 0x1 SLOAD TIMESTAMP LT PUSH2 0x16C JUMPI PUSH1 0x40 MLOAD PUSH32 0x8C379A000000000000000000000000000000000000000000000000000000000 DUP2 MSTORE PUSH1 0x4 ADD PUSH2 0x163 SWAP1 PUSH2 0x751 JUMP JUMPDEST PUSH1 0x40 MLOAD DUP1 SWAP2 SUB SWAP1 REVERT JUMPDEST PUSH1 0x2 PUSH1 0x1 ADD SLOAD CALLVALUE GT PUSH2 0x1B3 JUMPI PUSH1 0x40 MLOAD PUSH32 0x8C379A000000000000000000000000000000000000000000000000000000000 DUP2 MSTORE PUSH1 0x4 ADD PUSH2 0x1AA SWAP1 PUSH2 0x731 JUMP JUMPDEST PUSH1 0x40 MLOAD DUP1 SWAP2 SUB SWAP1 REVERT JUMPDEST PUSH1 0x0 PUSH1 0x2 PUSH1 0x1 ADD SLOAD EQ PUSH2 0x241 JUMPI PUSH1 0x2 PUSH1 0x1 ADD SLOAD PUSH1 0x4 PUSH1 0x0 PUSH1 0x2 PUSH1 0x0 ADD PUSH1 0x0 SWAP1 SLOAD SWAP1 PUSH2 0x100 EXP SWAP1 DIV PUSH20 0xFFFFFFFFFFFFFFFFFFFFFFFFFFFFFFFFFFFFFFFF AND PUSH20 0xFFFFFFFFFFFFFFFFFFFFFFFFFFFFFFFFFFFFFFFF AND PUSH20 0xFFFFFFFFFFFFFFFFFFFFFFFFFFFFFFFFFFFFFFFF AND DUP2 MSTORE PUSH1 0x20 ADD SWAP1 DUP2 MSTORE PUSH1 0x20 ADD PUSH1 0x0 KECCAK256 PUSH1 0x0 DUP3 DUP3 SLOAD PUSH2 0x239 SWAP2 SWAP1 PUSH2 0x79D JUMP JUMPDEST SWAP3 POP POP DUP2 SWAP1 SSTORE POP JUMPDEST CALLER PUSH1 0x2 PUSH1 0x0 ADD PUSH1 0x0 PUSH2 0x100 EXP DUP2 SLOAD DUP2 PUSH20 0xFFFFFFFFFFFFFFFFFFFFFFFFFFFFFFFFFFFFFFFF MUL NOT AND SWAP1 DUP4 PUSH20 0xFFFFFFFFFFFFFFFFFFFFFFFFFFFFFFFFFFFFFFFF AND MUL OR SWAP1 SSTORE POP CALLVALUE PUSH1 0x2 PUSH1 0x1 ADD DUP2 SWAP1 SSTORE POP PUSH32 0xF4757A49B326036464BEC6FE419A4AE38C8A02CE3E68BF0809674F6AAB8AD300 CALLER CALLVALUE PUSH1 0x40 MLOAD PUSH2 0x2C0 SWAP3 SWAP2 SWAP1 PUSH2 0x6AD JUMP JUMPDEST PUSH1 0x40 MLOAD DUP1 SWAP2 SUB SWAP1 LOG1 JUMP JUMPDEST PUSH1 0x1 SLOAD TIMESTAMP GT PUSH2 0x30E JUMPI PUSH1 0x40 MLOAD PUSH32 0x8C379A000000000000000000000000000000000000000000000000000000000 DUP2 MSTORE PUSH1 0x4 ADD PUSH2 0x305 SWAP1 PUSH2 0x6F1 JUMP JUMPDEST PUSH1 0x40 MLOAD DUP1 SWAP2 SUB SWAP1 REVERT JUMPDEST PUSH1 0x5 PUSH1 0x0 SWAP1 SLOAD SWAP1 PUSH2 0x100 EXP SWAP1 DIV PUSH1 0xFF AND ISZERO PUSH2 0x35E JUMPI PUSH1 0x40 MLOAD PUSH32 0x8C379A000000000000000000000000000000000000000000000000000000000 DUP2 MSTORE PUSH1 0x4 ADD PUSH2 0x355 SWAP1 PUSH2 0x711 JUMP JUMPDEST PUSH1 0x40 MLOAD DUP1 SWAP2 SUB SWAP1 REVERT JUMPDEST PUSH1 0x1 PUSH1 0x5 PUSH1 0x0 PUSH2 0x100 EXP DUP2 SLOAD DUP2 PUSH1 0xFF MUL NOT AND SWAP1 DUP4 ISZERO ISZERO MUL OR SWAP1 SSTORE POP PUSH32 0xDAEC4582D5D9595688C8C98545FDD1C696D41C6AEAEB636737E84ED2F5C00EDA PUSH1 0x2 PUSH1 0x0 ADD PUSH1 0x0 SWAP1 SLOAD SWAP1 PUSH2 0x100 EXP SWAP1 DIV PUSH20 0xFFFFFFFFFFFFFFFFFFFFFFFFFFFFFFFFFFFFFFFF AND PUSH1 0x2 PUSH1 0x1 ADD SLOAD PUSH1 0x40 MLOAD PUSH2 0x3D4 SWAP3 SWAP2 SWAP1 PUSH2 0x6AD JUMP JUMPDEST PUSH1 0x40 MLOAD DUP1 SWAP2 SUB SWAP1 LOG1 PUSH1 0x0 DUP1 SLOAD SWAP1 PUSH2 0x100 EXP SWAP1 DIV PUSH20 0xFFFFFFFFFFFFFFFFFFFFFFFFFFFFFFFFFFFFFFFF AND PUSH20 0xFFFFFFFFFFFFFFFFFFFFFFFFFFFFFFFFFFFFFFFF AND PUSH2 0x8FC PUSH1 0x2 PUSH1 0x1 ADD SLOAD SWAP1 DUP2 ISZERO MUL SWAP1 PUSH1 0x40 MLOAD PUSH1 0x0 PUSH1 0x40 MLOAD DUP1 DUP4 SUB DUP2 DUP6 DUP9 DUP9 CALL SWAP4 POP POP POP POP ISZERO DUP1 ISZERO PUSH2 0x447 JUMPI RETURNDATASIZE PUSH1 0x0 DUP1 RETURNDATACOPY RETURNDATASIZE PUSH1 0x0 REVERT JUMPDEST POP JUMP JUMPDEST PUSH1 0x0 DUP1 SLOAD SWAP1 PUSH2 0x100 EXP SWAP1 DIV PUSH20 0xFFFFFFFFFFFFFFFFFFFFFFFFFFFFFFFFFFFFFFFF AND DUP2 JUMP JUMPDEST PUSH1 0x0 DUP1 PUSH1 0x4 PUSH1 0x0 CALLER PUSH20 0xFFFFFFFFFFFFFFFFFFFFFFFFFFFFFFFFFFFFFFFF AND PUSH20 0xFFFFFFFFFFFFFFFFFFFFFFFFFFFFFFFFFFFFFFFF AND DUP2 MSTORE PUSH1 0x20 ADD SWAP1 DUP2 MSTORE PUSH1 0x20 ADD PUSH1 0x0 KECCAK256 SLOAD SWAP1 POP PUSH1 0x0 DUP2 GT ISZERO PUSH2 0x589 JUMPI PUSH1 0x0 PUSH1 0x4 PUSH1 0x0 CALLER PUSH20 0xFFFFFFFFFFFFFFFFFFFFFFFFFFFFFFFFFFFFFFFF AND PUSH20 0xFFFFFFFFFFFFFFFFFFFFFFFFFFFFFFFFFFFFFFFF AND DUP2 MSTORE PUSH1 0x20 ADD SWAP1 DUP2 MSTORE PUSH1 0x20 ADD PUSH1 0x0 KECCAK256 DUP2 SWAP1 SSTORE POP CALLER PUSH20 0xFFFFFFFFFFFFFFFFFFFFFFFFFFFFFFFFFFFFFFFF AND PUSH2 0x8FC DUP3 SWAP1 DUP2 ISZERO MUL SWAP1 PUSH1 0x40 MLOAD PUSH1 0x0 PUSH1 0x40 MLOAD DUP1 DUP4 SUB DUP2 DUP6 DUP9 DUP9 CALL SWAP4 POP POP POP POP PUSH2 0x588 JUMPI DUP1 PUSH1 0x4 PUSH1 0x0 CALLER PUSH20 0xFFFFFFFFFFFFFFFFFFFFFFFFFFFFFFFFFFFFFFFF AND PUSH20 0xFFFFFFFFFFFFFFFFFFFFFFFFFFFFFFFFFFFFFFFF AND DUP2 MSTORE PUSH1 0x20 ADD SWAP1 DUP2 MSTORE PUSH1 0x20 ADD PUSH1 0x0 KECCAK256 DUP2 SWAP1 SSTORE POP PUSH1 0x0 SWAP2 POP POP PUSH2 0x58F JUMP JUMPDEST JUMPDEST PUSH1 0x1 SWAP2 POP POP JUMPDEST SWAP1 JUMP JUMPDEST PUSH1 0x1 SLOAD DUP2 JUMP JUMPDEST PUSH1 0x2 DUP1 PUSH1 0x0 ADD PUSH1 0x0 SWAP1 SLOAD SWAP1 PUSH2 0x100 EXP SWAP1 DIV PUSH20 0xFFFFFFFFFFFFFFFFFFFFFFFFFFFFFFFFFFFFFFFF AND SWAP1 DUP1 PUSH1 0x1 ADD SLOAD SWAP1 POP DUP3 JUMP JUMPDEST PUSH2 0x5D3 DUP2 PUSH2 0x805 JUMP JUMPDEST DUP3 MSTORE POP POP JUMP JUMPDEST PUSH2 0x5E2 DUP2 PUSH2 0x7F3 JUMP JUMPDEST DUP3 MSTORE POP POP JUMP JUMPDEST PUSH2 0x5F1 DUP2 PUSH2 0x817 JUMP JUMPDEST DUP3 MSTORE POP POP JUMP JUMPDEST PUSH1 0x0 PUSH2 0x604 PUSH1 0x1E DUP4 PUSH2 0x78C JUMP JUMPDEST SWAP2 POP PUSH2 0x60F DUP3 PUSH2 0x87C JUMP JUMPDEST PUSH1 0x20 DUP3 ADD SWAP1 POP SWAP2 SWAP1 POP JUMP JUMPDEST PUSH1 0x0 PUSH2 0x627 PUSH1 0x30 DUP4 PUSH2 0x78C JUMP JUMPDEST SWAP2 POP PUSH2 0x632 DUP3 PUSH2 0x8A5 JUMP JUMPDEST PUSH1 0x40 DUP3 ADD SWAP1 POP SWAP2 SWAP1 POP JUMP JUMPDEST PUSH1 0x0 PUSH2 0x64A PUSH1 0x27 DUP4 PUSH2 0x78C JUMP JUMPDEST SWAP2 POP PUSH2 0x655 DUP3 PUSH2 0x8F4 JUMP JUMPDEST PUSH1 0x40 DUP3 ADD SWAP1 POP SWAP2 SWAP1 POP JUMP JUMPDEST PUSH1 0x0 PUSH2 0x66D PUSH1 0x1D DUP4 PUSH2 0x78C JUMP JUMPDEST SWAP2 POP PUSH2 0x678 DUP3 PUSH2 0x943 JUMP JUMPDEST PUSH1 0x20 DUP3 ADD SWAP1 POP SWAP2 SWAP1 POP JUMP JUMPDEST PUSH2 0x68C DUP2 PUSH2 0x843 JUMP JUMPDEST DUP3 MSTORE POP POP JUMP JUMPDEST PUSH1 0x0 PUSH1 0x20 DUP3 ADD SWAP1 POP PUSH2 0x6A7 PUSH1 0x0 DUP4 ADD DUP5 PUSH2 0x5CA JUMP JUMPDEST SWAP3 SWAP2 POP POP JUMP JUMPDEST PUSH1 0x0 PUSH1 0x40 DUP3 ADD SWAP1 POP PUSH2 0x6C2 PUSH1 0x0 DUP4 ADD DUP6 PUSH2 0x5D9 JUMP JUMPDEST PUSH2 0x6CF PUSH1 0x20 DUP4 ADD DUP5 PUSH2 0x683 JUMP JUMPDEST SWAP4 SWAP3 POP POP POP JUMP JUMPDEST PUSH1 0x0 PUSH1 0x20 DUP3 ADD SWAP1 POP PUSH2 0x6EB PUSH1 0x0 DUP4 ADD DUP5 PUSH2 0x5E8 JUMP JUMPDEST SWAP3 SWAP2 POP POP JUMP JUMPDEST PUSH1 0x0 PUSH1 0x20 DUP3 ADD SWAP1 POP DUP2 DUP2 SUB PUSH1 0x0 DUP4 ADD MSTORE PUSH2 0x70A DUP2 PUSH2 0x5F7 JUMP JUMPDEST SWAP1 POP SWAP2 SWAP1 POP JUMP JUMPDEST PUSH1 0x0 PUSH1 0x20 DUP3 ADD SWAP1 POP DUP2 DUP2 SUB PUSH1 0x0 DUP4 ADD MSTORE PUSH2 0x72A DUP2 PUSH2 0x61A JUMP JUMPDEST SWAP1 POP SWAP2 SWAP1 POP JUMP JUMPDEST PUSH1 0x0 PUSH1 0x20 DUP3 ADD SWAP1 POP DUP2 DUP2 SUB PUSH1 0x0 DUP4 ADD MSTORE PUSH2 0x74A DUP2 PUSH2 0x63D JUMP JUMPDEST SWAP1 POP SWAP2 SWAP1 POP JUMP JUMPDEST PUSH1 0x0 PUSH1 0x20 DUP3 ADD SWAP1 POP DUP2 DUP2 SUB PUSH1 0x0 DUP4 ADD MSTORE PUSH2 0x76A DUP2 PUSH2 0x660 JUMP JUMPDEST SWAP1 POP SWAP2 SWAP1 POP JUMP JUMPDEST PUSH1 0x0 PUSH1 0x20 DUP3 ADD SWAP1 POP PUSH2 0x786 PUSH1 0x0 DUP4 ADD DUP5 PUSH2 0x683 JUMP JUMPDEST SWAP3 SWAP2 POP POP JUMP JUMPDEST PUSH1 0x0 DUP3 DUP3 MSTORE PUSH1 0x20 DUP3 ADD SWAP1 POP SWAP3 SWAP2 POP POP JUMP JUMPDEST PUSH1 0x0 PUSH2 0x7A8 DUP3 PUSH2 0x843 JUMP JUMPDEST SWAP2 POP PUSH2 0x7B3 DUP4 PUSH2 0x843 JUMP JUMPDEST SWAP3 POP DUP3 PUSH32 0xFFFFFFFFFFFFFFFFFFFFFFFFFFFFFFFFFFFFFFFFFFFFFFFFFFFFFFFFFFFFFFFF SUB DUP3 GT ISZERO PUSH2 0x7E8 JUMPI PUSH2 0x7E7 PUSH2 0x84D JUMP JUMPDEST JUMPDEST DUP3 DUP3 ADD SWAP1 POP SWAP3 SWAP2 POP POP JUMP JUMPDEST PUSH1 0x0 PUSH2 0x7FE DUP3 PUSH2 0x823 JUMP JUMPDEST SWAP1 POP SWAP2 SWAP1 POP JUMP JUMPDEST PUSH1 0x0 PUSH2 0x810 DUP3 PUSH2 0x823 JUMP JUMPDEST SWAP1 POP SWAP2 SWAP1 POP JUMP JUMPDEST PUSH1 0x0 DUP2 ISZERO ISZERO SWAP1 POP SWAP2 SWAP1 POP JUMP JUMPDEST PUSH1 0x0 PUSH20 0xFFFFFFFFFFFFFFFFFFFFFFFFFFFFFFFFFFFFFFFF DUP3 AND SWAP1 POP SWAP2 SWAP1 POP JUMP JUMPDEST PUSH1 0x0 DUP2 SWAP1 POP SWAP2 SWAP1 POP JUMP JUMPDEST PUSH32 0x4E487B7100000000000000000000000000000000000000000000000000000000 PUSH1 0x0 MSTORE PUSH1 0x11 PUSH1 0x4 MSTORE PUSH1 0x24 PUSH1 0x0 REVERT JUMPDEST PUSH32 0x5468652061756374696F6E20686173206E6F7420656E646564207965742E0000 PUSH1 0x0 DUP3 ADD MSTORE POP JUMP JUMPDEST PUSH32 0x5468652066756E6374696F6E2061756374696F6E456E642068617320616C7265 PUSH1 0x0 DUP3 ADD MSTORE PUSH32 0x616479206265656E2063616C6C65642E00000000000000000000000000000000 PUSH1 0x20 DUP3 ADD MSTORE POP JUMP JUMPDEST PUSH32 0x546865726520697320616C7265616479206120686967686572206F7220657175 PUSH1 0x0 DUP3 ADD MSTORE PUSH32 0x616C206269642E00000000000000000000000000000000000000000000000000 PUSH1 0x20 DUP3 ADD MSTORE POP JUMP JUMPDEST PUSH32 0x5468652061756374696F6E2068617320616C726561647920656E646564000000 PUSH1 0x0 DUP3 ADD MSTORE POP JUMP INVALID LOG2 PUSH5 0x6970667358 0x22 SLT KECCAK256 0x2E CALLVALUE GASLIMIT POP 0xE DUP11 0x5E PUSH15 0x836EA7AC6E6711A2713E372BE12ECF MLOAD 0x2C 0x2D 0xE9 GASLIMIT PUSH20 0x816BB564736F6C63430008070033000000000000 "
				},
				"gasEstimates": {
					"creation": {
						"codeDepositCost": "493200",
						"executionCost": "infinite",
						"totalCost": "infinite"
					},
					"external": {
						"TheHighistBid()": "4828",
						"auctionEnd()": "infinite",
						"auctionEndTime()": "2495",
						"beneficiary()": "2533",
						"bid()": "infinite",
						"withdraw()": "infinite"
					}
				},
				"methodIdentifiers": {
					"TheHighistBid()": "523d7886",
					"auctionEnd()": "2a24f46c",
					"auctionEndTime()": "4b449cba",
					"beneficiary()": "38af3eed",
					"bid()": "1998aeef",
					"withdraw()": "3ccfd60b"
				}
			},
			"storageLayout": {
				"storage": [
					{
						"astId": 3,
						"contract": "simpleAuction.sol:SimpleAuction",
						"label": "beneficiary",
						"offset": 0,
						"slot": "0",
						"type": "t_address_payable"
					},
					{
						"astId": 5,
						"contract": "simpleAuction.sol:SimpleAuction",
						"label": "auctionEndTime",
						"offset": 0,
						"slot": "1",
						"type": "t_uint256"
					},
					{
						"astId": 13,
						"contract": "simpleAuction.sol:SimpleAuction",
						"label": "TheHighistBid",
						"offset": 0,
						"slot": "2",
						"type": "t_struct(higgestBid)10_storage"
					},
					{
						"astId": 17,
						"contract": "simpleAuction.sol:SimpleAuction",
						"label": "pendingReturns",
						"offset": 0,
						"slot": "4",
						"type": "t_mapping(t_address,t_uint256)"
					},
					{
						"astId": 19,
						"contract": "simpleAuction.sol:SimpleAuction",
						"label": "ended",
						"offset": 0,
						"slot": "5",
						"type": "t_bool"
					}
				],
				"types": {
					"t_address": {
						"encoding": "inplace",
						"label": "address",
						"numberOfBytes": "20"
					},
					"t_address_payable": {
						"encoding": "inplace",
						"label": "address payable",
						"numberOfBytes": "20"
					},
					"t_bool": {
						"encoding": "inplace",
						"label": "bool",
						"numberOfBytes": "1"
					},
					"t_mapping(t_address,t_uint256)": {
						"encoding": "mapping",
						"key": "t_address",
						"label": "mapping(address => uint256)",
						"numberOfBytes": "32",
						"value": "t_uint256"
					},
					"t_struct(higgestBid)10_storage": {
						"encoding": "inplace",
						"label": "struct SimpleAuction.higgestBid",
						"members": [
							{
								"astId": 7,
								"contract": "simpleAuction.sol:SimpleAuction",
								"label": "Adress",
								"offset": 0,
								"slot": "0",
								"type": "t_address"
							},
							{
								"astId": 9,
								"contract": "simpleAuction.sol:SimpleAuction",
								"label": "bid",
								"offset": 0,
								"slot": "1",
								"type": "t_uint256"
							}
						],
						"numberOfBytes": "64"
					},
					"t_uint256": {
						"encoding": "inplace",
						"label": "uint256",
						"numberOfBytes": "32"
					}
				}
			},
			"userdoc": {
				"kind": "user",
				"methods": {
					"auctionEnd()": {
						"notice": "End the auction and send the highest bid to the beneficiary."
					},
					"constructor": {
						"notice": "Create a simple auction with `biddingTime` seconds bidding time on behalf of the beneficiary address `beneficiaryAddress`."
					},
					"withdraw()": {
						"notice": "Withdraw a bid that was overbid."
					}
				},
				"version": 1
			}
		}
	}
}