{
	"SimpleMath.sol": {
		"SimpleStorage": {
			"abi": [
				{
					"inputs": [],
					"name": "checkNumbers",
					"outputs": [
						{
							"internalType": "uint256",
							"name": "",
							"type": "uint256"
						},
						{
							"internalType": "uint256",
							"name": "",
							"type": "uint256"
						}
					],
					"stateMutability": "view",
					"type": "function"
				},
				{
					"inputs": [
						{
							"internalType": "uint256",
							"name": "VarfirstNumber",
							"type": "uint256"
						},
						{
							"internalType": "uint256",
							"name": "VarSecondNumber",
							"type": "uint256"
						}
					],
					"name": "set",
					"outputs": [],
					"stateMutability": "nonpayable",
					"type": "function"
				}
			],
			"devdoc": {
				"kind": "dev",
				"methods": {},
				"version": 1
			},
			"evm": {
				"assembly": "    /* \"SimpleMath.sol\":246:594  contract SimpleStorage {\r... */\n  mstore(0x40, 0x80)\n  callvalue\n  dup1\n  iszero\n  tag_1\n  jumpi\n  0x00\n  dup1\n  revert\ntag_1:\n  pop\n  dataSize(sub_0)\n  dup1\n  dataOffset(sub_0)\n  0x00\n  codecopy\n  0x00\n  return\nstop\n\nsub_0: assembly {\n        /* \"SimpleMath.sol\":246:594  contract SimpleStorage {\r... */\n      mstore(0x40, 0x80)\n      callvalue\n      dup1\n      iszero\n      tag_1\n      jumpi\n      0x00\n      dup1\n      revert\n    tag_1:\n      pop\n      jumpi(tag_2, lt(calldatasize, 0x04))\n      shr(0xe0, calldataload(0x00))\n      dup1\n      0x1ab06ee5\n      eq\n      tag_3\n      jumpi\n      dup1\n      0x4f460894\n      eq\n      tag_4\n      jumpi\n    tag_2:\n      0x00\n      dup1\n      revert\n        /* \"SimpleMath.sol\":325:475  function set(uint VarfirstNumber,uint VarSecondNumber) public {\r... */\n    tag_3:\n      tag_5\n      0x04\n      dup1\n      calldatasize\n      sub\n      dup2\n      add\n      swap1\n      tag_6\n      swap2\n      swap1\n      tag_7\n      jump\t// in\n    tag_6:\n      tag_8\n      jump\t// in\n    tag_5:\n      stop\n        /* \"SimpleMath.sol\":483:591  function checkNumbers() public view returns (uint,uint) {\r... */\n    tag_4:\n      tag_9\n      tag_10\n      jump\t// in\n    tag_9:\n      mload(0x40)\n      tag_11\n      swap3\n      swap2\n      swap1\n      tag_12\n      jump\t// in\n    tag_11:\n      mload(0x40)\n      dup1\n      swap2\n      sub\n      swap1\n      return\n        /* \"SimpleMath.sol\":325:475  function set(uint VarfirstNumber,uint VarSecondNumber) public {\r... */\n    tag_8:\n        /* \"SimpleMath.sol\":412:426  VarfirstNumber */\n      dup2\n        /* \"SimpleMath.sol\":398:409  firstNumber */\n      0x00\n        /* \"SimpleMath.sol\":398:426  firstNumber = VarfirstNumber */\n      dup2\n      swap1\n      sstore\n      pop\n        /* \"SimpleMath.sol\":452:467  VarSecondNumber */\n      dup1\n        /* \"SimpleMath.sol\":437:449  SecondNumber */\n      0x01\n        /* \"SimpleMath.sol\":437:467  SecondNumber = VarSecondNumber */\n      dup2\n      swap1\n      sstore\n      pop\n        /* \"SimpleMath.sol\":325:475  function set(uint VarfirstNumber,uint VarSecondNumber) public {\r... */\n      pop\n      pop\n      jump\t// out\n        /* \"SimpleMath.sol\":483:591  function checkNumbers() public view returns (uint,uint) {\r... */\n    tag_10:\n        /* \"SimpleMath.sol\":528:532  uint */\n      0x00\n        /* \"SimpleMath.sol\":533:537  uint */\n      dup1\n        /* \"SimpleMath.sol\":558:569  firstNumber */\n      sload(0x00)\n        /* \"SimpleMath.sol\":570:582  SecondNumber */\n      sload(0x01)\n        /* \"SimpleMath.sol\":550:583  return (firstNumber,SecondNumber) */\n      swap2\n      pop\n      swap2\n      pop\n        /* \"SimpleMath.sol\":483:591  function checkNumbers() public view returns (uint,uint) {\r... */\n      swap1\n      swap2\n      jump\t// out\n        /* \"#utility.yul\":7:146   */\n    tag_16:\n        /* \"#utility.yul\":53:58   */\n      0x00\n        /* \"#utility.yul\":91:97   */\n      dup2\n        /* \"#utility.yul\":78:98   */\n      calldataload\n        /* \"#utility.yul\":69:98   */\n      swap1\n      pop\n        /* \"#utility.yul\":107:140   */\n      tag_18\n        /* \"#utility.yul\":134:139   */\n      dup2\n        /* \"#utility.yul\":107:140   */\n      tag_19\n      jump\t// in\n    tag_18:\n        /* \"#utility.yul\":7:146   */\n      swap3\n      swap2\n      pop\n      pop\n      jump\t// out\n        /* \"#utility.yul\":152:626   */\n    tag_7:\n        /* \"#utility.yul\":220:226   */\n      0x00\n        /* \"#utility.yul\":228:234   */\n      dup1\n        /* \"#utility.yul\":277:279   */\n      0x40\n        /* \"#utility.yul\":265:274   */\n      dup4\n        /* \"#utility.yul\":256:263   */\n      dup6\n        /* \"#utility.yul\":252:275   */\n      sub\n        /* \"#utility.yul\":248:280   */\n      slt\n        /* \"#utility.yul\":245:364   */\n      iszero\n      tag_21\n      jumpi\n        /* \"#utility.yul\":283:362   */\n      tag_22\n      tag_23\n      jump\t// in\n    tag_22:\n        /* \"#utility.yul\":245:364   */\n    tag_21:\n        /* \"#utility.yul\":403:404   */\n      0x00\n        /* \"#utility.yul\":428:481   */\n      tag_24\n        /* \"#utility.yul\":473:480   */\n      dup6\n        /* \"#utility.yul\":464:470   */\n      dup3\n        /* \"#utility.yul\":453:462   */\n      dup7\n        /* \"#utility.yul\":449:471   */\n      add\n        /* \"#utility.yul\":428:481   */\n      tag_16\n      jump\t// in\n    tag_24:\n        /* \"#utility.yul\":418:481   */\n      swap3\n      pop\n        /* \"#utility.yul\":374:491   */\n      pop\n        /* \"#utility.yul\":530:532   */\n      0x20\n        /* \"#utility.yul\":556:609   */\n      tag_25\n        /* \"#utility.yul\":601:608   */\n      dup6\n        /* \"#utility.yul\":592:598   */\n      dup3\n        /* \"#utility.yul\":581:590   */\n      dup7\n        /* \"#utility.yul\":577:599   */\n      add\n        /* \"#utility.yul\":556:609   */\n      tag_16\n      jump\t// in\n    tag_25:\n        /* \"#utility.yul\":546:609   */\n      swap2\n      pop\n        /* \"#utility.yul\":501:619   */\n      pop\n        /* \"#utility.yul\":152:626   */\n      swap3\n      pop\n      swap3\n      swap1\n      pop\n      jump\t// out\n        /* \"#utility.yul\":632:750   */\n    tag_26:\n        /* \"#utility.yul\":719:743   */\n      tag_28\n        /* \"#utility.yul\":737:742   */\n      dup2\n        /* \"#utility.yul\":719:743   */\n      tag_29\n      jump\t// in\n    tag_28:\n        /* \"#utility.yul\":714:717   */\n      dup3\n        /* \"#utility.yul\":707:744   */\n      mstore\n        /* \"#utility.yul\":632:750   */\n      pop\n      pop\n      jump\t// out\n        /* \"#utility.yul\":756:1088   */\n    tag_12:\n        /* \"#utility.yul\":877:881   */\n      0x00\n        /* \"#utility.yul\":915:917   */\n      0x40\n        /* \"#utility.yul\":904:913   */\n      dup3\n        /* \"#utility.yul\":900:918   */\n      add\n        /* \"#utility.yul\":892:918   */\n      swap1\n      pop\n        /* \"#utility.yul\":928:999   */\n      tag_31\n        /* \"#utility.yul\":996:997   */\n      0x00\n        /* \"#utility.yul\":985:994   */\n      dup4\n        /* \"#utility.yul\":981:998   */\n      add\n        /* \"#utility.yul\":972:978   */\n      dup6\n        /* \"#utility.yul\":928:999   */\n      tag_26\n      jump\t// in\n    tag_31:\n        /* \"#utility.yul\":1009:1081   */\n      tag_32\n        /* \"#utility.yul\":1077:1079   */\n      0x20\n        /* \"#utility.yul\":1066:1075   */\n      dup4\n        /* \"#utility.yul\":1062:1080   */\n      add\n        /* \"#utility.yul\":1053:1059   */\n      dup5\n        /* \"#utility.yul\":1009:1081   */\n      tag_26\n      jump\t// in\n    tag_32:\n        /* \"#utility.yul\":756:1088   */\n      swap4\n      swap3\n      pop\n      pop\n      pop\n      jump\t// out\n        /* \"#utility.yul\":1175:1252   */\n    tag_29:\n        /* \"#utility.yul\":1212:1219   */\n      0x00\n        /* \"#utility.yul\":1241:1246   */\n      dup2\n        /* \"#utility.yul\":1230:1246   */\n      swap1\n      pop\n        /* \"#utility.yul\":1175:1252   */\n      swap2\n      swap1\n      pop\n      jump\t// out\n        /* \"#utility.yul\":1381:1498   */\n    tag_23:\n        /* \"#utility.yul\":1490:1491   */\n      0x00\n        /* \"#utility.yul\":1487:1488   */\n      dup1\n        /* \"#utility.yul\":1480:1492   */\n      revert\n        /* \"#utility.yul\":1504:1626   */\n    tag_19:\n        /* \"#utility.yul\":1577:1601   */\n      tag_40\n        /* \"#utility.yul\":1595:1600   */\n      dup2\n        /* \"#utility.yul\":1577:1601   */\n      tag_29\n      jump\t// in\n    tag_40:\n        /* \"#utility.yul\":1570:1575   */\n      dup2\n        /* \"#utility.yul\":1567:1602   */\n      eq\n        /* \"#utility.yul\":1557:1620   */\n      tag_41\n      jumpi\n        /* \"#utility.yul\":1616:1617   */\n      0x00\n        /* \"#utility.yul\":1613:1614   */\n      dup1\n        /* \"#utility.yul\":1606:1618   */\n      revert\n        /* \"#utility.yul\":1557:1620   */\n    tag_41:\n        /* \"#utility.yul\":1504:1626   */\n      pop\n      jump\t// out\n\n    auxdata: 0xa26469706673582212208281ae6f62169a622e56bf7546282835fab43a0220cf5b15a766933d0d551e6364736f6c63430008070033\n}\n",
				"bytecode": {
					"linkReferences": {},
					"object": "608060405234801561001057600080fd5b50610182806100206000396000f3fe608060405234801561001057600080fd5b50600436106100365760003560e01c80631ab06ee51461003b5780634f46089414610057575b600080fd5b610055600480360381019061005091906100ae565b610076565b005b61005f610088565b60405161006d9291906100fd565b60405180910390f35b81600081905550806001819055505050565b600080600054600154915091509091565b6000813590506100a881610135565b92915050565b600080604083850312156100c5576100c4610130565b5b60006100d385828601610099565b92505060206100e485828601610099565b9150509250929050565b6100f781610126565b82525050565b600060408201905061011260008301856100ee565b61011f60208301846100ee565b9392505050565b6000819050919050565b600080fd5b61013e81610126565b811461014957600080fd5b5056fea26469706673582212208281ae6f62169a622e56bf7546282835fab43a0220cf5b15a766933d0d551e6364736f6c63430008070033",
					"opcodes": "PUSH1 0x80 PUSH1 0x40 MSTORE CALLVALUE DUP1 ISZERO PUSH2 0x10 JUMPI PUSH1 0x0 DUP1 REVERT JUMPDEST POP PUSH2 0x182 DUP1 PUSH2 0x20 PUSH1 0x0 CODECOPY PUSH1 0x0 RETURN INVALID PUSH1 0x80 PUSH1 0x40 MSTORE CALLVALUE DUP1 ISZERO PUSH2 0x10 JUMPI PUSH1 0x0 DUP1 REVERT JUMPDEST POP PUSH1 0x4 CALLDATASIZE LT PUSH2 0x36 JUMPI PUSH1 0x0 CALLDATALOAD PUSH1 0xE0 SHR DUP1 PUSH4 0x1AB06EE5 EQ PUSH2 0x3B JUMPI DUP1 PUSH4 0x4F460894 EQ PUSH2 0x57 JUMPI JUMPDEST PUSH1 0x0 DUP1 REVERT JUMPDEST PUSH2 0x55 PUSH1 0x4 DUP1 CALLDATASIZE SUB DUP2 ADD SWAP1 PUSH2 0x50 SWAP2 SWAP1 PUSH2 0xAE JUMP JUMPDEST PUSH2 0x76 JUMP JUMPDEST STOP JUMPDEST PUSH2 0x5F PUSH2 0x88 JUMP JUMPDEST PUSH1 0x40 MLOAD PUSH2 0x6D SWAP3 SWAP2 SWAP1 PUSH2 0xFD JUMP JUMPDEST PUSH1 0x40 MLOAD DUP1 SWAP2 SUB SWAP1 RETURN JUMPDEST DUP2 PUSH1 0x0 DUP2 SWAP1 SSTORE POP DUP1 PUSH1 0x1 DUP2 SWAP1 SSTORE POP POP POP JUMP JUMPDEST PUSH1 0x0 DUP1 PUSH1 0x0 SLOAD PUSH1 0x1 SLOAD SWAP2 POP SWAP2 POP SWAP1 SWAP2 JUMP JUMPDEST PUSH1 0x0 DUP2 CALLDATALOAD SWAP1 POP PUSH2 0xA8 DUP2 PUSH2 0x135 JUMP JUMPDEST SWAP3 SWAP2 POP POP JUMP JUMPDEST PUSH1 0x0 DUP1 PUSH1 0x40 DUP4 DUP6 SUB SLT ISZERO PUSH2 0xC5 JUMPI PUSH2 0xC4 PUSH2 0x130 JUMP JUMPDEST JUMPDEST PUSH1 0x0 PUSH2 0xD3 DUP6 DUP3 DUP7 ADD PUSH2 0x99 JUMP JUMPDEST SWAP3 POP POP PUSH1 0x20 PUSH2 0xE4 DUP6 DUP3 DUP7 ADD PUSH2 0x99 JUMP JUMPDEST SWAP2 POP POP SWAP3 POP SWAP3 SWAP1 POP JUMP JUMPDEST PUSH2 0xF7 DUP2 PUSH2 0x126 JUMP JUMPDEST DUP3 MSTORE POP POP JUMP JUMPDEST PUSH1 0x0 PUSH1 0x40 DUP3 ADD SWAP1 POP PUSH2 0x112 PUSH1 0x0 DUP4 ADD DUP6 PUSH2 0xEE JUMP JUMPDEST PUSH2 0x11F PUSH1 0x20 DUP4 ADD DUP5 PUSH2 0xEE JUMP JUMPDEST SWAP4 SWAP3 POP POP POP JUMP JUMPDEST PUSH1 0x0 DUP2 SWAP1 POP SWAP2 SWAP1 POP JUMP JUMPDEST PUSH1 0x0 DUP1 REVERT JUMPDEST PUSH2 0x13E DUP2 PUSH2 0x126 JUMP JUMPDEST DUP2 EQ PUSH2 0x149 JUMPI PUSH1 0x0 DUP1 REVERT JUMPDEST POP JUMP INVALID LOG2 PUSH5 0x6970667358 0x22 SLT KECCAK256 DUP3 DUP2 0xAE PUSH16 0x62169A622E56BF7546282835FAB43A02 KECCAK256 0xCF JUMPDEST ISZERO 0xA7 PUSH7 0x933D0D551E6364 PUSH20 0x6F6C634300080700330000000000000000000000 "
				},
				"gasEstimates": {
					"creation": {
						"codeDepositCost": "77200",
						"executionCost": "129",
						"totalCost": "77329"
					},
					"external": {
						"checkNumbers()": "infinite",
						"set(uint256,uint256)": "infinite"
					}
				},
				"methodIdentifiers": {
					"checkNumbers()": "4f460894",
					"set(uint256,uint256)": "1ab06ee5"
				}
			},
			"storageLayout": {
				"storage": [
					{
						"astId": 3,
						"contract": "SimpleMath.sol:SimpleStorage",
						"label": "firstNumber",
						"offset": 0,
						"slot": "0",
						"type": "t_uint256"
					},
					{
						"astId": 5,
						"contract": "SimpleMath.sol:SimpleStorage",
						"label": "SecondNumber",
						"offset": 0,
						"slot": "1",
						"type": "t_uint256"
					}
				],
				"types": {
					"t_uint256": {
						"encoding": "inplace",
						"label": "uint256",
						"numberOfBytes": "32"
					}
				}
			},
			"userdoc": {
				"kind": "user",
				"methods": {},
				"version": 1
			}
		}
	}
}