{
	"AttackGame.sol": {
		"AttackGame": {
			"abi": [
				{
					"inputs": [],
					"stateMutability": "nonpayable",
					"type": "constructor"
				},
				{
					"anonymous": false,
					"inputs": [
						{
							"indexed": false,
							"internalType": "address",
							"name": "from",
							"type": "address"
						},
						{
							"indexed": false,
							"internalType": "address",
							"name": "to",
							"type": "address"
						},
						{
							"indexed": false,
							"internalType": "uint256",
							"name": "amount",
							"type": "uint256"
						},
						{
							"indexed": false,
							"internalType": "string",
							"name": "Currency",
							"type": "string"
						}
					],
					"name": "Sent",
					"type": "event"
				},
				{
					"inputs": [
						{
							"internalType": "address",
							"name": "victim",
							"type": "address"
						}
					],
					"name": "Attack",
					"outputs": [],
					"stateMutability": "nonpayable",
					"type": "function"
				},
				{
					"inputs": [
						{
							"internalType": "address",
							"name": "",
							"type": "address"
						},
						{
							"internalType": "uint256",
							"name": "",
							"type": "uint256"
						}
					],
					"name": "Stats",
					"outputs": [
						{
							"internalType": "int256",
							"name": "",
							"type": "int256"
						}
					],
					"stateMutability": "view",
					"type": "function"
				},
				{
					"inputs": [
						{
							"internalType": "string",
							"name": "name",
							"type": "string"
						}
					],
					"name": "join",
					"outputs": [],
					"stateMutability": "nonpayable",
					"type": "function"
				},
				{
					"inputs": [],
					"name": "minter",
					"outputs": [
						{
							"internalType": "address",
							"name": "",
							"type": "address"
						}
					],
					"stateMutability": "view",
					"type": "function"
				},
				{
					"inputs": [
						{
							"internalType": "address",
							"name": "",
							"type": "address"
						}
					],
					"name": "names",
					"outputs": [
						{
							"internalType": "string",
							"name": "",
							"type": "string"
						}
					],
					"stateMutability": "view",
					"type": "function"
				},
				{
					"inputs": [
						{
							"internalType": "uint256",
							"name": "",
							"type": "uint256"
						}
					],
					"name": "players",
					"outputs": [
						{
							"internalType": "address",
							"name": "",
							"type": "address"
						}
					],
					"stateMutability": "view",
					"type": "function"
				}
			],
			"devdoc": {
				"kind": "dev",
				"methods": {},
				"version": 1
			},
			"evm": {
				"assembly": "    /* \"AttackGame.sol\":672:3345  contract AttackGame {\r... */\n  mstore(0x40, 0x80)\n    /* \"AttackGame.sol\":981:1032  string[] StatsInfo = [\"Attach\",\"Defince\",\"Balance\"] */\n  mload(0x40)\n  dup1\n  0x60\n  add\n  0x40\n  mstore\n  dup1\n  mload(0x40)\n  dup1\n  0x40\n  add\n  0x40\n  mstore\n  dup1\n  0x06\n  dup2\n  mstore\n  0x20\n  add\n  0x4174746163680000000000000000000000000000000000000000000000000000\n  dup2\n  mstore\n  pop\n  dup2\n  mstore\n  0x20\n  add\n  mload(0x40)\n  dup1\n  0x40\n  add\n  0x40\n  mstore\n  dup1\n  0x07\n  dup2\n  mstore\n  0x20\n  add\n  0x446566696e636500000000000000000000000000000000000000000000000000\n  dup2\n  mstore\n  pop\n  dup2\n  mstore\n  0x20\n  add\n  mload(0x40)\n  dup1\n  0x40\n  add\n  0x40\n  mstore\n  dup1\n  0x07\n  dup2\n  mstore\n  0x20\n  add\n  0x42616c616e636500000000000000000000000000000000000000000000000000\n  dup2\n  mstore\n  pop\n  dup2\n  mstore\n  pop\n  0x04\n  swap1\n  0x03\n  tag_1\n  swap3\n  swap2\n  swap1\n  tag_2\n  jump\t// in\ntag_1:\n  pop\n    /* \"AttackGame.sol\":1198:1250  constructor() {\r... */\n  callvalue\n  dup1\n  iszero\n  tag_3\n  jumpi\n  0x00\n  dup1\n  revert\ntag_3:\n  pop\n    /* \"AttackGame.sol\":1232:1242  msg.sender */\n  caller\n    /* \"AttackGame.sol\":1223:1229  minter */\n  0x00\n  dup1\n    /* \"AttackGame.sol\":1223:1242  minter = msg.sender */\n  0x0100\n  exp\n  dup2\n  sload\n  dup2\n  0xffffffffffffffffffffffffffffffffffffffff\n  mul\n  not\n  and\n  swap1\n  dup4\n  0xffffffffffffffffffffffffffffffffffffffff\n  and\n  mul\n  or\n  swap1\n  sstore\n  pop\n    /* \"AttackGame.sol\":672:3345  contract AttackGame {\r... */\n  jump(tag_6)\ntag_2:\n  dup3\n  dup1\n  sload\n  dup3\n  dup3\n  sstore\n  swap1\n  0x00\n  mstore\n  keccak256(0x00, 0x20)\n  swap1\n  dup2\n  add\n  swap3\n  dup3\n  iszero\n  tag_7\n  jumpi\n  swap2\n  0x20\n  mul\n  dup3\n  add\ntag_8:\n  dup3\n  dup2\n  gt\n  iszero\n  tag_9\n  jumpi\n  dup3\n  mload\n  dup3\n  swap1\n  dup1\n  mload\n  swap1\n  0x20\n  add\n  swap1\n  tag_10\n  swap3\n  swap2\n  swap1\n  tag_11\n  jump\t// in\ntag_10:\n  pop\n  swap2\n  0x20\n  add\n  swap2\n  swap1\n  0x01\n  add\n  swap1\n  jump(tag_8)\ntag_9:\ntag_7:\n  pop\n  swap1\n  pop\n  tag_12\n  swap2\n  swap1\n  tag_13\n  jump\t// in\ntag_12:\n  pop\n  swap1\n  jump\t// out\ntag_11:\n  dup3\n  dup1\n  sload\n  tag_14\n  swap1\n  tag_15\n  jump\t// in\ntag_14:\n  swap1\n  0x00\n  mstore\n  keccak256(0x00, 0x20)\n  swap1\n  0x1f\n  add\n  0x20\n  swap1\n  div\n  dup2\n  add\n  swap3\n  dup3\n  tag_17\n  jumpi\n  0x00\n  dup6\n  sstore\n  jump(tag_16)\ntag_17:\n  dup3\n  0x1f\n  lt\n  tag_18\n  jumpi\n  dup1\n  mload\n  not(0xff)\n  and\n  dup4\n  dup1\n  add\n  or\n  dup6\n  sstore\n  jump(tag_16)\ntag_18:\n  dup3\n  dup1\n  add\n  0x01\n  add\n  dup6\n  sstore\n  dup3\n  iszero\n  tag_16\n  jumpi\n  swap2\n  dup3\n  add\ntag_19:\n  dup3\n  dup2\n  gt\n  iszero\n  tag_20\n  jumpi\n  dup3\n  mload\n  dup3\n  sstore\n  swap2\n  0x20\n  add\n  swap2\n  swap1\n  0x01\n  add\n  swap1\n  jump(tag_19)\ntag_20:\ntag_16:\n  pop\n  swap1\n  pop\n  tag_21\n  swap2\n  swap1\n  tag_22\n  jump\t// in\ntag_21:\n  pop\n  swap1\n  jump\t// out\ntag_13:\ntag_23:\n  dup1\n  dup3\n  gt\n  iszero\n  tag_24\n  jumpi\n  0x00\n  dup2\n  dup2\n  tag_25\n  swap2\n  swap1\n  tag_26\n  jump\t// in\ntag_25:\n  pop\n  0x01\n  add\n  jump(tag_23)\ntag_24:\n  pop\n  swap1\n  jump\t// out\ntag_22:\ntag_27:\n  dup1\n  dup3\n  gt\n  iszero\n  tag_28\n  jumpi\n  0x00\n  dup2\n  0x00\n  swap1\n  sstore\n  pop\n  0x01\n  add\n  jump(tag_27)\ntag_28:\n  pop\n  swap1\n  jump\t// out\ntag_26:\n  pop\n  dup1\n  sload\n  tag_29\n  swap1\n  tag_15\n  jump\t// in\ntag_29:\n  0x00\n  dup3\n  sstore\n  dup1\n  0x1f\n  lt\n  tag_31\n  jumpi\n  pop\n  jump(tag_30)\ntag_31:\n  0x1f\n  add\n  0x20\n  swap1\n  div\n  swap1\n  0x00\n  mstore\n  keccak256(0x00, 0x20)\n  swap1\n  dup2\n  add\n  swap1\n  tag_32\n  swap2\n  swap1\n  tag_22\n  jump\t// in\ntag_32:\ntag_30:\n  pop\n  jump\t// out\n    /* \"#utility.yul\":7:327   */\ntag_15:\n    /* \"#utility.yul\":51:57   */\n  0x00\n    /* \"#utility.yul\":88:89   */\n  0x02\n    /* \"#utility.yul\":82:86   */\n  dup3\n    /* \"#utility.yul\":78:90   */\n  div\n    /* \"#utility.yul\":68:90   */\n  swap1\n  pop\n    /* \"#utility.yul\":135:136   */\n  0x01\n    /* \"#utility.yul\":129:133   */\n  dup3\n    /* \"#utility.yul\":125:137   */\n  and\n    /* \"#utility.yul\":156:174   */\n  dup1\n    /* \"#utility.yul\":146:227   */\n  tag_35\n  jumpi\n    /* \"#utility.yul\":212:216   */\n  0x7f\n    /* \"#utility.yul\":204:210   */\n  dup3\n    /* \"#utility.yul\":200:217   */\n  and\n    /* \"#utility.yul\":190:217   */\n  swap2\n  pop\n    /* \"#utility.yul\":146:227   */\ntag_35:\n    /* \"#utility.yul\":274:276   */\n  0x20\n    /* \"#utility.yul\":266:272   */\n  dup3\n    /* \"#utility.yul\":263:277   */\n  lt\n    /* \"#utility.yul\":243:261   */\n  dup2\n    /* \"#utility.yul\":240:278   */\n  eq\n    /* \"#utility.yul\":237:321   */\n  iszero\n  tag_36\n  jumpi\n    /* \"#utility.yul\":293:311   */\n  tag_37\n  tag_38\n  jump\t// in\ntag_37:\n    /* \"#utility.yul\":237:321   */\ntag_36:\n    /* \"#utility.yul\":58:327   */\n  pop\n    /* \"#utility.yul\":7:327   */\n  swap2\n  swap1\n  pop\n  jump\t// out\n    /* \"#utility.yul\":333:513   */\ntag_38:\n    /* \"#utility.yul\":381:458   */\n  0x4e487b7100000000000000000000000000000000000000000000000000000000\n    /* \"#utility.yul\":378:379   */\n  0x00\n    /* \"#utility.yul\":371:459   */\n  mstore\n    /* \"#utility.yul\":478:482   */\n  0x22\n    /* \"#utility.yul\":475:476   */\n  0x04\n    /* \"#utility.yul\":468:483   */\n  mstore\n    /* \"#utility.yul\":502:506   */\n  0x24\n    /* \"#utility.yul\":499:500   */\n  0x00\n    /* \"#utility.yul\":492:507   */\n  revert\n    /* \"AttackGame.sol\":672:3345  contract AttackGame {\r... */\ntag_6:\n  dataSize(sub_0)\n  dup1\n  dataOffset(sub_0)\n  0x00\n  codecopy\n  0x00\n  return\nstop\n\nsub_0: assembly {\n        /* \"AttackGame.sol\":672:3345  contract AttackGame {\r... */\n      mstore(0x40, 0x80)\n      callvalue\n      dup1\n      iszero\n      tag_1\n      jumpi\n      0x00\n      dup1\n      revert\n    tag_1:\n      pop\n      jumpi(tag_2, lt(calldatasize, 0x04))\n      shr(0xe0, calldataload(0x00))\n      dup1\n      0x07546172\n      eq\n      tag_3\n      jumpi\n      dup1\n      0x5cf3d346\n      eq\n      tag_4\n      jumpi\n      dup1\n      0x6a786b07\n      eq\n      tag_5\n      jumpi\n      dup1\n      0xabf5f2ed\n      eq\n      tag_6\n      jumpi\n      dup1\n      0xbc346c9c\n      eq\n      tag_7\n      jumpi\n      dup1\n      0xf71d96cb\n      eq\n      tag_8\n      jumpi\n    tag_2:\n      0x00\n      dup1\n      revert\n        /* \"AttackGame.sol\":699:720  address public minter */\n    tag_3:\n      tag_9\n      tag_10\n      jump\t// in\n    tag_9:\n      mload(0x40)\n      tag_11\n      swap2\n      swap1\n      tag_12\n      jump\t// in\n    tag_11:\n      mload(0x40)\n      dup1\n      swap2\n      sub\n      swap1\n      return\n        /* \"AttackGame.sol\":934:974  mapping (address => string) public names */\n    tag_4:\n      tag_13\n      0x04\n      dup1\n      calldatasize\n      sub\n      dup2\n      add\n      swap1\n      tag_14\n      swap2\n      swap1\n      tag_15\n      jump\t// in\n    tag_14:\n      tag_16\n      jump\t// in\n    tag_13:\n      mload(0x40)\n      tag_17\n      swap2\n      swap1\n      tag_18\n      jump\t// in\n    tag_17:\n      mload(0x40)\n      dup1\n      swap2\n      sub\n      swap1\n      return\n        /* \"AttackGame.sol\":1517:1855  function join(string memory name) public {\r... */\n    tag_5:\n      tag_19\n      0x04\n      dup1\n      calldatasize\n      sub\n      dup2\n      add\n      swap1\n      tag_20\n      swap2\n      swap1\n      tag_21\n      jump\t// in\n    tag_20:\n      tag_22\n      jump\t// in\n    tag_19:\n      stop\n        /* \"AttackGame.sol\":848:888  mapping (address => int[3]) public Stats */\n    tag_6:\n      tag_23\n      0x04\n      dup1\n      calldatasize\n      sub\n      dup2\n      add\n      swap1\n      tag_24\n      swap2\n      swap1\n      tag_25\n      jump\t// in\n    tag_24:\n      tag_26\n      jump\t// in\n    tag_23:\n      mload(0x40)\n      tag_27\n      swap2\n      swap1\n      tag_28\n      jump\t// in\n    tag_27:\n      mload(0x40)\n      dup1\n      swap2\n      sub\n      swap1\n      return\n        /* \"AttackGame.sol\":1879:3021  function Attack(address victim) public  {\r... */\n    tag_7:\n      tag_29\n      0x04\n      dup1\n      calldatasize\n      sub\n      dup2\n      add\n      swap1\n      tag_30\n      swap2\n      swap1\n      tag_15\n      jump\t// in\n    tag_30:\n      tag_31\n      jump\t// in\n    tag_29:\n      stop\n        /* \"AttackGame.sol\":1041:1065  address[] public players */\n    tag_8:\n      tag_32\n      0x04\n      dup1\n      calldatasize\n      sub\n      dup2\n      add\n      swap1\n      tag_33\n      swap2\n      swap1\n      tag_34\n      jump\t// in\n    tag_33:\n      tag_35\n      jump\t// in\n    tag_32:\n      mload(0x40)\n      tag_36\n      swap2\n      swap1\n      tag_12\n      jump\t// in\n    tag_36:\n      mload(0x40)\n      dup1\n      swap2\n      sub\n      swap1\n      return\n        /* \"AttackGame.sol\":699:720  address public minter */\n    tag_10:\n      0x00\n      dup1\n      sload\n      swap1\n      0x0100\n      exp\n      swap1\n      div\n      0xffffffffffffffffffffffffffffffffffffffff\n      and\n      dup2\n      jump\t// out\n        /* \"AttackGame.sol\":934:974  mapping (address => string) public names */\n    tag_16:\n      mstore(0x20, 0x03)\n      dup1\n      0x00\n      mstore\n      keccak256(0x00, 0x40)\n      0x00\n      swap2\n      pop\n      swap1\n      pop\n      dup1\n      sload\n      tag_37\n      swap1\n      tag_38\n      jump\t// in\n    tag_37:\n      dup1\n      0x1f\n      add\n      0x20\n      dup1\n      swap2\n      div\n      mul\n      0x20\n      add\n      mload(0x40)\n      swap1\n      dup2\n      add\n      0x40\n      mstore\n      dup1\n      swap3\n      swap2\n      swap1\n      dup2\n      dup2\n      mstore\n      0x20\n      add\n      dup3\n      dup1\n      sload\n      tag_39\n      swap1\n      tag_38\n      jump\t// in\n    tag_39:\n      dup1\n      iszero\n      tag_40\n      jumpi\n      dup1\n      0x1f\n      lt\n      tag_41\n      jumpi\n      0x0100\n      dup1\n      dup4\n      sload\n      div\n      mul\n      dup4\n      mstore\n      swap2\n      0x20\n      add\n      swap2\n      jump(tag_40)\n    tag_41:\n      dup3\n      add\n      swap2\n      swap1\n      0x00\n      mstore\n      keccak256(0x00, 0x20)\n      swap1\n    tag_42:\n      dup2\n      sload\n      dup2\n      mstore\n      swap1\n      0x01\n      add\n      swap1\n      0x20\n      add\n      dup1\n      dup4\n      gt\n      tag_42\n      jumpi\n      dup3\n      swap1\n      sub\n      0x1f\n      and\n      dup3\n      add\n      swap2\n    tag_40:\n      pop\n      pop\n      pop\n      pop\n      pop\n      dup2\n      jump\t// out\n        /* \"AttackGame.sol\":1517:1855  function join(string memory name) public {\r... */\n    tag_22:\n        /* \"AttackGame.sol\":1599:1603  true */\n      0x01\n        /* \"AttackGame.sol\":1577:1603  joined[msg.sender] != true */\n      iszero\n      iszero\n        /* \"AttackGame.sol\":1577:1583  joined */\n      0x02\n        /* \"AttackGame.sol\":1577:1595  joined[msg.sender] */\n      0x00\n        /* \"AttackGame.sol\":1584:1594  msg.sender */\n      caller\n        /* \"AttackGame.sol\":1577:1595  joined[msg.sender] */\n      0xffffffffffffffffffffffffffffffffffffffff\n      and\n      0xffffffffffffffffffffffffffffffffffffffff\n      and\n      dup2\n      mstore\n      0x20\n      add\n      swap1\n      dup2\n      mstore\n      0x20\n      add\n      0x00\n      keccak256\n      0x00\n      swap1\n      sload\n      swap1\n      0x0100\n      exp\n      swap1\n      div\n      0xff\n      and\n        /* \"AttackGame.sol\":1577:1603  joined[msg.sender] != true */\n      iszero\n      iszero\n      eq\n      iszero\n        /* \"AttackGame.sol\":1569:1604  require(joined[msg.sender] != true) */\n      tag_44\n      jumpi\n      0x00\n      dup1\n      revert\n    tag_44:\n        /* \"AttackGame.sol\":1636:1640  true */\n      0x01\n        /* \"AttackGame.sol\":1615:1621  joined */\n      0x02\n        /* \"AttackGame.sol\":1615:1633  joined[msg.sender] */\n      0x00\n        /* \"AttackGame.sol\":1622:1632  msg.sender */\n      caller\n        /* \"AttackGame.sol\":1615:1633  joined[msg.sender] */\n      0xffffffffffffffffffffffffffffffffffffffff\n      and\n      0xffffffffffffffffffffffffffffffffffffffff\n      and\n      dup2\n      mstore\n      0x20\n      add\n      swap1\n      dup2\n      mstore\n      0x20\n      add\n      0x00\n      keccak256\n      0x00\n        /* \"AttackGame.sol\":1615:1640  joined[msg.sender] = true */\n      0x0100\n      exp\n      dup2\n      sload\n      dup2\n      0xff\n      mul\n      not\n      and\n      swap1\n      dup4\n      iszero\n      iszero\n      mul\n      or\n      swap1\n      sstore\n      pop\n        /* \"AttackGame.sol\":1680:1689  random(5) */\n      tag_45\n        /* \"AttackGame.sol\":1687:1688  5 */\n      0x05\n        /* \"AttackGame.sol\":1680:1686  random */\n      tag_46\n        /* \"AttackGame.sol\":1680:1689  random(5) */\n      jump\t// in\n    tag_45:\n        /* \"AttackGame.sol\":1674:1675  5 */\n      0x05\n        /* \"AttackGame.sol\":1674:1690  5+int(random(5)) */\n      tag_47\n      swap2\n      swap1\n      tag_48\n      jump\t// in\n    tag_47:\n        /* \"AttackGame.sol\":1651:1656  Stats */\n      0x01\n        /* \"AttackGame.sol\":1651:1668  Stats[msg.sender] */\n      0x00\n        /* \"AttackGame.sol\":1657:1667  msg.sender */\n      caller\n        /* \"AttackGame.sol\":1651:1668  Stats[msg.sender] */\n      0xffffffffffffffffffffffffffffffffffffffff\n      and\n      0xffffffffffffffffffffffffffffffffffffffff\n      and\n      dup2\n      mstore\n      0x20\n      add\n      swap1\n      dup2\n      mstore\n      0x20\n      add\n      0x00\n      keccak256\n        /* \"AttackGame.sol\":1669:1670  0 */\n      0x00\n        /* \"AttackGame.sol\":1651:1671  Stats[msg.sender][0] */\n      0x03\n      dup2\n      lt\n      tag_49\n      jumpi\n      tag_50\n      tag_51\n      jump\t// in\n    tag_50:\n    tag_49:\n      add\n        /* \"AttackGame.sol\":1651:1690  Stats[msg.sender][0] = 5+int(random(5)) */\n      dup2\n      swap1\n      sstore\n      pop\n        /* \"AttackGame.sol\":1730:1739  random(5) */\n      tag_53\n        /* \"AttackGame.sol\":1737:1738  5 */\n      0x05\n        /* \"AttackGame.sol\":1730:1736  random */\n      tag_46\n        /* \"AttackGame.sol\":1730:1739  random(5) */\n      jump\t// in\n    tag_53:\n        /* \"AttackGame.sol\":1724:1725  5 */\n      0x05\n        /* \"AttackGame.sol\":1724:1740  5+int(random(5)) */\n      tag_54\n      swap2\n      swap1\n      tag_48\n      jump\t// in\n    tag_54:\n        /* \"AttackGame.sol\":1701:1706  Stats */\n      0x01\n        /* \"AttackGame.sol\":1701:1718  Stats[msg.sender] */\n      0x00\n        /* \"AttackGame.sol\":1707:1717  msg.sender */\n      caller\n        /* \"AttackGame.sol\":1701:1718  Stats[msg.sender] */\n      0xffffffffffffffffffffffffffffffffffffffff\n      and\n      0xffffffffffffffffffffffffffffffffffffffff\n      and\n      dup2\n      mstore\n      0x20\n      add\n      swap1\n      dup2\n      mstore\n      0x20\n      add\n      0x00\n      keccak256\n        /* \"AttackGame.sol\":1719:1720  1 */\n      0x01\n        /* \"AttackGame.sol\":1701:1721  Stats[msg.sender][1] */\n      0x03\n      dup2\n      lt\n      tag_55\n      jumpi\n      tag_56\n      tag_51\n      jump\t// in\n    tag_56:\n    tag_55:\n      add\n        /* \"AttackGame.sol\":1701:1740  Stats[msg.sender][1] = 5+int(random(5)) */\n      dup2\n      swap1\n      sstore\n      pop\n        /* \"AttackGame.sol\":1774:1777  100 */\n      0x64\n        /* \"AttackGame.sol\":1751:1756  Stats */\n      0x01\n        /* \"AttackGame.sol\":1751:1768  Stats[msg.sender] */\n      0x00\n        /* \"AttackGame.sol\":1757:1767  msg.sender */\n      caller\n        /* \"AttackGame.sol\":1751:1768  Stats[msg.sender] */\n      0xffffffffffffffffffffffffffffffffffffffff\n      and\n      0xffffffffffffffffffffffffffffffffffffffff\n      and\n      dup2\n      mstore\n      0x20\n      add\n      swap1\n      dup2\n      mstore\n      0x20\n      add\n      0x00\n      keccak256\n        /* \"AttackGame.sol\":1769:1770  2 */\n      0x02\n        /* \"AttackGame.sol\":1751:1771  Stats[msg.sender][2] */\n      0x03\n      dup2\n      lt\n      tag_58\n      jumpi\n      tag_59\n      tag_51\n      jump\t// in\n    tag_59:\n    tag_58:\n      add\n        /* \"AttackGame.sol\":1751:1777  Stats[msg.sender][2] = 100 */\n      dup2\n      swap1\n      sstore\n      pop\n        /* \"AttackGame.sol\":1808:1812  name */\n      dup1\n        /* \"AttackGame.sol\":1788:1793  names */\n      0x03\n        /* \"AttackGame.sol\":1788:1805  names[msg.sender] */\n      0x00\n        /* \"AttackGame.sol\":1794:1804  msg.sender */\n      caller\n        /* \"AttackGame.sol\":1788:1805  names[msg.sender] */\n      0xffffffffffffffffffffffffffffffffffffffff\n      and\n      0xffffffffffffffffffffffffffffffffffffffff\n      and\n      dup2\n      mstore\n      0x20\n      add\n      swap1\n      dup2\n      mstore\n      0x20\n      add\n      0x00\n      keccak256\n        /* \"AttackGame.sol\":1788:1812  names[msg.sender] = name */\n      swap1\n      dup1\n      mload\n      swap1\n      0x20\n      add\n      swap1\n      tag_61\n      swap3\n      swap2\n      swap1\n      tag_62\n      jump\t// in\n    tag_61:\n      pop\n        /* \"AttackGame.sol\":1823:1830  players */\n      0x05\n        /* \"AttackGame.sol\":1836:1846  msg.sender */\n      caller\n        /* \"AttackGame.sol\":1823:1847  players.push(msg.sender) */\n      swap1\n      dup1\n      0x01\n      dup2\n      sload\n      add\n      dup1\n      dup3\n      sstore\n      dup1\n      swap2\n      pop\n      pop\n      0x01\n      swap1\n      sub\n      swap1\n      0x00\n      mstore\n      keccak256(0x00, 0x20)\n      add\n      0x00\n      swap1\n      swap2\n      swap1\n      swap2\n      swap1\n      swap2\n      0x0100\n      exp\n      dup2\n      sload\n      dup2\n      0xffffffffffffffffffffffffffffffffffffffff\n      mul\n      not\n      and\n      swap1\n      dup4\n      0xffffffffffffffffffffffffffffffffffffffff\n      and\n      mul\n      or\n      swap1\n      sstore\n      pop\n        /* \"AttackGame.sol\":1517:1855  function join(string memory name) public {\r... */\n      pop\n      jump\t// out\n        /* \"AttackGame.sol\":848:888  mapping (address => int[3]) public Stats */\n    tag_26:\n      mstore(0x20, 0x01)\n      dup2\n      0x00\n      mstore\n      keccak256(0x00, 0x40)\n      dup2\n      0x03\n      dup2\n      lt\n      tag_64\n      jumpi\n      0x00\n      dup1\n      revert\n    tag_64:\n      add\n      0x00\n      swap2\n      pop\n      swap2\n      pop\n      pop\n      sload\n      dup2\n      jump\t// out\n        /* \"AttackGame.sol\":1879:3021  function Attack(address victim) public  {\r... */\n    tag_31:\n        /* \"AttackGame.sol\":1956:1960  true */\n      0x01\n        /* \"AttackGame.sol\":1938:1960  joined[victim] == true */\n      iszero\n      iszero\n        /* \"AttackGame.sol\":1938:1944  joined */\n      0x02\n        /* \"AttackGame.sol\":1938:1952  joined[victim] */\n      0x00\n        /* \"AttackGame.sol\":1945:1951  victim */\n      dup4\n        /* \"AttackGame.sol\":1938:1952  joined[victim] */\n      0xffffffffffffffffffffffffffffffffffffffff\n      and\n      0xffffffffffffffffffffffffffffffffffffffff\n      and\n      dup2\n      mstore\n      0x20\n      add\n      swap1\n      dup2\n      mstore\n      0x20\n      add\n      0x00\n      keccak256\n      0x00\n      swap1\n      sload\n      swap1\n      0x0100\n      exp\n      swap1\n      div\n      0xff\n      and\n        /* \"AttackGame.sol\":1938:1960  joined[victim] == true */\n      iszero\n      iszero\n      eq\n        /* \"AttackGame.sol\":1930:1961  require(joined[victim] == true) */\n      tag_67\n      jumpi\n      0x00\n      dup1\n      revert\n    tag_67:\n        /* \"AttackGame.sol\":2002:2006  true */\n      0x01\n        /* \"AttackGame.sol\":1980:2006  joined[msg.sender] == true */\n      iszero\n      iszero\n        /* \"AttackGame.sol\":1980:1986  joined */\n      0x02\n        /* \"AttackGame.sol\":1980:1998  joined[msg.sender] */\n      0x00\n        /* \"AttackGame.sol\":1987:1997  msg.sender */\n      caller\n        /* \"AttackGame.sol\":1980:1998  joined[msg.sender] */\n      0xffffffffffffffffffffffffffffffffffffffff\n      and\n      0xffffffffffffffffffffffffffffffffffffffff\n      and\n      dup2\n      mstore\n      0x20\n      add\n      swap1\n      dup2\n      mstore\n      0x20\n      add\n      0x00\n      keccak256\n      0x00\n      swap1\n      sload\n      swap1\n      0x0100\n      exp\n      swap1\n      div\n      0xff\n      and\n        /* \"AttackGame.sol\":1980:2006  joined[msg.sender] == true */\n      iszero\n      iszero\n      eq\n        /* \"AttackGame.sol\":1972:2007  require(joined[msg.sender] == true) */\n      tag_68\n      jumpi\n      0x00\n      dup1\n      revert\n    tag_68:\n        /* \"AttackGame.sol\":2045:2046  0 */\n      0x00\n        /* \"AttackGame.sol\":2026:2031  Stats */\n      0x01\n        /* \"AttackGame.sol\":2026:2039  Stats[victim] */\n      0x00\n        /* \"AttackGame.sol\":2032:2038  victim */\n      dup4\n        /* \"AttackGame.sol\":2026:2039  Stats[victim] */\n      0xffffffffffffffffffffffffffffffffffffffff\n      and\n      0xffffffffffffffffffffffffffffffffffffffff\n      and\n      dup2\n      mstore\n      0x20\n      add\n      swap1\n      dup2\n      mstore\n      0x20\n      add\n      0x00\n      keccak256\n        /* \"AttackGame.sol\":2040:2041  2 */\n      0x02\n        /* \"AttackGame.sol\":2026:2042  Stats[victim][2] */\n      0x03\n      dup2\n      lt\n      tag_69\n      jumpi\n      tag_70\n      tag_51\n      jump\t// in\n    tag_70:\n    tag_69:\n      add\n      sload\n        /* \"AttackGame.sol\":2026:2046  Stats[victim][2] > 0 */\n      sgt\n        /* \"AttackGame.sol\":2018:2047  require(Stats[victim][2] > 0) */\n      tag_72\n      jumpi\n      0x00\n      dup1\n      revert\n    tag_72:\n        /* \"AttackGame.sol\":2089:2090  0 */\n      0x00\n        /* \"AttackGame.sol\":2066:2071  Stats */\n      0x01\n        /* \"AttackGame.sol\":2066:2083  Stats[msg.sender] */\n      0x00\n        /* \"AttackGame.sol\":2072:2082  msg.sender */\n      caller\n        /* \"AttackGame.sol\":2066:2083  Stats[msg.sender] */\n      0xffffffffffffffffffffffffffffffffffffffff\n      and\n      0xffffffffffffffffffffffffffffffffffffffff\n      and\n      dup2\n      mstore\n      0x20\n      add\n      swap1\n      dup2\n      mstore\n      0x20\n      add\n      0x00\n      keccak256\n        /* \"AttackGame.sol\":2084:2085  2 */\n      0x02\n        /* \"AttackGame.sol\":2066:2086  Stats[msg.sender][2] */\n      0x03\n      dup2\n      lt\n      tag_73\n      jumpi\n      tag_74\n      tag_51\n      jump\t// in\n    tag_74:\n    tag_73:\n      add\n      sload\n        /* \"AttackGame.sol\":2066:2090  Stats[msg.sender][2] > 0 */\n      sgt\n        /* \"AttackGame.sol\":2058:2091  require(Stats[msg.sender][2] > 0) */\n      tag_76\n      jumpi\n      0x00\n      dup1\n      revert\n    tag_76:\n        /* \"AttackGame.sol\":2102:2112  int result */\n      0x00\n        /* \"AttackGame.sol\":2138:2143  Stats */\n      0x01\n        /* \"AttackGame.sol\":2138:2151  Stats[victim] */\n      0x00\n        /* \"AttackGame.sol\":2144:2150  victim */\n      dup4\n        /* \"AttackGame.sol\":2138:2151  Stats[victim] */\n      0xffffffffffffffffffffffffffffffffffffffff\n      and\n      0xffffffffffffffffffffffffffffffffffffffff\n      and\n      dup2\n      mstore\n      0x20\n      add\n      swap1\n      dup2\n      mstore\n      0x20\n      add\n      0x00\n      keccak256\n        /* \"AttackGame.sol\":2152:2153  1 */\n      0x01\n        /* \"AttackGame.sol\":2138:2154  Stats[victim][1] */\n      0x03\n      dup2\n      lt\n      tag_77\n      jumpi\n      tag_78\n      tag_51\n      jump\t// in\n    tag_78:\n    tag_77:\n      add\n      sload\n        /* \"AttackGame.sol\":2115:2120  Stats */\n      0x01\n        /* \"AttackGame.sol\":2115:2132  Stats[msg.sender] */\n      0x00\n        /* \"AttackGame.sol\":2121:2131  msg.sender */\n      caller\n        /* \"AttackGame.sol\":2115:2132  Stats[msg.sender] */\n      0xffffffffffffffffffffffffffffffffffffffff\n      and\n      0xffffffffffffffffffffffffffffffffffffffff\n      and\n      dup2\n      mstore\n      0x20\n      add\n      swap1\n      dup2\n      mstore\n      0x20\n      add\n      0x00\n      keccak256\n        /* \"AttackGame.sol\":2133:2134  0 */\n      0x00\n        /* \"AttackGame.sol\":2115:2135  Stats[msg.sender][0] */\n      0x03\n      dup2\n      lt\n      tag_80\n      jumpi\n      tag_81\n      tag_51\n      jump\t// in\n    tag_81:\n    tag_80:\n      add\n      sload\n        /* \"AttackGame.sol\":2115:2154  Stats[msg.sender][0] - Stats[victim][1] */\n      tag_83\n      swap2\n      swap1\n      tag_84\n      jump\t// in\n    tag_83:\n        /* \"AttackGame.sol\":2102:2154  int result = Stats[msg.sender][0] - Stats[victim][1] */\n      swap1\n      pop\n        /* \"AttackGame.sol\":2178:2179  0 */\n      0x00\n        /* \"AttackGame.sol\":2171:2177  result */\n      dup2\n        /* \"AttackGame.sol\":2171:2179  result>0 */\n      sgt\n        /* \"AttackGame.sol\":2167:2946  if (result>0){\r... */\n      iszero\n      tag_85\n      jumpi\n        /* \"AttackGame.sol\":2263:2264  2 */\n      0x02\n        /* \"AttackGame.sol\":2256:2262  result */\n      dup2\n        /* \"AttackGame.sol\":2256:2264  result*2 */\n      tag_86\n      swap2\n      swap1\n      tag_87\n      jump\t// in\n    tag_86:\n        /* \"AttackGame.sol\":2236:2241  Stats */\n      0x01\n        /* \"AttackGame.sol\":2236:2249  Stats[victim] */\n      0x00\n        /* \"AttackGame.sol\":2242:2248  victim */\n      dup5\n        /* \"AttackGame.sol\":2236:2249  Stats[victim] */\n      0xffffffffffffffffffffffffffffffffffffffff\n      and\n      0xffffffffffffffffffffffffffffffffffffffff\n      and\n      dup2\n      mstore\n      0x20\n      add\n      swap1\n      dup2\n      mstore\n      0x20\n      add\n      0x00\n      keccak256\n        /* \"AttackGame.sol\":2250:2251  2 */\n      0x02\n        /* \"AttackGame.sol\":2236:2252  Stats[victim][2] */\n      0x03\n      dup2\n      lt\n      tag_88\n      jumpi\n      tag_89\n      tag_51\n      jump\t// in\n    tag_89:\n    tag_88:\n      add\n      0x00\n        /* \"AttackGame.sol\":2236:2264  Stats[victim][2] -= result*2 */\n      dup3\n      dup3\n      sload\n      tag_91\n      swap2\n      swap1\n      tag_84\n      jump\t// in\n    tag_91:\n      swap3\n      pop\n      pop\n      dup2\n      swap1\n      sstore\n      pop\n        /* \"AttackGame.sol\":2350:2351  2 */\n      0x02\n        /* \"AttackGame.sol\":2343:2349  result */\n      dup2\n        /* \"AttackGame.sol\":2343:2351  result/2 */\n      tag_92\n      swap2\n      swap1\n      tag_93\n      jump\t// in\n    tag_92:\n        /* \"AttackGame.sol\":2319:2324  Stats */\n      0x01\n        /* \"AttackGame.sol\":2319:2336  Stats[msg.sender] */\n      0x00\n        /* \"AttackGame.sol\":2325:2335  msg.sender */\n      caller\n        /* \"AttackGame.sol\":2319:2336  Stats[msg.sender] */\n      0xffffffffffffffffffffffffffffffffffffffff\n      and\n      0xffffffffffffffffffffffffffffffffffffffff\n      and\n      dup2\n      mstore\n      0x20\n      add\n      swap1\n      dup2\n      mstore\n      0x20\n      add\n      0x00\n      keccak256\n        /* \"AttackGame.sol\":2337:2338  2 */\n      0x02\n        /* \"AttackGame.sol\":2319:2339  Stats[msg.sender][2] */\n      0x03\n      dup2\n      lt\n      tag_94\n      jumpi\n      tag_95\n      tag_51\n      jump\t// in\n    tag_95:\n    tag_94:\n      add\n      0x00\n        /* \"AttackGame.sol\":2319:2351  Stats[msg.sender][2] -= result/2 */\n      dup3\n      dup3\n      sload\n      tag_97\n      swap2\n      swap1\n      tag_84\n      jump\t// in\n    tag_97:\n      swap3\n      pop\n      pop\n      dup2\n      swap1\n      sstore\n      pop\n        /* \"AttackGame.sol\":2444:2446  10 */\n      0x0a\n        /* \"AttackGame.sol\":2420:2425  Stats */\n      0x01\n        /* \"AttackGame.sol\":2420:2437  Stats[msg.sender] */\n      0x00\n        /* \"AttackGame.sol\":2426:2436  msg.sender */\n      caller\n        /* \"AttackGame.sol\":2420:2437  Stats[msg.sender] */\n      0xffffffffffffffffffffffffffffffffffffffff\n      and\n      0xffffffffffffffffffffffffffffffffffffffff\n      and\n      dup2\n      mstore\n      0x20\n      add\n      swap1\n      dup2\n      mstore\n      0x20\n      add\n      0x00\n      keccak256\n        /* \"AttackGame.sol\":2438:2439  0 */\n      0x00\n        /* \"AttackGame.sol\":2420:2440  Stats[msg.sender][0] */\n      0x03\n      dup2\n      lt\n      tag_98\n      jumpi\n      tag_99\n      tag_51\n      jump\t// in\n    tag_99:\n    tag_98:\n      add\n      0x00\n        /* \"AttackGame.sol\":2420:2446  Stats[msg.sender][0] += 10 */\n      dup3\n      dup3\n      sload\n      tag_101\n      swap2\n      swap1\n      tag_48\n      jump\t// in\n    tag_101:\n      swap3\n      pop\n      pop\n      dup2\n      swap1\n      sstore\n      pop\n        /* \"AttackGame.sol\":2534:2536  10 */\n      0x0a\n        /* \"AttackGame.sol\":2514:2519  Stats */\n      0x01\n        /* \"AttackGame.sol\":2514:2527  Stats[victim] */\n      0x00\n        /* \"AttackGame.sol\":2520:2526  victim */\n      dup5\n        /* \"AttackGame.sol\":2514:2527  Stats[victim] */\n      0xffffffffffffffffffffffffffffffffffffffff\n      and\n      0xffffffffffffffffffffffffffffffffffffffff\n      and\n      dup2\n      mstore\n      0x20\n      add\n      swap1\n      dup2\n      mstore\n      0x20\n      add\n      0x00\n      keccak256\n        /* \"AttackGame.sol\":2528:2529  1 */\n      0x01\n        /* \"AttackGame.sol\":2514:2530  Stats[victim][1] */\n      0x03\n      dup2\n      lt\n      tag_102\n      jumpi\n      tag_103\n      tag_51\n      jump\t// in\n    tag_103:\n    tag_102:\n      add\n      0x00\n        /* \"AttackGame.sol\":2514:2536  Stats[victim][1] += 10 */\n      dup3\n      dup3\n      sload\n      tag_105\n      swap2\n      swap1\n      tag_48\n      jump\t// in\n    tag_105:\n      swap3\n      pop\n      pop\n      dup2\n      swap1\n      sstore\n      pop\n        /* \"AttackGame.sol\":2167:2946  if (result>0){\r... */\n      jump(tag_106)\n    tag_85:\n        /* \"AttackGame.sol\":2578:2580  -1 */\n      0xffffffffffffffffffffffffffffffffffffffffffffffffffffffffffffffff\n        /* \"AttackGame.sol\":2568:2580  result *= -1 */\n      dup2\n      tag_107\n      swap2\n      swap1\n      tag_87\n      jump\t// in\n    tag_107:\n      swap1\n      pop\n        /* \"AttackGame.sol\":2663:2664  2 */\n      0x02\n        /* \"AttackGame.sol\":2656:2662  result */\n      dup2\n        /* \"AttackGame.sol\":2656:2664  result/2 */\n      tag_108\n      swap2\n      swap1\n      tag_93\n      jump\t// in\n    tag_108:\n        /* \"AttackGame.sol\":2636:2641  Stats */\n      0x01\n        /* \"AttackGame.sol\":2636:2649  Stats[victim] */\n      0x00\n        /* \"AttackGame.sol\":2642:2648  victim */\n      dup5\n        /* \"AttackGame.sol\":2636:2649  Stats[victim] */\n      0xffffffffffffffffffffffffffffffffffffffff\n      and\n      0xffffffffffffffffffffffffffffffffffffffff\n      and\n      dup2\n      mstore\n      0x20\n      add\n      swap1\n      dup2\n      mstore\n      0x20\n      add\n      0x00\n      keccak256\n        /* \"AttackGame.sol\":2650:2651  2 */\n      0x02\n        /* \"AttackGame.sol\":2636:2652  Stats[victim][2] */\n      0x03\n      dup2\n      lt\n      tag_109\n      jumpi\n      tag_110\n      tag_51\n      jump\t// in\n    tag_110:\n    tag_109:\n      add\n      0x00\n        /* \"AttackGame.sol\":2636:2664  Stats[victim][2] -= result/2 */\n      dup3\n      dup3\n      sload\n      tag_112\n      swap2\n      swap1\n      tag_84\n      jump\t// in\n    tag_112:\n      swap3\n      pop\n      pop\n      dup2\n      swap1\n      sstore\n      pop\n        /* \"AttackGame.sol\":2743:2749  result */\n      dup1\n        /* \"AttackGame.sol\":2719:2724  Stats */\n      0x01\n        /* \"AttackGame.sol\":2719:2736  Stats[msg.sender] */\n      0x00\n        /* \"AttackGame.sol\":2725:2735  msg.sender */\n      caller\n        /* \"AttackGame.sol\":2719:2736  Stats[msg.sender] */\n      0xffffffffffffffffffffffffffffffffffffffff\n      and\n      0xffffffffffffffffffffffffffffffffffffffff\n      and\n      dup2\n      mstore\n      0x20\n      add\n      swap1\n      dup2\n      mstore\n      0x20\n      add\n      0x00\n      keccak256\n        /* \"AttackGame.sol\":2737:2738  2 */\n      0x02\n        /* \"AttackGame.sol\":2719:2739  Stats[msg.sender][2] */\n      0x03\n      dup2\n      lt\n      tag_113\n      jumpi\n      tag_114\n      tag_51\n      jump\t// in\n    tag_114:\n    tag_113:\n      add\n      0x00\n        /* \"AttackGame.sol\":2719:2749  Stats[msg.sender][2] -= result */\n      dup3\n      dup3\n      sload\n      tag_116\n      swap2\n      swap1\n      tag_84\n      jump\t// in\n    tag_116:\n      swap3\n      pop\n      pop\n      dup2\n      swap1\n      sstore\n      pop\n        /* \"AttackGame.sol\":2932:2934  20 */\n      0x14\n        /* \"AttackGame.sol\":2912:2917  Stats */\n      0x01\n        /* \"AttackGame.sol\":2912:2925  Stats[victim] */\n      0x00\n        /* \"AttackGame.sol\":2918:2924  victim */\n      dup5\n        /* \"AttackGame.sol\":2912:2925  Stats[victim] */\n      0xffffffffffffffffffffffffffffffffffffffff\n      and\n      0xffffffffffffffffffffffffffffffffffffffff\n      and\n      dup2\n      mstore\n      0x20\n      add\n      swap1\n      dup2\n      mstore\n      0x20\n      add\n      0x00\n      keccak256\n        /* \"AttackGame.sol\":2926:2927  1 */\n      0x01\n        /* \"AttackGame.sol\":2912:2928  Stats[victim][1] */\n      0x03\n      dup2\n      lt\n      tag_117\n      jumpi\n      tag_118\n      tag_51\n      jump\t// in\n    tag_118:\n    tag_117:\n      add\n      0x00\n        /* \"AttackGame.sol\":2912:2934  Stats[victim][1] += 20 */\n      dup3\n      dup3\n      sload\n      tag_120\n      swap2\n      swap1\n      tag_48\n      jump\t// in\n    tag_120:\n      swap3\n      pop\n      pop\n      dup2\n      swap1\n      sstore\n      pop\n        /* \"AttackGame.sol\":2167:2946  if (result>0){\r... */\n    tag_106:\n        /* \"AttackGame.sol\":2956:2981  RemoveTheDead(msg.sender) */\n      tag_121\n        /* \"AttackGame.sol\":2970:2980  msg.sender */\n      caller\n        /* \"AttackGame.sol\":2956:2969  RemoveTheDead */\n      tag_122\n        /* \"AttackGame.sol\":2956:2981  RemoveTheDead(msg.sender) */\n      jump\t// in\n    tag_121:\n        /* \"AttackGame.sol\":2992:3013  RemoveTheDead(victim) */\n      tag_123\n        /* \"AttackGame.sol\":3006:3012  victim */\n      dup3\n        /* \"AttackGame.sol\":2992:3005  RemoveTheDead */\n      tag_122\n        /* \"AttackGame.sol\":2992:3013  RemoveTheDead(victim) */\n      jump\t// in\n    tag_123:\n        /* \"AttackGame.sol\":1919:3021  {\r... */\n      pop\n        /* \"AttackGame.sol\":1879:3021  function Attack(address victim) public  {\r... */\n      pop\n      jump\t// out\n        /* \"AttackGame.sol\":1041:1065  address[] public players */\n    tag_35:\n      0x05\n      dup2\n      dup2\n      sload\n      dup2\n      lt\n      tag_124\n      jumpi\n      0x00\n      dup1\n      revert\n    tag_124:\n      swap1\n      0x00\n      mstore\n      keccak256(0x00, 0x20)\n      add\n      0x00\n      swap2\n      pop\n      sload\n      swap1\n      0x0100\n      exp\n      swap1\n      div\n      0xffffffffffffffffffffffffffffffffffffffff\n      and\n      dup2\n      jump\t// out\n        /* \"AttackGame.sol\":1321:1489  function random(uint number) private view returns(uint){\r... */\n    tag_46:\n        /* \"AttackGame.sol\":1371:1375  uint */\n      0x00\n        /* \"AttackGame.sol\":1475:1481  number */\n      dup2\n        /* \"AttackGame.sol\":1426:1441  block.timestamp */\n      timestamp\n        /* \"AttackGame.sol\":1442:1458  block.difficulty */\n      difficulty\n        /* \"AttackGame.sol\":1459:1469  msg.sender */\n      caller\n        /* \"AttackGame.sol\":1409:1470  abi.encodePacked(block.timestamp,block.difficulty,msg.sender) */\n      add(0x20, mload(0x40))\n      tag_127\n      swap4\n      swap3\n      swap2\n      swap1\n      tag_128\n      jump\t// in\n    tag_127:\n      mload(0x40)\n      0x20\n      dup2\n      dup4\n      sub\n      sub\n      dup2\n      mstore\n      swap1\n      0x40\n      mstore\n        /* \"AttackGame.sol\":1399:1471  keccak256(abi.encodePacked(block.timestamp,block.difficulty,msg.sender)) */\n      dup1\n      mload\n      swap1\n      0x20\n      add\n      keccak256\n        /* \"AttackGame.sol\":1394:1472  uint(keccak256(abi.encodePacked(block.timestamp,block.difficulty,msg.sender))) */\n      0x00\n      shr\n        /* \"AttackGame.sol\":1394:1481  uint(keccak256(abi.encodePacked(block.timestamp,block.difficulty,msg.sender))) % number */\n      tag_129\n      swap2\n      swap1\n      tag_130\n      jump\t// in\n    tag_129:\n        /* \"AttackGame.sol\":1387:1481  return uint(keccak256(abi.encodePacked(block.timestamp,block.difficulty,msg.sender))) % number */\n      swap1\n      pop\n        /* \"AttackGame.sol\":1321:1489  function random(uint number) private view returns(uint){\r... */\n      swap2\n      swap1\n      pop\n      jump\t// out\n        /* \"AttackGame.sol\":3029:3336  function RemoveTheDead(address someOne) private{\r... */\n    tag_122:\n        /* \"AttackGame.sol\":3111:3112  0 */\n      0x00\n        /* \"AttackGame.sol\":3090:3095  Stats */\n      0x01\n        /* \"AttackGame.sol\":3090:3104  Stats[someOne] */\n      0x00\n        /* \"AttackGame.sol\":3096:3103  someOne */\n      dup4\n        /* \"AttackGame.sol\":3090:3104  Stats[someOne] */\n      0xffffffffffffffffffffffffffffffffffffffff\n      and\n      0xffffffffffffffffffffffffffffffffffffffff\n      and\n      dup2\n      mstore\n      0x20\n      add\n      swap1\n      dup2\n      mstore\n      0x20\n      add\n      0x00\n      keccak256\n        /* \"AttackGame.sol\":3105:3106  2 */\n      0x02\n        /* \"AttackGame.sol\":3090:3107  Stats[someOne][2] */\n      0x03\n      dup2\n      lt\n      tag_132\n      jumpi\n      tag_133\n      tag_51\n      jump\t// in\n    tag_133:\n    tag_132:\n      add\n      sload\n        /* \"AttackGame.sol\":3090:3112  Stats[someOne][2] <= 0 */\n      sgt\n        /* \"AttackGame.sol\":3087:3329  if(Stats[someOne][2] <= 0){\r... */\n      tag_135\n      jumpi\n        /* \"AttackGame.sol\":3146:3151  false */\n      0x00\n        /* \"AttackGame.sol\":3128:3134  joined */\n      0x02\n        /* \"AttackGame.sol\":3128:3143  joined[someOne] */\n      0x00\n        /* \"AttackGame.sol\":3135:3142  someOne */\n      dup4\n        /* \"AttackGame.sol\":3128:3143  joined[someOne] */\n      0xffffffffffffffffffffffffffffffffffffffff\n      and\n      0xffffffffffffffffffffffffffffffffffffffff\n      and\n      dup2\n      mstore\n      0x20\n      add\n      swap1\n      dup2\n      mstore\n      0x20\n      add\n      0x00\n      keccak256\n      0x00\n        /* \"AttackGame.sol\":3128:3151  joined[someOne] = false */\n      0x0100\n      exp\n      dup2\n      sload\n      dup2\n      0xff\n      mul\n      not\n      and\n      swap1\n      dup4\n      iszero\n      iszero\n      mul\n      or\n      swap1\n      sstore\n      pop\n        /* \"AttackGame.sol\":3170:3176  uint i */\n      0x00\n        /* \"AttackGame.sol\":3166:3317  for(uint i=0;i<players.length;i++){\r... */\n    tag_136:\n        /* \"AttackGame.sol\":3181:3188  players */\n      0x05\n        /* \"AttackGame.sol\":3181:3195  players.length */\n      dup1\n      sload\n      swap1\n      pop\n        /* \"AttackGame.sol\":3179:3180  i */\n      dup2\n        /* \"AttackGame.sol\":3179:3195  i<players.length */\n      lt\n        /* \"AttackGame.sol\":3166:3317  for(uint i=0;i<players.length;i++){\r... */\n      iszero\n      tag_137\n      jumpi\n        /* \"AttackGame.sol\":3234:3241  someOne */\n      dup2\n        /* \"AttackGame.sol\":3222:3241  players[i]==someOne */\n      0xffffffffffffffffffffffffffffffffffffffff\n      and\n        /* \"AttackGame.sol\":3222:3229  players */\n      0x05\n        /* \"AttackGame.sol\":3230:3231  i */\n      dup3\n        /* \"AttackGame.sol\":3222:3232  players[i] */\n      dup2\n      sload\n      dup2\n      lt\n      tag_139\n      jumpi\n      tag_140\n      tag_51\n      jump\t// in\n    tag_140:\n    tag_139:\n      swap1\n      0x00\n      mstore\n      keccak256(0x00, 0x20)\n      add\n      0x00\n      swap1\n      sload\n      swap1\n      0x0100\n      exp\n      swap1\n      div\n      0xffffffffffffffffffffffffffffffffffffffff\n      and\n        /* \"AttackGame.sol\":3222:3241  players[i]==someOne */\n      0xffffffffffffffffffffffffffffffffffffffff\n      and\n      eq\n        /* \"AttackGame.sol\":3219:3302  if(players[i]==someOne){\r... */\n      iszero\n      tag_142\n      jumpi\n        /* \"AttackGame.sol\":3272:3279  players */\n      0x05\n        /* \"AttackGame.sol\":3280:3281  i */\n      dup2\n        /* \"AttackGame.sol\":3272:3282  players[i] */\n      dup2\n      sload\n      dup2\n      lt\n      tag_143\n      jumpi\n      tag_144\n      tag_51\n      jump\t// in\n    tag_144:\n    tag_143:\n      swap1\n      0x00\n      mstore\n      keccak256(0x00, 0x20)\n      add\n      0x00\n        /* \"AttackGame.sol\":3265:3282  delete players[i] */\n      0x0100\n      exp\n      dup2\n      sload\n      swap1\n      0xffffffffffffffffffffffffffffffffffffffff\n      mul\n      not\n      and\n      swap1\n      sstore\n        /* \"AttackGame.sol\":3219:3302  if(players[i]==someOne){\r... */\n    tag_142:\n        /* \"AttackGame.sol\":3196:3199  i++ */\n      dup1\n      dup1\n      tag_146\n      swap1\n      tag_147\n      jump\t// in\n    tag_146:\n      swap2\n      pop\n      pop\n        /* \"AttackGame.sol\":3166:3317  for(uint i=0;i<players.length;i++){\r... */\n      jump(tag_136)\n    tag_137:\n      pop\n        /* \"AttackGame.sol\":3087:3329  if(Stats[someOne][2] <= 0){\r... */\n    tag_135:\n        /* \"AttackGame.sol\":3029:3336  function RemoveTheDead(address someOne) private{\r... */\n      pop\n      jump\t// out\n    tag_62:\n      dup3\n      dup1\n      sload\n      tag_148\n      swap1\n      tag_38\n      jump\t// in\n    tag_148:\n      swap1\n      0x00\n      mstore\n      keccak256(0x00, 0x20)\n      swap1\n      0x1f\n      add\n      0x20\n      swap1\n      div\n      dup2\n      add\n      swap3\n      dup3\n      tag_150\n      jumpi\n      0x00\n      dup6\n      sstore\n      jump(tag_149)\n    tag_150:\n      dup3\n      0x1f\n      lt\n      tag_151\n      jumpi\n      dup1\n      mload\n      not(0xff)\n      and\n      dup4\n      dup1\n      add\n      or\n      dup6\n      sstore\n      jump(tag_149)\n    tag_151:\n      dup3\n      dup1\n      add\n      0x01\n      add\n      dup6\n      sstore\n      dup3\n      iszero\n      tag_149\n      jumpi\n      swap2\n      dup3\n      add\n    tag_152:\n      dup3\n      dup2\n      gt\n      iszero\n      tag_153\n      jumpi\n      dup3\n      mload\n      dup3\n      sstore\n      swap2\n      0x20\n      add\n      swap2\n      swap1\n      0x01\n      add\n      swap1\n      jump(tag_152)\n    tag_153:\n    tag_149:\n      pop\n      swap1\n      pop\n      tag_154\n      swap2\n      swap1\n      tag_155\n      jump\t// in\n    tag_154:\n      pop\n      swap1\n      jump\t// out\n    tag_155:\n    tag_156:\n      dup1\n      dup3\n      gt\n      iszero\n      tag_157\n      jumpi\n      0x00\n      dup2\n      0x00\n      swap1\n      sstore\n      pop\n      0x01\n      add\n      jump(tag_156)\n    tag_157:\n      pop\n      swap1\n      jump\t// out\n        /* \"#utility.yul\":7:419   */\n    tag_159:\n        /* \"#utility.yul\":85:90   */\n      0x00\n        /* \"#utility.yul\":110:176   */\n      tag_161\n        /* \"#utility.yul\":126:175   */\n      tag_162\n        /* \"#utility.yul\":168:174   */\n      dup5\n        /* \"#utility.yul\":126:175   */\n      tag_163\n      jump\t// in\n    tag_162:\n        /* \"#utility.yul\":110:176   */\n      tag_164\n      jump\t// in\n    tag_161:\n        /* \"#utility.yul\":101:176   */\n      swap1\n      pop\n        /* \"#utility.yul\":199:205   */\n      dup3\n        /* \"#utility.yul\":192:197   */\n      dup2\n        /* \"#utility.yul\":185:206   */\n      mstore\n        /* \"#utility.yul\":237:241   */\n      0x20\n        /* \"#utility.yul\":230:235   */\n      dup2\n        /* \"#utility.yul\":226:242   */\n      add\n        /* \"#utility.yul\":275:278   */\n      dup5\n        /* \"#utility.yul\":266:272   */\n      dup5\n        /* \"#utility.yul\":261:264   */\n      dup5\n        /* \"#utility.yul\":257:273   */\n      add\n        /* \"#utility.yul\":254:279   */\n      gt\n        /* \"#utility.yul\":251:363   */\n      iszero\n      tag_165\n      jumpi\n        /* \"#utility.yul\":282:361   */\n      tag_166\n      tag_167\n      jump\t// in\n    tag_166:\n        /* \"#utility.yul\":251:363   */\n    tag_165:\n        /* \"#utility.yul\":372:413   */\n      tag_168\n        /* \"#utility.yul\":406:412   */\n      dup5\n        /* \"#utility.yul\":401:404   */\n      dup3\n        /* \"#utility.yul\":396:399   */\n      dup6\n        /* \"#utility.yul\":372:413   */\n      tag_169\n      jump\t// in\n    tag_168:\n        /* \"#utility.yul\":91:419   */\n      pop\n        /* \"#utility.yul\":7:419   */\n      swap4\n      swap3\n      pop\n      pop\n      pop\n      jump\t// out\n        /* \"#utility.yul\":425:564   */\n    tag_170:\n        /* \"#utility.yul\":471:476   */\n      0x00\n        /* \"#utility.yul\":509:515   */\n      dup2\n        /* \"#utility.yul\":496:516   */\n      calldataload\n        /* \"#utility.yul\":487:516   */\n      swap1\n      pop\n        /* \"#utility.yul\":525:558   */\n      tag_172\n        /* \"#utility.yul\":552:557   */\n      dup2\n        /* \"#utility.yul\":525:558   */\n      tag_173\n      jump\t// in\n    tag_172:\n        /* \"#utility.yul\":425:564   */\n      swap3\n      swap2\n      pop\n      pop\n      jump\t// out\n        /* \"#utility.yul\":584:924   */\n    tag_174:\n        /* \"#utility.yul\":640:645   */\n      0x00\n        /* \"#utility.yul\":689:692   */\n      dup3\n        /* \"#utility.yul\":682:686   */\n      0x1f\n        /* \"#utility.yul\":674:680   */\n      dup4\n        /* \"#utility.yul\":670:687   */\n      add\n        /* \"#utility.yul\":666:693   */\n      slt\n        /* \"#utility.yul\":656:778   */\n      tag_176\n      jumpi\n        /* \"#utility.yul\":697:776   */\n      tag_177\n      tag_178\n      jump\t// in\n    tag_177:\n        /* \"#utility.yul\":656:778   */\n    tag_176:\n        /* \"#utility.yul\":814:820   */\n      dup2\n        /* \"#utility.yul\":801:821   */\n      calldataload\n        /* \"#utility.yul\":839:918   */\n      tag_179\n        /* \"#utility.yul\":914:917   */\n      dup5\n        /* \"#utility.yul\":906:912   */\n      dup3\n        /* \"#utility.yul\":899:903   */\n      0x20\n        /* \"#utility.yul\":891:897   */\n      dup7\n        /* \"#utility.yul\":887:904   */\n      add\n        /* \"#utility.yul\":839:918   */\n      tag_159\n      jump\t// in\n    tag_179:\n        /* \"#utility.yul\":830:918   */\n      swap2\n      pop\n        /* \"#utility.yul\":646:924   */\n      pop\n        /* \"#utility.yul\":584:924   */\n      swap3\n      swap2\n      pop\n      pop\n      jump\t// out\n        /* \"#utility.yul\":930:1069   */\n    tag_180:\n        /* \"#utility.yul\":976:981   */\n      0x00\n        /* \"#utility.yul\":1014:1020   */\n      dup2\n        /* \"#utility.yul\":1001:1021   */\n      calldataload\n        /* \"#utility.yul\":992:1021   */\n      swap1\n      pop\n        /* \"#utility.yul\":1030:1063   */\n      tag_182\n        /* \"#utility.yul\":1057:1062   */\n      dup2\n        /* \"#utility.yul\":1030:1063   */\n      tag_183\n      jump\t// in\n    tag_182:\n        /* \"#utility.yul\":930:1069   */\n      swap3\n      swap2\n      pop\n      pop\n      jump\t// out\n        /* \"#utility.yul\":1075:1404   */\n    tag_15:\n        /* \"#utility.yul\":1134:1140   */\n      0x00\n        /* \"#utility.yul\":1183:1185   */\n      0x20\n        /* \"#utility.yul\":1171:1180   */\n      dup3\n        /* \"#utility.yul\":1162:1169   */\n      dup5\n        /* \"#utility.yul\":1158:1181   */\n      sub\n        /* \"#utility.yul\":1154:1186   */\n      slt\n        /* \"#utility.yul\":1151:1270   */\n      iszero\n      tag_185\n      jumpi\n        /* \"#utility.yul\":1189:1268   */\n      tag_186\n      tag_187\n      jump\t// in\n    tag_186:\n        /* \"#utility.yul\":1151:1270   */\n    tag_185:\n        /* \"#utility.yul\":1309:1310   */\n      0x00\n        /* \"#utility.yul\":1334:1387   */\n      tag_188\n        /* \"#utility.yul\":1379:1386   */\n      dup5\n        /* \"#utility.yul\":1370:1376   */\n      dup3\n        /* \"#utility.yul\":1359:1368   */\n      dup6\n        /* \"#utility.yul\":1355:1377   */\n      add\n        /* \"#utility.yul\":1334:1387   */\n      tag_170\n      jump\t// in\n    tag_188:\n        /* \"#utility.yul\":1324:1387   */\n      swap2\n      pop\n        /* \"#utility.yul\":1280:1397   */\n      pop\n        /* \"#utility.yul\":1075:1404   */\n      swap3\n      swap2\n      pop\n      pop\n      jump\t// out\n        /* \"#utility.yul\":1410:1884   */\n    tag_25:\n        /* \"#utility.yul\":1478:1484   */\n      0x00\n        /* \"#utility.yul\":1486:1492   */\n      dup1\n        /* \"#utility.yul\":1535:1537   */\n      0x40\n        /* \"#utility.yul\":1523:1532   */\n      dup4\n        /* \"#utility.yul\":1514:1521   */\n      dup6\n        /* \"#utility.yul\":1510:1533   */\n      sub\n        /* \"#utility.yul\":1506:1538   */\n      slt\n        /* \"#utility.yul\":1503:1622   */\n      iszero\n      tag_190\n      jumpi\n        /* \"#utility.yul\":1541:1620   */\n      tag_191\n      tag_187\n      jump\t// in\n    tag_191:\n        /* \"#utility.yul\":1503:1622   */\n    tag_190:\n        /* \"#utility.yul\":1661:1662   */\n      0x00\n        /* \"#utility.yul\":1686:1739   */\n      tag_192\n        /* \"#utility.yul\":1731:1738   */\n      dup6\n        /* \"#utility.yul\":1722:1728   */\n      dup3\n        /* \"#utility.yul\":1711:1720   */\n      dup7\n        /* \"#utility.yul\":1707:1729   */\n      add\n        /* \"#utility.yul\":1686:1739   */\n      tag_170\n      jump\t// in\n    tag_192:\n        /* \"#utility.yul\":1676:1739   */\n      swap3\n      pop\n        /* \"#utility.yul\":1632:1749   */\n      pop\n        /* \"#utility.yul\":1788:1790   */\n      0x20\n        /* \"#utility.yul\":1814:1867   */\n      tag_193\n        /* \"#utility.yul\":1859:1866   */\n      dup6\n        /* \"#utility.yul\":1850:1856   */\n      dup3\n        /* \"#utility.yul\":1839:1848   */\n      dup7\n        /* \"#utility.yul\":1835:1857   */\n      add\n        /* \"#utility.yul\":1814:1867   */\n      tag_180\n      jump\t// in\n    tag_193:\n        /* \"#utility.yul\":1804:1867   */\n      swap2\n      pop\n        /* \"#utility.yul\":1759:1877   */\n      pop\n        /* \"#utility.yul\":1410:1884   */\n      swap3\n      pop\n      swap3\n      swap1\n      pop\n      jump\t// out\n        /* \"#utility.yul\":1890:2399   */\n    tag_21:\n        /* \"#utility.yul\":1959:1965   */\n      0x00\n        /* \"#utility.yul\":2008:2010   */\n      0x20\n        /* \"#utility.yul\":1996:2005   */\n      dup3\n        /* \"#utility.yul\":1987:1994   */\n      dup5\n        /* \"#utility.yul\":1983:2006   */\n      sub\n        /* \"#utility.yul\":1979:2011   */\n      slt\n        /* \"#utility.yul\":1976:2095   */\n      iszero\n      tag_195\n      jumpi\n        /* \"#utility.yul\":2014:2093   */\n      tag_196\n      tag_187\n      jump\t// in\n    tag_196:\n        /* \"#utility.yul\":1976:2095   */\n    tag_195:\n        /* \"#utility.yul\":2162:2163   */\n      0x00\n        /* \"#utility.yul\":2151:2160   */\n      dup3\n        /* \"#utility.yul\":2147:2164   */\n      add\n        /* \"#utility.yul\":2134:2165   */\n      calldataload\n        /* \"#utility.yul\":2192:2210   */\n      0xffffffffffffffff\n        /* \"#utility.yul\":2184:2190   */\n      dup2\n        /* \"#utility.yul\":2181:2211   */\n      gt\n        /* \"#utility.yul\":2178:2295   */\n      iszero\n      tag_197\n      jumpi\n        /* \"#utility.yul\":2214:2293   */\n      tag_198\n      tag_199\n      jump\t// in\n    tag_198:\n        /* \"#utility.yul\":2178:2295   */\n    tag_197:\n        /* \"#utility.yul\":2319:2382   */\n      tag_200\n        /* \"#utility.yul\":2374:2381   */\n      dup5\n        /* \"#utility.yul\":2365:2371   */\n      dup3\n        /* \"#utility.yul\":2354:2363   */\n      dup6\n        /* \"#utility.yul\":2350:2372   */\n      add\n        /* \"#utility.yul\":2319:2382   */\n      tag_174\n      jump\t// in\n    tag_200:\n        /* \"#utility.yul\":2309:2382   */\n      swap2\n      pop\n        /* \"#utility.yul\":2105:2392   */\n      pop\n        /* \"#utility.yul\":1890:2399   */\n      swap3\n      swap2\n      pop\n      pop\n      jump\t// out\n        /* \"#utility.yul\":2405:2734   */\n    tag_34:\n        /* \"#utility.yul\":2464:2470   */\n      0x00\n        /* \"#utility.yul\":2513:2515   */\n      0x20\n        /* \"#utility.yul\":2501:2510   */\n      dup3\n        /* \"#utility.yul\":2492:2499   */\n      dup5\n        /* \"#utility.yul\":2488:2511   */\n      sub\n        /* \"#utility.yul\":2484:2516   */\n      slt\n        /* \"#utility.yul\":2481:2600   */\n      iszero\n      tag_202\n      jumpi\n        /* \"#utility.yul\":2519:2598   */\n      tag_203\n      tag_187\n      jump\t// in\n    tag_203:\n        /* \"#utility.yul\":2481:2600   */\n    tag_202:\n        /* \"#utility.yul\":2639:2640   */\n      0x00\n        /* \"#utility.yul\":2664:2717   */\n      tag_204\n        /* \"#utility.yul\":2709:2716   */\n      dup5\n        /* \"#utility.yul\":2700:2706   */\n      dup3\n        /* \"#utility.yul\":2689:2698   */\n      dup6\n        /* \"#utility.yul\":2685:2707   */\n      add\n        /* \"#utility.yul\":2664:2717   */\n      tag_180\n      jump\t// in\n    tag_204:\n        /* \"#utility.yul\":2654:2717   */\n      swap2\n      pop\n        /* \"#utility.yul\":2610:2727   */\n      pop\n        /* \"#utility.yul\":2405:2734   */\n      swap3\n      swap2\n      pop\n      pop\n      jump\t// out\n        /* \"#utility.yul\":2740:2858   */\n    tag_205:\n        /* \"#utility.yul\":2827:2851   */\n      tag_207\n        /* \"#utility.yul\":2845:2850   */\n      dup2\n        /* \"#utility.yul\":2827:2851   */\n      tag_208\n      jump\t// in\n    tag_207:\n        /* \"#utility.yul\":2822:2825   */\n      dup3\n        /* \"#utility.yul\":2815:2852   */\n      mstore\n        /* \"#utility.yul\":2740:2858   */\n      pop\n      pop\n      jump\t// out\n        /* \"#utility.yul\":2864:3021   */\n    tag_209:\n        /* \"#utility.yul\":2969:3014   */\n      tag_211\n        /* \"#utility.yul\":2989:3013   */\n      tag_212\n        /* \"#utility.yul\":3007:3012   */\n      dup3\n        /* \"#utility.yul\":2989:3013   */\n      tag_208\n      jump\t// in\n    tag_212:\n        /* \"#utility.yul\":2969:3014   */\n      tag_213\n      jump\t// in\n    tag_211:\n        /* \"#utility.yul\":2964:2967   */\n      dup3\n        /* \"#utility.yul\":2957:3015   */\n      mstore\n        /* \"#utility.yul\":2864:3021   */\n      pop\n      pop\n      jump\t// out\n        /* \"#utility.yul\":3027:3142   */\n    tag_214:\n        /* \"#utility.yul\":3112:3135   */\n      tag_216\n        /* \"#utility.yul\":3129:3134   */\n      dup2\n        /* \"#utility.yul\":3112:3135   */\n      tag_217\n      jump\t// in\n    tag_216:\n        /* \"#utility.yul\":3107:3110   */\n      dup3\n        /* \"#utility.yul\":3100:3136   */\n      mstore\n        /* \"#utility.yul\":3027:3142   */\n      pop\n      pop\n      jump\t// out\n        /* \"#utility.yul\":3148:3512   */\n    tag_218:\n        /* \"#utility.yul\":3236:3239   */\n      0x00\n        /* \"#utility.yul\":3264:3303   */\n      tag_220\n        /* \"#utility.yul\":3297:3302   */\n      dup3\n        /* \"#utility.yul\":3264:3303   */\n      tag_221\n      jump\t// in\n    tag_220:\n        /* \"#utility.yul\":3319:3390   */\n      tag_222\n        /* \"#utility.yul\":3383:3389   */\n      dup2\n        /* \"#utility.yul\":3378:3381   */\n      dup6\n        /* \"#utility.yul\":3319:3390   */\n      tag_223\n      jump\t// in\n    tag_222:\n        /* \"#utility.yul\":3312:3390   */\n      swap4\n      pop\n        /* \"#utility.yul\":3399:3451   */\n      tag_224\n        /* \"#utility.yul\":3444:3450   */\n      dup2\n        /* \"#utility.yul\":3439:3442   */\n      dup6\n        /* \"#utility.yul\":3432:3436   */\n      0x20\n        /* \"#utility.yul\":3425:3430   */\n      dup7\n        /* \"#utility.yul\":3421:3437   */\n      add\n        /* \"#utility.yul\":3399:3451   */\n      tag_225\n      jump\t// in\n    tag_224:\n        /* \"#utility.yul\":3476:3505   */\n      tag_226\n        /* \"#utility.yul\":3498:3504   */\n      dup2\n        /* \"#utility.yul\":3476:3505   */\n      tag_227\n      jump\t// in\n    tag_226:\n        /* \"#utility.yul\":3471:3474   */\n      dup5\n        /* \"#utility.yul\":3467:3506   */\n      add\n        /* \"#utility.yul\":3460:3506   */\n      swap2\n      pop\n        /* \"#utility.yul\":3240:3512   */\n      pop\n        /* \"#utility.yul\":3148:3512   */\n      swap3\n      swap2\n      pop\n      pop\n      jump\t// out\n        /* \"#utility.yul\":3518:3675   */\n    tag_228:\n        /* \"#utility.yul\":3623:3668   */\n      tag_230\n        /* \"#utility.yul\":3643:3667   */\n      tag_231\n        /* \"#utility.yul\":3661:3666   */\n      dup3\n        /* \"#utility.yul\":3643:3667   */\n      tag_232\n      jump\t// in\n    tag_231:\n        /* \"#utility.yul\":3623:3668   */\n      tag_233\n      jump\t// in\n    tag_230:\n        /* \"#utility.yul\":3618:3621   */\n      dup3\n        /* \"#utility.yul\":3611:3669   */\n      mstore\n        /* \"#utility.yul\":3518:3675   */\n      pop\n      pop\n      jump\t// out\n        /* \"#utility.yul\":3681:4219   */\n    tag_128:\n        /* \"#utility.yul\":3849:3852   */\n      0x00\n        /* \"#utility.yul\":3864:3939   */\n      tag_235\n        /* \"#utility.yul\":3935:3938   */\n      dup3\n        /* \"#utility.yul\":3926:3932   */\n      dup7\n        /* \"#utility.yul\":3864:3939   */\n      tag_228\n      jump\t// in\n    tag_235:\n        /* \"#utility.yul\":3964:3966   */\n      0x20\n        /* \"#utility.yul\":3959:3962   */\n      dup3\n        /* \"#utility.yul\":3955:3967   */\n      add\n        /* \"#utility.yul\":3948:3967   */\n      swap2\n      pop\n        /* \"#utility.yul\":3977:4052   */\n      tag_236\n        /* \"#utility.yul\":4048:4051   */\n      dup3\n        /* \"#utility.yul\":4039:4045   */\n      dup6\n        /* \"#utility.yul\":3977:4052   */\n      tag_228\n      jump\t// in\n    tag_236:\n        /* \"#utility.yul\":4077:4079   */\n      0x20\n        /* \"#utility.yul\":4072:4075   */\n      dup3\n        /* \"#utility.yul\":4068:4080   */\n      add\n        /* \"#utility.yul\":4061:4080   */\n      swap2\n      pop\n        /* \"#utility.yul\":4090:4165   */\n      tag_237\n        /* \"#utility.yul\":4161:4164   */\n      dup3\n        /* \"#utility.yul\":4152:4158   */\n      dup5\n        /* \"#utility.yul\":4090:4165   */\n      tag_209\n      jump\t// in\n    tag_237:\n        /* \"#utility.yul\":4190:4192   */\n      0x14\n        /* \"#utility.yul\":4185:4188   */\n      dup3\n        /* \"#utility.yul\":4181:4193   */\n      add\n        /* \"#utility.yul\":4174:4193   */\n      swap2\n      pop\n        /* \"#utility.yul\":4210:4213   */\n      dup2\n        /* \"#utility.yul\":4203:4213   */\n      swap1\n      pop\n        /* \"#utility.yul\":3681:4219   */\n      swap5\n      swap4\n      pop\n      pop\n      pop\n      pop\n      jump\t// out\n        /* \"#utility.yul\":4225:4447   */\n    tag_12:\n        /* \"#utility.yul\":4318:4322   */\n      0x00\n        /* \"#utility.yul\":4356:4358   */\n      0x20\n        /* \"#utility.yul\":4345:4354   */\n      dup3\n        /* \"#utility.yul\":4341:4359   */\n      add\n        /* \"#utility.yul\":4333:4359   */\n      swap1\n      pop\n        /* \"#utility.yul\":4369:4440   */\n      tag_239\n        /* \"#utility.yul\":4437:4438   */\n      0x00\n        /* \"#utility.yul\":4426:4435   */\n      dup4\n        /* \"#utility.yul\":4422:4439   */\n      add\n        /* \"#utility.yul\":4413:4419   */\n      dup5\n        /* \"#utility.yul\":4369:4440   */\n      tag_205\n      jump\t// in\n    tag_239:\n        /* \"#utility.yul\":4225:4447   */\n      swap3\n      swap2\n      pop\n      pop\n      jump\t// out\n        /* \"#utility.yul\":4453:4671   */\n    tag_28:\n        /* \"#utility.yul\":4544:4548   */\n      0x00\n        /* \"#utility.yul\":4582:4584   */\n      0x20\n        /* \"#utility.yul\":4571:4580   */\n      dup3\n        /* \"#utility.yul\":4567:4585   */\n      add\n        /* \"#utility.yul\":4559:4585   */\n      swap1\n      pop\n        /* \"#utility.yul\":4595:4664   */\n      tag_241\n        /* \"#utility.yul\":4661:4662   */\n      0x00\n        /* \"#utility.yul\":4650:4659   */\n      dup4\n        /* \"#utility.yul\":4646:4663   */\n      add\n        /* \"#utility.yul\":4637:4643   */\n      dup5\n        /* \"#utility.yul\":4595:4664   */\n      tag_214\n      jump\t// in\n    tag_241:\n        /* \"#utility.yul\":4453:4671   */\n      swap3\n      swap2\n      pop\n      pop\n      jump\t// out\n        /* \"#utility.yul\":4677:4990   */\n    tag_18:\n        /* \"#utility.yul\":4790:4794   */\n      0x00\n        /* \"#utility.yul\":4828:4830   */\n      0x20\n        /* \"#utility.yul\":4817:4826   */\n      dup3\n        /* \"#utility.yul\":4813:4831   */\n      add\n        /* \"#utility.yul\":4805:4831   */\n      swap1\n      pop\n        /* \"#utility.yul\":4877:4886   */\n      dup2\n        /* \"#utility.yul\":4871:4875   */\n      dup2\n        /* \"#utility.yul\":4867:4887   */\n      sub\n        /* \"#utility.yul\":4863:4864   */\n      0x00\n        /* \"#utility.yul\":4852:4861   */\n      dup4\n        /* \"#utility.yul\":4848:4865   */\n      add\n        /* \"#utility.yul\":4841:4888   */\n      mstore\n        /* \"#utility.yul\":4905:4983   */\n      tag_243\n        /* \"#utility.yul\":4978:4982   */\n      dup2\n        /* \"#utility.yul\":4969:4975   */\n      dup5\n        /* \"#utility.yul\":4905:4983   */\n      tag_218\n      jump\t// in\n    tag_243:\n        /* \"#utility.yul\":4897:4983   */\n      swap1\n      pop\n        /* \"#utility.yul\":4677:4990   */\n      swap3\n      swap2\n      pop\n      pop\n      jump\t// out\n        /* \"#utility.yul\":4996:5125   */\n    tag_164:\n        /* \"#utility.yul\":5030:5036   */\n      0x00\n        /* \"#utility.yul\":5057:5077   */\n      tag_245\n      tag_246\n      jump\t// in\n    tag_245:\n        /* \"#utility.yul\":5047:5077   */\n      swap1\n      pop\n        /* \"#utility.yul\":5086:5119   */\n      tag_247\n        /* \"#utility.yul\":5114:5118   */\n      dup3\n        /* \"#utility.yul\":5106:5112   */\n      dup3\n        /* \"#utility.yul\":5086:5119   */\n      tag_248\n      jump\t// in\n    tag_247:\n        /* \"#utility.yul\":4996:5125   */\n      swap2\n      swap1\n      pop\n      jump\t// out\n        /* \"#utility.yul\":5131:5206   */\n    tag_246:\n        /* \"#utility.yul\":5164:5170   */\n      0x00\n        /* \"#utility.yul\":5197:5199   */\n      0x40\n        /* \"#utility.yul\":5191:5200   */\n      mload\n        /* \"#utility.yul\":5181:5200   */\n      swap1\n      pop\n        /* \"#utility.yul\":5131:5206   */\n      swap1\n      jump\t// out\n        /* \"#utility.yul\":5212:5520   */\n    tag_163:\n        /* \"#utility.yul\":5274:5278   */\n      0x00\n        /* \"#utility.yul\":5364:5382   */\n      0xffffffffffffffff\n        /* \"#utility.yul\":5356:5362   */\n      dup3\n        /* \"#utility.yul\":5353:5383   */\n      gt\n        /* \"#utility.yul\":5350:5406   */\n      iszero\n      tag_251\n      jumpi\n        /* \"#utility.yul\":5386:5404   */\n      tag_252\n      tag_253\n      jump\t// in\n    tag_252:\n        /* \"#utility.yul\":5350:5406   */\n    tag_251:\n        /* \"#utility.yul\":5424:5453   */\n      tag_254\n        /* \"#utility.yul\":5446:5452   */\n      dup3\n        /* \"#utility.yul\":5424:5453   */\n      tag_227\n      jump\t// in\n    tag_254:\n        /* \"#utility.yul\":5416:5453   */\n      swap1\n      pop\n        /* \"#utility.yul\":5508:5512   */\n      0x20\n        /* \"#utility.yul\":5502:5506   */\n      dup2\n        /* \"#utility.yul\":5498:5513   */\n      add\n        /* \"#utility.yul\":5490:5513   */\n      swap1\n      pop\n        /* \"#utility.yul\":5212:5520   */\n      swap2\n      swap1\n      pop\n      jump\t// out\n        /* \"#utility.yul\":5526:5625   */\n    tag_221:\n        /* \"#utility.yul\":5578:5584   */\n      0x00\n        /* \"#utility.yul\":5612:5617   */\n      dup2\n        /* \"#utility.yul\":5606:5618   */\n      mload\n        /* \"#utility.yul\":5596:5618   */\n      swap1\n      pop\n        /* \"#utility.yul\":5526:5625   */\n      swap2\n      swap1\n      pop\n      jump\t// out\n        /* \"#utility.yul\":5631:5800   */\n    tag_223:\n        /* \"#utility.yul\":5715:5726   */\n      0x00\n        /* \"#utility.yul\":5749:5755   */\n      dup3\n        /* \"#utility.yul\":5744:5747   */\n      dup3\n        /* \"#utility.yul\":5737:5756   */\n      mstore\n        /* \"#utility.yul\":5789:5793   */\n      0x20\n        /* \"#utility.yul\":5784:5787   */\n      dup3\n        /* \"#utility.yul\":5780:5794   */\n      add\n        /* \"#utility.yul\":5765:5794   */\n      swap1\n      pop\n        /* \"#utility.yul\":5631:5800   */\n      swap3\n      swap2\n      pop\n      pop\n      jump\t// out\n        /* \"#utility.yul\":5806:6331   */\n    tag_48:\n        /* \"#utility.yul\":5845:5848   */\n      0x00\n        /* \"#utility.yul\":5864:5883   */\n      tag_258\n        /* \"#utility.yul\":5881:5882   */\n      dup3\n        /* \"#utility.yul\":5864:5883   */\n      tag_217\n      jump\t// in\n    tag_258:\n        /* \"#utility.yul\":5859:5883   */\n      swap2\n      pop\n        /* \"#utility.yul\":5897:5916   */\n      tag_259\n        /* \"#utility.yul\":5914:5915   */\n      dup4\n        /* \"#utility.yul\":5897:5916   */\n      tag_217\n      jump\t// in\n    tag_259:\n        /* \"#utility.yul\":5892:5916   */\n      swap3\n      pop\n        /* \"#utility.yul\":6085:6086   */\n      dup2\n        /* \"#utility.yul\":6017:6083   */\n      0x7fffffffffffffffffffffffffffffffffffffffffffffffffffffffffffffff\n        /* \"#utility.yul\":6013:6087   */\n      sub\n        /* \"#utility.yul\":6010:6011   */\n      dup4\n        /* \"#utility.yul\":6006:6088   */\n      sgt\n        /* \"#utility.yul\":6001:6002   */\n      0x00\n        /* \"#utility.yul\":5998:5999   */\n      dup4\n        /* \"#utility.yul\":5994:6003   */\n      slt\n        /* \"#utility.yul\":5987:6004   */\n      iszero\n        /* \"#utility.yul\":5983:6089   */\n      and\n        /* \"#utility.yul\":5980:6112   */\n      iszero\n      tag_260\n      jumpi\n        /* \"#utility.yul\":6092:6110   */\n      tag_261\n      tag_262\n      jump\t// in\n    tag_261:\n        /* \"#utility.yul\":5980:6112   */\n    tag_260:\n        /* \"#utility.yul\":6272:6273   */\n      dup2\n        /* \"#utility.yul\":6204:6270   */\n      0x8000000000000000000000000000000000000000000000000000000000000000\n        /* \"#utility.yul\":6200:6274   */\n      sub\n        /* \"#utility.yul\":6197:6198   */\n      dup4\n        /* \"#utility.yul\":6193:6275   */\n      slt\n        /* \"#utility.yul\":6189:6190   */\n      0x00\n        /* \"#utility.yul\":6186:6187   */\n      dup4\n        /* \"#utility.yul\":6182:6191   */\n      slt\n        /* \"#utility.yul\":6178:6276   */\n      and\n        /* \"#utility.yul\":6175:6299   */\n      iszero\n      tag_263\n      jumpi\n        /* \"#utility.yul\":6279:6297   */\n      tag_264\n      tag_262\n      jump\t// in\n    tag_264:\n        /* \"#utility.yul\":6175:6299   */\n    tag_263:\n        /* \"#utility.yul\":6323:6324   */\n      dup3\n        /* \"#utility.yul\":6320:6321   */\n      dup3\n        /* \"#utility.yul\":6316:6325   */\n      add\n        /* \"#utility.yul\":6309:6325   */\n      swap1\n      pop\n        /* \"#utility.yul\":5806:6331   */\n      swap3\n      swap2\n      pop\n      pop\n      jump\t// out\n        /* \"#utility.yul\":6337:6722   */\n    tag_93:\n        /* \"#utility.yul\":6376:6377   */\n      0x00\n        /* \"#utility.yul\":6393:6412   */\n      tag_266\n        /* \"#utility.yul\":6410:6411   */\n      dup3\n        /* \"#utility.yul\":6393:6412   */\n      tag_217\n      jump\t// in\n    tag_266:\n        /* \"#utility.yul\":6388:6412   */\n      swap2\n      pop\n        /* \"#utility.yul\":6426:6445   */\n      tag_267\n        /* \"#utility.yul\":6443:6444   */\n      dup4\n        /* \"#utility.yul\":6426:6445   */\n      tag_217\n      jump\t// in\n    tag_267:\n        /* \"#utility.yul\":6421:6445   */\n      swap3\n      pop\n        /* \"#utility.yul\":6464:6465   */\n      dup3\n        /* \"#utility.yul\":6454:6489   */\n      tag_268\n      jumpi\n        /* \"#utility.yul\":6469:6487   */\n      tag_269\n      tag_270\n      jump\t// in\n    tag_269:\n        /* \"#utility.yul\":6454:6489   */\n    tag_268:\n        /* \"#utility.yul\":6655:6656   */\n      0x01\n        /* \"#utility.yul\":6652:6653   */\n      0x00\n        /* \"#utility.yul\":6648:6657   */\n      sub\n        /* \"#utility.yul\":6645:6646   */\n      dup4\n        /* \"#utility.yul\":6642:6658   */\n      eq\n        /* \"#utility.yul\":6561:6627   */\n      0x8000000000000000000000000000000000000000000000000000000000000000\n        /* \"#utility.yul\":6558:6559   */\n      dup4\n        /* \"#utility.yul\":6555:6628   */\n      eq\n        /* \"#utility.yul\":6538:6668   */\n      and\n        /* \"#utility.yul\":6535:6691   */\n      iszero\n      tag_271\n      jumpi\n        /* \"#utility.yul\":6671:6689   */\n      tag_272\n      tag_262\n      jump\t// in\n    tag_272:\n        /* \"#utility.yul\":6535:6691   */\n    tag_271:\n        /* \"#utility.yul\":6714:6715   */\n      dup3\n        /* \"#utility.yul\":6711:6712   */\n      dup3\n        /* \"#utility.yul\":6706:6716   */\n      sdiv\n        /* \"#utility.yul\":6701:6716   */\n      swap1\n      pop\n        /* \"#utility.yul\":6337:6722   */\n      swap3\n      swap2\n      pop\n      pop\n      jump\t// out\n        /* \"#utility.yul\":6728:7719   */\n    tag_87:\n        /* \"#utility.yul\":6767:6774   */\n      0x00\n        /* \"#utility.yul\":6790:6809   */\n      tag_274\n        /* \"#utility.yul\":6807:6808   */\n      dup3\n        /* \"#utility.yul\":6790:6809   */\n      tag_217\n      jump\t// in\n    tag_274:\n        /* \"#utility.yul\":6785:6809   */\n      swap2\n      pop\n        /* \"#utility.yul\":6823:6842   */\n      tag_275\n        /* \"#utility.yul\":6840:6841   */\n      dup4\n        /* \"#utility.yul\":6823:6842   */\n      tag_217\n      jump\t// in\n    tag_275:\n        /* \"#utility.yul\":6818:6842   */\n      swap3\n      pop\n        /* \"#utility.yul\":7024:7025   */\n      dup3\n        /* \"#utility.yul\":6956:7022   */\n      0x7fffffffffffffffffffffffffffffffffffffffffffffffffffffffffffffff\n        /* \"#utility.yul\":6952:7026   */\n      div\n        /* \"#utility.yul\":6949:6950   */\n      dup3\n        /* \"#utility.yul\":6946:7027   */\n      gt\n        /* \"#utility.yul\":6941:6942   */\n      0x00\n        /* \"#utility.yul\":6938:6939   */\n      dup5\n        /* \"#utility.yul\":6934:6943   */\n      sgt\n        /* \"#utility.yul\":6930:6931   */\n      0x00\n        /* \"#utility.yul\":6927:6928   */\n      dup5\n        /* \"#utility.yul\":6923:6932   */\n      sgt\n        /* \"#utility.yul\":6919:6944   */\n      and\n        /* \"#utility.yul\":6915:7028   */\n      and\n        /* \"#utility.yul\":6912:7051   */\n      iszero\n      tag_276\n      jumpi\n        /* \"#utility.yul\":7031:7049   */\n      tag_277\n      tag_262\n      jump\t// in\n    tag_277:\n        /* \"#utility.yul\":6912:7051   */\n    tag_276:\n        /* \"#utility.yul\":7235:7236   */\n      dup2\n        /* \"#utility.yul\":7167:7233   */\n      0x8000000000000000000000000000000000000000000000000000000000000000\n        /* \"#utility.yul\":7162:7237   */\n      sdiv\n        /* \"#utility.yul\":7159:7160   */\n      dup4\n        /* \"#utility.yul\":7155:7238   */\n      slt\n        /* \"#utility.yul\":7150:7151   */\n      0x00\n        /* \"#utility.yul\":7147:7148   */\n      dup5\n        /* \"#utility.yul\":7143:7152   */\n      slt\n        /* \"#utility.yul\":7139:7140   */\n      0x00\n        /* \"#utility.yul\":7136:7137   */\n      dup5\n        /* \"#utility.yul\":7132:7141   */\n      sgt\n        /* \"#utility.yul\":7128:7153   */\n      and\n        /* \"#utility.yul\":7124:7239   */\n      and\n        /* \"#utility.yul\":7121:7262   */\n      iszero\n      tag_278\n      jumpi\n        /* \"#utility.yul\":7242:7260   */\n      tag_279\n      tag_262\n      jump\t// in\n    tag_279:\n        /* \"#utility.yul\":7121:7262   */\n    tag_278:\n        /* \"#utility.yul\":7446:7447   */\n      dup3\n        /* \"#utility.yul\":7378:7444   */\n      0x8000000000000000000000000000000000000000000000000000000000000000\n        /* \"#utility.yul\":7373:7448   */\n      sdiv\n        /* \"#utility.yul\":7370:7371   */\n      dup3\n        /* \"#utility.yul\":7366:7449   */\n      slt\n        /* \"#utility.yul\":7361:7362   */\n      0x00\n        /* \"#utility.yul\":7358:7359   */\n      dup5\n        /* \"#utility.yul\":7354:7363   */\n      sgt\n        /* \"#utility.yul\":7350:7351   */\n      0x00\n        /* \"#utility.yul\":7347:7348   */\n      dup5\n        /* \"#utility.yul\":7343:7352   */\n      slt\n        /* \"#utility.yul\":7339:7364   */\n      and\n        /* \"#utility.yul\":7335:7450   */\n      and\n        /* \"#utility.yul\":7332:7473   */\n      iszero\n      tag_280\n      jumpi\n        /* \"#utility.yul\":7453:7471   */\n      tag_281\n      tag_262\n      jump\t// in\n    tag_281:\n        /* \"#utility.yul\":7332:7473   */\n    tag_280:\n        /* \"#utility.yul\":7656:7657   */\n      dup3\n        /* \"#utility.yul\":7588:7654   */\n      0x7fffffffffffffffffffffffffffffffffffffffffffffffffffffffffffffff\n        /* \"#utility.yul\":7583:7658   */\n      sdiv\n        /* \"#utility.yul\":7580:7581   */\n      dup3\n        /* \"#utility.yul\":7576:7659   */\n      slt\n        /* \"#utility.yul\":7571:7572   */\n      0x00\n        /* \"#utility.yul\":7568:7569   */\n      dup5\n        /* \"#utility.yul\":7564:7573   */\n      slt\n        /* \"#utility.yul\":7560:7561   */\n      0x00\n        /* \"#utility.yul\":7557:7558   */\n      dup5\n        /* \"#utility.yul\":7553:7562   */\n      slt\n        /* \"#utility.yul\":7549:7574   */\n      and\n        /* \"#utility.yul\":7545:7660   */\n      and\n        /* \"#utility.yul\":7542:7683   */\n      iszero\n      tag_282\n      jumpi\n        /* \"#utility.yul\":7663:7681   */\n      tag_283\n      tag_262\n      jump\t// in\n    tag_283:\n        /* \"#utility.yul\":7542:7683   */\n    tag_282:\n        /* \"#utility.yul\":7711:7712   */\n      dup3\n        /* \"#utility.yul\":7708:7709   */\n      dup3\n        /* \"#utility.yul\":7704:7713   */\n      mul\n        /* \"#utility.yul\":7693:7713   */\n      swap1\n      pop\n        /* \"#utility.yul\":6728:7719   */\n      swap3\n      swap2\n      pop\n      pop\n      jump\t// out\n        /* \"#utility.yul\":7725:8252   */\n    tag_84:\n        /* \"#utility.yul\":7764:7768   */\n      0x00\n        /* \"#utility.yul\":7784:7803   */\n      tag_285\n        /* \"#utility.yul\":7801:7802   */\n      dup3\n        /* \"#utility.yul\":7784:7803   */\n      tag_217\n      jump\t// in\n    tag_285:\n        /* \"#utility.yul\":7779:7803   */\n      swap2\n      pop\n        /* \"#utility.yul\":7817:7836   */\n      tag_286\n        /* \"#utility.yul\":7834:7835   */\n      dup4\n        /* \"#utility.yul\":7817:7836   */\n      tag_217\n      jump\t// in\n    tag_286:\n        /* \"#utility.yul\":7812:7836   */\n      swap3\n      pop\n        /* \"#utility.yul\":8006:8007   */\n      dup3\n        /* \"#utility.yul\":7938:8004   */\n      0x8000000000000000000000000000000000000000000000000000000000000000\n        /* \"#utility.yul\":7934:8008   */\n      add\n        /* \"#utility.yul\":7931:7932   */\n      dup3\n        /* \"#utility.yul\":7927:8009   */\n      slt\n        /* \"#utility.yul\":7922:7923   */\n      0x00\n        /* \"#utility.yul\":7919:7920   */\n      dup5\n        /* \"#utility.yul\":7915:7924   */\n      slt\n        /* \"#utility.yul\":7908:7925   */\n      iszero\n        /* \"#utility.yul\":7904:8010   */\n      and\n        /* \"#utility.yul\":7901:8033   */\n      iszero\n      tag_287\n      jumpi\n        /* \"#utility.yul\":8013:8031   */\n      tag_288\n      tag_262\n      jump\t// in\n    tag_288:\n        /* \"#utility.yul\":7901:8033   */\n    tag_287:\n        /* \"#utility.yul\":8192:8193   */\n      dup3\n        /* \"#utility.yul\":8124:8190   */\n      0x7fffffffffffffffffffffffffffffffffffffffffffffffffffffffffffffff\n        /* \"#utility.yul\":8120:8194   */\n      add\n        /* \"#utility.yul\":8117:8118   */\n      dup3\n        /* \"#utility.yul\":8113:8195   */\n      sgt\n        /* \"#utility.yul\":8109:8110   */\n      0x00\n        /* \"#utility.yul\":8106:8107   */\n      dup5\n        /* \"#utility.yul\":8102:8111   */\n      slt\n        /* \"#utility.yul\":8098:8196   */\n      and\n        /* \"#utility.yul\":8095:8219   */\n      iszero\n      tag_289\n      jumpi\n        /* \"#utility.yul\":8199:8217   */\n      tag_290\n      tag_262\n      jump\t// in\n    tag_290:\n        /* \"#utility.yul\":8095:8219   */\n    tag_289:\n        /* \"#utility.yul\":8244:8245   */\n      dup3\n        /* \"#utility.yul\":8241:8242   */\n      dup3\n        /* \"#utility.yul\":8237:8246   */\n      sub\n        /* \"#utility.yul\":8229:8246   */\n      swap1\n      pop\n        /* \"#utility.yul\":7725:8252   */\n      swap3\n      swap2\n      pop\n      pop\n      jump\t// out\n        /* \"#utility.yul\":8258:8354   */\n    tag_208:\n        /* \"#utility.yul\":8295:8302   */\n      0x00\n        /* \"#utility.yul\":8324:8348   */\n      tag_292\n        /* \"#utility.yul\":8342:8347   */\n      dup3\n        /* \"#utility.yul\":8324:8348   */\n      tag_293\n      jump\t// in\n    tag_292:\n        /* \"#utility.yul\":8313:8348   */\n      swap1\n      pop\n        /* \"#utility.yul\":8258:8354   */\n      swap2\n      swap1\n      pop\n      jump\t// out\n        /* \"#utility.yul\":8360:8436   */\n    tag_217:\n        /* \"#utility.yul\":8396:8403   */\n      0x00\n        /* \"#utility.yul\":8425:8430   */\n      dup2\n        /* \"#utility.yul\":8414:8430   */\n      swap1\n      pop\n        /* \"#utility.yul\":8360:8436   */\n      swap2\n      swap1\n      pop\n      jump\t// out\n        /* \"#utility.yul\":8442:8568   */\n    tag_293:\n        /* \"#utility.yul\":8479:8486   */\n      0x00\n        /* \"#utility.yul\":8519:8561   */\n      0xffffffffffffffffffffffffffffffffffffffff\n        /* \"#utility.yul\":8512:8517   */\n      dup3\n        /* \"#utility.yul\":8508:8562   */\n      and\n        /* \"#utility.yul\":8497:8562   */\n      swap1\n      pop\n        /* \"#utility.yul\":8442:8568   */\n      swap2\n      swap1\n      pop\n      jump\t// out\n        /* \"#utility.yul\":8574:8651   */\n    tag_232:\n        /* \"#utility.yul\":8611:8618   */\n      0x00\n        /* \"#utility.yul\":8640:8645   */\n      dup2\n        /* \"#utility.yul\":8629:8645   */\n      swap1\n      pop\n        /* \"#utility.yul\":8574:8651   */\n      swap2\n      swap1\n      pop\n      jump\t// out\n        /* \"#utility.yul\":8657:8811   */\n    tag_169:\n        /* \"#utility.yul\":8741:8747   */\n      dup3\n        /* \"#utility.yul\":8736:8739   */\n      dup2\n        /* \"#utility.yul\":8731:8734   */\n      dup4\n        /* \"#utility.yul\":8718:8748   */\n      calldatacopy\n        /* \"#utility.yul\":8803:8804   */\n      0x00\n        /* \"#utility.yul\":8794:8800   */\n      dup4\n        /* \"#utility.yul\":8789:8792   */\n      dup4\n        /* \"#utility.yul\":8785:8801   */\n      add\n        /* \"#utility.yul\":8778:8805   */\n      mstore\n        /* \"#utility.yul\":8657:8811   */\n      pop\n      pop\n      pop\n      jump\t// out\n        /* \"#utility.yul\":8817:9124   */\n    tag_225:\n        /* \"#utility.yul\":8885:8886   */\n      0x00\n        /* \"#utility.yul\":8895:9008   */\n    tag_299:\n        /* \"#utility.yul\":8909:8915   */\n      dup4\n        /* \"#utility.yul\":8906:8907   */\n      dup2\n        /* \"#utility.yul\":8903:8916   */\n      lt\n        /* \"#utility.yul\":8895:9008   */\n      iszero\n      tag_301\n      jumpi\n        /* \"#utility.yul\":8994:8995   */\n      dup1\n        /* \"#utility.yul\":8989:8992   */\n      dup3\n        /* \"#utility.yul\":8985:8996   */\n      add\n        /* \"#utility.yul\":8979:8997   */\n      mload\n        /* \"#utility.yul\":8975:8976   */\n      dup2\n        /* \"#utility.yul\":8970:8973   */\n      dup5\n        /* \"#utility.yul\":8966:8977   */\n      add\n        /* \"#utility.yul\":8959:8998   */\n      mstore\n        /* \"#utility.yul\":8931:8933   */\n      0x20\n        /* \"#utility.yul\":8928:8929   */\n      dup2\n        /* \"#utility.yul\":8924:8934   */\n      add\n        /* \"#utility.yul\":8919:8934   */\n      swap1\n      pop\n        /* \"#utility.yul\":8895:9008   */\n      jump(tag_299)\n    tag_301:\n        /* \"#utility.yul\":9026:9032   */\n      dup4\n        /* \"#utility.yul\":9023:9024   */\n      dup2\n        /* \"#utility.yul\":9020:9033   */\n      gt\n        /* \"#utility.yul\":9017:9118   */\n      iszero\n      tag_302\n      jumpi\n        /* \"#utility.yul\":9106:9107   */\n      0x00\n        /* \"#utility.yul\":9097:9103   */\n      dup5\n        /* \"#utility.yul\":9092:9095   */\n      dup5\n        /* \"#utility.yul\":9088:9104   */\n      add\n        /* \"#utility.yul\":9081:9108   */\n      mstore\n        /* \"#utility.yul\":9017:9118   */\n    tag_302:\n        /* \"#utility.yul\":8866:9124   */\n      pop\n        /* \"#utility.yul\":8817:9124   */\n      pop\n      pop\n      pop\n      jump\t// out\n        /* \"#utility.yul\":9130:9450   */\n    tag_38:\n        /* \"#utility.yul\":9174:9180   */\n      0x00\n        /* \"#utility.yul\":9211:9212   */\n      0x02\n        /* \"#utility.yul\":9205:9209   */\n      dup3\n        /* \"#utility.yul\":9201:9213   */\n      div\n        /* \"#utility.yul\":9191:9213   */\n      swap1\n      pop\n        /* \"#utility.yul\":9258:9259   */\n      0x01\n        /* \"#utility.yul\":9252:9256   */\n      dup3\n        /* \"#utility.yul\":9248:9260   */\n      and\n        /* \"#utility.yul\":9279:9297   */\n      dup1\n        /* \"#utility.yul\":9269:9350   */\n      tag_304\n      jumpi\n        /* \"#utility.yul\":9335:9339   */\n      0x7f\n        /* \"#utility.yul\":9327:9333   */\n      dup3\n        /* \"#utility.yul\":9323:9340   */\n      and\n        /* \"#utility.yul\":9313:9340   */\n      swap2\n      pop\n        /* \"#utility.yul\":9269:9350   */\n    tag_304:\n        /* \"#utility.yul\":9397:9399   */\n      0x20\n        /* \"#utility.yul\":9389:9395   */\n      dup3\n        /* \"#utility.yul\":9386:9400   */\n      lt\n        /* \"#utility.yul\":9366:9384   */\n      dup2\n        /* \"#utility.yul\":9363:9401   */\n      eq\n        /* \"#utility.yul\":9360:9444   */\n      iszero\n      tag_305\n      jumpi\n        /* \"#utility.yul\":9416:9434   */\n      tag_306\n      tag_307\n      jump\t// in\n    tag_306:\n        /* \"#utility.yul\":9360:9444   */\n    tag_305:\n        /* \"#utility.yul\":9181:9450   */\n      pop\n        /* \"#utility.yul\":9130:9450   */\n      swap2\n      swap1\n      pop\n      jump\t// out\n        /* \"#utility.yul\":9456:9737   */\n    tag_248:\n        /* \"#utility.yul\":9539:9566   */\n      tag_309\n        /* \"#utility.yul\":9561:9565   */\n      dup3\n        /* \"#utility.yul\":9539:9566   */\n      tag_227\n      jump\t// in\n    tag_309:\n        /* \"#utility.yul\":9531:9537   */\n      dup2\n        /* \"#utility.yul\":9527:9567   */\n      add\n        /* \"#utility.yul\":9669:9675   */\n      dup2\n        /* \"#utility.yul\":9657:9667   */\n      dup2\n        /* \"#utility.yul\":9654:9676   */\n      lt\n        /* \"#utility.yul\":9633:9651   */\n      0xffffffffffffffff\n        /* \"#utility.yul\":9621:9631   */\n      dup3\n        /* \"#utility.yul\":9618:9652   */\n      gt\n        /* \"#utility.yul\":9615:9677   */\n      or\n        /* \"#utility.yul\":9612:9700   */\n      iszero\n      tag_310\n      jumpi\n        /* \"#utility.yul\":9680:9698   */\n      tag_311\n      tag_253\n      jump\t// in\n    tag_311:\n        /* \"#utility.yul\":9612:9700   */\n    tag_310:\n        /* \"#utility.yul\":9720:9730   */\n      dup1\n        /* \"#utility.yul\":9716:9718   */\n      0x40\n        /* \"#utility.yul\":9709:9731   */\n      mstore\n        /* \"#utility.yul\":9499:9737   */\n      pop\n        /* \"#utility.yul\":9456:9737   */\n      pop\n      pop\n      jump\t// out\n        /* \"#utility.yul\":9743:9976   */\n    tag_147:\n        /* \"#utility.yul\":9782:9785   */\n      0x00\n        /* \"#utility.yul\":9805:9829   */\n      tag_313\n        /* \"#utility.yul\":9823:9828   */\n      dup3\n        /* \"#utility.yul\":9805:9829   */\n      tag_232\n      jump\t// in\n    tag_313:\n        /* \"#utility.yul\":9796:9829   */\n      swap2\n      pop\n        /* \"#utility.yul\":9851:9917   */\n      0xffffffffffffffffffffffffffffffffffffffffffffffffffffffffffffffff\n        /* \"#utility.yul\":9844:9849   */\n      dup3\n        /* \"#utility.yul\":9841:9918   */\n      eq\n        /* \"#utility.yul\":9838:9941   */\n      iszero\n      tag_314\n      jumpi\n        /* \"#utility.yul\":9921:9939   */\n      tag_315\n      tag_262\n      jump\t// in\n    tag_315:\n        /* \"#utility.yul\":9838:9941   */\n    tag_314:\n        /* \"#utility.yul\":9968:9969   */\n      0x01\n        /* \"#utility.yul\":9961:9966   */\n      dup3\n        /* \"#utility.yul\":9957:9970   */\n      add\n        /* \"#utility.yul\":9950:9970   */\n      swap1\n      pop\n        /* \"#utility.yul\":9743:9976   */\n      swap2\n      swap1\n      pop\n      jump\t// out\n        /* \"#utility.yul\":9982:10082   */\n    tag_213:\n        /* \"#utility.yul\":10021:10028   */\n      0x00\n        /* \"#utility.yul\":10050:10076   */\n      tag_317\n        /* \"#utility.yul\":10070:10075   */\n      dup3\n        /* \"#utility.yul\":10050:10076   */\n      tag_318\n      jump\t// in\n    tag_317:\n        /* \"#utility.yul\":10039:10076   */\n      swap1\n      pop\n        /* \"#utility.yul\":9982:10082   */\n      swap2\n      swap1\n      pop\n      jump\t// out\n        /* \"#utility.yul\":10088:10182   */\n    tag_318:\n        /* \"#utility.yul\":10127:10134   */\n      0x00\n        /* \"#utility.yul\":10156:10176   */\n      tag_320\n        /* \"#utility.yul\":10170:10175   */\n      dup3\n        /* \"#utility.yul\":10156:10176   */\n      tag_321\n      jump\t// in\n    tag_320:\n        /* \"#utility.yul\":10145:10176   */\n      swap1\n      pop\n        /* \"#utility.yul\":10088:10182   */\n      swap2\n      swap1\n      pop\n      jump\t// out\n        /* \"#utility.yul\":10188:10267   */\n    tag_233:\n        /* \"#utility.yul\":10227:10234   */\n      0x00\n        /* \"#utility.yul\":10256:10261   */\n      dup2\n        /* \"#utility.yul\":10245:10261   */\n      swap1\n      pop\n        /* \"#utility.yul\":10188:10267   */\n      swap2\n      swap1\n      pop\n      jump\t// out\n        /* \"#utility.yul\":10273:10449   */\n    tag_130:\n        /* \"#utility.yul\":10305:10306   */\n      0x00\n        /* \"#utility.yul\":10322:10342   */\n      tag_324\n        /* \"#utility.yul\":10340:10341   */\n      dup3\n        /* \"#utility.yul\":10322:10342   */\n      tag_232\n      jump\t// in\n    tag_324:\n        /* \"#utility.yul\":10317:10342   */\n      swap2\n      pop\n        /* \"#utility.yul\":10356:10376   */\n      tag_325\n        /* \"#utility.yul\":10374:10375   */\n      dup4\n        /* \"#utility.yul\":10356:10376   */\n      tag_232\n      jump\t// in\n    tag_325:\n        /* \"#utility.yul\":10351:10376   */\n      swap3\n      pop\n        /* \"#utility.yul\":10395:10396   */\n      dup3\n        /* \"#utility.yul\":10385:10420   */\n      tag_326\n      jumpi\n        /* \"#utility.yul\":10400:10418   */\n      tag_327\n      tag_270\n      jump\t// in\n    tag_327:\n        /* \"#utility.yul\":10385:10420   */\n    tag_326:\n        /* \"#utility.yul\":10441:10442   */\n      dup3\n        /* \"#utility.yul\":10438:10439   */\n      dup3\n        /* \"#utility.yul\":10434:10443   */\n      mod\n        /* \"#utility.yul\":10429:10443   */\n      swap1\n      pop\n        /* \"#utility.yul\":10273:10449   */\n      swap3\n      swap2\n      pop\n      pop\n      jump\t// out\n        /* \"#utility.yul\":10455:10635   */\n    tag_262:\n        /* \"#utility.yul\":10503:10580   */\n      0x4e487b7100000000000000000000000000000000000000000000000000000000\n        /* \"#utility.yul\":10500:10501   */\n      0x00\n        /* \"#utility.yul\":10493:10581   */\n      mstore\n        /* \"#utility.yul\":10600:10604   */\n      0x11\n        /* \"#utility.yul\":10597:10598   */\n      0x04\n        /* \"#utility.yul\":10590:10605   */\n      mstore\n        /* \"#utility.yul\":10624:10628   */\n      0x24\n        /* \"#utility.yul\":10621:10622   */\n      0x00\n        /* \"#utility.yul\":10614:10629   */\n      revert\n        /* \"#utility.yul\":10641:10821   */\n    tag_270:\n        /* \"#utility.yul\":10689:10766   */\n      0x4e487b7100000000000000000000000000000000000000000000000000000000\n        /* \"#utility.yul\":10686:10687   */\n      0x00\n        /* \"#utility.yul\":10679:10767   */\n      mstore\n        /* \"#utility.yul\":10786:10790   */\n      0x12\n        /* \"#utility.yul\":10783:10784   */\n      0x04\n        /* \"#utility.yul\":10776:10791   */\n      mstore\n        /* \"#utility.yul\":10810:10814   */\n      0x24\n        /* \"#utility.yul\":10807:10808   */\n      0x00\n        /* \"#utility.yul\":10800:10815   */\n      revert\n        /* \"#utility.yul\":10827:11007   */\n    tag_307:\n        /* \"#utility.yul\":10875:10952   */\n      0x4e487b7100000000000000000000000000000000000000000000000000000000\n        /* \"#utility.yul\":10872:10873   */\n      0x00\n        /* \"#utility.yul\":10865:10953   */\n      mstore\n        /* \"#utility.yul\":10972:10976   */\n      0x22\n        /* \"#utility.yul\":10969:10970   */\n      0x04\n        /* \"#utility.yul\":10962:10977   */\n      mstore\n        /* \"#utility.yul\":10996:11000   */\n      0x24\n        /* \"#utility.yul\":10993:10994   */\n      0x00\n        /* \"#utility.yul\":10986:11001   */\n      revert\n        /* \"#utility.yul\":11013:11193   */\n    tag_51:\n        /* \"#utility.yul\":11061:11138   */\n      0x4e487b7100000000000000000000000000000000000000000000000000000000\n        /* \"#utility.yul\":11058:11059   */\n      0x00\n        /* \"#utility.yul\":11051:11139   */\n      mstore\n        /* \"#utility.yul\":11158:11162   */\n      0x32\n        /* \"#utility.yul\":11155:11156   */\n      0x04\n        /* \"#utility.yul\":11148:11163   */\n      mstore\n        /* \"#utility.yul\":11182:11186   */\n      0x24\n        /* \"#utility.yul\":11179:11180   */\n      0x00\n        /* \"#utility.yul\":11172:11187   */\n      revert\n        /* \"#utility.yul\":11199:11379   */\n    tag_253:\n        /* \"#utility.yul\":11247:11324   */\n      0x4e487b7100000000000000000000000000000000000000000000000000000000\n        /* \"#utility.yul\":11244:11245   */\n      0x00\n        /* \"#utility.yul\":11237:11325   */\n      mstore\n        /* \"#utility.yul\":11344:11348   */\n      0x41\n        /* \"#utility.yul\":11341:11342   */\n      0x04\n        /* \"#utility.yul\":11334:11349   */\n      mstore\n        /* \"#utility.yul\":11368:11372   */\n      0x24\n        /* \"#utility.yul\":11365:11366   */\n      0x00\n        /* \"#utility.yul\":11358:11373   */\n      revert\n        /* \"#utility.yul\":11385:11502   */\n    tag_178:\n        /* \"#utility.yul\":11494:11495   */\n      0x00\n        /* \"#utility.yul\":11491:11492   */\n      dup1\n        /* \"#utility.yul\":11484:11496   */\n      revert\n        /* \"#utility.yul\":11508:11625   */\n    tag_167:\n        /* \"#utility.yul\":11617:11618   */\n      0x00\n        /* \"#utility.yul\":11614:11615   */\n      dup1\n        /* \"#utility.yul\":11607:11619   */\n      revert\n        /* \"#utility.yul\":11631:11748   */\n    tag_199:\n        /* \"#utility.yul\":11740:11741   */\n      0x00\n        /* \"#utility.yul\":11737:11738   */\n      dup1\n        /* \"#utility.yul\":11730:11742   */\n      revert\n        /* \"#utility.yul\":11754:11871   */\n    tag_187:\n        /* \"#utility.yul\":11863:11864   */\n      0x00\n        /* \"#utility.yul\":11860:11861   */\n      dup1\n        /* \"#utility.yul\":11853:11865   */\n      revert\n        /* \"#utility.yul\":11877:11979   */\n    tag_227:\n        /* \"#utility.yul\":11918:11924   */\n      0x00\n        /* \"#utility.yul\":11969:11971   */\n      0x1f\n        /* \"#utility.yul\":11965:11972   */\n      not\n        /* \"#utility.yul\":11960:11962   */\n      0x1f\n        /* \"#utility.yul\":11953:11958   */\n      dup4\n        /* \"#utility.yul\":11949:11963   */\n      add\n        /* \"#utility.yul\":11945:11973   */\n      and\n        /* \"#utility.yul\":11935:11973   */\n      swap1\n      pop\n        /* \"#utility.yul\":11877:11979   */\n      swap2\n      swap1\n      pop\n      jump\t// out\n        /* \"#utility.yul\":11985:12079   */\n    tag_321:\n        /* \"#utility.yul\":12018:12026   */\n      0x00\n        /* \"#utility.yul\":12066:12071   */\n      dup2\n        /* \"#utility.yul\":12062:12064   */\n      0x60\n        /* \"#utility.yul\":12058:12072   */\n      shl\n        /* \"#utility.yul\":12037:12072   */\n      swap1\n      pop\n        /* \"#utility.yul\":11985:12079   */\n      swap2\n      swap1\n      pop\n      jump\t// out\n        /* \"#utility.yul\":12085:12207   */\n    tag_173:\n        /* \"#utility.yul\":12158:12182   */\n      tag_340\n        /* \"#utility.yul\":12176:12181   */\n      dup2\n        /* \"#utility.yul\":12158:12182   */\n      tag_208\n      jump\t// in\n    tag_340:\n        /* \"#utility.yul\":12151:12156   */\n      dup2\n        /* \"#utility.yul\":12148:12183   */\n      eq\n        /* \"#utility.yul\":12138:12201   */\n      tag_341\n      jumpi\n        /* \"#utility.yul\":12197:12198   */\n      0x00\n        /* \"#utility.yul\":12194:12195   */\n      dup1\n        /* \"#utility.yul\":12187:12199   */\n      revert\n        /* \"#utility.yul\":12138:12201   */\n    tag_341:\n        /* \"#utility.yul\":12085:12207   */\n      pop\n      jump\t// out\n        /* \"#utility.yul\":12213:12335   */\n    tag_183:\n        /* \"#utility.yul\":12286:12310   */\n      tag_343\n        /* \"#utility.yul\":12304:12309   */\n      dup2\n        /* \"#utility.yul\":12286:12310   */\n      tag_232\n      jump\t// in\n    tag_343:\n        /* \"#utility.yul\":12279:12284   */\n      dup2\n        /* \"#utility.yul\":12276:12311   */\n      eq\n        /* \"#utility.yul\":12266:12329   */\n      tag_344\n      jumpi\n        /* \"#utility.yul\":12325:12326   */\n      0x00\n        /* \"#utility.yul\":12322:12323   */\n      dup1\n        /* \"#utility.yul\":12315:12327   */\n      revert\n        /* \"#utility.yul\":12266:12329   */\n    tag_344:\n        /* \"#utility.yul\":12213:12335   */\n      pop\n      jump\t// out\n\n    auxdata: 0xa26469706673582212205d3da1487a1f2c4d69650aa1739772ef23a13cd2c53e8ae29d033eae5ecd421664736f6c63430008070033\n}\n",
				"bytecode": {
					"linkReferences": {},
					"object": "608060405260405180606001604052806040518060400160405280600681526020017f417474616368000000000000000000000000000000000000000000000000000081525081526020016040518060400160405280600781526020017f446566696e63650000000000000000000000000000000000000000000000000081525081526020016040518060400160405280600781526020017f42616c616e6365000000000000000000000000000000000000000000000000008152508152506004906003620000d092919062000125565b50348015620000de57600080fd5b50336000806101000a81548173ffffffffffffffffffffffffffffffffffffffff021916908373ffffffffffffffffffffffffffffffffffffffff1602179055506200030f565b82805482825590600052602060002090810192821562000179579160200282015b8281111562000178578251829080519060200190620001679291906200018c565b509160200191906001019062000146565b5b5090506200018891906200021d565b5090565b8280546200019a90620002aa565b90600052602060002090601f016020900481019282620001be57600085556200020a565b82601f10620001d957805160ff19168380011785556200020a565b828001600101855582156200020a579182015b8281111562000209578251825591602001919060010190620001ec565b5b50905062000219919062000245565b5090565b5b8082111562000241576000818162000237919062000264565b506001016200021e565b5090565b5b808211156200026057600081600090555060010162000246565b5090565b5080546200027290620002aa565b6000825580601f10620002865750620002a7565b601f016020900490600052602060002090810190620002a6919062000245565b5b50565b60006002820490506001821680620002c357607f821691505b60208210811415620002da57620002d9620002e0565b5b50919050565b7f4e487b7100000000000000000000000000000000000000000000000000000000600052602260045260246000fd5b6115e5806200031f6000396000f3fe608060405234801561001057600080fd5b50600436106100625760003560e01c806307546172146100675780635cf3d346146100855780636a786b07146100b5578063abf5f2ed146100d1578063bc346c9c14610101578063f71d96cb1461011d575b600080fd5b61006f61014d565b60405161007c9190610f5e565b60405180910390f35b61009f600480360381019061009a9190610db9565b610171565b6040516100ac9190610f94565b60405180910390f35b6100cf60048036038101906100ca9190610e26565b610211565b005b6100eb60048036038101906100e69190610de6565b6104b4565b6040516100f89190610f79565b60405180910390f35b61011b60048036038101906101169190610db9565b6104dc565b005b61013760048036038101906101329190610e6f565b610a6c565b6040516101449190610f5e565b60405180910390f35b60008054906101000a900473ffffffffffffffffffffffffffffffffffffffff1681565b6003602052806000526040600020600091509050805461019090611359565b80601f01602080910402602001604051908101604052809291908181526020018280546101bc90611359565b80156102095780601f106101de57610100808354040283529160200191610209565b820191906000526020600020905b8154815290600101906020018083116101ec57829003601f168201915b505050505081565b60011515600260003373ffffffffffffffffffffffffffffffffffffffff1673ffffffffffffffffffffffffffffffffffffffff16815260200190815260200160002060009054906101000a900460ff161515141561026f57600080fd5b6001600260003373ffffffffffffffffffffffffffffffffffffffff1673ffffffffffffffffffffffffffffffffffffffff16815260200190815260200160002060006101000a81548160ff0219169083151502179055506102d16005610aab565b60056102dd9190611028565b600160003373ffffffffffffffffffffffffffffffffffffffff1673ffffffffffffffffffffffffffffffffffffffff16815260200190815260200160002060006003811061032f5761032e6114f1565b5b018190555061033e6005610aab565b600561034a9190611028565b600160003373ffffffffffffffffffffffffffffffffffffffff1673ffffffffffffffffffffffffffffffffffffffff16815260200190815260200160002060016003811061039c5761039b6114f1565b5b01819055506064600160003373ffffffffffffffffffffffffffffffffffffffff1673ffffffffffffffffffffffffffffffffffffffff1681526020019081526020016000206002600381106103f5576103f46114f1565b5b018190555080600360003373ffffffffffffffffffffffffffffffffffffffff1673ffffffffffffffffffffffffffffffffffffffff168152602001908152602001600020908051906020019061044d929190610c7c565b506005339080600181540180825580915050600190039060005260206000200160009091909190916101000a81548173ffffffffffffffffffffffffffffffffffffffff021916908373ffffffffffffffffffffffffffffffffffffffff16021790555050565b600160205281600052604060002081600381106104d057600080fd5b01600091509150505481565b60011515600260008373ffffffffffffffffffffffffffffffffffffffff1673ffffffffffffffffffffffffffffffffffffffff16815260200190815260200160002060009054906101000a900460ff1615151461053957600080fd5b60011515600260003373ffffffffffffffffffffffffffffffffffffffff1673ffffffffffffffffffffffffffffffffffffffff16815260200190815260200160002060009054906101000a900460ff1615151461059657600080fd5b6000600160008373ffffffffffffffffffffffffffffffffffffffff1673ffffffffffffffffffffffffffffffffffffffff1681526020019081526020016000206002600381106105ea576105e96114f1565b5b0154136105f657600080fd5b6000600160003373ffffffffffffffffffffffffffffffffffffffff1673ffffffffffffffffffffffffffffffffffffffff16815260200190815260200160002060026003811061064a576106496114f1565b5b01541361065657600080fd5b6000600160008373ffffffffffffffffffffffffffffffffffffffff1673ffffffffffffffffffffffffffffffffffffffff1681526020019081526020016000206001600381106106aa576106a96114f1565b5b0154600160003373ffffffffffffffffffffffffffffffffffffffff1673ffffffffffffffffffffffffffffffffffffffff1681526020019081526020016000206000600381106106fe576106fd6114f1565b5b015461070a919061123d565b905060008113156108dc576002816107229190611126565b600160008473ffffffffffffffffffffffffffffffffffffffff1673ffffffffffffffffffffffffffffffffffffffff168152602001908152602001600020600260038110610774576107736114f1565b5b016000828254610784919061123d565b9250508190555060028161079891906110bc565b600160003373ffffffffffffffffffffffffffffffffffffffff1673ffffffffffffffffffffffffffffffffffffffff1681526020019081526020016000206002600381106107ea576107e96114f1565b5b0160008282546107fa919061123d565b92505081905550600a600160003373ffffffffffffffffffffffffffffffffffffffff1673ffffffffffffffffffffffffffffffffffffffff168152602001908152602001600020600060038110610855576108546114f1565b5b0160008282546108659190611028565b92505081905550600a600160008473ffffffffffffffffffffffffffffffffffffffff1673ffffffffffffffffffffffffffffffffffffffff1681526020019081526020016000206001600381106108c0576108bf6114f1565b5b0160008282546108d09190611028565b92505081905550610a56565b7fffffffffffffffffffffffffffffffffffffffffffffffffffffffffffffffff816109089190611126565b905060028161091791906110bc565b600160008473ffffffffffffffffffffffffffffffffffffffff1673ffffffffffffffffffffffffffffffffffffffff168152602001908152602001600020600260038110610969576109686114f1565b5b016000828254610979919061123d565b9250508190555080600160003373ffffffffffffffffffffffffffffffffffffffff1673ffffffffffffffffffffffffffffffffffffffff1681526020019081526020016000206002600381106109d3576109d26114f1565b5b0160008282546109e3919061123d565b925050819055506014600160008473ffffffffffffffffffffffffffffffffffffffff1673ffffffffffffffffffffffffffffffffffffffff168152602001908152602001600020600160038110610a3e57610a3d6114f1565b5b016000828254610a4e9190611028565b925050819055505b610a5f33610aed565b610a6882610aed565b5050565b60058181548110610a7c57600080fd5b906000526020600020016000915054906101000a900473ffffffffffffffffffffffffffffffffffffffff1681565b600081424433604051602001610ac393929190610f21565b6040516020818303038152906040528051906020012060001c610ae69190611433565b9050919050565b6000600160008373ffffffffffffffffffffffffffffffffffffffff1673ffffffffffffffffffffffffffffffffffffffff168152602001908152602001600020600260038110610b4157610b406114f1565b5b015413610c79576000600260008373ffffffffffffffffffffffffffffffffffffffff1673ffffffffffffffffffffffffffffffffffffffff16815260200190815260200160002060006101000a81548160ff02191690831515021790555060005b600580549050811015610c77578173ffffffffffffffffffffffffffffffffffffffff1660058281548110610bdb57610bda6114f1565b5b9060005260206000200160009054906101000a900473ffffffffffffffffffffffffffffffffffffffff1673ffffffffffffffffffffffffffffffffffffffff161415610c645760058181548110610c3657610c356114f1565b5b9060005260206000200160006101000a81549073ffffffffffffffffffffffffffffffffffffffff02191690555b8080610c6f906113bc565b915050610ba3565b505b50565b828054610c8890611359565b90600052602060002090601f016020900481019282610caa5760008555610cf1565b82601f10610cc357805160ff1916838001178555610cf1565b82800160010185558215610cf1579182015b82811115610cf0578251825591602001919060010190610cd5565b5b509050610cfe9190610d02565b5090565b5b80821115610d1b576000816000905550600101610d03565b5090565b6000610d32610d2d84610fdb565b610fb6565b905082815260208101848484011115610d4e57610d4d611554565b5b610d59848285611317565b509392505050565b600081359050610d7081611581565b92915050565b600082601f830112610d8b57610d8a61154f565b5b8135610d9b848260208601610d1f565b91505092915050565b600081359050610db381611598565b92915050565b600060208284031215610dcf57610dce61155e565b5b6000610ddd84828501610d61565b91505092915050565b60008060408385031215610dfd57610dfc61155e565b5b6000610e0b85828601610d61565b9250506020610e1c85828601610da4565b9150509250929050565b600060208284031215610e3c57610e3b61155e565b5b600082013567ffffffffffffffff811115610e5a57610e59611559565b5b610e6684828501610d76565b91505092915050565b600060208284031215610e8557610e8461155e565b5b6000610e9384828501610da4565b91505092915050565b610ea5816112d1565b82525050565b610ebc610eb7826112d1565b611405565b82525050565b610ecb816112e3565b82525050565b6000610edc8261100c565b610ee68185611017565b9350610ef6818560208601611326565b610eff81611563565b840191505092915050565b610f1b610f168261130d565b611429565b82525050565b6000610f2d8286610f0a565b602082019150610f3d8285610f0a565b602082019150610f4d8284610eab565b601482019150819050949350505050565b6000602082019050610f736000830184610e9c565b92915050565b6000602082019050610f8e6000830184610ec2565b92915050565b60006020820190508181036000830152610fae8184610ed1565b905092915050565b6000610fc0610fd1565b9050610fcc828261138b565b919050565b6000604051905090565b600067ffffffffffffffff821115610ff657610ff5611520565b5b610fff82611563565b9050602081019050919050565b600081519050919050565b600082825260208201905092915050565b6000611033826112e3565b915061103e836112e3565b9250817f7fffffffffffffffffffffffffffffffffffffffffffffffffffffffffffffff0383136000831215161561107957611078611464565b5b817f80000000000000000000000000000000000000000000000000000000000000000383126000831216156110b1576110b0611464565b5b828201905092915050565b60006110c7826112e3565b91506110d2836112e3565b9250826110e2576110e1611493565b5b600160000383147f80000000000000000000000000000000000000000000000000000000000000008314161561111b5761111a611464565b5b828205905092915050565b6000611131826112e3565b915061113c836112e3565b9250827f7fffffffffffffffffffffffffffffffffffffffffffffffffffffffffffffff048211600084136000841316161561117b5761117a611464565b5b817f800000000000000000000000000000000000000000000000000000000000000005831260008412600084131616156111b8576111b7611464565b5b827f800000000000000000000000000000000000000000000000000000000000000005821260008413600084121616156111f5576111f4611464565b5b827f7fffffffffffffffffffffffffffffffffffffffffffffffffffffffffffffff058212600084126000841216161561123257611231611464565b5b828202905092915050565b6000611248826112e3565b9150611253836112e3565b9250827f80000000000000000000000000000000000000000000000000000000000000000182126000841215161561128e5761128d611464565b5b827f7fffffffffffffffffffffffffffffffffffffffffffffffffffffffffffffff0182136000841216156112c6576112c5611464565b5b828203905092915050565b60006112dc826112ed565b9050919050565b6000819050919050565b600073ffffffffffffffffffffffffffffffffffffffff82169050919050565b6000819050919050565b82818337600083830152505050565b60005b83811015611344578082015181840152602081019050611329565b83811115611353576000848401525b50505050565b6000600282049050600182168061137157607f821691505b60208210811415611385576113846114c2565b5b50919050565b61139482611563565b810181811067ffffffffffffffff821117156113b3576113b2611520565b5b80604052505050565b60006113c78261130d565b91507fffffffffffffffffffffffffffffffffffffffffffffffffffffffffffffffff8214156113fa576113f9611464565b5b600182019050919050565b600061141082611417565b9050919050565b600061142282611574565b9050919050565b6000819050919050565b600061143e8261130d565b91506114498361130d565b92508261145957611458611493565b5b828206905092915050565b7f4e487b7100000000000000000000000000000000000000000000000000000000600052601160045260246000fd5b7f4e487b7100000000000000000000000000000000000000000000000000000000600052601260045260246000fd5b7f4e487b7100000000000000000000000000000000000000000000000000000000600052602260045260246000fd5b7f4e487b7100000000000000000000000000000000000000000000000000000000600052603260045260246000fd5b7f4e487b7100000000000000000000000000000000000000000000000000000000600052604160045260246000fd5b600080fd5b600080fd5b600080fd5b600080fd5b6000601f19601f8301169050919050565b60008160601b9050919050565b61158a816112d1565b811461159557600080fd5b50565b6115a18161130d565b81146115ac57600080fd5b5056fea26469706673582212205d3da1487a1f2c4d69650aa1739772ef23a13cd2c53e8ae29d033eae5ecd421664736f6c63430008070033",
					"opcodes": "PUSH1 0x80 PUSH1 0x40 MSTORE PUSH1 0x40 MLOAD DUP1 PUSH1 0x60 ADD PUSH1 0x40 MSTORE DUP1 PUSH1 0x40 MLOAD DUP1 PUSH1 0x40 ADD PUSH1 0x40 MSTORE DUP1 PUSH1 0x6 DUP2 MSTORE PUSH1 0x20 ADD PUSH32 0x4174746163680000000000000000000000000000000000000000000000000000 DUP2 MSTORE POP DUP2 MSTORE PUSH1 0x20 ADD PUSH1 0x40 MLOAD DUP1 PUSH1 0x40 ADD PUSH1 0x40 MSTORE DUP1 PUSH1 0x7 DUP2 MSTORE PUSH1 0x20 ADD PUSH32 0x446566696E636500000000000000000000000000000000000000000000000000 DUP2 MSTORE POP DUP2 MSTORE PUSH1 0x20 ADD PUSH1 0x40 MLOAD DUP1 PUSH1 0x40 ADD PUSH1 0x40 MSTORE DUP1 PUSH1 0x7 DUP2 MSTORE PUSH1 0x20 ADD PUSH32 0x42616C616E636500000000000000000000000000000000000000000000000000 DUP2 MSTORE POP DUP2 MSTORE POP PUSH1 0x4 SWAP1 PUSH1 0x3 PUSH3 0xD0 SWAP3 SWAP2 SWAP1 PUSH3 0x125 JUMP JUMPDEST POP CALLVALUE DUP1 ISZERO PUSH3 0xDE JUMPI PUSH1 0x0 DUP1 REVERT JUMPDEST POP CALLER PUSH1 0x0 DUP1 PUSH2 0x100 EXP DUP2 SLOAD DUP2 PUSH20 0xFFFFFFFFFFFFFFFFFFFFFFFFFFFFFFFFFFFFFFFF MUL NOT AND SWAP1 DUP4 PUSH20 0xFFFFFFFFFFFFFFFFFFFFFFFFFFFFFFFFFFFFFFFF AND MUL OR SWAP1 SSTORE POP PUSH3 0x30F JUMP JUMPDEST DUP3 DUP1 SLOAD DUP3 DUP3 SSTORE SWAP1 PUSH1 0x0 MSTORE PUSH1 0x20 PUSH1 0x0 KECCAK256 SWAP1 DUP2 ADD SWAP3 DUP3 ISZERO PUSH3 0x179 JUMPI SWAP2 PUSH1 0x20 MUL DUP3 ADD JUMPDEST DUP3 DUP2 GT ISZERO PUSH3 0x178 JUMPI DUP3 MLOAD DUP3 SWAP1 DUP1 MLOAD SWAP1 PUSH1 0x20 ADD SWAP1 PUSH3 0x167 SWAP3 SWAP2 SWAP1 PUSH3 0x18C JUMP JUMPDEST POP SWAP2 PUSH1 0x20 ADD SWAP2 SWAP1 PUSH1 0x1 ADD SWAP1 PUSH3 0x146 JUMP JUMPDEST JUMPDEST POP SWAP1 POP PUSH3 0x188 SWAP2 SWAP1 PUSH3 0x21D JUMP JUMPDEST POP SWAP1 JUMP JUMPDEST DUP3 DUP1 SLOAD PUSH3 0x19A SWAP1 PUSH3 0x2AA JUMP JUMPDEST SWAP1 PUSH1 0x0 MSTORE PUSH1 0x20 PUSH1 0x0 KECCAK256 SWAP1 PUSH1 0x1F ADD PUSH1 0x20 SWAP1 DIV DUP2 ADD SWAP3 DUP3 PUSH3 0x1BE JUMPI PUSH1 0x0 DUP6 SSTORE PUSH3 0x20A JUMP JUMPDEST DUP3 PUSH1 0x1F LT PUSH3 0x1D9 JUMPI DUP1 MLOAD PUSH1 0xFF NOT AND DUP4 DUP1 ADD OR DUP6 SSTORE PUSH3 0x20A JUMP JUMPDEST DUP3 DUP1 ADD PUSH1 0x1 ADD DUP6 SSTORE DUP3 ISZERO PUSH3 0x20A JUMPI SWAP2 DUP3 ADD JUMPDEST DUP3 DUP2 GT ISZERO PUSH3 0x209 JUMPI DUP3 MLOAD DUP3 SSTORE SWAP2 PUSH1 0x20 ADD SWAP2 SWAP1 PUSH1 0x1 ADD SWAP1 PUSH3 0x1EC JUMP JUMPDEST JUMPDEST POP SWAP1 POP PUSH3 0x219 SWAP2 SWAP1 PUSH3 0x245 JUMP JUMPDEST POP SWAP1 JUMP JUMPDEST JUMPDEST DUP1 DUP3 GT ISZERO PUSH3 0x241 JUMPI PUSH1 0x0 DUP2 DUP2 PUSH3 0x237 SWAP2 SWAP1 PUSH3 0x264 JUMP JUMPDEST POP PUSH1 0x1 ADD PUSH3 0x21E JUMP JUMPDEST POP SWAP1 JUMP JUMPDEST JUMPDEST DUP1 DUP3 GT ISZERO PUSH3 0x260 JUMPI PUSH1 0x0 DUP2 PUSH1 0x0 SWAP1 SSTORE POP PUSH1 0x1 ADD PUSH3 0x246 JUMP JUMPDEST POP SWAP1 JUMP JUMPDEST POP DUP1 SLOAD PUSH3 0x272 SWAP1 PUSH3 0x2AA JUMP JUMPDEST PUSH1 0x0 DUP3 SSTORE DUP1 PUSH1 0x1F LT PUSH3 0x286 JUMPI POP PUSH3 0x2A7 JUMP JUMPDEST PUSH1 0x1F ADD PUSH1 0x20 SWAP1 DIV SWAP1 PUSH1 0x0 MSTORE PUSH1 0x20 PUSH1 0x0 KECCAK256 SWAP1 DUP2 ADD SWAP1 PUSH3 0x2A6 SWAP2 SWAP1 PUSH3 0x245 JUMP JUMPDEST JUMPDEST POP JUMP JUMPDEST PUSH1 0x0 PUSH1 0x2 DUP3 DIV SWAP1 POP PUSH1 0x1 DUP3 AND DUP1 PUSH3 0x2C3 JUMPI PUSH1 0x7F DUP3 AND SWAP2 POP JUMPDEST PUSH1 0x20 DUP3 LT DUP2 EQ ISZERO PUSH3 0x2DA JUMPI PUSH3 0x2D9 PUSH3 0x2E0 JUMP JUMPDEST JUMPDEST POP SWAP2 SWAP1 POP JUMP JUMPDEST PUSH32 0x4E487B7100000000000000000000000000000000000000000000000000000000 PUSH1 0x0 MSTORE PUSH1 0x22 PUSH1 0x4 MSTORE PUSH1 0x24 PUSH1 0x0 REVERT JUMPDEST PUSH2 0x15E5 DUP1 PUSH3 0x31F PUSH1 0x0 CODECOPY PUSH1 0x0 RETURN INVALID PUSH1 0x80 PUSH1 0x40 MSTORE CALLVALUE DUP1 ISZERO PUSH2 0x10 JUMPI PUSH1 0x0 DUP1 REVERT JUMPDEST POP PUSH1 0x4 CALLDATASIZE LT PUSH2 0x62 JUMPI PUSH1 0x0 CALLDATALOAD PUSH1 0xE0 SHR DUP1 PUSH4 0x7546172 EQ PUSH2 0x67 JUMPI DUP1 PUSH4 0x5CF3D346 EQ PUSH2 0x85 JUMPI DUP1 PUSH4 0x6A786B07 EQ PUSH2 0xB5 JUMPI DUP1 PUSH4 0xABF5F2ED EQ PUSH2 0xD1 JUMPI DUP1 PUSH4 0xBC346C9C EQ PUSH2 0x101 JUMPI DUP1 PUSH4 0xF71D96CB EQ PUSH2 0x11D JUMPI JUMPDEST PUSH1 0x0 DUP1 REVERT JUMPDEST PUSH2 0x6F PUSH2 0x14D JUMP JUMPDEST PUSH1 0x40 MLOAD PUSH2 0x7C SWAP2 SWAP1 PUSH2 0xF5E JUMP JUMPDEST PUSH1 0x40 MLOAD DUP1 SWAP2 SUB SWAP1 RETURN JUMPDEST PUSH2 0x9F PUSH1 0x4 DUP1 CALLDATASIZE SUB DUP2 ADD SWAP1 PUSH2 0x9A SWAP2 SWAP1 PUSH2 0xDB9 JUMP JUMPDEST PUSH2 0x171 JUMP JUMPDEST PUSH1 0x40 MLOAD PUSH2 0xAC SWAP2 SWAP1 PUSH2 0xF94 JUMP JUMPDEST PUSH1 0x40 MLOAD DUP1 SWAP2 SUB SWAP1 RETURN JUMPDEST PUSH2 0xCF PUSH1 0x4 DUP1 CALLDATASIZE SUB DUP2 ADD SWAP1 PUSH2 0xCA SWAP2 SWAP1 PUSH2 0xE26 JUMP JUMPDEST PUSH2 0x211 JUMP JUMPDEST STOP JUMPDEST PUSH2 0xEB PUSH1 0x4 DUP1 CALLDATASIZE SUB DUP2 ADD SWAP1 PUSH2 0xE6 SWAP2 SWAP1 PUSH2 0xDE6 JUMP JUMPDEST PUSH2 0x4B4 JUMP JUMPDEST PUSH1 0x40 MLOAD PUSH2 0xF8 SWAP2 SWAP1 PUSH2 0xF79 JUMP JUMPDEST PUSH1 0x40 MLOAD DUP1 SWAP2 SUB SWAP1 RETURN JUMPDEST PUSH2 0x11B PUSH1 0x4 DUP1 CALLDATASIZE SUB DUP2 ADD SWAP1 PUSH2 0x116 SWAP2 SWAP1 PUSH2 0xDB9 JUMP JUMPDEST PUSH2 0x4DC JUMP JUMPDEST STOP JUMPDEST PUSH2 0x137 PUSH1 0x4 DUP1 CALLDATASIZE SUB DUP2 ADD SWAP1 PUSH2 0x132 SWAP2 SWAP1 PUSH2 0xE6F JUMP JUMPDEST PUSH2 0xA6C JUMP JUMPDEST PUSH1 0x40 MLOAD PUSH2 0x144 SWAP2 SWAP1 PUSH2 0xF5E JUMP JUMPDEST PUSH1 0x40 MLOAD DUP1 SWAP2 SUB SWAP1 RETURN JUMPDEST PUSH1 0x0 DUP1 SLOAD SWAP1 PUSH2 0x100 EXP SWAP1 DIV PUSH20 0xFFFFFFFFFFFFFFFFFFFFFFFFFFFFFFFFFFFFFFFF AND DUP2 JUMP JUMPDEST PUSH1 0x3 PUSH1 0x20 MSTORE DUP1 PUSH1 0x0 MSTORE PUSH1 0x40 PUSH1 0x0 KECCAK256 PUSH1 0x0 SWAP2 POP SWAP1 POP DUP1 SLOAD PUSH2 0x190 SWAP1 PUSH2 0x1359 JUMP JUMPDEST DUP1 PUSH1 0x1F ADD PUSH1 0x20 DUP1 SWAP2 DIV MUL PUSH1 0x20 ADD PUSH1 0x40 MLOAD SWAP1 DUP2 ADD PUSH1 0x40 MSTORE DUP1 SWAP3 SWAP2 SWAP1 DUP2 DUP2 MSTORE PUSH1 0x20 ADD DUP3 DUP1 SLOAD PUSH2 0x1BC SWAP1 PUSH2 0x1359 JUMP JUMPDEST DUP1 ISZERO PUSH2 0x209 JUMPI DUP1 PUSH1 0x1F LT PUSH2 0x1DE JUMPI PUSH2 0x100 DUP1 DUP4 SLOAD DIV MUL DUP4 MSTORE SWAP2 PUSH1 0x20 ADD SWAP2 PUSH2 0x209 JUMP JUMPDEST DUP3 ADD SWAP2 SWAP1 PUSH1 0x0 MSTORE PUSH1 0x20 PUSH1 0x0 KECCAK256 SWAP1 JUMPDEST DUP2 SLOAD DUP2 MSTORE SWAP1 PUSH1 0x1 ADD SWAP1 PUSH1 0x20 ADD DUP1 DUP4 GT PUSH2 0x1EC JUMPI DUP3 SWAP1 SUB PUSH1 0x1F AND DUP3 ADD SWAP2 JUMPDEST POP POP POP POP POP DUP2 JUMP JUMPDEST PUSH1 0x1 ISZERO ISZERO PUSH1 0x2 PUSH1 0x0 CALLER PUSH20 0xFFFFFFFFFFFFFFFFFFFFFFFFFFFFFFFFFFFFFFFF AND PUSH20 0xFFFFFFFFFFFFFFFFFFFFFFFFFFFFFFFFFFFFFFFF AND DUP2 MSTORE PUSH1 0x20 ADD SWAP1 DUP2 MSTORE PUSH1 0x20 ADD PUSH1 0x0 KECCAK256 PUSH1 0x0 SWAP1 SLOAD SWAP1 PUSH2 0x100 EXP SWAP1 DIV PUSH1 0xFF AND ISZERO ISZERO EQ ISZERO PUSH2 0x26F JUMPI PUSH1 0x0 DUP1 REVERT JUMPDEST PUSH1 0x1 PUSH1 0x2 PUSH1 0x0 CALLER PUSH20 0xFFFFFFFFFFFFFFFFFFFFFFFFFFFFFFFFFFFFFFFF AND PUSH20 0xFFFFFFFFFFFFFFFFFFFFFFFFFFFFFFFFFFFFFFFF AND DUP2 MSTORE PUSH1 0x20 ADD SWAP1 DUP2 MSTORE PUSH1 0x20 ADD PUSH1 0x0 KECCAK256 PUSH1 0x0 PUSH2 0x100 EXP DUP2 SLOAD DUP2 PUSH1 0xFF MUL NOT AND SWAP1 DUP4 ISZERO ISZERO MUL OR SWAP1 SSTORE POP PUSH2 0x2D1 PUSH1 0x5 PUSH2 0xAAB JUMP JUMPDEST PUSH1 0x5 PUSH2 0x2DD SWAP2 SWAP1 PUSH2 0x1028 JUMP JUMPDEST PUSH1 0x1 PUSH1 0x0 CALLER PUSH20 0xFFFFFFFFFFFFFFFFFFFFFFFFFFFFFFFFFFFFFFFF AND PUSH20 0xFFFFFFFFFFFFFFFFFFFFFFFFFFFFFFFFFFFFFFFF AND DUP2 MSTORE PUSH1 0x20 ADD SWAP1 DUP2 MSTORE PUSH1 0x20 ADD PUSH1 0x0 KECCAK256 PUSH1 0x0 PUSH1 0x3 DUP2 LT PUSH2 0x32F JUMPI PUSH2 0x32E PUSH2 0x14F1 JUMP JUMPDEST JUMPDEST ADD DUP2 SWAP1 SSTORE POP PUSH2 0x33E PUSH1 0x5 PUSH2 0xAAB JUMP JUMPDEST PUSH1 0x5 PUSH2 0x34A SWAP2 SWAP1 PUSH2 0x1028 JUMP JUMPDEST PUSH1 0x1 PUSH1 0x0 CALLER PUSH20 0xFFFFFFFFFFFFFFFFFFFFFFFFFFFFFFFFFFFFFFFF AND PUSH20 0xFFFFFFFFFFFFFFFFFFFFFFFFFFFFFFFFFFFFFFFF AND DUP2 MSTORE PUSH1 0x20 ADD SWAP1 DUP2 MSTORE PUSH1 0x20 ADD PUSH1 0x0 KECCAK256 PUSH1 0x1 PUSH1 0x3 DUP2 LT PUSH2 0x39C JUMPI PUSH2 0x39B PUSH2 0x14F1 JUMP JUMPDEST JUMPDEST ADD DUP2 SWAP1 SSTORE POP PUSH1 0x64 PUSH1 0x1 PUSH1 0x0 CALLER PUSH20 0xFFFFFFFFFFFFFFFFFFFFFFFFFFFFFFFFFFFFFFFF AND PUSH20 0xFFFFFFFFFFFFFFFFFFFFFFFFFFFFFFFFFFFFFFFF AND DUP2 MSTORE PUSH1 0x20 ADD SWAP1 DUP2 MSTORE PUSH1 0x20 ADD PUSH1 0x0 KECCAK256 PUSH1 0x2 PUSH1 0x3 DUP2 LT PUSH2 0x3F5 JUMPI PUSH2 0x3F4 PUSH2 0x14F1 JUMP JUMPDEST JUMPDEST ADD DUP2 SWAP1 SSTORE POP DUP1 PUSH1 0x3 PUSH1 0x0 CALLER PUSH20 0xFFFFFFFFFFFFFFFFFFFFFFFFFFFFFFFFFFFFFFFF AND PUSH20 0xFFFFFFFFFFFFFFFFFFFFFFFFFFFFFFFFFFFFFFFF AND DUP2 MSTORE PUSH1 0x20 ADD SWAP1 DUP2 MSTORE PUSH1 0x20 ADD PUSH1 0x0 KECCAK256 SWAP1 DUP1 MLOAD SWAP1 PUSH1 0x20 ADD SWAP1 PUSH2 0x44D SWAP3 SWAP2 SWAP1 PUSH2 0xC7C JUMP JUMPDEST POP PUSH1 0x5 CALLER SWAP1 DUP1 PUSH1 0x1 DUP2 SLOAD ADD DUP1 DUP3 SSTORE DUP1 SWAP2 POP POP PUSH1 0x1 SWAP1 SUB SWAP1 PUSH1 0x0 MSTORE PUSH1 0x20 PUSH1 0x0 KECCAK256 ADD PUSH1 0x0 SWAP1 SWAP2 SWAP1 SWAP2 SWAP1 SWAP2 PUSH2 0x100 EXP DUP2 SLOAD DUP2 PUSH20 0xFFFFFFFFFFFFFFFFFFFFFFFFFFFFFFFFFFFFFFFF MUL NOT AND SWAP1 DUP4 PUSH20 0xFFFFFFFFFFFFFFFFFFFFFFFFFFFFFFFFFFFFFFFF AND MUL OR SWAP1 SSTORE POP POP JUMP JUMPDEST PUSH1 0x1 PUSH1 0x20 MSTORE DUP2 PUSH1 0x0 MSTORE PUSH1 0x40 PUSH1 0x0 KECCAK256 DUP2 PUSH1 0x3 DUP2 LT PUSH2 0x4D0 JUMPI PUSH1 0x0 DUP1 REVERT JUMPDEST ADD PUSH1 0x0 SWAP2 POP SWAP2 POP POP SLOAD DUP2 JUMP JUMPDEST PUSH1 0x1 ISZERO ISZERO PUSH1 0x2 PUSH1 0x0 DUP4 PUSH20 0xFFFFFFFFFFFFFFFFFFFFFFFFFFFFFFFFFFFFFFFF AND PUSH20 0xFFFFFFFFFFFFFFFFFFFFFFFFFFFFFFFFFFFFFFFF AND DUP2 MSTORE PUSH1 0x20 ADD SWAP1 DUP2 MSTORE PUSH1 0x20 ADD PUSH1 0x0 KECCAK256 PUSH1 0x0 SWAP1 SLOAD SWAP1 PUSH2 0x100 EXP SWAP1 DIV PUSH1 0xFF AND ISZERO ISZERO EQ PUSH2 0x539 JUMPI PUSH1 0x0 DUP1 REVERT JUMPDEST PUSH1 0x1 ISZERO ISZERO PUSH1 0x2 PUSH1 0x0 CALLER PUSH20 0xFFFFFFFFFFFFFFFFFFFFFFFFFFFFFFFFFFFFFFFF AND PUSH20 0xFFFFFFFFFFFFFFFFFFFFFFFFFFFFFFFFFFFFFFFF AND DUP2 MSTORE PUSH1 0x20 ADD SWAP1 DUP2 MSTORE PUSH1 0x20 ADD PUSH1 0x0 KECCAK256 PUSH1 0x0 SWAP1 SLOAD SWAP1 PUSH2 0x100 EXP SWAP1 DIV PUSH1 0xFF AND ISZERO ISZERO EQ PUSH2 0x596 JUMPI PUSH1 0x0 DUP1 REVERT JUMPDEST PUSH1 0x0 PUSH1 0x1 PUSH1 0x0 DUP4 PUSH20 0xFFFFFFFFFFFFFFFFFFFFFFFFFFFFFFFFFFFFFFFF AND PUSH20 0xFFFFFFFFFFFFFFFFFFFFFFFFFFFFFFFFFFFFFFFF AND DUP2 MSTORE PUSH1 0x20 ADD SWAP1 DUP2 MSTORE PUSH1 0x20 ADD PUSH1 0x0 KECCAK256 PUSH1 0x2 PUSH1 0x3 DUP2 LT PUSH2 0x5EA JUMPI PUSH2 0x5E9 PUSH2 0x14F1 JUMP JUMPDEST JUMPDEST ADD SLOAD SGT PUSH2 0x5F6 JUMPI PUSH1 0x0 DUP1 REVERT JUMPDEST PUSH1 0x0 PUSH1 0x1 PUSH1 0x0 CALLER PUSH20 0xFFFFFFFFFFFFFFFFFFFFFFFFFFFFFFFFFFFFFFFF AND PUSH20 0xFFFFFFFFFFFFFFFFFFFFFFFFFFFFFFFFFFFFFFFF AND DUP2 MSTORE PUSH1 0x20 ADD SWAP1 DUP2 MSTORE PUSH1 0x20 ADD PUSH1 0x0 KECCAK256 PUSH1 0x2 PUSH1 0x3 DUP2 LT PUSH2 0x64A JUMPI PUSH2 0x649 PUSH2 0x14F1 JUMP JUMPDEST JUMPDEST ADD SLOAD SGT PUSH2 0x656 JUMPI PUSH1 0x0 DUP1 REVERT JUMPDEST PUSH1 0x0 PUSH1 0x1 PUSH1 0x0 DUP4 PUSH20 0xFFFFFFFFFFFFFFFFFFFFFFFFFFFFFFFFFFFFFFFF AND PUSH20 0xFFFFFFFFFFFFFFFFFFFFFFFFFFFFFFFFFFFFFFFF AND DUP2 MSTORE PUSH1 0x20 ADD SWAP1 DUP2 MSTORE PUSH1 0x20 ADD PUSH1 0x0 KECCAK256 PUSH1 0x1 PUSH1 0x3 DUP2 LT PUSH2 0x6AA JUMPI PUSH2 0x6A9 PUSH2 0x14F1 JUMP JUMPDEST JUMPDEST ADD SLOAD PUSH1 0x1 PUSH1 0x0 CALLER PUSH20 0xFFFFFFFFFFFFFFFFFFFFFFFFFFFFFFFFFFFFFFFF AND PUSH20 0xFFFFFFFFFFFFFFFFFFFFFFFFFFFFFFFFFFFFFFFF AND DUP2 MSTORE PUSH1 0x20 ADD SWAP1 DUP2 MSTORE PUSH1 0x20 ADD PUSH1 0x0 KECCAK256 PUSH1 0x0 PUSH1 0x3 DUP2 LT PUSH2 0x6FE JUMPI PUSH2 0x6FD PUSH2 0x14F1 JUMP JUMPDEST JUMPDEST ADD SLOAD PUSH2 0x70A SWAP2 SWAP1 PUSH2 0x123D JUMP JUMPDEST SWAP1 POP PUSH1 0x0 DUP2 SGT ISZERO PUSH2 0x8DC JUMPI PUSH1 0x2 DUP2 PUSH2 0x722 SWAP2 SWAP1 PUSH2 0x1126 JUMP JUMPDEST PUSH1 0x1 PUSH1 0x0 DUP5 PUSH20 0xFFFFFFFFFFFFFFFFFFFFFFFFFFFFFFFFFFFFFFFF AND PUSH20 0xFFFFFFFFFFFFFFFFFFFFFFFFFFFFFFFFFFFFFFFF AND DUP2 MSTORE PUSH1 0x20 ADD SWAP1 DUP2 MSTORE PUSH1 0x20 ADD PUSH1 0x0 KECCAK256 PUSH1 0x2 PUSH1 0x3 DUP2 LT PUSH2 0x774 JUMPI PUSH2 0x773 PUSH2 0x14F1 JUMP JUMPDEST JUMPDEST ADD PUSH1 0x0 DUP3 DUP3 SLOAD PUSH2 0x784 SWAP2 SWAP1 PUSH2 0x123D JUMP JUMPDEST SWAP3 POP POP DUP2 SWAP1 SSTORE POP PUSH1 0x2 DUP2 PUSH2 0x798 SWAP2 SWAP1 PUSH2 0x10BC JUMP JUMPDEST PUSH1 0x1 PUSH1 0x0 CALLER PUSH20 0xFFFFFFFFFFFFFFFFFFFFFFFFFFFFFFFFFFFFFFFF AND PUSH20 0xFFFFFFFFFFFFFFFFFFFFFFFFFFFFFFFFFFFFFFFF AND DUP2 MSTORE PUSH1 0x20 ADD SWAP1 DUP2 MSTORE PUSH1 0x20 ADD PUSH1 0x0 KECCAK256 PUSH1 0x2 PUSH1 0x3 DUP2 LT PUSH2 0x7EA JUMPI PUSH2 0x7E9 PUSH2 0x14F1 JUMP JUMPDEST JUMPDEST ADD PUSH1 0x0 DUP3 DUP3 SLOAD PUSH2 0x7FA SWAP2 SWAP1 PUSH2 0x123D JUMP JUMPDEST SWAP3 POP POP DUP2 SWAP1 SSTORE POP PUSH1 0xA PUSH1 0x1 PUSH1 0x0 CALLER PUSH20 0xFFFFFFFFFFFFFFFFFFFFFFFFFFFFFFFFFFFFFFFF AND PUSH20 0xFFFFFFFFFFFFFFFFFFFFFFFFFFFFFFFFFFFFFFFF AND DUP2 MSTORE PUSH1 0x20 ADD SWAP1 DUP2 MSTORE PUSH1 0x20 ADD PUSH1 0x0 KECCAK256 PUSH1 0x0 PUSH1 0x3 DUP2 LT PUSH2 0x855 JUMPI PUSH2 0x854 PUSH2 0x14F1 JUMP JUMPDEST JUMPDEST ADD PUSH1 0x0 DUP3 DUP3 SLOAD PUSH2 0x865 SWAP2 SWAP1 PUSH2 0x1028 JUMP JUMPDEST SWAP3 POP POP DUP2 SWAP1 SSTORE POP PUSH1 0xA PUSH1 0x1 PUSH1 0x0 DUP5 PUSH20 0xFFFFFFFFFFFFFFFFFFFFFFFFFFFFFFFFFFFFFFFF AND PUSH20 0xFFFFFFFFFFFFFFFFFFFFFFFFFFFFFFFFFFFFFFFF AND DUP2 MSTORE PUSH1 0x20 ADD SWAP1 DUP2 MSTORE PUSH1 0x20 ADD PUSH1 0x0 KECCAK256 PUSH1 0x1 PUSH1 0x3 DUP2 LT PUSH2 0x8C0 JUMPI PUSH2 0x8BF PUSH2 0x14F1 JUMP JUMPDEST JUMPDEST ADD PUSH1 0x0 DUP3 DUP3 SLOAD PUSH2 0x8D0 SWAP2 SWAP1 PUSH2 0x1028 JUMP JUMPDEST SWAP3 POP POP DUP2 SWAP1 SSTORE POP PUSH2 0xA56 JUMP JUMPDEST PUSH32 0xFFFFFFFFFFFFFFFFFFFFFFFFFFFFFFFFFFFFFFFFFFFFFFFFFFFFFFFFFFFFFFFF DUP2 PUSH2 0x908 SWAP2 SWAP1 PUSH2 0x1126 JUMP JUMPDEST SWAP1 POP PUSH1 0x2 DUP2 PUSH2 0x917 SWAP2 SWAP1 PUSH2 0x10BC JUMP JUMPDEST PUSH1 0x1 PUSH1 0x0 DUP5 PUSH20 0xFFFFFFFFFFFFFFFFFFFFFFFFFFFFFFFFFFFFFFFF AND PUSH20 0xFFFFFFFFFFFFFFFFFFFFFFFFFFFFFFFFFFFFFFFF AND DUP2 MSTORE PUSH1 0x20 ADD SWAP1 DUP2 MSTORE PUSH1 0x20 ADD PUSH1 0x0 KECCAK256 PUSH1 0x2 PUSH1 0x3 DUP2 LT PUSH2 0x969 JUMPI PUSH2 0x968 PUSH2 0x14F1 JUMP JUMPDEST JUMPDEST ADD PUSH1 0x0 DUP3 DUP3 SLOAD PUSH2 0x979 SWAP2 SWAP1 PUSH2 0x123D JUMP JUMPDEST SWAP3 POP POP DUP2 SWAP1 SSTORE POP DUP1 PUSH1 0x1 PUSH1 0x0 CALLER PUSH20 0xFFFFFFFFFFFFFFFFFFFFFFFFFFFFFFFFFFFFFFFF AND PUSH20 0xFFFFFFFFFFFFFFFFFFFFFFFFFFFFFFFFFFFFFFFF AND DUP2 MSTORE PUSH1 0x20 ADD SWAP1 DUP2 MSTORE PUSH1 0x20 ADD PUSH1 0x0 KECCAK256 PUSH1 0x2 PUSH1 0x3 DUP2 LT PUSH2 0x9D3 JUMPI PUSH2 0x9D2 PUSH2 0x14F1 JUMP JUMPDEST JUMPDEST ADD PUSH1 0x0 DUP3 DUP3 SLOAD PUSH2 0x9E3 SWAP2 SWAP1 PUSH2 0x123D JUMP JUMPDEST SWAP3 POP POP DUP2 SWAP1 SSTORE POP PUSH1 0x14 PUSH1 0x1 PUSH1 0x0 DUP5 PUSH20 0xFFFFFFFFFFFFFFFFFFFFFFFFFFFFFFFFFFFFFFFF AND PUSH20 0xFFFFFFFFFFFFFFFFFFFFFFFFFFFFFFFFFFFFFFFF AND DUP2 MSTORE PUSH1 0x20 ADD SWAP1 DUP2 MSTORE PUSH1 0x20 ADD PUSH1 0x0 KECCAK256 PUSH1 0x1 PUSH1 0x3 DUP2 LT PUSH2 0xA3E JUMPI PUSH2 0xA3D PUSH2 0x14F1 JUMP JUMPDEST JUMPDEST ADD PUSH1 0x0 DUP3 DUP3 SLOAD PUSH2 0xA4E SWAP2 SWAP1 PUSH2 0x1028 JUMP JUMPDEST SWAP3 POP POP DUP2 SWAP1 SSTORE POP JUMPDEST PUSH2 0xA5F CALLER PUSH2 0xAED JUMP JUMPDEST PUSH2 0xA68 DUP3 PUSH2 0xAED JUMP JUMPDEST POP POP JUMP JUMPDEST PUSH1 0x5 DUP2 DUP2 SLOAD DUP2 LT PUSH2 0xA7C JUMPI PUSH1 0x0 DUP1 REVERT JUMPDEST SWAP1 PUSH1 0x0 MSTORE PUSH1 0x20 PUSH1 0x0 KECCAK256 ADD PUSH1 0x0 SWAP2 POP SLOAD SWAP1 PUSH2 0x100 EXP SWAP1 DIV PUSH20 0xFFFFFFFFFFFFFFFFFFFFFFFFFFFFFFFFFFFFFFFF AND DUP2 JUMP JUMPDEST PUSH1 0x0 DUP2 TIMESTAMP DIFFICULTY CALLER PUSH1 0x40 MLOAD PUSH1 0x20 ADD PUSH2 0xAC3 SWAP4 SWAP3 SWAP2 SWAP1 PUSH2 0xF21 JUMP JUMPDEST PUSH1 0x40 MLOAD PUSH1 0x20 DUP2 DUP4 SUB SUB DUP2 MSTORE SWAP1 PUSH1 0x40 MSTORE DUP1 MLOAD SWAP1 PUSH1 0x20 ADD KECCAK256 PUSH1 0x0 SHR PUSH2 0xAE6 SWAP2 SWAP1 PUSH2 0x1433 JUMP JUMPDEST SWAP1 POP SWAP2 SWAP1 POP JUMP JUMPDEST PUSH1 0x0 PUSH1 0x1 PUSH1 0x0 DUP4 PUSH20 0xFFFFFFFFFFFFFFFFFFFFFFFFFFFFFFFFFFFFFFFF AND PUSH20 0xFFFFFFFFFFFFFFFFFFFFFFFFFFFFFFFFFFFFFFFF AND DUP2 MSTORE PUSH1 0x20 ADD SWAP1 DUP2 MSTORE PUSH1 0x20 ADD PUSH1 0x0 KECCAK256 PUSH1 0x2 PUSH1 0x3 DUP2 LT PUSH2 0xB41 JUMPI PUSH2 0xB40 PUSH2 0x14F1 JUMP JUMPDEST JUMPDEST ADD SLOAD SGT PUSH2 0xC79 JUMPI PUSH1 0x0 PUSH1 0x2 PUSH1 0x0 DUP4 PUSH20 0xFFFFFFFFFFFFFFFFFFFFFFFFFFFFFFFFFFFFFFFF AND PUSH20 0xFFFFFFFFFFFFFFFFFFFFFFFFFFFFFFFFFFFFFFFF AND DUP2 MSTORE PUSH1 0x20 ADD SWAP1 DUP2 MSTORE PUSH1 0x20 ADD PUSH1 0x0 KECCAK256 PUSH1 0x0 PUSH2 0x100 EXP DUP2 SLOAD DUP2 PUSH1 0xFF MUL NOT AND SWAP1 DUP4 ISZERO ISZERO MUL OR SWAP1 SSTORE POP PUSH1 0x0 JUMPDEST PUSH1 0x5 DUP1 SLOAD SWAP1 POP DUP2 LT ISZERO PUSH2 0xC77 JUMPI DUP2 PUSH20 0xFFFFFFFFFFFFFFFFFFFFFFFFFFFFFFFFFFFFFFFF AND PUSH1 0x5 DUP3 DUP2 SLOAD DUP2 LT PUSH2 0xBDB JUMPI PUSH2 0xBDA PUSH2 0x14F1 JUMP JUMPDEST JUMPDEST SWAP1 PUSH1 0x0 MSTORE PUSH1 0x20 PUSH1 0x0 KECCAK256 ADD PUSH1 0x0 SWAP1 SLOAD SWAP1 PUSH2 0x100 EXP SWAP1 DIV PUSH20 0xFFFFFFFFFFFFFFFFFFFFFFFFFFFFFFFFFFFFFFFF AND PUSH20 0xFFFFFFFFFFFFFFFFFFFFFFFFFFFFFFFFFFFFFFFF AND EQ ISZERO PUSH2 0xC64 JUMPI PUSH1 0x5 DUP2 DUP2 SLOAD DUP2 LT PUSH2 0xC36 JUMPI PUSH2 0xC35 PUSH2 0x14F1 JUMP JUMPDEST JUMPDEST SWAP1 PUSH1 0x0 MSTORE PUSH1 0x20 PUSH1 0x0 KECCAK256 ADD PUSH1 0x0 PUSH2 0x100 EXP DUP2 SLOAD SWAP1 PUSH20 0xFFFFFFFFFFFFFFFFFFFFFFFFFFFFFFFFFFFFFFFF MUL NOT AND SWAP1 SSTORE JUMPDEST DUP1 DUP1 PUSH2 0xC6F SWAP1 PUSH2 0x13BC JUMP JUMPDEST SWAP2 POP POP PUSH2 0xBA3 JUMP JUMPDEST POP JUMPDEST POP JUMP JUMPDEST DUP3 DUP1 SLOAD PUSH2 0xC88 SWAP1 PUSH2 0x1359 JUMP JUMPDEST SWAP1 PUSH1 0x0 MSTORE PUSH1 0x20 PUSH1 0x0 KECCAK256 SWAP1 PUSH1 0x1F ADD PUSH1 0x20 SWAP1 DIV DUP2 ADD SWAP3 DUP3 PUSH2 0xCAA JUMPI PUSH1 0x0 DUP6 SSTORE PUSH2 0xCF1 JUMP JUMPDEST DUP3 PUSH1 0x1F LT PUSH2 0xCC3 JUMPI DUP1 MLOAD PUSH1 0xFF NOT AND DUP4 DUP1 ADD OR DUP6 SSTORE PUSH2 0xCF1 JUMP JUMPDEST DUP3 DUP1 ADD PUSH1 0x1 ADD DUP6 SSTORE DUP3 ISZERO PUSH2 0xCF1 JUMPI SWAP2 DUP3 ADD JUMPDEST DUP3 DUP2 GT ISZERO PUSH2 0xCF0 JUMPI DUP3 MLOAD DUP3 SSTORE SWAP2 PUSH1 0x20 ADD SWAP2 SWAP1 PUSH1 0x1 ADD SWAP1 PUSH2 0xCD5 JUMP JUMPDEST JUMPDEST POP SWAP1 POP PUSH2 0xCFE SWAP2 SWAP1 PUSH2 0xD02 JUMP JUMPDEST POP SWAP1 JUMP JUMPDEST JUMPDEST DUP1 DUP3 GT ISZERO PUSH2 0xD1B JUMPI PUSH1 0x0 DUP2 PUSH1 0x0 SWAP1 SSTORE POP PUSH1 0x1 ADD PUSH2 0xD03 JUMP JUMPDEST POP SWAP1 JUMP JUMPDEST PUSH1 0x0 PUSH2 0xD32 PUSH2 0xD2D DUP5 PUSH2 0xFDB JUMP JUMPDEST PUSH2 0xFB6 JUMP JUMPDEST SWAP1 POP DUP3 DUP2 MSTORE PUSH1 0x20 DUP2 ADD DUP5 DUP5 DUP5 ADD GT ISZERO PUSH2 0xD4E JUMPI PUSH2 0xD4D PUSH2 0x1554 JUMP JUMPDEST JUMPDEST PUSH2 0xD59 DUP5 DUP3 DUP6 PUSH2 0x1317 JUMP JUMPDEST POP SWAP4 SWAP3 POP POP POP JUMP JUMPDEST PUSH1 0x0 DUP2 CALLDATALOAD SWAP1 POP PUSH2 0xD70 DUP2 PUSH2 0x1581 JUMP JUMPDEST SWAP3 SWAP2 POP POP JUMP JUMPDEST PUSH1 0x0 DUP3 PUSH1 0x1F DUP4 ADD SLT PUSH2 0xD8B JUMPI PUSH2 0xD8A PUSH2 0x154F JUMP JUMPDEST JUMPDEST DUP2 CALLDATALOAD PUSH2 0xD9B DUP5 DUP3 PUSH1 0x20 DUP7 ADD PUSH2 0xD1F JUMP JUMPDEST SWAP2 POP POP SWAP3 SWAP2 POP POP JUMP JUMPDEST PUSH1 0x0 DUP2 CALLDATALOAD SWAP1 POP PUSH2 0xDB3 DUP2 PUSH2 0x1598 JUMP JUMPDEST SWAP3 SWAP2 POP POP JUMP JUMPDEST PUSH1 0x0 PUSH1 0x20 DUP3 DUP5 SUB SLT ISZERO PUSH2 0xDCF JUMPI PUSH2 0xDCE PUSH2 0x155E JUMP JUMPDEST JUMPDEST PUSH1 0x0 PUSH2 0xDDD DUP5 DUP3 DUP6 ADD PUSH2 0xD61 JUMP JUMPDEST SWAP2 POP POP SWAP3 SWAP2 POP POP JUMP JUMPDEST PUSH1 0x0 DUP1 PUSH1 0x40 DUP4 DUP6 SUB SLT ISZERO PUSH2 0xDFD JUMPI PUSH2 0xDFC PUSH2 0x155E JUMP JUMPDEST JUMPDEST PUSH1 0x0 PUSH2 0xE0B DUP6 DUP3 DUP7 ADD PUSH2 0xD61 JUMP JUMPDEST SWAP3 POP POP PUSH1 0x20 PUSH2 0xE1C DUP6 DUP3 DUP7 ADD PUSH2 0xDA4 JUMP JUMPDEST SWAP2 POP POP SWAP3 POP SWAP3 SWAP1 POP JUMP JUMPDEST PUSH1 0x0 PUSH1 0x20 DUP3 DUP5 SUB SLT ISZERO PUSH2 0xE3C JUMPI PUSH2 0xE3B PUSH2 0x155E JUMP JUMPDEST JUMPDEST PUSH1 0x0 DUP3 ADD CALLDATALOAD PUSH8 0xFFFFFFFFFFFFFFFF DUP2 GT ISZERO PUSH2 0xE5A JUMPI PUSH2 0xE59 PUSH2 0x1559 JUMP JUMPDEST JUMPDEST PUSH2 0xE66 DUP5 DUP3 DUP6 ADD PUSH2 0xD76 JUMP JUMPDEST SWAP2 POP POP SWAP3 SWAP2 POP POP JUMP JUMPDEST PUSH1 0x0 PUSH1 0x20 DUP3 DUP5 SUB SLT ISZERO PUSH2 0xE85 JUMPI PUSH2 0xE84 PUSH2 0x155E JUMP JUMPDEST JUMPDEST PUSH1 0x0 PUSH2 0xE93 DUP5 DUP3 DUP6 ADD PUSH2 0xDA4 JUMP JUMPDEST SWAP2 POP POP SWAP3 SWAP2 POP POP JUMP JUMPDEST PUSH2 0xEA5 DUP2 PUSH2 0x12D1 JUMP JUMPDEST DUP3 MSTORE POP POP JUMP JUMPDEST PUSH2 0xEBC PUSH2 0xEB7 DUP3 PUSH2 0x12D1 JUMP JUMPDEST PUSH2 0x1405 JUMP JUMPDEST DUP3 MSTORE POP POP JUMP JUMPDEST PUSH2 0xECB DUP2 PUSH2 0x12E3 JUMP JUMPDEST DUP3 MSTORE POP POP JUMP JUMPDEST PUSH1 0x0 PUSH2 0xEDC DUP3 PUSH2 0x100C JUMP JUMPDEST PUSH2 0xEE6 DUP2 DUP6 PUSH2 0x1017 JUMP JUMPDEST SWAP4 POP PUSH2 0xEF6 DUP2 DUP6 PUSH1 0x20 DUP7 ADD PUSH2 0x1326 JUMP JUMPDEST PUSH2 0xEFF DUP2 PUSH2 0x1563 JUMP JUMPDEST DUP5 ADD SWAP2 POP POP SWAP3 SWAP2 POP POP JUMP JUMPDEST PUSH2 0xF1B PUSH2 0xF16 DUP3 PUSH2 0x130D JUMP JUMPDEST PUSH2 0x1429 JUMP JUMPDEST DUP3 MSTORE POP POP JUMP JUMPDEST PUSH1 0x0 PUSH2 0xF2D DUP3 DUP7 PUSH2 0xF0A JUMP JUMPDEST PUSH1 0x20 DUP3 ADD SWAP2 POP PUSH2 0xF3D DUP3 DUP6 PUSH2 0xF0A JUMP JUMPDEST PUSH1 0x20 DUP3 ADD SWAP2 POP PUSH2 0xF4D DUP3 DUP5 PUSH2 0xEAB JUMP JUMPDEST PUSH1 0x14 DUP3 ADD SWAP2 POP DUP2 SWAP1 POP SWAP5 SWAP4 POP POP POP POP JUMP JUMPDEST PUSH1 0x0 PUSH1 0x20 DUP3 ADD SWAP1 POP PUSH2 0xF73 PUSH1 0x0 DUP4 ADD DUP5 PUSH2 0xE9C JUMP JUMPDEST SWAP3 SWAP2 POP POP JUMP JUMPDEST PUSH1 0x0 PUSH1 0x20 DUP3 ADD SWAP1 POP PUSH2 0xF8E PUSH1 0x0 DUP4 ADD DUP5 PUSH2 0xEC2 JUMP JUMPDEST SWAP3 SWAP2 POP POP JUMP JUMPDEST PUSH1 0x0 PUSH1 0x20 DUP3 ADD SWAP1 POP DUP2 DUP2 SUB PUSH1 0x0 DUP4 ADD MSTORE PUSH2 0xFAE DUP2 DUP5 PUSH2 0xED1 JUMP JUMPDEST SWAP1 POP SWAP3 SWAP2 POP POP JUMP JUMPDEST PUSH1 0x0 PUSH2 0xFC0 PUSH2 0xFD1 JUMP JUMPDEST SWAP1 POP PUSH2 0xFCC DUP3 DUP3 PUSH2 0x138B JUMP JUMPDEST SWAP2 SWAP1 POP JUMP JUMPDEST PUSH1 0x0 PUSH1 0x40 MLOAD SWAP1 POP SWAP1 JUMP JUMPDEST PUSH1 0x0 PUSH8 0xFFFFFFFFFFFFFFFF DUP3 GT ISZERO PUSH2 0xFF6 JUMPI PUSH2 0xFF5 PUSH2 0x1520 JUMP JUMPDEST JUMPDEST PUSH2 0xFFF DUP3 PUSH2 0x1563 JUMP JUMPDEST SWAP1 POP PUSH1 0x20 DUP2 ADD SWAP1 POP SWAP2 SWAP1 POP JUMP JUMPDEST PUSH1 0x0 DUP2 MLOAD SWAP1 POP SWAP2 SWAP1 POP JUMP JUMPDEST PUSH1 0x0 DUP3 DUP3 MSTORE PUSH1 0x20 DUP3 ADD SWAP1 POP SWAP3 SWAP2 POP POP JUMP JUMPDEST PUSH1 0x0 PUSH2 0x1033 DUP3 PUSH2 0x12E3 JUMP JUMPDEST SWAP2 POP PUSH2 0x103E DUP4 PUSH2 0x12E3 JUMP JUMPDEST SWAP3 POP DUP2 PUSH32 0x7FFFFFFFFFFFFFFFFFFFFFFFFFFFFFFFFFFFFFFFFFFFFFFFFFFFFFFFFFFFFFFF SUB DUP4 SGT PUSH1 0x0 DUP4 SLT ISZERO AND ISZERO PUSH2 0x1079 JUMPI PUSH2 0x1078 PUSH2 0x1464 JUMP JUMPDEST JUMPDEST DUP2 PUSH32 0x8000000000000000000000000000000000000000000000000000000000000000 SUB DUP4 SLT PUSH1 0x0 DUP4 SLT AND ISZERO PUSH2 0x10B1 JUMPI PUSH2 0x10B0 PUSH2 0x1464 JUMP JUMPDEST JUMPDEST DUP3 DUP3 ADD SWAP1 POP SWAP3 SWAP2 POP POP JUMP JUMPDEST PUSH1 0x0 PUSH2 0x10C7 DUP3 PUSH2 0x12E3 JUMP JUMPDEST SWAP2 POP PUSH2 0x10D2 DUP4 PUSH2 0x12E3 JUMP JUMPDEST SWAP3 POP DUP3 PUSH2 0x10E2 JUMPI PUSH2 0x10E1 PUSH2 0x1493 JUMP JUMPDEST JUMPDEST PUSH1 0x1 PUSH1 0x0 SUB DUP4 EQ PUSH32 0x8000000000000000000000000000000000000000000000000000000000000000 DUP4 EQ AND ISZERO PUSH2 0x111B JUMPI PUSH2 0x111A PUSH2 0x1464 JUMP JUMPDEST JUMPDEST DUP3 DUP3 SDIV SWAP1 POP SWAP3 SWAP2 POP POP JUMP JUMPDEST PUSH1 0x0 PUSH2 0x1131 DUP3 PUSH2 0x12E3 JUMP JUMPDEST SWAP2 POP PUSH2 0x113C DUP4 PUSH2 0x12E3 JUMP JUMPDEST SWAP3 POP DUP3 PUSH32 0x7FFFFFFFFFFFFFFFFFFFFFFFFFFFFFFFFFFFFFFFFFFFFFFFFFFFFFFFFFFFFFFF DIV DUP3 GT PUSH1 0x0 DUP5 SGT PUSH1 0x0 DUP5 SGT AND AND ISZERO PUSH2 0x117B JUMPI PUSH2 0x117A PUSH2 0x1464 JUMP JUMPDEST JUMPDEST DUP2 PUSH32 0x8000000000000000000000000000000000000000000000000000000000000000 SDIV DUP4 SLT PUSH1 0x0 DUP5 SLT PUSH1 0x0 DUP5 SGT AND AND ISZERO PUSH2 0x11B8 JUMPI PUSH2 0x11B7 PUSH2 0x1464 JUMP JUMPDEST JUMPDEST DUP3 PUSH32 0x8000000000000000000000000000000000000000000000000000000000000000 SDIV DUP3 SLT PUSH1 0x0 DUP5 SGT PUSH1 0x0 DUP5 SLT AND AND ISZERO PUSH2 0x11F5 JUMPI PUSH2 0x11F4 PUSH2 0x1464 JUMP JUMPDEST JUMPDEST DUP3 PUSH32 0x7FFFFFFFFFFFFFFFFFFFFFFFFFFFFFFFFFFFFFFFFFFFFFFFFFFFFFFFFFFFFFFF SDIV DUP3 SLT PUSH1 0x0 DUP5 SLT PUSH1 0x0 DUP5 SLT AND AND ISZERO PUSH2 0x1232 JUMPI PUSH2 0x1231 PUSH2 0x1464 JUMP JUMPDEST JUMPDEST DUP3 DUP3 MUL SWAP1 POP SWAP3 SWAP2 POP POP JUMP JUMPDEST PUSH1 0x0 PUSH2 0x1248 DUP3 PUSH2 0x12E3 JUMP JUMPDEST SWAP2 POP PUSH2 0x1253 DUP4 PUSH2 0x12E3 JUMP JUMPDEST SWAP3 POP DUP3 PUSH32 0x8000000000000000000000000000000000000000000000000000000000000000 ADD DUP3 SLT PUSH1 0x0 DUP5 SLT ISZERO AND ISZERO PUSH2 0x128E JUMPI PUSH2 0x128D PUSH2 0x1464 JUMP JUMPDEST JUMPDEST DUP3 PUSH32 0x7FFFFFFFFFFFFFFFFFFFFFFFFFFFFFFFFFFFFFFFFFFFFFFFFFFFFFFFFFFFFFFF ADD DUP3 SGT PUSH1 0x0 DUP5 SLT AND ISZERO PUSH2 0x12C6 JUMPI PUSH2 0x12C5 PUSH2 0x1464 JUMP JUMPDEST JUMPDEST DUP3 DUP3 SUB SWAP1 POP SWAP3 SWAP2 POP POP JUMP JUMPDEST PUSH1 0x0 PUSH2 0x12DC DUP3 PUSH2 0x12ED JUMP JUMPDEST SWAP1 POP SWAP2 SWAP1 POP JUMP JUMPDEST PUSH1 0x0 DUP2 SWAP1 POP SWAP2 SWAP1 POP JUMP JUMPDEST PUSH1 0x0 PUSH20 0xFFFFFFFFFFFFFFFFFFFFFFFFFFFFFFFFFFFFFFFF DUP3 AND SWAP1 POP SWAP2 SWAP1 POP JUMP JUMPDEST PUSH1 0x0 DUP2 SWAP1 POP SWAP2 SWAP1 POP JUMP JUMPDEST DUP3 DUP2 DUP4 CALLDATACOPY PUSH1 0x0 DUP4 DUP4 ADD MSTORE POP POP POP JUMP JUMPDEST PUSH1 0x0 JUMPDEST DUP4 DUP2 LT ISZERO PUSH2 0x1344 JUMPI DUP1 DUP3 ADD MLOAD DUP2 DUP5 ADD MSTORE PUSH1 0x20 DUP2 ADD SWAP1 POP PUSH2 0x1329 JUMP JUMPDEST DUP4 DUP2 GT ISZERO PUSH2 0x1353 JUMPI PUSH1 0x0 DUP5 DUP5 ADD MSTORE JUMPDEST POP POP POP POP JUMP JUMPDEST PUSH1 0x0 PUSH1 0x2 DUP3 DIV SWAP1 POP PUSH1 0x1 DUP3 AND DUP1 PUSH2 0x1371 JUMPI PUSH1 0x7F DUP3 AND SWAP2 POP JUMPDEST PUSH1 0x20 DUP3 LT DUP2 EQ ISZERO PUSH2 0x1385 JUMPI PUSH2 0x1384 PUSH2 0x14C2 JUMP JUMPDEST JUMPDEST POP SWAP2 SWAP1 POP JUMP JUMPDEST PUSH2 0x1394 DUP3 PUSH2 0x1563 JUMP JUMPDEST DUP2 ADD DUP2 DUP2 LT PUSH8 0xFFFFFFFFFFFFFFFF DUP3 GT OR ISZERO PUSH2 0x13B3 JUMPI PUSH2 0x13B2 PUSH2 0x1520 JUMP JUMPDEST JUMPDEST DUP1 PUSH1 0x40 MSTORE POP POP POP JUMP JUMPDEST PUSH1 0x0 PUSH2 0x13C7 DUP3 PUSH2 0x130D JUMP JUMPDEST SWAP2 POP PUSH32 0xFFFFFFFFFFFFFFFFFFFFFFFFFFFFFFFFFFFFFFFFFFFFFFFFFFFFFFFFFFFFFFFF DUP3 EQ ISZERO PUSH2 0x13FA JUMPI PUSH2 0x13F9 PUSH2 0x1464 JUMP JUMPDEST JUMPDEST PUSH1 0x1 DUP3 ADD SWAP1 POP SWAP2 SWAP1 POP JUMP JUMPDEST PUSH1 0x0 PUSH2 0x1410 DUP3 PUSH2 0x1417 JUMP JUMPDEST SWAP1 POP SWAP2 SWAP1 POP JUMP JUMPDEST PUSH1 0x0 PUSH2 0x1422 DUP3 PUSH2 0x1574 JUMP JUMPDEST SWAP1 POP SWAP2 SWAP1 POP JUMP JUMPDEST PUSH1 0x0 DUP2 SWAP1 POP SWAP2 SWAP1 POP JUMP JUMPDEST PUSH1 0x0 PUSH2 0x143E DUP3 PUSH2 0x130D JUMP JUMPDEST SWAP2 POP PUSH2 0x1449 DUP4 PUSH2 0x130D JUMP JUMPDEST SWAP3 POP DUP3 PUSH2 0x1459 JUMPI PUSH2 0x1458 PUSH2 0x1493 JUMP JUMPDEST JUMPDEST DUP3 DUP3 MOD SWAP1 POP SWAP3 SWAP2 POP POP JUMP JUMPDEST PUSH32 0x4E487B7100000000000000000000000000000000000000000000000000000000 PUSH1 0x0 MSTORE PUSH1 0x11 PUSH1 0x4 MSTORE PUSH1 0x24 PUSH1 0x0 REVERT JUMPDEST PUSH32 0x4E487B7100000000000000000000000000000000000000000000000000000000 PUSH1 0x0 MSTORE PUSH1 0x12 PUSH1 0x4 MSTORE PUSH1 0x24 PUSH1 0x0 REVERT JUMPDEST PUSH32 0x4E487B7100000000000000000000000000000000000000000000000000000000 PUSH1 0x0 MSTORE PUSH1 0x22 PUSH1 0x4 MSTORE PUSH1 0x24 PUSH1 0x0 REVERT JUMPDEST PUSH32 0x4E487B7100000000000000000000000000000000000000000000000000000000 PUSH1 0x0 MSTORE PUSH1 0x32 PUSH1 0x4 MSTORE PUSH1 0x24 PUSH1 0x0 REVERT JUMPDEST PUSH32 0x4E487B7100000000000000000000000000000000000000000000000000000000 PUSH1 0x0 MSTORE PUSH1 0x41 PUSH1 0x4 MSTORE PUSH1 0x24 PUSH1 0x0 REVERT JUMPDEST PUSH1 0x0 DUP1 REVERT JUMPDEST PUSH1 0x0 DUP1 REVERT JUMPDEST PUSH1 0x0 DUP1 REVERT JUMPDEST PUSH1 0x0 DUP1 REVERT JUMPDEST PUSH1 0x0 PUSH1 0x1F NOT PUSH1 0x1F DUP4 ADD AND SWAP1 POP SWAP2 SWAP1 POP JUMP JUMPDEST PUSH1 0x0 DUP2 PUSH1 0x60 SHL SWAP1 POP SWAP2 SWAP1 POP JUMP JUMPDEST PUSH2 0x158A DUP2 PUSH2 0x12D1 JUMP JUMPDEST DUP2 EQ PUSH2 0x1595 JUMPI PUSH1 0x0 DUP1 REVERT JUMPDEST POP JUMP JUMPDEST PUSH2 0x15A1 DUP2 PUSH2 0x130D JUMP JUMPDEST DUP2 EQ PUSH2 0x15AC JUMPI PUSH1 0x0 DUP1 REVERT JUMPDEST POP JUMP INVALID LOG2 PUSH5 0x6970667358 0x22 SLT KECCAK256 0x5D RETURNDATASIZE LOG1 BASEFEE PUSH27 0x1F2C4D69650AA1739772EF23A13CD2C53E8AE29D033EAE5ECD4216 PUSH5 0x736F6C6343 STOP ADDMOD SMOD STOP CALLER "
				},
				"gasEstimates": {
					"creation": {
						"codeDepositCost": "1121000",
						"executionCost": "infinite",
						"totalCost": "infinite"
					},
					"external": {
						"Attack(address)": "infinite",
						"Stats(address,uint256)": "3060",
						"join(string)": "infinite",
						"minter()": "2489",
						"names(address)": "infinite",
						"players(uint256)": "5044"
					},
					"internal": {
						"RemoveTheDead(address)": "infinite",
						"random(uint256)": "infinite"
					}
				},
				"methodIdentifiers": {
					"Attack(address)": "bc346c9c",
					"Stats(address,uint256)": "abf5f2ed",
					"join(string)": "6a786b07",
					"minter()": "07546172",
					"names(address)": "5cf3d346",
					"players(uint256)": "f71d96cb"
				}
			},
			"storageLayout": {
				"storage": [
					{
						"astId": 3,
						"contract": "AttackGame.sol:AttackGame",
						"label": "minter",
						"offset": 0,
						"slot": "0",
						"type": "t_address"
					},
					{
						"astId": 9,
						"contract": "AttackGame.sol:AttackGame",
						"label": "Stats",
						"offset": 0,
						"slot": "1",
						"type": "t_mapping(t_address,t_array(t_int256)3_storage)"
					},
					{
						"astId": 13,
						"contract": "AttackGame.sol:AttackGame",
						"label": "joined",
						"offset": 0,
						"slot": "2",
						"type": "t_mapping(t_address,t_bool)"
					},
					{
						"astId": 17,
						"contract": "AttackGame.sol:AttackGame",
						"label": "names",
						"offset": 0,
						"slot": "3",
						"type": "t_mapping(t_address,t_string_storage)"
					},
					{
						"astId": 24,
						"contract": "AttackGame.sol:AttackGame",
						"label": "StatsInfo",
						"offset": 0,
						"slot": "4",
						"type": "t_array(t_string_storage)dyn_storage"
					},
					{
						"astId": 27,
						"contract": "AttackGame.sol:AttackGame",
						"label": "players",
						"offset": 0,
						"slot": "5",
						"type": "t_array(t_address)dyn_storage"
					}
				],
				"types": {
					"t_address": {
						"encoding": "inplace",
						"label": "address",
						"numberOfBytes": "20"
					},
					"t_array(t_address)dyn_storage": {
						"base": "t_address",
						"encoding": "dynamic_array",
						"label": "address[]",
						"numberOfBytes": "32"
					},
					"t_array(t_int256)3_storage": {
						"base": "t_int256",
						"encoding": "inplace",
						"label": "int256[3]",
						"numberOfBytes": "96"
					},
					"t_array(t_string_storage)dyn_storage": {
						"base": "t_string_storage",
						"encoding": "dynamic_array",
						"label": "string[]",
						"numberOfBytes": "32"
					},
					"t_bool": {
						"encoding": "inplace",
						"label": "bool",
						"numberOfBytes": "1"
					},
					"t_int256": {
						"encoding": "inplace",
						"label": "int256",
						"numberOfBytes": "32"
					},
					"t_mapping(t_address,t_array(t_int256)3_storage)": {
						"encoding": "mapping",
						"key": "t_address",
						"label": "mapping(address => int256[3])",
						"numberOfBytes": "32",
						"value": "t_array(t_int256)3_storage"
					},
					"t_mapping(t_address,t_bool)": {
						"encoding": "mapping",
						"key": "t_address",
						"label": "mapping(address => bool)",
						"numberOfBytes": "32",
						"value": "t_bool"
					},
					"t_mapping(t_address,t_string_storage)": {
						"encoding": "mapping",
						"key": "t_address",
						"label": "mapping(address => string)",
						"numberOfBytes": "32",
						"value": "t_string_storage"
					},
					"t_string_storage": {
						"encoding": "bytes",
						"label": "string",
						"numberOfBytes": "32"
					}
				}
			},
			"userdoc": {
				"kind": "user",
				"methods": {},
				"version": 1
			}
		}
	}
}