{
	"SimpleMath.sol": {
		"SimpleMath": {
			"abi": [
				{
					"inputs": [],
					"name": "checkNumbers",
					"outputs": [
						{
							"internalType": "uint256",
							"name": "",
							"type": "uint256"
						},
						{
							"internalType": "uint256",
							"name": "",
							"type": "uint256"
						}
					],
					"stateMutability": "nonpayable",
					"type": "function"
				},
				{
					"inputs": [],
					"name": "checklatestOpration",
					"outputs": [
						{
							"internalType": "string",
							"name": "",
							"type": "string"
						}
					],
					"stateMutability": "nonpayable",
					"type": "function"
				},
				{
					"inputs": [],
					"name": "checklatestResult",
					"outputs": [
						{
							"internalType": "uint256",
							"name": "",
							"type": "uint256"
						}
					],
					"stateMutability": "nonpayable",
					"type": "function"
				},
				{
					"inputs": [
						{
							"internalType": "string",
							"name": "opration",
							"type": "string"
						}
					],
					"name": "math",
					"outputs": [
						{
							"internalType": "bool",
							"name": "",
							"type": "bool"
						},
						{
							"internalType": "uint256",
							"name": "",
							"type": "uint256"
						}
					],
					"stateMutability": "nonpayable",
					"type": "function"
				},
				{
					"inputs": [
						{
							"internalType": "uint256",
							"name": "VarfirstNumber",
							"type": "uint256"
						},
						{
							"internalType": "uint256",
							"name": "VarSecondNumber",
							"type": "uint256"
						}
					],
					"name": "set",
					"outputs": [],
					"stateMutability": "nonpayable",
					"type": "function"
				}
			],
			"devdoc": {
				"kind": "dev",
				"methods": {},
				"version": 1
			},
			"evm": {
				"assembly": "    /* \"SimpleMath.sol\":246:1748  contract SimpleMath {\r... */\n  mstore(0x40, 0x80)\n  callvalue\n  dup1\n  iszero\n  tag_1\n  jumpi\n  0x00\n  dup1\n  revert\ntag_1:\n  pop\n  dataSize(sub_0)\n  dup1\n  dataOffset(sub_0)\n  0x00\n  codecopy\n  0x00\n  return\nstop\n\nsub_0: assembly {\n        /* \"SimpleMath.sol\":246:1748  contract SimpleMath {\r... */\n      mstore(0x40, 0x80)\n      callvalue\n      dup1\n      iszero\n      tag_1\n      jumpi\n      0x00\n      dup1\n      revert\n    tag_1:\n      pop\n      jumpi(tag_2, lt(calldatasize, 0x04))\n      shr(0xe0, calldataload(0x00))\n      dup1\n      0x1ab06ee5\n      eq\n      tag_3\n      jumpi\n      dup1\n      0x49d7f9f6\n      eq\n      tag_4\n      jumpi\n      dup1\n      0x4f460894\n      eq\n      tag_5\n      jumpi\n      dup1\n      0x5ecbe8e4\n      eq\n      tag_6\n      jumpi\n      dup1\n      0x679915f9\n      eq\n      tag_7\n      jumpi\n    tag_2:\n      0x00\n      dup1\n      revert\n        /* \"SimpleMath.sol\":374:524  function set(uint VarfirstNumber,uint VarSecondNumber) public {\r... */\n    tag_3:\n      tag_8\n      0x04\n      dup1\n      calldatasize\n      sub\n      dup2\n      add\n      swap1\n      tag_9\n      swap2\n      swap1\n      tag_10\n      jump\t// in\n    tag_9:\n      tag_11\n      jump\t// in\n    tag_8:\n      stop\n        /* \"SimpleMath.sol\":755:846  function checklatestResult() public returns (uint) {\r... */\n    tag_4:\n      tag_12\n      tag_13\n      jump\t// in\n    tag_12:\n      mload(0x40)\n      tag_14\n      swap2\n      swap1\n      tag_15\n      jump\t// in\n    tag_14:\n      mload(0x40)\n      dup1\n      swap2\n      sub\n      swap1\n      return\n        /* \"SimpleMath.sol\":532:635  function checkNumbers() public returns (uint,uint) {\r... */\n    tag_5:\n      tag_16\n      tag_17\n      jump\t// in\n    tag_16:\n      mload(0x40)\n      tag_18\n      swap3\n      swap2\n      swap1\n      tag_19\n      jump\t// in\n    tag_18:\n      mload(0x40)\n      dup1\n      swap2\n      sub\n      swap1\n      return\n        /* \"SimpleMath.sol\":643:747  function checklatestOpration() public returns (string memory) {\r... */\n    tag_6:\n      tag_20\n      tag_21\n      jump\t// in\n    tag_20:\n      mload(0x40)\n      tag_22\n      swap2\n      swap1\n      tag_23\n      jump\t// in\n    tag_22:\n      mload(0x40)\n      dup1\n      swap2\n      sub\n      swap1\n      return\n        /* \"SimpleMath.sol\":922:1745  function math(string memory opration) public returns(bool,uint){\r... */\n    tag_7:\n      tag_24\n      0x04\n      dup1\n      calldatasize\n      sub\n      dup2\n      add\n      swap1\n      tag_25\n      swap2\n      swap1\n      tag_26\n      jump\t// in\n    tag_25:\n      tag_27\n      jump\t// in\n    tag_24:\n      mload(0x40)\n      tag_28\n      swap3\n      swap2\n      swap1\n      tag_29\n      jump\t// in\n    tag_28:\n      mload(0x40)\n      dup1\n      swap2\n      sub\n      swap1\n      return\n        /* \"SimpleMath.sol\":374:524  function set(uint VarfirstNumber,uint VarSecondNumber) public {\r... */\n    tag_11:\n        /* \"SimpleMath.sol\":461:475  VarfirstNumber */\n      dup2\n        /* \"SimpleMath.sol\":447:458  firstNumber */\n      0x00\n        /* \"SimpleMath.sol\":447:475  firstNumber = VarfirstNumber */\n      dup2\n      swap1\n      sstore\n      pop\n        /* \"SimpleMath.sol\":501:516  VarSecondNumber */\n      dup1\n        /* \"SimpleMath.sol\":486:498  SecondNumber */\n      0x01\n        /* \"SimpleMath.sol\":486:516  SecondNumber = VarSecondNumber */\n      dup2\n      swap1\n      sstore\n      pop\n        /* \"SimpleMath.sol\":374:524  function set(uint VarfirstNumber,uint VarSecondNumber) public {\r... */\n      pop\n      pop\n      jump\t// out\n        /* \"SimpleMath.sol\":755:846  function checklatestResult() public returns (uint) {\r... */\n    tag_13:\n        /* \"SimpleMath.sol\":800:804  uint */\n      0x00\n        /* \"SimpleMath.sol\":825:837  latestResult */\n      sload(0x02)\n        /* \"SimpleMath.sol\":817:838  return (latestResult) */\n      swap1\n      pop\n        /* \"SimpleMath.sol\":755:846  function checklatestResult() public returns (uint) {\r... */\n      swap1\n      jump\t// out\n        /* \"SimpleMath.sol\":532:635  function checkNumbers() public returns (uint,uint) {\r... */\n    tag_17:\n        /* \"SimpleMath.sol\":572:576  uint */\n      0x00\n        /* \"SimpleMath.sol\":577:581  uint */\n      dup1\n        /* \"SimpleMath.sol\":602:613  firstNumber */\n      sload(0x00)\n        /* \"SimpleMath.sol\":614:626  SecondNumber */\n      sload(0x01)\n        /* \"SimpleMath.sol\":594:627  return (firstNumber,SecondNumber) */\n      swap2\n      pop\n      swap2\n      pop\n        /* \"SimpleMath.sol\":532:635  function checkNumbers() public returns (uint,uint) {\r... */\n      swap1\n      swap2\n      jump\t// out\n        /* \"SimpleMath.sol\":643:747  function checklatestOpration() public returns (string memory) {\r... */\n    tag_21:\n        /* \"SimpleMath.sol\":690:703  string memory */\n      0x60\n        /* \"SimpleMath.sol\":724:738  latestOpration */\n      0x03\n        /* \"SimpleMath.sol\":716:739  return (latestOpration) */\n      dup1\n      sload\n      tag_34\n      swap1\n      tag_35\n      jump\t// in\n    tag_34:\n      dup1\n      0x1f\n      add\n      0x20\n      dup1\n      swap2\n      div\n      mul\n      0x20\n      add\n      mload(0x40)\n      swap1\n      dup2\n      add\n      0x40\n      mstore\n      dup1\n      swap3\n      swap2\n      swap1\n      dup2\n      dup2\n      mstore\n      0x20\n      add\n      dup3\n      dup1\n      sload\n      tag_36\n      swap1\n      tag_35\n      jump\t// in\n    tag_36:\n      dup1\n      iszero\n      tag_37\n      jumpi\n      dup1\n      0x1f\n      lt\n      tag_38\n      jumpi\n      0x0100\n      dup1\n      dup4\n      sload\n      div\n      mul\n      dup4\n      mstore\n      swap2\n      0x20\n      add\n      swap2\n      jump(tag_37)\n    tag_38:\n      dup3\n      add\n      swap2\n      swap1\n      0x00\n      mstore\n      keccak256(0x00, 0x20)\n      swap1\n    tag_39:\n      dup2\n      sload\n      dup2\n      mstore\n      swap1\n      0x01\n      add\n      swap1\n      0x20\n      add\n      dup1\n      dup4\n      gt\n      tag_39\n      jumpi\n      dup3\n      swap1\n      sub\n      0x1f\n      and\n      dup3\n      add\n      swap2\n    tag_37:\n      pop\n      pop\n      pop\n      pop\n      pop\n      swap1\n      pop\n        /* \"SimpleMath.sol\":643:747  function checklatestOpration() public returns (string memory) {\r... */\n      swap1\n      jump\t// out\n        /* \"SimpleMath.sol\":922:1745  function math(string memory opration) public returns(bool,uint){\r... */\n    tag_27:\n        /* \"SimpleMath.sol\":975:979  bool */\n      0x00\n        /* \"SimpleMath.sol\":980:984  uint */\n      dup1\n        /* \"SimpleMath.sol\":1040:1052  bytes('sum') */\n      mload(0x40)\n      dup1\n      0x40\n      add\n      0x40\n      mstore\n      dup1\n      0x03\n      dup2\n      mstore\n      0x20\n      add\n      0x73756d0000000000000000000000000000000000000000000000000000000000\n      dup2\n      mstore\n      pop\n        /* \"SimpleMath.sol\":1030:1053  keccak256(bytes('sum')) */\n      dup1\n      mload\n      swap1\n      0x20\n      add\n      keccak256\n        /* \"SimpleMath.sol\":1018:1026  opration */\n      dup4\n        /* \"SimpleMath.sol\":1002:1028  keccak256(bytes(opration)) */\n      dup1\n      mload\n      swap1\n      0x20\n      add\n      keccak256\n        /* \"SimpleMath.sol\":1002:1053  keccak256(bytes(opration))==keccak256(bytes('sum')) */\n      eq\n        /* \"SimpleMath.sol\":998:1664  if (keccak256(bytes(opration))==keccak256(bytes('sum'))){\r... */\n      iszero\n      tag_41\n      jumpi\n        /* \"SimpleMath.sol\":1098:1110  SecondNumber */\n      sload(0x01)\n        /* \"SimpleMath.sol\":1084:1095  firstNumber */\n      sload(0x00)\n        /* \"SimpleMath.sol\":1084:1110  firstNumber + SecondNumber */\n      tag_42\n      swap2\n      swap1\n      tag_43\n      jump\t// in\n    tag_42:\n        /* \"SimpleMath.sol\":1069:1081  latestResult */\n      0x02\n        /* \"SimpleMath.sol\":1069:1110  latestResult = firstNumber + SecondNumber */\n      dup2\n      swap1\n      sstore\n      pop\n        /* \"SimpleMath.sol\":998:1664  if (keccak256(bytes(opration))==keccak256(bytes('sum'))){\r... */\n      jump(tag_44)\n    tag_41:\n        /* \"SimpleMath.sol\":1179:1193  bytes('minus') */\n      mload(0x40)\n      dup1\n      0x40\n      add\n      0x40\n      mstore\n      dup1\n      0x05\n      dup2\n      mstore\n      0x20\n      add\n      0x6d696e7573000000000000000000000000000000000000000000000000000000\n      dup2\n      mstore\n      pop\n        /* \"SimpleMath.sol\":1169:1194  keccak256(bytes('minus')) */\n      dup1\n      mload\n      swap1\n      0x20\n      add\n      keccak256\n        /* \"SimpleMath.sol\":1157:1165  opration */\n      dup4\n        /* \"SimpleMath.sol\":1141:1167  keccak256(bytes(opration)) */\n      dup1\n      mload\n      swap1\n      0x20\n      add\n      keccak256\n        /* \"SimpleMath.sol\":1141:1194  keccak256(bytes(opration))==keccak256(bytes('minus')) */\n      eq\n        /* \"SimpleMath.sol\":1137:1664  if (keccak256(bytes(opration))==keccak256(bytes('minus'))){\r... */\n      iszero\n      tag_45\n      jumpi\n        /* \"SimpleMath.sol\":1239:1251  SecondNumber */\n      sload(0x01)\n        /* \"SimpleMath.sol\":1225:1236  firstNumber */\n      sload(0x00)\n        /* \"SimpleMath.sol\":1225:1251  firstNumber - SecondNumber */\n      tag_46\n      swap2\n      swap1\n      tag_47\n      jump\t// in\n    tag_46:\n        /* \"SimpleMath.sol\":1210:1222  latestResult */\n      0x02\n        /* \"SimpleMath.sol\":1210:1251  latestResult = firstNumber - SecondNumber */\n      dup2\n      swap1\n      sstore\n      pop\n        /* \"SimpleMath.sol\":1137:1664  if (keccak256(bytes(opration))==keccak256(bytes('minus'))){\r... */\n      jump(tag_48)\n    tag_45:\n        /* \"SimpleMath.sol\":1321:1338  bytes('multiple') */\n      mload(0x40)\n      dup1\n      0x40\n      add\n      0x40\n      mstore\n      dup1\n      0x08\n      dup2\n      mstore\n      0x20\n      add\n      0x6d756c7469706c65000000000000000000000000000000000000000000000000\n      dup2\n      mstore\n      pop\n        /* \"SimpleMath.sol\":1311:1339  keccak256(bytes('multiple')) */\n      dup1\n      mload\n      swap1\n      0x20\n      add\n      keccak256\n        /* \"SimpleMath.sol\":1299:1307  opration */\n      dup4\n        /* \"SimpleMath.sol\":1283:1309  keccak256(bytes(opration)) */\n      dup1\n      mload\n      swap1\n      0x20\n      add\n      keccak256\n        /* \"SimpleMath.sol\":1283:1339  keccak256(bytes(opration))==keccak256(bytes('multiple')) */\n      eq\n        /* \"SimpleMath.sol\":1279:1664  if (keccak256(bytes(opration))==keccak256(bytes('multiple'))){\r... */\n      iszero\n      tag_49\n      jumpi\n        /* \"SimpleMath.sol\":1384:1396  SecondNumber */\n      sload(0x01)\n        /* \"SimpleMath.sol\":1370:1381  firstNumber */\n      sload(0x00)\n        /* \"SimpleMath.sol\":1370:1396  firstNumber * SecondNumber */\n      tag_50\n      swap2\n      swap1\n      tag_51\n      jump\t// in\n    tag_50:\n        /* \"SimpleMath.sol\":1355:1367  latestResult */\n      0x02\n        /* \"SimpleMath.sol\":1355:1396  latestResult = firstNumber * SecondNumber */\n      dup2\n      swap1\n      sstore\n      pop\n        /* \"SimpleMath.sol\":1279:1664  if (keccak256(bytes(opration))==keccak256(bytes('multiple'))){\r... */\n      jump(tag_52)\n    tag_49:\n        /* \"SimpleMath.sol\":1466:1481  bytes('divide') */\n      mload(0x40)\n      dup1\n      0x40\n      add\n      0x40\n      mstore\n      dup1\n      0x06\n      dup2\n      mstore\n      0x20\n      add\n      0x6469766964650000000000000000000000000000000000000000000000000000\n      dup2\n      mstore\n      pop\n        /* \"SimpleMath.sol\":1456:1482  keccak256(bytes('divide')) */\n      dup1\n      mload\n      swap1\n      0x20\n      add\n      keccak256\n        /* \"SimpleMath.sol\":1444:1452  opration */\n      dup4\n        /* \"SimpleMath.sol\":1428:1454  keccak256(bytes(opration)) */\n      dup1\n      mload\n      swap1\n      0x20\n      add\n      keccak256\n        /* \"SimpleMath.sol\":1428:1482  keccak256(bytes(opration))==keccak256(bytes('divide')) */\n      eq\n        /* \"SimpleMath.sol\":1424:1664  if (keccak256(bytes(opration))==keccak256(bytes('divide'))){\r... */\n      iszero\n      tag_53\n      jumpi\n        /* \"SimpleMath.sol\":1527:1539  SecondNumber */\n      sload(0x01)\n        /* \"SimpleMath.sol\":1513:1524  firstNumber */\n      sload(0x00)\n        /* \"SimpleMath.sol\":1513:1539  firstNumber / SecondNumber */\n      tag_54\n      swap2\n      swap1\n      tag_55\n      jump\t// in\n    tag_54:\n        /* \"SimpleMath.sol\":1498:1510  latestResult */\n      0x02\n        /* \"SimpleMath.sol\":1498:1539  latestResult = firstNumber / SecondNumber */\n      dup2\n      swap1\n      sstore\n      pop\n        /* \"SimpleMath.sol\":1424:1664  if (keccak256(bytes(opration))==keccak256(bytes('divide'))){\r... */\n      jump(tag_56)\n    tag_53:\n        /* \"SimpleMath.sol\":1644:1649  false */\n      0x00\n        /* \"SimpleMath.sol\":1650:1651  0 */\n      dup1\n        /* \"SimpleMath.sol\":1636:1652  return (false,0) */\n      swap2\n      pop\n      swap2\n      pop\n      jump(tag_40)\n        /* \"SimpleMath.sol\":1424:1664  if (keccak256(bytes(opration))==keccak256(bytes('divide'))){\r... */\n    tag_56:\n        /* \"SimpleMath.sol\":1279:1664  if (keccak256(bytes(opration))==keccak256(bytes('multiple'))){\r... */\n    tag_52:\n        /* \"SimpleMath.sol\":1137:1664  if (keccak256(bytes(opration))==keccak256(bytes('minus'))){\r... */\n    tag_48:\n        /* \"SimpleMath.sol\":998:1664  if (keccak256(bytes(opration))==keccak256(bytes('sum'))){\r... */\n    tag_44:\n        /* \"SimpleMath.sol\":1692:1700  opration */\n      dup3\n        /* \"SimpleMath.sol\":1675:1689  latestOpration */\n      0x03\n        /* \"SimpleMath.sol\":1675:1700  latestOpration = opration */\n      swap1\n      dup1\n      mload\n      swap1\n      0x20\n      add\n      swap1\n      tag_57\n      swap3\n      swap2\n      swap1\n      tag_58\n      jump\t// in\n    tag_57:\n      pop\n        /* \"SimpleMath.sol\":1719:1723  true */\n      0x01\n        /* \"SimpleMath.sol\":1724:1736  latestResult */\n      sload(0x02)\n        /* \"SimpleMath.sol\":1711:1737  return (true,latestResult) */\n      swap2\n      pop\n      swap2\n      pop\n        /* \"SimpleMath.sol\":922:1745  function math(string memory opration) public returns(bool,uint){\r... */\n    tag_40:\n      swap2\n      pop\n      swap2\n      jump\t// out\n    tag_58:\n      dup3\n      dup1\n      sload\n      tag_59\n      swap1\n      tag_35\n      jump\t// in\n    tag_59:\n      swap1\n      0x00\n      mstore\n      keccak256(0x00, 0x20)\n      swap1\n      0x1f\n      add\n      0x20\n      swap1\n      div\n      dup2\n      add\n      swap3\n      dup3\n      tag_61\n      jumpi\n      0x00\n      dup6\n      sstore\n      jump(tag_60)\n    tag_61:\n      dup3\n      0x1f\n      lt\n      tag_62\n      jumpi\n      dup1\n      mload\n      not(0xff)\n      and\n      dup4\n      dup1\n      add\n      or\n      dup6\n      sstore\n      jump(tag_60)\n    tag_62:\n      dup3\n      dup1\n      add\n      0x01\n      add\n      dup6\n      sstore\n      dup3\n      iszero\n      tag_60\n      jumpi\n      swap2\n      dup3\n      add\n    tag_63:\n      dup3\n      dup2\n      gt\n      iszero\n      tag_64\n      jumpi\n      dup3\n      mload\n      dup3\n      sstore\n      swap2\n      0x20\n      add\n      swap2\n      swap1\n      0x01\n      add\n      swap1\n      jump(tag_63)\n    tag_64:\n    tag_60:\n      pop\n      swap1\n      pop\n      tag_65\n      swap2\n      swap1\n      tag_66\n      jump\t// in\n    tag_65:\n      pop\n      swap1\n      jump\t// out\n    tag_66:\n    tag_67:\n      dup1\n      dup3\n      gt\n      iszero\n      tag_68\n      jumpi\n      0x00\n      dup2\n      0x00\n      swap1\n      sstore\n      pop\n      0x01\n      add\n      jump(tag_67)\n    tag_68:\n      pop\n      swap1\n      jump\t// out\n        /* \"#utility.yul\":7:419   */\n    tag_70:\n        /* \"#utility.yul\":85:90   */\n      0x00\n        /* \"#utility.yul\":110:176   */\n      tag_72\n        /* \"#utility.yul\":126:175   */\n      tag_73\n        /* \"#utility.yul\":168:174   */\n      dup5\n        /* \"#utility.yul\":126:175   */\n      tag_74\n      jump\t// in\n    tag_73:\n        /* \"#utility.yul\":110:176   */\n      tag_75\n      jump\t// in\n    tag_72:\n        /* \"#utility.yul\":101:176   */\n      swap1\n      pop\n        /* \"#utility.yul\":199:205   */\n      dup3\n        /* \"#utility.yul\":192:197   */\n      dup2\n        /* \"#utility.yul\":185:206   */\n      mstore\n        /* \"#utility.yul\":237:241   */\n      0x20\n        /* \"#utility.yul\":230:235   */\n      dup2\n        /* \"#utility.yul\":226:242   */\n      add\n        /* \"#utility.yul\":275:278   */\n      dup5\n        /* \"#utility.yul\":266:272   */\n      dup5\n        /* \"#utility.yul\":261:264   */\n      dup5\n        /* \"#utility.yul\":257:273   */\n      add\n        /* \"#utility.yul\":254:279   */\n      gt\n        /* \"#utility.yul\":251:363   */\n      iszero\n      tag_76\n      jumpi\n        /* \"#utility.yul\":282:361   */\n      tag_77\n      tag_78\n      jump\t// in\n    tag_77:\n        /* \"#utility.yul\":251:363   */\n    tag_76:\n        /* \"#utility.yul\":372:413   */\n      tag_79\n        /* \"#utility.yul\":406:412   */\n      dup5\n        /* \"#utility.yul\":401:404   */\n      dup3\n        /* \"#utility.yul\":396:399   */\n      dup6\n        /* \"#utility.yul\":372:413   */\n      tag_80\n      jump\t// in\n    tag_79:\n        /* \"#utility.yul\":91:419   */\n      pop\n        /* \"#utility.yul\":7:419   */\n      swap4\n      swap3\n      pop\n      pop\n      pop\n      jump\t// out\n        /* \"#utility.yul\":439:779   */\n    tag_81:\n        /* \"#utility.yul\":495:500   */\n      0x00\n        /* \"#utility.yul\":544:547   */\n      dup3\n        /* \"#utility.yul\":537:541   */\n      0x1f\n        /* \"#utility.yul\":529:535   */\n      dup4\n        /* \"#utility.yul\":525:542   */\n      add\n        /* \"#utility.yul\":521:548   */\n      slt\n        /* \"#utility.yul\":511:633   */\n      tag_83\n      jumpi\n        /* \"#utility.yul\":552:631   */\n      tag_84\n      tag_85\n      jump\t// in\n    tag_84:\n        /* \"#utility.yul\":511:633   */\n    tag_83:\n        /* \"#utility.yul\":669:675   */\n      dup2\n        /* \"#utility.yul\":656:676   */\n      calldataload\n        /* \"#utility.yul\":694:773   */\n      tag_86\n        /* \"#utility.yul\":769:772   */\n      dup5\n        /* \"#utility.yul\":761:767   */\n      dup3\n        /* \"#utility.yul\":754:758   */\n      0x20\n        /* \"#utility.yul\":746:752   */\n      dup7\n        /* \"#utility.yul\":742:759   */\n      add\n        /* \"#utility.yul\":694:773   */\n      tag_70\n      jump\t// in\n    tag_86:\n        /* \"#utility.yul\":685:773   */\n      swap2\n      pop\n        /* \"#utility.yul\":501:779   */\n      pop\n        /* \"#utility.yul\":439:779   */\n      swap3\n      swap2\n      pop\n      pop\n      jump\t// out\n        /* \"#utility.yul\":785:924   */\n    tag_87:\n        /* \"#utility.yul\":831:836   */\n      0x00\n        /* \"#utility.yul\":869:875   */\n      dup2\n        /* \"#utility.yul\":856:876   */\n      calldataload\n        /* \"#utility.yul\":847:876   */\n      swap1\n      pop\n        /* \"#utility.yul\":885:918   */\n      tag_89\n        /* \"#utility.yul\":912:917   */\n      dup2\n        /* \"#utility.yul\":885:918   */\n      tag_90\n      jump\t// in\n    tag_89:\n        /* \"#utility.yul\":785:924   */\n      swap3\n      swap2\n      pop\n      pop\n      jump\t// out\n        /* \"#utility.yul\":930:1439   */\n    tag_26:\n        /* \"#utility.yul\":999:1005   */\n      0x00\n        /* \"#utility.yul\":1048:1050   */\n      0x20\n        /* \"#utility.yul\":1036:1045   */\n      dup3\n        /* \"#utility.yul\":1027:1034   */\n      dup5\n        /* \"#utility.yul\":1023:1046   */\n      sub\n        /* \"#utility.yul\":1019:1051   */\n      slt\n        /* \"#utility.yul\":1016:1135   */\n      iszero\n      tag_92\n      jumpi\n        /* \"#utility.yul\":1054:1133   */\n      tag_93\n      tag_94\n      jump\t// in\n    tag_93:\n        /* \"#utility.yul\":1016:1135   */\n    tag_92:\n        /* \"#utility.yul\":1202:1203   */\n      0x00\n        /* \"#utility.yul\":1191:1200   */\n      dup3\n        /* \"#utility.yul\":1187:1204   */\n      add\n        /* \"#utility.yul\":1174:1205   */\n      calldataload\n        /* \"#utility.yul\":1232:1250   */\n      0xffffffffffffffff\n        /* \"#utility.yul\":1224:1230   */\n      dup2\n        /* \"#utility.yul\":1221:1251   */\n      gt\n        /* \"#utility.yul\":1218:1335   */\n      iszero\n      tag_95\n      jumpi\n        /* \"#utility.yul\":1254:1333   */\n      tag_96\n      tag_97\n      jump\t// in\n    tag_96:\n        /* \"#utility.yul\":1218:1335   */\n    tag_95:\n        /* \"#utility.yul\":1359:1422   */\n      tag_98\n        /* \"#utility.yul\":1414:1421   */\n      dup5\n        /* \"#utility.yul\":1405:1411   */\n      dup3\n        /* \"#utility.yul\":1394:1403   */\n      dup6\n        /* \"#utility.yul\":1390:1412   */\n      add\n        /* \"#utility.yul\":1359:1422   */\n      tag_81\n      jump\t// in\n    tag_98:\n        /* \"#utility.yul\":1349:1422   */\n      swap2\n      pop\n        /* \"#utility.yul\":1145:1432   */\n      pop\n        /* \"#utility.yul\":930:1439   */\n      swap3\n      swap2\n      pop\n      pop\n      jump\t// out\n        /* \"#utility.yul\":1445:1919   */\n    tag_10:\n        /* \"#utility.yul\":1513:1519   */\n      0x00\n        /* \"#utility.yul\":1521:1527   */\n      dup1\n        /* \"#utility.yul\":1570:1572   */\n      0x40\n        /* \"#utility.yul\":1558:1567   */\n      dup4\n        /* \"#utility.yul\":1549:1556   */\n      dup6\n        /* \"#utility.yul\":1545:1568   */\n      sub\n        /* \"#utility.yul\":1541:1573   */\n      slt\n        /* \"#utility.yul\":1538:1657   */\n      iszero\n      tag_100\n      jumpi\n        /* \"#utility.yul\":1576:1655   */\n      tag_101\n      tag_94\n      jump\t// in\n    tag_101:\n        /* \"#utility.yul\":1538:1657   */\n    tag_100:\n        /* \"#utility.yul\":1696:1697   */\n      0x00\n        /* \"#utility.yul\":1721:1774   */\n      tag_102\n        /* \"#utility.yul\":1766:1773   */\n      dup6\n        /* \"#utility.yul\":1757:1763   */\n      dup3\n        /* \"#utility.yul\":1746:1755   */\n      dup7\n        /* \"#utility.yul\":1742:1764   */\n      add\n        /* \"#utility.yul\":1721:1774   */\n      tag_87\n      jump\t// in\n    tag_102:\n        /* \"#utility.yul\":1711:1774   */\n      swap3\n      pop\n        /* \"#utility.yul\":1667:1784   */\n      pop\n        /* \"#utility.yul\":1823:1825   */\n      0x20\n        /* \"#utility.yul\":1849:1902   */\n      tag_103\n        /* \"#utility.yul\":1894:1901   */\n      dup6\n        /* \"#utility.yul\":1885:1891   */\n      dup3\n        /* \"#utility.yul\":1874:1883   */\n      dup7\n        /* \"#utility.yul\":1870:1892   */\n      add\n        /* \"#utility.yul\":1849:1902   */\n      tag_87\n      jump\t// in\n    tag_103:\n        /* \"#utility.yul\":1839:1902   */\n      swap2\n      pop\n        /* \"#utility.yul\":1794:1912   */\n      pop\n        /* \"#utility.yul\":1445:1919   */\n      swap3\n      pop\n      swap3\n      swap1\n      pop\n      jump\t// out\n        /* \"#utility.yul\":1925:2034   */\n    tag_104:\n        /* \"#utility.yul\":2006:2027   */\n      tag_106\n        /* \"#utility.yul\":2021:2026   */\n      dup2\n        /* \"#utility.yul\":2006:2027   */\n      tag_107\n      jump\t// in\n    tag_106:\n        /* \"#utility.yul\":2001:2004   */\n      dup3\n        /* \"#utility.yul\":1994:2028   */\n      mstore\n        /* \"#utility.yul\":1925:2034   */\n      pop\n      pop\n      jump\t// out\n        /* \"#utility.yul\":2040:2404   */\n    tag_108:\n        /* \"#utility.yul\":2128:2131   */\n      0x00\n        /* \"#utility.yul\":2156:2195   */\n      tag_110\n        /* \"#utility.yul\":2189:2194   */\n      dup3\n        /* \"#utility.yul\":2156:2195   */\n      tag_111\n      jump\t// in\n    tag_110:\n        /* \"#utility.yul\":2211:2282   */\n      tag_112\n        /* \"#utility.yul\":2275:2281   */\n      dup2\n        /* \"#utility.yul\":2270:2273   */\n      dup6\n        /* \"#utility.yul\":2211:2282   */\n      tag_113\n      jump\t// in\n    tag_112:\n        /* \"#utility.yul\":2204:2282   */\n      swap4\n      pop\n        /* \"#utility.yul\":2291:2343   */\n      tag_114\n        /* \"#utility.yul\":2336:2342   */\n      dup2\n        /* \"#utility.yul\":2331:2334   */\n      dup6\n        /* \"#utility.yul\":2324:2328   */\n      0x20\n        /* \"#utility.yul\":2317:2322   */\n      dup7\n        /* \"#utility.yul\":2313:2329   */\n      add\n        /* \"#utility.yul\":2291:2343   */\n      tag_115\n      jump\t// in\n    tag_114:\n        /* \"#utility.yul\":2368:2397   */\n      tag_116\n        /* \"#utility.yul\":2390:2396   */\n      dup2\n        /* \"#utility.yul\":2368:2397   */\n      tag_117\n      jump\t// in\n    tag_116:\n        /* \"#utility.yul\":2363:2366   */\n      dup5\n        /* \"#utility.yul\":2359:2398   */\n      add\n        /* \"#utility.yul\":2352:2398   */\n      swap2\n      pop\n        /* \"#utility.yul\":2132:2404   */\n      pop\n        /* \"#utility.yul\":2040:2404   */\n      swap3\n      swap2\n      pop\n      pop\n      jump\t// out\n        /* \"#utility.yul\":2410:2528   */\n    tag_118:\n        /* \"#utility.yul\":2497:2521   */\n      tag_120\n        /* \"#utility.yul\":2515:2520   */\n      dup2\n        /* \"#utility.yul\":2497:2521   */\n      tag_121\n      jump\t// in\n    tag_120:\n        /* \"#utility.yul\":2492:2495   */\n      dup3\n        /* \"#utility.yul\":2485:2522   */\n      mstore\n        /* \"#utility.yul\":2410:2528   */\n      pop\n      pop\n      jump\t// out\n        /* \"#utility.yul\":2534:2854   */\n    tag_29:\n        /* \"#utility.yul\":2649:2653   */\n      0x00\n        /* \"#utility.yul\":2687:2689   */\n      0x40\n        /* \"#utility.yul\":2676:2685   */\n      dup3\n        /* \"#utility.yul\":2672:2690   */\n      add\n        /* \"#utility.yul\":2664:2690   */\n      swap1\n      pop\n        /* \"#utility.yul\":2700:2765   */\n      tag_123\n        /* \"#utility.yul\":2762:2763   */\n      0x00\n        /* \"#utility.yul\":2751:2760   */\n      dup4\n        /* \"#utility.yul\":2747:2764   */\n      add\n        /* \"#utility.yul\":2738:2744   */\n      dup6\n        /* \"#utility.yul\":2700:2765   */\n      tag_104\n      jump\t// in\n    tag_123:\n        /* \"#utility.yul\":2775:2847   */\n      tag_124\n        /* \"#utility.yul\":2843:2845   */\n      0x20\n        /* \"#utility.yul\":2832:2841   */\n      dup4\n        /* \"#utility.yul\":2828:2846   */\n      add\n        /* \"#utility.yul\":2819:2825   */\n      dup5\n        /* \"#utility.yul\":2775:2847   */\n      tag_118\n      jump\t// in\n    tag_124:\n        /* \"#utility.yul\":2534:2854   */\n      swap4\n      swap3\n      pop\n      pop\n      pop\n      jump\t// out\n        /* \"#utility.yul\":2860:3173   */\n    tag_23:\n        /* \"#utility.yul\":2973:2977   */\n      0x00\n        /* \"#utility.yul\":3011:3013   */\n      0x20\n        /* \"#utility.yul\":3000:3009   */\n      dup3\n        /* \"#utility.yul\":2996:3014   */\n      add\n        /* \"#utility.yul\":2988:3014   */\n      swap1\n      pop\n        /* \"#utility.yul\":3060:3069   */\n      dup2\n        /* \"#utility.yul\":3054:3058   */\n      dup2\n        /* \"#utility.yul\":3050:3070   */\n      sub\n        /* \"#utility.yul\":3046:3047   */\n      0x00\n        /* \"#utility.yul\":3035:3044   */\n      dup4\n        /* \"#utility.yul\":3031:3048   */\n      add\n        /* \"#utility.yul\":3024:3071   */\n      mstore\n        /* \"#utility.yul\":3088:3166   */\n      tag_126\n        /* \"#utility.yul\":3161:3165   */\n      dup2\n        /* \"#utility.yul\":3152:3158   */\n      dup5\n        /* \"#utility.yul\":3088:3166   */\n      tag_108\n      jump\t// in\n    tag_126:\n        /* \"#utility.yul\":3080:3166   */\n      swap1\n      pop\n        /* \"#utility.yul\":2860:3173   */\n      swap3\n      swap2\n      pop\n      pop\n      jump\t// out\n        /* \"#utility.yul\":3179:3401   */\n    tag_15:\n        /* \"#utility.yul\":3272:3276   */\n      0x00\n        /* \"#utility.yul\":3310:3312   */\n      0x20\n        /* \"#utility.yul\":3299:3308   */\n      dup3\n        /* \"#utility.yul\":3295:3313   */\n      add\n        /* \"#utility.yul\":3287:3313   */\n      swap1\n      pop\n        /* \"#utility.yul\":3323:3394   */\n      tag_128\n        /* \"#utility.yul\":3391:3392   */\n      0x00\n        /* \"#utility.yul\":3380:3389   */\n      dup4\n        /* \"#utility.yul\":3376:3393   */\n      add\n        /* \"#utility.yul\":3367:3373   */\n      dup5\n        /* \"#utility.yul\":3323:3394   */\n      tag_118\n      jump\t// in\n    tag_128:\n        /* \"#utility.yul\":3179:3401   */\n      swap3\n      swap2\n      pop\n      pop\n      jump\t// out\n        /* \"#utility.yul\":3407:3739   */\n    tag_19:\n        /* \"#utility.yul\":3528:3532   */\n      0x00\n        /* \"#utility.yul\":3566:3568   */\n      0x40\n        /* \"#utility.yul\":3555:3564   */\n      dup3\n        /* \"#utility.yul\":3551:3569   */\n      add\n        /* \"#utility.yul\":3543:3569   */\n      swap1\n      pop\n        /* \"#utility.yul\":3579:3650   */\n      tag_130\n        /* \"#utility.yul\":3647:3648   */\n      0x00\n        /* \"#utility.yul\":3636:3645   */\n      dup4\n        /* \"#utility.yul\":3632:3649   */\n      add\n        /* \"#utility.yul\":3623:3629   */\n      dup6\n        /* \"#utility.yul\":3579:3650   */\n      tag_118\n      jump\t// in\n    tag_130:\n        /* \"#utility.yul\":3660:3732   */\n      tag_131\n        /* \"#utility.yul\":3728:3730   */\n      0x20\n        /* \"#utility.yul\":3717:3726   */\n      dup4\n        /* \"#utility.yul\":3713:3731   */\n      add\n        /* \"#utility.yul\":3704:3710   */\n      dup5\n        /* \"#utility.yul\":3660:3732   */\n      tag_118\n      jump\t// in\n    tag_131:\n        /* \"#utility.yul\":3407:3739   */\n      swap4\n      swap3\n      pop\n      pop\n      pop\n      jump\t// out\n        /* \"#utility.yul\":3745:3874   */\n    tag_75:\n        /* \"#utility.yul\":3779:3785   */\n      0x00\n        /* \"#utility.yul\":3806:3826   */\n      tag_133\n      tag_134\n      jump\t// in\n    tag_133:\n        /* \"#utility.yul\":3796:3826   */\n      swap1\n      pop\n        /* \"#utility.yul\":3835:3868   */\n      tag_135\n        /* \"#utility.yul\":3863:3867   */\n      dup3\n        /* \"#utility.yul\":3855:3861   */\n      dup3\n        /* \"#utility.yul\":3835:3868   */\n      tag_136\n      jump\t// in\n    tag_135:\n        /* \"#utility.yul\":3745:3874   */\n      swap2\n      swap1\n      pop\n      jump\t// out\n        /* \"#utility.yul\":3880:3955   */\n    tag_134:\n        /* \"#utility.yul\":3913:3919   */\n      0x00\n        /* \"#utility.yul\":3946:3948   */\n      0x40\n        /* \"#utility.yul\":3940:3949   */\n      mload\n        /* \"#utility.yul\":3930:3949   */\n      swap1\n      pop\n        /* \"#utility.yul\":3880:3955   */\n      swap1\n      jump\t// out\n        /* \"#utility.yul\":3961:4269   */\n    tag_74:\n        /* \"#utility.yul\":4023:4027   */\n      0x00\n        /* \"#utility.yul\":4113:4131   */\n      0xffffffffffffffff\n        /* \"#utility.yul\":4105:4111   */\n      dup3\n        /* \"#utility.yul\":4102:4132   */\n      gt\n        /* \"#utility.yul\":4099:4155   */\n      iszero\n      tag_139\n      jumpi\n        /* \"#utility.yul\":4135:4153   */\n      tag_140\n      tag_141\n      jump\t// in\n    tag_140:\n        /* \"#utility.yul\":4099:4155   */\n    tag_139:\n        /* \"#utility.yul\":4173:4202   */\n      tag_142\n        /* \"#utility.yul\":4195:4201   */\n      dup3\n        /* \"#utility.yul\":4173:4202   */\n      tag_117\n      jump\t// in\n    tag_142:\n        /* \"#utility.yul\":4165:4202   */\n      swap1\n      pop\n        /* \"#utility.yul\":4257:4261   */\n      0x20\n        /* \"#utility.yul\":4251:4255   */\n      dup2\n        /* \"#utility.yul\":4247:4262   */\n      add\n        /* \"#utility.yul\":4239:4262   */\n      swap1\n      pop\n        /* \"#utility.yul\":3961:4269   */\n      swap2\n      swap1\n      pop\n      jump\t// out\n        /* \"#utility.yul\":4275:4374   */\n    tag_111:\n        /* \"#utility.yul\":4327:4333   */\n      0x00\n        /* \"#utility.yul\":4361:4366   */\n      dup2\n        /* \"#utility.yul\":4355:4367   */\n      mload\n        /* \"#utility.yul\":4345:4367   */\n      swap1\n      pop\n        /* \"#utility.yul\":4275:4374   */\n      swap2\n      swap1\n      pop\n      jump\t// out\n        /* \"#utility.yul\":4380:4549   */\n    tag_113:\n        /* \"#utility.yul\":4464:4475   */\n      0x00\n        /* \"#utility.yul\":4498:4504   */\n      dup3\n        /* \"#utility.yul\":4493:4496   */\n      dup3\n        /* \"#utility.yul\":4486:4505   */\n      mstore\n        /* \"#utility.yul\":4538:4542   */\n      0x20\n        /* \"#utility.yul\":4533:4536   */\n      dup3\n        /* \"#utility.yul\":4529:4543   */\n      add\n        /* \"#utility.yul\":4514:4543   */\n      swap1\n      pop\n        /* \"#utility.yul\":4380:4549   */\n      swap3\n      swap2\n      pop\n      pop\n      jump\t// out\n        /* \"#utility.yul\":4555:4860   */\n    tag_43:\n        /* \"#utility.yul\":4595:4598   */\n      0x00\n        /* \"#utility.yul\":4614:4634   */\n      tag_146\n        /* \"#utility.yul\":4632:4633   */\n      dup3\n        /* \"#utility.yul\":4614:4634   */\n      tag_121\n      jump\t// in\n    tag_146:\n        /* \"#utility.yul\":4609:4634   */\n      swap2\n      pop\n        /* \"#utility.yul\":4648:4668   */\n      tag_147\n        /* \"#utility.yul\":4666:4667   */\n      dup4\n        /* \"#utility.yul\":4648:4668   */\n      tag_121\n      jump\t// in\n    tag_147:\n        /* \"#utility.yul\":4643:4668   */\n      swap3\n      pop\n        /* \"#utility.yul\":4802:4803   */\n      dup3\n        /* \"#utility.yul\":4734:4800   */\n      0xffffffffffffffffffffffffffffffffffffffffffffffffffffffffffffffff\n        /* \"#utility.yul\":4730:4804   */\n      sub\n        /* \"#utility.yul\":4727:4728   */\n      dup3\n        /* \"#utility.yul\":4724:4805   */\n      gt\n        /* \"#utility.yul\":4721:4828   */\n      iszero\n      tag_148\n      jumpi\n        /* \"#utility.yul\":4808:4826   */\n      tag_149\n      tag_150\n      jump\t// in\n    tag_149:\n        /* \"#utility.yul\":4721:4828   */\n    tag_148:\n        /* \"#utility.yul\":4852:4853   */\n      dup3\n        /* \"#utility.yul\":4849:4850   */\n      dup3\n        /* \"#utility.yul\":4845:4854   */\n      add\n        /* \"#utility.yul\":4838:4854   */\n      swap1\n      pop\n        /* \"#utility.yul\":4555:4860   */\n      swap3\n      swap2\n      pop\n      pop\n      jump\t// out\n        /* \"#utility.yul\":4866:5051   */\n    tag_55:\n        /* \"#utility.yul\":4906:4907   */\n      0x00\n        /* \"#utility.yul\":4923:4943   */\n      tag_152\n        /* \"#utility.yul\":4941:4942   */\n      dup3\n        /* \"#utility.yul\":4923:4943   */\n      tag_121\n      jump\t// in\n    tag_152:\n        /* \"#utility.yul\":4918:4943   */\n      swap2\n      pop\n        /* \"#utility.yul\":4957:4977   */\n      tag_153\n        /* \"#utility.yul\":4975:4976   */\n      dup4\n        /* \"#utility.yul\":4957:4977   */\n      tag_121\n      jump\t// in\n    tag_153:\n        /* \"#utility.yul\":4952:4977   */\n      swap3\n      pop\n        /* \"#utility.yul\":4996:4997   */\n      dup3\n        /* \"#utility.yul\":4986:5021   */\n      tag_154\n      jumpi\n        /* \"#utility.yul\":5001:5019   */\n      tag_155\n      tag_156\n      jump\t// in\n    tag_155:\n        /* \"#utility.yul\":4986:5021   */\n    tag_154:\n        /* \"#utility.yul\":5043:5044   */\n      dup3\n        /* \"#utility.yul\":5040:5041   */\n      dup3\n        /* \"#utility.yul\":5036:5045   */\n      div\n        /* \"#utility.yul\":5031:5045   */\n      swap1\n      pop\n        /* \"#utility.yul\":4866:5051   */\n      swap3\n      swap2\n      pop\n      pop\n      jump\t// out\n        /* \"#utility.yul\":5057:5405   */\n    tag_51:\n        /* \"#utility.yul\":5097:5104   */\n      0x00\n        /* \"#utility.yul\":5120:5140   */\n      tag_158\n        /* \"#utility.yul\":5138:5139   */\n      dup3\n        /* \"#utility.yul\":5120:5140   */\n      tag_121\n      jump\t// in\n    tag_158:\n        /* \"#utility.yul\":5115:5140   */\n      swap2\n      pop\n        /* \"#utility.yul\":5154:5174   */\n      tag_159\n        /* \"#utility.yul\":5172:5173   */\n      dup4\n        /* \"#utility.yul\":5154:5174   */\n      tag_121\n      jump\t// in\n    tag_159:\n        /* \"#utility.yul\":5149:5174   */\n      swap3\n      pop\n        /* \"#utility.yul\":5342:5343   */\n      dup2\n        /* \"#utility.yul\":5274:5340   */\n      0xffffffffffffffffffffffffffffffffffffffffffffffffffffffffffffffff\n        /* \"#utility.yul\":5270:5344   */\n      div\n        /* \"#utility.yul\":5267:5268   */\n      dup4\n        /* \"#utility.yul\":5264:5345   */\n      gt\n        /* \"#utility.yul\":5259:5260   */\n      dup3\n        /* \"#utility.yul\":5252:5261   */\n      iszero\n        /* \"#utility.yul\":5245:5262   */\n      iszero\n        /* \"#utility.yul\":5241:5346   */\n      and\n        /* \"#utility.yul\":5238:5369   */\n      iszero\n      tag_160\n      jumpi\n        /* \"#utility.yul\":5349:5367   */\n      tag_161\n      tag_150\n      jump\t// in\n    tag_161:\n        /* \"#utility.yul\":5238:5369   */\n    tag_160:\n        /* \"#utility.yul\":5397:5398   */\n      dup3\n        /* \"#utility.yul\":5394:5395   */\n      dup3\n        /* \"#utility.yul\":5390:5399   */\n      mul\n        /* \"#utility.yul\":5379:5399   */\n      swap1\n      pop\n        /* \"#utility.yul\":5057:5405   */\n      swap3\n      swap2\n      pop\n      pop\n      jump\t// out\n        /* \"#utility.yul\":5411:5602   */\n    tag_47:\n        /* \"#utility.yul\":5451:5455   */\n      0x00\n        /* \"#utility.yul\":5471:5491   */\n      tag_163\n        /* \"#utility.yul\":5489:5490   */\n      dup3\n        /* \"#utility.yul\":5471:5491   */\n      tag_121\n      jump\t// in\n    tag_163:\n        /* \"#utility.yul\":5466:5491   */\n      swap2\n      pop\n        /* \"#utility.yul\":5505:5525   */\n      tag_164\n        /* \"#utility.yul\":5523:5524   */\n      dup4\n        /* \"#utility.yul\":5505:5525   */\n      tag_121\n      jump\t// in\n    tag_164:\n        /* \"#utility.yul\":5500:5525   */\n      swap3\n      pop\n        /* \"#utility.yul\":5544:5545   */\n      dup3\n        /* \"#utility.yul\":5541:5542   */\n      dup3\n        /* \"#utility.yul\":5538:5546   */\n      lt\n        /* \"#utility.yul\":5535:5569   */\n      iszero\n      tag_165\n      jumpi\n        /* \"#utility.yul\":5549:5567   */\n      tag_166\n      tag_150\n      jump\t// in\n    tag_166:\n        /* \"#utility.yul\":5535:5569   */\n    tag_165:\n        /* \"#utility.yul\":5594:5595   */\n      dup3\n        /* \"#utility.yul\":5591:5592   */\n      dup3\n        /* \"#utility.yul\":5587:5596   */\n      sub\n        /* \"#utility.yul\":5579:5596   */\n      swap1\n      pop\n        /* \"#utility.yul\":5411:5602   */\n      swap3\n      swap2\n      pop\n      pop\n      jump\t// out\n        /* \"#utility.yul\":5608:5698   */\n    tag_107:\n        /* \"#utility.yul\":5642:5649   */\n      0x00\n        /* \"#utility.yul\":5685:5690   */\n      dup2\n        /* \"#utility.yul\":5678:5691   */\n      iszero\n        /* \"#utility.yul\":5671:5692   */\n      iszero\n        /* \"#utility.yul\":5660:5692   */\n      swap1\n      pop\n        /* \"#utility.yul\":5608:5698   */\n      swap2\n      swap1\n      pop\n      jump\t// out\n        /* \"#utility.yul\":5704:5781   */\n    tag_121:\n        /* \"#utility.yul\":5741:5748   */\n      0x00\n        /* \"#utility.yul\":5770:5775   */\n      dup2\n        /* \"#utility.yul\":5759:5775   */\n      swap1\n      pop\n        /* \"#utility.yul\":5704:5781   */\n      swap2\n      swap1\n      pop\n      jump\t// out\n        /* \"#utility.yul\":5787:5941   */\n    tag_80:\n        /* \"#utility.yul\":5871:5877   */\n      dup3\n        /* \"#utility.yul\":5866:5869   */\n      dup2\n        /* \"#utility.yul\":5861:5864   */\n      dup4\n        /* \"#utility.yul\":5848:5878   */\n      calldatacopy\n        /* \"#utility.yul\":5933:5934   */\n      0x00\n        /* \"#utility.yul\":5924:5930   */\n      dup4\n        /* \"#utility.yul\":5919:5922   */\n      dup4\n        /* \"#utility.yul\":5915:5931   */\n      add\n        /* \"#utility.yul\":5908:5935   */\n      mstore\n        /* \"#utility.yul\":5787:5941   */\n      pop\n      pop\n      pop\n      jump\t// out\n        /* \"#utility.yul\":5947:6254   */\n    tag_115:\n        /* \"#utility.yul\":6015:6016   */\n      0x00\n        /* \"#utility.yul\":6025:6138   */\n    tag_171:\n        /* \"#utility.yul\":6039:6045   */\n      dup4\n        /* \"#utility.yul\":6036:6037   */\n      dup2\n        /* \"#utility.yul\":6033:6046   */\n      lt\n        /* \"#utility.yul\":6025:6138   */\n      iszero\n      tag_173\n      jumpi\n        /* \"#utility.yul\":6124:6125   */\n      dup1\n        /* \"#utility.yul\":6119:6122   */\n      dup3\n        /* \"#utility.yul\":6115:6126   */\n      add\n        /* \"#utility.yul\":6109:6127   */\n      mload\n        /* \"#utility.yul\":6105:6106   */\n      dup2\n        /* \"#utility.yul\":6100:6103   */\n      dup5\n        /* \"#utility.yul\":6096:6107   */\n      add\n        /* \"#utility.yul\":6089:6128   */\n      mstore\n        /* \"#utility.yul\":6061:6063   */\n      0x20\n        /* \"#utility.yul\":6058:6059   */\n      dup2\n        /* \"#utility.yul\":6054:6064   */\n      add\n        /* \"#utility.yul\":6049:6064   */\n      swap1\n      pop\n        /* \"#utility.yul\":6025:6138   */\n      jump(tag_171)\n    tag_173:\n        /* \"#utility.yul\":6156:6162   */\n      dup4\n        /* \"#utility.yul\":6153:6154   */\n      dup2\n        /* \"#utility.yul\":6150:6163   */\n      gt\n        /* \"#utility.yul\":6147:6248   */\n      iszero\n      tag_174\n      jumpi\n        /* \"#utility.yul\":6236:6237   */\n      0x00\n        /* \"#utility.yul\":6227:6233   */\n      dup5\n        /* \"#utility.yul\":6222:6225   */\n      dup5\n        /* \"#utility.yul\":6218:6234   */\n      add\n        /* \"#utility.yul\":6211:6238   */\n      mstore\n        /* \"#utility.yul\":6147:6248   */\n    tag_174:\n        /* \"#utility.yul\":5996:6254   */\n      pop\n        /* \"#utility.yul\":5947:6254   */\n      pop\n      pop\n      pop\n      jump\t// out\n        /* \"#utility.yul\":6260:6580   */\n    tag_35:\n        /* \"#utility.yul\":6304:6310   */\n      0x00\n        /* \"#utility.yul\":6341:6342   */\n      0x02\n        /* \"#utility.yul\":6335:6339   */\n      dup3\n        /* \"#utility.yul\":6331:6343   */\n      div\n        /* \"#utility.yul\":6321:6343   */\n      swap1\n      pop\n        /* \"#utility.yul\":6388:6389   */\n      0x01\n        /* \"#utility.yul\":6382:6386   */\n      dup3\n        /* \"#utility.yul\":6378:6390   */\n      and\n        /* \"#utility.yul\":6409:6427   */\n      dup1\n        /* \"#utility.yul\":6399:6480   */\n      tag_176\n      jumpi\n        /* \"#utility.yul\":6465:6469   */\n      0x7f\n        /* \"#utility.yul\":6457:6463   */\n      dup3\n        /* \"#utility.yul\":6453:6470   */\n      and\n        /* \"#utility.yul\":6443:6470   */\n      swap2\n      pop\n        /* \"#utility.yul\":6399:6480   */\n    tag_176:\n        /* \"#utility.yul\":6527:6529   */\n      0x20\n        /* \"#utility.yul\":6519:6525   */\n      dup3\n        /* \"#utility.yul\":6516:6530   */\n      lt\n        /* \"#utility.yul\":6496:6514   */\n      dup2\n        /* \"#utility.yul\":6493:6531   */\n      eq\n        /* \"#utility.yul\":6490:6574   */\n      iszero\n      tag_177\n      jumpi\n        /* \"#utility.yul\":6546:6564   */\n      tag_178\n      tag_179\n      jump\t// in\n    tag_178:\n        /* \"#utility.yul\":6490:6574   */\n    tag_177:\n        /* \"#utility.yul\":6311:6580   */\n      pop\n        /* \"#utility.yul\":6260:6580   */\n      swap2\n      swap1\n      pop\n      jump\t// out\n        /* \"#utility.yul\":6586:6867   */\n    tag_136:\n        /* \"#utility.yul\":6669:6696   */\n      tag_181\n        /* \"#utility.yul\":6691:6695   */\n      dup3\n        /* \"#utility.yul\":6669:6696   */\n      tag_117\n      jump\t// in\n    tag_181:\n        /* \"#utility.yul\":6661:6667   */\n      dup2\n        /* \"#utility.yul\":6657:6697   */\n      add\n        /* \"#utility.yul\":6799:6805   */\n      dup2\n        /* \"#utility.yul\":6787:6797   */\n      dup2\n        /* \"#utility.yul\":6784:6806   */\n      lt\n        /* \"#utility.yul\":6763:6781   */\n      0xffffffffffffffff\n        /* \"#utility.yul\":6751:6761   */\n      dup3\n        /* \"#utility.yul\":6748:6782   */\n      gt\n        /* \"#utility.yul\":6745:6807   */\n      or\n        /* \"#utility.yul\":6742:6830   */\n      iszero\n      tag_182\n      jumpi\n        /* \"#utility.yul\":6810:6828   */\n      tag_183\n      tag_141\n      jump\t// in\n    tag_183:\n        /* \"#utility.yul\":6742:6830   */\n    tag_182:\n        /* \"#utility.yul\":6850:6860   */\n      dup1\n        /* \"#utility.yul\":6846:6848   */\n      0x40\n        /* \"#utility.yul\":6839:6861   */\n      mstore\n        /* \"#utility.yul\":6629:6867   */\n      pop\n        /* \"#utility.yul\":6586:6867   */\n      pop\n      pop\n      jump\t// out\n        /* \"#utility.yul\":6873:7053   */\n    tag_150:\n        /* \"#utility.yul\":6921:6998   */\n      0x4e487b7100000000000000000000000000000000000000000000000000000000\n        /* \"#utility.yul\":6918:6919   */\n      0x00\n        /* \"#utility.yul\":6911:6999   */\n      mstore\n        /* \"#utility.yul\":7018:7022   */\n      0x11\n        /* \"#utility.yul\":7015:7016   */\n      0x04\n        /* \"#utility.yul\":7008:7023   */\n      mstore\n        /* \"#utility.yul\":7042:7046   */\n      0x24\n        /* \"#utility.yul\":7039:7040   */\n      0x00\n        /* \"#utility.yul\":7032:7047   */\n      revert\n        /* \"#utility.yul\":7059:7239   */\n    tag_156:\n        /* \"#utility.yul\":7107:7184   */\n      0x4e487b7100000000000000000000000000000000000000000000000000000000\n        /* \"#utility.yul\":7104:7105   */\n      0x00\n        /* \"#utility.yul\":7097:7185   */\n      mstore\n        /* \"#utility.yul\":7204:7208   */\n      0x12\n        /* \"#utility.yul\":7201:7202   */\n      0x04\n        /* \"#utility.yul\":7194:7209   */\n      mstore\n        /* \"#utility.yul\":7228:7232   */\n      0x24\n        /* \"#utility.yul\":7225:7226   */\n      0x00\n        /* \"#utility.yul\":7218:7233   */\n      revert\n        /* \"#utility.yul\":7245:7425   */\n    tag_179:\n        /* \"#utility.yul\":7293:7370   */\n      0x4e487b7100000000000000000000000000000000000000000000000000000000\n        /* \"#utility.yul\":7290:7291   */\n      0x00\n        /* \"#utility.yul\":7283:7371   */\n      mstore\n        /* \"#utility.yul\":7390:7394   */\n      0x22\n        /* \"#utility.yul\":7387:7388   */\n      0x04\n        /* \"#utility.yul\":7380:7395   */\n      mstore\n        /* \"#utility.yul\":7414:7418   */\n      0x24\n        /* \"#utility.yul\":7411:7412   */\n      0x00\n        /* \"#utility.yul\":7404:7419   */\n      revert\n        /* \"#utility.yul\":7431:7611   */\n    tag_141:\n        /* \"#utility.yul\":7479:7556   */\n      0x4e487b7100000000000000000000000000000000000000000000000000000000\n        /* \"#utility.yul\":7476:7477   */\n      0x00\n        /* \"#utility.yul\":7469:7557   */\n      mstore\n        /* \"#utility.yul\":7576:7580   */\n      0x41\n        /* \"#utility.yul\":7573:7574   */\n      0x04\n        /* \"#utility.yul\":7566:7581   */\n      mstore\n        /* \"#utility.yul\":7600:7604   */\n      0x24\n        /* \"#utility.yul\":7597:7598   */\n      0x00\n        /* \"#utility.yul\":7590:7605   */\n      revert\n        /* \"#utility.yul\":7617:7734   */\n    tag_85:\n        /* \"#utility.yul\":7726:7727   */\n      0x00\n        /* \"#utility.yul\":7723:7724   */\n      dup1\n        /* \"#utility.yul\":7716:7728   */\n      revert\n        /* \"#utility.yul\":7740:7857   */\n    tag_78:\n        /* \"#utility.yul\":7849:7850   */\n      0x00\n        /* \"#utility.yul\":7846:7847   */\n      dup1\n        /* \"#utility.yul\":7839:7851   */\n      revert\n        /* \"#utility.yul\":7863:7980   */\n    tag_97:\n        /* \"#utility.yul\":7972:7973   */\n      0x00\n        /* \"#utility.yul\":7969:7970   */\n      dup1\n        /* \"#utility.yul\":7962:7974   */\n      revert\n        /* \"#utility.yul\":7986:8103   */\n    tag_94:\n        /* \"#utility.yul\":8095:8096   */\n      0x00\n        /* \"#utility.yul\":8092:8093   */\n      dup1\n        /* \"#utility.yul\":8085:8097   */\n      revert\n        /* \"#utility.yul\":8109:8211   */\n    tag_117:\n        /* \"#utility.yul\":8150:8156   */\n      0x00\n        /* \"#utility.yul\":8201:8203   */\n      0x1f\n        /* \"#utility.yul\":8197:8204   */\n      not\n        /* \"#utility.yul\":8192:8194   */\n      0x1f\n        /* \"#utility.yul\":8185:8190   */\n      dup4\n        /* \"#utility.yul\":8181:8195   */\n      add\n        /* \"#utility.yul\":8177:8205   */\n      and\n        /* \"#utility.yul\":8167:8205   */\n      swap1\n      pop\n        /* \"#utility.yul\":8109:8211   */\n      swap2\n      swap1\n      pop\n      jump\t// out\n        /* \"#utility.yul\":8217:8339   */\n    tag_90:\n        /* \"#utility.yul\":8290:8314   */\n      tag_194\n        /* \"#utility.yul\":8308:8313   */\n      dup2\n        /* \"#utility.yul\":8290:8314   */\n      tag_121\n      jump\t// in\n    tag_194:\n        /* \"#utility.yul\":8283:8288   */\n      dup2\n        /* \"#utility.yul\":8280:8315   */\n      eq\n        /* \"#utility.yul\":8270:8333   */\n      tag_195\n      jumpi\n        /* \"#utility.yul\":8329:8330   */\n      0x00\n        /* \"#utility.yul\":8326:8327   */\n      dup1\n        /* \"#utility.yul\":8319:8331   */\n      revert\n        /* \"#utility.yul\":8270:8333   */\n    tag_195:\n        /* \"#utility.yul\":8217:8339   */\n      pop\n      jump\t// out\n\n    auxdata: 0xa26469706673582212208c9ca4d4fbbd22242062d5e1e2964397d34b4a3b88d2d9f4f383b6803fdef21c64736f6c63430008070033\n}\n",
				"bytecode": {
					"linkReferences": {},
					"object": "608060405234801561001057600080fd5b5061099a806100206000396000f3fe608060405234801561001057600080fd5b50600436106100575760003560e01c80631ab06ee51461005c57806349d7f9f6146100785780634f460894146100965780635ecbe8e4146100b5578063679915f9146100d3575b600080fd5b61007660048036038101906100719190610504565b610104565b005b610080610116565b60405161008d91906105e6565b60405180910390f35b61009e610120565b6040516100ac929190610601565b60405180910390f35b6100bd610131565b6040516100ca91906105c4565b60405180910390f35b6100ed60048036038101906100e891906104bb565b6101c3565b6040516100fb92919061059b565b60405180910390f35b81600081905550806001819055505050565b6000600254905090565b600080600054600154915091509091565b60606003805461014090610809565b80601f016020809104026020016040519081016040528092919081815260200182805461016c90610809565b80156101b95780601f1061018e576101008083540402835291602001916101b9565b820191906000526020600020905b81548152906001019060200180831161019c57829003601f168201915b5050505050905090565b6000806040518060400160405280600381526020017f73756d0000000000000000000000000000000000000000000000000000000000815250805190602001208380519060200120141561022c57600154600054610221919061069c565b60028190555061036d565b6040518060400160405280600581526020017f6d696e7573000000000000000000000000000000000000000000000000000000815250805190602001208380519060200120141561029257600154600054610287919061077d565b60028190555061036c565b6040518060400160405280600881526020017f6d756c7469706c6500000000000000000000000000000000000000000000000081525080519060200120838051906020012014156102f8576001546000546102ed9190610723565b60028190555061036b565b6040518060400160405280600681526020017f6469766964650000000000000000000000000000000000000000000000000000815250805190602001208380519060200120141561035e5760015460005461035391906106f2565b60028190555061036a565b6000809150915061038e565b5b5b5b8260039080519060200190610383929190610393565b506001600254915091505b915091565b82805461039f90610809565b90600052602060002090601f0160209004810192826103c15760008555610408565b82601f106103da57805160ff1916838001178555610408565b82800160010185558215610408579182015b828111156104075782518255916020019190600101906103ec565b5b5090506104159190610419565b5090565b5b8082111561043257600081600090555060010161041a565b5090565b60006104496104448461064f565b61062a565b9050828152602081018484840111156104655761046461092d565b5b6104708482856107c7565b509392505050565b600082601f83011261048d5761048c610928565b5b813561049d848260208601610436565b91505092915050565b6000813590506104b58161094d565b92915050565b6000602082840312156104d1576104d0610937565b5b600082013567ffffffffffffffff8111156104ef576104ee610932565b5b6104fb84828501610478565b91505092915050565b6000806040838503121561051b5761051a610937565b5b6000610529858286016104a6565b925050602061053a858286016104a6565b9150509250929050565b61054d816107b1565b82525050565b600061055e82610680565b610568818561068b565b93506105788185602086016107d6565b6105818161093c565b840191505092915050565b610595816107bd565b82525050565b60006040820190506105b06000830185610544565b6105bd602083018461058c565b9392505050565b600060208201905081810360008301526105de8184610553565b905092915050565b60006020820190506105fb600083018461058c565b92915050565b6000604082019050610616600083018561058c565b610623602083018461058c565b9392505050565b6000610634610645565b9050610640828261083b565b919050565b6000604051905090565b600067ffffffffffffffff82111561066a576106696108f9565b5b6106738261093c565b9050602081019050919050565b600081519050919050565b600082825260208201905092915050565b60006106a7826107bd565b91506106b2836107bd565b9250827fffffffffffffffffffffffffffffffffffffffffffffffffffffffffffffffff038211156106e7576106e661086c565b5b828201905092915050565b60006106fd826107bd565b9150610708836107bd565b9250826107185761071761089b565b5b828204905092915050565b600061072e826107bd565b9150610739836107bd565b9250817fffffffffffffffffffffffffffffffffffffffffffffffffffffffffffffffff04831182151516156107725761077161086c565b5b828202905092915050565b6000610788826107bd565b9150610793836107bd565b9250828210156107a6576107a561086c565b5b828203905092915050565b60008115159050919050565b6000819050919050565b82818337600083830152505050565b60005b838110156107f45780820151818401526020810190506107d9565b83811115610803576000848401525b50505050565b6000600282049050600182168061082157607f821691505b60208210811415610835576108346108ca565b5b50919050565b6108448261093c565b810181811067ffffffffffffffff82111715610863576108626108f9565b5b80604052505050565b7f4e487b7100000000000000000000000000000000000000000000000000000000600052601160045260246000fd5b7f4e487b7100000000000000000000000000000000000000000000000000000000600052601260045260246000fd5b7f4e487b7100000000000000000000000000000000000000000000000000000000600052602260045260246000fd5b7f4e487b7100000000000000000000000000000000000000000000000000000000600052604160045260246000fd5b600080fd5b600080fd5b600080fd5b600080fd5b6000601f19601f8301169050919050565b610956816107bd565b811461096157600080fd5b5056fea26469706673582212208c9ca4d4fbbd22242062d5e1e2964397d34b4a3b88d2d9f4f383b6803fdef21c64736f6c63430008070033",
					"opcodes": "PUSH1 0x80 PUSH1 0x40 MSTORE CALLVALUE DUP1 ISZERO PUSH2 0x10 JUMPI PUSH1 0x0 DUP1 REVERT JUMPDEST POP PUSH2 0x99A DUP1 PUSH2 0x20 PUSH1 0x0 CODECOPY PUSH1 0x0 RETURN INVALID PUSH1 0x80 PUSH1 0x40 MSTORE CALLVALUE DUP1 ISZERO PUSH2 0x10 JUMPI PUSH1 0x0 DUP1 REVERT JUMPDEST POP PUSH1 0x4 CALLDATASIZE LT PUSH2 0x57 JUMPI PUSH1 0x0 CALLDATALOAD PUSH1 0xE0 SHR DUP1 PUSH4 0x1AB06EE5 EQ PUSH2 0x5C JUMPI DUP1 PUSH4 0x49D7F9F6 EQ PUSH2 0x78 JUMPI DUP1 PUSH4 0x4F460894 EQ PUSH2 0x96 JUMPI DUP1 PUSH4 0x5ECBE8E4 EQ PUSH2 0xB5 JUMPI DUP1 PUSH4 0x679915F9 EQ PUSH2 0xD3 JUMPI JUMPDEST PUSH1 0x0 DUP1 REVERT JUMPDEST PUSH2 0x76 PUSH1 0x4 DUP1 CALLDATASIZE SUB DUP2 ADD SWAP1 PUSH2 0x71 SWAP2 SWAP1 PUSH2 0x504 JUMP JUMPDEST PUSH2 0x104 JUMP JUMPDEST STOP JUMPDEST PUSH2 0x80 PUSH2 0x116 JUMP JUMPDEST PUSH1 0x40 MLOAD PUSH2 0x8D SWAP2 SWAP1 PUSH2 0x5E6 JUMP JUMPDEST PUSH1 0x40 MLOAD DUP1 SWAP2 SUB SWAP1 RETURN JUMPDEST PUSH2 0x9E PUSH2 0x120 JUMP JUMPDEST PUSH1 0x40 MLOAD PUSH2 0xAC SWAP3 SWAP2 SWAP1 PUSH2 0x601 JUMP JUMPDEST PUSH1 0x40 MLOAD DUP1 SWAP2 SUB SWAP1 RETURN JUMPDEST PUSH2 0xBD PUSH2 0x131 JUMP JUMPDEST PUSH1 0x40 MLOAD PUSH2 0xCA SWAP2 SWAP1 PUSH2 0x5C4 JUMP JUMPDEST PUSH1 0x40 MLOAD DUP1 SWAP2 SUB SWAP1 RETURN JUMPDEST PUSH2 0xED PUSH1 0x4 DUP1 CALLDATASIZE SUB DUP2 ADD SWAP1 PUSH2 0xE8 SWAP2 SWAP1 PUSH2 0x4BB JUMP JUMPDEST PUSH2 0x1C3 JUMP JUMPDEST PUSH1 0x40 MLOAD PUSH2 0xFB SWAP3 SWAP2 SWAP1 PUSH2 0x59B JUMP JUMPDEST PUSH1 0x40 MLOAD DUP1 SWAP2 SUB SWAP1 RETURN JUMPDEST DUP2 PUSH1 0x0 DUP2 SWAP1 SSTORE POP DUP1 PUSH1 0x1 DUP2 SWAP1 SSTORE POP POP POP JUMP JUMPDEST PUSH1 0x0 PUSH1 0x2 SLOAD SWAP1 POP SWAP1 JUMP JUMPDEST PUSH1 0x0 DUP1 PUSH1 0x0 SLOAD PUSH1 0x1 SLOAD SWAP2 POP SWAP2 POP SWAP1 SWAP2 JUMP JUMPDEST PUSH1 0x60 PUSH1 0x3 DUP1 SLOAD PUSH2 0x140 SWAP1 PUSH2 0x809 JUMP JUMPDEST DUP1 PUSH1 0x1F ADD PUSH1 0x20 DUP1 SWAP2 DIV MUL PUSH1 0x20 ADD PUSH1 0x40 MLOAD SWAP1 DUP2 ADD PUSH1 0x40 MSTORE DUP1 SWAP3 SWAP2 SWAP1 DUP2 DUP2 MSTORE PUSH1 0x20 ADD DUP3 DUP1 SLOAD PUSH2 0x16C SWAP1 PUSH2 0x809 JUMP JUMPDEST DUP1 ISZERO PUSH2 0x1B9 JUMPI DUP1 PUSH1 0x1F LT PUSH2 0x18E JUMPI PUSH2 0x100 DUP1 DUP4 SLOAD DIV MUL DUP4 MSTORE SWAP2 PUSH1 0x20 ADD SWAP2 PUSH2 0x1B9 JUMP JUMPDEST DUP3 ADD SWAP2 SWAP1 PUSH1 0x0 MSTORE PUSH1 0x20 PUSH1 0x0 KECCAK256 SWAP1 JUMPDEST DUP2 SLOAD DUP2 MSTORE SWAP1 PUSH1 0x1 ADD SWAP1 PUSH1 0x20 ADD DUP1 DUP4 GT PUSH2 0x19C JUMPI DUP3 SWAP1 SUB PUSH1 0x1F AND DUP3 ADD SWAP2 JUMPDEST POP POP POP POP POP SWAP1 POP SWAP1 JUMP JUMPDEST PUSH1 0x0 DUP1 PUSH1 0x40 MLOAD DUP1 PUSH1 0x40 ADD PUSH1 0x40 MSTORE DUP1 PUSH1 0x3 DUP2 MSTORE PUSH1 0x20 ADD PUSH32 0x73756D0000000000000000000000000000000000000000000000000000000000 DUP2 MSTORE POP DUP1 MLOAD SWAP1 PUSH1 0x20 ADD KECCAK256 DUP4 DUP1 MLOAD SWAP1 PUSH1 0x20 ADD KECCAK256 EQ ISZERO PUSH2 0x22C JUMPI PUSH1 0x1 SLOAD PUSH1 0x0 SLOAD PUSH2 0x221 SWAP2 SWAP1 PUSH2 0x69C JUMP JUMPDEST PUSH1 0x2 DUP2 SWAP1 SSTORE POP PUSH2 0x36D JUMP JUMPDEST PUSH1 0x40 MLOAD DUP1 PUSH1 0x40 ADD PUSH1 0x40 MSTORE DUP1 PUSH1 0x5 DUP2 MSTORE PUSH1 0x20 ADD PUSH32 0x6D696E7573000000000000000000000000000000000000000000000000000000 DUP2 MSTORE POP DUP1 MLOAD SWAP1 PUSH1 0x20 ADD KECCAK256 DUP4 DUP1 MLOAD SWAP1 PUSH1 0x20 ADD KECCAK256 EQ ISZERO PUSH2 0x292 JUMPI PUSH1 0x1 SLOAD PUSH1 0x0 SLOAD PUSH2 0x287 SWAP2 SWAP1 PUSH2 0x77D JUMP JUMPDEST PUSH1 0x2 DUP2 SWAP1 SSTORE POP PUSH2 0x36C JUMP JUMPDEST PUSH1 0x40 MLOAD DUP1 PUSH1 0x40 ADD PUSH1 0x40 MSTORE DUP1 PUSH1 0x8 DUP2 MSTORE PUSH1 0x20 ADD PUSH32 0x6D756C7469706C65000000000000000000000000000000000000000000000000 DUP2 MSTORE POP DUP1 MLOAD SWAP1 PUSH1 0x20 ADD KECCAK256 DUP4 DUP1 MLOAD SWAP1 PUSH1 0x20 ADD KECCAK256 EQ ISZERO PUSH2 0x2F8 JUMPI PUSH1 0x1 SLOAD PUSH1 0x0 SLOAD PUSH2 0x2ED SWAP2 SWAP1 PUSH2 0x723 JUMP JUMPDEST PUSH1 0x2 DUP2 SWAP1 SSTORE POP PUSH2 0x36B JUMP JUMPDEST PUSH1 0x40 MLOAD DUP1 PUSH1 0x40 ADD PUSH1 0x40 MSTORE DUP1 PUSH1 0x6 DUP2 MSTORE PUSH1 0x20 ADD PUSH32 0x6469766964650000000000000000000000000000000000000000000000000000 DUP2 MSTORE POP DUP1 MLOAD SWAP1 PUSH1 0x20 ADD KECCAK256 DUP4 DUP1 MLOAD SWAP1 PUSH1 0x20 ADD KECCAK256 EQ ISZERO PUSH2 0x35E JUMPI PUSH1 0x1 SLOAD PUSH1 0x0 SLOAD PUSH2 0x353 SWAP2 SWAP1 PUSH2 0x6F2 JUMP JUMPDEST PUSH1 0x2 DUP2 SWAP1 SSTORE POP PUSH2 0x36A JUMP JUMPDEST PUSH1 0x0 DUP1 SWAP2 POP SWAP2 POP PUSH2 0x38E JUMP JUMPDEST JUMPDEST JUMPDEST JUMPDEST DUP3 PUSH1 0x3 SWAP1 DUP1 MLOAD SWAP1 PUSH1 0x20 ADD SWAP1 PUSH2 0x383 SWAP3 SWAP2 SWAP1 PUSH2 0x393 JUMP JUMPDEST POP PUSH1 0x1 PUSH1 0x2 SLOAD SWAP2 POP SWAP2 POP JUMPDEST SWAP2 POP SWAP2 JUMP JUMPDEST DUP3 DUP1 SLOAD PUSH2 0x39F SWAP1 PUSH2 0x809 JUMP JUMPDEST SWAP1 PUSH1 0x0 MSTORE PUSH1 0x20 PUSH1 0x0 KECCAK256 SWAP1 PUSH1 0x1F ADD PUSH1 0x20 SWAP1 DIV DUP2 ADD SWAP3 DUP3 PUSH2 0x3C1 JUMPI PUSH1 0x0 DUP6 SSTORE PUSH2 0x408 JUMP JUMPDEST DUP3 PUSH1 0x1F LT PUSH2 0x3DA JUMPI DUP1 MLOAD PUSH1 0xFF NOT AND DUP4 DUP1 ADD OR DUP6 SSTORE PUSH2 0x408 JUMP JUMPDEST DUP3 DUP1 ADD PUSH1 0x1 ADD DUP6 SSTORE DUP3 ISZERO PUSH2 0x408 JUMPI SWAP2 DUP3 ADD JUMPDEST DUP3 DUP2 GT ISZERO PUSH2 0x407 JUMPI DUP3 MLOAD DUP3 SSTORE SWAP2 PUSH1 0x20 ADD SWAP2 SWAP1 PUSH1 0x1 ADD SWAP1 PUSH2 0x3EC JUMP JUMPDEST JUMPDEST POP SWAP1 POP PUSH2 0x415 SWAP2 SWAP1 PUSH2 0x419 JUMP JUMPDEST POP SWAP1 JUMP JUMPDEST JUMPDEST DUP1 DUP3 GT ISZERO PUSH2 0x432 JUMPI PUSH1 0x0 DUP2 PUSH1 0x0 SWAP1 SSTORE POP PUSH1 0x1 ADD PUSH2 0x41A JUMP JUMPDEST POP SWAP1 JUMP JUMPDEST PUSH1 0x0 PUSH2 0x449 PUSH2 0x444 DUP5 PUSH2 0x64F JUMP JUMPDEST PUSH2 0x62A JUMP JUMPDEST SWAP1 POP DUP3 DUP2 MSTORE PUSH1 0x20 DUP2 ADD DUP5 DUP5 DUP5 ADD GT ISZERO PUSH2 0x465 JUMPI PUSH2 0x464 PUSH2 0x92D JUMP JUMPDEST JUMPDEST PUSH2 0x470 DUP5 DUP3 DUP6 PUSH2 0x7C7 JUMP JUMPDEST POP SWAP4 SWAP3 POP POP POP JUMP JUMPDEST PUSH1 0x0 DUP3 PUSH1 0x1F DUP4 ADD SLT PUSH2 0x48D JUMPI PUSH2 0x48C PUSH2 0x928 JUMP JUMPDEST JUMPDEST DUP2 CALLDATALOAD PUSH2 0x49D DUP5 DUP3 PUSH1 0x20 DUP7 ADD PUSH2 0x436 JUMP JUMPDEST SWAP2 POP POP SWAP3 SWAP2 POP POP JUMP JUMPDEST PUSH1 0x0 DUP2 CALLDATALOAD SWAP1 POP PUSH2 0x4B5 DUP2 PUSH2 0x94D JUMP JUMPDEST SWAP3 SWAP2 POP POP JUMP JUMPDEST PUSH1 0x0 PUSH1 0x20 DUP3 DUP5 SUB SLT ISZERO PUSH2 0x4D1 JUMPI PUSH2 0x4D0 PUSH2 0x937 JUMP JUMPDEST JUMPDEST PUSH1 0x0 DUP3 ADD CALLDATALOAD PUSH8 0xFFFFFFFFFFFFFFFF DUP2 GT ISZERO PUSH2 0x4EF JUMPI PUSH2 0x4EE PUSH2 0x932 JUMP JUMPDEST JUMPDEST PUSH2 0x4FB DUP5 DUP3 DUP6 ADD PUSH2 0x478 JUMP JUMPDEST SWAP2 POP POP SWAP3 SWAP2 POP POP JUMP JUMPDEST PUSH1 0x0 DUP1 PUSH1 0x40 DUP4 DUP6 SUB SLT ISZERO PUSH2 0x51B JUMPI PUSH2 0x51A PUSH2 0x937 JUMP JUMPDEST JUMPDEST PUSH1 0x0 PUSH2 0x529 DUP6 DUP3 DUP7 ADD PUSH2 0x4A6 JUMP JUMPDEST SWAP3 POP POP PUSH1 0x20 PUSH2 0x53A DUP6 DUP3 DUP7 ADD PUSH2 0x4A6 JUMP JUMPDEST SWAP2 POP POP SWAP3 POP SWAP3 SWAP1 POP JUMP JUMPDEST PUSH2 0x54D DUP2 PUSH2 0x7B1 JUMP JUMPDEST DUP3 MSTORE POP POP JUMP JUMPDEST PUSH1 0x0 PUSH2 0x55E DUP3 PUSH2 0x680 JUMP JUMPDEST PUSH2 0x568 DUP2 DUP6 PUSH2 0x68B JUMP JUMPDEST SWAP4 POP PUSH2 0x578 DUP2 DUP6 PUSH1 0x20 DUP7 ADD PUSH2 0x7D6 JUMP JUMPDEST PUSH2 0x581 DUP2 PUSH2 0x93C JUMP JUMPDEST DUP5 ADD SWAP2 POP POP SWAP3 SWAP2 POP POP JUMP JUMPDEST PUSH2 0x595 DUP2 PUSH2 0x7BD JUMP JUMPDEST DUP3 MSTORE POP POP JUMP JUMPDEST PUSH1 0x0 PUSH1 0x40 DUP3 ADD SWAP1 POP PUSH2 0x5B0 PUSH1 0x0 DUP4 ADD DUP6 PUSH2 0x544 JUMP JUMPDEST PUSH2 0x5BD PUSH1 0x20 DUP4 ADD DUP5 PUSH2 0x58C JUMP JUMPDEST SWAP4 SWAP3 POP POP POP JUMP JUMPDEST PUSH1 0x0 PUSH1 0x20 DUP3 ADD SWAP1 POP DUP2 DUP2 SUB PUSH1 0x0 DUP4 ADD MSTORE PUSH2 0x5DE DUP2 DUP5 PUSH2 0x553 JUMP JUMPDEST SWAP1 POP SWAP3 SWAP2 POP POP JUMP JUMPDEST PUSH1 0x0 PUSH1 0x20 DUP3 ADD SWAP1 POP PUSH2 0x5FB PUSH1 0x0 DUP4 ADD DUP5 PUSH2 0x58C JUMP JUMPDEST SWAP3 SWAP2 POP POP JUMP JUMPDEST PUSH1 0x0 PUSH1 0x40 DUP3 ADD SWAP1 POP PUSH2 0x616 PUSH1 0x0 DUP4 ADD DUP6 PUSH2 0x58C JUMP JUMPDEST PUSH2 0x623 PUSH1 0x20 DUP4 ADD DUP5 PUSH2 0x58C JUMP JUMPDEST SWAP4 SWAP3 POP POP POP JUMP JUMPDEST PUSH1 0x0 PUSH2 0x634 PUSH2 0x645 JUMP JUMPDEST SWAP1 POP PUSH2 0x640 DUP3 DUP3 PUSH2 0x83B JUMP JUMPDEST SWAP2 SWAP1 POP JUMP JUMPDEST PUSH1 0x0 PUSH1 0x40 MLOAD SWAP1 POP SWAP1 JUMP JUMPDEST PUSH1 0x0 PUSH8 0xFFFFFFFFFFFFFFFF DUP3 GT ISZERO PUSH2 0x66A JUMPI PUSH2 0x669 PUSH2 0x8F9 JUMP JUMPDEST JUMPDEST PUSH2 0x673 DUP3 PUSH2 0x93C JUMP JUMPDEST SWAP1 POP PUSH1 0x20 DUP2 ADD SWAP1 POP SWAP2 SWAP1 POP JUMP JUMPDEST PUSH1 0x0 DUP2 MLOAD SWAP1 POP SWAP2 SWAP1 POP JUMP JUMPDEST PUSH1 0x0 DUP3 DUP3 MSTORE PUSH1 0x20 DUP3 ADD SWAP1 POP SWAP3 SWAP2 POP POP JUMP JUMPDEST PUSH1 0x0 PUSH2 0x6A7 DUP3 PUSH2 0x7BD JUMP JUMPDEST SWAP2 POP PUSH2 0x6B2 DUP4 PUSH2 0x7BD JUMP JUMPDEST SWAP3 POP DUP3 PUSH32 0xFFFFFFFFFFFFFFFFFFFFFFFFFFFFFFFFFFFFFFFFFFFFFFFFFFFFFFFFFFFFFFFF SUB DUP3 GT ISZERO PUSH2 0x6E7 JUMPI PUSH2 0x6E6 PUSH2 0x86C JUMP JUMPDEST JUMPDEST DUP3 DUP3 ADD SWAP1 POP SWAP3 SWAP2 POP POP JUMP JUMPDEST PUSH1 0x0 PUSH2 0x6FD DUP3 PUSH2 0x7BD JUMP JUMPDEST SWAP2 POP PUSH2 0x708 DUP4 PUSH2 0x7BD JUMP JUMPDEST SWAP3 POP DUP3 PUSH2 0x718 JUMPI PUSH2 0x717 PUSH2 0x89B JUMP JUMPDEST JUMPDEST DUP3 DUP3 DIV SWAP1 POP SWAP3 SWAP2 POP POP JUMP JUMPDEST PUSH1 0x0 PUSH2 0x72E DUP3 PUSH2 0x7BD JUMP JUMPDEST SWAP2 POP PUSH2 0x739 DUP4 PUSH2 0x7BD JUMP JUMPDEST SWAP3 POP DUP2 PUSH32 0xFFFFFFFFFFFFFFFFFFFFFFFFFFFFFFFFFFFFFFFFFFFFFFFFFFFFFFFFFFFFFFFF DIV DUP4 GT DUP3 ISZERO ISZERO AND ISZERO PUSH2 0x772 JUMPI PUSH2 0x771 PUSH2 0x86C JUMP JUMPDEST JUMPDEST DUP3 DUP3 MUL SWAP1 POP SWAP3 SWAP2 POP POP JUMP JUMPDEST PUSH1 0x0 PUSH2 0x788 DUP3 PUSH2 0x7BD JUMP JUMPDEST SWAP2 POP PUSH2 0x793 DUP4 PUSH2 0x7BD JUMP JUMPDEST SWAP3 POP DUP3 DUP3 LT ISZERO PUSH2 0x7A6 JUMPI PUSH2 0x7A5 PUSH2 0x86C JUMP JUMPDEST JUMPDEST DUP3 DUP3 SUB SWAP1 POP SWAP3 SWAP2 POP POP JUMP JUMPDEST PUSH1 0x0 DUP2 ISZERO ISZERO SWAP1 POP SWAP2 SWAP1 POP JUMP JUMPDEST PUSH1 0x0 DUP2 SWAP1 POP SWAP2 SWAP1 POP JUMP JUMPDEST DUP3 DUP2 DUP4 CALLDATACOPY PUSH1 0x0 DUP4 DUP4 ADD MSTORE POP POP POP JUMP JUMPDEST PUSH1 0x0 JUMPDEST DUP4 DUP2 LT ISZERO PUSH2 0x7F4 JUMPI DUP1 DUP3 ADD MLOAD DUP2 DUP5 ADD MSTORE PUSH1 0x20 DUP2 ADD SWAP1 POP PUSH2 0x7D9 JUMP JUMPDEST DUP4 DUP2 GT ISZERO PUSH2 0x803 JUMPI PUSH1 0x0 DUP5 DUP5 ADD MSTORE JUMPDEST POP POP POP POP JUMP JUMPDEST PUSH1 0x0 PUSH1 0x2 DUP3 DIV SWAP1 POP PUSH1 0x1 DUP3 AND DUP1 PUSH2 0x821 JUMPI PUSH1 0x7F DUP3 AND SWAP2 POP JUMPDEST PUSH1 0x20 DUP3 LT DUP2 EQ ISZERO PUSH2 0x835 JUMPI PUSH2 0x834 PUSH2 0x8CA JUMP JUMPDEST JUMPDEST POP SWAP2 SWAP1 POP JUMP JUMPDEST PUSH2 0x844 DUP3 PUSH2 0x93C JUMP JUMPDEST DUP2 ADD DUP2 DUP2 LT PUSH8 0xFFFFFFFFFFFFFFFF DUP3 GT OR ISZERO PUSH2 0x863 JUMPI PUSH2 0x862 PUSH2 0x8F9 JUMP JUMPDEST JUMPDEST DUP1 PUSH1 0x40 MSTORE POP POP POP JUMP JUMPDEST PUSH32 0x4E487B7100000000000000000000000000000000000000000000000000000000 PUSH1 0x0 MSTORE PUSH1 0x11 PUSH1 0x4 MSTORE PUSH1 0x24 PUSH1 0x0 REVERT JUMPDEST PUSH32 0x4E487B7100000000000000000000000000000000000000000000000000000000 PUSH1 0x0 MSTORE PUSH1 0x12 PUSH1 0x4 MSTORE PUSH1 0x24 PUSH1 0x0 REVERT JUMPDEST PUSH32 0x4E487B7100000000000000000000000000000000000000000000000000000000 PUSH1 0x0 MSTORE PUSH1 0x22 PUSH1 0x4 MSTORE PUSH1 0x24 PUSH1 0x0 REVERT JUMPDEST PUSH32 0x4E487B7100000000000000000000000000000000000000000000000000000000 PUSH1 0x0 MSTORE PUSH1 0x41 PUSH1 0x4 MSTORE PUSH1 0x24 PUSH1 0x0 REVERT JUMPDEST PUSH1 0x0 DUP1 REVERT JUMPDEST PUSH1 0x0 DUP1 REVERT JUMPDEST PUSH1 0x0 DUP1 REVERT JUMPDEST PUSH1 0x0 DUP1 REVERT JUMPDEST PUSH1 0x0 PUSH1 0x1F NOT PUSH1 0x1F DUP4 ADD AND SWAP1 POP SWAP2 SWAP1 POP JUMP JUMPDEST PUSH2 0x956 DUP2 PUSH2 0x7BD JUMP JUMPDEST DUP2 EQ PUSH2 0x961 JUMPI PUSH1 0x0 DUP1 REVERT JUMPDEST POP JUMP INVALID LOG2 PUSH5 0x6970667358 0x22 SLT KECCAK256 DUP13 SWAP13 LOG4 0xD4 0xFB 0xBD 0x22 0x24 KECCAK256 PUSH3 0xD5E1E2 SWAP7 NUMBER SWAP8 0xD3 0x4B 0x4A EXTCODESIZE DUP9 0xD2 0xD9 DELEGATECALL RETURN DUP4 0xB6 DUP1 EXTCODEHASH 0xDE CALLCODE SHR PUSH5 0x736F6C6343 STOP ADDMOD SMOD STOP CALLER "
				},
				"gasEstimates": {
					"creation": {
						"codeDepositCost": "491600",
						"executionCost": "524",
						"totalCost": "492124"
					},
					"external": {
						"checkNumbers()": "infinite",
						"checklatestOpration()": "infinite",
						"checklatestResult()": "2437",
						"math(string)": "infinite",
						"set(uint256,uint256)": "infinite"
					}
				},
				"methodIdentifiers": {
					"checkNumbers()": "4f460894",
					"checklatestOpration()": "5ecbe8e4",
					"checklatestResult()": "49d7f9f6",
					"math(string)": "679915f9",
					"set(uint256,uint256)": "1ab06ee5"
				}
			},
			"storageLayout": {
				"storage": [
					{
						"astId": 3,
						"contract": "SimpleMath.sol:SimpleMath",
						"label": "firstNumber",
						"offset": 0,
						"slot": "0",
						"type": "t_uint256"
					},
					{
						"astId": 5,
						"contract": "SimpleMath.sol:SimpleMath",
						"label": "SecondNumber",
						"offset": 0,
						"slot": "1",
						"type": "t_uint256"
					},
					{
						"astId": 7,
						"contract": "SimpleMath.sol:SimpleMath",
						"label": "latestResult",
						"offset": 0,
						"slot": "2",
						"type": "t_uint256"
					},
					{
						"astId": 9,
						"contract": "SimpleMath.sol:SimpleMath",
						"label": "latestOpration",
						"offset": 0,
						"slot": "3",
						"type": "t_string_storage"
					}
				],
				"types": {
					"t_string_storage": {
						"encoding": "bytes",
						"label": "string",
						"numberOfBytes": "32"
					},
					"t_uint256": {
						"encoding": "inplace",
						"label": "uint256",
						"numberOfBytes": "32"
					}
				}
			},
			"userdoc": {
				"kind": "user",
				"methods": {
					"math(string)": {
						"notice": "use one of oprations . { sum , minus , multiple , divide }"
					}
				},
				"version": 1
			}
		}
	}
}