{
	"AttackGame.sol": {
		"AttackGame": {
			"abi": [
				{
					"inputs": [],
					"stateMutability": "nonpayable",
					"type": "constructor"
				},
				{
					"anonymous": false,
					"inputs": [
						{
							"indexed": false,
							"internalType": "address",
							"name": "from",
							"type": "address"
						},
						{
							"indexed": false,
							"internalType": "address",
							"name": "to",
							"type": "address"
						},
						{
							"indexed": false,
							"internalType": "uint256",
							"name": "amount",
							"type": "uint256"
						},
						{
							"indexed": false,
							"internalType": "string",
							"name": "Currency",
							"type": "string"
						}
					],
					"name": "Sent",
					"type": "event"
				},
				{
					"inputs": [
						{
							"internalType": "address",
							"name": "victim",
							"type": "address"
						}
					],
					"name": "Attack",
					"outputs": [],
					"stateMutability": "nonpayable",
					"type": "function"
				},
				{
					"inputs": [
						{
							"internalType": "address",
							"name": "",
							"type": "address"
						},
						{
							"internalType": "uint256",
							"name": "",
							"type": "uint256"
						}
					],
					"name": "Stats",
					"outputs": [
						{
							"internalType": "uint256",
							"name": "",
							"type": "uint256"
						}
					],
					"stateMutability": "view",
					"type": "function"
				},
				{
					"inputs": [
						{
							"internalType": "string",
							"name": "name",
							"type": "string"
						}
					],
					"name": "join",
					"outputs": [],
					"stateMutability": "nonpayable",
					"type": "function"
				},
				{
					"inputs": [
						{
							"internalType": "address",
							"name": "",
							"type": "address"
						}
					],
					"name": "joined",
					"outputs": [
						{
							"internalType": "bool",
							"name": "",
							"type": "bool"
						}
					],
					"stateMutability": "view",
					"type": "function"
				},
				{
					"inputs": [],
					"name": "minter",
					"outputs": [
						{
							"internalType": "address",
							"name": "",
							"type": "address"
						}
					],
					"stateMutability": "view",
					"type": "function"
				},
				{
					"inputs": [
						{
							"internalType": "address",
							"name": "",
							"type": "address"
						}
					],
					"name": "names",
					"outputs": [
						{
							"internalType": "string",
							"name": "",
							"type": "string"
						}
					],
					"stateMutability": "view",
					"type": "function"
				}
			],
			"devdoc": {
				"kind": "dev",
				"methods": {},
				"version": 1
			},
			"evm": {
				"assembly": "    /* \"AttackGame.sol\":64:1706  contract AttackGame {\r... */\n  mstore(0x40, 0x80)\n    /* \"AttackGame.sol\":381:432  string[] StatsInfo = [\"Attach\",\"Defince\",\"Balance\"] */\n  mload(0x40)\n  dup1\n  0x60\n  add\n  0x40\n  mstore\n  dup1\n  mload(0x40)\n  dup1\n  0x40\n  add\n  0x40\n  mstore\n  dup1\n  0x06\n  dup2\n  mstore\n  0x20\n  add\n  0x4174746163680000000000000000000000000000000000000000000000000000\n  dup2\n  mstore\n  pop\n  dup2\n  mstore\n  0x20\n  add\n  mload(0x40)\n  dup1\n  0x40\n  add\n  0x40\n  mstore\n  dup1\n  0x07\n  dup2\n  mstore\n  0x20\n  add\n  0x446566696e636500000000000000000000000000000000000000000000000000\n  dup2\n  mstore\n  pop\n  dup2\n  mstore\n  0x20\n  add\n  mload(0x40)\n  dup1\n  0x40\n  add\n  0x40\n  mstore\n  dup1\n  0x07\n  dup2\n  mstore\n  0x20\n  add\n  0x42616c616e636500000000000000000000000000000000000000000000000000\n  dup2\n  mstore\n  pop\n  dup2\n  mstore\n  pop\n  0x04\n  swap1\n  0x03\n  tag_1\n  swap3\n  swap2\n  swap1\n  tag_2\n  jump\t// in\ntag_1:\n  pop\n    /* \"AttackGame.sol\":567:619  constructor() {\r... */\n  callvalue\n  dup1\n  iszero\n  tag_3\n  jumpi\n  0x00\n  dup1\n  revert\ntag_3:\n  pop\n    /* \"AttackGame.sol\":601:611  msg.sender */\n  caller\n    /* \"AttackGame.sol\":592:598  minter */\n  0x00\n  dup1\n    /* \"AttackGame.sol\":592:611  minter = msg.sender */\n  0x0100\n  exp\n  dup2\n  sload\n  dup2\n  0xffffffffffffffffffffffffffffffffffffffff\n  mul\n  not\n  and\n  swap1\n  dup4\n  0xffffffffffffffffffffffffffffffffffffffff\n  and\n  mul\n  or\n  swap1\n  sstore\n  pop\n    /* \"AttackGame.sol\":64:1706  contract AttackGame {\r... */\n  jump(tag_6)\ntag_2:\n  dup3\n  dup1\n  sload\n  dup3\n  dup3\n  sstore\n  swap1\n  0x00\n  mstore\n  keccak256(0x00, 0x20)\n  swap1\n  dup2\n  add\n  swap3\n  dup3\n  iszero\n  tag_7\n  jumpi\n  swap2\n  0x20\n  mul\n  dup3\n  add\ntag_8:\n  dup3\n  dup2\n  gt\n  iszero\n  tag_9\n  jumpi\n  dup3\n  mload\n  dup3\n  swap1\n  dup1\n  mload\n  swap1\n  0x20\n  add\n  swap1\n  tag_10\n  swap3\n  swap2\n  swap1\n  tag_11\n  jump\t// in\ntag_10:\n  pop\n  swap2\n  0x20\n  add\n  swap2\n  swap1\n  0x01\n  add\n  swap1\n  jump(tag_8)\ntag_9:\ntag_7:\n  pop\n  swap1\n  pop\n  tag_12\n  swap2\n  swap1\n  tag_13\n  jump\t// in\ntag_12:\n  pop\n  swap1\n  jump\t// out\ntag_11:\n  dup3\n  dup1\n  sload\n  tag_14\n  swap1\n  tag_15\n  jump\t// in\ntag_14:\n  swap1\n  0x00\n  mstore\n  keccak256(0x00, 0x20)\n  swap1\n  0x1f\n  add\n  0x20\n  swap1\n  div\n  dup2\n  add\n  swap3\n  dup3\n  tag_17\n  jumpi\n  0x00\n  dup6\n  sstore\n  jump(tag_16)\ntag_17:\n  dup3\n  0x1f\n  lt\n  tag_18\n  jumpi\n  dup1\n  mload\n  not(0xff)\n  and\n  dup4\n  dup1\n  add\n  or\n  dup6\n  sstore\n  jump(tag_16)\ntag_18:\n  dup3\n  dup1\n  add\n  0x01\n  add\n  dup6\n  sstore\n  dup3\n  iszero\n  tag_16\n  jumpi\n  swap2\n  dup3\n  add\ntag_19:\n  dup3\n  dup2\n  gt\n  iszero\n  tag_20\n  jumpi\n  dup3\n  mload\n  dup3\n  sstore\n  swap2\n  0x20\n  add\n  swap2\n  swap1\n  0x01\n  add\n  swap1\n  jump(tag_19)\ntag_20:\ntag_16:\n  pop\n  swap1\n  pop\n  tag_21\n  swap2\n  swap1\n  tag_22\n  jump\t// in\ntag_21:\n  pop\n  swap1\n  jump\t// out\ntag_13:\ntag_23:\n  dup1\n  dup3\n  gt\n  iszero\n  tag_24\n  jumpi\n  0x00\n  dup2\n  dup2\n  tag_25\n  swap2\n  swap1\n  tag_26\n  jump\t// in\ntag_25:\n  pop\n  0x01\n  add\n  jump(tag_23)\ntag_24:\n  pop\n  swap1\n  jump\t// out\ntag_22:\ntag_27:\n  dup1\n  dup3\n  gt\n  iszero\n  tag_28\n  jumpi\n  0x00\n  dup2\n  0x00\n  swap1\n  sstore\n  pop\n  0x01\n  add\n  jump(tag_27)\ntag_28:\n  pop\n  swap1\n  jump\t// out\ntag_26:\n  pop\n  dup1\n  sload\n  tag_29\n  swap1\n  tag_15\n  jump\t// in\ntag_29:\n  0x00\n  dup3\n  sstore\n  dup1\n  0x1f\n  lt\n  tag_31\n  jumpi\n  pop\n  jump(tag_30)\ntag_31:\n  0x1f\n  add\n  0x20\n  swap1\n  div\n  swap1\n  0x00\n  mstore\n  keccak256(0x00, 0x20)\n  swap1\n  dup2\n  add\n  swap1\n  tag_32\n  swap2\n  swap1\n  tag_22\n  jump\t// in\ntag_32:\ntag_30:\n  pop\n  jump\t// out\n    /* \"#utility.yul\":7:327   */\ntag_15:\n    /* \"#utility.yul\":51:57   */\n  0x00\n    /* \"#utility.yul\":88:89   */\n  0x02\n    /* \"#utility.yul\":82:86   */\n  dup3\n    /* \"#utility.yul\":78:90   */\n  div\n    /* \"#utility.yul\":68:90   */\n  swap1\n  pop\n    /* \"#utility.yul\":135:136   */\n  0x01\n    /* \"#utility.yul\":129:133   */\n  dup3\n    /* \"#utility.yul\":125:137   */\n  and\n    /* \"#utility.yul\":156:174   */\n  dup1\n    /* \"#utility.yul\":146:227   */\n  tag_35\n  jumpi\n    /* \"#utility.yul\":212:216   */\n  0x7f\n    /* \"#utility.yul\":204:210   */\n  dup3\n    /* \"#utility.yul\":200:217   */\n  and\n    /* \"#utility.yul\":190:217   */\n  swap2\n  pop\n    /* \"#utility.yul\":146:227   */\ntag_35:\n    /* \"#utility.yul\":274:276   */\n  0x20\n    /* \"#utility.yul\":266:272   */\n  dup3\n    /* \"#utility.yul\":263:277   */\n  lt\n    /* \"#utility.yul\":243:261   */\n  dup2\n    /* \"#utility.yul\":240:278   */\n  eq\n    /* \"#utility.yul\":237:321   */\n  iszero\n  tag_36\n  jumpi\n    /* \"#utility.yul\":293:311   */\n  tag_37\n  tag_38\n  jump\t// in\ntag_37:\n    /* \"#utility.yul\":237:321   */\ntag_36:\n    /* \"#utility.yul\":58:327   */\n  pop\n    /* \"#utility.yul\":7:327   */\n  swap2\n  swap1\n  pop\n  jump\t// out\n    /* \"#utility.yul\":333:513   */\ntag_38:\n    /* \"#utility.yul\":381:458   */\n  0x4e487b7100000000000000000000000000000000000000000000000000000000\n    /* \"#utility.yul\":378:379   */\n  0x00\n    /* \"#utility.yul\":371:459   */\n  mstore\n    /* \"#utility.yul\":478:482   */\n  0x22\n    /* \"#utility.yul\":475:476   */\n  0x04\n    /* \"#utility.yul\":468:483   */\n  mstore\n    /* \"#utility.yul\":502:506   */\n  0x24\n    /* \"#utility.yul\":499:500   */\n  0x00\n    /* \"#utility.yul\":492:507   */\n  revert\n    /* \"AttackGame.sol\":64:1706  contract AttackGame {\r... */\ntag_6:\n  dataSize(sub_0)\n  dup1\n  dataOffset(sub_0)\n  0x00\n  codecopy\n  0x00\n  return\nstop\n\nsub_0: assembly {\n        /* \"AttackGame.sol\":64:1706  contract AttackGame {\r... */\n      mstore(0x40, 0x80)\n      callvalue\n      dup1\n      iszero\n      tag_1\n      jumpi\n      0x00\n      dup1\n      revert\n    tag_1:\n      pop\n      jumpi(tag_2, lt(calldatasize, 0x04))\n      shr(0xe0, calldataload(0x00))\n      dup1\n      0x07546172\n      eq\n      tag_3\n      jumpi\n      dup1\n      0x5cf3d346\n      eq\n      tag_4\n      jumpi\n      dup1\n      0x6a786b07\n      eq\n      tag_5\n      jumpi\n      dup1\n      0xabf5f2ed\n      eq\n      tag_6\n      jumpi\n      dup1\n      0xbc346c9c\n      eq\n      tag_7\n      jumpi\n      dup1\n      0xf887d019\n      eq\n      tag_8\n      jumpi\n    tag_2:\n      0x00\n      dup1\n      revert\n        /* \"AttackGame.sol\":91:112  address public minter */\n    tag_3:\n      tag_9\n      tag_10\n      jump\t// in\n    tag_9:\n      mload(0x40)\n      tag_11\n      swap2\n      swap1\n      tag_12\n      jump\t// in\n    tag_11:\n      mload(0x40)\n      dup1\n      swap2\n      sub\n      swap1\n      return\n        /* \"AttackGame.sol\":334:374  mapping (address => string) public names */\n    tag_4:\n      tag_13\n      0x04\n      dup1\n      calldatasize\n      sub\n      dup2\n      add\n      swap1\n      tag_14\n      swap2\n      swap1\n      tag_15\n      jump\t// in\n    tag_14:\n      tag_16\n      jump\t// in\n    tag_13:\n      mload(0x40)\n      tag_17\n      swap2\n      swap1\n      tag_18\n      jump\t// in\n    tag_17:\n      mload(0x40)\n      dup1\n      swap2\n      sub\n      swap1\n      return\n        /* \"AttackGame.sol\":886:1181  function join(string memory name) public {\r... */\n    tag_5:\n      tag_19\n      0x04\n      dup1\n      calldatasize\n      sub\n      dup2\n      add\n      swap1\n      tag_20\n      swap2\n      swap1\n      tag_21\n      jump\t// in\n    tag_20:\n      tag_22\n      jump\t// in\n    tag_19:\n      stop\n        /* \"AttackGame.sol\":240:281  mapping (address => uint[3]) public Stats */\n    tag_6:\n      tag_23\n      0x04\n      dup1\n      calldatasize\n      sub\n      dup2\n      add\n      swap1\n      tag_24\n      swap2\n      swap1\n      tag_25\n      jump\t// in\n    tag_24:\n      tag_26\n      jump\t// in\n    tag_23:\n      mload(0x40)\n      tag_27\n      swap2\n      swap1\n      tag_28\n      jump\t// in\n    tag_27:\n      mload(0x40)\n      dup1\n      swap2\n      sub\n      swap1\n      return\n        /* \"AttackGame.sol\":1205:1689  function Attack(address victim) public  {\r... */\n    tag_7:\n      tag_29\n      0x04\n      dup1\n      calldatasize\n      sub\n      dup2\n      add\n      swap1\n      tag_30\n      swap2\n      swap1\n      tag_15\n      jump\t// in\n    tag_30:\n      tag_31\n      jump\t// in\n    tag_29:\n      stop\n        /* \"AttackGame.sol\":288:327  mapping (address => bool) public joined */\n    tag_8:\n      tag_32\n      0x04\n      dup1\n      calldatasize\n      sub\n      dup2\n      add\n      swap1\n      tag_33\n      swap2\n      swap1\n      tag_15\n      jump\t// in\n    tag_33:\n      tag_34\n      jump\t// in\n    tag_32:\n      mload(0x40)\n      tag_35\n      swap2\n      swap1\n      tag_36\n      jump\t// in\n    tag_35:\n      mload(0x40)\n      dup1\n      swap2\n      sub\n      swap1\n      return\n        /* \"AttackGame.sol\":91:112  address public minter */\n    tag_10:\n      0x00\n      dup1\n      sload\n      swap1\n      0x0100\n      exp\n      swap1\n      div\n      0xffffffffffffffffffffffffffffffffffffffff\n      and\n      dup2\n      jump\t// out\n        /* \"AttackGame.sol\":334:374  mapping (address => string) public names */\n    tag_16:\n      mstore(0x20, 0x03)\n      dup1\n      0x00\n      mstore\n      keccak256(0x00, 0x40)\n      0x00\n      swap2\n      pop\n      swap1\n      pop\n      dup1\n      sload\n      tag_37\n      swap1\n      tag_38\n      jump\t// in\n    tag_37:\n      dup1\n      0x1f\n      add\n      0x20\n      dup1\n      swap2\n      div\n      mul\n      0x20\n      add\n      mload(0x40)\n      swap1\n      dup2\n      add\n      0x40\n      mstore\n      dup1\n      swap3\n      swap2\n      swap1\n      dup2\n      dup2\n      mstore\n      0x20\n      add\n      dup3\n      dup1\n      sload\n      tag_39\n      swap1\n      tag_38\n      jump\t// in\n    tag_39:\n      dup1\n      iszero\n      tag_40\n      jumpi\n      dup1\n      0x1f\n      lt\n      tag_41\n      jumpi\n      0x0100\n      dup1\n      dup4\n      sload\n      div\n      mul\n      dup4\n      mstore\n      swap2\n      0x20\n      add\n      swap2\n      jump(tag_40)\n    tag_41:\n      dup3\n      add\n      swap2\n      swap1\n      0x00\n      mstore\n      keccak256(0x00, 0x20)\n      swap1\n    tag_42:\n      dup2\n      sload\n      dup2\n      mstore\n      swap1\n      0x01\n      add\n      swap1\n      0x20\n      add\n      dup1\n      dup4\n      gt\n      tag_42\n      jumpi\n      dup3\n      swap1\n      sub\n      0x1f\n      and\n      dup3\n      add\n      swap2\n    tag_40:\n      pop\n      pop\n      pop\n      pop\n      pop\n      dup2\n      jump\t// out\n        /* \"AttackGame.sol\":886:1181  function join(string memory name) public {\r... */\n    tag_22:\n        /* \"AttackGame.sol\":968:972  true */\n      0x01\n        /* \"AttackGame.sol\":946:972  joined[msg.sender] != true */\n      iszero\n      iszero\n        /* \"AttackGame.sol\":946:952  joined */\n      0x02\n        /* \"AttackGame.sol\":946:964  joined[msg.sender] */\n      0x00\n        /* \"AttackGame.sol\":953:963  msg.sender */\n      caller\n        /* \"AttackGame.sol\":946:964  joined[msg.sender] */\n      0xffffffffffffffffffffffffffffffffffffffff\n      and\n      0xffffffffffffffffffffffffffffffffffffffff\n      and\n      dup2\n      mstore\n      0x20\n      add\n      swap1\n      dup2\n      mstore\n      0x20\n      add\n      0x00\n      keccak256\n      0x00\n      swap1\n      sload\n      swap1\n      0x0100\n      exp\n      swap1\n      div\n      0xff\n      and\n        /* \"AttackGame.sol\":946:972  joined[msg.sender] != true */\n      iszero\n      iszero\n      eq\n      iszero\n        /* \"AttackGame.sol\":938:973  require(joined[msg.sender] != true) */\n      tag_44\n      jumpi\n      0x00\n      dup1\n      revert\n    tag_44:\n        /* \"AttackGame.sol\":1047:1056  random(5) */\n      tag_45\n        /* \"AttackGame.sol\":1054:1055  5 */\n      0x05\n        /* \"AttackGame.sol\":1047:1053  random */\n      tag_46\n        /* \"AttackGame.sol\":1047:1056  random(5) */\n      jump\t// in\n    tag_45:\n        /* \"AttackGame.sol\":1045:1046  5 */\n      0x05\n        /* \"AttackGame.sol\":1045:1056  5+random(5) */\n      tag_47\n      swap2\n      swap1\n      tag_48\n      jump\t// in\n    tag_47:\n        /* \"AttackGame.sol\":1022:1027  Stats */\n      0x01\n        /* \"AttackGame.sol\":1022:1039  Stats[msg.sender] */\n      0x00\n        /* \"AttackGame.sol\":1028:1038  msg.sender */\n      caller\n        /* \"AttackGame.sol\":1022:1039  Stats[msg.sender] */\n      0xffffffffffffffffffffffffffffffffffffffff\n      and\n      0xffffffffffffffffffffffffffffffffffffffff\n      and\n      dup2\n      mstore\n      0x20\n      add\n      swap1\n      dup2\n      mstore\n      0x20\n      add\n      0x00\n      keccak256\n        /* \"AttackGame.sol\":1040:1041  0 */\n      0x00\n        /* \"AttackGame.sol\":1022:1042  Stats[msg.sender][0] */\n      0x03\n      dup2\n      lt\n      tag_49\n      jumpi\n      tag_50\n      tag_51\n      jump\t// in\n    tag_50:\n    tag_49:\n      add\n        /* \"AttackGame.sol\":1022:1056  Stats[msg.sender][0] = 5+random(5) */\n      dup2\n      swap1\n      sstore\n      pop\n        /* \"AttackGame.sol\":1092:1101  random(5) */\n      tag_53\n        /* \"AttackGame.sol\":1099:1100  5 */\n      0x05\n        /* \"AttackGame.sol\":1092:1098  random */\n      tag_46\n        /* \"AttackGame.sol\":1092:1101  random(5) */\n      jump\t// in\n    tag_53:\n        /* \"AttackGame.sol\":1090:1091  5 */\n      0x05\n        /* \"AttackGame.sol\":1090:1101  5+random(5) */\n      tag_54\n      swap2\n      swap1\n      tag_48\n      jump\t// in\n    tag_54:\n        /* \"AttackGame.sol\":1067:1072  Stats */\n      0x01\n        /* \"AttackGame.sol\":1067:1084  Stats[msg.sender] */\n      0x00\n        /* \"AttackGame.sol\":1073:1083  msg.sender */\n      caller\n        /* \"AttackGame.sol\":1067:1084  Stats[msg.sender] */\n      0xffffffffffffffffffffffffffffffffffffffff\n      and\n      0xffffffffffffffffffffffffffffffffffffffff\n      and\n      dup2\n      mstore\n      0x20\n      add\n      swap1\n      dup2\n      mstore\n      0x20\n      add\n      0x00\n      keccak256\n        /* \"AttackGame.sol\":1085:1086  0 */\n      0x00\n        /* \"AttackGame.sol\":1067:1087  Stats[msg.sender][0] */\n      0x03\n      dup2\n      lt\n      tag_55\n      jumpi\n      tag_56\n      tag_51\n      jump\t// in\n    tag_56:\n    tag_55:\n      add\n        /* \"AttackGame.sol\":1067:1101  Stats[msg.sender][0] = 5+random(5) */\n      dup2\n      swap1\n      sstore\n      pop\n        /* \"AttackGame.sol\":1135:1138  100 */\n      0x64\n        /* \"AttackGame.sol\":1112:1117  Stats */\n      0x01\n        /* \"AttackGame.sol\":1112:1129  Stats[msg.sender] */\n      0x00\n        /* \"AttackGame.sol\":1118:1128  msg.sender */\n      caller\n        /* \"AttackGame.sol\":1112:1129  Stats[msg.sender] */\n      0xffffffffffffffffffffffffffffffffffffffff\n      and\n      0xffffffffffffffffffffffffffffffffffffffff\n      and\n      dup2\n      mstore\n      0x20\n      add\n      swap1\n      dup2\n      mstore\n      0x20\n      add\n      0x00\n      keccak256\n        /* \"AttackGame.sol\":1130:1131  0 */\n      0x00\n        /* \"AttackGame.sol\":1112:1132  Stats[msg.sender][0] */\n      0x03\n      dup2\n      lt\n      tag_58\n      jumpi\n      tag_59\n      tag_51\n      jump\t// in\n    tag_59:\n    tag_58:\n      add\n        /* \"AttackGame.sol\":1112:1138  Stats[msg.sender][0] = 100 */\n      dup2\n      swap1\n      sstore\n      pop\n        /* \"AttackGame.sol\":1169:1173  name */\n      dup1\n        /* \"AttackGame.sol\":1149:1154  names */\n      0x03\n        /* \"AttackGame.sol\":1149:1166  names[msg.sender] */\n      0x00\n        /* \"AttackGame.sol\":1155:1165  msg.sender */\n      caller\n        /* \"AttackGame.sol\":1149:1166  names[msg.sender] */\n      0xffffffffffffffffffffffffffffffffffffffff\n      and\n      0xffffffffffffffffffffffffffffffffffffffff\n      and\n      dup2\n      mstore\n      0x20\n      add\n      swap1\n      dup2\n      mstore\n      0x20\n      add\n      0x00\n      keccak256\n        /* \"AttackGame.sol\":1149:1173  names[msg.sender] = name */\n      swap1\n      dup1\n      mload\n      swap1\n      0x20\n      add\n      swap1\n      tag_61\n      swap3\n      swap2\n      swap1\n      tag_62\n      jump\t// in\n    tag_61:\n      pop\n        /* \"AttackGame.sol\":886:1181  function join(string memory name) public {\r... */\n      pop\n      jump\t// out\n        /* \"AttackGame.sol\":240:281  mapping (address => uint[3]) public Stats */\n    tag_26:\n      mstore(0x20, 0x01)\n      dup2\n      0x00\n      mstore\n      keccak256(0x00, 0x40)\n      dup2\n      0x03\n      dup2\n      lt\n      tag_63\n      jumpi\n      0x00\n      dup1\n      revert\n    tag_63:\n      add\n      0x00\n      swap2\n      pop\n      swap2\n      pop\n      pop\n      sload\n      dup2\n      jump\t// out\n        /* \"AttackGame.sol\":1205:1689  function Attack(address victim) public  {\r... */\n    tag_31:\n        /* \"AttackGame.sol\":1282:1286  true */\n      0x01\n        /* \"AttackGame.sol\":1264:1286  joined[victim] == true */\n      iszero\n      iszero\n        /* \"AttackGame.sol\":1264:1270  joined */\n      0x02\n        /* \"AttackGame.sol\":1264:1278  joined[victim] */\n      0x00\n        /* \"AttackGame.sol\":1271:1277  victim */\n      dup4\n        /* \"AttackGame.sol\":1264:1278  joined[victim] */\n      0xffffffffffffffffffffffffffffffffffffffff\n      and\n      0xffffffffffffffffffffffffffffffffffffffff\n      and\n      dup2\n      mstore\n      0x20\n      add\n      swap1\n      dup2\n      mstore\n      0x20\n      add\n      0x00\n      keccak256\n      0x00\n      swap1\n      sload\n      swap1\n      0x0100\n      exp\n      swap1\n      div\n      0xff\n      and\n        /* \"AttackGame.sol\":1264:1286  joined[victim] == true */\n      iszero\n      iszero\n      eq\n        /* \"AttackGame.sol\":1256:1287  require(joined[victim] == true) */\n      tag_66\n      jumpi\n      0x00\n      dup1\n      revert\n    tag_66:\n        /* \"AttackGame.sol\":1298:1309  uint result */\n      0x00\n        /* \"AttackGame.sol\":1335:1340  Stats */\n      0x01\n        /* \"AttackGame.sol\":1335:1348  Stats[victim] */\n      0x00\n        /* \"AttackGame.sol\":1341:1347  victim */\n      dup4\n        /* \"AttackGame.sol\":1335:1348  Stats[victim] */\n      0xffffffffffffffffffffffffffffffffffffffff\n      and\n      0xffffffffffffffffffffffffffffffffffffffff\n      and\n      dup2\n      mstore\n      0x20\n      add\n      swap1\n      dup2\n      mstore\n      0x20\n      add\n      0x00\n      keccak256\n        /* \"AttackGame.sol\":1349:1350  1 */\n      0x01\n        /* \"AttackGame.sol\":1335:1351  Stats[victim][1] */\n      0x03\n      dup2\n      lt\n      tag_67\n      jumpi\n      tag_68\n      tag_51\n      jump\t// in\n    tag_68:\n    tag_67:\n      add\n      sload\n        /* \"AttackGame.sol\":1312:1317  Stats */\n      0x01\n        /* \"AttackGame.sol\":1312:1329  Stats[msg.sender] */\n      0x00\n        /* \"AttackGame.sol\":1318:1328  msg.sender */\n      caller\n        /* \"AttackGame.sol\":1312:1329  Stats[msg.sender] */\n      0xffffffffffffffffffffffffffffffffffffffff\n      and\n      0xffffffffffffffffffffffffffffffffffffffff\n      and\n      dup2\n      mstore\n      0x20\n      add\n      swap1\n      dup2\n      mstore\n      0x20\n      add\n      0x00\n      keccak256\n        /* \"AttackGame.sol\":1330:1331  0 */\n      0x00\n        /* \"AttackGame.sol\":1312:1332  Stats[msg.sender][0] */\n      0x03\n      dup2\n      lt\n      tag_70\n      jumpi\n      tag_71\n      tag_51\n      jump\t// in\n    tag_71:\n    tag_70:\n      add\n      sload\n        /* \"AttackGame.sol\":1312:1351  Stats[msg.sender][0] - Stats[victim][1] */\n      tag_73\n      swap2\n      swap1\n      tag_74\n      jump\t// in\n    tag_73:\n        /* \"AttackGame.sol\":1298:1351  uint result = Stats[msg.sender][0] - Stats[victim][1] */\n      swap1\n      pop\n        /* \"AttackGame.sol\":1436:1438  10 */\n      0x0a\n        /* \"AttackGame.sol\":1412:1417  Stats */\n      0x01\n        /* \"AttackGame.sol\":1412:1429  Stats[msg.sender] */\n      0x00\n        /* \"AttackGame.sol\":1418:1428  msg.sender */\n      caller\n        /* \"AttackGame.sol\":1412:1429  Stats[msg.sender] */\n      0xffffffffffffffffffffffffffffffffffffffff\n      and\n      0xffffffffffffffffffffffffffffffffffffffff\n      and\n      dup2\n      mstore\n      0x20\n      add\n      swap1\n      dup2\n      mstore\n      0x20\n      add\n      0x00\n      keccak256\n        /* \"AttackGame.sol\":1430:1431  0 */\n      0x00\n        /* \"AttackGame.sol\":1412:1432  Stats[msg.sender][0] */\n      0x03\n      dup2\n      lt\n      tag_75\n      jumpi\n      tag_76\n      tag_51\n      jump\t// in\n    tag_76:\n    tag_75:\n      add\n      0x00\n        /* \"AttackGame.sol\":1412:1438  Stats[msg.sender][0] += 10 */\n      dup3\n      dup3\n      sload\n      tag_78\n      swap2\n      swap1\n      tag_48\n      jump\t// in\n    tag_78:\n      swap3\n      pop\n      pop\n      dup2\n      swap1\n      sstore\n      pop\n        /* \"AttackGame.sol\":1520:1522  10 */\n      0x0a\n        /* \"AttackGame.sol\":1500:1505  Stats */\n      0x01\n        /* \"AttackGame.sol\":1500:1513  Stats[victim] */\n      0x00\n        /* \"AttackGame.sol\":1506:1512  victim */\n      dup5\n        /* \"AttackGame.sol\":1500:1513  Stats[victim] */\n      0xffffffffffffffffffffffffffffffffffffffff\n      and\n      0xffffffffffffffffffffffffffffffffffffffff\n      and\n      dup2\n      mstore\n      0x20\n      add\n      swap1\n      dup2\n      mstore\n      0x20\n      add\n      0x00\n      keccak256\n        /* \"AttackGame.sol\":1514:1515  1 */\n      0x01\n        /* \"AttackGame.sol\":1500:1516  Stats[victim][1] */\n      0x03\n      dup2\n      lt\n      tag_79\n      jumpi\n      tag_80\n      tag_51\n      jump\t// in\n    tag_80:\n    tag_79:\n      add\n      0x00\n        /* \"AttackGame.sol\":1500:1522  Stats[victim][1] += 10 */\n      dup3\n      dup3\n      sload\n      tag_82\n      swap2\n      swap1\n      tag_48\n      jump\t// in\n    tag_82:\n      swap3\n      pop\n      pop\n      dup2\n      swap1\n      sstore\n      pop\n        /* \"AttackGame.sol\":1599:1600  2 */\n      0x02\n        /* \"AttackGame.sol\":1592:1598  result */\n      dup2\n        /* \"AttackGame.sol\":1592:1600  result*2 */\n      tag_83\n      swap2\n      swap1\n      tag_84\n      jump\t// in\n    tag_83:\n        /* \"AttackGame.sol\":1572:1577  Stats */\n      0x01\n        /* \"AttackGame.sol\":1572:1585  Stats[victim] */\n      0x00\n        /* \"AttackGame.sol\":1578:1584  victim */\n      dup5\n        /* \"AttackGame.sol\":1572:1585  Stats[victim] */\n      0xffffffffffffffffffffffffffffffffffffffff\n      and\n      0xffffffffffffffffffffffffffffffffffffffff\n      and\n      dup2\n      mstore\n      0x20\n      add\n      swap1\n      dup2\n      mstore\n      0x20\n      add\n      0x00\n      keccak256\n        /* \"AttackGame.sol\":1586:1587  2 */\n      0x02\n        /* \"AttackGame.sol\":1572:1588  Stats[victim][2] */\n      0x03\n      dup2\n      lt\n      tag_85\n      jumpi\n      tag_86\n      tag_51\n      jump\t// in\n    tag_86:\n    tag_85:\n      add\n      0x00\n        /* \"AttackGame.sol\":1572:1600  Stats[victim][2] += result*2 */\n      dup3\n      dup3\n      sload\n      tag_88\n      swap2\n      swap1\n      tag_48\n      jump\t// in\n    tag_88:\n      swap3\n      pop\n      pop\n      dup2\n      swap1\n      sstore\n      pop\n        /* \"AttackGame.sol\":1680:1681  2 */\n      0x02\n        /* \"AttackGame.sol\":1673:1679  result */\n      dup2\n        /* \"AttackGame.sol\":1673:1681  result/2 */\n      tag_89\n      swap2\n      swap1\n      tag_90\n      jump\t// in\n    tag_89:\n        /* \"AttackGame.sol\":1649:1654  Stats */\n      0x01\n        /* \"AttackGame.sol\":1649:1666  Stats[msg.sender] */\n      0x00\n        /* \"AttackGame.sol\":1655:1665  msg.sender */\n      caller\n        /* \"AttackGame.sol\":1649:1666  Stats[msg.sender] */\n      0xffffffffffffffffffffffffffffffffffffffff\n      and\n      0xffffffffffffffffffffffffffffffffffffffff\n      and\n      dup2\n      mstore\n      0x20\n      add\n      swap1\n      dup2\n      mstore\n      0x20\n      add\n      0x00\n      keccak256\n        /* \"AttackGame.sol\":1667:1668  2 */\n      0x02\n        /* \"AttackGame.sol\":1649:1669  Stats[msg.sender][2] */\n      0x03\n      dup2\n      lt\n      tag_91\n      jumpi\n      tag_92\n      tag_51\n      jump\t// in\n    tag_92:\n    tag_91:\n      add\n      0x00\n        /* \"AttackGame.sol\":1649:1681  Stats[msg.sender][2] += result/2 */\n      dup3\n      dup3\n      sload\n      tag_94\n      swap2\n      swap1\n      tag_48\n      jump\t// in\n    tag_94:\n      swap3\n      pop\n      pop\n      dup2\n      swap1\n      sstore\n      pop\n        /* \"AttackGame.sol\":1245:1689  {\r... */\n      pop\n        /* \"AttackGame.sol\":1205:1689  function Attack(address victim) public  {\r... */\n      pop\n      jump\t// out\n        /* \"AttackGame.sol\":288:327  mapping (address => bool) public joined */\n    tag_34:\n      mstore(0x20, 0x02)\n      dup1\n      0x00\n      mstore\n      keccak256(0x00, 0x40)\n      0x00\n      swap2\n      pop\n      sload\n      swap1\n      0x0100\n      exp\n      swap1\n      div\n      0xff\n      and\n      dup2\n      jump\t// out\n        /* \"AttackGame.sol\":690:858  function random(uint number) private view returns(uint){\r... */\n    tag_46:\n        /* \"AttackGame.sol\":740:744  uint */\n      0x00\n        /* \"AttackGame.sol\":844:850  number */\n      dup2\n        /* \"AttackGame.sol\":795:810  block.timestamp */\n      timestamp\n        /* \"AttackGame.sol\":811:827  block.difficulty */\n      difficulty\n        /* \"AttackGame.sol\":828:838  msg.sender */\n      caller\n        /* \"AttackGame.sol\":778:839  abi.encodePacked(block.timestamp,block.difficulty,msg.sender) */\n      add(0x20, mload(0x40))\n      tag_96\n      swap4\n      swap3\n      swap2\n      swap1\n      tag_97\n      jump\t// in\n    tag_96:\n      mload(0x40)\n      0x20\n      dup2\n      dup4\n      sub\n      sub\n      dup2\n      mstore\n      swap1\n      0x40\n      mstore\n        /* \"AttackGame.sol\":768:840  keccak256(abi.encodePacked(block.timestamp,block.difficulty,msg.sender)) */\n      dup1\n      mload\n      swap1\n      0x20\n      add\n      keccak256\n        /* \"AttackGame.sol\":763:841  uint(keccak256(abi.encodePacked(block.timestamp,block.difficulty,msg.sender))) */\n      0x00\n      shr\n        /* \"AttackGame.sol\":763:850  uint(keccak256(abi.encodePacked(block.timestamp,block.difficulty,msg.sender))) % number */\n      tag_98\n      swap2\n      swap1\n      tag_99\n      jump\t// in\n    tag_98:\n        /* \"AttackGame.sol\":756:850  return uint(keccak256(abi.encodePacked(block.timestamp,block.difficulty,msg.sender))) % number */\n      swap1\n      pop\n        /* \"AttackGame.sol\":690:858  function random(uint number) private view returns(uint){\r... */\n      swap2\n      swap1\n      pop\n      jump\t// out\n    tag_62:\n      dup3\n      dup1\n      sload\n      tag_100\n      swap1\n      tag_38\n      jump\t// in\n    tag_100:\n      swap1\n      0x00\n      mstore\n      keccak256(0x00, 0x20)\n      swap1\n      0x1f\n      add\n      0x20\n      swap1\n      div\n      dup2\n      add\n      swap3\n      dup3\n      tag_102\n      jumpi\n      0x00\n      dup6\n      sstore\n      jump(tag_101)\n    tag_102:\n      dup3\n      0x1f\n      lt\n      tag_103\n      jumpi\n      dup1\n      mload\n      not(0xff)\n      and\n      dup4\n      dup1\n      add\n      or\n      dup6\n      sstore\n      jump(tag_101)\n    tag_103:\n      dup3\n      dup1\n      add\n      0x01\n      add\n      dup6\n      sstore\n      dup3\n      iszero\n      tag_101\n      jumpi\n      swap2\n      dup3\n      add\n    tag_104:\n      dup3\n      dup2\n      gt\n      iszero\n      tag_105\n      jumpi\n      dup3\n      mload\n      dup3\n      sstore\n      swap2\n      0x20\n      add\n      swap2\n      swap1\n      0x01\n      add\n      swap1\n      jump(tag_104)\n    tag_105:\n    tag_101:\n      pop\n      swap1\n      pop\n      tag_106\n      swap2\n      swap1\n      tag_107\n      jump\t// in\n    tag_106:\n      pop\n      swap1\n      jump\t// out\n    tag_107:\n    tag_108:\n      dup1\n      dup3\n      gt\n      iszero\n      tag_109\n      jumpi\n      0x00\n      dup2\n      0x00\n      swap1\n      sstore\n      pop\n      0x01\n      add\n      jump(tag_108)\n    tag_109:\n      pop\n      swap1\n      jump\t// out\n        /* \"#utility.yul\":7:419   */\n    tag_111:\n        /* \"#utility.yul\":85:90   */\n      0x00\n        /* \"#utility.yul\":110:176   */\n      tag_113\n        /* \"#utility.yul\":126:175   */\n      tag_114\n        /* \"#utility.yul\":168:174   */\n      dup5\n        /* \"#utility.yul\":126:175   */\n      tag_115\n      jump\t// in\n    tag_114:\n        /* \"#utility.yul\":110:176   */\n      tag_116\n      jump\t// in\n    tag_113:\n        /* \"#utility.yul\":101:176   */\n      swap1\n      pop\n        /* \"#utility.yul\":199:205   */\n      dup3\n        /* \"#utility.yul\":192:197   */\n      dup2\n        /* \"#utility.yul\":185:206   */\n      mstore\n        /* \"#utility.yul\":237:241   */\n      0x20\n        /* \"#utility.yul\":230:235   */\n      dup2\n        /* \"#utility.yul\":226:242   */\n      add\n        /* \"#utility.yul\":275:278   */\n      dup5\n        /* \"#utility.yul\":266:272   */\n      dup5\n        /* \"#utility.yul\":261:264   */\n      dup5\n        /* \"#utility.yul\":257:273   */\n      add\n        /* \"#utility.yul\":254:279   */\n      gt\n        /* \"#utility.yul\":251:363   */\n      iszero\n      tag_117\n      jumpi\n        /* \"#utility.yul\":282:361   */\n      tag_118\n      tag_119\n      jump\t// in\n    tag_118:\n        /* \"#utility.yul\":251:363   */\n    tag_117:\n        /* \"#utility.yul\":372:413   */\n      tag_120\n        /* \"#utility.yul\":406:412   */\n      dup5\n        /* \"#utility.yul\":401:404   */\n      dup3\n        /* \"#utility.yul\":396:399   */\n      dup6\n        /* \"#utility.yul\":372:413   */\n      tag_121\n      jump\t// in\n    tag_120:\n        /* \"#utility.yul\":91:419   */\n      pop\n        /* \"#utility.yul\":7:419   */\n      swap4\n      swap3\n      pop\n      pop\n      pop\n      jump\t// out\n        /* \"#utility.yul\":425:564   */\n    tag_122:\n        /* \"#utility.yul\":471:476   */\n      0x00\n        /* \"#utility.yul\":509:515   */\n      dup2\n        /* \"#utility.yul\":496:516   */\n      calldataload\n        /* \"#utility.yul\":487:516   */\n      swap1\n      pop\n        /* \"#utility.yul\":525:558   */\n      tag_124\n        /* \"#utility.yul\":552:557   */\n      dup2\n        /* \"#utility.yul\":525:558   */\n      tag_125\n      jump\t// in\n    tag_124:\n        /* \"#utility.yul\":425:564   */\n      swap3\n      swap2\n      pop\n      pop\n      jump\t// out\n        /* \"#utility.yul\":584:924   */\n    tag_126:\n        /* \"#utility.yul\":640:645   */\n      0x00\n        /* \"#utility.yul\":689:692   */\n      dup3\n        /* \"#utility.yul\":682:686   */\n      0x1f\n        /* \"#utility.yul\":674:680   */\n      dup4\n        /* \"#utility.yul\":670:687   */\n      add\n        /* \"#utility.yul\":666:693   */\n      slt\n        /* \"#utility.yul\":656:778   */\n      tag_128\n      jumpi\n        /* \"#utility.yul\":697:776   */\n      tag_129\n      tag_130\n      jump\t// in\n    tag_129:\n        /* \"#utility.yul\":656:778   */\n    tag_128:\n        /* \"#utility.yul\":814:820   */\n      dup2\n        /* \"#utility.yul\":801:821   */\n      calldataload\n        /* \"#utility.yul\":839:918   */\n      tag_131\n        /* \"#utility.yul\":914:917   */\n      dup5\n        /* \"#utility.yul\":906:912   */\n      dup3\n        /* \"#utility.yul\":899:903   */\n      0x20\n        /* \"#utility.yul\":891:897   */\n      dup7\n        /* \"#utility.yul\":887:904   */\n      add\n        /* \"#utility.yul\":839:918   */\n      tag_111\n      jump\t// in\n    tag_131:\n        /* \"#utility.yul\":830:918   */\n      swap2\n      pop\n        /* \"#utility.yul\":646:924   */\n      pop\n        /* \"#utility.yul\":584:924   */\n      swap3\n      swap2\n      pop\n      pop\n      jump\t// out\n        /* \"#utility.yul\":930:1069   */\n    tag_132:\n        /* \"#utility.yul\":976:981   */\n      0x00\n        /* \"#utility.yul\":1014:1020   */\n      dup2\n        /* \"#utility.yul\":1001:1021   */\n      calldataload\n        /* \"#utility.yul\":992:1021   */\n      swap1\n      pop\n        /* \"#utility.yul\":1030:1063   */\n      tag_134\n        /* \"#utility.yul\":1057:1062   */\n      dup2\n        /* \"#utility.yul\":1030:1063   */\n      tag_135\n      jump\t// in\n    tag_134:\n        /* \"#utility.yul\":930:1069   */\n      swap3\n      swap2\n      pop\n      pop\n      jump\t// out\n        /* \"#utility.yul\":1075:1404   */\n    tag_15:\n        /* \"#utility.yul\":1134:1140   */\n      0x00\n        /* \"#utility.yul\":1183:1185   */\n      0x20\n        /* \"#utility.yul\":1171:1180   */\n      dup3\n        /* \"#utility.yul\":1162:1169   */\n      dup5\n        /* \"#utility.yul\":1158:1181   */\n      sub\n        /* \"#utility.yul\":1154:1186   */\n      slt\n        /* \"#utility.yul\":1151:1270   */\n      iszero\n      tag_137\n      jumpi\n        /* \"#utility.yul\":1189:1268   */\n      tag_138\n      tag_139\n      jump\t// in\n    tag_138:\n        /* \"#utility.yul\":1151:1270   */\n    tag_137:\n        /* \"#utility.yul\":1309:1310   */\n      0x00\n        /* \"#utility.yul\":1334:1387   */\n      tag_140\n        /* \"#utility.yul\":1379:1386   */\n      dup5\n        /* \"#utility.yul\":1370:1376   */\n      dup3\n        /* \"#utility.yul\":1359:1368   */\n      dup6\n        /* \"#utility.yul\":1355:1377   */\n      add\n        /* \"#utility.yul\":1334:1387   */\n      tag_122\n      jump\t// in\n    tag_140:\n        /* \"#utility.yul\":1324:1387   */\n      swap2\n      pop\n        /* \"#utility.yul\":1280:1397   */\n      pop\n        /* \"#utility.yul\":1075:1404   */\n      swap3\n      swap2\n      pop\n      pop\n      jump\t// out\n        /* \"#utility.yul\":1410:1884   */\n    tag_25:\n        /* \"#utility.yul\":1478:1484   */\n      0x00\n        /* \"#utility.yul\":1486:1492   */\n      dup1\n        /* \"#utility.yul\":1535:1537   */\n      0x40\n        /* \"#utility.yul\":1523:1532   */\n      dup4\n        /* \"#utility.yul\":1514:1521   */\n      dup6\n        /* \"#utility.yul\":1510:1533   */\n      sub\n        /* \"#utility.yul\":1506:1538   */\n      slt\n        /* \"#utility.yul\":1503:1622   */\n      iszero\n      tag_142\n      jumpi\n        /* \"#utility.yul\":1541:1620   */\n      tag_143\n      tag_139\n      jump\t// in\n    tag_143:\n        /* \"#utility.yul\":1503:1622   */\n    tag_142:\n        /* \"#utility.yul\":1661:1662   */\n      0x00\n        /* \"#utility.yul\":1686:1739   */\n      tag_144\n        /* \"#utility.yul\":1731:1738   */\n      dup6\n        /* \"#utility.yul\":1722:1728   */\n      dup3\n        /* \"#utility.yul\":1711:1720   */\n      dup7\n        /* \"#utility.yul\":1707:1729   */\n      add\n        /* \"#utility.yul\":1686:1739   */\n      tag_122\n      jump\t// in\n    tag_144:\n        /* \"#utility.yul\":1676:1739   */\n      swap3\n      pop\n        /* \"#utility.yul\":1632:1749   */\n      pop\n        /* \"#utility.yul\":1788:1790   */\n      0x20\n        /* \"#utility.yul\":1814:1867   */\n      tag_145\n        /* \"#utility.yul\":1859:1866   */\n      dup6\n        /* \"#utility.yul\":1850:1856   */\n      dup3\n        /* \"#utility.yul\":1839:1848   */\n      dup7\n        /* \"#utility.yul\":1835:1857   */\n      add\n        /* \"#utility.yul\":1814:1867   */\n      tag_132\n      jump\t// in\n    tag_145:\n        /* \"#utility.yul\":1804:1867   */\n      swap2\n      pop\n        /* \"#utility.yul\":1759:1877   */\n      pop\n        /* \"#utility.yul\":1410:1884   */\n      swap3\n      pop\n      swap3\n      swap1\n      pop\n      jump\t// out\n        /* \"#utility.yul\":1890:2399   */\n    tag_21:\n        /* \"#utility.yul\":1959:1965   */\n      0x00\n        /* \"#utility.yul\":2008:2010   */\n      0x20\n        /* \"#utility.yul\":1996:2005   */\n      dup3\n        /* \"#utility.yul\":1987:1994   */\n      dup5\n        /* \"#utility.yul\":1983:2006   */\n      sub\n        /* \"#utility.yul\":1979:2011   */\n      slt\n        /* \"#utility.yul\":1976:2095   */\n      iszero\n      tag_147\n      jumpi\n        /* \"#utility.yul\":2014:2093   */\n      tag_148\n      tag_139\n      jump\t// in\n    tag_148:\n        /* \"#utility.yul\":1976:2095   */\n    tag_147:\n        /* \"#utility.yul\":2162:2163   */\n      0x00\n        /* \"#utility.yul\":2151:2160   */\n      dup3\n        /* \"#utility.yul\":2147:2164   */\n      add\n        /* \"#utility.yul\":2134:2165   */\n      calldataload\n        /* \"#utility.yul\":2192:2210   */\n      0xffffffffffffffff\n        /* \"#utility.yul\":2184:2190   */\n      dup2\n        /* \"#utility.yul\":2181:2211   */\n      gt\n        /* \"#utility.yul\":2178:2295   */\n      iszero\n      tag_149\n      jumpi\n        /* \"#utility.yul\":2214:2293   */\n      tag_150\n      tag_151\n      jump\t// in\n    tag_150:\n        /* \"#utility.yul\":2178:2295   */\n    tag_149:\n        /* \"#utility.yul\":2319:2382   */\n      tag_152\n        /* \"#utility.yul\":2374:2381   */\n      dup5\n        /* \"#utility.yul\":2365:2371   */\n      dup3\n        /* \"#utility.yul\":2354:2363   */\n      dup6\n        /* \"#utility.yul\":2350:2372   */\n      add\n        /* \"#utility.yul\":2319:2382   */\n      tag_126\n      jump\t// in\n    tag_152:\n        /* \"#utility.yul\":2309:2382   */\n      swap2\n      pop\n        /* \"#utility.yul\":2105:2392   */\n      pop\n        /* \"#utility.yul\":1890:2399   */\n      swap3\n      swap2\n      pop\n      pop\n      jump\t// out\n        /* \"#utility.yul\":2405:2523   */\n    tag_153:\n        /* \"#utility.yul\":2492:2516   */\n      tag_155\n        /* \"#utility.yul\":2510:2515   */\n      dup2\n        /* \"#utility.yul\":2492:2516   */\n      tag_156\n      jump\t// in\n    tag_155:\n        /* \"#utility.yul\":2487:2490   */\n      dup3\n        /* \"#utility.yul\":2480:2517   */\n      mstore\n        /* \"#utility.yul\":2405:2523   */\n      pop\n      pop\n      jump\t// out\n        /* \"#utility.yul\":2529:2686   */\n    tag_157:\n        /* \"#utility.yul\":2634:2679   */\n      tag_159\n        /* \"#utility.yul\":2654:2678   */\n      tag_160\n        /* \"#utility.yul\":2672:2677   */\n      dup3\n        /* \"#utility.yul\":2654:2678   */\n      tag_156\n      jump\t// in\n    tag_160:\n        /* \"#utility.yul\":2634:2679   */\n      tag_161\n      jump\t// in\n    tag_159:\n        /* \"#utility.yul\":2629:2632   */\n      dup3\n        /* \"#utility.yul\":2622:2680   */\n      mstore\n        /* \"#utility.yul\":2529:2686   */\n      pop\n      pop\n      jump\t// out\n        /* \"#utility.yul\":2692:2801   */\n    tag_162:\n        /* \"#utility.yul\":2773:2794   */\n      tag_164\n        /* \"#utility.yul\":2788:2793   */\n      dup2\n        /* \"#utility.yul\":2773:2794   */\n      tag_165\n      jump\t// in\n    tag_164:\n        /* \"#utility.yul\":2768:2771   */\n      dup3\n        /* \"#utility.yul\":2761:2795   */\n      mstore\n        /* \"#utility.yul\":2692:2801   */\n      pop\n      pop\n      jump\t// out\n        /* \"#utility.yul\":2807:3171   */\n    tag_166:\n        /* \"#utility.yul\":2895:2898   */\n      0x00\n        /* \"#utility.yul\":2923:2962   */\n      tag_168\n        /* \"#utility.yul\":2956:2961   */\n      dup3\n        /* \"#utility.yul\":2923:2962   */\n      tag_169\n      jump\t// in\n    tag_168:\n        /* \"#utility.yul\":2978:3049   */\n      tag_170\n        /* \"#utility.yul\":3042:3048   */\n      dup2\n        /* \"#utility.yul\":3037:3040   */\n      dup6\n        /* \"#utility.yul\":2978:3049   */\n      tag_171\n      jump\t// in\n    tag_170:\n        /* \"#utility.yul\":2971:3049   */\n      swap4\n      pop\n        /* \"#utility.yul\":3058:3110   */\n      tag_172\n        /* \"#utility.yul\":3103:3109   */\n      dup2\n        /* \"#utility.yul\":3098:3101   */\n      dup6\n        /* \"#utility.yul\":3091:3095   */\n      0x20\n        /* \"#utility.yul\":3084:3089   */\n      dup7\n        /* \"#utility.yul\":3080:3096   */\n      add\n        /* \"#utility.yul\":3058:3110   */\n      tag_173\n      jump\t// in\n    tag_172:\n        /* \"#utility.yul\":3135:3164   */\n      tag_174\n        /* \"#utility.yul\":3157:3163   */\n      dup2\n        /* \"#utility.yul\":3135:3164   */\n      tag_175\n      jump\t// in\n    tag_174:\n        /* \"#utility.yul\":3130:3133   */\n      dup5\n        /* \"#utility.yul\":3126:3165   */\n      add\n        /* \"#utility.yul\":3119:3165   */\n      swap2\n      pop\n        /* \"#utility.yul\":2899:3171   */\n      pop\n        /* \"#utility.yul\":2807:3171   */\n      swap3\n      swap2\n      pop\n      pop\n      jump\t// out\n        /* \"#utility.yul\":3177:3295   */\n    tag_176:\n        /* \"#utility.yul\":3264:3288   */\n      tag_178\n        /* \"#utility.yul\":3282:3287   */\n      dup2\n        /* \"#utility.yul\":3264:3288   */\n      tag_179\n      jump\t// in\n    tag_178:\n        /* \"#utility.yul\":3259:3262   */\n      dup3\n        /* \"#utility.yul\":3252:3289   */\n      mstore\n        /* \"#utility.yul\":3177:3295   */\n      pop\n      pop\n      jump\t// out\n        /* \"#utility.yul\":3301:3458   */\n    tag_180:\n        /* \"#utility.yul\":3406:3451   */\n      tag_182\n        /* \"#utility.yul\":3426:3450   */\n      tag_183\n        /* \"#utility.yul\":3444:3449   */\n      dup3\n        /* \"#utility.yul\":3426:3450   */\n      tag_179\n      jump\t// in\n    tag_183:\n        /* \"#utility.yul\":3406:3451   */\n      tag_184\n      jump\t// in\n    tag_182:\n        /* \"#utility.yul\":3401:3404   */\n      dup3\n        /* \"#utility.yul\":3394:3452   */\n      mstore\n        /* \"#utility.yul\":3301:3458   */\n      pop\n      pop\n      jump\t// out\n        /* \"#utility.yul\":3464:4002   */\n    tag_97:\n        /* \"#utility.yul\":3632:3635   */\n      0x00\n        /* \"#utility.yul\":3647:3722   */\n      tag_186\n        /* \"#utility.yul\":3718:3721   */\n      dup3\n        /* \"#utility.yul\":3709:3715   */\n      dup7\n        /* \"#utility.yul\":3647:3722   */\n      tag_180\n      jump\t// in\n    tag_186:\n        /* \"#utility.yul\":3747:3749   */\n      0x20\n        /* \"#utility.yul\":3742:3745   */\n      dup3\n        /* \"#utility.yul\":3738:3750   */\n      add\n        /* \"#utility.yul\":3731:3750   */\n      swap2\n      pop\n        /* \"#utility.yul\":3760:3835   */\n      tag_187\n        /* \"#utility.yul\":3831:3834   */\n      dup3\n        /* \"#utility.yul\":3822:3828   */\n      dup6\n        /* \"#utility.yul\":3760:3835   */\n      tag_180\n      jump\t// in\n    tag_187:\n        /* \"#utility.yul\":3860:3862   */\n      0x20\n        /* \"#utility.yul\":3855:3858   */\n      dup3\n        /* \"#utility.yul\":3851:3863   */\n      add\n        /* \"#utility.yul\":3844:3863   */\n      swap2\n      pop\n        /* \"#utility.yul\":3873:3948   */\n      tag_188\n        /* \"#utility.yul\":3944:3947   */\n      dup3\n        /* \"#utility.yul\":3935:3941   */\n      dup5\n        /* \"#utility.yul\":3873:3948   */\n      tag_157\n      jump\t// in\n    tag_188:\n        /* \"#utility.yul\":3973:3975   */\n      0x14\n        /* \"#utility.yul\":3968:3971   */\n      dup3\n        /* \"#utility.yul\":3964:3976   */\n      add\n        /* \"#utility.yul\":3957:3976   */\n      swap2\n      pop\n        /* \"#utility.yul\":3993:3996   */\n      dup2\n        /* \"#utility.yul\":3986:3996   */\n      swap1\n      pop\n        /* \"#utility.yul\":3464:4002   */\n      swap5\n      swap4\n      pop\n      pop\n      pop\n      pop\n      jump\t// out\n        /* \"#utility.yul\":4008:4230   */\n    tag_12:\n        /* \"#utility.yul\":4101:4105   */\n      0x00\n        /* \"#utility.yul\":4139:4141   */\n      0x20\n        /* \"#utility.yul\":4128:4137   */\n      dup3\n        /* \"#utility.yul\":4124:4142   */\n      add\n        /* \"#utility.yul\":4116:4142   */\n      swap1\n      pop\n        /* \"#utility.yul\":4152:4223   */\n      tag_190\n        /* \"#utility.yul\":4220:4221   */\n      0x00\n        /* \"#utility.yul\":4209:4218   */\n      dup4\n        /* \"#utility.yul\":4205:4222   */\n      add\n        /* \"#utility.yul\":4196:4202   */\n      dup5\n        /* \"#utility.yul\":4152:4223   */\n      tag_153\n      jump\t// in\n    tag_190:\n        /* \"#utility.yul\":4008:4230   */\n      swap3\n      swap2\n      pop\n      pop\n      jump\t// out\n        /* \"#utility.yul\":4236:4446   */\n    tag_36:\n        /* \"#utility.yul\":4323:4327   */\n      0x00\n        /* \"#utility.yul\":4361:4363   */\n      0x20\n        /* \"#utility.yul\":4350:4359   */\n      dup3\n        /* \"#utility.yul\":4346:4364   */\n      add\n        /* \"#utility.yul\":4338:4364   */\n      swap1\n      pop\n        /* \"#utility.yul\":4374:4439   */\n      tag_192\n        /* \"#utility.yul\":4436:4437   */\n      0x00\n        /* \"#utility.yul\":4425:4434   */\n      dup4\n        /* \"#utility.yul\":4421:4438   */\n      add\n        /* \"#utility.yul\":4412:4418   */\n      dup5\n        /* \"#utility.yul\":4374:4439   */\n      tag_162\n      jump\t// in\n    tag_192:\n        /* \"#utility.yul\":4236:4446   */\n      swap3\n      swap2\n      pop\n      pop\n      jump\t// out\n        /* \"#utility.yul\":4452:4765   */\n    tag_18:\n        /* \"#utility.yul\":4565:4569   */\n      0x00\n        /* \"#utility.yul\":4603:4605   */\n      0x20\n        /* \"#utility.yul\":4592:4601   */\n      dup3\n        /* \"#utility.yul\":4588:4606   */\n      add\n        /* \"#utility.yul\":4580:4606   */\n      swap1\n      pop\n        /* \"#utility.yul\":4652:4661   */\n      dup2\n        /* \"#utility.yul\":4646:4650   */\n      dup2\n        /* \"#utility.yul\":4642:4662   */\n      sub\n        /* \"#utility.yul\":4638:4639   */\n      0x00\n        /* \"#utility.yul\":4627:4636   */\n      dup4\n        /* \"#utility.yul\":4623:4640   */\n      add\n        /* \"#utility.yul\":4616:4663   */\n      mstore\n        /* \"#utility.yul\":4680:4758   */\n      tag_194\n        /* \"#utility.yul\":4753:4757   */\n      dup2\n        /* \"#utility.yul\":4744:4750   */\n      dup5\n        /* \"#utility.yul\":4680:4758   */\n      tag_166\n      jump\t// in\n    tag_194:\n        /* \"#utility.yul\":4672:4758   */\n      swap1\n      pop\n        /* \"#utility.yul\":4452:4765   */\n      swap3\n      swap2\n      pop\n      pop\n      jump\t// out\n        /* \"#utility.yul\":4771:4993   */\n    tag_28:\n        /* \"#utility.yul\":4864:4868   */\n      0x00\n        /* \"#utility.yul\":4902:4904   */\n      0x20\n        /* \"#utility.yul\":4891:4900   */\n      dup3\n        /* \"#utility.yul\":4887:4905   */\n      add\n        /* \"#utility.yul\":4879:4905   */\n      swap1\n      pop\n        /* \"#utility.yul\":4915:4986   */\n      tag_196\n        /* \"#utility.yul\":4983:4984   */\n      0x00\n        /* \"#utility.yul\":4972:4981   */\n      dup4\n        /* \"#utility.yul\":4968:4985   */\n      add\n        /* \"#utility.yul\":4959:4965   */\n      dup5\n        /* \"#utility.yul\":4915:4986   */\n      tag_176\n      jump\t// in\n    tag_196:\n        /* \"#utility.yul\":4771:4993   */\n      swap3\n      swap2\n      pop\n      pop\n      jump\t// out\n        /* \"#utility.yul\":4999:5128   */\n    tag_116:\n        /* \"#utility.yul\":5033:5039   */\n      0x00\n        /* \"#utility.yul\":5060:5080   */\n      tag_198\n      tag_199\n      jump\t// in\n    tag_198:\n        /* \"#utility.yul\":5050:5080   */\n      swap1\n      pop\n        /* \"#utility.yul\":5089:5122   */\n      tag_200\n        /* \"#utility.yul\":5117:5121   */\n      dup3\n        /* \"#utility.yul\":5109:5115   */\n      dup3\n        /* \"#utility.yul\":5089:5122   */\n      tag_201\n      jump\t// in\n    tag_200:\n        /* \"#utility.yul\":4999:5128   */\n      swap2\n      swap1\n      pop\n      jump\t// out\n        /* \"#utility.yul\":5134:5209   */\n    tag_199:\n        /* \"#utility.yul\":5167:5173   */\n      0x00\n        /* \"#utility.yul\":5200:5202   */\n      0x40\n        /* \"#utility.yul\":5194:5203   */\n      mload\n        /* \"#utility.yul\":5184:5203   */\n      swap1\n      pop\n        /* \"#utility.yul\":5134:5209   */\n      swap1\n      jump\t// out\n        /* \"#utility.yul\":5215:5523   */\n    tag_115:\n        /* \"#utility.yul\":5277:5281   */\n      0x00\n        /* \"#utility.yul\":5367:5385   */\n      0xffffffffffffffff\n        /* \"#utility.yul\":5359:5365   */\n      dup3\n        /* \"#utility.yul\":5356:5386   */\n      gt\n        /* \"#utility.yul\":5353:5409   */\n      iszero\n      tag_204\n      jumpi\n        /* \"#utility.yul\":5389:5407   */\n      tag_205\n      tag_206\n      jump\t// in\n    tag_205:\n        /* \"#utility.yul\":5353:5409   */\n    tag_204:\n        /* \"#utility.yul\":5427:5456   */\n      tag_207\n        /* \"#utility.yul\":5449:5455   */\n      dup3\n        /* \"#utility.yul\":5427:5456   */\n      tag_175\n      jump\t// in\n    tag_207:\n        /* \"#utility.yul\":5419:5456   */\n      swap1\n      pop\n        /* \"#utility.yul\":5511:5515   */\n      0x20\n        /* \"#utility.yul\":5505:5509   */\n      dup2\n        /* \"#utility.yul\":5501:5516   */\n      add\n        /* \"#utility.yul\":5493:5516   */\n      swap1\n      pop\n        /* \"#utility.yul\":5215:5523   */\n      swap2\n      swap1\n      pop\n      jump\t// out\n        /* \"#utility.yul\":5529:5628   */\n    tag_169:\n        /* \"#utility.yul\":5581:5587   */\n      0x00\n        /* \"#utility.yul\":5615:5620   */\n      dup2\n        /* \"#utility.yul\":5609:5621   */\n      mload\n        /* \"#utility.yul\":5599:5621   */\n      swap1\n      pop\n        /* \"#utility.yul\":5529:5628   */\n      swap2\n      swap1\n      pop\n      jump\t// out\n        /* \"#utility.yul\":5634:5803   */\n    tag_171:\n        /* \"#utility.yul\":5718:5729   */\n      0x00\n        /* \"#utility.yul\":5752:5758   */\n      dup3\n        /* \"#utility.yul\":5747:5750   */\n      dup3\n        /* \"#utility.yul\":5740:5759   */\n      mstore\n        /* \"#utility.yul\":5792:5796   */\n      0x20\n        /* \"#utility.yul\":5787:5790   */\n      dup3\n        /* \"#utility.yul\":5783:5797   */\n      add\n        /* \"#utility.yul\":5768:5797   */\n      swap1\n      pop\n        /* \"#utility.yul\":5634:5803   */\n      swap3\n      swap2\n      pop\n      pop\n      jump\t// out\n        /* \"#utility.yul\":5809:6114   */\n    tag_48:\n        /* \"#utility.yul\":5849:5852   */\n      0x00\n        /* \"#utility.yul\":5868:5888   */\n      tag_211\n        /* \"#utility.yul\":5886:5887   */\n      dup3\n        /* \"#utility.yul\":5868:5888   */\n      tag_179\n      jump\t// in\n    tag_211:\n        /* \"#utility.yul\":5863:5888   */\n      swap2\n      pop\n        /* \"#utility.yul\":5902:5922   */\n      tag_212\n        /* \"#utility.yul\":5920:5921   */\n      dup4\n        /* \"#utility.yul\":5902:5922   */\n      tag_179\n      jump\t// in\n    tag_212:\n        /* \"#utility.yul\":5897:5922   */\n      swap3\n      pop\n        /* \"#utility.yul\":6056:6057   */\n      dup3\n        /* \"#utility.yul\":5988:6054   */\n      0xffffffffffffffffffffffffffffffffffffffffffffffffffffffffffffffff\n        /* \"#utility.yul\":5984:6058   */\n      sub\n        /* \"#utility.yul\":5981:5982   */\n      dup3\n        /* \"#utility.yul\":5978:6059   */\n      gt\n        /* \"#utility.yul\":5975:6082   */\n      iszero\n      tag_213\n      jumpi\n        /* \"#utility.yul\":6062:6080   */\n      tag_214\n      tag_215\n      jump\t// in\n    tag_214:\n        /* \"#utility.yul\":5975:6082   */\n    tag_213:\n        /* \"#utility.yul\":6106:6107   */\n      dup3\n        /* \"#utility.yul\":6103:6104   */\n      dup3\n        /* \"#utility.yul\":6099:6108   */\n      add\n        /* \"#utility.yul\":6092:6108   */\n      swap1\n      pop\n        /* \"#utility.yul\":5809:6114   */\n      swap3\n      swap2\n      pop\n      pop\n      jump\t// out\n        /* \"#utility.yul\":6120:6305   */\n    tag_90:\n        /* \"#utility.yul\":6160:6161   */\n      0x00\n        /* \"#utility.yul\":6177:6197   */\n      tag_217\n        /* \"#utility.yul\":6195:6196   */\n      dup3\n        /* \"#utility.yul\":6177:6197   */\n      tag_179\n      jump\t// in\n    tag_217:\n        /* \"#utility.yul\":6172:6197   */\n      swap2\n      pop\n        /* \"#utility.yul\":6211:6231   */\n      tag_218\n        /* \"#utility.yul\":6229:6230   */\n      dup4\n        /* \"#utility.yul\":6211:6231   */\n      tag_179\n      jump\t// in\n    tag_218:\n        /* \"#utility.yul\":6206:6231   */\n      swap3\n      pop\n        /* \"#utility.yul\":6250:6251   */\n      dup3\n        /* \"#utility.yul\":6240:6275   */\n      tag_219\n      jumpi\n        /* \"#utility.yul\":6255:6273   */\n      tag_220\n      tag_221\n      jump\t// in\n    tag_220:\n        /* \"#utility.yul\":6240:6275   */\n    tag_219:\n        /* \"#utility.yul\":6297:6298   */\n      dup3\n        /* \"#utility.yul\":6294:6295   */\n      dup3\n        /* \"#utility.yul\":6290:6299   */\n      div\n        /* \"#utility.yul\":6285:6299   */\n      swap1\n      pop\n        /* \"#utility.yul\":6120:6305   */\n      swap3\n      swap2\n      pop\n      pop\n      jump\t// out\n        /* \"#utility.yul\":6311:6659   */\n    tag_84:\n        /* \"#utility.yul\":6351:6358   */\n      0x00\n        /* \"#utility.yul\":6374:6394   */\n      tag_223\n        /* \"#utility.yul\":6392:6393   */\n      dup3\n        /* \"#utility.yul\":6374:6394   */\n      tag_179\n      jump\t// in\n    tag_223:\n        /* \"#utility.yul\":6369:6394   */\n      swap2\n      pop\n        /* \"#utility.yul\":6408:6428   */\n      tag_224\n        /* \"#utility.yul\":6426:6427   */\n      dup4\n        /* \"#utility.yul\":6408:6428   */\n      tag_179\n      jump\t// in\n    tag_224:\n        /* \"#utility.yul\":6403:6428   */\n      swap3\n      pop\n        /* \"#utility.yul\":6596:6597   */\n      dup2\n        /* \"#utility.yul\":6528:6594   */\n      0xffffffffffffffffffffffffffffffffffffffffffffffffffffffffffffffff\n        /* \"#utility.yul\":6524:6598   */\n      div\n        /* \"#utility.yul\":6521:6522   */\n      dup4\n        /* \"#utility.yul\":6518:6599   */\n      gt\n        /* \"#utility.yul\":6513:6514   */\n      dup3\n        /* \"#utility.yul\":6506:6515   */\n      iszero\n        /* \"#utility.yul\":6499:6516   */\n      iszero\n        /* \"#utility.yul\":6495:6600   */\n      and\n        /* \"#utility.yul\":6492:6623   */\n      iszero\n      tag_225\n      jumpi\n        /* \"#utility.yul\":6603:6621   */\n      tag_226\n      tag_215\n      jump\t// in\n    tag_226:\n        /* \"#utility.yul\":6492:6623   */\n    tag_225:\n        /* \"#utility.yul\":6651:6652   */\n      dup3\n        /* \"#utility.yul\":6648:6649   */\n      dup3\n        /* \"#utility.yul\":6644:6653   */\n      mul\n        /* \"#utility.yul\":6633:6653   */\n      swap1\n      pop\n        /* \"#utility.yul\":6311:6659   */\n      swap3\n      swap2\n      pop\n      pop\n      jump\t// out\n        /* \"#utility.yul\":6665:6856   */\n    tag_74:\n        /* \"#utility.yul\":6705:6709   */\n      0x00\n        /* \"#utility.yul\":6725:6745   */\n      tag_228\n        /* \"#utility.yul\":6743:6744   */\n      dup3\n        /* \"#utility.yul\":6725:6745   */\n      tag_179\n      jump\t// in\n    tag_228:\n        /* \"#utility.yul\":6720:6745   */\n      swap2\n      pop\n        /* \"#utility.yul\":6759:6779   */\n      tag_229\n        /* \"#utility.yul\":6777:6778   */\n      dup4\n        /* \"#utility.yul\":6759:6779   */\n      tag_179\n      jump\t// in\n    tag_229:\n        /* \"#utility.yul\":6754:6779   */\n      swap3\n      pop\n        /* \"#utility.yul\":6798:6799   */\n      dup3\n        /* \"#utility.yul\":6795:6796   */\n      dup3\n        /* \"#utility.yul\":6792:6800   */\n      lt\n        /* \"#utility.yul\":6789:6823   */\n      iszero\n      tag_230\n      jumpi\n        /* \"#utility.yul\":6803:6821   */\n      tag_231\n      tag_215\n      jump\t// in\n    tag_231:\n        /* \"#utility.yul\":6789:6823   */\n    tag_230:\n        /* \"#utility.yul\":6848:6849   */\n      dup3\n        /* \"#utility.yul\":6845:6846   */\n      dup3\n        /* \"#utility.yul\":6841:6850   */\n      sub\n        /* \"#utility.yul\":6833:6850   */\n      swap1\n      pop\n        /* \"#utility.yul\":6665:6856   */\n      swap3\n      swap2\n      pop\n      pop\n      jump\t// out\n        /* \"#utility.yul\":6862:6958   */\n    tag_156:\n        /* \"#utility.yul\":6899:6906   */\n      0x00\n        /* \"#utility.yul\":6928:6952   */\n      tag_233\n        /* \"#utility.yul\":6946:6951   */\n      dup3\n        /* \"#utility.yul\":6928:6952   */\n      tag_234\n      jump\t// in\n    tag_233:\n        /* \"#utility.yul\":6917:6952   */\n      swap1\n      pop\n        /* \"#utility.yul\":6862:6958   */\n      swap2\n      swap1\n      pop\n      jump\t// out\n        /* \"#utility.yul\":6964:7054   */\n    tag_165:\n        /* \"#utility.yul\":6998:7005   */\n      0x00\n        /* \"#utility.yul\":7041:7046   */\n      dup2\n        /* \"#utility.yul\":7034:7047   */\n      iszero\n        /* \"#utility.yul\":7027:7048   */\n      iszero\n        /* \"#utility.yul\":7016:7048   */\n      swap1\n      pop\n        /* \"#utility.yul\":6964:7054   */\n      swap2\n      swap1\n      pop\n      jump\t// out\n        /* \"#utility.yul\":7060:7186   */\n    tag_234:\n        /* \"#utility.yul\":7097:7104   */\n      0x00\n        /* \"#utility.yul\":7137:7179   */\n      0xffffffffffffffffffffffffffffffffffffffff\n        /* \"#utility.yul\":7130:7135   */\n      dup3\n        /* \"#utility.yul\":7126:7180   */\n      and\n        /* \"#utility.yul\":7115:7180   */\n      swap1\n      pop\n        /* \"#utility.yul\":7060:7186   */\n      swap2\n      swap1\n      pop\n      jump\t// out\n        /* \"#utility.yul\":7192:7269   */\n    tag_179:\n        /* \"#utility.yul\":7229:7236   */\n      0x00\n        /* \"#utility.yul\":7258:7263   */\n      dup2\n        /* \"#utility.yul\":7247:7263   */\n      swap1\n      pop\n        /* \"#utility.yul\":7192:7269   */\n      swap2\n      swap1\n      pop\n      jump\t// out\n        /* \"#utility.yul\":7275:7429   */\n    tag_121:\n        /* \"#utility.yul\":7359:7365   */\n      dup3\n        /* \"#utility.yul\":7354:7357   */\n      dup2\n        /* \"#utility.yul\":7349:7352   */\n      dup4\n        /* \"#utility.yul\":7336:7366   */\n      calldatacopy\n        /* \"#utility.yul\":7421:7422   */\n      0x00\n        /* \"#utility.yul\":7412:7418   */\n      dup4\n        /* \"#utility.yul\":7407:7410   */\n      dup4\n        /* \"#utility.yul\":7403:7419   */\n      add\n        /* \"#utility.yul\":7396:7423   */\n      mstore\n        /* \"#utility.yul\":7275:7429   */\n      pop\n      pop\n      pop\n      jump\t// out\n        /* \"#utility.yul\":7435:7742   */\n    tag_173:\n        /* \"#utility.yul\":7503:7504   */\n      0x00\n        /* \"#utility.yul\":7513:7626   */\n    tag_240:\n        /* \"#utility.yul\":7527:7533   */\n      dup4\n        /* \"#utility.yul\":7524:7525   */\n      dup2\n        /* \"#utility.yul\":7521:7534   */\n      lt\n        /* \"#utility.yul\":7513:7626   */\n      iszero\n      tag_242\n      jumpi\n        /* \"#utility.yul\":7612:7613   */\n      dup1\n        /* \"#utility.yul\":7607:7610   */\n      dup3\n        /* \"#utility.yul\":7603:7614   */\n      add\n        /* \"#utility.yul\":7597:7615   */\n      mload\n        /* \"#utility.yul\":7593:7594   */\n      dup2\n        /* \"#utility.yul\":7588:7591   */\n      dup5\n        /* \"#utility.yul\":7584:7595   */\n      add\n        /* \"#utility.yul\":7577:7616   */\n      mstore\n        /* \"#utility.yul\":7549:7551   */\n      0x20\n        /* \"#utility.yul\":7546:7547   */\n      dup2\n        /* \"#utility.yul\":7542:7552   */\n      add\n        /* \"#utility.yul\":7537:7552   */\n      swap1\n      pop\n        /* \"#utility.yul\":7513:7626   */\n      jump(tag_240)\n    tag_242:\n        /* \"#utility.yul\":7644:7650   */\n      dup4\n        /* \"#utility.yul\":7641:7642   */\n      dup2\n        /* \"#utility.yul\":7638:7651   */\n      gt\n        /* \"#utility.yul\":7635:7736   */\n      iszero\n      tag_243\n      jumpi\n        /* \"#utility.yul\":7724:7725   */\n      0x00\n        /* \"#utility.yul\":7715:7721   */\n      dup5\n        /* \"#utility.yul\":7710:7713   */\n      dup5\n        /* \"#utility.yul\":7706:7722   */\n      add\n        /* \"#utility.yul\":7699:7726   */\n      mstore\n        /* \"#utility.yul\":7635:7736   */\n    tag_243:\n        /* \"#utility.yul\":7484:7742   */\n      pop\n        /* \"#utility.yul\":7435:7742   */\n      pop\n      pop\n      pop\n      jump\t// out\n        /* \"#utility.yul\":7748:8068   */\n    tag_38:\n        /* \"#utility.yul\":7792:7798   */\n      0x00\n        /* \"#utility.yul\":7829:7830   */\n      0x02\n        /* \"#utility.yul\":7823:7827   */\n      dup3\n        /* \"#utility.yul\":7819:7831   */\n      div\n        /* \"#utility.yul\":7809:7831   */\n      swap1\n      pop\n        /* \"#utility.yul\":7876:7877   */\n      0x01\n        /* \"#utility.yul\":7870:7874   */\n      dup3\n        /* \"#utility.yul\":7866:7878   */\n      and\n        /* \"#utility.yul\":7897:7915   */\n      dup1\n        /* \"#utility.yul\":7887:7968   */\n      tag_245\n      jumpi\n        /* \"#utility.yul\":7953:7957   */\n      0x7f\n        /* \"#utility.yul\":7945:7951   */\n      dup3\n        /* \"#utility.yul\":7941:7958   */\n      and\n        /* \"#utility.yul\":7931:7958   */\n      swap2\n      pop\n        /* \"#utility.yul\":7887:7968   */\n    tag_245:\n        /* \"#utility.yul\":8015:8017   */\n      0x20\n        /* \"#utility.yul\":8007:8013   */\n      dup3\n        /* \"#utility.yul\":8004:8018   */\n      lt\n        /* \"#utility.yul\":7984:8002   */\n      dup2\n        /* \"#utility.yul\":7981:8019   */\n      eq\n        /* \"#utility.yul\":7978:8062   */\n      iszero\n      tag_246\n      jumpi\n        /* \"#utility.yul\":8034:8052   */\n      tag_247\n      tag_248\n      jump\t// in\n    tag_247:\n        /* \"#utility.yul\":7978:8062   */\n    tag_246:\n        /* \"#utility.yul\":7799:8068   */\n      pop\n        /* \"#utility.yul\":7748:8068   */\n      swap2\n      swap1\n      pop\n      jump\t// out\n        /* \"#utility.yul\":8074:8355   */\n    tag_201:\n        /* \"#utility.yul\":8157:8184   */\n      tag_250\n        /* \"#utility.yul\":8179:8183   */\n      dup3\n        /* \"#utility.yul\":8157:8184   */\n      tag_175\n      jump\t// in\n    tag_250:\n        /* \"#utility.yul\":8149:8155   */\n      dup2\n        /* \"#utility.yul\":8145:8185   */\n      add\n        /* \"#utility.yul\":8287:8293   */\n      dup2\n        /* \"#utility.yul\":8275:8285   */\n      dup2\n        /* \"#utility.yul\":8272:8294   */\n      lt\n        /* \"#utility.yul\":8251:8269   */\n      0xffffffffffffffff\n        /* \"#utility.yul\":8239:8249   */\n      dup3\n        /* \"#utility.yul\":8236:8270   */\n      gt\n        /* \"#utility.yul\":8233:8295   */\n      or\n        /* \"#utility.yul\":8230:8318   */\n      iszero\n      tag_251\n      jumpi\n        /* \"#utility.yul\":8298:8316   */\n      tag_252\n      tag_206\n      jump\t// in\n    tag_252:\n        /* \"#utility.yul\":8230:8318   */\n    tag_251:\n        /* \"#utility.yul\":8338:8348   */\n      dup1\n        /* \"#utility.yul\":8334:8336   */\n      0x40\n        /* \"#utility.yul\":8327:8349   */\n      mstore\n        /* \"#utility.yul\":8117:8355   */\n      pop\n        /* \"#utility.yul\":8074:8355   */\n      pop\n      pop\n      jump\t// out\n        /* \"#utility.yul\":8361:8461   */\n    tag_161:\n        /* \"#utility.yul\":8400:8407   */\n      0x00\n        /* \"#utility.yul\":8429:8455   */\n      tag_254\n        /* \"#utility.yul\":8449:8454   */\n      dup3\n        /* \"#utility.yul\":8429:8455   */\n      tag_255\n      jump\t// in\n    tag_254:\n        /* \"#utility.yul\":8418:8455   */\n      swap1\n      pop\n        /* \"#utility.yul\":8361:8461   */\n      swap2\n      swap1\n      pop\n      jump\t// out\n        /* \"#utility.yul\":8467:8561   */\n    tag_255:\n        /* \"#utility.yul\":8506:8513   */\n      0x00\n        /* \"#utility.yul\":8535:8555   */\n      tag_257\n        /* \"#utility.yul\":8549:8554   */\n      dup3\n        /* \"#utility.yul\":8535:8555   */\n      tag_258\n      jump\t// in\n    tag_257:\n        /* \"#utility.yul\":8524:8555   */\n      swap1\n      pop\n        /* \"#utility.yul\":8467:8561   */\n      swap2\n      swap1\n      pop\n      jump\t// out\n        /* \"#utility.yul\":8567:8646   */\n    tag_184:\n        /* \"#utility.yul\":8606:8613   */\n      0x00\n        /* \"#utility.yul\":8635:8640   */\n      dup2\n        /* \"#utility.yul\":8624:8640   */\n      swap1\n      pop\n        /* \"#utility.yul\":8567:8646   */\n      swap2\n      swap1\n      pop\n      jump\t// out\n        /* \"#utility.yul\":8652:8828   */\n    tag_99:\n        /* \"#utility.yul\":8684:8685   */\n      0x00\n        /* \"#utility.yul\":8701:8721   */\n      tag_261\n        /* \"#utility.yul\":8719:8720   */\n      dup3\n        /* \"#utility.yul\":8701:8721   */\n      tag_179\n      jump\t// in\n    tag_261:\n        /* \"#utility.yul\":8696:8721   */\n      swap2\n      pop\n        /* \"#utility.yul\":8735:8755   */\n      tag_262\n        /* \"#utility.yul\":8753:8754   */\n      dup4\n        /* \"#utility.yul\":8735:8755   */\n      tag_179\n      jump\t// in\n    tag_262:\n        /* \"#utility.yul\":8730:8755   */\n      swap3\n      pop\n        /* \"#utility.yul\":8774:8775   */\n      dup3\n        /* \"#utility.yul\":8764:8799   */\n      tag_263\n      jumpi\n        /* \"#utility.yul\":8779:8797   */\n      tag_264\n      tag_221\n      jump\t// in\n    tag_264:\n        /* \"#utility.yul\":8764:8799   */\n    tag_263:\n        /* \"#utility.yul\":8820:8821   */\n      dup3\n        /* \"#utility.yul\":8817:8818   */\n      dup3\n        /* \"#utility.yul\":8813:8822   */\n      mod\n        /* \"#utility.yul\":8808:8822   */\n      swap1\n      pop\n        /* \"#utility.yul\":8652:8828   */\n      swap3\n      swap2\n      pop\n      pop\n      jump\t// out\n        /* \"#utility.yul\":8834:9014   */\n    tag_215:\n        /* \"#utility.yul\":8882:8959   */\n      0x4e487b7100000000000000000000000000000000000000000000000000000000\n        /* \"#utility.yul\":8879:8880   */\n      0x00\n        /* \"#utility.yul\":8872:8960   */\n      mstore\n        /* \"#utility.yul\":8979:8983   */\n      0x11\n        /* \"#utility.yul\":8976:8977   */\n      0x04\n        /* \"#utility.yul\":8969:8984   */\n      mstore\n        /* \"#utility.yul\":9003:9007   */\n      0x24\n        /* \"#utility.yul\":9000:9001   */\n      0x00\n        /* \"#utility.yul\":8993:9008   */\n      revert\n        /* \"#utility.yul\":9020:9200   */\n    tag_221:\n        /* \"#utility.yul\":9068:9145   */\n      0x4e487b7100000000000000000000000000000000000000000000000000000000\n        /* \"#utility.yul\":9065:9066   */\n      0x00\n        /* \"#utility.yul\":9058:9146   */\n      mstore\n        /* \"#utility.yul\":9165:9169   */\n      0x12\n        /* \"#utility.yul\":9162:9163   */\n      0x04\n        /* \"#utility.yul\":9155:9170   */\n      mstore\n        /* \"#utility.yul\":9189:9193   */\n      0x24\n        /* \"#utility.yul\":9186:9187   */\n      0x00\n        /* \"#utility.yul\":9179:9194   */\n      revert\n        /* \"#utility.yul\":9206:9386   */\n    tag_248:\n        /* \"#utility.yul\":9254:9331   */\n      0x4e487b7100000000000000000000000000000000000000000000000000000000\n        /* \"#utility.yul\":9251:9252   */\n      0x00\n        /* \"#utility.yul\":9244:9332   */\n      mstore\n        /* \"#utility.yul\":9351:9355   */\n      0x22\n        /* \"#utility.yul\":9348:9349   */\n      0x04\n        /* \"#utility.yul\":9341:9356   */\n      mstore\n        /* \"#utility.yul\":9375:9379   */\n      0x24\n        /* \"#utility.yul\":9372:9373   */\n      0x00\n        /* \"#utility.yul\":9365:9380   */\n      revert\n        /* \"#utility.yul\":9392:9572   */\n    tag_51:\n        /* \"#utility.yul\":9440:9517   */\n      0x4e487b7100000000000000000000000000000000000000000000000000000000\n        /* \"#utility.yul\":9437:9438   */\n      0x00\n        /* \"#utility.yul\":9430:9518   */\n      mstore\n        /* \"#utility.yul\":9537:9541   */\n      0x32\n        /* \"#utility.yul\":9534:9535   */\n      0x04\n        /* \"#utility.yul\":9527:9542   */\n      mstore\n        /* \"#utility.yul\":9561:9565   */\n      0x24\n        /* \"#utility.yul\":9558:9559   */\n      0x00\n        /* \"#utility.yul\":9551:9566   */\n      revert\n        /* \"#utility.yul\":9578:9758   */\n    tag_206:\n        /* \"#utility.yul\":9626:9703   */\n      0x4e487b7100000000000000000000000000000000000000000000000000000000\n        /* \"#utility.yul\":9623:9624   */\n      0x00\n        /* \"#utility.yul\":9616:9704   */\n      mstore\n        /* \"#utility.yul\":9723:9727   */\n      0x41\n        /* \"#utility.yul\":9720:9721   */\n      0x04\n        /* \"#utility.yul\":9713:9728   */\n      mstore\n        /* \"#utility.yul\":9747:9751   */\n      0x24\n        /* \"#utility.yul\":9744:9745   */\n      0x00\n        /* \"#utility.yul\":9737:9752   */\n      revert\n        /* \"#utility.yul\":9764:9881   */\n    tag_130:\n        /* \"#utility.yul\":9873:9874   */\n      0x00\n        /* \"#utility.yul\":9870:9871   */\n      dup1\n        /* \"#utility.yul\":9863:9875   */\n      revert\n        /* \"#utility.yul\":9887:10004   */\n    tag_119:\n        /* \"#utility.yul\":9996:9997   */\n      0x00\n        /* \"#utility.yul\":9993:9994   */\n      dup1\n        /* \"#utility.yul\":9986:9998   */\n      revert\n        /* \"#utility.yul\":10010:10127   */\n    tag_151:\n        /* \"#utility.yul\":10119:10120   */\n      0x00\n        /* \"#utility.yul\":10116:10117   */\n      dup1\n        /* \"#utility.yul\":10109:10121   */\n      revert\n        /* \"#utility.yul\":10133:10250   */\n    tag_139:\n        /* \"#utility.yul\":10242:10243   */\n      0x00\n        /* \"#utility.yul\":10239:10240   */\n      dup1\n        /* \"#utility.yul\":10232:10244   */\n      revert\n        /* \"#utility.yul\":10256:10358   */\n    tag_175:\n        /* \"#utility.yul\":10297:10303   */\n      0x00\n        /* \"#utility.yul\":10348:10350   */\n      0x1f\n        /* \"#utility.yul\":10344:10351   */\n      not\n        /* \"#utility.yul\":10339:10341   */\n      0x1f\n        /* \"#utility.yul\":10332:10337   */\n      dup4\n        /* \"#utility.yul\":10328:10342   */\n      add\n        /* \"#utility.yul\":10324:10352   */\n      and\n        /* \"#utility.yul\":10314:10352   */\n      swap1\n      pop\n        /* \"#utility.yul\":10256:10358   */\n      swap2\n      swap1\n      pop\n      jump\t// out\n        /* \"#utility.yul\":10364:10458   */\n    tag_258:\n        /* \"#utility.yul\":10397:10405   */\n      0x00\n        /* \"#utility.yul\":10445:10450   */\n      dup2\n        /* \"#utility.yul\":10441:10443   */\n      0x60\n        /* \"#utility.yul\":10437:10451   */\n      shl\n        /* \"#utility.yul\":10416:10451   */\n      swap1\n      pop\n        /* \"#utility.yul\":10364:10458   */\n      swap2\n      swap1\n      pop\n      jump\t// out\n        /* \"#utility.yul\":10464:10586   */\n    tag_125:\n        /* \"#utility.yul\":10537:10561   */\n      tag_277\n        /* \"#utility.yul\":10555:10560   */\n      dup2\n        /* \"#utility.yul\":10537:10561   */\n      tag_156\n      jump\t// in\n    tag_277:\n        /* \"#utility.yul\":10530:10535   */\n      dup2\n        /* \"#utility.yul\":10527:10562   */\n      eq\n        /* \"#utility.yul\":10517:10580   */\n      tag_278\n      jumpi\n        /* \"#utility.yul\":10576:10577   */\n      0x00\n        /* \"#utility.yul\":10573:10574   */\n      dup1\n        /* \"#utility.yul\":10566:10578   */\n      revert\n        /* \"#utility.yul\":10517:10580   */\n    tag_278:\n        /* \"#utility.yul\":10464:10586   */\n      pop\n      jump\t// out\n        /* \"#utility.yul\":10592:10714   */\n    tag_135:\n        /* \"#utility.yul\":10665:10689   */\n      tag_280\n        /* \"#utility.yul\":10683:10688   */\n      dup2\n        /* \"#utility.yul\":10665:10689   */\n      tag_179\n      jump\t// in\n    tag_280:\n        /* \"#utility.yul\":10658:10663   */\n      dup2\n        /* \"#utility.yul\":10655:10690   */\n      eq\n        /* \"#utility.yul\":10645:10708   */\n      tag_281\n      jumpi\n        /* \"#utility.yul\":10704:10705   */\n      0x00\n        /* \"#utility.yul\":10701:10702   */\n      dup1\n        /* \"#utility.yul\":10694:10706   */\n      revert\n        /* \"#utility.yul\":10645:10708   */\n    tag_281:\n        /* \"#utility.yul\":10592:10714   */\n      pop\n      jump\t// out\n\n    auxdata: 0xa26469706673582212201343702f60ea661bb90ad84ce3c7a8b072580f25a3c1fe908eb8b03cab2213f264736f6c63430008070033\n}\n",
				"bytecode": {
					"linkReferences": {},
					"object": "608060405260405180606001604052806040518060400160405280600681526020017f417474616368000000000000000000000000000000000000000000000000000081525081526020016040518060400160405280600781526020017f446566696e63650000000000000000000000000000000000000000000000000081525081526020016040518060400160405280600781526020017f42616c616e6365000000000000000000000000000000000000000000000000008152508152506004906003620000d092919062000125565b50348015620000de57600080fd5b50336000806101000a81548173ffffffffffffffffffffffffffffffffffffffff021916908373ffffffffffffffffffffffffffffffffffffffff1602179055506200030f565b82805482825590600052602060002090810192821562000179579160200282015b8281111562000178578251829080519060200190620001679291906200018c565b509160200191906001019062000146565b5b5090506200018891906200021d565b5090565b8280546200019a90620002aa565b90600052602060002090601f016020900481019282620001be57600085556200020a565b82601f10620001d957805160ff19168380011785556200020a565b828001600101855582156200020a579182015b8281111562000209578251825591602001919060010190620001ec565b5b50905062000219919062000245565b5090565b5b8082111562000241576000818162000237919062000264565b506001016200021e565b5090565b5b808211156200026057600081600090555060010162000246565b5090565b5080546200027290620002aa565b6000825580601f10620002865750620002a7565b601f016020900490600052602060002090810190620002a6919062000245565b5b50565b60006002820490506001821680620002c357607f821691505b60208210811415620002da57620002d9620002e0565b5b50919050565b7f4e487b7100000000000000000000000000000000000000000000000000000000600052602260045260246000fd5b610ee7806200031f6000396000f3fe608060405234801561001057600080fd5b50600436106100625760003560e01c806307546172146100675780635cf3d346146100855780636a786b07146100b5578063abf5f2ed146100d1578063bc346c9c14610101578063f887d0191461011d575b600080fd5b61006f61014d565b60405161007c9190610a20565b60405180910390f35b61009f600480360381019061009a9190610899565b610171565b6040516100ac9190610a56565b60405180910390f35b6100cf60048036038101906100ca9190610906565b610211565b005b6100eb60048036038101906100e691906108c6565b6103f9565b6040516100f89190610a78565b60405180910390f35b61011b60048036038101906101169190610899565b610421565b005b61013760048036038101906101329190610899565b6106fa565b6040516101449190610a3b565b60405180910390f35b60008054906101000a900473ffffffffffffffffffffffffffffffffffffffff1681565b6003602052806000526040600020600091509050805461019090610ca4565b80601f01602080910402602001604051908101604052809291908181526020018280546101bc90610ca4565b80156102095780601f106101de57610100808354040283529160200191610209565b820191906000526020600020905b8154815290600101906020018083116101ec57829003601f168201915b505050505081565b60011515600260003373ffffffffffffffffffffffffffffffffffffffff1673ffffffffffffffffffffffffffffffffffffffff16815260200190815260200160002060009054906101000a900460ff161515141561026f57600080fd5b610279600561071a565b60056102859190610b05565b600160003373ffffffffffffffffffffffffffffffffffffffff1673ffffffffffffffffffffffffffffffffffffffff1681526020019081526020016000206000600381106102d7576102d6610df3565b5b01819055506102e6600561071a565b60056102f29190610b05565b600160003373ffffffffffffffffffffffffffffffffffffffff1673ffffffffffffffffffffffffffffffffffffffff16815260200190815260200160002060006003811061034457610343610df3565b5b01819055506064600160003373ffffffffffffffffffffffffffffffffffffffff1673ffffffffffffffffffffffffffffffffffffffff16815260200190815260200160002060006003811061039d5761039c610df3565b5b018190555080600360003373ffffffffffffffffffffffffffffffffffffffff1673ffffffffffffffffffffffffffffffffffffffff16815260200190815260200160002090805190602001906103f592919061075c565b5050565b6001602052816000526040600020816003811061041557600080fd5b01600091509150505481565b60011515600260008373ffffffffffffffffffffffffffffffffffffffff1673ffffffffffffffffffffffffffffffffffffffff16815260200190815260200160002060009054906101000a900460ff1615151461047e57600080fd5b6000600160008373ffffffffffffffffffffffffffffffffffffffff1673ffffffffffffffffffffffffffffffffffffffff1681526020019081526020016000206001600381106104d2576104d1610df3565b5b0154600160003373ffffffffffffffffffffffffffffffffffffffff1673ffffffffffffffffffffffffffffffffffffffff16815260200190815260200160002060006003811061052657610525610df3565b5b01546105329190610be6565b9050600a600160003373ffffffffffffffffffffffffffffffffffffffff1673ffffffffffffffffffffffffffffffffffffffff16815260200190815260200160002060006003811061058857610587610df3565b5b0160008282546105989190610b05565b92505081905550600a600160008473ffffffffffffffffffffffffffffffffffffffff1673ffffffffffffffffffffffffffffffffffffffff1681526020019081526020016000206001600381106105f3576105f2610df3565b5b0160008282546106039190610b05565b925050819055506002816106179190610b8c565b600160008473ffffffffffffffffffffffffffffffffffffffff1673ffffffffffffffffffffffffffffffffffffffff16815260200190815260200160002060026003811061066957610668610df3565b5b0160008282546106799190610b05565b9250508190555060028161068d9190610b5b565b600160003373ffffffffffffffffffffffffffffffffffffffff1673ffffffffffffffffffffffffffffffffffffffff1681526020019081526020016000206002600381106106df576106de610df3565b5b0160008282546106ef9190610b05565b925050819055505050565b60026020528060005260406000206000915054906101000a900460ff1681565b600081424433604051602001610732939291906109e3565b6040516020818303038152906040528051906020012060001c6107559190610d35565b9050919050565b82805461076890610ca4565b90600052602060002090601f01602090048101928261078a57600085556107d1565b82601f106107a357805160ff19168380011785556107d1565b828001600101855582156107d1579182015b828111156107d05782518255916020019190600101906107b5565b5b5090506107de91906107e2565b5090565b5b808211156107fb5760008160009055506001016107e3565b5090565b600061081261080d84610ab8565b610a93565b90508281526020810184848401111561082e5761082d610e56565b5b610839848285610c62565b509392505050565b60008135905061085081610e83565b92915050565b600082601f83011261086b5761086a610e51565b5b813561087b8482602086016107ff565b91505092915050565b60008135905061089381610e9a565b92915050565b6000602082840312156108af576108ae610e60565b5b60006108bd84828501610841565b91505092915050565b600080604083850312156108dd576108dc610e60565b5b60006108eb85828601610841565b92505060206108fc85828601610884565b9150509250929050565b60006020828403121561091c5761091b610e60565b5b600082013567ffffffffffffffff81111561093a57610939610e5b565b5b61094684828501610856565b91505092915050565b61095881610c1a565b82525050565b61096f61096a82610c1a565b610d07565b82525050565b61097e81610c2c565b82525050565b600061098f82610ae9565b6109998185610af4565b93506109a9818560208601610c71565b6109b281610e65565b840191505092915050565b6109c681610c58565b82525050565b6109dd6109d882610c58565b610d2b565b82525050565b60006109ef82866109cc565b6020820191506109ff82856109cc565b602082019150610a0f828461095e565b601482019150819050949350505050565b6000602082019050610a35600083018461094f565b92915050565b6000602082019050610a506000830184610975565b92915050565b60006020820190508181036000830152610a708184610984565b905092915050565b6000602082019050610a8d60008301846109bd565b92915050565b6000610a9d610aae565b9050610aa98282610cd6565b919050565b6000604051905090565b600067ffffffffffffffff821115610ad357610ad2610e22565b5b610adc82610e65565b9050602081019050919050565b600081519050919050565b600082825260208201905092915050565b6000610b1082610c58565b9150610b1b83610c58565b9250827fffffffffffffffffffffffffffffffffffffffffffffffffffffffffffffffff03821115610b5057610b4f610d66565b5b828201905092915050565b6000610b6682610c58565b9150610b7183610c58565b925082610b8157610b80610d95565b5b828204905092915050565b6000610b9782610c58565b9150610ba283610c58565b9250817fffffffffffffffffffffffffffffffffffffffffffffffffffffffffffffffff0483118215151615610bdb57610bda610d66565b5b828202905092915050565b6000610bf182610c58565b9150610bfc83610c58565b925082821015610c0f57610c0e610d66565b5b828203905092915050565b6000610c2582610c38565b9050919050565b60008115159050919050565b600073ffffffffffffffffffffffffffffffffffffffff82169050919050565b6000819050919050565b82818337600083830152505050565b60005b83811015610c8f578082015181840152602081019050610c74565b83811115610c9e576000848401525b50505050565b60006002820490506001821680610cbc57607f821691505b60208210811415610cd057610ccf610dc4565b5b50919050565b610cdf82610e65565b810181811067ffffffffffffffff82111715610cfe57610cfd610e22565b5b80604052505050565b6000610d1282610d19565b9050919050565b6000610d2482610e76565b9050919050565b6000819050919050565b6000610d4082610c58565b9150610d4b83610c58565b925082610d5b57610d5a610d95565b5b828206905092915050565b7f4e487b7100000000000000000000000000000000000000000000000000000000600052601160045260246000fd5b7f4e487b7100000000000000000000000000000000000000000000000000000000600052601260045260246000fd5b7f4e487b7100000000000000000000000000000000000000000000000000000000600052602260045260246000fd5b7f4e487b7100000000000000000000000000000000000000000000000000000000600052603260045260246000fd5b7f4e487b7100000000000000000000000000000000000000000000000000000000600052604160045260246000fd5b600080fd5b600080fd5b600080fd5b600080fd5b6000601f19601f8301169050919050565b60008160601b9050919050565b610e8c81610c1a565b8114610e9757600080fd5b50565b610ea381610c58565b8114610eae57600080fd5b5056fea26469706673582212201343702f60ea661bb90ad84ce3c7a8b072580f25a3c1fe908eb8b03cab2213f264736f6c63430008070033",
					"opcodes": "PUSH1 0x80 PUSH1 0x40 MSTORE PUSH1 0x40 MLOAD DUP1 PUSH1 0x60 ADD PUSH1 0x40 MSTORE DUP1 PUSH1 0x40 MLOAD DUP1 PUSH1 0x40 ADD PUSH1 0x40 MSTORE DUP1 PUSH1 0x6 DUP2 MSTORE PUSH1 0x20 ADD PUSH32 0x4174746163680000000000000000000000000000000000000000000000000000 DUP2 MSTORE POP DUP2 MSTORE PUSH1 0x20 ADD PUSH1 0x40 MLOAD DUP1 PUSH1 0x40 ADD PUSH1 0x40 MSTORE DUP1 PUSH1 0x7 DUP2 MSTORE PUSH1 0x20 ADD PUSH32 0x446566696E636500000000000000000000000000000000000000000000000000 DUP2 MSTORE POP DUP2 MSTORE PUSH1 0x20 ADD PUSH1 0x40 MLOAD DUP1 PUSH1 0x40 ADD PUSH1 0x40 MSTORE DUP1 PUSH1 0x7 DUP2 MSTORE PUSH1 0x20 ADD PUSH32 0x42616C616E636500000000000000000000000000000000000000000000000000 DUP2 MSTORE POP DUP2 MSTORE POP PUSH1 0x4 SWAP1 PUSH1 0x3 PUSH3 0xD0 SWAP3 SWAP2 SWAP1 PUSH3 0x125 JUMP JUMPDEST POP CALLVALUE DUP1 ISZERO PUSH3 0xDE JUMPI PUSH1 0x0 DUP1 REVERT JUMPDEST POP CALLER PUSH1 0x0 DUP1 PUSH2 0x100 EXP DUP2 SLOAD DUP2 PUSH20 0xFFFFFFFFFFFFFFFFFFFFFFFFFFFFFFFFFFFFFFFF MUL NOT AND SWAP1 DUP4 PUSH20 0xFFFFFFFFFFFFFFFFFFFFFFFFFFFFFFFFFFFFFFFF AND MUL OR SWAP1 SSTORE POP PUSH3 0x30F JUMP JUMPDEST DUP3 DUP1 SLOAD DUP3 DUP3 SSTORE SWAP1 PUSH1 0x0 MSTORE PUSH1 0x20 PUSH1 0x0 KECCAK256 SWAP1 DUP2 ADD SWAP3 DUP3 ISZERO PUSH3 0x179 JUMPI SWAP2 PUSH1 0x20 MUL DUP3 ADD JUMPDEST DUP3 DUP2 GT ISZERO PUSH3 0x178 JUMPI DUP3 MLOAD DUP3 SWAP1 DUP1 MLOAD SWAP1 PUSH1 0x20 ADD SWAP1 PUSH3 0x167 SWAP3 SWAP2 SWAP1 PUSH3 0x18C JUMP JUMPDEST POP SWAP2 PUSH1 0x20 ADD SWAP2 SWAP1 PUSH1 0x1 ADD SWAP1 PUSH3 0x146 JUMP JUMPDEST JUMPDEST POP SWAP1 POP PUSH3 0x188 SWAP2 SWAP1 PUSH3 0x21D JUMP JUMPDEST POP SWAP1 JUMP JUMPDEST DUP3 DUP1 SLOAD PUSH3 0x19A SWAP1 PUSH3 0x2AA JUMP JUMPDEST SWAP1 PUSH1 0x0 MSTORE PUSH1 0x20 PUSH1 0x0 KECCAK256 SWAP1 PUSH1 0x1F ADD PUSH1 0x20 SWAP1 DIV DUP2 ADD SWAP3 DUP3 PUSH3 0x1BE JUMPI PUSH1 0x0 DUP6 SSTORE PUSH3 0x20A JUMP JUMPDEST DUP3 PUSH1 0x1F LT PUSH3 0x1D9 JUMPI DUP1 MLOAD PUSH1 0xFF NOT AND DUP4 DUP1 ADD OR DUP6 SSTORE PUSH3 0x20A JUMP JUMPDEST DUP3 DUP1 ADD PUSH1 0x1 ADD DUP6 SSTORE DUP3 ISZERO PUSH3 0x20A JUMPI SWAP2 DUP3 ADD JUMPDEST DUP3 DUP2 GT ISZERO PUSH3 0x209 JUMPI DUP3 MLOAD DUP3 SSTORE SWAP2 PUSH1 0x20 ADD SWAP2 SWAP1 PUSH1 0x1 ADD SWAP1 PUSH3 0x1EC JUMP JUMPDEST JUMPDEST POP SWAP1 POP PUSH3 0x219 SWAP2 SWAP1 PUSH3 0x245 JUMP JUMPDEST POP SWAP1 JUMP JUMPDEST JUMPDEST DUP1 DUP3 GT ISZERO PUSH3 0x241 JUMPI PUSH1 0x0 DUP2 DUP2 PUSH3 0x237 SWAP2 SWAP1 PUSH3 0x264 JUMP JUMPDEST POP PUSH1 0x1 ADD PUSH3 0x21E JUMP JUMPDEST POP SWAP1 JUMP JUMPDEST JUMPDEST DUP1 DUP3 GT ISZERO PUSH3 0x260 JUMPI PUSH1 0x0 DUP2 PUSH1 0x0 SWAP1 SSTORE POP PUSH1 0x1 ADD PUSH3 0x246 JUMP JUMPDEST POP SWAP1 JUMP JUMPDEST POP DUP1 SLOAD PUSH3 0x272 SWAP1 PUSH3 0x2AA JUMP JUMPDEST PUSH1 0x0 DUP3 SSTORE DUP1 PUSH1 0x1F LT PUSH3 0x286 JUMPI POP PUSH3 0x2A7 JUMP JUMPDEST PUSH1 0x1F ADD PUSH1 0x20 SWAP1 DIV SWAP1 PUSH1 0x0 MSTORE PUSH1 0x20 PUSH1 0x0 KECCAK256 SWAP1 DUP2 ADD SWAP1 PUSH3 0x2A6 SWAP2 SWAP1 PUSH3 0x245 JUMP JUMPDEST JUMPDEST POP JUMP JUMPDEST PUSH1 0x0 PUSH1 0x2 DUP3 DIV SWAP1 POP PUSH1 0x1 DUP3 AND DUP1 PUSH3 0x2C3 JUMPI PUSH1 0x7F DUP3 AND SWAP2 POP JUMPDEST PUSH1 0x20 DUP3 LT DUP2 EQ ISZERO PUSH3 0x2DA JUMPI PUSH3 0x2D9 PUSH3 0x2E0 JUMP JUMPDEST JUMPDEST POP SWAP2 SWAP1 POP JUMP JUMPDEST PUSH32 0x4E487B7100000000000000000000000000000000000000000000000000000000 PUSH1 0x0 MSTORE PUSH1 0x22 PUSH1 0x4 MSTORE PUSH1 0x24 PUSH1 0x0 REVERT JUMPDEST PUSH2 0xEE7 DUP1 PUSH3 0x31F PUSH1 0x0 CODECOPY PUSH1 0x0 RETURN INVALID PUSH1 0x80 PUSH1 0x40 MSTORE CALLVALUE DUP1 ISZERO PUSH2 0x10 JUMPI PUSH1 0x0 DUP1 REVERT JUMPDEST POP PUSH1 0x4 CALLDATASIZE LT PUSH2 0x62 JUMPI PUSH1 0x0 CALLDATALOAD PUSH1 0xE0 SHR DUP1 PUSH4 0x7546172 EQ PUSH2 0x67 JUMPI DUP1 PUSH4 0x5CF3D346 EQ PUSH2 0x85 JUMPI DUP1 PUSH4 0x6A786B07 EQ PUSH2 0xB5 JUMPI DUP1 PUSH4 0xABF5F2ED EQ PUSH2 0xD1 JUMPI DUP1 PUSH4 0xBC346C9C EQ PUSH2 0x101 JUMPI DUP1 PUSH4 0xF887D019 EQ PUSH2 0x11D JUMPI JUMPDEST PUSH1 0x0 DUP1 REVERT JUMPDEST PUSH2 0x6F PUSH2 0x14D JUMP JUMPDEST PUSH1 0x40 MLOAD PUSH2 0x7C SWAP2 SWAP1 PUSH2 0xA20 JUMP JUMPDEST PUSH1 0x40 MLOAD DUP1 SWAP2 SUB SWAP1 RETURN JUMPDEST PUSH2 0x9F PUSH1 0x4 DUP1 CALLDATASIZE SUB DUP2 ADD SWAP1 PUSH2 0x9A SWAP2 SWAP1 PUSH2 0x899 JUMP JUMPDEST PUSH2 0x171 JUMP JUMPDEST PUSH1 0x40 MLOAD PUSH2 0xAC SWAP2 SWAP1 PUSH2 0xA56 JUMP JUMPDEST PUSH1 0x40 MLOAD DUP1 SWAP2 SUB SWAP1 RETURN JUMPDEST PUSH2 0xCF PUSH1 0x4 DUP1 CALLDATASIZE SUB DUP2 ADD SWAP1 PUSH2 0xCA SWAP2 SWAP1 PUSH2 0x906 JUMP JUMPDEST PUSH2 0x211 JUMP JUMPDEST STOP JUMPDEST PUSH2 0xEB PUSH1 0x4 DUP1 CALLDATASIZE SUB DUP2 ADD SWAP1 PUSH2 0xE6 SWAP2 SWAP1 PUSH2 0x8C6 JUMP JUMPDEST PUSH2 0x3F9 JUMP JUMPDEST PUSH1 0x40 MLOAD PUSH2 0xF8 SWAP2 SWAP1 PUSH2 0xA78 JUMP JUMPDEST PUSH1 0x40 MLOAD DUP1 SWAP2 SUB SWAP1 RETURN JUMPDEST PUSH2 0x11B PUSH1 0x4 DUP1 CALLDATASIZE SUB DUP2 ADD SWAP1 PUSH2 0x116 SWAP2 SWAP1 PUSH2 0x899 JUMP JUMPDEST PUSH2 0x421 JUMP JUMPDEST STOP JUMPDEST PUSH2 0x137 PUSH1 0x4 DUP1 CALLDATASIZE SUB DUP2 ADD SWAP1 PUSH2 0x132 SWAP2 SWAP1 PUSH2 0x899 JUMP JUMPDEST PUSH2 0x6FA JUMP JUMPDEST PUSH1 0x40 MLOAD PUSH2 0x144 SWAP2 SWAP1 PUSH2 0xA3B JUMP JUMPDEST PUSH1 0x40 MLOAD DUP1 SWAP2 SUB SWAP1 RETURN JUMPDEST PUSH1 0x0 DUP1 SLOAD SWAP1 PUSH2 0x100 EXP SWAP1 DIV PUSH20 0xFFFFFFFFFFFFFFFFFFFFFFFFFFFFFFFFFFFFFFFF AND DUP2 JUMP JUMPDEST PUSH1 0x3 PUSH1 0x20 MSTORE DUP1 PUSH1 0x0 MSTORE PUSH1 0x40 PUSH1 0x0 KECCAK256 PUSH1 0x0 SWAP2 POP SWAP1 POP DUP1 SLOAD PUSH2 0x190 SWAP1 PUSH2 0xCA4 JUMP JUMPDEST DUP1 PUSH1 0x1F ADD PUSH1 0x20 DUP1 SWAP2 DIV MUL PUSH1 0x20 ADD PUSH1 0x40 MLOAD SWAP1 DUP2 ADD PUSH1 0x40 MSTORE DUP1 SWAP3 SWAP2 SWAP1 DUP2 DUP2 MSTORE PUSH1 0x20 ADD DUP3 DUP1 SLOAD PUSH2 0x1BC SWAP1 PUSH2 0xCA4 JUMP JUMPDEST DUP1 ISZERO PUSH2 0x209 JUMPI DUP1 PUSH1 0x1F LT PUSH2 0x1DE JUMPI PUSH2 0x100 DUP1 DUP4 SLOAD DIV MUL DUP4 MSTORE SWAP2 PUSH1 0x20 ADD SWAP2 PUSH2 0x209 JUMP JUMPDEST DUP3 ADD SWAP2 SWAP1 PUSH1 0x0 MSTORE PUSH1 0x20 PUSH1 0x0 KECCAK256 SWAP1 JUMPDEST DUP2 SLOAD DUP2 MSTORE SWAP1 PUSH1 0x1 ADD SWAP1 PUSH1 0x20 ADD DUP1 DUP4 GT PUSH2 0x1EC JUMPI DUP3 SWAP1 SUB PUSH1 0x1F AND DUP3 ADD SWAP2 JUMPDEST POP POP POP POP POP DUP2 JUMP JUMPDEST PUSH1 0x1 ISZERO ISZERO PUSH1 0x2 PUSH1 0x0 CALLER PUSH20 0xFFFFFFFFFFFFFFFFFFFFFFFFFFFFFFFFFFFFFFFF AND PUSH20 0xFFFFFFFFFFFFFFFFFFFFFFFFFFFFFFFFFFFFFFFF AND DUP2 MSTORE PUSH1 0x20 ADD SWAP1 DUP2 MSTORE PUSH1 0x20 ADD PUSH1 0x0 KECCAK256 PUSH1 0x0 SWAP1 SLOAD SWAP1 PUSH2 0x100 EXP SWAP1 DIV PUSH1 0xFF AND ISZERO ISZERO EQ ISZERO PUSH2 0x26F JUMPI PUSH1 0x0 DUP1 REVERT JUMPDEST PUSH2 0x279 PUSH1 0x5 PUSH2 0x71A JUMP JUMPDEST PUSH1 0x5 PUSH2 0x285 SWAP2 SWAP1 PUSH2 0xB05 JUMP JUMPDEST PUSH1 0x1 PUSH1 0x0 CALLER PUSH20 0xFFFFFFFFFFFFFFFFFFFFFFFFFFFFFFFFFFFFFFFF AND PUSH20 0xFFFFFFFFFFFFFFFFFFFFFFFFFFFFFFFFFFFFFFFF AND DUP2 MSTORE PUSH1 0x20 ADD SWAP1 DUP2 MSTORE PUSH1 0x20 ADD PUSH1 0x0 KECCAK256 PUSH1 0x0 PUSH1 0x3 DUP2 LT PUSH2 0x2D7 JUMPI PUSH2 0x2D6 PUSH2 0xDF3 JUMP JUMPDEST JUMPDEST ADD DUP2 SWAP1 SSTORE POP PUSH2 0x2E6 PUSH1 0x5 PUSH2 0x71A JUMP JUMPDEST PUSH1 0x5 PUSH2 0x2F2 SWAP2 SWAP1 PUSH2 0xB05 JUMP JUMPDEST PUSH1 0x1 PUSH1 0x0 CALLER PUSH20 0xFFFFFFFFFFFFFFFFFFFFFFFFFFFFFFFFFFFFFFFF AND PUSH20 0xFFFFFFFFFFFFFFFFFFFFFFFFFFFFFFFFFFFFFFFF AND DUP2 MSTORE PUSH1 0x20 ADD SWAP1 DUP2 MSTORE PUSH1 0x20 ADD PUSH1 0x0 KECCAK256 PUSH1 0x0 PUSH1 0x3 DUP2 LT PUSH2 0x344 JUMPI PUSH2 0x343 PUSH2 0xDF3 JUMP JUMPDEST JUMPDEST ADD DUP2 SWAP1 SSTORE POP PUSH1 0x64 PUSH1 0x1 PUSH1 0x0 CALLER PUSH20 0xFFFFFFFFFFFFFFFFFFFFFFFFFFFFFFFFFFFFFFFF AND PUSH20 0xFFFFFFFFFFFFFFFFFFFFFFFFFFFFFFFFFFFFFFFF AND DUP2 MSTORE PUSH1 0x20 ADD SWAP1 DUP2 MSTORE PUSH1 0x20 ADD PUSH1 0x0 KECCAK256 PUSH1 0x0 PUSH1 0x3 DUP2 LT PUSH2 0x39D JUMPI PUSH2 0x39C PUSH2 0xDF3 JUMP JUMPDEST JUMPDEST ADD DUP2 SWAP1 SSTORE POP DUP1 PUSH1 0x3 PUSH1 0x0 CALLER PUSH20 0xFFFFFFFFFFFFFFFFFFFFFFFFFFFFFFFFFFFFFFFF AND PUSH20 0xFFFFFFFFFFFFFFFFFFFFFFFFFFFFFFFFFFFFFFFF AND DUP2 MSTORE PUSH1 0x20 ADD SWAP1 DUP2 MSTORE PUSH1 0x20 ADD PUSH1 0x0 KECCAK256 SWAP1 DUP1 MLOAD SWAP1 PUSH1 0x20 ADD SWAP1 PUSH2 0x3F5 SWAP3 SWAP2 SWAP1 PUSH2 0x75C JUMP JUMPDEST POP POP JUMP JUMPDEST PUSH1 0x1 PUSH1 0x20 MSTORE DUP2 PUSH1 0x0 MSTORE PUSH1 0x40 PUSH1 0x0 KECCAK256 DUP2 PUSH1 0x3 DUP2 LT PUSH2 0x415 JUMPI PUSH1 0x0 DUP1 REVERT JUMPDEST ADD PUSH1 0x0 SWAP2 POP SWAP2 POP POP SLOAD DUP2 JUMP JUMPDEST PUSH1 0x1 ISZERO ISZERO PUSH1 0x2 PUSH1 0x0 DUP4 PUSH20 0xFFFFFFFFFFFFFFFFFFFFFFFFFFFFFFFFFFFFFFFF AND PUSH20 0xFFFFFFFFFFFFFFFFFFFFFFFFFFFFFFFFFFFFFFFF AND DUP2 MSTORE PUSH1 0x20 ADD SWAP1 DUP2 MSTORE PUSH1 0x20 ADD PUSH1 0x0 KECCAK256 PUSH1 0x0 SWAP1 SLOAD SWAP1 PUSH2 0x100 EXP SWAP1 DIV PUSH1 0xFF AND ISZERO ISZERO EQ PUSH2 0x47E JUMPI PUSH1 0x0 DUP1 REVERT JUMPDEST PUSH1 0x0 PUSH1 0x1 PUSH1 0x0 DUP4 PUSH20 0xFFFFFFFFFFFFFFFFFFFFFFFFFFFFFFFFFFFFFFFF AND PUSH20 0xFFFFFFFFFFFFFFFFFFFFFFFFFFFFFFFFFFFFFFFF AND DUP2 MSTORE PUSH1 0x20 ADD SWAP1 DUP2 MSTORE PUSH1 0x20 ADD PUSH1 0x0 KECCAK256 PUSH1 0x1 PUSH1 0x3 DUP2 LT PUSH2 0x4D2 JUMPI PUSH2 0x4D1 PUSH2 0xDF3 JUMP JUMPDEST JUMPDEST ADD SLOAD PUSH1 0x1 PUSH1 0x0 CALLER PUSH20 0xFFFFFFFFFFFFFFFFFFFFFFFFFFFFFFFFFFFFFFFF AND PUSH20 0xFFFFFFFFFFFFFFFFFFFFFFFFFFFFFFFFFFFFFFFF AND DUP2 MSTORE PUSH1 0x20 ADD SWAP1 DUP2 MSTORE PUSH1 0x20 ADD PUSH1 0x0 KECCAK256 PUSH1 0x0 PUSH1 0x3 DUP2 LT PUSH2 0x526 JUMPI PUSH2 0x525 PUSH2 0xDF3 JUMP JUMPDEST JUMPDEST ADD SLOAD PUSH2 0x532 SWAP2 SWAP1 PUSH2 0xBE6 JUMP JUMPDEST SWAP1 POP PUSH1 0xA PUSH1 0x1 PUSH1 0x0 CALLER PUSH20 0xFFFFFFFFFFFFFFFFFFFFFFFFFFFFFFFFFFFFFFFF AND PUSH20 0xFFFFFFFFFFFFFFFFFFFFFFFFFFFFFFFFFFFFFFFF AND DUP2 MSTORE PUSH1 0x20 ADD SWAP1 DUP2 MSTORE PUSH1 0x20 ADD PUSH1 0x0 KECCAK256 PUSH1 0x0 PUSH1 0x3 DUP2 LT PUSH2 0x588 JUMPI PUSH2 0x587 PUSH2 0xDF3 JUMP JUMPDEST JUMPDEST ADD PUSH1 0x0 DUP3 DUP3 SLOAD PUSH2 0x598 SWAP2 SWAP1 PUSH2 0xB05 JUMP JUMPDEST SWAP3 POP POP DUP2 SWAP1 SSTORE POP PUSH1 0xA PUSH1 0x1 PUSH1 0x0 DUP5 PUSH20 0xFFFFFFFFFFFFFFFFFFFFFFFFFFFFFFFFFFFFFFFF AND PUSH20 0xFFFFFFFFFFFFFFFFFFFFFFFFFFFFFFFFFFFFFFFF AND DUP2 MSTORE PUSH1 0x20 ADD SWAP1 DUP2 MSTORE PUSH1 0x20 ADD PUSH1 0x0 KECCAK256 PUSH1 0x1 PUSH1 0x3 DUP2 LT PUSH2 0x5F3 JUMPI PUSH2 0x5F2 PUSH2 0xDF3 JUMP JUMPDEST JUMPDEST ADD PUSH1 0x0 DUP3 DUP3 SLOAD PUSH2 0x603 SWAP2 SWAP1 PUSH2 0xB05 JUMP JUMPDEST SWAP3 POP POP DUP2 SWAP1 SSTORE POP PUSH1 0x2 DUP2 PUSH2 0x617 SWAP2 SWAP1 PUSH2 0xB8C JUMP JUMPDEST PUSH1 0x1 PUSH1 0x0 DUP5 PUSH20 0xFFFFFFFFFFFFFFFFFFFFFFFFFFFFFFFFFFFFFFFF AND PUSH20 0xFFFFFFFFFFFFFFFFFFFFFFFFFFFFFFFFFFFFFFFF AND DUP2 MSTORE PUSH1 0x20 ADD SWAP1 DUP2 MSTORE PUSH1 0x20 ADD PUSH1 0x0 KECCAK256 PUSH1 0x2 PUSH1 0x3 DUP2 LT PUSH2 0x669 JUMPI PUSH2 0x668 PUSH2 0xDF3 JUMP JUMPDEST JUMPDEST ADD PUSH1 0x0 DUP3 DUP3 SLOAD PUSH2 0x679 SWAP2 SWAP1 PUSH2 0xB05 JUMP JUMPDEST SWAP3 POP POP DUP2 SWAP1 SSTORE POP PUSH1 0x2 DUP2 PUSH2 0x68D SWAP2 SWAP1 PUSH2 0xB5B JUMP JUMPDEST PUSH1 0x1 PUSH1 0x0 CALLER PUSH20 0xFFFFFFFFFFFFFFFFFFFFFFFFFFFFFFFFFFFFFFFF AND PUSH20 0xFFFFFFFFFFFFFFFFFFFFFFFFFFFFFFFFFFFFFFFF AND DUP2 MSTORE PUSH1 0x20 ADD SWAP1 DUP2 MSTORE PUSH1 0x20 ADD PUSH1 0x0 KECCAK256 PUSH1 0x2 PUSH1 0x3 DUP2 LT PUSH2 0x6DF JUMPI PUSH2 0x6DE PUSH2 0xDF3 JUMP JUMPDEST JUMPDEST ADD PUSH1 0x0 DUP3 DUP3 SLOAD PUSH2 0x6EF SWAP2 SWAP1 PUSH2 0xB05 JUMP JUMPDEST SWAP3 POP POP DUP2 SWAP1 SSTORE POP POP POP JUMP JUMPDEST PUSH1 0x2 PUSH1 0x20 MSTORE DUP1 PUSH1 0x0 MSTORE PUSH1 0x40 PUSH1 0x0 KECCAK256 PUSH1 0x0 SWAP2 POP SLOAD SWAP1 PUSH2 0x100 EXP SWAP1 DIV PUSH1 0xFF AND DUP2 JUMP JUMPDEST PUSH1 0x0 DUP2 TIMESTAMP DIFFICULTY CALLER PUSH1 0x40 MLOAD PUSH1 0x20 ADD PUSH2 0x732 SWAP4 SWAP3 SWAP2 SWAP1 PUSH2 0x9E3 JUMP JUMPDEST PUSH1 0x40 MLOAD PUSH1 0x20 DUP2 DUP4 SUB SUB DUP2 MSTORE SWAP1 PUSH1 0x40 MSTORE DUP1 MLOAD SWAP1 PUSH1 0x20 ADD KECCAK256 PUSH1 0x0 SHR PUSH2 0x755 SWAP2 SWAP1 PUSH2 0xD35 JUMP JUMPDEST SWAP1 POP SWAP2 SWAP1 POP JUMP JUMPDEST DUP3 DUP1 SLOAD PUSH2 0x768 SWAP1 PUSH2 0xCA4 JUMP JUMPDEST SWAP1 PUSH1 0x0 MSTORE PUSH1 0x20 PUSH1 0x0 KECCAK256 SWAP1 PUSH1 0x1F ADD PUSH1 0x20 SWAP1 DIV DUP2 ADD SWAP3 DUP3 PUSH2 0x78A JUMPI PUSH1 0x0 DUP6 SSTORE PUSH2 0x7D1 JUMP JUMPDEST DUP3 PUSH1 0x1F LT PUSH2 0x7A3 JUMPI DUP1 MLOAD PUSH1 0xFF NOT AND DUP4 DUP1 ADD OR DUP6 SSTORE PUSH2 0x7D1 JUMP JUMPDEST DUP3 DUP1 ADD PUSH1 0x1 ADD DUP6 SSTORE DUP3 ISZERO PUSH2 0x7D1 JUMPI SWAP2 DUP3 ADD JUMPDEST DUP3 DUP2 GT ISZERO PUSH2 0x7D0 JUMPI DUP3 MLOAD DUP3 SSTORE SWAP2 PUSH1 0x20 ADD SWAP2 SWAP1 PUSH1 0x1 ADD SWAP1 PUSH2 0x7B5 JUMP JUMPDEST JUMPDEST POP SWAP1 POP PUSH2 0x7DE SWAP2 SWAP1 PUSH2 0x7E2 JUMP JUMPDEST POP SWAP1 JUMP JUMPDEST JUMPDEST DUP1 DUP3 GT ISZERO PUSH2 0x7FB JUMPI PUSH1 0x0 DUP2 PUSH1 0x0 SWAP1 SSTORE POP PUSH1 0x1 ADD PUSH2 0x7E3 JUMP JUMPDEST POP SWAP1 JUMP JUMPDEST PUSH1 0x0 PUSH2 0x812 PUSH2 0x80D DUP5 PUSH2 0xAB8 JUMP JUMPDEST PUSH2 0xA93 JUMP JUMPDEST SWAP1 POP DUP3 DUP2 MSTORE PUSH1 0x20 DUP2 ADD DUP5 DUP5 DUP5 ADD GT ISZERO PUSH2 0x82E JUMPI PUSH2 0x82D PUSH2 0xE56 JUMP JUMPDEST JUMPDEST PUSH2 0x839 DUP5 DUP3 DUP6 PUSH2 0xC62 JUMP JUMPDEST POP SWAP4 SWAP3 POP POP POP JUMP JUMPDEST PUSH1 0x0 DUP2 CALLDATALOAD SWAP1 POP PUSH2 0x850 DUP2 PUSH2 0xE83 JUMP JUMPDEST SWAP3 SWAP2 POP POP JUMP JUMPDEST PUSH1 0x0 DUP3 PUSH1 0x1F DUP4 ADD SLT PUSH2 0x86B JUMPI PUSH2 0x86A PUSH2 0xE51 JUMP JUMPDEST JUMPDEST DUP2 CALLDATALOAD PUSH2 0x87B DUP5 DUP3 PUSH1 0x20 DUP7 ADD PUSH2 0x7FF JUMP JUMPDEST SWAP2 POP POP SWAP3 SWAP2 POP POP JUMP JUMPDEST PUSH1 0x0 DUP2 CALLDATALOAD SWAP1 POP PUSH2 0x893 DUP2 PUSH2 0xE9A JUMP JUMPDEST SWAP3 SWAP2 POP POP JUMP JUMPDEST PUSH1 0x0 PUSH1 0x20 DUP3 DUP5 SUB SLT ISZERO PUSH2 0x8AF JUMPI PUSH2 0x8AE PUSH2 0xE60 JUMP JUMPDEST JUMPDEST PUSH1 0x0 PUSH2 0x8BD DUP5 DUP3 DUP6 ADD PUSH2 0x841 JUMP JUMPDEST SWAP2 POP POP SWAP3 SWAP2 POP POP JUMP JUMPDEST PUSH1 0x0 DUP1 PUSH1 0x40 DUP4 DUP6 SUB SLT ISZERO PUSH2 0x8DD JUMPI PUSH2 0x8DC PUSH2 0xE60 JUMP JUMPDEST JUMPDEST PUSH1 0x0 PUSH2 0x8EB DUP6 DUP3 DUP7 ADD PUSH2 0x841 JUMP JUMPDEST SWAP3 POP POP PUSH1 0x20 PUSH2 0x8FC DUP6 DUP3 DUP7 ADD PUSH2 0x884 JUMP JUMPDEST SWAP2 POP POP SWAP3 POP SWAP3 SWAP1 POP JUMP JUMPDEST PUSH1 0x0 PUSH1 0x20 DUP3 DUP5 SUB SLT ISZERO PUSH2 0x91C JUMPI PUSH2 0x91B PUSH2 0xE60 JUMP JUMPDEST JUMPDEST PUSH1 0x0 DUP3 ADD CALLDATALOAD PUSH8 0xFFFFFFFFFFFFFFFF DUP2 GT ISZERO PUSH2 0x93A JUMPI PUSH2 0x939 PUSH2 0xE5B JUMP JUMPDEST JUMPDEST PUSH2 0x946 DUP5 DUP3 DUP6 ADD PUSH2 0x856 JUMP JUMPDEST SWAP2 POP POP SWAP3 SWAP2 POP POP JUMP JUMPDEST PUSH2 0x958 DUP2 PUSH2 0xC1A JUMP JUMPDEST DUP3 MSTORE POP POP JUMP JUMPDEST PUSH2 0x96F PUSH2 0x96A DUP3 PUSH2 0xC1A JUMP JUMPDEST PUSH2 0xD07 JUMP JUMPDEST DUP3 MSTORE POP POP JUMP JUMPDEST PUSH2 0x97E DUP2 PUSH2 0xC2C JUMP JUMPDEST DUP3 MSTORE POP POP JUMP JUMPDEST PUSH1 0x0 PUSH2 0x98F DUP3 PUSH2 0xAE9 JUMP JUMPDEST PUSH2 0x999 DUP2 DUP6 PUSH2 0xAF4 JUMP JUMPDEST SWAP4 POP PUSH2 0x9A9 DUP2 DUP6 PUSH1 0x20 DUP7 ADD PUSH2 0xC71 JUMP JUMPDEST PUSH2 0x9B2 DUP2 PUSH2 0xE65 JUMP JUMPDEST DUP5 ADD SWAP2 POP POP SWAP3 SWAP2 POP POP JUMP JUMPDEST PUSH2 0x9C6 DUP2 PUSH2 0xC58 JUMP JUMPDEST DUP3 MSTORE POP POP JUMP JUMPDEST PUSH2 0x9DD PUSH2 0x9D8 DUP3 PUSH2 0xC58 JUMP JUMPDEST PUSH2 0xD2B JUMP JUMPDEST DUP3 MSTORE POP POP JUMP JUMPDEST PUSH1 0x0 PUSH2 0x9EF DUP3 DUP7 PUSH2 0x9CC JUMP JUMPDEST PUSH1 0x20 DUP3 ADD SWAP2 POP PUSH2 0x9FF DUP3 DUP6 PUSH2 0x9CC JUMP JUMPDEST PUSH1 0x20 DUP3 ADD SWAP2 POP PUSH2 0xA0F DUP3 DUP5 PUSH2 0x95E JUMP JUMPDEST PUSH1 0x14 DUP3 ADD SWAP2 POP DUP2 SWAP1 POP SWAP5 SWAP4 POP POP POP POP JUMP JUMPDEST PUSH1 0x0 PUSH1 0x20 DUP3 ADD SWAP1 POP PUSH2 0xA35 PUSH1 0x0 DUP4 ADD DUP5 PUSH2 0x94F JUMP JUMPDEST SWAP3 SWAP2 POP POP JUMP JUMPDEST PUSH1 0x0 PUSH1 0x20 DUP3 ADD SWAP1 POP PUSH2 0xA50 PUSH1 0x0 DUP4 ADD DUP5 PUSH2 0x975 JUMP JUMPDEST SWAP3 SWAP2 POP POP JUMP JUMPDEST PUSH1 0x0 PUSH1 0x20 DUP3 ADD SWAP1 POP DUP2 DUP2 SUB PUSH1 0x0 DUP4 ADD MSTORE PUSH2 0xA70 DUP2 DUP5 PUSH2 0x984 JUMP JUMPDEST SWAP1 POP SWAP3 SWAP2 POP POP JUMP JUMPDEST PUSH1 0x0 PUSH1 0x20 DUP3 ADD SWAP1 POP PUSH2 0xA8D PUSH1 0x0 DUP4 ADD DUP5 PUSH2 0x9BD JUMP JUMPDEST SWAP3 SWAP2 POP POP JUMP JUMPDEST PUSH1 0x0 PUSH2 0xA9D PUSH2 0xAAE JUMP JUMPDEST SWAP1 POP PUSH2 0xAA9 DUP3 DUP3 PUSH2 0xCD6 JUMP JUMPDEST SWAP2 SWAP1 POP JUMP JUMPDEST PUSH1 0x0 PUSH1 0x40 MLOAD SWAP1 POP SWAP1 JUMP JUMPDEST PUSH1 0x0 PUSH8 0xFFFFFFFFFFFFFFFF DUP3 GT ISZERO PUSH2 0xAD3 JUMPI PUSH2 0xAD2 PUSH2 0xE22 JUMP JUMPDEST JUMPDEST PUSH2 0xADC DUP3 PUSH2 0xE65 JUMP JUMPDEST SWAP1 POP PUSH1 0x20 DUP2 ADD SWAP1 POP SWAP2 SWAP1 POP JUMP JUMPDEST PUSH1 0x0 DUP2 MLOAD SWAP1 POP SWAP2 SWAP1 POP JUMP JUMPDEST PUSH1 0x0 DUP3 DUP3 MSTORE PUSH1 0x20 DUP3 ADD SWAP1 POP SWAP3 SWAP2 POP POP JUMP JUMPDEST PUSH1 0x0 PUSH2 0xB10 DUP3 PUSH2 0xC58 JUMP JUMPDEST SWAP2 POP PUSH2 0xB1B DUP4 PUSH2 0xC58 JUMP JUMPDEST SWAP3 POP DUP3 PUSH32 0xFFFFFFFFFFFFFFFFFFFFFFFFFFFFFFFFFFFFFFFFFFFFFFFFFFFFFFFFFFFFFFFF SUB DUP3 GT ISZERO PUSH2 0xB50 JUMPI PUSH2 0xB4F PUSH2 0xD66 JUMP JUMPDEST JUMPDEST DUP3 DUP3 ADD SWAP1 POP SWAP3 SWAP2 POP POP JUMP JUMPDEST PUSH1 0x0 PUSH2 0xB66 DUP3 PUSH2 0xC58 JUMP JUMPDEST SWAP2 POP PUSH2 0xB71 DUP4 PUSH2 0xC58 JUMP JUMPDEST SWAP3 POP DUP3 PUSH2 0xB81 JUMPI PUSH2 0xB80 PUSH2 0xD95 JUMP JUMPDEST JUMPDEST DUP3 DUP3 DIV SWAP1 POP SWAP3 SWAP2 POP POP JUMP JUMPDEST PUSH1 0x0 PUSH2 0xB97 DUP3 PUSH2 0xC58 JUMP JUMPDEST SWAP2 POP PUSH2 0xBA2 DUP4 PUSH2 0xC58 JUMP JUMPDEST SWAP3 POP DUP2 PUSH32 0xFFFFFFFFFFFFFFFFFFFFFFFFFFFFFFFFFFFFFFFFFFFFFFFFFFFFFFFFFFFFFFFF DIV DUP4 GT DUP3 ISZERO ISZERO AND ISZERO PUSH2 0xBDB JUMPI PUSH2 0xBDA PUSH2 0xD66 JUMP JUMPDEST JUMPDEST DUP3 DUP3 MUL SWAP1 POP SWAP3 SWAP2 POP POP JUMP JUMPDEST PUSH1 0x0 PUSH2 0xBF1 DUP3 PUSH2 0xC58 JUMP JUMPDEST SWAP2 POP PUSH2 0xBFC DUP4 PUSH2 0xC58 JUMP JUMPDEST SWAP3 POP DUP3 DUP3 LT ISZERO PUSH2 0xC0F JUMPI PUSH2 0xC0E PUSH2 0xD66 JUMP JUMPDEST JUMPDEST DUP3 DUP3 SUB SWAP1 POP SWAP3 SWAP2 POP POP JUMP JUMPDEST PUSH1 0x0 PUSH2 0xC25 DUP3 PUSH2 0xC38 JUMP JUMPDEST SWAP1 POP SWAP2 SWAP1 POP JUMP JUMPDEST PUSH1 0x0 DUP2 ISZERO ISZERO SWAP1 POP SWAP2 SWAP1 POP JUMP JUMPDEST PUSH1 0x0 PUSH20 0xFFFFFFFFFFFFFFFFFFFFFFFFFFFFFFFFFFFFFFFF DUP3 AND SWAP1 POP SWAP2 SWAP1 POP JUMP JUMPDEST PUSH1 0x0 DUP2 SWAP1 POP SWAP2 SWAP1 POP JUMP JUMPDEST DUP3 DUP2 DUP4 CALLDATACOPY PUSH1 0x0 DUP4 DUP4 ADD MSTORE POP POP POP JUMP JUMPDEST PUSH1 0x0 JUMPDEST DUP4 DUP2 LT ISZERO PUSH2 0xC8F JUMPI DUP1 DUP3 ADD MLOAD DUP2 DUP5 ADD MSTORE PUSH1 0x20 DUP2 ADD SWAP1 POP PUSH2 0xC74 JUMP JUMPDEST DUP4 DUP2 GT ISZERO PUSH2 0xC9E JUMPI PUSH1 0x0 DUP5 DUP5 ADD MSTORE JUMPDEST POP POP POP POP JUMP JUMPDEST PUSH1 0x0 PUSH1 0x2 DUP3 DIV SWAP1 POP PUSH1 0x1 DUP3 AND DUP1 PUSH2 0xCBC JUMPI PUSH1 0x7F DUP3 AND SWAP2 POP JUMPDEST PUSH1 0x20 DUP3 LT DUP2 EQ ISZERO PUSH2 0xCD0 JUMPI PUSH2 0xCCF PUSH2 0xDC4 JUMP JUMPDEST JUMPDEST POP SWAP2 SWAP1 POP JUMP JUMPDEST PUSH2 0xCDF DUP3 PUSH2 0xE65 JUMP JUMPDEST DUP2 ADD DUP2 DUP2 LT PUSH8 0xFFFFFFFFFFFFFFFF DUP3 GT OR ISZERO PUSH2 0xCFE JUMPI PUSH2 0xCFD PUSH2 0xE22 JUMP JUMPDEST JUMPDEST DUP1 PUSH1 0x40 MSTORE POP POP POP JUMP JUMPDEST PUSH1 0x0 PUSH2 0xD12 DUP3 PUSH2 0xD19 JUMP JUMPDEST SWAP1 POP SWAP2 SWAP1 POP JUMP JUMPDEST PUSH1 0x0 PUSH2 0xD24 DUP3 PUSH2 0xE76 JUMP JUMPDEST SWAP1 POP SWAP2 SWAP1 POP JUMP JUMPDEST PUSH1 0x0 DUP2 SWAP1 POP SWAP2 SWAP1 POP JUMP JUMPDEST PUSH1 0x0 PUSH2 0xD40 DUP3 PUSH2 0xC58 JUMP JUMPDEST SWAP2 POP PUSH2 0xD4B DUP4 PUSH2 0xC58 JUMP JUMPDEST SWAP3 POP DUP3 PUSH2 0xD5B JUMPI PUSH2 0xD5A PUSH2 0xD95 JUMP JUMPDEST JUMPDEST DUP3 DUP3 MOD SWAP1 POP SWAP3 SWAP2 POP POP JUMP JUMPDEST PUSH32 0x4E487B7100000000000000000000000000000000000000000000000000000000 PUSH1 0x0 MSTORE PUSH1 0x11 PUSH1 0x4 MSTORE PUSH1 0x24 PUSH1 0x0 REVERT JUMPDEST PUSH32 0x4E487B7100000000000000000000000000000000000000000000000000000000 PUSH1 0x0 MSTORE PUSH1 0x12 PUSH1 0x4 MSTORE PUSH1 0x24 PUSH1 0x0 REVERT JUMPDEST PUSH32 0x4E487B7100000000000000000000000000000000000000000000000000000000 PUSH1 0x0 MSTORE PUSH1 0x22 PUSH1 0x4 MSTORE PUSH1 0x24 PUSH1 0x0 REVERT JUMPDEST PUSH32 0x4E487B7100000000000000000000000000000000000000000000000000000000 PUSH1 0x0 MSTORE PUSH1 0x32 PUSH1 0x4 MSTORE PUSH1 0x24 PUSH1 0x0 REVERT JUMPDEST PUSH32 0x4E487B7100000000000000000000000000000000000000000000000000000000 PUSH1 0x0 MSTORE PUSH1 0x41 PUSH1 0x4 MSTORE PUSH1 0x24 PUSH1 0x0 REVERT JUMPDEST PUSH1 0x0 DUP1 REVERT JUMPDEST PUSH1 0x0 DUP1 REVERT JUMPDEST PUSH1 0x0 DUP1 REVERT JUMPDEST PUSH1 0x0 DUP1 REVERT JUMPDEST PUSH1 0x0 PUSH1 0x1F NOT PUSH1 0x1F DUP4 ADD AND SWAP1 POP SWAP2 SWAP1 POP JUMP JUMPDEST PUSH1 0x0 DUP2 PUSH1 0x60 SHL SWAP1 POP SWAP2 SWAP1 POP JUMP JUMPDEST PUSH2 0xE8C DUP2 PUSH2 0xC1A JUMP JUMPDEST DUP2 EQ PUSH2 0xE97 JUMPI PUSH1 0x0 DUP1 REVERT JUMPDEST POP JUMP JUMPDEST PUSH2 0xEA3 DUP2 PUSH2 0xC58 JUMP JUMPDEST DUP2 EQ PUSH2 0xEAE JUMPI PUSH1 0x0 DUP1 REVERT JUMPDEST POP JUMP INVALID LOG2 PUSH5 0x6970667358 0x22 SLT KECCAK256 SGT NUMBER PUSH17 0x2F60EA661BB90AD84CE3C7A8B072580F25 LOG3 0xC1 INVALID SWAP1 DUP15 0xB8 0xB0 EXTCODECOPY 0xAB 0x22 SGT CALLCODE PUSH5 0x736F6C6343 STOP ADDMOD SMOD STOP CALLER "
				},
				"gasEstimates": {
					"creation": {
						"codeDepositCost": "763000",
						"executionCost": "infinite",
						"totalCost": "infinite"
					},
					"external": {
						"Attack(address)": "infinite",
						"Stats(address,uint256)": "infinite",
						"join(string)": "infinite",
						"joined(address)": "2933",
						"minter()": "2489",
						"names(address)": "infinite"
					},
					"internal": {
						"random(uint256)": "infinite"
					}
				},
				"methodIdentifiers": {
					"Attack(address)": "bc346c9c",
					"Stats(address,uint256)": "abf5f2ed",
					"join(string)": "6a786b07",
					"joined(address)": "f887d019",
					"minter()": "07546172",
					"names(address)": "5cf3d346"
				}
			},
			"storageLayout": {
				"storage": [
					{
						"astId": 3,
						"contract": "AttackGame.sol:AttackGame",
						"label": "minter",
						"offset": 0,
						"slot": "0",
						"type": "t_address"
					},
					{
						"astId": 9,
						"contract": "AttackGame.sol:AttackGame",
						"label": "Stats",
						"offset": 0,
						"slot": "1",
						"type": "t_mapping(t_address,t_array(t_uint256)3_storage)"
					},
					{
						"astId": 13,
						"contract": "AttackGame.sol:AttackGame",
						"label": "joined",
						"offset": 0,
						"slot": "2",
						"type": "t_mapping(t_address,t_bool)"
					},
					{
						"astId": 17,
						"contract": "AttackGame.sol:AttackGame",
						"label": "names",
						"offset": 0,
						"slot": "3",
						"type": "t_mapping(t_address,t_string_storage)"
					},
					{
						"astId": 24,
						"contract": "AttackGame.sol:AttackGame",
						"label": "StatsInfo",
						"offset": 0,
						"slot": "4",
						"type": "t_array(t_string_storage)dyn_storage"
					}
				],
				"types": {
					"t_address": {
						"encoding": "inplace",
						"label": "address",
						"numberOfBytes": "20"
					},
					"t_array(t_string_storage)dyn_storage": {
						"base": "t_string_storage",
						"encoding": "dynamic_array",
						"label": "string[]",
						"numberOfBytes": "32"
					},
					"t_array(t_uint256)3_storage": {
						"base": "t_uint256",
						"encoding": "inplace",
						"label": "uint256[3]",
						"numberOfBytes": "96"
					},
					"t_bool": {
						"encoding": "inplace",
						"label": "bool",
						"numberOfBytes": "1"
					},
					"t_mapping(t_address,t_array(t_uint256)3_storage)": {
						"encoding": "mapping",
						"key": "t_address",
						"label": "mapping(address => uint256[3])",
						"numberOfBytes": "32",
						"value": "t_array(t_uint256)3_storage"
					},
					"t_mapping(t_address,t_bool)": {
						"encoding": "mapping",
						"key": "t_address",
						"label": "mapping(address => bool)",
						"numberOfBytes": "32",
						"value": "t_bool"
					},
					"t_mapping(t_address,t_string_storage)": {
						"encoding": "mapping",
						"key": "t_address",
						"label": "mapping(address => string)",
						"numberOfBytes": "32",
						"value": "t_string_storage"
					},
					"t_string_storage": {
						"encoding": "bytes",
						"label": "string",
						"numberOfBytes": "32"
					},
					"t_uint256": {
						"encoding": "inplace",
						"label": "uint256",
						"numberOfBytes": "32"
					}
				}
			},
			"userdoc": {
				"kind": "user",
				"methods": {},
				"version": 1
			}
		}
	}
}