{
	"simpleVoting.sol": {
		"Ballot": {
			"abi": [
				{
					"inputs": [
						{
							"internalType": "bytes32[]",
							"name": "proposalNames",
							"type": "bytes32[]"
						}
					],
					"stateMutability": "nonpayable",
					"type": "constructor"
				},
				{
					"inputs": [],
					"name": "chairperson",
					"outputs": [
						{
							"internalType": "address",
							"name": "",
							"type": "address"
						}
					],
					"stateMutability": "view",
					"type": "function"
				},
				{
					"inputs": [],
					"name": "getWinnerName",
					"outputs": [
						{
							"internalType": "bytes32",
							"name": "",
							"type": "bytes32"
						}
					],
					"stateMutability": "nonpayable",
					"type": "function"
				},
				{
					"inputs": [
						{
							"internalType": "address",
							"name": "voter",
							"type": "address"
						}
					],
					"name": "giveRightToVote",
					"outputs": [],
					"stateMutability": "view",
					"type": "function"
				},
				{
					"inputs": [
						{
							"internalType": "uint256",
							"name": "",
							"type": "uint256"
						}
					],
					"name": "proposals",
					"outputs": [
						{
							"internalType": "bytes32",
							"name": "name",
							"type": "bytes32"
						},
						{
							"internalType": "uint256",
							"name": "voteCount",
							"type": "uint256"
						}
					],
					"stateMutability": "view",
					"type": "function"
				},
				{
					"inputs": [
						{
							"internalType": "uint256",
							"name": "proposal",
							"type": "uint256"
						}
					],
					"name": "vote",
					"outputs": [],
					"stateMutability": "nonpayable",
					"type": "function"
				},
				{
					"inputs": [
						{
							"internalType": "address",
							"name": "",
							"type": "address"
						}
					],
					"name": "voters",
					"outputs": [
						{
							"internalType": "bool",
							"name": "voted",
							"type": "bool"
						},
						{
							"internalType": "uint256",
							"name": "vote",
							"type": "uint256"
						}
					],
					"stateMutability": "view",
					"type": "function"
				},
				{
					"inputs": [],
					"name": "winningProposal",
					"outputs": [
						{
							"internalType": "uint256",
							"name": "",
							"type": "uint256"
						}
					],
					"stateMutability": "nonpayable",
					"type": "function"
				}
			],
			"devdoc": {
				"kind": "dev",
				"methods": {
					"winningProposal()": {
						"details": "Computes the winning proposal taking all previous votes into account."
					}
				},
				"version": 1
			},
			"evm": {
				"assembly": "    /* \"simpleVoting.sol\":70:4298  contract Ballot {\r... */\n  mstore(0x40, 0x80)\n    /* \"simpleVoting.sol\":540:571  bytes32 private winnerName = \"\" */\n  sstore(0x01, 0x00)\n    /* \"simpleVoting.sol\":887:1675  constructor(bytes32[] memory proposalNames) {\r... */\n  callvalue\n  dup1\n  iszero\n  tag_1\n  jumpi\n  0x00\n  dup1\n  revert\ntag_1:\n  pop\n  mload(0x40)\n  sub(codesize, bytecodeSize)\n  dup1\n  bytecodeSize\n  dup4\n  codecopy\n  dup2\n  dup2\n  add\n  0x40\n  mstore\n  dup2\n  add\n  swap1\n  tag_2\n  swap2\n  swap1\n  tag_3\n  jump\t// in\ntag_2:\n    /* \"simpleVoting.sol\":1099:1109  msg.sender */\n  caller\n    /* \"simpleVoting.sol\":1085:1096  chairperson */\n  0x00\n  dup1\n    /* \"simpleVoting.sol\":1085:1109  chairperson = msg.sender */\n  0x0100\n  exp\n  dup2\n  sload\n  dup2\n  0xffffffffffffffffffffffffffffffffffffffff\n  mul\n  not\n  and\n  swap1\n  dup4\n  0xffffffffffffffffffffffffffffffffffffffff\n  and\n  mul\n  or\n  swap1\n  sstore\n  pop\n    /* \"simpleVoting.sol\":1269:1275  uint i */\n  0x00\n    /* \"simpleVoting.sol\":1264:1668  for (uint i = 0; i < proposalNames.length; i++) {\r... */\ntag_6:\n    /* \"simpleVoting.sol\":1285:1298  proposalNames */\n  dup2\n    /* \"simpleVoting.sol\":1285:1305  proposalNames.length */\n  mload\n    /* \"simpleVoting.sol\":1281:1282  i */\n  dup2\n    /* \"simpleVoting.sol\":1281:1305  i < proposalNames.length */\n  lt\n    /* \"simpleVoting.sol\":1264:1668  for (uint i = 0; i < proposalNames.length; i++) {\r... */\n  iszero\n  tag_7\n  jumpi\n    /* \"simpleVoting.sol\":1590:1599  proposals */\n  0x03\n    /* \"simpleVoting.sol\":1605:1655  Proposal({ name: proposalNames[i], voteCount: 0 }) */\n  mload(0x40)\n  dup1\n  0x40\n  add\n  0x40\n  mstore\n  dup1\n    /* \"simpleVoting.sol\":1622:1635  proposalNames */\n  dup5\n    /* \"simpleVoting.sol\":1636:1637  i */\n  dup5\n    /* \"simpleVoting.sol\":1622:1638  proposalNames[i] */\n  dup2\n  mload\n  dup2\n  lt\n  tag_9\n  jumpi\n  tag_10\n  tag_11\n  jump\t// in\ntag_10:\ntag_9:\n  0x20\n  mul\n  0x20\n  add\n  add\n  mload\n    /* \"simpleVoting.sol\":1605:1655  Proposal({ name: proposalNames[i], voteCount: 0 }) */\n  dup2\n  mstore\n  0x20\n  add\n    /* \"simpleVoting.sol\":1651:1652  0 */\n  0x00\n    /* \"simpleVoting.sol\":1605:1655  Proposal({ name: proposalNames[i], voteCount: 0 }) */\n  dup2\n  mstore\n  pop\n    /* \"simpleVoting.sol\":1590:1656  proposals.push(Proposal({ name: proposalNames[i], voteCount: 0 })) */\n  swap1\n  dup1\n  0x01\n  dup2\n  sload\n  add\n  dup1\n  dup3\n  sstore\n  dup1\n  swap2\n  pop\n  pop\n  0x01\n  swap1\n  sub\n  swap1\n  0x00\n  mstore\n  keccak256(0x00, 0x20)\n  swap1\n  0x02\n  mul\n  add\n  0x00\n  swap1\n  swap2\n  swap1\n  swap2\n  swap1\n  swap2\n  pop\n  0x00\n  dup3\n  add\n  mload\n  dup2\n  0x00\n  add\n  sstore\n  0x20\n  dup3\n  add\n  mload\n  dup2\n  0x01\n  add\n  sstore\n  pop\n  pop\n    /* \"simpleVoting.sol\":1307:1310  i++ */\n  dup1\n  dup1\n  tag_13\n  swap1\n  tag_14\n  jump\t// in\ntag_13:\n  swap2\n  pop\n  pop\n    /* \"simpleVoting.sol\":1264:1668  for (uint i = 0; i < proposalNames.length; i++) {\r... */\n  jump(tag_6)\ntag_7:\n  pop\n    /* \"simpleVoting.sol\":887:1675  constructor(bytes32[] memory proposalNames) {\r... */\n  pop\n    /* \"simpleVoting.sol\":70:4298  contract Ballot {\r... */\n  jump(tag_15)\n    /* \"#utility.yul\":24:768   */\ntag_17:\n    /* \"#utility.yul\":131:136   */\n  0x00\n    /* \"#utility.yul\":156:237   */\n  tag_19\n    /* \"#utility.yul\":172:236   */\n  tag_20\n    /* \"#utility.yul\":229:235   */\n  dup5\n    /* \"#utility.yul\":172:236   */\n  tag_21\n  jump\t// in\ntag_20:\n    /* \"#utility.yul\":156:237   */\n  tag_22\n  jump\t// in\ntag_19:\n    /* \"#utility.yul\":147:237   */\n  swap1\n  pop\n    /* \"#utility.yul\":257:262   */\n  dup1\n    /* \"#utility.yul\":286:292   */\n  dup4\n    /* \"#utility.yul\":279:284   */\n  dup3\n    /* \"#utility.yul\":272:293   */\n  mstore\n    /* \"#utility.yul\":320:324   */\n  0x20\n    /* \"#utility.yul\":313:318   */\n  dup3\n    /* \"#utility.yul\":309:325   */\n  add\n    /* \"#utility.yul\":302:325   */\n  swap1\n  pop\n    /* \"#utility.yul\":346:352   */\n  dup3\n    /* \"#utility.yul\":396:399   */\n  dup6\n    /* \"#utility.yul\":388:392   */\n  0x20\n    /* \"#utility.yul\":380:386   */\n  dup7\n    /* \"#utility.yul\":376:393   */\n  mul\n    /* \"#utility.yul\":371:374   */\n  dup3\n    /* \"#utility.yul\":367:394   */\n  add\n    /* \"#utility.yul\":364:400   */\n  gt\n    /* \"#utility.yul\":361:504   */\n  iszero\n  tag_23\n  jumpi\n    /* \"#utility.yul\":415:494   */\n  tag_24\n  tag_25\n  jump\t// in\ntag_24:\n    /* \"#utility.yul\":361:504   */\ntag_23:\n    /* \"#utility.yul\":528:529   */\n  0x00\n    /* \"#utility.yul\":513:762   */\ntag_26:\n    /* \"#utility.yul\":538:544   */\n  dup6\n    /* \"#utility.yul\":535:536   */\n  dup2\n    /* \"#utility.yul\":532:545   */\n  lt\n    /* \"#utility.yul\":513:762   */\n  iszero\n  tag_28\n  jumpi\n    /* \"#utility.yul\":606:609   */\n  dup2\n    /* \"#utility.yul\":635:683   */\n  tag_29\n    /* \"#utility.yul\":679:682   */\n  dup9\n    /* \"#utility.yul\":667:677   */\n  dup3\n    /* \"#utility.yul\":635:683   */\n  tag_30\n  jump\t// in\ntag_29:\n    /* \"#utility.yul\":630:633   */\n  dup5\n    /* \"#utility.yul\":623:684   */\n  mstore\n    /* \"#utility.yul\":713:717   */\n  0x20\n    /* \"#utility.yul\":708:711   */\n  dup5\n    /* \"#utility.yul\":704:718   */\n  add\n    /* \"#utility.yul\":697:718   */\n  swap4\n  pop\n    /* \"#utility.yul\":747:751   */\n  0x20\n    /* \"#utility.yul\":742:745   */\n  dup4\n    /* \"#utility.yul\":738:752   */\n  add\n    /* \"#utility.yul\":731:752   */\n  swap3\n  pop\n    /* \"#utility.yul\":573:762   */\n  pop\n    /* \"#utility.yul\":560:561   */\n  0x01\n    /* \"#utility.yul\":557:558   */\n  dup2\n    /* \"#utility.yul\":553:562   */\n  add\n    /* \"#utility.yul\":548:562   */\n  swap1\n  pop\n    /* \"#utility.yul\":513:762   */\n  jump(tag_26)\ntag_28:\n    /* \"#utility.yul\":517:531   */\n  pop\n    /* \"#utility.yul\":137:768   */\n  pop\n  pop\n    /* \"#utility.yul\":24:768   */\n  swap4\n  swap3\n  pop\n  pop\n  pop\n  jump\t// out\n    /* \"#utility.yul\":791:1176   */\ntag_31:\n    /* \"#utility.yul\":873:878   */\n  0x00\n    /* \"#utility.yul\":922:925   */\n  dup3\n    /* \"#utility.yul\":915:919   */\n  0x1f\n    /* \"#utility.yul\":907:913   */\n  dup4\n    /* \"#utility.yul\":903:920   */\n  add\n    /* \"#utility.yul\":899:926   */\n  slt\n    /* \"#utility.yul\":889:1011   */\n  tag_33\n  jumpi\n    /* \"#utility.yul\":930:1009   */\n  tag_34\n  tag_35\n  jump\t// in\ntag_34:\n    /* \"#utility.yul\":889:1011   */\ntag_33:\n    /* \"#utility.yul\":1040:1046   */\n  dup2\n    /* \"#utility.yul\":1034:1047   */\n  mload\n    /* \"#utility.yul\":1065:1170   */\n  tag_36\n    /* \"#utility.yul\":1166:1169   */\n  dup5\n    /* \"#utility.yul\":1158:1164   */\n  dup3\n    /* \"#utility.yul\":1151:1155   */\n  0x20\n    /* \"#utility.yul\":1143:1149   */\n  dup7\n    /* \"#utility.yul\":1139:1156   */\n  add\n    /* \"#utility.yul\":1065:1170   */\n  tag_17\n  jump\t// in\ntag_36:\n    /* \"#utility.yul\":1056:1170   */\n  swap2\n  pop\n    /* \"#utility.yul\":879:1176   */\n  pop\n    /* \"#utility.yul\":791:1176   */\n  swap3\n  swap2\n  pop\n  pop\n  jump\t// out\n    /* \"#utility.yul\":1182:1325   */\ntag_30:\n    /* \"#utility.yul\":1239:1244   */\n  0x00\n    /* \"#utility.yul\":1270:1276   */\n  dup2\n    /* \"#utility.yul\":1264:1277   */\n  mload\n    /* \"#utility.yul\":1255:1277   */\n  swap1\n  pop\n    /* \"#utility.yul\":1286:1319   */\n  tag_38\n    /* \"#utility.yul\":1313:1318   */\n  dup2\n    /* \"#utility.yul\":1286:1319   */\n  tag_39\n  jump\t// in\ntag_38:\n    /* \"#utility.yul\":1182:1325   */\n  swap3\n  swap2\n  pop\n  pop\n  jump\t// out\n    /* \"#utility.yul\":1331:1885   */\ntag_3:\n    /* \"#utility.yul\":1426:1432   */\n  0x00\n    /* \"#utility.yul\":1475:1477   */\n  0x20\n    /* \"#utility.yul\":1463:1472   */\n  dup3\n    /* \"#utility.yul\":1454:1461   */\n  dup5\n    /* \"#utility.yul\":1450:1473   */\n  sub\n    /* \"#utility.yul\":1446:1478   */\n  slt\n    /* \"#utility.yul\":1443:1562   */\n  iszero\n  tag_41\n  jumpi\n    /* \"#utility.yul\":1481:1560   */\n  tag_42\n  tag_43\n  jump\t// in\ntag_42:\n    /* \"#utility.yul\":1443:1562   */\ntag_41:\n    /* \"#utility.yul\":1622:1623   */\n  0x00\n    /* \"#utility.yul\":1611:1620   */\n  dup3\n    /* \"#utility.yul\":1607:1624   */\n  add\n    /* \"#utility.yul\":1601:1625   */\n  mload\n    /* \"#utility.yul\":1652:1670   */\n  0xffffffffffffffff\n    /* \"#utility.yul\":1644:1650   */\n  dup2\n    /* \"#utility.yul\":1641:1671   */\n  gt\n    /* \"#utility.yul\":1638:1755   */\n  iszero\n  tag_44\n  jumpi\n    /* \"#utility.yul\":1674:1753   */\n  tag_45\n  tag_46\n  jump\t// in\ntag_45:\n    /* \"#utility.yul\":1638:1755   */\ntag_44:\n    /* \"#utility.yul\":1779:1868   */\n  tag_47\n    /* \"#utility.yul\":1860:1867   */\n  dup5\n    /* \"#utility.yul\":1851:1857   */\n  dup3\n    /* \"#utility.yul\":1840:1849   */\n  dup6\n    /* \"#utility.yul\":1836:1858   */\n  add\n    /* \"#utility.yul\":1779:1868   */\n  tag_31\n  jump\t// in\ntag_47:\n    /* \"#utility.yul\":1769:1868   */\n  swap2\n  pop\n    /* \"#utility.yul\":1572:1878   */\n  pop\n    /* \"#utility.yul\":1331:1885   */\n  swap3\n  swap2\n  pop\n  pop\n  jump\t// out\n    /* \"#utility.yul\":1891:2020   */\ntag_22:\n    /* \"#utility.yul\":1925:1931   */\n  0x00\n    /* \"#utility.yul\":1952:1972   */\n  tag_49\n  tag_50\n  jump\t// in\ntag_49:\n    /* \"#utility.yul\":1942:1972   */\n  swap1\n  pop\n    /* \"#utility.yul\":1981:2014   */\n  tag_51\n    /* \"#utility.yul\":2009:2013   */\n  dup3\n    /* \"#utility.yul\":2001:2007   */\n  dup3\n    /* \"#utility.yul\":1981:2014   */\n  tag_52\n  jump\t// in\ntag_51:\n    /* \"#utility.yul\":1891:2020   */\n  swap2\n  swap1\n  pop\n  jump\t// out\n    /* \"#utility.yul\":2026:2101   */\ntag_50:\n    /* \"#utility.yul\":2059:2065   */\n  0x00\n    /* \"#utility.yul\":2092:2094   */\n  0x40\n    /* \"#utility.yul\":2086:2095   */\n  mload\n    /* \"#utility.yul\":2076:2095   */\n  swap1\n  pop\n    /* \"#utility.yul\":2026:2101   */\n  swap1\n  jump\t// out\n    /* \"#utility.yul\":2107:2418   */\ntag_21:\n    /* \"#utility.yul\":2184:2188   */\n  0x00\n    /* \"#utility.yul\":2274:2292   */\n  0xffffffffffffffff\n    /* \"#utility.yul\":2266:2272   */\n  dup3\n    /* \"#utility.yul\":2263:2293   */\n  gt\n    /* \"#utility.yul\":2260:2316   */\n  iszero\n  tag_55\n  jumpi\n    /* \"#utility.yul\":2296:2314   */\n  tag_56\n  tag_57\n  jump\t// in\ntag_56:\n    /* \"#utility.yul\":2260:2316   */\ntag_55:\n    /* \"#utility.yul\":2346:2350   */\n  0x20\n    /* \"#utility.yul\":2338:2344   */\n  dup3\n    /* \"#utility.yul\":2334:2351   */\n  mul\n    /* \"#utility.yul\":2326:2351   */\n  swap1\n  pop\n    /* \"#utility.yul\":2406:2410   */\n  0x20\n    /* \"#utility.yul\":2400:2404   */\n  dup2\n    /* \"#utility.yul\":2396:2411   */\n  add\n    /* \"#utility.yul\":2388:2411   */\n  swap1\n  pop\n    /* \"#utility.yul\":2107:2418   */\n  swap2\n  swap1\n  pop\n  jump\t// out\n    /* \"#utility.yul\":2424:2501   */\ntag_58:\n    /* \"#utility.yul\":2461:2468   */\n  0x00\n    /* \"#utility.yul\":2490:2495   */\n  dup2\n    /* \"#utility.yul\":2479:2495   */\n  swap1\n  pop\n    /* \"#utility.yul\":2424:2501   */\n  swap2\n  swap1\n  pop\n  jump\t// out\n    /* \"#utility.yul\":2507:2584   */\ntag_60:\n    /* \"#utility.yul\":2544:2551   */\n  0x00\n    /* \"#utility.yul\":2573:2578   */\n  dup2\n    /* \"#utility.yul\":2562:2578   */\n  swap1\n  pop\n    /* \"#utility.yul\":2507:2584   */\n  swap2\n  swap1\n  pop\n  jump\t// out\n    /* \"#utility.yul\":2590:2871   */\ntag_52:\n    /* \"#utility.yul\":2673:2700   */\n  tag_63\n    /* \"#utility.yul\":2695:2699   */\n  dup3\n    /* \"#utility.yul\":2673:2700   */\n  tag_64\n  jump\t// in\ntag_63:\n    /* \"#utility.yul\":2665:2671   */\n  dup2\n    /* \"#utility.yul\":2661:2701   */\n  add\n    /* \"#utility.yul\":2803:2809   */\n  dup2\n    /* \"#utility.yul\":2791:2801   */\n  dup2\n    /* \"#utility.yul\":2788:2810   */\n  lt\n    /* \"#utility.yul\":2767:2785   */\n  0xffffffffffffffff\n    /* \"#utility.yul\":2755:2765   */\n  dup3\n    /* \"#utility.yul\":2752:2786   */\n  gt\n    /* \"#utility.yul\":2749:2811   */\n  or\n    /* \"#utility.yul\":2746:2834   */\n  iszero\n  tag_65\n  jumpi\n    /* \"#utility.yul\":2814:2832   */\n  tag_66\n  tag_57\n  jump\t// in\ntag_66:\n    /* \"#utility.yul\":2746:2834   */\ntag_65:\n    /* \"#utility.yul\":2854:2864   */\n  dup1\n    /* \"#utility.yul\":2850:2852   */\n  0x40\n    /* \"#utility.yul\":2843:2865   */\n  mstore\n    /* \"#utility.yul\":2633:2871   */\n  pop\n    /* \"#utility.yul\":2590:2871   */\n  pop\n  pop\n  jump\t// out\n    /* \"#utility.yul\":2877:3110   */\ntag_14:\n    /* \"#utility.yul\":2916:2919   */\n  0x00\n    /* \"#utility.yul\":2939:2963   */\n  tag_68\n    /* \"#utility.yul\":2957:2962   */\n  dup3\n    /* \"#utility.yul\":2939:2963   */\n  tag_60\n  jump\t// in\ntag_68:\n    /* \"#utility.yul\":2930:2963   */\n  swap2\n  pop\n    /* \"#utility.yul\":2985:3051   */\n  0xffffffffffffffffffffffffffffffffffffffffffffffffffffffffffffffff\n    /* \"#utility.yul\":2978:2983   */\n  dup3\n    /* \"#utility.yul\":2975:3052   */\n  eq\n    /* \"#utility.yul\":2972:3075   */\n  iszero\n  tag_69\n  jumpi\n    /* \"#utility.yul\":3055:3073   */\n  tag_70\n  tag_71\n  jump\t// in\ntag_70:\n    /* \"#utility.yul\":2972:3075   */\ntag_69:\n    /* \"#utility.yul\":3102:3103   */\n  0x01\n    /* \"#utility.yul\":3095:3100   */\n  dup3\n    /* \"#utility.yul\":3091:3104   */\n  add\n    /* \"#utility.yul\":3084:3104   */\n  swap1\n  pop\n    /* \"#utility.yul\":2877:3110   */\n  swap2\n  swap1\n  pop\n  jump\t// out\n    /* \"#utility.yul\":3116:3296   */\ntag_71:\n    /* \"#utility.yul\":3164:3241   */\n  0x4e487b7100000000000000000000000000000000000000000000000000000000\n    /* \"#utility.yul\":3161:3162   */\n  0x00\n    /* \"#utility.yul\":3154:3242   */\n  mstore\n    /* \"#utility.yul\":3261:3265   */\n  0x11\n    /* \"#utility.yul\":3258:3259   */\n  0x04\n    /* \"#utility.yul\":3251:3266   */\n  mstore\n    /* \"#utility.yul\":3285:3289   */\n  0x24\n    /* \"#utility.yul\":3282:3283   */\n  0x00\n    /* \"#utility.yul\":3275:3290   */\n  revert\n    /* \"#utility.yul\":3302:3482   */\ntag_11:\n    /* \"#utility.yul\":3350:3427   */\n  0x4e487b7100000000000000000000000000000000000000000000000000000000\n    /* \"#utility.yul\":3347:3348   */\n  0x00\n    /* \"#utility.yul\":3340:3428   */\n  mstore\n    /* \"#utility.yul\":3447:3451   */\n  0x32\n    /* \"#utility.yul\":3444:3445   */\n  0x04\n    /* \"#utility.yul\":3437:3452   */\n  mstore\n    /* \"#utility.yul\":3471:3475   */\n  0x24\n    /* \"#utility.yul\":3468:3469   */\n  0x00\n    /* \"#utility.yul\":3461:3476   */\n  revert\n    /* \"#utility.yul\":3488:3668   */\ntag_57:\n    /* \"#utility.yul\":3536:3613   */\n  0x4e487b7100000000000000000000000000000000000000000000000000000000\n    /* \"#utility.yul\":3533:3534   */\n  0x00\n    /* \"#utility.yul\":3526:3614   */\n  mstore\n    /* \"#utility.yul\":3633:3637   */\n  0x41\n    /* \"#utility.yul\":3630:3631   */\n  0x04\n    /* \"#utility.yul\":3623:3638   */\n  mstore\n    /* \"#utility.yul\":3657:3661   */\n  0x24\n    /* \"#utility.yul\":3654:3655   */\n  0x00\n    /* \"#utility.yul\":3647:3662   */\n  revert\n    /* \"#utility.yul\":3674:3791   */\ntag_35:\n    /* \"#utility.yul\":3783:3784   */\n  0x00\n    /* \"#utility.yul\":3780:3781   */\n  dup1\n    /* \"#utility.yul\":3773:3785   */\n  revert\n    /* \"#utility.yul\":3797:3914   */\ntag_25:\n    /* \"#utility.yul\":3906:3907   */\n  0x00\n    /* \"#utility.yul\":3903:3904   */\n  dup1\n    /* \"#utility.yul\":3896:3908   */\n  revert\n    /* \"#utility.yul\":3920:4037   */\ntag_46:\n    /* \"#utility.yul\":4029:4030   */\n  0x00\n    /* \"#utility.yul\":4026:4027   */\n  dup1\n    /* \"#utility.yul\":4019:4031   */\n  revert\n    /* \"#utility.yul\":4043:4160   */\ntag_43:\n    /* \"#utility.yul\":4152:4153   */\n  0x00\n    /* \"#utility.yul\":4149:4150   */\n  dup1\n    /* \"#utility.yul\":4142:4154   */\n  revert\n    /* \"#utility.yul\":4166:4268   */\ntag_64:\n    /* \"#utility.yul\":4207:4213   */\n  0x00\n    /* \"#utility.yul\":4258:4260   */\n  0x1f\n    /* \"#utility.yul\":4254:4261   */\n  not\n    /* \"#utility.yul\":4249:4251   */\n  0x1f\n    /* \"#utility.yul\":4242:4247   */\n  dup4\n    /* \"#utility.yul\":4238:4252   */\n  add\n    /* \"#utility.yul\":4234:4262   */\n  and\n    /* \"#utility.yul\":4224:4262   */\n  swap1\n  pop\n    /* \"#utility.yul\":4166:4268   */\n  swap2\n  swap1\n  pop\n  jump\t// out\n    /* \"#utility.yul\":4274:4396   */\ntag_39:\n    /* \"#utility.yul\":4347:4371   */\n  tag_81\n    /* \"#utility.yul\":4365:4370   */\n  dup2\n    /* \"#utility.yul\":4347:4371   */\n  tag_58\n  jump\t// in\ntag_81:\n    /* \"#utility.yul\":4340:4345   */\n  dup2\n    /* \"#utility.yul\":4337:4372   */\n  eq\n    /* \"#utility.yul\":4327:4390   */\n  tag_82\n  jumpi\n    /* \"#utility.yul\":4386:4387   */\n  0x00\n    /* \"#utility.yul\":4383:4384   */\n  dup1\n    /* \"#utility.yul\":4376:4388   */\n  revert\n    /* \"#utility.yul\":4327:4390   */\ntag_82:\n    /* \"#utility.yul\":4274:4396   */\n  pop\n  jump\t// out\n    /* \"simpleVoting.sol\":70:4298  contract Ballot {\r... */\ntag_15:\n  dataSize(sub_0)\n  dup1\n  dataOffset(sub_0)\n  0x00\n  codecopy\n  0x00\n  return\nstop\n\nsub_0: assembly {\n        /* \"simpleVoting.sol\":70:4298  contract Ballot {\r... */\n      mstore(0x40, 0x80)\n      callvalue\n      dup1\n      iszero\n      tag_1\n      jumpi\n      0x00\n      dup1\n      revert\n    tag_1:\n      pop\n      jumpi(tag_2, lt(calldatasize, 0x04))\n      shr(0xe0, calldataload(0x00))\n      dup1\n      0x2e4176cf\n      gt\n      tag_10\n      jumpi\n      dup1\n      0x2e4176cf\n      eq\n      tag_6\n      jumpi\n      dup1\n      0x609ff1bd\n      eq\n      tag_7\n      jumpi\n      dup1\n      0x9e7b8d61\n      eq\n      tag_8\n      jumpi\n      dup1\n      0xa3ec138d\n      eq\n      tag_9\n      jumpi\n      jump(tag_2)\n    tag_10:\n      dup1\n      0x0121b93f\n      eq\n      tag_3\n      jumpi\n      dup1\n      0x013cf08b\n      eq\n      tag_4\n      jumpi\n      dup1\n      0x2bfda515\n      eq\n      tag_5\n      jumpi\n    tag_2:\n      0x00\n      dup1\n      revert\n        /* \"simpleVoting.sol\":2760:3310  function vote(uint proposal) external {\r... */\n    tag_3:\n      tag_11\n      0x04\n      dup1\n      calldatasize\n      sub\n      dup2\n      add\n      swap1\n      tag_12\n      swap2\n      swap1\n      tag_13\n      jump\t// in\n    tag_12:\n      tag_14\n      jump\t// in\n    tag_11:\n      stop\n        /* \"simpleVoting.sol\":788:815  Proposal[] public proposals */\n    tag_4:\n      tag_15\n      0x04\n      dup1\n      calldatasize\n      sub\n      dup2\n      add\n      swap1\n      tag_16\n      swap2\n      swap1\n      tag_13\n      jump\t// in\n    tag_16:\n      tag_17\n      jump\t// in\n    tag_15:\n      mload(0x40)\n      tag_18\n      swap3\n      swap2\n      swap1\n      tag_19\n      jump\t// in\n    tag_18:\n      mload(0x40)\n      dup1\n      swap2\n      sub\n      swap1\n      return\n        /* \"simpleVoting.sol\":4075:4295  function getWinnerName() external returns (bytes32)\r... */\n    tag_5:\n      tag_20\n      tag_21\n      jump\t// in\n    tag_20:\n      mload(0x40)\n      tag_22\n      swap2\n      swap1\n      tag_23\n      jump\t// in\n    tag_22:\n      mload(0x40)\n      dup1\n      swap2\n      sub\n      swap1\n      return\n        /* \"simpleVoting.sol\":507:533  address public chairperson */\n    tag_6:\n      tag_24\n      tag_25\n      jump\t// in\n    tag_24:\n      mload(0x40)\n      tag_26\n      swap2\n      swap1\n      tag_27\n      jump\t// in\n    tag_26:\n      mload(0x40)\n      dup1\n      swap2\n      sub\n      swap1\n      return\n        /* \"simpleVoting.sol\":3411:3906  function winningProposal() public returns (uint)\r... */\n    tag_7:\n      tag_28\n      tag_29\n      jump\t// in\n    tag_28:\n      mload(0x40)\n      tag_30\n      swap2\n      swap1\n      tag_31\n      jump\t// in\n    tag_30:\n      mload(0x40)\n      dup1\n      swap2\n      sub\n      swap1\n      return\n        /* \"simpleVoting.sol\":1783:2688  function giveRightToVote(address voter) external view {\r... */\n    tag_8:\n      tag_32\n      0x04\n      dup1\n      calldatasize\n      sub\n      dup2\n      add\n      swap1\n      tag_33\n      swap2\n      swap1\n      tag_34\n      jump\t// in\n    tag_33:\n      tag_35\n      jump\t// in\n    tag_32:\n      stop\n        /* \"simpleVoting.sol\":683:722  mapping(address => Voter) public voters */\n    tag_9:\n      tag_36\n      0x04\n      dup1\n      calldatasize\n      sub\n      dup2\n      add\n      swap1\n      tag_37\n      swap2\n      swap1\n      tag_34\n      jump\t// in\n    tag_37:\n      tag_38\n      jump\t// in\n    tag_36:\n      mload(0x40)\n      tag_39\n      swap3\n      swap2\n      swap1\n      tag_40\n      jump\t// in\n    tag_39:\n      mload(0x40)\n      dup1\n      swap2\n      sub\n      swap1\n      return\n        /* \"simpleVoting.sol\":2760:3310  function vote(uint proposal) external {\r... */\n    tag_14:\n        /* \"simpleVoting.sol\":2809:2829  Voter storage sender */\n      0x00\n        /* \"simpleVoting.sol\":2832:2838  voters */\n      0x02\n        /* \"simpleVoting.sol\":2832:2850  voters[msg.sender] */\n      0x00\n        /* \"simpleVoting.sol\":2839:2849  msg.sender */\n      caller\n        /* \"simpleVoting.sol\":2832:2850  voters[msg.sender] */\n      0xffffffffffffffffffffffffffffffffffffffff\n      and\n      0xffffffffffffffffffffffffffffffffffffffff\n      and\n      dup2\n      mstore\n      0x20\n      add\n      swap1\n      dup2\n      mstore\n      0x20\n      add\n      0x00\n      keccak256\n        /* \"simpleVoting.sol\":2809:2850  Voter storage sender = voters[msg.sender] */\n      swap1\n      pop\n        /* \"simpleVoting.sol\":2928:2934  sender */\n      dup1\n        /* \"simpleVoting.sol\":2928:2940  sender.voted */\n      0x00\n      add\n      0x00\n      swap1\n      sload\n      swap1\n      0x0100\n      exp\n      swap1\n      div\n      0xff\n      and\n        /* \"simpleVoting.sol\":2927:2940  !sender.voted */\n      iszero\n        /* \"simpleVoting.sol\":2919:2959  require(!sender.voted, \"Already voted.\") */\n      tag_42\n      jumpi\n      mload(0x40)\n      0x08c379a000000000000000000000000000000000000000000000000000000000\n      dup2\n      mstore\n      0x04\n      add\n      tag_43\n      swap1\n      tag_44\n      jump\t// in\n    tag_43:\n      mload(0x40)\n      dup1\n      swap2\n      sub\n      swap1\n      revert\n    tag_42:\n        /* \"simpleVoting.sol\":3080:3084  true */\n      0x01\n        /* \"simpleVoting.sol\":3065:3071  sender */\n      dup2\n        /* \"simpleVoting.sol\":3065:3077  sender.voted */\n      0x00\n      add\n      0x00\n        /* \"simpleVoting.sol\":3065:3084  sender.voted = true */\n      0x0100\n      exp\n      dup2\n      sload\n      dup2\n      0xff\n      mul\n      not\n      and\n      swap1\n      dup4\n      iszero\n      iszero\n      mul\n      or\n      swap1\n      sstore\n      pop\n        /* \"simpleVoting.sol\":3109:3117  proposal */\n      dup2\n        /* \"simpleVoting.sol\":3095:3101  sender */\n      dup2\n        /* \"simpleVoting.sol\":3095:3106  sender.vote */\n      0x01\n      add\n        /* \"simpleVoting.sol\":3095:3117  sender.vote = proposal */\n      dup2\n      swap1\n      sstore\n      pop\n        /* \"simpleVoting.sol\":3301:3302  1 */\n      0x01\n        /* \"simpleVoting.sol\":3268:3277  proposals */\n      0x03\n        /* \"simpleVoting.sol\":3278:3286  proposal */\n      dup4\n        /* \"simpleVoting.sol\":3268:3287  proposals[proposal] */\n      dup2\n      sload\n      dup2\n      lt\n      tag_45\n      jumpi\n      tag_46\n      tag_47\n      jump\t// in\n    tag_46:\n    tag_45:\n      swap1\n      0x00\n      mstore\n      keccak256(0x00, 0x20)\n      swap1\n      0x02\n      mul\n      add\n        /* \"simpleVoting.sol\":3268:3297  proposals[proposal].voteCount */\n      0x01\n      add\n      0x00\n        /* \"simpleVoting.sol\":3268:3302  proposals[proposal].voteCount += 1 */\n      dup3\n      dup3\n      sload\n      tag_49\n      swap2\n      swap1\n      tag_50\n      jump\t// in\n    tag_49:\n      swap3\n      pop\n      pop\n      dup2\n      swap1\n      sstore\n      pop\n        /* \"simpleVoting.sol\":2798:3310  {\r... */\n      pop\n        /* \"simpleVoting.sol\":2760:3310  function vote(uint proposal) external {\r... */\n      pop\n      jump\t// out\n        /* \"simpleVoting.sol\":788:815  Proposal[] public proposals */\n    tag_17:\n      0x03\n      dup2\n      dup2\n      sload\n      dup2\n      lt\n      tag_51\n      jumpi\n      0x00\n      dup1\n      revert\n    tag_51:\n      swap1\n      0x00\n      mstore\n      keccak256(0x00, 0x20)\n      swap1\n      0x02\n      mul\n      add\n      0x00\n      swap2\n      pop\n      swap1\n      pop\n      dup1\n      0x00\n      add\n      sload\n      swap1\n      dup1\n      0x01\n      add\n      sload\n      swap1\n      pop\n      dup3\n      jump\t// out\n        /* \"simpleVoting.sol\":4075:4295  function getWinnerName() external returns (bytes32)\r... */\n    tag_21:\n        /* \"simpleVoting.sol\":4118:4125  bytes32 */\n      0x00\n        /* \"simpleVoting.sol\":4146:4162  winnerName != '' */\n      dup1\n        /* \"simpleVoting.sol\":4146:4156  winnerName */\n      sload(0x01)\n        /* \"simpleVoting.sol\":4146:4162  winnerName != '' */\n      eq\n        /* \"simpleVoting.sol\":4143:4288  if(winnerName != ''){\r... */\n      tag_54\n      jumpi\n        /* \"simpleVoting.sol\":4185:4195  winnerName */\n      sload(0x01)\n        /* \"simpleVoting.sol\":4178:4195  return winnerName */\n      swap1\n      pop\n      jump(tag_53)\n        /* \"simpleVoting.sol\":4143:4288  if(winnerName != ''){\r... */\n    tag_54:\n        /* \"simpleVoting.sol\":4243:4252  proposals */\n      0x03\n        /* \"simpleVoting.sol\":4253:4270  winningProposal() */\n      tag_56\n        /* \"simpleVoting.sol\":4253:4268  winningProposal */\n      tag_29\n        /* \"simpleVoting.sol\":4253:4270  winningProposal() */\n      jump\t// in\n    tag_56:\n        /* \"simpleVoting.sol\":4243:4271  proposals[winningProposal()] */\n      dup2\n      sload\n      dup2\n      lt\n      tag_57\n      jumpi\n      tag_58\n      tag_47\n      jump\t// in\n    tag_58:\n    tag_57:\n      swap1\n      0x00\n      mstore\n      keccak256(0x00, 0x20)\n      swap1\n      0x02\n      mul\n      add\n        /* \"simpleVoting.sol\":4243:4276  proposals[winningProposal()].name */\n      0x00\n      add\n      sload\n        /* \"simpleVoting.sol\":4236:4276  return proposals[winningProposal()].name */\n      swap1\n      pop\n        /* \"simpleVoting.sol\":4075:4295  function getWinnerName() external returns (bytes32)\r... */\n    tag_53:\n      swap1\n      jump\t// out\n        /* \"simpleVoting.sol\":507:533  address public chairperson */\n    tag_25:\n      0x00\n      dup1\n      sload\n      swap1\n      0x0100\n      exp\n      swap1\n      div\n      0xffffffffffffffffffffffffffffffffffffffff\n      and\n      dup2\n      jump\t// out\n        /* \"simpleVoting.sol\":3411:3906  function winningProposal() public returns (uint)\r... */\n    tag_29:\n        /* \"simpleVoting.sol\":3454:3458  uint */\n      0x00\n        /* \"simpleVoting.sol\":3476:3497  uint winningVoteCount */\n      dup1\n        /* \"simpleVoting.sol\":3500:3501  0 */\n      0x00\n        /* \"simpleVoting.sol\":3476:3501  uint winningVoteCount = 0 */\n      swap1\n      pop\n        /* \"simpleVoting.sol\":3512:3533  uint winningProposal_ */\n      0x00\n        /* \"simpleVoting.sol\":3553:3559  uint p */\n      dup1\n        /* \"simpleVoting.sol\":3548:3741  for (uint p = 0; p < proposals.length; p++) {\r... */\n    tag_61:\n        /* \"simpleVoting.sol\":3569:3578  proposals */\n      0x03\n        /* \"simpleVoting.sol\":3569:3585  proposals.length */\n      dup1\n      sload\n      swap1\n      pop\n        /* \"simpleVoting.sol\":3565:3566  p */\n      dup2\n        /* \"simpleVoting.sol\":3565:3585  p < proposals.length */\n      lt\n        /* \"simpleVoting.sol\":3548:3741  for (uint p = 0; p < proposals.length; p++) {\r... */\n      iszero\n      tag_62\n      jumpi\n        /* \"simpleVoting.sol\":3636:3645  proposals */\n      0x03\n        /* \"simpleVoting.sol\":3646:3662  winningProposal_ */\n      dup3\n        /* \"simpleVoting.sol\":3636:3663  proposals[winningProposal_] */\n      dup2\n      sload\n      dup2\n      lt\n      tag_64\n      jumpi\n      tag_65\n      tag_47\n      jump\t// in\n    tag_65:\n    tag_64:\n      swap1\n      0x00\n      mstore\n      keccak256(0x00, 0x20)\n      swap1\n      0x02\n      mul\n      add\n        /* \"simpleVoting.sol\":3636:3673  proposals[winningProposal_].voteCount */\n      0x01\n      add\n      sload\n        /* \"simpleVoting.sol\":3611:3620  proposals */\n      0x03\n        /* \"simpleVoting.sol\":3621:3622  p */\n      dup3\n        /* \"simpleVoting.sol\":3611:3623  proposals[p] */\n      dup2\n      sload\n      dup2\n      lt\n      tag_67\n      jumpi\n      tag_68\n      tag_47\n      jump\t// in\n    tag_68:\n    tag_67:\n      swap1\n      0x00\n      mstore\n      keccak256(0x00, 0x20)\n      swap1\n      0x02\n      mul\n      add\n        /* \"simpleVoting.sol\":3611:3633  proposals[p].voteCount */\n      0x01\n      add\n      sload\n        /* \"simpleVoting.sol\":3611:3673  proposals[p].voteCount > proposals[winningProposal_].voteCount */\n      gt\n        /* \"simpleVoting.sol\":3607:3730  if (proposals[p].voteCount > proposals[winningProposal_].voteCount) {\r... */\n      iszero\n      tag_70\n      jumpi\n        /* \"simpleVoting.sol\":3713:3714  p */\n      dup1\n        /* \"simpleVoting.sol\":3694:3714  winningProposal_ = p */\n      swap2\n      pop\n        /* \"simpleVoting.sol\":3607:3730  if (proposals[p].voteCount > proposals[winningProposal_].voteCount) {\r... */\n    tag_70:\n        /* \"simpleVoting.sol\":3587:3590  p++ */\n      dup1\n      dup1\n      tag_71\n      swap1\n      tag_72\n      jump\t// in\n    tag_71:\n      swap2\n      pop\n      pop\n        /* \"simpleVoting.sol\":3548:3741  for (uint p = 0; p < proposals.length; p++) {\r... */\n      jump(tag_61)\n    tag_62:\n      pop\n        /* \"simpleVoting.sol\":3770:3779  proposals */\n      0x03\n        /* \"simpleVoting.sol\":3780:3796  winningProposal_ */\n      dup2\n        /* \"simpleVoting.sol\":3770:3797  proposals[winningProposal_] */\n      dup2\n      sload\n      dup2\n      lt\n      tag_73\n      jumpi\n      tag_74\n      tag_47\n      jump\t// in\n    tag_74:\n    tag_73:\n      swap1\n      0x00\n      mstore\n      keccak256(0x00, 0x20)\n      swap1\n      0x02\n      mul\n      add\n        /* \"simpleVoting.sol\":3770:3807  proposals[winningProposal_].voteCount */\n      0x01\n      add\n      sload\n        /* \"simpleVoting.sol\":3751:3807  winningVoteCount = proposals[winningProposal_].voteCount */\n      swap2\n      pop\n        /* \"simpleVoting.sol\":3831:3840  proposals */\n      0x03\n        /* \"simpleVoting.sol\":3841:3858  winningProposal() */\n      tag_76\n        /* \"simpleVoting.sol\":3841:3856  winningProposal */\n      tag_29\n        /* \"simpleVoting.sol\":3841:3858  winningProposal() */\n      jump\t// in\n    tag_76:\n        /* \"simpleVoting.sol\":3831:3859  proposals[winningProposal()] */\n      dup2\n      sload\n      dup2\n      lt\n      tag_77\n      jumpi\n      tag_78\n      tag_47\n      jump\t// in\n    tag_78:\n    tag_77:\n      swap1\n      0x00\n      mstore\n      keccak256(0x00, 0x20)\n      swap1\n      0x02\n      mul\n      add\n        /* \"simpleVoting.sol\":3831:3864  proposals[winningProposal()].name */\n      0x00\n      add\n      sload\n        /* \"simpleVoting.sol\":3818:3828  winnerName */\n      0x01\n        /* \"simpleVoting.sol\":3818:3864  winnerName = proposals[winningProposal()].name */\n      dup2\n      swap1\n      sstore\n      pop\n        /* \"simpleVoting.sol\":3882:3898  winningProposal_ */\n      dup1\n        /* \"simpleVoting.sol\":3875:3898  return winningProposal_ */\n      swap3\n      pop\n      pop\n      pop\n        /* \"simpleVoting.sol\":3411:3906  function winningProposal() public returns (uint)\r... */\n      swap1\n      jump\t// out\n        /* \"simpleVoting.sol\":1783:2688  function giveRightToVote(address voter) external view {\r... */\n    tag_35:\n        /* \"simpleVoting.sol\":2553:2564  chairperson */\n      0x00\n      dup1\n      sload\n      swap1\n      0x0100\n      exp\n      swap1\n      div\n      0xffffffffffffffffffffffffffffffffffffffff\n      and\n        /* \"simpleVoting.sol\":2539:2564  msg.sender == chairperson */\n      0xffffffffffffffffffffffffffffffffffffffff\n      and\n        /* \"simpleVoting.sol\":2539:2549  msg.sender */\n      caller\n        /* \"simpleVoting.sol\":2539:2564  msg.sender == chairperson */\n      0xffffffffffffffffffffffffffffffffffffffff\n      and\n      eq\n        /* \"simpleVoting.sol\":2530:2610  require( msg.sender == chairperson, \"Only chairperson can give right to vote.\" ) */\n      tag_81\n      jumpi\n      mload(0x40)\n      0x08c379a000000000000000000000000000000000000000000000000000000000\n      dup2\n      mstore\n      0x04\n      add\n      tag_82\n      swap1\n      tag_83\n      jump\t// in\n    tag_82:\n      mload(0x40)\n      dup1\n      swap2\n      sub\n      swap1\n      revert\n    tag_81:\n        /* \"simpleVoting.sol\":2631:2637  voters */\n      0x02\n        /* \"simpleVoting.sol\":2631:2644  voters[voter] */\n      0x00\n        /* \"simpleVoting.sol\":2638:2643  voter */\n      dup3\n        /* \"simpleVoting.sol\":2631:2644  voters[voter] */\n      0xffffffffffffffffffffffffffffffffffffffff\n      and\n      0xffffffffffffffffffffffffffffffffffffffff\n      and\n      dup2\n      mstore\n      0x20\n      add\n      swap1\n      dup2\n      mstore\n      0x20\n      add\n      0x00\n      keccak256\n        /* \"simpleVoting.sol\":2631:2650  voters[voter].voted */\n      0x00\n      add\n      0x00\n      swap1\n      sload\n      swap1\n      0x0100\n      exp\n      swap1\n      div\n      0xff\n      and\n        /* \"simpleVoting.sol\":2630:2650  !voters[voter].voted */\n      iszero\n        /* \"simpleVoting.sol\":2621:2680  require( !voters[voter].voted, \"The voter already voted.\" ) */\n      tag_84\n      jumpi\n      mload(0x40)\n      0x08c379a000000000000000000000000000000000000000000000000000000000\n      dup2\n      mstore\n      0x04\n      add\n      tag_85\n      swap1\n      tag_86\n      jump\t// in\n    tag_85:\n      mload(0x40)\n      dup1\n      swap2\n      sub\n      swap1\n      revert\n    tag_84:\n        /* \"simpleVoting.sol\":1783:2688  function giveRightToVote(address voter) external view {\r... */\n      pop\n      jump\t// out\n        /* \"simpleVoting.sol\":683:722  mapping(address => Voter) public voters */\n    tag_38:\n      mstore(0x20, 0x02)\n      dup1\n      0x00\n      mstore\n      keccak256(0x00, 0x40)\n      0x00\n      swap2\n      pop\n      swap1\n      pop\n      dup1\n      0x00\n      add\n      0x00\n      swap1\n      sload\n      swap1\n      0x0100\n      exp\n      swap1\n      div\n      0xff\n      and\n      swap1\n      dup1\n      0x01\n      add\n      sload\n      swap1\n      pop\n      dup3\n      jump\t// out\n        /* \"#utility.yul\":7:146   */\n    tag_88:\n        /* \"#utility.yul\":53:58   */\n      0x00\n        /* \"#utility.yul\":91:97   */\n      dup2\n        /* \"#utility.yul\":78:98   */\n      calldataload\n        /* \"#utility.yul\":69:98   */\n      swap1\n      pop\n        /* \"#utility.yul\":107:140   */\n      tag_90\n        /* \"#utility.yul\":134:139   */\n      dup2\n        /* \"#utility.yul\":107:140   */\n      tag_91\n      jump\t// in\n    tag_90:\n        /* \"#utility.yul\":7:146   */\n      swap3\n      swap2\n      pop\n      pop\n      jump\t// out\n        /* \"#utility.yul\":152:291   */\n    tag_92:\n        /* \"#utility.yul\":198:203   */\n      0x00\n        /* \"#utility.yul\":236:242   */\n      dup2\n        /* \"#utility.yul\":223:243   */\n      calldataload\n        /* \"#utility.yul\":214:243   */\n      swap1\n      pop\n        /* \"#utility.yul\":252:285   */\n      tag_94\n        /* \"#utility.yul\":279:284   */\n      dup2\n        /* \"#utility.yul\":252:285   */\n      tag_95\n      jump\t// in\n    tag_94:\n        /* \"#utility.yul\":152:291   */\n      swap3\n      swap2\n      pop\n      pop\n      jump\t// out\n        /* \"#utility.yul\":297:626   */\n    tag_34:\n        /* \"#utility.yul\":356:362   */\n      0x00\n        /* \"#utility.yul\":405:407   */\n      0x20\n        /* \"#utility.yul\":393:402   */\n      dup3\n        /* \"#utility.yul\":384:391   */\n      dup5\n        /* \"#utility.yul\":380:403   */\n      sub\n        /* \"#utility.yul\":376:408   */\n      slt\n        /* \"#utility.yul\":373:492   */\n      iszero\n      tag_97\n      jumpi\n        /* \"#utility.yul\":411:490   */\n      tag_98\n      tag_99\n      jump\t// in\n    tag_98:\n        /* \"#utility.yul\":373:492   */\n    tag_97:\n        /* \"#utility.yul\":531:532   */\n      0x00\n        /* \"#utility.yul\":556:609   */\n      tag_100\n        /* \"#utility.yul\":601:608   */\n      dup5\n        /* \"#utility.yul\":592:598   */\n      dup3\n        /* \"#utility.yul\":581:590   */\n      dup6\n        /* \"#utility.yul\":577:599   */\n      add\n        /* \"#utility.yul\":556:609   */\n      tag_88\n      jump\t// in\n    tag_100:\n        /* \"#utility.yul\":546:609   */\n      swap2\n      pop\n        /* \"#utility.yul\":502:619   */\n      pop\n        /* \"#utility.yul\":297:626   */\n      swap3\n      swap2\n      pop\n      pop\n      jump\t// out\n        /* \"#utility.yul\":632:961   */\n    tag_13:\n        /* \"#utility.yul\":691:697   */\n      0x00\n        /* \"#utility.yul\":740:742   */\n      0x20\n        /* \"#utility.yul\":728:737   */\n      dup3\n        /* \"#utility.yul\":719:726   */\n      dup5\n        /* \"#utility.yul\":715:738   */\n      sub\n        /* \"#utility.yul\":711:743   */\n      slt\n        /* \"#utility.yul\":708:827   */\n      iszero\n      tag_102\n      jumpi\n        /* \"#utility.yul\":746:825   */\n      tag_103\n      tag_99\n      jump\t// in\n    tag_103:\n        /* \"#utility.yul\":708:827   */\n    tag_102:\n        /* \"#utility.yul\":866:867   */\n      0x00\n        /* \"#utility.yul\":891:944   */\n      tag_104\n        /* \"#utility.yul\":936:943   */\n      dup5\n        /* \"#utility.yul\":927:933   */\n      dup3\n        /* \"#utility.yul\":916:925   */\n      dup6\n        /* \"#utility.yul\":912:934   */\n      add\n        /* \"#utility.yul\":891:944   */\n      tag_92\n      jump\t// in\n    tag_104:\n        /* \"#utility.yul\":881:944   */\n      swap2\n      pop\n        /* \"#utility.yul\":837:954   */\n      pop\n        /* \"#utility.yul\":632:961   */\n      swap3\n      swap2\n      pop\n      pop\n      jump\t// out\n        /* \"#utility.yul\":967:1085   */\n    tag_105:\n        /* \"#utility.yul\":1054:1078   */\n      tag_107\n        /* \"#utility.yul\":1072:1077   */\n      dup2\n        /* \"#utility.yul\":1054:1078   */\n      tag_108\n      jump\t// in\n    tag_107:\n        /* \"#utility.yul\":1049:1052   */\n      dup3\n        /* \"#utility.yul\":1042:1079   */\n      mstore\n        /* \"#utility.yul\":967:1085   */\n      pop\n      pop\n      jump\t// out\n        /* \"#utility.yul\":1091:1200   */\n    tag_109:\n        /* \"#utility.yul\":1172:1193   */\n      tag_111\n        /* \"#utility.yul\":1187:1192   */\n      dup2\n        /* \"#utility.yul\":1172:1193   */\n      tag_112\n      jump\t// in\n    tag_111:\n        /* \"#utility.yul\":1167:1170   */\n      dup3\n        /* \"#utility.yul\":1160:1194   */\n      mstore\n        /* \"#utility.yul\":1091:1200   */\n      pop\n      pop\n      jump\t// out\n        /* \"#utility.yul\":1206:1324   */\n    tag_113:\n        /* \"#utility.yul\":1293:1317   */\n      tag_115\n        /* \"#utility.yul\":1311:1316   */\n      dup2\n        /* \"#utility.yul\":1293:1317   */\n      tag_116\n      jump\t// in\n    tag_115:\n        /* \"#utility.yul\":1288:1291   */\n      dup3\n        /* \"#utility.yul\":1281:1318   */\n      mstore\n        /* \"#utility.yul\":1206:1324   */\n      pop\n      pop\n      jump\t// out\n        /* \"#utility.yul\":1330:1696   */\n    tag_117:\n        /* \"#utility.yul\":1472:1475   */\n      0x00\n        /* \"#utility.yul\":1493:1560   */\n      tag_119\n        /* \"#utility.yul\":1557:1559   */\n      0x0e\n        /* \"#utility.yul\":1552:1555   */\n      dup4\n        /* \"#utility.yul\":1493:1560   */\n      tag_120\n      jump\t// in\n    tag_119:\n        /* \"#utility.yul\":1486:1560   */\n      swap2\n      pop\n        /* \"#utility.yul\":1569:1662   */\n      tag_121\n        /* \"#utility.yul\":1658:1661   */\n      dup3\n        /* \"#utility.yul\":1569:1662   */\n      tag_122\n      jump\t// in\n    tag_121:\n        /* \"#utility.yul\":1687:1689   */\n      0x20\n        /* \"#utility.yul\":1682:1685   */\n      dup3\n        /* \"#utility.yul\":1678:1690   */\n      add\n        /* \"#utility.yul\":1671:1690   */\n      swap1\n      pop\n        /* \"#utility.yul\":1330:1696   */\n      swap2\n      swap1\n      pop\n      jump\t// out\n        /* \"#utility.yul\":1702:2068   */\n    tag_123:\n        /* \"#utility.yul\":1844:1847   */\n      0x00\n        /* \"#utility.yul\":1865:1932   */\n      tag_125\n        /* \"#utility.yul\":1929:1931   */\n      0x28\n        /* \"#utility.yul\":1924:1927   */\n      dup4\n        /* \"#utility.yul\":1865:1932   */\n      tag_120\n      jump\t// in\n    tag_125:\n        /* \"#utility.yul\":1858:1932   */\n      swap2\n      pop\n        /* \"#utility.yul\":1941:2034   */\n      tag_126\n        /* \"#utility.yul\":2030:2033   */\n      dup3\n        /* \"#utility.yul\":1941:2034   */\n      tag_127\n      jump\t// in\n    tag_126:\n        /* \"#utility.yul\":2059:2061   */\n      0x40\n        /* \"#utility.yul\":2054:2057   */\n      dup3\n        /* \"#utility.yul\":2050:2062   */\n      add\n        /* \"#utility.yul\":2043:2062   */\n      swap1\n      pop\n        /* \"#utility.yul\":1702:2068   */\n      swap2\n      swap1\n      pop\n      jump\t// out\n        /* \"#utility.yul\":2074:2440   */\n    tag_128:\n        /* \"#utility.yul\":2216:2219   */\n      0x00\n        /* \"#utility.yul\":2237:2304   */\n      tag_130\n        /* \"#utility.yul\":2301:2303   */\n      0x18\n        /* \"#utility.yul\":2296:2299   */\n      dup4\n        /* \"#utility.yul\":2237:2304   */\n      tag_120\n      jump\t// in\n    tag_130:\n        /* \"#utility.yul\":2230:2304   */\n      swap2\n      pop\n        /* \"#utility.yul\":2313:2406   */\n      tag_131\n        /* \"#utility.yul\":2402:2405   */\n      dup3\n        /* \"#utility.yul\":2313:2406   */\n      tag_132\n      jump\t// in\n    tag_131:\n        /* \"#utility.yul\":2431:2433   */\n      0x20\n        /* \"#utility.yul\":2426:2429   */\n      dup3\n        /* \"#utility.yul\":2422:2434   */\n      add\n        /* \"#utility.yul\":2415:2434   */\n      swap1\n      pop\n        /* \"#utility.yul\":2074:2440   */\n      swap2\n      swap1\n      pop\n      jump\t// out\n        /* \"#utility.yul\":2446:2564   */\n    tag_133:\n        /* \"#utility.yul\":2533:2557   */\n      tag_135\n        /* \"#utility.yul\":2551:2556   */\n      dup2\n        /* \"#utility.yul\":2533:2557   */\n      tag_136\n      jump\t// in\n    tag_135:\n        /* \"#utility.yul\":2528:2531   */\n      dup3\n        /* \"#utility.yul\":2521:2558   */\n      mstore\n        /* \"#utility.yul\":2446:2564   */\n      pop\n      pop\n      jump\t// out\n        /* \"#utility.yul\":2570:2792   */\n    tag_27:\n        /* \"#utility.yul\":2663:2667   */\n      0x00\n        /* \"#utility.yul\":2701:2703   */\n      0x20\n        /* \"#utility.yul\":2690:2699   */\n      dup3\n        /* \"#utility.yul\":2686:2704   */\n      add\n        /* \"#utility.yul\":2678:2704   */\n      swap1\n      pop\n        /* \"#utility.yul\":2714:2785   */\n      tag_138\n        /* \"#utility.yul\":2782:2783   */\n      0x00\n        /* \"#utility.yul\":2771:2780   */\n      dup4\n        /* \"#utility.yul\":2767:2784   */\n      add\n        /* \"#utility.yul\":2758:2764   */\n      dup5\n        /* \"#utility.yul\":2714:2785   */\n      tag_105\n      jump\t// in\n    tag_138:\n        /* \"#utility.yul\":2570:2792   */\n      swap3\n      swap2\n      pop\n      pop\n      jump\t// out\n        /* \"#utility.yul\":2798:3118   */\n    tag_40:\n        /* \"#utility.yul\":2913:2917   */\n      0x00\n        /* \"#utility.yul\":2951:2953   */\n      0x40\n        /* \"#utility.yul\":2940:2949   */\n      dup3\n        /* \"#utility.yul\":2936:2954   */\n      add\n        /* \"#utility.yul\":2928:2954   */\n      swap1\n      pop\n        /* \"#utility.yul\":2964:3029   */\n      tag_140\n        /* \"#utility.yul\":3026:3027   */\n      0x00\n        /* \"#utility.yul\":3015:3024   */\n      dup4\n        /* \"#utility.yul\":3011:3028   */\n      add\n        /* \"#utility.yul\":3002:3008   */\n      dup6\n        /* \"#utility.yul\":2964:3029   */\n      tag_109\n      jump\t// in\n    tag_140:\n        /* \"#utility.yul\":3039:3111   */\n      tag_141\n        /* \"#utility.yul\":3107:3109   */\n      0x20\n        /* \"#utility.yul\":3096:3105   */\n      dup4\n        /* \"#utility.yul\":3092:3110   */\n      add\n        /* \"#utility.yul\":3083:3089   */\n      dup5\n        /* \"#utility.yul\":3039:3111   */\n      tag_133\n      jump\t// in\n    tag_141:\n        /* \"#utility.yul\":2798:3118   */\n      swap4\n      swap3\n      pop\n      pop\n      pop\n      jump\t// out\n        /* \"#utility.yul\":3124:3346   */\n    tag_23:\n        /* \"#utility.yul\":3217:3221   */\n      0x00\n        /* \"#utility.yul\":3255:3257   */\n      0x20\n        /* \"#utility.yul\":3244:3253   */\n      dup3\n        /* \"#utility.yul\":3240:3258   */\n      add\n        /* \"#utility.yul\":3232:3258   */\n      swap1\n      pop\n        /* \"#utility.yul\":3268:3339   */\n      tag_143\n        /* \"#utility.yul\":3336:3337   */\n      0x00\n        /* \"#utility.yul\":3325:3334   */\n      dup4\n        /* \"#utility.yul\":3321:3338   */\n      add\n        /* \"#utility.yul\":3312:3318   */\n      dup5\n        /* \"#utility.yul\":3268:3339   */\n      tag_113\n      jump\t// in\n    tag_143:\n        /* \"#utility.yul\":3124:3346   */\n      swap3\n      swap2\n      pop\n      pop\n      jump\t// out\n        /* \"#utility.yul\":3352:3684   */\n    tag_19:\n        /* \"#utility.yul\":3473:3477   */\n      0x00\n        /* \"#utility.yul\":3511:3513   */\n      0x40\n        /* \"#utility.yul\":3500:3509   */\n      dup3\n        /* \"#utility.yul\":3496:3514   */\n      add\n        /* \"#utility.yul\":3488:3514   */\n      swap1\n      pop\n        /* \"#utility.yul\":3524:3595   */\n      tag_145\n        /* \"#utility.yul\":3592:3593   */\n      0x00\n        /* \"#utility.yul\":3581:3590   */\n      dup4\n        /* \"#utility.yul\":3577:3594   */\n      add\n        /* \"#utility.yul\":3568:3574   */\n      dup6\n        /* \"#utility.yul\":3524:3595   */\n      tag_113\n      jump\t// in\n    tag_145:\n        /* \"#utility.yul\":3605:3677   */\n      tag_146\n        /* \"#utility.yul\":3673:3675   */\n      0x20\n        /* \"#utility.yul\":3662:3671   */\n      dup4\n        /* \"#utility.yul\":3658:3676   */\n      add\n        /* \"#utility.yul\":3649:3655   */\n      dup5\n        /* \"#utility.yul\":3605:3677   */\n      tag_133\n      jump\t// in\n    tag_146:\n        /* \"#utility.yul\":3352:3684   */\n      swap4\n      swap3\n      pop\n      pop\n      pop\n      jump\t// out\n        /* \"#utility.yul\":3690:4109   */\n    tag_44:\n        /* \"#utility.yul\":3856:3860   */\n      0x00\n        /* \"#utility.yul\":3894:3896   */\n      0x20\n        /* \"#utility.yul\":3883:3892   */\n      dup3\n        /* \"#utility.yul\":3879:3897   */\n      add\n        /* \"#utility.yul\":3871:3897   */\n      swap1\n      pop\n        /* \"#utility.yul\":3943:3952   */\n      dup2\n        /* \"#utility.yul\":3937:3941   */\n      dup2\n        /* \"#utility.yul\":3933:3953   */\n      sub\n        /* \"#utility.yul\":3929:3930   */\n      0x00\n        /* \"#utility.yul\":3918:3927   */\n      dup4\n        /* \"#utility.yul\":3914:3931   */\n      add\n        /* \"#utility.yul\":3907:3954   */\n      mstore\n        /* \"#utility.yul\":3971:4102   */\n      tag_148\n        /* \"#utility.yul\":4097:4101   */\n      dup2\n        /* \"#utility.yul\":3971:4102   */\n      tag_117\n      jump\t// in\n    tag_148:\n        /* \"#utility.yul\":3963:4102   */\n      swap1\n      pop\n        /* \"#utility.yul\":3690:4109   */\n      swap2\n      swap1\n      pop\n      jump\t// out\n        /* \"#utility.yul\":4115:4534   */\n    tag_83:\n        /* \"#utility.yul\":4281:4285   */\n      0x00\n        /* \"#utility.yul\":4319:4321   */\n      0x20\n        /* \"#utility.yul\":4308:4317   */\n      dup3\n        /* \"#utility.yul\":4304:4322   */\n      add\n        /* \"#utility.yul\":4296:4322   */\n      swap1\n      pop\n        /* \"#utility.yul\":4368:4377   */\n      dup2\n        /* \"#utility.yul\":4362:4366   */\n      dup2\n        /* \"#utility.yul\":4358:4378   */\n      sub\n        /* \"#utility.yul\":4354:4355   */\n      0x00\n        /* \"#utility.yul\":4343:4352   */\n      dup4\n        /* \"#utility.yul\":4339:4356   */\n      add\n        /* \"#utility.yul\":4332:4379   */\n      mstore\n        /* \"#utility.yul\":4396:4527   */\n      tag_150\n        /* \"#utility.yul\":4522:4526   */\n      dup2\n        /* \"#utility.yul\":4396:4527   */\n      tag_123\n      jump\t// in\n    tag_150:\n        /* \"#utility.yul\":4388:4527   */\n      swap1\n      pop\n        /* \"#utility.yul\":4115:4534   */\n      swap2\n      swap1\n      pop\n      jump\t// out\n        /* \"#utility.yul\":4540:4959   */\n    tag_86:\n        /* \"#utility.yul\":4706:4710   */\n      0x00\n        /* \"#utility.yul\":4744:4746   */\n      0x20\n        /* \"#utility.yul\":4733:4742   */\n      dup3\n        /* \"#utility.yul\":4729:4747   */\n      add\n        /* \"#utility.yul\":4721:4747   */\n      swap1\n      pop\n        /* \"#utility.yul\":4793:4802   */\n      dup2\n        /* \"#utility.yul\":4787:4791   */\n      dup2\n        /* \"#utility.yul\":4783:4803   */\n      sub\n        /* \"#utility.yul\":4779:4780   */\n      0x00\n        /* \"#utility.yul\":4768:4777   */\n      dup4\n        /* \"#utility.yul\":4764:4781   */\n      add\n        /* \"#utility.yul\":4757:4804   */\n      mstore\n        /* \"#utility.yul\":4821:4952   */\n      tag_152\n        /* \"#utility.yul\":4947:4951   */\n      dup2\n        /* \"#utility.yul\":4821:4952   */\n      tag_128\n      jump\t// in\n    tag_152:\n        /* \"#utility.yul\":4813:4952   */\n      swap1\n      pop\n        /* \"#utility.yul\":4540:4959   */\n      swap2\n      swap1\n      pop\n      jump\t// out\n        /* \"#utility.yul\":4965:5187   */\n    tag_31:\n        /* \"#utility.yul\":5058:5062   */\n      0x00\n        /* \"#utility.yul\":5096:5098   */\n      0x20\n        /* \"#utility.yul\":5085:5094   */\n      dup3\n        /* \"#utility.yul\":5081:5099   */\n      add\n        /* \"#utility.yul\":5073:5099   */\n      swap1\n      pop\n        /* \"#utility.yul\":5109:5180   */\n      tag_154\n        /* \"#utility.yul\":5177:5178   */\n      0x00\n        /* \"#utility.yul\":5166:5175   */\n      dup4\n        /* \"#utility.yul\":5162:5179   */\n      add\n        /* \"#utility.yul\":5153:5159   */\n      dup5\n        /* \"#utility.yul\":5109:5180   */\n      tag_133\n      jump\t// in\n    tag_154:\n        /* \"#utility.yul\":4965:5187   */\n      swap3\n      swap2\n      pop\n      pop\n      jump\t// out\n        /* \"#utility.yul\":5274:5443   */\n    tag_120:\n        /* \"#utility.yul\":5358:5369   */\n      0x00\n        /* \"#utility.yul\":5392:5398   */\n      dup3\n        /* \"#utility.yul\":5387:5390   */\n      dup3\n        /* \"#utility.yul\":5380:5399   */\n      mstore\n        /* \"#utility.yul\":5432:5436   */\n      0x20\n        /* \"#utility.yul\":5427:5430   */\n      dup3\n        /* \"#utility.yul\":5423:5437   */\n      add\n        /* \"#utility.yul\":5408:5437   */\n      swap1\n      pop\n        /* \"#utility.yul\":5274:5443   */\n      swap3\n      swap2\n      pop\n      pop\n      jump\t// out\n        /* \"#utility.yul\":5449:5754   */\n    tag_50:\n        /* \"#utility.yul\":5489:5492   */\n      0x00\n        /* \"#utility.yul\":5508:5528   */\n      tag_159\n        /* \"#utility.yul\":5526:5527   */\n      dup3\n        /* \"#utility.yul\":5508:5528   */\n      tag_136\n      jump\t// in\n    tag_159:\n        /* \"#utility.yul\":5503:5528   */\n      swap2\n      pop\n        /* \"#utility.yul\":5542:5562   */\n      tag_160\n        /* \"#utility.yul\":5560:5561   */\n      dup4\n        /* \"#utility.yul\":5542:5562   */\n      tag_136\n      jump\t// in\n    tag_160:\n        /* \"#utility.yul\":5537:5562   */\n      swap3\n      pop\n        /* \"#utility.yul\":5696:5697   */\n      dup3\n        /* \"#utility.yul\":5628:5694   */\n      0xffffffffffffffffffffffffffffffffffffffffffffffffffffffffffffffff\n        /* \"#utility.yul\":5624:5698   */\n      sub\n        /* \"#utility.yul\":5621:5622   */\n      dup3\n        /* \"#utility.yul\":5618:5699   */\n      gt\n        /* \"#utility.yul\":5615:5722   */\n      iszero\n      tag_161\n      jumpi\n        /* \"#utility.yul\":5702:5720   */\n      tag_162\n      tag_163\n      jump\t// in\n    tag_162:\n        /* \"#utility.yul\":5615:5722   */\n    tag_161:\n        /* \"#utility.yul\":5746:5747   */\n      dup3\n        /* \"#utility.yul\":5743:5744   */\n      dup3\n        /* \"#utility.yul\":5739:5748   */\n      add\n        /* \"#utility.yul\":5732:5748   */\n      swap1\n      pop\n        /* \"#utility.yul\":5449:5754   */\n      swap3\n      swap2\n      pop\n      pop\n      jump\t// out\n        /* \"#utility.yul\":5760:5856   */\n    tag_108:\n        /* \"#utility.yul\":5797:5804   */\n      0x00\n        /* \"#utility.yul\":5826:5850   */\n      tag_165\n        /* \"#utility.yul\":5844:5849   */\n      dup3\n        /* \"#utility.yul\":5826:5850   */\n      tag_166\n      jump\t// in\n    tag_165:\n        /* \"#utility.yul\":5815:5850   */\n      swap1\n      pop\n        /* \"#utility.yul\":5760:5856   */\n      swap2\n      swap1\n      pop\n      jump\t// out\n        /* \"#utility.yul\":5862:5952   */\n    tag_112:\n        /* \"#utility.yul\":5896:5903   */\n      0x00\n        /* \"#utility.yul\":5939:5944   */\n      dup2\n        /* \"#utility.yul\":5932:5945   */\n      iszero\n        /* \"#utility.yul\":5925:5946   */\n      iszero\n        /* \"#utility.yul\":5914:5946   */\n      swap1\n      pop\n        /* \"#utility.yul\":5862:5952   */\n      swap2\n      swap1\n      pop\n      jump\t// out\n        /* \"#utility.yul\":5958:6035   */\n    tag_116:\n        /* \"#utility.yul\":5995:6002   */\n      0x00\n        /* \"#utility.yul\":6024:6029   */\n      dup2\n        /* \"#utility.yul\":6013:6029   */\n      swap1\n      pop\n        /* \"#utility.yul\":5958:6035   */\n      swap2\n      swap1\n      pop\n      jump\t// out\n        /* \"#utility.yul\":6041:6167   */\n    tag_166:\n        /* \"#utility.yul\":6078:6085   */\n      0x00\n        /* \"#utility.yul\":6118:6160   */\n      0xffffffffffffffffffffffffffffffffffffffff\n        /* \"#utility.yul\":6111:6116   */\n      dup3\n        /* \"#utility.yul\":6107:6161   */\n      and\n        /* \"#utility.yul\":6096:6161   */\n      swap1\n      pop\n        /* \"#utility.yul\":6041:6167   */\n      swap2\n      swap1\n      pop\n      jump\t// out\n        /* \"#utility.yul\":6173:6250   */\n    tag_136:\n        /* \"#utility.yul\":6210:6217   */\n      0x00\n        /* \"#utility.yul\":6239:6244   */\n      dup2\n        /* \"#utility.yul\":6228:6244   */\n      swap1\n      pop\n        /* \"#utility.yul\":6173:6250   */\n      swap2\n      swap1\n      pop\n      jump\t// out\n        /* \"#utility.yul\":6256:6489   */\n    tag_72:\n        /* \"#utility.yul\":6295:6298   */\n      0x00\n        /* \"#utility.yul\":6318:6342   */\n      tag_172\n        /* \"#utility.yul\":6336:6341   */\n      dup3\n        /* \"#utility.yul\":6318:6342   */\n      tag_136\n      jump\t// in\n    tag_172:\n        /* \"#utility.yul\":6309:6342   */\n      swap2\n      pop\n        /* \"#utility.yul\":6364:6430   */\n      0xffffffffffffffffffffffffffffffffffffffffffffffffffffffffffffffff\n        /* \"#utility.yul\":6357:6362   */\n      dup3\n        /* \"#utility.yul\":6354:6431   */\n      eq\n        /* \"#utility.yul\":6351:6454   */\n      iszero\n      tag_173\n      jumpi\n        /* \"#utility.yul\":6434:6452   */\n      tag_174\n      tag_163\n      jump\t// in\n    tag_174:\n        /* \"#utility.yul\":6351:6454   */\n    tag_173:\n        /* \"#utility.yul\":6481:6482   */\n      0x01\n        /* \"#utility.yul\":6474:6479   */\n      dup3\n        /* \"#utility.yul\":6470:6483   */\n      add\n        /* \"#utility.yul\":6463:6483   */\n      swap1\n      pop\n        /* \"#utility.yul\":6256:6489   */\n      swap2\n      swap1\n      pop\n      jump\t// out\n        /* \"#utility.yul\":6495:6675   */\n    tag_163:\n        /* \"#utility.yul\":6543:6620   */\n      0x4e487b7100000000000000000000000000000000000000000000000000000000\n        /* \"#utility.yul\":6540:6541   */\n      0x00\n        /* \"#utility.yul\":6533:6621   */\n      mstore\n        /* \"#utility.yul\":6640:6644   */\n      0x11\n        /* \"#utility.yul\":6637:6638   */\n      0x04\n        /* \"#utility.yul\":6630:6645   */\n      mstore\n        /* \"#utility.yul\":6664:6668   */\n      0x24\n        /* \"#utility.yul\":6661:6662   */\n      0x00\n        /* \"#utility.yul\":6654:6669   */\n      revert\n        /* \"#utility.yul\":6681:6861   */\n    tag_47:\n        /* \"#utility.yul\":6729:6806   */\n      0x4e487b7100000000000000000000000000000000000000000000000000000000\n        /* \"#utility.yul\":6726:6727   */\n      0x00\n        /* \"#utility.yul\":6719:6807   */\n      mstore\n        /* \"#utility.yul\":6826:6830   */\n      0x32\n        /* \"#utility.yul\":6823:6824   */\n      0x04\n        /* \"#utility.yul\":6816:6831   */\n      mstore\n        /* \"#utility.yul\":6850:6854   */\n      0x24\n        /* \"#utility.yul\":6847:6848   */\n      0x00\n        /* \"#utility.yul\":6840:6855   */\n      revert\n        /* \"#utility.yul\":6990:7107   */\n    tag_99:\n        /* \"#utility.yul\":7099:7100   */\n      0x00\n        /* \"#utility.yul\":7096:7097   */\n      dup1\n        /* \"#utility.yul\":7089:7101   */\n      revert\n        /* \"#utility.yul\":7113:7277   */\n    tag_122:\n        /* \"#utility.yul\":7253:7269   */\n      0x416c726561647920766f7465642e000000000000000000000000000000000000\n        /* \"#utility.yul\":7249:7250   */\n      0x00\n        /* \"#utility.yul\":7241:7247   */\n      dup3\n        /* \"#utility.yul\":7237:7251   */\n      add\n        /* \"#utility.yul\":7230:7270   */\n      mstore\n        /* \"#utility.yul\":7113:7277   */\n      pop\n      jump\t// out\n        /* \"#utility.yul\":7283:7510   */\n    tag_127:\n        /* \"#utility.yul\":7423:7457   */\n      0x4f6e6c79206368616972706572736f6e2063616e206769766520726967687420\n        /* \"#utility.yul\":7419:7420   */\n      0x00\n        /* \"#utility.yul\":7411:7417   */\n      dup3\n        /* \"#utility.yul\":7407:7421   */\n      add\n        /* \"#utility.yul\":7400:7458   */\n      mstore\n        /* \"#utility.yul\":7492:7502   */\n      0x746f20766f74652e000000000000000000000000000000000000000000000000\n        /* \"#utility.yul\":7487:7489   */\n      0x20\n        /* \"#utility.yul\":7479:7485   */\n      dup3\n        /* \"#utility.yul\":7475:7490   */\n      add\n        /* \"#utility.yul\":7468:7503   */\n      mstore\n        /* \"#utility.yul\":7283:7510   */\n      pop\n      jump\t// out\n        /* \"#utility.yul\":7516:7690   */\n    tag_132:\n        /* \"#utility.yul\":7656:7682   */\n      0x54686520766f74657220616c726561647920766f7465642e0000000000000000\n        /* \"#utility.yul\":7652:7653   */\n      0x00\n        /* \"#utility.yul\":7644:7650   */\n      dup3\n        /* \"#utility.yul\":7640:7654   */\n      add\n        /* \"#utility.yul\":7633:7683   */\n      mstore\n        /* \"#utility.yul\":7516:7690   */\n      pop\n      jump\t// out\n        /* \"#utility.yul\":7696:7818   */\n    tag_91:\n        /* \"#utility.yul\":7769:7793   */\n      tag_184\n        /* \"#utility.yul\":7787:7792   */\n      dup2\n        /* \"#utility.yul\":7769:7793   */\n      tag_108\n      jump\t// in\n    tag_184:\n        /* \"#utility.yul\":7762:7767   */\n      dup2\n        /* \"#utility.yul\":7759:7794   */\n      eq\n        /* \"#utility.yul\":7749:7812   */\n      tag_185\n      jumpi\n        /* \"#utility.yul\":7808:7809   */\n      0x00\n        /* \"#utility.yul\":7805:7806   */\n      dup1\n        /* \"#utility.yul\":7798:7810   */\n      revert\n        /* \"#utility.yul\":7749:7812   */\n    tag_185:\n        /* \"#utility.yul\":7696:7818   */\n      pop\n      jump\t// out\n        /* \"#utility.yul\":7824:7946   */\n    tag_95:\n        /* \"#utility.yul\":7897:7921   */\n      tag_187\n        /* \"#utility.yul\":7915:7920   */\n      dup2\n        /* \"#utility.yul\":7897:7921   */\n      tag_136\n      jump\t// in\n    tag_187:\n        /* \"#utility.yul\":7890:7895   */\n      dup2\n        /* \"#utility.yul\":7887:7922   */\n      eq\n        /* \"#utility.yul\":7877:7940   */\n      tag_188\n      jumpi\n        /* \"#utility.yul\":7936:7937   */\n      0x00\n        /* \"#utility.yul\":7933:7934   */\n      dup1\n        /* \"#utility.yul\":7926:7938   */\n      revert\n        /* \"#utility.yul\":7877:7940   */\n    tag_188:\n        /* \"#utility.yul\":7824:7946   */\n      pop\n      jump\t// out\n\n    auxdata: 0xa2646970667358221220a511220746f2c2da98d23ee7334eac9c50514d57e203b7780a482b863a65745164736f6c63430008070033\n}\n",
				"bytecode": {
					"linkReferences": {},
					"object": "608060405260006001553480156200001657600080fd5b5060405162000ddc38038062000ddc83398181016040528101906200003c9190620001e0565b336000806101000a81548173ffffffffffffffffffffffffffffffffffffffff021916908373ffffffffffffffffffffffffffffffffffffffff16021790555060005b8151811015620001135760036040518060400160405280848481518110620000ac57620000ab62000350565b5b60200260200101518152602001600081525090806001815401808255809150506001900390600052602060002090600202016000909190919091506000820151816000015560208201518160010155505080806200010a90620002d3565b9150506200007f565b5050620003ed565b6000620001326200012c846200025a565b62000231565b90508083825260208201905082856020860282011115620001585762000157620003b3565b5b60005b858110156200018c5781620001718882620001c9565b8452602084019350602083019250506001810190506200015b565b5050509392505050565b600082601f830112620001ae57620001ad620003ae565b5b8151620001c08482602086016200011b565b91505092915050565b600081519050620001da81620003d3565b92915050565b600060208284031215620001f957620001f8620003bd565b5b600082015167ffffffffffffffff8111156200021a5762000219620003b8565b5b620002288482850162000196565b91505092915050565b60006200023d62000250565b90506200024b82826200029d565b919050565b6000604051905090565b600067ffffffffffffffff8211156200027857620002776200037f565b5b602082029050602081019050919050565b6000819050919050565b6000819050919050565b620002a882620003c2565b810181811067ffffffffffffffff82111715620002ca57620002c96200037f565b5b80604052505050565b6000620002e08262000293565b91507fffffffffffffffffffffffffffffffffffffffffffffffffffffffffffffffff82141562000316576200031562000321565b5b600182019050919050565b7f4e487b7100000000000000000000000000000000000000000000000000000000600052601160045260246000fd5b7f4e487b7100000000000000000000000000000000000000000000000000000000600052603260045260246000fd5b7f4e487b7100000000000000000000000000000000000000000000000000000000600052604160045260246000fd5b600080fd5b600080fd5b600080fd5b600080fd5b6000601f19601f8301169050919050565b620003de8162000289565b8114620003ea57600080fd5b50565b6109df80620003fd6000396000f3fe608060405234801561001057600080fd5b506004361061007d5760003560e01c80632e4176cf1161005b5780632e4176cf146100ed578063609ff1bd1461010b5780639e7b8d6114610129578063a3ec138d146101455761007d565b80630121b93f14610082578063013cf08b1461009e5780632bfda515146100cf575b600080fd5b61009c600480360381019061009791906105a0565b610176565b005b6100b860048036038101906100b391906105a0565b610272565b6040516100c69291906106d1565b60405180910390f35b6100d76102a6565b6040516100e491906106b6565b60405180910390f35b6100f56102ee565b6040516101029190610672565b60405180910390f35b610113610312565b604051610120919061075a565b60405180910390f35b610143600480360381019061013e9190610573565b6103f7565b005b61015f600480360381019061015a9190610573565b610518565b60405161016d92919061068d565b60405180910390f35b6000600260003373ffffffffffffffffffffffffffffffffffffffff1673ffffffffffffffffffffffffffffffffffffffff16815260200190815260200160002090508060000160009054906101000a900460ff161561020b576040517f08c379a0000000000000000000000000000000000000000000000000000000008152600401610202906106fa565b60405180910390fd5b60018160000160006101000a81548160ff021916908315150217905550818160010181905550600160038381548110610247576102466108a6565b5b906000526020600020906002020160010160008282546102679190610786565b925050819055505050565b6003818154811061028257600080fd5b90600052602060002090600202016000915090508060000154908060010154905082565b600080600154146102bb5760015490506102eb565b60036102c5610312565b815481106102d6576102d56108a6565b5b90600052602060002090600202016000015490505b90565b60008054906101000a900473ffffffffffffffffffffffffffffffffffffffff1681565b600080600090506000805b600380549050811015610393576003828154811061033e5761033d6108a6565b5b90600052602060002090600202016001015460038281548110610364576103636108a6565b5b9060005260206000209060020201600101541115610380578091505b808061038b9061082e565b91505061031d565b50600381815481106103a8576103a76108a6565b5b906000526020600020906002020160010154915060036103c6610312565b815481106103d7576103d66108a6565b5b906000526020600020906002020160000154600181905550809250505090565b60008054906101000a900473ffffffffffffffffffffffffffffffffffffffff1673ffffffffffffffffffffffffffffffffffffffff163373ffffffffffffffffffffffffffffffffffffffff1614610485576040517f08c379a000000000000000000000000000000000000000000000000000000000815260040161047c9061071a565b60405180910390fd5b600260008273ffffffffffffffffffffffffffffffffffffffff1673ffffffffffffffffffffffffffffffffffffffff16815260200190815260200160002060000160009054906101000a900460ff1615610515576040517f08c379a000000000000000000000000000000000000000000000000000000000815260040161050c9061073a565b60405180910390fd5b50565b60026020528060005260406000206000915090508060000160009054906101000a900460ff16908060010154905082565b6000813590506105588161097b565b92915050565b60008135905061056d81610992565b92915050565b600060208284031215610589576105886108d5565b5b600061059784828501610549565b91505092915050565b6000602082840312156105b6576105b56108d5565b5b60006105c48482850161055e565b91505092915050565b6105d6816107dc565b82525050565b6105e5816107ee565b82525050565b6105f4816107fa565b82525050565b6000610607600e83610775565b9150610612826108da565b602082019050919050565b600061062a602883610775565b915061063582610903565b604082019050919050565b600061064d601883610775565b915061065882610952565b602082019050919050565b61066c81610824565b82525050565b600060208201905061068760008301846105cd565b92915050565b60006040820190506106a260008301856105dc565b6106af6020830184610663565b9392505050565b60006020820190506106cb60008301846105eb565b92915050565b60006040820190506106e660008301856105eb565b6106f36020830184610663565b9392505050565b60006020820190508181036000830152610713816105fa565b9050919050565b600060208201905081810360008301526107338161061d565b9050919050565b6000602082019050818103600083015261075381610640565b9050919050565b600060208201905061076f6000830184610663565b92915050565b600082825260208201905092915050565b600061079182610824565b915061079c83610824565b9250827fffffffffffffffffffffffffffffffffffffffffffffffffffffffffffffffff038211156107d1576107d0610877565b5b828201905092915050565b60006107e782610804565b9050919050565b60008115159050919050565b6000819050919050565b600073ffffffffffffffffffffffffffffffffffffffff82169050919050565b6000819050919050565b600061083982610824565b91507fffffffffffffffffffffffffffffffffffffffffffffffffffffffffffffffff82141561086c5761086b610877565b5b600182019050919050565b7f4e487b7100000000000000000000000000000000000000000000000000000000600052601160045260246000fd5b7f4e487b7100000000000000000000000000000000000000000000000000000000600052603260045260246000fd5b600080fd5b7f416c726561647920766f7465642e000000000000000000000000000000000000600082015250565b7f4f6e6c79206368616972706572736f6e2063616e20676976652072696768742060008201527f746f20766f74652e000000000000000000000000000000000000000000000000602082015250565b7f54686520766f74657220616c726561647920766f7465642e0000000000000000600082015250565b610984816107dc565b811461098f57600080fd5b50565b61099b81610824565b81146109a657600080fd5b5056fea2646970667358221220a511220746f2c2da98d23ee7334eac9c50514d57e203b7780a482b863a65745164736f6c63430008070033",
					"opcodes": "PUSH1 0x80 PUSH1 0x40 MSTORE PUSH1 0x0 PUSH1 0x1 SSTORE CALLVALUE DUP1 ISZERO PUSH3 0x16 JUMPI PUSH1 0x0 DUP1 REVERT JUMPDEST POP PUSH1 0x40 MLOAD PUSH3 0xDDC CODESIZE SUB DUP1 PUSH3 0xDDC DUP4 CODECOPY DUP2 DUP2 ADD PUSH1 0x40 MSTORE DUP2 ADD SWAP1 PUSH3 0x3C SWAP2 SWAP1 PUSH3 0x1E0 JUMP JUMPDEST CALLER PUSH1 0x0 DUP1 PUSH2 0x100 EXP DUP2 SLOAD DUP2 PUSH20 0xFFFFFFFFFFFFFFFFFFFFFFFFFFFFFFFFFFFFFFFF MUL NOT AND SWAP1 DUP4 PUSH20 0xFFFFFFFFFFFFFFFFFFFFFFFFFFFFFFFFFFFFFFFF AND MUL OR SWAP1 SSTORE POP PUSH1 0x0 JUMPDEST DUP2 MLOAD DUP2 LT ISZERO PUSH3 0x113 JUMPI PUSH1 0x3 PUSH1 0x40 MLOAD DUP1 PUSH1 0x40 ADD PUSH1 0x40 MSTORE DUP1 DUP5 DUP5 DUP2 MLOAD DUP2 LT PUSH3 0xAC JUMPI PUSH3 0xAB PUSH3 0x350 JUMP JUMPDEST JUMPDEST PUSH1 0x20 MUL PUSH1 0x20 ADD ADD MLOAD DUP2 MSTORE PUSH1 0x20 ADD PUSH1 0x0 DUP2 MSTORE POP SWAP1 DUP1 PUSH1 0x1 DUP2 SLOAD ADD DUP1 DUP3 SSTORE DUP1 SWAP2 POP POP PUSH1 0x1 SWAP1 SUB SWAP1 PUSH1 0x0 MSTORE PUSH1 0x20 PUSH1 0x0 KECCAK256 SWAP1 PUSH1 0x2 MUL ADD PUSH1 0x0 SWAP1 SWAP2 SWAP1 SWAP2 SWAP1 SWAP2 POP PUSH1 0x0 DUP3 ADD MLOAD DUP2 PUSH1 0x0 ADD SSTORE PUSH1 0x20 DUP3 ADD MLOAD DUP2 PUSH1 0x1 ADD SSTORE POP POP DUP1 DUP1 PUSH3 0x10A SWAP1 PUSH3 0x2D3 JUMP JUMPDEST SWAP2 POP POP PUSH3 0x7F JUMP JUMPDEST POP POP PUSH3 0x3ED JUMP JUMPDEST PUSH1 0x0 PUSH3 0x132 PUSH3 0x12C DUP5 PUSH3 0x25A JUMP JUMPDEST PUSH3 0x231 JUMP JUMPDEST SWAP1 POP DUP1 DUP4 DUP3 MSTORE PUSH1 0x20 DUP3 ADD SWAP1 POP DUP3 DUP6 PUSH1 0x20 DUP7 MUL DUP3 ADD GT ISZERO PUSH3 0x158 JUMPI PUSH3 0x157 PUSH3 0x3B3 JUMP JUMPDEST JUMPDEST PUSH1 0x0 JUMPDEST DUP6 DUP2 LT ISZERO PUSH3 0x18C JUMPI DUP2 PUSH3 0x171 DUP9 DUP3 PUSH3 0x1C9 JUMP JUMPDEST DUP5 MSTORE PUSH1 0x20 DUP5 ADD SWAP4 POP PUSH1 0x20 DUP4 ADD SWAP3 POP POP PUSH1 0x1 DUP2 ADD SWAP1 POP PUSH3 0x15B JUMP JUMPDEST POP POP POP SWAP4 SWAP3 POP POP POP JUMP JUMPDEST PUSH1 0x0 DUP3 PUSH1 0x1F DUP4 ADD SLT PUSH3 0x1AE JUMPI PUSH3 0x1AD PUSH3 0x3AE JUMP JUMPDEST JUMPDEST DUP2 MLOAD PUSH3 0x1C0 DUP5 DUP3 PUSH1 0x20 DUP7 ADD PUSH3 0x11B JUMP JUMPDEST SWAP2 POP POP SWAP3 SWAP2 POP POP JUMP JUMPDEST PUSH1 0x0 DUP2 MLOAD SWAP1 POP PUSH3 0x1DA DUP2 PUSH3 0x3D3 JUMP JUMPDEST SWAP3 SWAP2 POP POP JUMP JUMPDEST PUSH1 0x0 PUSH1 0x20 DUP3 DUP5 SUB SLT ISZERO PUSH3 0x1F9 JUMPI PUSH3 0x1F8 PUSH3 0x3BD JUMP JUMPDEST JUMPDEST PUSH1 0x0 DUP3 ADD MLOAD PUSH8 0xFFFFFFFFFFFFFFFF DUP2 GT ISZERO PUSH3 0x21A JUMPI PUSH3 0x219 PUSH3 0x3B8 JUMP JUMPDEST JUMPDEST PUSH3 0x228 DUP5 DUP3 DUP6 ADD PUSH3 0x196 JUMP JUMPDEST SWAP2 POP POP SWAP3 SWAP2 POP POP JUMP JUMPDEST PUSH1 0x0 PUSH3 0x23D PUSH3 0x250 JUMP JUMPDEST SWAP1 POP PUSH3 0x24B DUP3 DUP3 PUSH3 0x29D JUMP JUMPDEST SWAP2 SWAP1 POP JUMP JUMPDEST PUSH1 0x0 PUSH1 0x40 MLOAD SWAP1 POP SWAP1 JUMP JUMPDEST PUSH1 0x0 PUSH8 0xFFFFFFFFFFFFFFFF DUP3 GT ISZERO PUSH3 0x278 JUMPI PUSH3 0x277 PUSH3 0x37F JUMP JUMPDEST JUMPDEST PUSH1 0x20 DUP3 MUL SWAP1 POP PUSH1 0x20 DUP2 ADD SWAP1 POP SWAP2 SWAP1 POP JUMP JUMPDEST PUSH1 0x0 DUP2 SWAP1 POP SWAP2 SWAP1 POP JUMP JUMPDEST PUSH1 0x0 DUP2 SWAP1 POP SWAP2 SWAP1 POP JUMP JUMPDEST PUSH3 0x2A8 DUP3 PUSH3 0x3C2 JUMP JUMPDEST DUP2 ADD DUP2 DUP2 LT PUSH8 0xFFFFFFFFFFFFFFFF DUP3 GT OR ISZERO PUSH3 0x2CA JUMPI PUSH3 0x2C9 PUSH3 0x37F JUMP JUMPDEST JUMPDEST DUP1 PUSH1 0x40 MSTORE POP POP POP JUMP JUMPDEST PUSH1 0x0 PUSH3 0x2E0 DUP3 PUSH3 0x293 JUMP JUMPDEST SWAP2 POP PUSH32 0xFFFFFFFFFFFFFFFFFFFFFFFFFFFFFFFFFFFFFFFFFFFFFFFFFFFFFFFFFFFFFFFF DUP3 EQ ISZERO PUSH3 0x316 JUMPI PUSH3 0x315 PUSH3 0x321 JUMP JUMPDEST JUMPDEST PUSH1 0x1 DUP3 ADD SWAP1 POP SWAP2 SWAP1 POP JUMP JUMPDEST PUSH32 0x4E487B7100000000000000000000000000000000000000000000000000000000 PUSH1 0x0 MSTORE PUSH1 0x11 PUSH1 0x4 MSTORE PUSH1 0x24 PUSH1 0x0 REVERT JUMPDEST PUSH32 0x4E487B7100000000000000000000000000000000000000000000000000000000 PUSH1 0x0 MSTORE PUSH1 0x32 PUSH1 0x4 MSTORE PUSH1 0x24 PUSH1 0x0 REVERT JUMPDEST PUSH32 0x4E487B7100000000000000000000000000000000000000000000000000000000 PUSH1 0x0 MSTORE PUSH1 0x41 PUSH1 0x4 MSTORE PUSH1 0x24 PUSH1 0x0 REVERT JUMPDEST PUSH1 0x0 DUP1 REVERT JUMPDEST PUSH1 0x0 DUP1 REVERT JUMPDEST PUSH1 0x0 DUP1 REVERT JUMPDEST PUSH1 0x0 DUP1 REVERT JUMPDEST PUSH1 0x0 PUSH1 0x1F NOT PUSH1 0x1F DUP4 ADD AND SWAP1 POP SWAP2 SWAP1 POP JUMP JUMPDEST PUSH3 0x3DE DUP2 PUSH3 0x289 JUMP JUMPDEST DUP2 EQ PUSH3 0x3EA JUMPI PUSH1 0x0 DUP1 REVERT JUMPDEST POP JUMP JUMPDEST PUSH2 0x9DF DUP1 PUSH3 0x3FD PUSH1 0x0 CODECOPY PUSH1 0x0 RETURN INVALID PUSH1 0x80 PUSH1 0x40 MSTORE CALLVALUE DUP1 ISZERO PUSH2 0x10 JUMPI PUSH1 0x0 DUP1 REVERT JUMPDEST POP PUSH1 0x4 CALLDATASIZE LT PUSH2 0x7D JUMPI PUSH1 0x0 CALLDATALOAD PUSH1 0xE0 SHR DUP1 PUSH4 0x2E4176CF GT PUSH2 0x5B JUMPI DUP1 PUSH4 0x2E4176CF EQ PUSH2 0xED JUMPI DUP1 PUSH4 0x609FF1BD EQ PUSH2 0x10B JUMPI DUP1 PUSH4 0x9E7B8D61 EQ PUSH2 0x129 JUMPI DUP1 PUSH4 0xA3EC138D EQ PUSH2 0x145 JUMPI PUSH2 0x7D JUMP JUMPDEST DUP1 PUSH4 0x121B93F EQ PUSH2 0x82 JUMPI DUP1 PUSH4 0x13CF08B EQ PUSH2 0x9E JUMPI DUP1 PUSH4 0x2BFDA515 EQ PUSH2 0xCF JUMPI JUMPDEST PUSH1 0x0 DUP1 REVERT JUMPDEST PUSH2 0x9C PUSH1 0x4 DUP1 CALLDATASIZE SUB DUP2 ADD SWAP1 PUSH2 0x97 SWAP2 SWAP1 PUSH2 0x5A0 JUMP JUMPDEST PUSH2 0x176 JUMP JUMPDEST STOP JUMPDEST PUSH2 0xB8 PUSH1 0x4 DUP1 CALLDATASIZE SUB DUP2 ADD SWAP1 PUSH2 0xB3 SWAP2 SWAP1 PUSH2 0x5A0 JUMP JUMPDEST PUSH2 0x272 JUMP JUMPDEST PUSH1 0x40 MLOAD PUSH2 0xC6 SWAP3 SWAP2 SWAP1 PUSH2 0x6D1 JUMP JUMPDEST PUSH1 0x40 MLOAD DUP1 SWAP2 SUB SWAP1 RETURN JUMPDEST PUSH2 0xD7 PUSH2 0x2A6 JUMP JUMPDEST PUSH1 0x40 MLOAD PUSH2 0xE4 SWAP2 SWAP1 PUSH2 0x6B6 JUMP JUMPDEST PUSH1 0x40 MLOAD DUP1 SWAP2 SUB SWAP1 RETURN JUMPDEST PUSH2 0xF5 PUSH2 0x2EE JUMP JUMPDEST PUSH1 0x40 MLOAD PUSH2 0x102 SWAP2 SWAP1 PUSH2 0x672 JUMP JUMPDEST PUSH1 0x40 MLOAD DUP1 SWAP2 SUB SWAP1 RETURN JUMPDEST PUSH2 0x113 PUSH2 0x312 JUMP JUMPDEST PUSH1 0x40 MLOAD PUSH2 0x120 SWAP2 SWAP1 PUSH2 0x75A JUMP JUMPDEST PUSH1 0x40 MLOAD DUP1 SWAP2 SUB SWAP1 RETURN JUMPDEST PUSH2 0x143 PUSH1 0x4 DUP1 CALLDATASIZE SUB DUP2 ADD SWAP1 PUSH2 0x13E SWAP2 SWAP1 PUSH2 0x573 JUMP JUMPDEST PUSH2 0x3F7 JUMP JUMPDEST STOP JUMPDEST PUSH2 0x15F PUSH1 0x4 DUP1 CALLDATASIZE SUB DUP2 ADD SWAP1 PUSH2 0x15A SWAP2 SWAP1 PUSH2 0x573 JUMP JUMPDEST PUSH2 0x518 JUMP JUMPDEST PUSH1 0x40 MLOAD PUSH2 0x16D SWAP3 SWAP2 SWAP1 PUSH2 0x68D JUMP JUMPDEST PUSH1 0x40 MLOAD DUP1 SWAP2 SUB SWAP1 RETURN JUMPDEST PUSH1 0x0 PUSH1 0x2 PUSH1 0x0 CALLER PUSH20 0xFFFFFFFFFFFFFFFFFFFFFFFFFFFFFFFFFFFFFFFF AND PUSH20 0xFFFFFFFFFFFFFFFFFFFFFFFFFFFFFFFFFFFFFFFF AND DUP2 MSTORE PUSH1 0x20 ADD SWAP1 DUP2 MSTORE PUSH1 0x20 ADD PUSH1 0x0 KECCAK256 SWAP1 POP DUP1 PUSH1 0x0 ADD PUSH1 0x0 SWAP1 SLOAD SWAP1 PUSH2 0x100 EXP SWAP1 DIV PUSH1 0xFF AND ISZERO PUSH2 0x20B JUMPI PUSH1 0x40 MLOAD PUSH32 0x8C379A000000000000000000000000000000000000000000000000000000000 DUP2 MSTORE PUSH1 0x4 ADD PUSH2 0x202 SWAP1 PUSH2 0x6FA JUMP JUMPDEST PUSH1 0x40 MLOAD DUP1 SWAP2 SUB SWAP1 REVERT JUMPDEST PUSH1 0x1 DUP2 PUSH1 0x0 ADD PUSH1 0x0 PUSH2 0x100 EXP DUP2 SLOAD DUP2 PUSH1 0xFF MUL NOT AND SWAP1 DUP4 ISZERO ISZERO MUL OR SWAP1 SSTORE POP DUP2 DUP2 PUSH1 0x1 ADD DUP2 SWAP1 SSTORE POP PUSH1 0x1 PUSH1 0x3 DUP4 DUP2 SLOAD DUP2 LT PUSH2 0x247 JUMPI PUSH2 0x246 PUSH2 0x8A6 JUMP JUMPDEST JUMPDEST SWAP1 PUSH1 0x0 MSTORE PUSH1 0x20 PUSH1 0x0 KECCAK256 SWAP1 PUSH1 0x2 MUL ADD PUSH1 0x1 ADD PUSH1 0x0 DUP3 DUP3 SLOAD PUSH2 0x267 SWAP2 SWAP1 PUSH2 0x786 JUMP JUMPDEST SWAP3 POP POP DUP2 SWAP1 SSTORE POP POP POP JUMP JUMPDEST PUSH1 0x3 DUP2 DUP2 SLOAD DUP2 LT PUSH2 0x282 JUMPI PUSH1 0x0 DUP1 REVERT JUMPDEST SWAP1 PUSH1 0x0 MSTORE PUSH1 0x20 PUSH1 0x0 KECCAK256 SWAP1 PUSH1 0x2 MUL ADD PUSH1 0x0 SWAP2 POP SWAP1 POP DUP1 PUSH1 0x0 ADD SLOAD SWAP1 DUP1 PUSH1 0x1 ADD SLOAD SWAP1 POP DUP3 JUMP JUMPDEST PUSH1 0x0 DUP1 PUSH1 0x1 SLOAD EQ PUSH2 0x2BB JUMPI PUSH1 0x1 SLOAD SWAP1 POP PUSH2 0x2EB JUMP JUMPDEST PUSH1 0x3 PUSH2 0x2C5 PUSH2 0x312 JUMP JUMPDEST DUP2 SLOAD DUP2 LT PUSH2 0x2D6 JUMPI PUSH2 0x2D5 PUSH2 0x8A6 JUMP JUMPDEST JUMPDEST SWAP1 PUSH1 0x0 MSTORE PUSH1 0x20 PUSH1 0x0 KECCAK256 SWAP1 PUSH1 0x2 MUL ADD PUSH1 0x0 ADD SLOAD SWAP1 POP JUMPDEST SWAP1 JUMP JUMPDEST PUSH1 0x0 DUP1 SLOAD SWAP1 PUSH2 0x100 EXP SWAP1 DIV PUSH20 0xFFFFFFFFFFFFFFFFFFFFFFFFFFFFFFFFFFFFFFFF AND DUP2 JUMP JUMPDEST PUSH1 0x0 DUP1 PUSH1 0x0 SWAP1 POP PUSH1 0x0 DUP1 JUMPDEST PUSH1 0x3 DUP1 SLOAD SWAP1 POP DUP2 LT ISZERO PUSH2 0x393 JUMPI PUSH1 0x3 DUP3 DUP2 SLOAD DUP2 LT PUSH2 0x33E JUMPI PUSH2 0x33D PUSH2 0x8A6 JUMP JUMPDEST JUMPDEST SWAP1 PUSH1 0x0 MSTORE PUSH1 0x20 PUSH1 0x0 KECCAK256 SWAP1 PUSH1 0x2 MUL ADD PUSH1 0x1 ADD SLOAD PUSH1 0x3 DUP3 DUP2 SLOAD DUP2 LT PUSH2 0x364 JUMPI PUSH2 0x363 PUSH2 0x8A6 JUMP JUMPDEST JUMPDEST SWAP1 PUSH1 0x0 MSTORE PUSH1 0x20 PUSH1 0x0 KECCAK256 SWAP1 PUSH1 0x2 MUL ADD PUSH1 0x1 ADD SLOAD GT ISZERO PUSH2 0x380 JUMPI DUP1 SWAP2 POP JUMPDEST DUP1 DUP1 PUSH2 0x38B SWAP1 PUSH2 0x82E JUMP JUMPDEST SWAP2 POP POP PUSH2 0x31D JUMP JUMPDEST POP PUSH1 0x3 DUP2 DUP2 SLOAD DUP2 LT PUSH2 0x3A8 JUMPI PUSH2 0x3A7 PUSH2 0x8A6 JUMP JUMPDEST JUMPDEST SWAP1 PUSH1 0x0 MSTORE PUSH1 0x20 PUSH1 0x0 KECCAK256 SWAP1 PUSH1 0x2 MUL ADD PUSH1 0x1 ADD SLOAD SWAP2 POP PUSH1 0x3 PUSH2 0x3C6 PUSH2 0x312 JUMP JUMPDEST DUP2 SLOAD DUP2 LT PUSH2 0x3D7 JUMPI PUSH2 0x3D6 PUSH2 0x8A6 JUMP JUMPDEST JUMPDEST SWAP1 PUSH1 0x0 MSTORE PUSH1 0x20 PUSH1 0x0 KECCAK256 SWAP1 PUSH1 0x2 MUL ADD PUSH1 0x0 ADD SLOAD PUSH1 0x1 DUP2 SWAP1 SSTORE POP DUP1 SWAP3 POP POP POP SWAP1 JUMP JUMPDEST PUSH1 0x0 DUP1 SLOAD SWAP1 PUSH2 0x100 EXP SWAP1 DIV PUSH20 0xFFFFFFFFFFFFFFFFFFFFFFFFFFFFFFFFFFFFFFFF AND PUSH20 0xFFFFFFFFFFFFFFFFFFFFFFFFFFFFFFFFFFFFFFFF AND CALLER PUSH20 0xFFFFFFFFFFFFFFFFFFFFFFFFFFFFFFFFFFFFFFFF AND EQ PUSH2 0x485 JUMPI PUSH1 0x40 MLOAD PUSH32 0x8C379A000000000000000000000000000000000000000000000000000000000 DUP2 MSTORE PUSH1 0x4 ADD PUSH2 0x47C SWAP1 PUSH2 0x71A JUMP JUMPDEST PUSH1 0x40 MLOAD DUP1 SWAP2 SUB SWAP1 REVERT JUMPDEST PUSH1 0x2 PUSH1 0x0 DUP3 PUSH20 0xFFFFFFFFFFFFFFFFFFFFFFFFFFFFFFFFFFFFFFFF AND PUSH20 0xFFFFFFFFFFFFFFFFFFFFFFFFFFFFFFFFFFFFFFFF AND DUP2 MSTORE PUSH1 0x20 ADD SWAP1 DUP2 MSTORE PUSH1 0x20 ADD PUSH1 0x0 KECCAK256 PUSH1 0x0 ADD PUSH1 0x0 SWAP1 SLOAD SWAP1 PUSH2 0x100 EXP SWAP1 DIV PUSH1 0xFF AND ISZERO PUSH2 0x515 JUMPI PUSH1 0x40 MLOAD PUSH32 0x8C379A000000000000000000000000000000000000000000000000000000000 DUP2 MSTORE PUSH1 0x4 ADD PUSH2 0x50C SWAP1 PUSH2 0x73A JUMP JUMPDEST PUSH1 0x40 MLOAD DUP1 SWAP2 SUB SWAP1 REVERT JUMPDEST POP JUMP JUMPDEST PUSH1 0x2 PUSH1 0x20 MSTORE DUP1 PUSH1 0x0 MSTORE PUSH1 0x40 PUSH1 0x0 KECCAK256 PUSH1 0x0 SWAP2 POP SWAP1 POP DUP1 PUSH1 0x0 ADD PUSH1 0x0 SWAP1 SLOAD SWAP1 PUSH2 0x100 EXP SWAP1 DIV PUSH1 0xFF AND SWAP1 DUP1 PUSH1 0x1 ADD SLOAD SWAP1 POP DUP3 JUMP JUMPDEST PUSH1 0x0 DUP2 CALLDATALOAD SWAP1 POP PUSH2 0x558 DUP2 PUSH2 0x97B JUMP JUMPDEST SWAP3 SWAP2 POP POP JUMP JUMPDEST PUSH1 0x0 DUP2 CALLDATALOAD SWAP1 POP PUSH2 0x56D DUP2 PUSH2 0x992 JUMP JUMPDEST SWAP3 SWAP2 POP POP JUMP JUMPDEST PUSH1 0x0 PUSH1 0x20 DUP3 DUP5 SUB SLT ISZERO PUSH2 0x589 JUMPI PUSH2 0x588 PUSH2 0x8D5 JUMP JUMPDEST JUMPDEST PUSH1 0x0 PUSH2 0x597 DUP5 DUP3 DUP6 ADD PUSH2 0x549 JUMP JUMPDEST SWAP2 POP POP SWAP3 SWAP2 POP POP JUMP JUMPDEST PUSH1 0x0 PUSH1 0x20 DUP3 DUP5 SUB SLT ISZERO PUSH2 0x5B6 JUMPI PUSH2 0x5B5 PUSH2 0x8D5 JUMP JUMPDEST JUMPDEST PUSH1 0x0 PUSH2 0x5C4 DUP5 DUP3 DUP6 ADD PUSH2 0x55E JUMP JUMPDEST SWAP2 POP POP SWAP3 SWAP2 POP POP JUMP JUMPDEST PUSH2 0x5D6 DUP2 PUSH2 0x7DC JUMP JUMPDEST DUP3 MSTORE POP POP JUMP JUMPDEST PUSH2 0x5E5 DUP2 PUSH2 0x7EE JUMP JUMPDEST DUP3 MSTORE POP POP JUMP JUMPDEST PUSH2 0x5F4 DUP2 PUSH2 0x7FA JUMP JUMPDEST DUP3 MSTORE POP POP JUMP JUMPDEST PUSH1 0x0 PUSH2 0x607 PUSH1 0xE DUP4 PUSH2 0x775 JUMP JUMPDEST SWAP2 POP PUSH2 0x612 DUP3 PUSH2 0x8DA JUMP JUMPDEST PUSH1 0x20 DUP3 ADD SWAP1 POP SWAP2 SWAP1 POP JUMP JUMPDEST PUSH1 0x0 PUSH2 0x62A PUSH1 0x28 DUP4 PUSH2 0x775 JUMP JUMPDEST SWAP2 POP PUSH2 0x635 DUP3 PUSH2 0x903 JUMP JUMPDEST PUSH1 0x40 DUP3 ADD SWAP1 POP SWAP2 SWAP1 POP JUMP JUMPDEST PUSH1 0x0 PUSH2 0x64D PUSH1 0x18 DUP4 PUSH2 0x775 JUMP JUMPDEST SWAP2 POP PUSH2 0x658 DUP3 PUSH2 0x952 JUMP JUMPDEST PUSH1 0x20 DUP3 ADD SWAP1 POP SWAP2 SWAP1 POP JUMP JUMPDEST PUSH2 0x66C DUP2 PUSH2 0x824 JUMP JUMPDEST DUP3 MSTORE POP POP JUMP JUMPDEST PUSH1 0x0 PUSH1 0x20 DUP3 ADD SWAP1 POP PUSH2 0x687 PUSH1 0x0 DUP4 ADD DUP5 PUSH2 0x5CD JUMP JUMPDEST SWAP3 SWAP2 POP POP JUMP JUMPDEST PUSH1 0x0 PUSH1 0x40 DUP3 ADD SWAP1 POP PUSH2 0x6A2 PUSH1 0x0 DUP4 ADD DUP6 PUSH2 0x5DC JUMP JUMPDEST PUSH2 0x6AF PUSH1 0x20 DUP4 ADD DUP5 PUSH2 0x663 JUMP JUMPDEST SWAP4 SWAP3 POP POP POP JUMP JUMPDEST PUSH1 0x0 PUSH1 0x20 DUP3 ADD SWAP1 POP PUSH2 0x6CB PUSH1 0x0 DUP4 ADD DUP5 PUSH2 0x5EB JUMP JUMPDEST SWAP3 SWAP2 POP POP JUMP JUMPDEST PUSH1 0x0 PUSH1 0x40 DUP3 ADD SWAP1 POP PUSH2 0x6E6 PUSH1 0x0 DUP4 ADD DUP6 PUSH2 0x5EB JUMP JUMPDEST PUSH2 0x6F3 PUSH1 0x20 DUP4 ADD DUP5 PUSH2 0x663 JUMP JUMPDEST SWAP4 SWAP3 POP POP POP JUMP JUMPDEST PUSH1 0x0 PUSH1 0x20 DUP3 ADD SWAP1 POP DUP2 DUP2 SUB PUSH1 0x0 DUP4 ADD MSTORE PUSH2 0x713 DUP2 PUSH2 0x5FA JUMP JUMPDEST SWAP1 POP SWAP2 SWAP1 POP JUMP JUMPDEST PUSH1 0x0 PUSH1 0x20 DUP3 ADD SWAP1 POP DUP2 DUP2 SUB PUSH1 0x0 DUP4 ADD MSTORE PUSH2 0x733 DUP2 PUSH2 0x61D JUMP JUMPDEST SWAP1 POP SWAP2 SWAP1 POP JUMP JUMPDEST PUSH1 0x0 PUSH1 0x20 DUP3 ADD SWAP1 POP DUP2 DUP2 SUB PUSH1 0x0 DUP4 ADD MSTORE PUSH2 0x753 DUP2 PUSH2 0x640 JUMP JUMPDEST SWAP1 POP SWAP2 SWAP1 POP JUMP JUMPDEST PUSH1 0x0 PUSH1 0x20 DUP3 ADD SWAP1 POP PUSH2 0x76F PUSH1 0x0 DUP4 ADD DUP5 PUSH2 0x663 JUMP JUMPDEST SWAP3 SWAP2 POP POP JUMP JUMPDEST PUSH1 0x0 DUP3 DUP3 MSTORE PUSH1 0x20 DUP3 ADD SWAP1 POP SWAP3 SWAP2 POP POP JUMP JUMPDEST PUSH1 0x0 PUSH2 0x791 DUP3 PUSH2 0x824 JUMP JUMPDEST SWAP2 POP PUSH2 0x79C DUP4 PUSH2 0x824 JUMP JUMPDEST SWAP3 POP DUP3 PUSH32 0xFFFFFFFFFFFFFFFFFFFFFFFFFFFFFFFFFFFFFFFFFFFFFFFFFFFFFFFFFFFFFFFF SUB DUP3 GT ISZERO PUSH2 0x7D1 JUMPI PUSH2 0x7D0 PUSH2 0x877 JUMP JUMPDEST JUMPDEST DUP3 DUP3 ADD SWAP1 POP SWAP3 SWAP2 POP POP JUMP JUMPDEST PUSH1 0x0 PUSH2 0x7E7 DUP3 PUSH2 0x804 JUMP JUMPDEST SWAP1 POP SWAP2 SWAP1 POP JUMP JUMPDEST PUSH1 0x0 DUP2 ISZERO ISZERO SWAP1 POP SWAP2 SWAP1 POP JUMP JUMPDEST PUSH1 0x0 DUP2 SWAP1 POP SWAP2 SWAP1 POP JUMP JUMPDEST PUSH1 0x0 PUSH20 0xFFFFFFFFFFFFFFFFFFFFFFFFFFFFFFFFFFFFFFFF DUP3 AND SWAP1 POP SWAP2 SWAP1 POP JUMP JUMPDEST PUSH1 0x0 DUP2 SWAP1 POP SWAP2 SWAP1 POP JUMP JUMPDEST PUSH1 0x0 PUSH2 0x839 DUP3 PUSH2 0x824 JUMP JUMPDEST SWAP2 POP PUSH32 0xFFFFFFFFFFFFFFFFFFFFFFFFFFFFFFFFFFFFFFFFFFFFFFFFFFFFFFFFFFFFFFFF DUP3 EQ ISZERO PUSH2 0x86C JUMPI PUSH2 0x86B PUSH2 0x877 JUMP JUMPDEST JUMPDEST PUSH1 0x1 DUP3 ADD SWAP1 POP SWAP2 SWAP1 POP JUMP JUMPDEST PUSH32 0x4E487B7100000000000000000000000000000000000000000000000000000000 PUSH1 0x0 MSTORE PUSH1 0x11 PUSH1 0x4 MSTORE PUSH1 0x24 PUSH1 0x0 REVERT JUMPDEST PUSH32 0x4E487B7100000000000000000000000000000000000000000000000000000000 PUSH1 0x0 MSTORE PUSH1 0x32 PUSH1 0x4 MSTORE PUSH1 0x24 PUSH1 0x0 REVERT JUMPDEST PUSH1 0x0 DUP1 REVERT JUMPDEST PUSH32 0x416C726561647920766F7465642E000000000000000000000000000000000000 PUSH1 0x0 DUP3 ADD MSTORE POP JUMP JUMPDEST PUSH32 0x4F6E6C79206368616972706572736F6E2063616E206769766520726967687420 PUSH1 0x0 DUP3 ADD MSTORE PUSH32 0x746F20766F74652E000000000000000000000000000000000000000000000000 PUSH1 0x20 DUP3 ADD MSTORE POP JUMP JUMPDEST PUSH32 0x54686520766F74657220616C726561647920766F7465642E0000000000000000 PUSH1 0x0 DUP3 ADD MSTORE POP JUMP JUMPDEST PUSH2 0x984 DUP2 PUSH2 0x7DC JUMP JUMPDEST DUP2 EQ PUSH2 0x98F JUMPI PUSH1 0x0 DUP1 REVERT JUMPDEST POP JUMP JUMPDEST PUSH2 0x99B DUP2 PUSH2 0x824 JUMP JUMPDEST DUP2 EQ PUSH2 0x9A6 JUMPI PUSH1 0x0 DUP1 REVERT JUMPDEST POP JUMP INVALID LOG2 PUSH5 0x6970667358 0x22 SLT KECCAK256 0xA5 GT 0x22 SMOD CHAINID CALLCODE 0xC2 0xDA SWAP9 0xD2 RETURNDATACOPY 0xE7 CALLER 0x4E 0xAC SWAP13 POP MLOAD 0x4D JUMPI 0xE2 SUB 0xB7 PUSH25 0xA482B863A65745164736F6C63430008070033000000000000 "
				},
				"gasEstimates": {
					"creation": {
						"codeDepositCost": "505400",
						"executionCost": "infinite",
						"totalCost": "infinite"
					},
					"external": {
						"chairperson()": "2511",
						"getWinnerName()": "infinite",
						"giveRightToVote(address)": "5205",
						"proposals(uint256)": "infinite",
						"vote(uint256)": "infinite",
						"voters(address)": "5148",
						"winningProposal()": "infinite"
					}
				},
				"methodIdentifiers": {
					"chairperson()": "2e4176cf",
					"getWinnerName()": "2bfda515",
					"giveRightToVote(address)": "9e7b8d61",
					"proposals(uint256)": "013cf08b",
					"vote(uint256)": "0121b93f",
					"voters(address)": "a3ec138d",
					"winningProposal()": "609ff1bd"
				}
			},
			"storageLayout": {
				"storage": [
					{
						"astId": 13,
						"contract": "simpleVoting.sol:Ballot",
						"label": "chairperson",
						"offset": 0,
						"slot": "0",
						"type": "t_address"
					},
					{
						"astId": 16,
						"contract": "simpleVoting.sol:Ballot",
						"label": "winnerName",
						"offset": 0,
						"slot": "1",
						"type": "t_bytes32"
					},
					{
						"astId": 21,
						"contract": "simpleVoting.sol:Ballot",
						"label": "voters",
						"offset": 0,
						"slot": "2",
						"type": "t_mapping(t_address,t_struct(Voter)6_storage)"
					},
					{
						"astId": 25,
						"contract": "simpleVoting.sol:Ballot",
						"label": "proposals",
						"offset": 0,
						"slot": "3",
						"type": "t_array(t_struct(Proposal)11_storage)dyn_storage"
					}
				],
				"types": {
					"t_address": {
						"encoding": "inplace",
						"label": "address",
						"numberOfBytes": "20"
					},
					"t_array(t_struct(Proposal)11_storage)dyn_storage": {
						"base": "t_struct(Proposal)11_storage",
						"encoding": "dynamic_array",
						"label": "struct Ballot.Proposal[]",
						"numberOfBytes": "32"
					},
					"t_bool": {
						"encoding": "inplace",
						"label": "bool",
						"numberOfBytes": "1"
					},
					"t_bytes32": {
						"encoding": "inplace",
						"label": "bytes32",
						"numberOfBytes": "32"
					},
					"t_mapping(t_address,t_struct(Voter)6_storage)": {
						"encoding": "mapping",
						"key": "t_address",
						"label": "mapping(address => struct Ballot.Voter)",
						"numberOfBytes": "32",
						"value": "t_struct(Voter)6_storage"
					},
					"t_struct(Proposal)11_storage": {
						"encoding": "inplace",
						"label": "struct Ballot.Proposal",
						"members": [
							{
								"astId": 8,
								"contract": "simpleVoting.sol:Ballot",
								"label": "name",
								"offset": 0,
								"slot": "0",
								"type": "t_bytes32"
							},
							{
								"astId": 10,
								"contract": "simpleVoting.sol:Ballot",
								"label": "voteCount",
								"offset": 0,
								"slot": "1",
								"type": "t_uint256"
							}
						],
						"numberOfBytes": "64"
					},
					"t_struct(Voter)6_storage": {
						"encoding": "inplace",
						"label": "struct Ballot.Voter",
						"members": [
							{
								"astId": 3,
								"contract": "simpleVoting.sol:Ballot",
								"label": "voted",
								"offset": 0,
								"slot": "0",
								"type": "t_bool"
							},
							{
								"astId": 5,
								"contract": "simpleVoting.sol:Ballot",
								"label": "vote",
								"offset": 0,
								"slot": "1",
								"type": "t_uint256"
							}
						],
						"numberOfBytes": "64"
					},
					"t_uint256": {
						"encoding": "inplace",
						"label": "uint256",
						"numberOfBytes": "32"
					}
				}
			},
			"userdoc": {
				"kind": "user",
				"methods": {
					"constructor": {
						"notice": "Create a new ballot to choose one of `proposalNames`."
					},
					"vote(uint256)": {
						"notice": "Give your vote to proposal `proposals[proposal].name`."
					}
				},
				"version": 1
			}
		}
	}
}