{
	"Remote Purchase.sol": {
		"Purchase": {
			"abi": [
				{
					"inputs": [],
					"stateMutability": "payable",
					"type": "constructor"
				},
				{
					"inputs": [],
					"name": "InvalidState",
					"type": "error"
				},
				{
					"inputs": [],
					"name": "OnlyBuyer",
					"type": "error"
				},
				{
					"inputs": [],
					"name": "OnlySeller",
					"type": "error"
				},
				{
					"inputs": [],
					"name": "ValueNotEven",
					"type": "error"
				},
				{
					"anonymous": false,
					"inputs": [],
					"name": "Aborted",
					"type": "event"
				},
				{
					"anonymous": false,
					"inputs": [],
					"name": "ItemReceived",
					"type": "event"
				},
				{
					"anonymous": false,
					"inputs": [],
					"name": "PurchaseConfirmed",
					"type": "event"
				},
				{
					"anonymous": false,
					"inputs": [],
					"name": "SellerRefunded",
					"type": "event"
				},
				{
					"inputs": [],
					"name": "abort",
					"outputs": [],
					"stateMutability": "nonpayable",
					"type": "function"
				},
				{
					"inputs": [],
					"name": "buyer",
					"outputs": [
						{
							"internalType": "address payable",
							"name": "",
							"type": "address"
						}
					],
					"stateMutability": "view",
					"type": "function"
				},
				{
					"inputs": [],
					"name": "confirmPurchase",
					"outputs": [],
					"stateMutability": "payable",
					"type": "function"
				},
				{
					"inputs": [],
					"name": "confirmReceived",
					"outputs": [],
					"stateMutability": "nonpayable",
					"type": "function"
				},
				{
					"inputs": [],
					"name": "refundSeller",
					"outputs": [],
					"stateMutability": "nonpayable",
					"type": "function"
				},
				{
					"inputs": [],
					"name": "seller",
					"outputs": [
						{
							"internalType": "address payable",
							"name": "",
							"type": "address"
						}
					],
					"stateMutability": "view",
					"type": "function"
				},
				{
					"inputs": [],
					"name": "state",
					"outputs": [
						{
							"internalType": "enum Purchase.State",
							"name": "",
							"type": "uint8"
						}
					],
					"stateMutability": "view",
					"type": "function"
				},
				{
					"inputs": [],
					"name": "value",
					"outputs": [
						{
							"internalType": "uint256",
							"name": "",
							"type": "uint256"
						}
					],
					"stateMutability": "view",
					"type": "function"
				}
			],
			"devdoc": {
				"kind": "dev",
				"methods": {},
				"version": 1
			},
			"evm": {
				"assembly": "    /* \"Remote Purchase.sol\":62:3489  contract Purchase {\r... */\n  mstore(0x40, 0x80)\n    /* \"Remote Purchase.sol\":1442:1452  msg.sender */\n  caller\n    /* \"Remote Purchase.sol\":1425:1431  seller */\n  0x01\n  0x00\n    /* \"Remote Purchase.sol\":1425:1453  seller = payable(msg.sender) */\n  0x0100\n  exp\n  dup2\n  sload\n  dup2\n  0xffffffffffffffffffffffffffffffffffffffff\n  mul\n  not\n  and\n  swap1\n  dup4\n  0xffffffffffffffffffffffffffffffffffffffff\n  and\n  mul\n  or\n  swap1\n  sstore\n  pop\n    /* \"Remote Purchase.sol\":1484:1485  2 */\n  0x02\n    /* \"Remote Purchase.sol\":1472:1481  msg.value */\n  callvalue\n    /* \"Remote Purchase.sol\":1472:1485  msg.value / 2 */\n  tag_3\n  swap2\n  swap1\n  tag_4\n  jump\t// in\ntag_3:\n    /* \"Remote Purchase.sol\":1464:1469  value */\n  0x00\n    /* \"Remote Purchase.sol\":1464:1485  value = msg.value / 2 */\n  dup2\n  swap1\n  sstore\n  pop\n    /* \"Remote Purchase.sol\":1515:1524  msg.value */\n  callvalue\n    /* \"Remote Purchase.sol\":1505:1510  value */\n  sload(0x00)\n    /* \"Remote Purchase.sol\":1501:1502  2 */\n  0x02\n    /* \"Remote Purchase.sol\":1501:1510  2 * value */\n  tag_5\n  swap2\n  swap1\n  tag_6\n  jump\t// in\ntag_5:\n    /* \"Remote Purchase.sol\":1500:1524  (2 * value) != msg.value */\n  eq\n    /* \"Remote Purchase.sol\":1496:1560  if ((2 * value) != msg.value)\r... */\n  tag_7\n  jumpi\n    /* \"Remote Purchase.sol\":1546:1560  ValueNotEven() */\n  mload(0x40)\n  0xbe3e4c4200000000000000000000000000000000000000000000000000000000\n  dup2\n  mstore\n  0x04\n  add\n  mload(0x40)\n  dup1\n  swap2\n  sub\n  swap1\n  revert\n    /* \"Remote Purchase.sol\":1496:1560  if ((2 * value) != msg.value)\r... */\ntag_7:\n    /* \"Remote Purchase.sol\":62:3489  contract Purchase {\r... */\n  jump(tag_8)\n    /* \"#utility.yul\":7:192   */\ntag_4:\n    /* \"#utility.yul\":47:48   */\n  0x00\n    /* \"#utility.yul\":64:84   */\n  tag_11\n    /* \"#utility.yul\":82:83   */\n  dup3\n    /* \"#utility.yul\":64:84   */\n  tag_12\n  jump\t// in\ntag_11:\n    /* \"#utility.yul\":59:84   */\n  swap2\n  pop\n    /* \"#utility.yul\":98:118   */\n  tag_13\n    /* \"#utility.yul\":116:117   */\n  dup4\n    /* \"#utility.yul\":98:118   */\n  tag_12\n  jump\t// in\ntag_13:\n    /* \"#utility.yul\":93:118   */\n  swap3\n  pop\n    /* \"#utility.yul\":137:138   */\n  dup3\n    /* \"#utility.yul\":127:162   */\n  tag_14\n  jumpi\n    /* \"#utility.yul\":142:160   */\n  tag_15\n  tag_16\n  jump\t// in\ntag_15:\n    /* \"#utility.yul\":127:162   */\ntag_14:\n    /* \"#utility.yul\":184:185   */\n  dup3\n    /* \"#utility.yul\":181:182   */\n  dup3\n    /* \"#utility.yul\":177:186   */\n  div\n    /* \"#utility.yul\":172:186   */\n  swap1\n  pop\n    /* \"#utility.yul\":7:192   */\n  swap3\n  swap2\n  pop\n  pop\n  jump\t// out\n    /* \"#utility.yul\":198:546   */\ntag_6:\n    /* \"#utility.yul\":238:245   */\n  0x00\n    /* \"#utility.yul\":261:281   */\n  tag_18\n    /* \"#utility.yul\":279:280   */\n  dup3\n    /* \"#utility.yul\":261:281   */\n  tag_12\n  jump\t// in\ntag_18:\n    /* \"#utility.yul\":256:281   */\n  swap2\n  pop\n    /* \"#utility.yul\":295:315   */\n  tag_19\n    /* \"#utility.yul\":313:314   */\n  dup4\n    /* \"#utility.yul\":295:315   */\n  tag_12\n  jump\t// in\ntag_19:\n    /* \"#utility.yul\":290:315   */\n  swap3\n  pop\n    /* \"#utility.yul\":483:484   */\n  dup2\n    /* \"#utility.yul\":415:481   */\n  0xffffffffffffffffffffffffffffffffffffffffffffffffffffffffffffffff\n    /* \"#utility.yul\":411:485   */\n  div\n    /* \"#utility.yul\":408:409   */\n  dup4\n    /* \"#utility.yul\":405:486   */\n  gt\n    /* \"#utility.yul\":400:401   */\n  dup3\n    /* \"#utility.yul\":393:402   */\n  iszero\n    /* \"#utility.yul\":386:403   */\n  iszero\n    /* \"#utility.yul\":382:487   */\n  and\n    /* \"#utility.yul\":379:510   */\n  iszero\n  tag_20\n  jumpi\n    /* \"#utility.yul\":490:508   */\n  tag_21\n  tag_22\n  jump\t// in\ntag_21:\n    /* \"#utility.yul\":379:510   */\ntag_20:\n    /* \"#utility.yul\":538:539   */\n  dup3\n    /* \"#utility.yul\":535:536   */\n  dup3\n    /* \"#utility.yul\":531:540   */\n  mul\n    /* \"#utility.yul\":520:540   */\n  swap1\n  pop\n    /* \"#utility.yul\":198:546   */\n  swap3\n  swap2\n  pop\n  pop\n  jump\t// out\n    /* \"#utility.yul\":552:629   */\ntag_12:\n    /* \"#utility.yul\":589:596   */\n  0x00\n    /* \"#utility.yul\":618:623   */\n  dup2\n    /* \"#utility.yul\":607:623   */\n  swap1\n  pop\n    /* \"#utility.yul\":552:629   */\n  swap2\n  swap1\n  pop\n  jump\t// out\n    /* \"#utility.yul\":635:815   */\ntag_22:\n    /* \"#utility.yul\":683:760   */\n  0x4e487b7100000000000000000000000000000000000000000000000000000000\n    /* \"#utility.yul\":680:681   */\n  0x00\n    /* \"#utility.yul\":673:761   */\n  mstore\n    /* \"#utility.yul\":780:784   */\n  0x11\n    /* \"#utility.yul\":777:778   */\n  0x04\n    /* \"#utility.yul\":770:785   */\n  mstore\n    /* \"#utility.yul\":804:808   */\n  0x24\n    /* \"#utility.yul\":801:802   */\n  0x00\n    /* \"#utility.yul\":794:809   */\n  revert\n    /* \"#utility.yul\":821:1001   */\ntag_16:\n    /* \"#utility.yul\":869:946   */\n  0x4e487b7100000000000000000000000000000000000000000000000000000000\n    /* \"#utility.yul\":866:867   */\n  0x00\n    /* \"#utility.yul\":859:947   */\n  mstore\n    /* \"#utility.yul\":966:970   */\n  0x12\n    /* \"#utility.yul\":963:964   */\n  0x04\n    /* \"#utility.yul\":956:971   */\n  mstore\n    /* \"#utility.yul\":990:994   */\n  0x24\n    /* \"#utility.yul\":987:988   */\n  0x00\n    /* \"#utility.yul\":980:995   */\n  revert\n    /* \"Remote Purchase.sol\":62:3489  contract Purchase {\r... */\ntag_8:\n  dataSize(sub_0)\n  dup1\n  dataOffset(sub_0)\n  0x00\n  codecopy\n  0x00\n  return\nstop\n\nsub_0: assembly {\n        /* \"Remote Purchase.sol\":62:3489  contract Purchase {\r... */\n      mstore(0x40, 0x80)\n      jumpi(tag_1, lt(calldatasize, 0x04))\n      shr(0xe0, calldataload(0x00))\n      dup1\n      0x73fac6f0\n      gt\n      tag_10\n      jumpi\n      dup1\n      0x73fac6f0\n      eq\n      tag_6\n      jumpi\n      dup1\n      0xc19d93fb\n      eq\n      tag_7\n      jumpi\n      dup1\n      0xc7981b1b\n      eq\n      tag_8\n      jumpi\n      dup1\n      0xd6960697\n      eq\n      tag_9\n      jumpi\n      jump(tag_1)\n    tag_10:\n      dup1\n      0x08551a53\n      eq\n      tag_2\n      jumpi\n      dup1\n      0x35a063b4\n      eq\n      tag_3\n      jumpi\n      dup1\n      0x3fa4f245\n      eq\n      tag_4\n      jumpi\n      dup1\n      0x7150d8ae\n      eq\n      tag_5\n      jumpi\n    tag_1:\n      0x00\n      dup1\n      revert\n        /* \"Remote Purchase.sol\":111:140  address payable public seller */\n    tag_2:\n      callvalue\n      dup1\n      iszero\n      tag_11\n      jumpi\n      0x00\n      dup1\n      revert\n    tag_11:\n      pop\n      tag_12\n      tag_13\n      jump\t// in\n    tag_12:\n      mload(0x40)\n      tag_14\n      swap2\n      swap1\n      tag_15\n      jump\t// in\n    tag_14:\n      mload(0x40)\n      dup1\n      swap2\n      sub\n      swap1\n      return\n        /* \"Remote Purchase.sol\":1709:2097  function abort()\r... */\n    tag_3:\n      callvalue\n      dup1\n      iszero\n      tag_16\n      jumpi\n      0x00\n      dup1\n      revert\n    tag_16:\n      pop\n      tag_17\n      tag_18\n      jump\t// in\n    tag_17:\n      stop\n        /* \"Remote Purchase.sol\":87:104  uint public value */\n    tag_4:\n      callvalue\n      dup1\n      iszero\n      tag_19\n      jumpi\n      0x00\n      dup1\n      revert\n    tag_19:\n      pop\n      tag_20\n      tag_21\n      jump\t// in\n    tag_20:\n      mload(0x40)\n      tag_22\n      swap2\n      swap1\n      tag_23\n      jump\t// in\n    tag_22:\n      mload(0x40)\n      dup1\n      swap2\n      sub\n      swap1\n      return\n        /* \"Remote Purchase.sol\":147:175  address payable public buyer */\n    tag_5:\n      callvalue\n      dup1\n      iszero\n      tag_24\n      jumpi\n      0x00\n      dup1\n      revert\n    tag_24:\n      pop\n      tag_25\n      tag_26\n      jump\t// in\n    tag_25:\n      mload(0x40)\n      tag_27\n      swap2\n      swap1\n      tag_15\n      jump\t// in\n    tag_27:\n      mload(0x40)\n      dup1\n      swap2\n      sub\n      swap1\n      return\n        /* \"Remote Purchase.sol\":2642:3007  function confirmReceived()\r... */\n    tag_6:\n      callvalue\n      dup1\n      iszero\n      tag_28\n      jumpi\n      0x00\n      dup1\n      revert\n    tag_28:\n      pop\n      tag_29\n      tag_30\n      jump\t// in\n    tag_29:\n      stop\n        /* \"Remote Purchase.sol\":323:341  State public state */\n    tag_7:\n      callvalue\n      dup1\n      iszero\n      tag_31\n      jumpi\n      0x00\n      dup1\n      revert\n    tag_31:\n      pop\n      tag_32\n      tag_33\n      jump\t// in\n    tag_32:\n      mload(0x40)\n      tag_34\n      swap2\n      swap1\n      tag_35\n      jump\t// in\n    tag_34:\n      mload(0x40)\n      dup1\n      swap2\n      sub\n      swap1\n      return\n        /* \"Remote Purchase.sol\":3114:3486  function refundSeller()\r... */\n    tag_8:\n      callvalue\n      dup1\n      iszero\n      tag_36\n      jumpi\n      0x00\n      dup1\n      revert\n    tag_36:\n      pop\n      tag_37\n      tag_38\n      jump\t// in\n    tag_37:\n      stop\n        /* \"Remote Purchase.sol\":2276:2532  function confirmPurchase()\r... */\n    tag_9:\n      tag_39\n      tag_40\n      jump\t// in\n    tag_39:\n      stop\n        /* \"Remote Purchase.sol\":111:140  address payable public seller */\n    tag_13:\n      0x01\n      0x00\n      swap1\n      sload\n      swap1\n      0x0100\n      exp\n      swap1\n      div\n      0xffffffffffffffffffffffffffffffffffffffff\n      and\n      dup2\n      jump\t// out\n        /* \"Remote Purchase.sol\":1709:2097  function abort()\r... */\n    tag_18:\n        /* \"Remote Purchase.sol\":918:924  seller */\n      0x01\n      0x00\n      swap1\n      sload\n      swap1\n      0x0100\n      exp\n      swap1\n      div\n      0xffffffffffffffffffffffffffffffffffffffff\n      and\n        /* \"Remote Purchase.sol\":904:924  msg.sender != seller */\n      0xffffffffffffffffffffffffffffffffffffffff\n      and\n        /* \"Remote Purchase.sol\":904:914  msg.sender */\n      caller\n        /* \"Remote Purchase.sol\":904:924  msg.sender != seller */\n      0xffffffffffffffffffffffffffffffffffffffff\n      and\n      eq\n        /* \"Remote Purchase.sol\":900:958  if (msg.sender != seller)\r... */\n      tag_42\n      jumpi\n        /* \"Remote Purchase.sol\":946:958  OnlySeller() */\n      mload(0x40)\n      0x85d1f72600000000000000000000000000000000000000000000000000000000\n      dup2\n      mstore\n      0x04\n      add\n      mload(0x40)\n      dup1\n      swap2\n      sub\n      swap1\n      revert\n        /* \"Remote Purchase.sol\":900:958  if (msg.sender != seller)\r... */\n    tag_42:\n        /* \"Remote Purchase.sol\":1781:1794  State.Created */\n      0x00\n        /* \"Remote Purchase.sol\":1041:1047  state_ */\n      dup1\n        /* \"Remote Purchase.sol\":1032:1047  state != state_ */\n      0x03\n      dup2\n      gt\n      iszero\n      tag_44\n      jumpi\n      tag_45\n      tag_46\n      jump\t// in\n    tag_45:\n    tag_44:\n        /* \"Remote Purchase.sol\":1032:1037  state */\n      0x02\n      0x14\n      swap1\n      sload\n      swap1\n      0x0100\n      exp\n      swap1\n      div\n      0xff\n      and\n        /* \"Remote Purchase.sol\":1032:1047  state != state_ */\n      0x03\n      dup2\n      gt\n      iszero\n      tag_47\n      jumpi\n      tag_48\n      tag_46\n      jump\t// in\n    tag_48:\n    tag_47:\n      eq\n        /* \"Remote Purchase.sol\":1028:1083  if (state != state_)\r... */\n      tag_49\n      jumpi\n        /* \"Remote Purchase.sol\":1069:1083  InvalidState() */\n      mload(0x40)\n      0xbaf3f0f700000000000000000000000000000000000000000000000000000000\n      dup2\n      mstore\n      0x04\n      add\n      mload(0x40)\n      dup1\n      swap2\n      sub\n      swap1\n      revert\n        /* \"Remote Purchase.sol\":1028:1083  if (state != state_)\r... */\n    tag_49:\n        /* \"Remote Purchase.sol\":1817:1826  Aborted() */\n      0x72c874aeff0b183a56e2b79c71b46e1aed4dee5e09862134b8821ba2fddbf8bf\n      mload(0x40)\n      mload(0x40)\n      dup1\n      swap2\n      sub\n      swap1\n      log1\n        /* \"Remote Purchase.sol\":1845:1859  State.Inactive */\n      0x03\n        /* \"Remote Purchase.sol\":1837:1842  state */\n      0x02\n      0x14\n        /* \"Remote Purchase.sol\":1837:1859  state = State.Inactive */\n      0x0100\n      exp\n      dup2\n      sload\n      dup2\n      0xff\n      mul\n      not\n      and\n      swap1\n      dup4\n      0x03\n      dup2\n      gt\n      iszero\n      tag_51\n      jumpi\n      tag_52\n      tag_46\n      jump\t// in\n    tag_52:\n    tag_51:\n      mul\n      or\n      swap1\n      sstore\n      pop\n        /* \"Remote Purchase.sol\":2051:2057  seller */\n      0x01\n      0x00\n      swap1\n      sload\n      swap1\n      0x0100\n      exp\n      swap1\n      div\n      0xffffffffffffffffffffffffffffffffffffffff\n      and\n        /* \"Remote Purchase.sol\":2051:2066  seller.transfer */\n      0xffffffffffffffffffffffffffffffffffffffff\n      and\n        /* \"Remote Purchase.sol\":2051:2089  seller.transfer(address(this).balance) */\n      0x08fc\n        /* \"Remote Purchase.sol\":2067:2088  address(this).balance */\n      selfbalance\n        /* \"Remote Purchase.sol\":2051:2089  seller.transfer(address(this).balance) */\n      swap1\n      dup2\n      iszero\n      mul\n      swap1\n      mload(0x40)\n      0x00\n      mload(0x40)\n      dup1\n      dup4\n      sub\n      dup2\n      dup6\n      dup9\n      dup9\n      call\n      swap4\n      pop\n      pop\n      pop\n      pop\n      iszero\n      dup1\n      iszero\n      tag_54\n      jumpi\n      returndatasize\n      0x00\n      dup1\n      returndatacopy\n      revert(0x00, returndatasize)\n    tag_54:\n      pop\n        /* \"Remote Purchase.sol\":969:970  _ */\n      pop\n        /* \"Remote Purchase.sol\":1709:2097  function abort()\r... */\n      jump\t// out\n        /* \"Remote Purchase.sol\":87:104  uint public value */\n    tag_21:\n      sload(0x00)\n      dup2\n      jump\t// out\n        /* \"Remote Purchase.sol\":147:175  address payable public buyer */\n    tag_26:\n      0x02\n      0x00\n      swap1\n      sload\n      swap1\n      0x0100\n      exp\n      swap1\n      div\n      0xffffffffffffffffffffffffffffffffffffffff\n      and\n      dup2\n      jump\t// out\n        /* \"Remote Purchase.sol\":2642:3007  function confirmReceived()\r... */\n    tag_30:\n        /* \"Remote Purchase.sol\":801:806  buyer */\n      0x02\n      0x00\n      swap1\n      sload\n      swap1\n      0x0100\n      exp\n      swap1\n      div\n      0xffffffffffffffffffffffffffffffffffffffff\n      and\n        /* \"Remote Purchase.sol\":787:806  msg.sender != buyer */\n      0xffffffffffffffffffffffffffffffffffffffff\n      and\n        /* \"Remote Purchase.sol\":787:797  msg.sender */\n      caller\n        /* \"Remote Purchase.sol\":787:806  msg.sender != buyer */\n      0xffffffffffffffffffffffffffffffffffffffff\n      and\n      eq\n        /* \"Remote Purchase.sol\":783:839  if (msg.sender != buyer)\r... */\n      tag_56\n      jumpi\n        /* \"Remote Purchase.sol\":828:839  OnlyBuyer() */\n      mload(0x40)\n      0x86efbb5500000000000000000000000000000000000000000000000000000000\n      dup2\n      mstore\n      0x04\n      add\n      mload(0x40)\n      dup1\n      swap2\n      sub\n      swap1\n      revert\n        /* \"Remote Purchase.sol\":783:839  if (msg.sender != buyer)\r... */\n    tag_56:\n        /* \"Remote Purchase.sol\":2723:2735  State.Locked */\n      0x01\n        /* \"Remote Purchase.sol\":1041:1047  state_ */\n      dup1\n        /* \"Remote Purchase.sol\":1032:1047  state != state_ */\n      0x03\n      dup2\n      gt\n      iszero\n      tag_58\n      jumpi\n      tag_59\n      tag_46\n      jump\t// in\n    tag_59:\n    tag_58:\n        /* \"Remote Purchase.sol\":1032:1037  state */\n      0x02\n      0x14\n      swap1\n      sload\n      swap1\n      0x0100\n      exp\n      swap1\n      div\n      0xff\n      and\n        /* \"Remote Purchase.sol\":1032:1047  state != state_ */\n      0x03\n      dup2\n      gt\n      iszero\n      tag_60\n      jumpi\n      tag_61\n      tag_46\n      jump\t// in\n    tag_61:\n    tag_60:\n      eq\n        /* \"Remote Purchase.sol\":1028:1083  if (state != state_)\r... */\n      tag_62\n      jumpi\n        /* \"Remote Purchase.sol\":1069:1083  InvalidState() */\n      mload(0x40)\n      0xbaf3f0f700000000000000000000000000000000000000000000000000000000\n      dup2\n      mstore\n      0x04\n      add\n      mload(0x40)\n      dup1\n      swap2\n      sub\n      swap1\n      revert\n        /* \"Remote Purchase.sol\":1028:1083  if (state != state_)\r... */\n    tag_62:\n        /* \"Remote Purchase.sol\":2758:2772  ItemReceived() */\n      0xe89152acd703c9d8c7d28829d443260b411454d45394e7995815140c8cbcbcf7\n      mload(0x40)\n      mload(0x40)\n      dup1\n      swap2\n      sub\n      swap1\n      log1\n        /* \"Remote Purchase.sol\":2952:2965  State.Release */\n      0x02\n        /* \"Remote Purchase.sol\":2944:2949  state */\n      dup1\n      0x14\n        /* \"Remote Purchase.sol\":2944:2965  state = State.Release */\n      0x0100\n      exp\n      dup2\n      sload\n      dup2\n      0xff\n      mul\n      not\n      and\n      swap1\n      dup4\n      0x03\n      dup2\n      gt\n      iszero\n      tag_64\n      jumpi\n      tag_65\n      tag_46\n      jump\t// in\n    tag_65:\n    tag_64:\n      mul\n      or\n      swap1\n      sstore\n      pop\n        /* \"Remote Purchase.sol\":2978:2983  buyer */\n      0x02\n      0x00\n      swap1\n      sload\n      swap1\n      0x0100\n      exp\n      swap1\n      div\n      0xffffffffffffffffffffffffffffffffffffffff\n      and\n        /* \"Remote Purchase.sol\":2978:2992  buyer.transfer */\n      0xffffffffffffffffffffffffffffffffffffffff\n      and\n        /* \"Remote Purchase.sol\":2978:2999  buyer.transfer(value) */\n      0x08fc\n        /* \"Remote Purchase.sol\":2993:2998  value */\n      sload(0x00)\n        /* \"Remote Purchase.sol\":2978:2999  buyer.transfer(value) */\n      swap1\n      dup2\n      iszero\n      mul\n      swap1\n      mload(0x40)\n      0x00\n      mload(0x40)\n      dup1\n      dup4\n      sub\n      dup2\n      dup6\n      dup9\n      dup9\n      call\n      swap4\n      pop\n      pop\n      pop\n      pop\n      iszero\n      dup1\n      iszero\n      tag_67\n      jumpi\n      returndatasize\n      0x00\n      dup1\n      returndatacopy\n      revert(0x00, returndatasize)\n    tag_67:\n      pop\n        /* \"Remote Purchase.sol\":850:851  _ */\n      pop\n        /* \"Remote Purchase.sol\":2642:3007  function confirmReceived()\r... */\n      jump\t// out\n        /* \"Remote Purchase.sol\":323:341  State public state */\n    tag_33:\n      0x02\n      0x14\n      swap1\n      sload\n      swap1\n      0x0100\n      exp\n      swap1\n      div\n      0xff\n      and\n      dup2\n      jump\t// out\n        /* \"Remote Purchase.sol\":3114:3486  function refundSeller()\r... */\n    tag_38:\n        /* \"Remote Purchase.sol\":918:924  seller */\n      0x01\n      0x00\n      swap1\n      sload\n      swap1\n      0x0100\n      exp\n      swap1\n      div\n      0xffffffffffffffffffffffffffffffffffffffff\n      and\n        /* \"Remote Purchase.sol\":904:924  msg.sender != seller */\n      0xffffffffffffffffffffffffffffffffffffffff\n      and\n        /* \"Remote Purchase.sol\":904:914  msg.sender */\n      caller\n        /* \"Remote Purchase.sol\":904:924  msg.sender != seller */\n      0xffffffffffffffffffffffffffffffffffffffff\n      and\n      eq\n        /* \"Remote Purchase.sol\":900:958  if (msg.sender != seller)\r... */\n      tag_69\n      jumpi\n        /* \"Remote Purchase.sol\":946:958  OnlySeller() */\n      mload(0x40)\n      0x85d1f72600000000000000000000000000000000000000000000000000000000\n      dup2\n      mstore\n      0x04\n      add\n      mload(0x40)\n      dup1\n      swap2\n      sub\n      swap1\n      revert\n        /* \"Remote Purchase.sol\":900:958  if (msg.sender != seller)\r... */\n    tag_69:\n        /* \"Remote Purchase.sol\":3193:3206  State.Release */\n      0x02\n        /* \"Remote Purchase.sol\":1041:1047  state_ */\n      dup1\n        /* \"Remote Purchase.sol\":1032:1047  state != state_ */\n      0x03\n      dup2\n      gt\n      iszero\n      tag_71\n      jumpi\n      tag_72\n      tag_46\n      jump\t// in\n    tag_72:\n    tag_71:\n        /* \"Remote Purchase.sol\":1032:1037  state */\n      0x02\n      0x14\n      swap1\n      sload\n      swap1\n      0x0100\n      exp\n      swap1\n      div\n      0xff\n      and\n        /* \"Remote Purchase.sol\":1032:1047  state != state_ */\n      0x03\n      dup2\n      gt\n      iszero\n      tag_73\n      jumpi\n      tag_74\n      tag_46\n      jump\t// in\n    tag_74:\n    tag_73:\n      eq\n        /* \"Remote Purchase.sol\":1028:1083  if (state != state_)\r... */\n      tag_75\n      jumpi\n        /* \"Remote Purchase.sol\":1069:1083  InvalidState() */\n      mload(0x40)\n      0xbaf3f0f700000000000000000000000000000000000000000000000000000000\n      dup2\n      mstore\n      0x04\n      add\n      mload(0x40)\n      dup1\n      swap2\n      sub\n      swap1\n      revert\n        /* \"Remote Purchase.sol\":1028:1083  if (state != state_)\r... */\n    tag_75:\n        /* \"Remote Purchase.sol\":3229:3245  SellerRefunded() */\n      0xfda69c32bcfdba840a167777906b173b607eb8b4d8853b97a80d26e613d858db\n      mload(0x40)\n      mload(0x40)\n      dup1\n      swap2\n      sub\n      swap1\n      log1\n        /* \"Remote Purchase.sol\":3425:3439  State.Inactive */\n      0x03\n        /* \"Remote Purchase.sol\":3417:3422  state */\n      0x02\n      0x14\n        /* \"Remote Purchase.sol\":3417:3439  state = State.Inactive */\n      0x0100\n      exp\n      dup2\n      sload\n      dup2\n      0xff\n      mul\n      not\n      and\n      swap1\n      dup4\n      0x03\n      dup2\n      gt\n      iszero\n      tag_77\n      jumpi\n      tag_78\n      tag_46\n      jump\t// in\n    tag_78:\n    tag_77:\n      mul\n      or\n      swap1\n      sstore\n      pop\n        /* \"Remote Purchase.sol\":3452:3458  seller */\n      0x01\n      0x00\n      swap1\n      sload\n      swap1\n      0x0100\n      exp\n      swap1\n      div\n      0xffffffffffffffffffffffffffffffffffffffff\n      and\n        /* \"Remote Purchase.sol\":3452:3467  seller.transfer */\n      0xffffffffffffffffffffffffffffffffffffffff\n      and\n        /* \"Remote Purchase.sol\":3452:3478  seller.transfer(3 * value) */\n      0x08fc\n        /* \"Remote Purchase.sol\":3472:3477  value */\n      sload(0x00)\n        /* \"Remote Purchase.sol\":3468:3469  3 */\n      0x03\n        /* \"Remote Purchase.sol\":3468:3477  3 * value */\n      tag_79\n      swap2\n      swap1\n      tag_80\n      jump\t// in\n    tag_79:\n        /* \"Remote Purchase.sol\":3452:3478  seller.transfer(3 * value) */\n      swap1\n      dup2\n      iszero\n      mul\n      swap1\n      mload(0x40)\n      0x00\n      mload(0x40)\n      dup1\n      dup4\n      sub\n      dup2\n      dup6\n      dup9\n      dup9\n      call\n      swap4\n      pop\n      pop\n      pop\n      pop\n      iszero\n      dup1\n      iszero\n      tag_82\n      jumpi\n      returndatasize\n      0x00\n      dup1\n      returndatacopy\n      revert(0x00, returndatasize)\n    tag_82:\n      pop\n        /* \"Remote Purchase.sol\":969:970  _ */\n      pop\n        /* \"Remote Purchase.sol\":3114:3486  function refundSeller()\r... */\n      jump\t// out\n        /* \"Remote Purchase.sol\":2276:2532  function confirmPurchase()\r... */\n    tag_40:\n        /* \"Remote Purchase.sol\":2338:2351  State.Created */\n      0x00\n        /* \"Remote Purchase.sol\":1041:1047  state_ */\n      dup1\n        /* \"Remote Purchase.sol\":1032:1047  state != state_ */\n      0x03\n      dup2\n      gt\n      iszero\n      tag_84\n      jumpi\n      tag_85\n      tag_46\n      jump\t// in\n    tag_85:\n    tag_84:\n        /* \"Remote Purchase.sol\":1032:1037  state */\n      0x02\n      0x14\n      swap1\n      sload\n      swap1\n      0x0100\n      exp\n      swap1\n      div\n      0xff\n      and\n        /* \"Remote Purchase.sol\":1032:1047  state != state_ */\n      0x03\n      dup2\n      gt\n      iszero\n      tag_86\n      jumpi\n      tag_87\n      tag_46\n      jump\t// in\n    tag_87:\n    tag_86:\n      eq\n        /* \"Remote Purchase.sol\":1028:1083  if (state != state_)\r... */\n      tag_88\n      jumpi\n        /* \"Remote Purchase.sol\":1069:1083  InvalidState() */\n      mload(0x40)\n      0xbaf3f0f700000000000000000000000000000000000000000000000000000000\n      dup2\n      mstore\n      0x04\n      add\n      mload(0x40)\n      dup1\n      swap2\n      sub\n      swap1\n      revert\n        /* \"Remote Purchase.sol\":1028:1083  if (state != state_)\r... */\n    tag_88:\n        /* \"Remote Purchase.sol\":2390:2395  value */\n      sload(0x00)\n        /* \"Remote Purchase.sol\":2386:2387  2 */\n      0x02\n        /* \"Remote Purchase.sol\":2386:2395  2 * value */\n      tag_89\n      swap2\n      swap1\n      tag_80\n      jump\t// in\n    tag_89:\n        /* \"Remote Purchase.sol\":2372:2381  msg.value */\n      callvalue\n        /* \"Remote Purchase.sol\":2372:2396  msg.value == (2 * value) */\n      eq\n        /* \"Remote Purchase.sol\":405:415  condition_ */\n      dup1\n        /* \"Remote Purchase.sol\":397:416  require(condition_) */\n      tag_91\n      jumpi\n      0x00\n      dup1\n      revert\n    tag_91:\n        /* \"Remote Purchase.sol\":2436:2455  PurchaseConfirmed() */\n      0xd5d55c8a68912e9a110618df8d5e2e83b8d83211c57a8ddd1203df92885dc881\n      mload(0x40)\n      mload(0x40)\n      dup1\n      swap2\n      sub\n      swap1\n      log1\n        /* \"Remote Purchase.sol\":2482:2492  msg.sender */\n      caller\n        /* \"Remote Purchase.sol\":2466:2471  buyer */\n      0x02\n      0x00\n        /* \"Remote Purchase.sol\":2466:2493  buyer = payable(msg.sender) */\n      0x0100\n      exp\n      dup2\n      sload\n      dup2\n      0xffffffffffffffffffffffffffffffffffffffff\n      mul\n      not\n      and\n      swap1\n      dup4\n      0xffffffffffffffffffffffffffffffffffffffff\n      and\n      mul\n      or\n      swap1\n      sstore\n      pop\n        /* \"Remote Purchase.sol\":2512:2524  State.Locked */\n      0x01\n        /* \"Remote Purchase.sol\":2504:2509  state */\n      0x02\n      0x14\n        /* \"Remote Purchase.sol\":2504:2524  state = State.Locked */\n      0x0100\n      exp\n      dup2\n      sload\n      dup2\n      0xff\n      mul\n      not\n      and\n      swap1\n      dup4\n      0x03\n      dup2\n      gt\n      iszero\n      tag_93\n      jumpi\n      tag_94\n      tag_46\n      jump\t// in\n    tag_94:\n    tag_93:\n      mul\n      or\n      swap1\n      sstore\n      pop\n        /* \"Remote Purchase.sol\":1094:1095  _ */\n      pop\n        /* \"Remote Purchase.sol\":2276:2532  function confirmPurchase()\r... */\n      pop\n      jump\t// out\n        /* \"#utility.yul\":7:149   */\n    tag_96:\n        /* \"#utility.yul\":110:142   */\n      tag_98\n        /* \"#utility.yul\":136:141   */\n      dup2\n        /* \"#utility.yul\":110:142   */\n      tag_99\n      jump\t// in\n    tag_98:\n        /* \"#utility.yul\":105:108   */\n      dup3\n        /* \"#utility.yul\":98:143   */\n      mstore\n        /* \"#utility.yul\":7:149   */\n      pop\n      pop\n      jump\t// out\n        /* \"#utility.yul\":155:298   */\n    tag_100:\n        /* \"#utility.yul\":248:291   */\n      tag_102\n        /* \"#utility.yul\":285:290   */\n      dup2\n        /* \"#utility.yul\":248:291   */\n      tag_103\n      jump\t// in\n    tag_102:\n        /* \"#utility.yul\":243:246   */\n      dup3\n        /* \"#utility.yul\":236:292   */\n      mstore\n        /* \"#utility.yul\":155:298   */\n      pop\n      pop\n      jump\t// out\n        /* \"#utility.yul\":304:422   */\n    tag_104:\n        /* \"#utility.yul\":391:415   */\n      tag_106\n        /* \"#utility.yul\":409:414   */\n      dup2\n        /* \"#utility.yul\":391:415   */\n      tag_107\n      jump\t// in\n    tag_106:\n        /* \"#utility.yul\":386:389   */\n      dup3\n        /* \"#utility.yul\":379:416   */\n      mstore\n        /* \"#utility.yul\":304:422   */\n      pop\n      pop\n      jump\t// out\n        /* \"#utility.yul\":428:682   */\n    tag_15:\n        /* \"#utility.yul\":537:541   */\n      0x00\n        /* \"#utility.yul\":575:577   */\n      0x20\n        /* \"#utility.yul\":564:573   */\n      dup3\n        /* \"#utility.yul\":560:578   */\n      add\n        /* \"#utility.yul\":552:578   */\n      swap1\n      pop\n        /* \"#utility.yul\":588:675   */\n      tag_109\n        /* \"#utility.yul\":672:673   */\n      0x00\n        /* \"#utility.yul\":661:670   */\n      dup4\n        /* \"#utility.yul\":657:674   */\n      add\n        /* \"#utility.yul\":648:654   */\n      dup5\n        /* \"#utility.yul\":588:675   */\n      tag_96\n      jump\t// in\n    tag_109:\n        /* \"#utility.yul\":428:682   */\n      swap3\n      swap2\n      pop\n      pop\n      jump\t// out\n        /* \"#utility.yul\":688:922   */\n    tag_35:\n        /* \"#utility.yul\":787:791   */\n      0x00\n        /* \"#utility.yul\":825:827   */\n      0x20\n        /* \"#utility.yul\":814:823   */\n      dup3\n        /* \"#utility.yul\":810:828   */\n      add\n        /* \"#utility.yul\":802:828   */\n      swap1\n      pop\n        /* \"#utility.yul\":838:915   */\n      tag_111\n        /* \"#utility.yul\":912:913   */\n      0x00\n        /* \"#utility.yul\":901:910   */\n      dup4\n        /* \"#utility.yul\":897:914   */\n      add\n        /* \"#utility.yul\":888:894   */\n      dup5\n        /* \"#utility.yul\":838:915   */\n      tag_100\n      jump\t// in\n    tag_111:\n        /* \"#utility.yul\":688:922   */\n      swap3\n      swap2\n      pop\n      pop\n      jump\t// out\n        /* \"#utility.yul\":928:1150   */\n    tag_23:\n        /* \"#utility.yul\":1021:1025   */\n      0x00\n        /* \"#utility.yul\":1059:1061   */\n      0x20\n        /* \"#utility.yul\":1048:1057   */\n      dup3\n        /* \"#utility.yul\":1044:1062   */\n      add\n        /* \"#utility.yul\":1036:1062   */\n      swap1\n      pop\n        /* \"#utility.yul\":1072:1143   */\n      tag_113\n        /* \"#utility.yul\":1140:1141   */\n      0x00\n        /* \"#utility.yul\":1129:1138   */\n      dup4\n        /* \"#utility.yul\":1125:1142   */\n      add\n        /* \"#utility.yul\":1116:1122   */\n      dup5\n        /* \"#utility.yul\":1072:1143   */\n      tag_104\n      jump\t// in\n    tag_113:\n        /* \"#utility.yul\":928:1150   */\n      swap3\n      swap2\n      pop\n      pop\n      jump\t// out\n        /* \"#utility.yul\":1156:1504   */\n    tag_80:\n        /* \"#utility.yul\":1196:1203   */\n      0x00\n        /* \"#utility.yul\":1219:1239   */\n      tag_115\n        /* \"#utility.yul\":1237:1238   */\n      dup3\n        /* \"#utility.yul\":1219:1239   */\n      tag_107\n      jump\t// in\n    tag_115:\n        /* \"#utility.yul\":1214:1239   */\n      swap2\n      pop\n        /* \"#utility.yul\":1253:1273   */\n      tag_116\n        /* \"#utility.yul\":1271:1272   */\n      dup4\n        /* \"#utility.yul\":1253:1273   */\n      tag_107\n      jump\t// in\n    tag_116:\n        /* \"#utility.yul\":1248:1273   */\n      swap3\n      pop\n        /* \"#utility.yul\":1441:1442   */\n      dup2\n        /* \"#utility.yul\":1373:1439   */\n      0xffffffffffffffffffffffffffffffffffffffffffffffffffffffffffffffff\n        /* \"#utility.yul\":1369:1443   */\n      div\n        /* \"#utility.yul\":1366:1367   */\n      dup4\n        /* \"#utility.yul\":1363:1444   */\n      gt\n        /* \"#utility.yul\":1358:1359   */\n      dup3\n        /* \"#utility.yul\":1351:1360   */\n      iszero\n        /* \"#utility.yul\":1344:1361   */\n      iszero\n        /* \"#utility.yul\":1340:1445   */\n      and\n        /* \"#utility.yul\":1337:1468   */\n      iszero\n      tag_117\n      jumpi\n        /* \"#utility.yul\":1448:1466   */\n      tag_118\n      tag_119\n      jump\t// in\n    tag_118:\n        /* \"#utility.yul\":1337:1468   */\n    tag_117:\n        /* \"#utility.yul\":1496:1497   */\n      dup3\n        /* \"#utility.yul\":1493:1494   */\n      dup3\n        /* \"#utility.yul\":1489:1498   */\n      mul\n        /* \"#utility.yul\":1478:1498   */\n      swap1\n      pop\n        /* \"#utility.yul\":1156:1504   */\n      swap3\n      swap2\n      pop\n      pop\n      jump\t// out\n        /* \"#utility.yul\":1510:1614   */\n    tag_99:\n        /* \"#utility.yul\":1555:1562   */\n      0x00\n        /* \"#utility.yul\":1584:1608   */\n      tag_121\n        /* \"#utility.yul\":1602:1607   */\n      dup3\n        /* \"#utility.yul\":1584:1608   */\n      tag_122\n      jump\t// in\n    tag_121:\n        /* \"#utility.yul\":1573:1608   */\n      swap1\n      pop\n        /* \"#utility.yul\":1510:1614   */\n      swap2\n      swap1\n      pop\n      jump\t// out\n        /* \"#utility.yul\":1620:1747   */\n    tag_123:\n        /* \"#utility.yul\":1665:1672   */\n      0x00\n        /* \"#utility.yul\":1694:1699   */\n      dup2\n        /* \"#utility.yul\":1683:1699   */\n      swap1\n      pop\n        /* \"#utility.yul\":1700:1741   */\n      tag_125\n        /* \"#utility.yul\":1735:1740   */\n      dup3\n        /* \"#utility.yul\":1700:1741   */\n      tag_126\n      jump\t// in\n    tag_125:\n        /* \"#utility.yul\":1620:1747   */\n      swap2\n      swap1\n      pop\n      jump\t// out\n        /* \"#utility.yul\":1753:1879   */\n    tag_122:\n        /* \"#utility.yul\":1790:1797   */\n      0x00\n        /* \"#utility.yul\":1830:1872   */\n      0xffffffffffffffffffffffffffffffffffffffff\n        /* \"#utility.yul\":1823:1828   */\n      dup3\n        /* \"#utility.yul\":1819:1873   */\n      and\n        /* \"#utility.yul\":1808:1873   */\n      swap1\n      pop\n        /* \"#utility.yul\":1753:1879   */\n      swap2\n      swap1\n      pop\n      jump\t// out\n        /* \"#utility.yul\":1885:1962   */\n    tag_107:\n        /* \"#utility.yul\":1922:1929   */\n      0x00\n        /* \"#utility.yul\":1951:1956   */\n      dup2\n        /* \"#utility.yul\":1940:1956   */\n      swap1\n      pop\n        /* \"#utility.yul\":1885:1962   */\n      swap2\n      swap1\n      pop\n      jump\t// out\n        /* \"#utility.yul\":1968:2095   */\n    tag_103:\n        /* \"#utility.yul\":2024:2033   */\n      0x00\n        /* \"#utility.yul\":2057:2089   */\n      tag_130\n        /* \"#utility.yul\":2083:2088   */\n      dup3\n        /* \"#utility.yul\":2057:2089   */\n      tag_123\n      jump\t// in\n    tag_130:\n        /* \"#utility.yul\":2044:2089   */\n      swap1\n      pop\n        /* \"#utility.yul\":1968:2095   */\n      swap2\n      swap1\n      pop\n      jump\t// out\n        /* \"#utility.yul\":2101:2281   */\n    tag_119:\n        /* \"#utility.yul\":2149:2226   */\n      0x4e487b7100000000000000000000000000000000000000000000000000000000\n        /* \"#utility.yul\":2146:2147   */\n      0x00\n        /* \"#utility.yul\":2139:2227   */\n      mstore\n        /* \"#utility.yul\":2246:2250   */\n      0x11\n        /* \"#utility.yul\":2243:2244   */\n      0x04\n        /* \"#utility.yul\":2236:2251   */\n      mstore\n        /* \"#utility.yul\":2270:2274   */\n      0x24\n        /* \"#utility.yul\":2267:2268   */\n      0x00\n        /* \"#utility.yul\":2260:2275   */\n      revert\n        /* \"#utility.yul\":2287:2467   */\n    tag_46:\n        /* \"#utility.yul\":2335:2412   */\n      0x4e487b7100000000000000000000000000000000000000000000000000000000\n        /* \"#utility.yul\":2332:2333   */\n      0x00\n        /* \"#utility.yul\":2325:2413   */\n      mstore\n        /* \"#utility.yul\":2432:2436   */\n      0x21\n        /* \"#utility.yul\":2429:2430   */\n      0x04\n        /* \"#utility.yul\":2422:2437   */\n      mstore\n        /* \"#utility.yul\":2456:2460   */\n      0x24\n        /* \"#utility.yul\":2453:2454   */\n      0x00\n        /* \"#utility.yul\":2446:2461   */\n      revert\n        /* \"#utility.yul\":2473:2586   */\n    tag_126:\n        /* \"#utility.yul\":2554:2555   */\n      0x04\n        /* \"#utility.yul\":2547:2552   */\n      dup2\n        /* \"#utility.yul\":2544:2556   */\n      lt\n        /* \"#utility.yul\":2534:2580   */\n      tag_134\n      jumpi\n        /* \"#utility.yul\":2560:2578   */\n      tag_135\n      tag_46\n      jump\t// in\n    tag_135:\n        /* \"#utility.yul\":2534:2580   */\n    tag_134:\n        /* \"#utility.yul\":2473:2586   */\n      pop\n      jump\t// out\n\n    auxdata: 0xa2646970667358221220d6275dbca48bf29f6ef5ac0c914330777dd95b486b0eeb51fca6ee3fecd131a764736f6c63430008070033\n}\n",
				"bytecode": {
					"linkReferences": {},
					"object": "608060405233600160006101000a81548173ffffffffffffffffffffffffffffffffffffffff021916908373ffffffffffffffffffffffffffffffffffffffff16021790555060023461005291906100a4565b60008190555034600054600261006891906100d5565b1461009f576040517fbe3e4c4200000000000000000000000000000000000000000000000000000000815260040160405180910390fd5b610197565b60006100af8261012f565b91506100ba8361012f565b9250826100ca576100c9610168565b5b828204905092915050565b60006100e08261012f565b91506100eb8361012f565b9250817fffffffffffffffffffffffffffffffffffffffffffffffffffffffffffffffff048311821515161561012457610123610139565b5b828202905092915050565b6000819050919050565b7f4e487b7100000000000000000000000000000000000000000000000000000000600052601160045260246000fd5b7f4e487b7100000000000000000000000000000000000000000000000000000000600052601260045260246000fd5b610a1d806101a66000396000f3fe60806040526004361061007b5760003560e01c806373fac6f01161004e57806373fac6f014610118578063c19d93fb1461012f578063c7981b1b1461015a578063d6960697146101715761007b565b806308551a531461008057806335a063b4146100ab5780633fa4f245146100c25780637150d8ae146100ed575b600080fd5b34801561008c57600080fd5b5061009561017b565b6040516100a29190610869565b60405180910390f35b3480156100b757600080fd5b506100c06101a1565b005b3480156100ce57600080fd5b506100d7610359565b6040516100e4919061089f565b60405180910390f35b3480156100f957600080fd5b5061010261035f565b60405161010f9190610869565b60405180910390f35b34801561012457600080fd5b5061012d610385565b005b34801561013b57600080fd5b5061014461053e565b6040516101519190610884565b60405180910390f35b34801561016657600080fd5b5061016f610551565b005b610179610717565b005b600160009054906101000a900473ffffffffffffffffffffffffffffffffffffffff1681565b600160009054906101000a900473ffffffffffffffffffffffffffffffffffffffff1673ffffffffffffffffffffffffffffffffffffffff163373ffffffffffffffffffffffffffffffffffffffff1614610228576040517f85d1f72600000000000000000000000000000000000000000000000000000000815260040160405180910390fd5b600080600381111561023d5761023c6109a4565b5b600260149054906101000a900460ff16600381111561025f5761025e6109a4565b5b14610296576040517fbaf3f0f700000000000000000000000000000000000000000000000000000000815260040160405180910390fd5b7f72c874aeff0b183a56e2b79c71b46e1aed4dee5e09862134b8821ba2fddbf8bf60405160405180910390a16003600260146101000a81548160ff021916908360038111156102e8576102e76109a4565b5b0217905550600160009054906101000a900473ffffffffffffffffffffffffffffffffffffffff1673ffffffffffffffffffffffffffffffffffffffff166108fc479081150290604051600060405180830381858888f19350505050158015610355573d6000803e3d6000fd5b5050565b60005481565b600260009054906101000a900473ffffffffffffffffffffffffffffffffffffffff1681565b600260009054906101000a900473ffffffffffffffffffffffffffffffffffffffff1673ffffffffffffffffffffffffffffffffffffffff163373ffffffffffffffffffffffffffffffffffffffff161461040c576040517f86efbb5500000000000000000000000000000000000000000000000000000000815260040160405180910390fd5b6001806003811115610421576104206109a4565b5b600260149054906101000a900460ff166003811115610443576104426109a4565b5b1461047a576040517fbaf3f0f700000000000000000000000000000000000000000000000000000000815260040160405180910390fd5b7fe89152acd703c9d8c7d28829d443260b411454d45394e7995815140c8cbcbcf760405160405180910390a160028060146101000a81548160ff021916908360038111156104cb576104ca6109a4565b5b0217905550600260009054906101000a900473ffffffffffffffffffffffffffffffffffffffff1673ffffffffffffffffffffffffffffffffffffffff166108fc6000549081150290604051600060405180830381858888f1935050505015801561053a573d6000803e3d6000fd5b5050565b600260149054906101000a900460ff1681565b600160009054906101000a900473ffffffffffffffffffffffffffffffffffffffff1673ffffffffffffffffffffffffffffffffffffffff163373ffffffffffffffffffffffffffffffffffffffff16146105d8576040517f85d1f72600000000000000000000000000000000000000000000000000000000815260040160405180910390fd5b60028060038111156105ed576105ec6109a4565b5b600260149054906101000a900460ff16600381111561060f5761060e6109a4565b5b14610646576040517fbaf3f0f700000000000000000000000000000000000000000000000000000000815260040160405180910390fd5b7ffda69c32bcfdba840a167777906b173b607eb8b4d8853b97a80d26e613d858db60405160405180910390a16003600260146101000a81548160ff02191690836003811115610698576106976109a4565b5b0217905550600160009054906101000a900473ffffffffffffffffffffffffffffffffffffffff1673ffffffffffffffffffffffffffffffffffffffff166108fc60005460036106e891906108ba565b9081150290604051600060405180830381858888f19350505050158015610713573d6000803e3d6000fd5b5050565b600080600381111561072c5761072b6109a4565b5b600260149054906101000a900460ff16600381111561074e5761074d6109a4565b5b14610785576040517fbaf3f0f700000000000000000000000000000000000000000000000000000000815260040160405180910390fd5b600054600261079491906108ba565b3414806107a057600080fd5b7fd5d55c8a68912e9a110618df8d5e2e83b8d83211c57a8ddd1203df92885dc88160405160405180910390a133600260006101000a81548173ffffffffffffffffffffffffffffffffffffffff021916908373ffffffffffffffffffffffffffffffffffffffff1602179055506001600260146101000a81548160ff02191690836003811115610833576108326109a4565b5b02179055505050565b61084581610914565b82525050565b61085481610963565b82525050565b61086381610959565b82525050565b600060208201905061087e600083018461083c565b92915050565b6000602082019050610899600083018461084b565b92915050565b60006020820190506108b4600083018461085a565b92915050565b60006108c582610959565b91506108d083610959565b9250817fffffffffffffffffffffffffffffffffffffffffffffffffffffffffffffffff048311821515161561090957610908610975565b5b828202905092915050565b600061091f82610939565b9050919050565b6000819050610934826109d3565b919050565b600073ffffffffffffffffffffffffffffffffffffffff82169050919050565b6000819050919050565b600061096e82610926565b9050919050565b7f4e487b7100000000000000000000000000000000000000000000000000000000600052601160045260246000fd5b7f4e487b7100000000000000000000000000000000000000000000000000000000600052602160045260246000fd5b600481106109e4576109e36109a4565b5b5056fea2646970667358221220d6275dbca48bf29f6ef5ac0c914330777dd95b486b0eeb51fca6ee3fecd131a764736f6c63430008070033",
					"opcodes": "PUSH1 0x80 PUSH1 0x40 MSTORE CALLER PUSH1 0x1 PUSH1 0x0 PUSH2 0x100 EXP DUP2 SLOAD DUP2 PUSH20 0xFFFFFFFFFFFFFFFFFFFFFFFFFFFFFFFFFFFFFFFF MUL NOT AND SWAP1 DUP4 PUSH20 0xFFFFFFFFFFFFFFFFFFFFFFFFFFFFFFFFFFFFFFFF AND MUL OR SWAP1 SSTORE POP PUSH1 0x2 CALLVALUE PUSH2 0x52 SWAP2 SWAP1 PUSH2 0xA4 JUMP JUMPDEST PUSH1 0x0 DUP2 SWAP1 SSTORE POP CALLVALUE PUSH1 0x0 SLOAD PUSH1 0x2 PUSH2 0x68 SWAP2 SWAP1 PUSH2 0xD5 JUMP JUMPDEST EQ PUSH2 0x9F JUMPI PUSH1 0x40 MLOAD PUSH32 0xBE3E4C4200000000000000000000000000000000000000000000000000000000 DUP2 MSTORE PUSH1 0x4 ADD PUSH1 0x40 MLOAD DUP1 SWAP2 SUB SWAP1 REVERT JUMPDEST PUSH2 0x197 JUMP JUMPDEST PUSH1 0x0 PUSH2 0xAF DUP3 PUSH2 0x12F JUMP JUMPDEST SWAP2 POP PUSH2 0xBA DUP4 PUSH2 0x12F JUMP JUMPDEST SWAP3 POP DUP3 PUSH2 0xCA JUMPI PUSH2 0xC9 PUSH2 0x168 JUMP JUMPDEST JUMPDEST DUP3 DUP3 DIV SWAP1 POP SWAP3 SWAP2 POP POP JUMP JUMPDEST PUSH1 0x0 PUSH2 0xE0 DUP3 PUSH2 0x12F JUMP JUMPDEST SWAP2 POP PUSH2 0xEB DUP4 PUSH2 0x12F JUMP JUMPDEST SWAP3 POP DUP2 PUSH32 0xFFFFFFFFFFFFFFFFFFFFFFFFFFFFFFFFFFFFFFFFFFFFFFFFFFFFFFFFFFFFFFFF DIV DUP4 GT DUP3 ISZERO ISZERO AND ISZERO PUSH2 0x124 JUMPI PUSH2 0x123 PUSH2 0x139 JUMP JUMPDEST JUMPDEST DUP3 DUP3 MUL SWAP1 POP SWAP3 SWAP2 POP POP JUMP JUMPDEST PUSH1 0x0 DUP2 SWAP1 POP SWAP2 SWAP1 POP JUMP JUMPDEST PUSH32 0x4E487B7100000000000000000000000000000000000000000000000000000000 PUSH1 0x0 MSTORE PUSH1 0x11 PUSH1 0x4 MSTORE PUSH1 0x24 PUSH1 0x0 REVERT JUMPDEST PUSH32 0x4E487B7100000000000000000000000000000000000000000000000000000000 PUSH1 0x0 MSTORE PUSH1 0x12 PUSH1 0x4 MSTORE PUSH1 0x24 PUSH1 0x0 REVERT JUMPDEST PUSH2 0xA1D DUP1 PUSH2 0x1A6 PUSH1 0x0 CODECOPY PUSH1 0x0 RETURN INVALID PUSH1 0x80 PUSH1 0x40 MSTORE PUSH1 0x4 CALLDATASIZE LT PUSH2 0x7B JUMPI PUSH1 0x0 CALLDATALOAD PUSH1 0xE0 SHR DUP1 PUSH4 0x73FAC6F0 GT PUSH2 0x4E JUMPI DUP1 PUSH4 0x73FAC6F0 EQ PUSH2 0x118 JUMPI DUP1 PUSH4 0xC19D93FB EQ PUSH2 0x12F JUMPI DUP1 PUSH4 0xC7981B1B EQ PUSH2 0x15A JUMPI DUP1 PUSH4 0xD6960697 EQ PUSH2 0x171 JUMPI PUSH2 0x7B JUMP JUMPDEST DUP1 PUSH4 0x8551A53 EQ PUSH2 0x80 JUMPI DUP1 PUSH4 0x35A063B4 EQ PUSH2 0xAB JUMPI DUP1 PUSH4 0x3FA4F245 EQ PUSH2 0xC2 JUMPI DUP1 PUSH4 0x7150D8AE EQ PUSH2 0xED JUMPI JUMPDEST PUSH1 0x0 DUP1 REVERT JUMPDEST CALLVALUE DUP1 ISZERO PUSH2 0x8C JUMPI PUSH1 0x0 DUP1 REVERT JUMPDEST POP PUSH2 0x95 PUSH2 0x17B JUMP JUMPDEST PUSH1 0x40 MLOAD PUSH2 0xA2 SWAP2 SWAP1 PUSH2 0x869 JUMP JUMPDEST PUSH1 0x40 MLOAD DUP1 SWAP2 SUB SWAP1 RETURN JUMPDEST CALLVALUE DUP1 ISZERO PUSH2 0xB7 JUMPI PUSH1 0x0 DUP1 REVERT JUMPDEST POP PUSH2 0xC0 PUSH2 0x1A1 JUMP JUMPDEST STOP JUMPDEST CALLVALUE DUP1 ISZERO PUSH2 0xCE JUMPI PUSH1 0x0 DUP1 REVERT JUMPDEST POP PUSH2 0xD7 PUSH2 0x359 JUMP JUMPDEST PUSH1 0x40 MLOAD PUSH2 0xE4 SWAP2 SWAP1 PUSH2 0x89F JUMP JUMPDEST PUSH1 0x40 MLOAD DUP1 SWAP2 SUB SWAP1 RETURN JUMPDEST CALLVALUE DUP1 ISZERO PUSH2 0xF9 JUMPI PUSH1 0x0 DUP1 REVERT JUMPDEST POP PUSH2 0x102 PUSH2 0x35F JUMP JUMPDEST PUSH1 0x40 MLOAD PUSH2 0x10F SWAP2 SWAP1 PUSH2 0x869 JUMP JUMPDEST PUSH1 0x40 MLOAD DUP1 SWAP2 SUB SWAP1 RETURN JUMPDEST CALLVALUE DUP1 ISZERO PUSH2 0x124 JUMPI PUSH1 0x0 DUP1 REVERT JUMPDEST POP PUSH2 0x12D PUSH2 0x385 JUMP JUMPDEST STOP JUMPDEST CALLVALUE DUP1 ISZERO PUSH2 0x13B JUMPI PUSH1 0x0 DUP1 REVERT JUMPDEST POP PUSH2 0x144 PUSH2 0x53E JUMP JUMPDEST PUSH1 0x40 MLOAD PUSH2 0x151 SWAP2 SWAP1 PUSH2 0x884 JUMP JUMPDEST PUSH1 0x40 MLOAD DUP1 SWAP2 SUB SWAP1 RETURN JUMPDEST CALLVALUE DUP1 ISZERO PUSH2 0x166 JUMPI PUSH1 0x0 DUP1 REVERT JUMPDEST POP PUSH2 0x16F PUSH2 0x551 JUMP JUMPDEST STOP JUMPDEST PUSH2 0x179 PUSH2 0x717 JUMP JUMPDEST STOP JUMPDEST PUSH1 0x1 PUSH1 0x0 SWAP1 SLOAD SWAP1 PUSH2 0x100 EXP SWAP1 DIV PUSH20 0xFFFFFFFFFFFFFFFFFFFFFFFFFFFFFFFFFFFFFFFF AND DUP2 JUMP JUMPDEST PUSH1 0x1 PUSH1 0x0 SWAP1 SLOAD SWAP1 PUSH2 0x100 EXP SWAP1 DIV PUSH20 0xFFFFFFFFFFFFFFFFFFFFFFFFFFFFFFFFFFFFFFFF AND PUSH20 0xFFFFFFFFFFFFFFFFFFFFFFFFFFFFFFFFFFFFFFFF AND CALLER PUSH20 0xFFFFFFFFFFFFFFFFFFFFFFFFFFFFFFFFFFFFFFFF AND EQ PUSH2 0x228 JUMPI PUSH1 0x40 MLOAD PUSH32 0x85D1F72600000000000000000000000000000000000000000000000000000000 DUP2 MSTORE PUSH1 0x4 ADD PUSH1 0x40 MLOAD DUP1 SWAP2 SUB SWAP1 REVERT JUMPDEST PUSH1 0x0 DUP1 PUSH1 0x3 DUP2 GT ISZERO PUSH2 0x23D JUMPI PUSH2 0x23C PUSH2 0x9A4 JUMP JUMPDEST JUMPDEST PUSH1 0x2 PUSH1 0x14 SWAP1 SLOAD SWAP1 PUSH2 0x100 EXP SWAP1 DIV PUSH1 0xFF AND PUSH1 0x3 DUP2 GT ISZERO PUSH2 0x25F JUMPI PUSH2 0x25E PUSH2 0x9A4 JUMP JUMPDEST JUMPDEST EQ PUSH2 0x296 JUMPI PUSH1 0x40 MLOAD PUSH32 0xBAF3F0F700000000000000000000000000000000000000000000000000000000 DUP2 MSTORE PUSH1 0x4 ADD PUSH1 0x40 MLOAD DUP1 SWAP2 SUB SWAP1 REVERT JUMPDEST PUSH32 0x72C874AEFF0B183A56E2B79C71B46E1AED4DEE5E09862134B8821BA2FDDBF8BF PUSH1 0x40 MLOAD PUSH1 0x40 MLOAD DUP1 SWAP2 SUB SWAP1 LOG1 PUSH1 0x3 PUSH1 0x2 PUSH1 0x14 PUSH2 0x100 EXP DUP2 SLOAD DUP2 PUSH1 0xFF MUL NOT AND SWAP1 DUP4 PUSH1 0x3 DUP2 GT ISZERO PUSH2 0x2E8 JUMPI PUSH2 0x2E7 PUSH2 0x9A4 JUMP JUMPDEST JUMPDEST MUL OR SWAP1 SSTORE POP PUSH1 0x1 PUSH1 0x0 SWAP1 SLOAD SWAP1 PUSH2 0x100 EXP SWAP1 DIV PUSH20 0xFFFFFFFFFFFFFFFFFFFFFFFFFFFFFFFFFFFFFFFF AND PUSH20 0xFFFFFFFFFFFFFFFFFFFFFFFFFFFFFFFFFFFFFFFF AND PUSH2 0x8FC SELFBALANCE SWAP1 DUP2 ISZERO MUL SWAP1 PUSH1 0x40 MLOAD PUSH1 0x0 PUSH1 0x40 MLOAD DUP1 DUP4 SUB DUP2 DUP6 DUP9 DUP9 CALL SWAP4 POP POP POP POP ISZERO DUP1 ISZERO PUSH2 0x355 JUMPI RETURNDATASIZE PUSH1 0x0 DUP1 RETURNDATACOPY RETURNDATASIZE PUSH1 0x0 REVERT JUMPDEST POP POP JUMP JUMPDEST PUSH1 0x0 SLOAD DUP2 JUMP JUMPDEST PUSH1 0x2 PUSH1 0x0 SWAP1 SLOAD SWAP1 PUSH2 0x100 EXP SWAP1 DIV PUSH20 0xFFFFFFFFFFFFFFFFFFFFFFFFFFFFFFFFFFFFFFFF AND DUP2 JUMP JUMPDEST PUSH1 0x2 PUSH1 0x0 SWAP1 SLOAD SWAP1 PUSH2 0x100 EXP SWAP1 DIV PUSH20 0xFFFFFFFFFFFFFFFFFFFFFFFFFFFFFFFFFFFFFFFF AND PUSH20 0xFFFFFFFFFFFFFFFFFFFFFFFFFFFFFFFFFFFFFFFF AND CALLER PUSH20 0xFFFFFFFFFFFFFFFFFFFFFFFFFFFFFFFFFFFFFFFF AND EQ PUSH2 0x40C JUMPI PUSH1 0x40 MLOAD PUSH32 0x86EFBB5500000000000000000000000000000000000000000000000000000000 DUP2 MSTORE PUSH1 0x4 ADD PUSH1 0x40 MLOAD DUP1 SWAP2 SUB SWAP1 REVERT JUMPDEST PUSH1 0x1 DUP1 PUSH1 0x3 DUP2 GT ISZERO PUSH2 0x421 JUMPI PUSH2 0x420 PUSH2 0x9A4 JUMP JUMPDEST JUMPDEST PUSH1 0x2 PUSH1 0x14 SWAP1 SLOAD SWAP1 PUSH2 0x100 EXP SWAP1 DIV PUSH1 0xFF AND PUSH1 0x3 DUP2 GT ISZERO PUSH2 0x443 JUMPI PUSH2 0x442 PUSH2 0x9A4 JUMP JUMPDEST JUMPDEST EQ PUSH2 0x47A JUMPI PUSH1 0x40 MLOAD PUSH32 0xBAF3F0F700000000000000000000000000000000000000000000000000000000 DUP2 MSTORE PUSH1 0x4 ADD PUSH1 0x40 MLOAD DUP1 SWAP2 SUB SWAP1 REVERT JUMPDEST PUSH32 0xE89152ACD703C9D8C7D28829D443260B411454D45394E7995815140C8CBCBCF7 PUSH1 0x40 MLOAD PUSH1 0x40 MLOAD DUP1 SWAP2 SUB SWAP1 LOG1 PUSH1 0x2 DUP1 PUSH1 0x14 PUSH2 0x100 EXP DUP2 SLOAD DUP2 PUSH1 0xFF MUL NOT AND SWAP1 DUP4 PUSH1 0x3 DUP2 GT ISZERO PUSH2 0x4CB JUMPI PUSH2 0x4CA PUSH2 0x9A4 JUMP JUMPDEST JUMPDEST MUL OR SWAP1 SSTORE POP PUSH1 0x2 PUSH1 0x0 SWAP1 SLOAD SWAP1 PUSH2 0x100 EXP SWAP1 DIV PUSH20 0xFFFFFFFFFFFFFFFFFFFFFFFFFFFFFFFFFFFFFFFF AND PUSH20 0xFFFFFFFFFFFFFFFFFFFFFFFFFFFFFFFFFFFFFFFF AND PUSH2 0x8FC PUSH1 0x0 SLOAD SWAP1 DUP2 ISZERO MUL SWAP1 PUSH1 0x40 MLOAD PUSH1 0x0 PUSH1 0x40 MLOAD DUP1 DUP4 SUB DUP2 DUP6 DUP9 DUP9 CALL SWAP4 POP POP POP POP ISZERO DUP1 ISZERO PUSH2 0x53A JUMPI RETURNDATASIZE PUSH1 0x0 DUP1 RETURNDATACOPY RETURNDATASIZE PUSH1 0x0 REVERT JUMPDEST POP POP JUMP JUMPDEST PUSH1 0x2 PUSH1 0x14 SWAP1 SLOAD SWAP1 PUSH2 0x100 EXP SWAP1 DIV PUSH1 0xFF AND DUP2 JUMP JUMPDEST PUSH1 0x1 PUSH1 0x0 SWAP1 SLOAD SWAP1 PUSH2 0x100 EXP SWAP1 DIV PUSH20 0xFFFFFFFFFFFFFFFFFFFFFFFFFFFFFFFFFFFFFFFF AND PUSH20 0xFFFFFFFFFFFFFFFFFFFFFFFFFFFFFFFFFFFFFFFF AND CALLER PUSH20 0xFFFFFFFFFFFFFFFFFFFFFFFFFFFFFFFFFFFFFFFF AND EQ PUSH2 0x5D8 JUMPI PUSH1 0x40 MLOAD PUSH32 0x85D1F72600000000000000000000000000000000000000000000000000000000 DUP2 MSTORE PUSH1 0x4 ADD PUSH1 0x40 MLOAD DUP1 SWAP2 SUB SWAP1 REVERT JUMPDEST PUSH1 0x2 DUP1 PUSH1 0x3 DUP2 GT ISZERO PUSH2 0x5ED JUMPI PUSH2 0x5EC PUSH2 0x9A4 JUMP JUMPDEST JUMPDEST PUSH1 0x2 PUSH1 0x14 SWAP1 SLOAD SWAP1 PUSH2 0x100 EXP SWAP1 DIV PUSH1 0xFF AND PUSH1 0x3 DUP2 GT ISZERO PUSH2 0x60F JUMPI PUSH2 0x60E PUSH2 0x9A4 JUMP JUMPDEST JUMPDEST EQ PUSH2 0x646 JUMPI PUSH1 0x40 MLOAD PUSH32 0xBAF3F0F700000000000000000000000000000000000000000000000000000000 DUP2 MSTORE PUSH1 0x4 ADD PUSH1 0x40 MLOAD DUP1 SWAP2 SUB SWAP1 REVERT JUMPDEST PUSH32 0xFDA69C32BCFDBA840A167777906B173B607EB8B4D8853B97A80D26E613D858DB PUSH1 0x40 MLOAD PUSH1 0x40 MLOAD DUP1 SWAP2 SUB SWAP1 LOG1 PUSH1 0x3 PUSH1 0x2 PUSH1 0x14 PUSH2 0x100 EXP DUP2 SLOAD DUP2 PUSH1 0xFF MUL NOT AND SWAP1 DUP4 PUSH1 0x3 DUP2 GT ISZERO PUSH2 0x698 JUMPI PUSH2 0x697 PUSH2 0x9A4 JUMP JUMPDEST JUMPDEST MUL OR SWAP1 SSTORE POP PUSH1 0x1 PUSH1 0x0 SWAP1 SLOAD SWAP1 PUSH2 0x100 EXP SWAP1 DIV PUSH20 0xFFFFFFFFFFFFFFFFFFFFFFFFFFFFFFFFFFFFFFFF AND PUSH20 0xFFFFFFFFFFFFFFFFFFFFFFFFFFFFFFFFFFFFFFFF AND PUSH2 0x8FC PUSH1 0x0 SLOAD PUSH1 0x3 PUSH2 0x6E8 SWAP2 SWAP1 PUSH2 0x8BA JUMP JUMPDEST SWAP1 DUP2 ISZERO MUL SWAP1 PUSH1 0x40 MLOAD PUSH1 0x0 PUSH1 0x40 MLOAD DUP1 DUP4 SUB DUP2 DUP6 DUP9 DUP9 CALL SWAP4 POP POP POP POP ISZERO DUP1 ISZERO PUSH2 0x713 JUMPI RETURNDATASIZE PUSH1 0x0 DUP1 RETURNDATACOPY RETURNDATASIZE PUSH1 0x0 REVERT JUMPDEST POP POP JUMP JUMPDEST PUSH1 0x0 DUP1 PUSH1 0x3 DUP2 GT ISZERO PUSH2 0x72C JUMPI PUSH2 0x72B PUSH2 0x9A4 JUMP JUMPDEST JUMPDEST PUSH1 0x2 PUSH1 0x14 SWAP1 SLOAD SWAP1 PUSH2 0x100 EXP SWAP1 DIV PUSH1 0xFF AND PUSH1 0x3 DUP2 GT ISZERO PUSH2 0x74E JUMPI PUSH2 0x74D PUSH2 0x9A4 JUMP JUMPDEST JUMPDEST EQ PUSH2 0x785 JUMPI PUSH1 0x40 MLOAD PUSH32 0xBAF3F0F700000000000000000000000000000000000000000000000000000000 DUP2 MSTORE PUSH1 0x4 ADD PUSH1 0x40 MLOAD DUP1 SWAP2 SUB SWAP1 REVERT JUMPDEST PUSH1 0x0 SLOAD PUSH1 0x2 PUSH2 0x794 SWAP2 SWAP1 PUSH2 0x8BA JUMP JUMPDEST CALLVALUE EQ DUP1 PUSH2 0x7A0 JUMPI PUSH1 0x0 DUP1 REVERT JUMPDEST PUSH32 0xD5D55C8A68912E9A110618DF8D5E2E83B8D83211C57A8DDD1203DF92885DC881 PUSH1 0x40 MLOAD PUSH1 0x40 MLOAD DUP1 SWAP2 SUB SWAP1 LOG1 CALLER PUSH1 0x2 PUSH1 0x0 PUSH2 0x100 EXP DUP2 SLOAD DUP2 PUSH20 0xFFFFFFFFFFFFFFFFFFFFFFFFFFFFFFFFFFFFFFFF MUL NOT AND SWAP1 DUP4 PUSH20 0xFFFFFFFFFFFFFFFFFFFFFFFFFFFFFFFFFFFFFFFF AND MUL OR SWAP1 SSTORE POP PUSH1 0x1 PUSH1 0x2 PUSH1 0x14 PUSH2 0x100 EXP DUP2 SLOAD DUP2 PUSH1 0xFF MUL NOT AND SWAP1 DUP4 PUSH1 0x3 DUP2 GT ISZERO PUSH2 0x833 JUMPI PUSH2 0x832 PUSH2 0x9A4 JUMP JUMPDEST JUMPDEST MUL OR SWAP1 SSTORE POP POP POP JUMP JUMPDEST PUSH2 0x845 DUP2 PUSH2 0x914 JUMP JUMPDEST DUP3 MSTORE POP POP JUMP JUMPDEST PUSH2 0x854 DUP2 PUSH2 0x963 JUMP JUMPDEST DUP3 MSTORE POP POP JUMP JUMPDEST PUSH2 0x863 DUP2 PUSH2 0x959 JUMP JUMPDEST DUP3 MSTORE POP POP JUMP JUMPDEST PUSH1 0x0 PUSH1 0x20 DUP3 ADD SWAP1 POP PUSH2 0x87E PUSH1 0x0 DUP4 ADD DUP5 PUSH2 0x83C JUMP JUMPDEST SWAP3 SWAP2 POP POP JUMP JUMPDEST PUSH1 0x0 PUSH1 0x20 DUP3 ADD SWAP1 POP PUSH2 0x899 PUSH1 0x0 DUP4 ADD DUP5 PUSH2 0x84B JUMP JUMPDEST SWAP3 SWAP2 POP POP JUMP JUMPDEST PUSH1 0x0 PUSH1 0x20 DUP3 ADD SWAP1 POP PUSH2 0x8B4 PUSH1 0x0 DUP4 ADD DUP5 PUSH2 0x85A JUMP JUMPDEST SWAP3 SWAP2 POP POP JUMP JUMPDEST PUSH1 0x0 PUSH2 0x8C5 DUP3 PUSH2 0x959 JUMP JUMPDEST SWAP2 POP PUSH2 0x8D0 DUP4 PUSH2 0x959 JUMP JUMPDEST SWAP3 POP DUP2 PUSH32 0xFFFFFFFFFFFFFFFFFFFFFFFFFFFFFFFFFFFFFFFFFFFFFFFFFFFFFFFFFFFFFFFF DIV DUP4 GT DUP3 ISZERO ISZERO AND ISZERO PUSH2 0x909 JUMPI PUSH2 0x908 PUSH2 0x975 JUMP JUMPDEST JUMPDEST DUP3 DUP3 MUL SWAP1 POP SWAP3 SWAP2 POP POP JUMP JUMPDEST PUSH1 0x0 PUSH2 0x91F DUP3 PUSH2 0x939 JUMP JUMPDEST SWAP1 POP SWAP2 SWAP1 POP JUMP JUMPDEST PUSH1 0x0 DUP2 SWAP1 POP PUSH2 0x934 DUP3 PUSH2 0x9D3 JUMP JUMPDEST SWAP2 SWAP1 POP JUMP JUMPDEST PUSH1 0x0 PUSH20 0xFFFFFFFFFFFFFFFFFFFFFFFFFFFFFFFFFFFFFFFF DUP3 AND SWAP1 POP SWAP2 SWAP1 POP JUMP JUMPDEST PUSH1 0x0 DUP2 SWAP1 POP SWAP2 SWAP1 POP JUMP JUMPDEST PUSH1 0x0 PUSH2 0x96E DUP3 PUSH2 0x926 JUMP JUMPDEST SWAP1 POP SWAP2 SWAP1 POP JUMP JUMPDEST PUSH32 0x4E487B7100000000000000000000000000000000000000000000000000000000 PUSH1 0x0 MSTORE PUSH1 0x11 PUSH1 0x4 MSTORE PUSH1 0x24 PUSH1 0x0 REVERT JUMPDEST PUSH32 0x4E487B7100000000000000000000000000000000000000000000000000000000 PUSH1 0x0 MSTORE PUSH1 0x21 PUSH1 0x4 MSTORE PUSH1 0x24 PUSH1 0x0 REVERT JUMPDEST PUSH1 0x4 DUP2 LT PUSH2 0x9E4 JUMPI PUSH2 0x9E3 PUSH2 0x9A4 JUMP JUMPDEST JUMPDEST POP JUMP INVALID LOG2 PUSH5 0x6970667358 0x22 SLT KECCAK256 0xD6 0x27 0x5D 0xBC LOG4 DUP12 CALLCODE SWAP16 PUSH15 0xF5AC0C914330777DD95B486B0EEB51 0xFC 0xA6 0xEE EXTCODEHASH 0xEC 0xD1 BALANCE 0xA7 PUSH5 0x736F6C6343 STOP ADDMOD SMOD STOP CALLER "
				},
				"gasEstimates": {
					"creation": {
						"codeDepositCost": "517800",
						"executionCost": "infinite",
						"totalCost": "infinite"
					},
					"external": {
						"abort()": "infinite",
						"buyer()": "2581",
						"confirmPurchase()": "infinite",
						"confirmReceived()": "infinite",
						"refundSeller()": "infinite",
						"seller()": "2515",
						"state()": "2632",
						"value()": "2474"
					}
				},
				"methodIdentifiers": {
					"abort()": "35a063b4",
					"buyer()": "7150d8ae",
					"confirmPurchase()": "d6960697",
					"confirmReceived()": "73fac6f0",
					"refundSeller()": "c7981b1b",
					"seller()": "08551a53",
					"state()": "c19d93fb",
					"value()": "3fa4f245"
				}
			},
			"storageLayout": {
				"storage": [
					{
						"astId": 3,
						"contract": "Remote Purchase.sol:Purchase",
						"label": "value",
						"offset": 0,
						"slot": "0",
						"type": "t_uint256"
					},
					{
						"astId": 5,
						"contract": "Remote Purchase.sol:Purchase",
						"label": "seller",
						"offset": 0,
						"slot": "1",
						"type": "t_address_payable"
					},
					{
						"astId": 7,
						"contract": "Remote Purchase.sol:Purchase",
						"label": "buyer",
						"offset": 0,
						"slot": "2",
						"type": "t_address_payable"
					},
					{
						"astId": 15,
						"contract": "Remote Purchase.sol:Purchase",
						"label": "state",
						"offset": 20,
						"slot": "2",
						"type": "t_enum(State)12"
					}
				],
				"types": {
					"t_address_payable": {
						"encoding": "inplace",
						"label": "address payable",
						"numberOfBytes": "20"
					},
					"t_enum(State)12": {
						"encoding": "inplace",
						"label": "enum Purchase.State",
						"numberOfBytes": "1"
					},
					"t_uint256": {
						"encoding": "inplace",
						"label": "uint256",
						"numberOfBytes": "32"
					}
				}
			},
			"userdoc": {
				"errors": {
					"InvalidState()": [
						{
							"notice": "The function cannot be called at the current state."
						}
					],
					"OnlyBuyer()": [
						{
							"notice": "Only the buyer can call this function."
						}
					],
					"OnlySeller()": [
						{
							"notice": "Only the seller can call this function."
						}
					],
					"ValueNotEven()": [
						{
							"notice": "The provided value has to be even."
						}
					]
				},
				"kind": "user",
				"methods": {
					"abort()": {
						"notice": "Abort the purchase and reclaim the ether. Can only be called by the seller before the contract is locked."
					},
					"confirmPurchase()": {
						"notice": "Confirm the purchase as buyer. Transaction has to include `2 * value` ether. The ether will be locked until confirmReceived is called."
					},
					"confirmReceived()": {
						"notice": "Confirm that you (the buyer) received the item. This will release the locked ether."
					},
					"refundSeller()": {
						"notice": "This function refunds the seller, i.e. pays back the locked funds of the seller."
					}
				},
				"version": 1
			}
		}
	}
}