{
	"AttackGame.sol": {
		"AttackGame": {
			"abi": [
				{
					"inputs": [],
					"stateMutability": "nonpayable",
					"type": "constructor"
				},
				{
					"anonymous": false,
					"inputs": [
						{
							"indexed": false,
							"internalType": "address",
							"name": "from",
							"type": "address"
						},
						{
							"indexed": false,
							"internalType": "address",
							"name": "to",
							"type": "address"
						},
						{
							"indexed": false,
							"internalType": "uint256",
							"name": "amount",
							"type": "uint256"
						},
						{
							"indexed": false,
							"internalType": "string",
							"name": "Currency",
							"type": "string"
						}
					],
					"name": "Sent",
					"type": "event"
				},
				{
					"inputs": [
						{
							"internalType": "address",
							"name": "",
							"type": "address"
						},
						{
							"internalType": "uint256",
							"name": "",
							"type": "uint256"
						}
					],
					"name": "Stats",
					"outputs": [
						{
							"internalType": "uint256",
							"name": "",
							"type": "uint256"
						}
					],
					"stateMutability": "view",
					"type": "function"
				},
				{
					"inputs": [],
					"name": "join",
					"outputs": [],
					"stateMutability": "nonpayable",
					"type": "function"
				},
				{
					"inputs": [
						{
							"internalType": "address",
							"name": "",
							"type": "address"
						}
					],
					"name": "joined",
					"outputs": [
						{
							"internalType": "bool",
							"name": "",
							"type": "bool"
						}
					],
					"stateMutability": "view",
					"type": "function"
				},
				{
					"inputs": [],
					"name": "minter",
					"outputs": [
						{
							"internalType": "address",
							"name": "",
							"type": "address"
						}
					],
					"stateMutability": "view",
					"type": "function"
				}
			],
			"devdoc": {
				"kind": "dev",
				"methods": {},
				"version": 1
			},
			"evm": {
				"assembly": "    /* \"AttackGame.sol\":64:943  contract AttackGame {\r... */\n  mstore(0x40, 0x80)\n    /* \"AttackGame.sol\":311:362  string[] StatsInfo = [\"Attach\",\"Defince\",\"Balance\"] */\n  mload(0x40)\n  dup1\n  0x60\n  add\n  0x40\n  mstore\n  dup1\n  mload(0x40)\n  dup1\n  0x40\n  add\n  0x40\n  mstore\n  dup1\n  0x06\n  dup2\n  mstore\n  0x20\n  add\n  0x4174746163680000000000000000000000000000000000000000000000000000\n  dup2\n  mstore\n  pop\n  dup2\n  mstore\n  0x20\n  add\n  mload(0x40)\n  dup1\n  0x40\n  add\n  0x40\n  mstore\n  dup1\n  0x07\n  dup2\n  mstore\n  0x20\n  add\n  0x446566696e636500000000000000000000000000000000000000000000000000\n  dup2\n  mstore\n  pop\n  dup2\n  mstore\n  0x20\n  add\n  mload(0x40)\n  dup1\n  0x40\n  add\n  0x40\n  mstore\n  dup1\n  0x07\n  dup2\n  mstore\n  0x20\n  add\n  0x42616c616e636500000000000000000000000000000000000000000000000000\n  dup2\n  mstore\n  pop\n  dup2\n  mstore\n  pop\n  0x03\n  swap1\n  0x03\n  tag_1\n  swap3\n  swap2\n  swap1\n  tag_2\n  jump\t// in\ntag_1:\n  pop\n    /* \"AttackGame.sol\":497:549  constructor() {\r... */\n  callvalue\n  dup1\n  iszero\n  tag_3\n  jumpi\n  0x00\n  dup1\n  revert\ntag_3:\n  pop\n    /* \"AttackGame.sol\":531:541  msg.sender */\n  caller\n    /* \"AttackGame.sol\":522:528  minter */\n  0x00\n  dup1\n    /* \"AttackGame.sol\":522:541  minter = msg.sender */\n  0x0100\n  exp\n  dup2\n  sload\n  dup2\n  0xffffffffffffffffffffffffffffffffffffffff\n  mul\n  not\n  and\n  swap1\n  dup4\n  0xffffffffffffffffffffffffffffffffffffffff\n  and\n  mul\n  or\n  swap1\n  sstore\n  pop\n    /* \"AttackGame.sol\":64:943  contract AttackGame {\r... */\n  jump(tag_6)\ntag_2:\n  dup3\n  dup1\n  sload\n  dup3\n  dup3\n  sstore\n  swap1\n  0x00\n  mstore\n  keccak256(0x00, 0x20)\n  swap1\n  dup2\n  add\n  swap3\n  dup3\n  iszero\n  tag_7\n  jumpi\n  swap2\n  0x20\n  mul\n  dup3\n  add\ntag_8:\n  dup3\n  dup2\n  gt\n  iszero\n  tag_9\n  jumpi\n  dup3\n  mload\n  dup3\n  swap1\n  dup1\n  mload\n  swap1\n  0x20\n  add\n  swap1\n  tag_10\n  swap3\n  swap2\n  swap1\n  tag_11\n  jump\t// in\ntag_10:\n  pop\n  swap2\n  0x20\n  add\n  swap2\n  swap1\n  0x01\n  add\n  swap1\n  jump(tag_8)\ntag_9:\ntag_7:\n  pop\n  swap1\n  pop\n  tag_12\n  swap2\n  swap1\n  tag_13\n  jump\t// in\ntag_12:\n  pop\n  swap1\n  jump\t// out\ntag_11:\n  dup3\n  dup1\n  sload\n  tag_14\n  swap1\n  tag_15\n  jump\t// in\ntag_14:\n  swap1\n  0x00\n  mstore\n  keccak256(0x00, 0x20)\n  swap1\n  0x1f\n  add\n  0x20\n  swap1\n  div\n  dup2\n  add\n  swap3\n  dup3\n  tag_17\n  jumpi\n  0x00\n  dup6\n  sstore\n  jump(tag_16)\ntag_17:\n  dup3\n  0x1f\n  lt\n  tag_18\n  jumpi\n  dup1\n  mload\n  not(0xff)\n  and\n  dup4\n  dup1\n  add\n  or\n  dup6\n  sstore\n  jump(tag_16)\ntag_18:\n  dup3\n  dup1\n  add\n  0x01\n  add\n  dup6\n  sstore\n  dup3\n  iszero\n  tag_16\n  jumpi\n  swap2\n  dup3\n  add\ntag_19:\n  dup3\n  dup2\n  gt\n  iszero\n  tag_20\n  jumpi\n  dup3\n  mload\n  dup3\n  sstore\n  swap2\n  0x20\n  add\n  swap2\n  swap1\n  0x01\n  add\n  swap1\n  jump(tag_19)\ntag_20:\ntag_16:\n  pop\n  swap1\n  pop\n  tag_21\n  swap2\n  swap1\n  tag_22\n  jump\t// in\ntag_21:\n  pop\n  swap1\n  jump\t// out\ntag_13:\ntag_23:\n  dup1\n  dup3\n  gt\n  iszero\n  tag_24\n  jumpi\n  0x00\n  dup2\n  dup2\n  tag_25\n  swap2\n  swap1\n  tag_26\n  jump\t// in\ntag_25:\n  pop\n  0x01\n  add\n  jump(tag_23)\ntag_24:\n  pop\n  swap1\n  jump\t// out\ntag_22:\ntag_27:\n  dup1\n  dup3\n  gt\n  iszero\n  tag_28\n  jumpi\n  0x00\n  dup2\n  0x00\n  swap1\n  sstore\n  pop\n  0x01\n  add\n  jump(tag_27)\ntag_28:\n  pop\n  swap1\n  jump\t// out\ntag_26:\n  pop\n  dup1\n  sload\n  tag_29\n  swap1\n  tag_15\n  jump\t// in\ntag_29:\n  0x00\n  dup3\n  sstore\n  dup1\n  0x1f\n  lt\n  tag_31\n  jumpi\n  pop\n  jump(tag_30)\ntag_31:\n  0x1f\n  add\n  0x20\n  swap1\n  div\n  swap1\n  0x00\n  mstore\n  keccak256(0x00, 0x20)\n  swap1\n  dup2\n  add\n  swap1\n  tag_32\n  swap2\n  swap1\n  tag_22\n  jump\t// in\ntag_32:\ntag_30:\n  pop\n  jump\t// out\n    /* \"#utility.yul\":7:327   */\ntag_15:\n    /* \"#utility.yul\":51:57   */\n  0x00\n    /* \"#utility.yul\":88:89   */\n  0x02\n    /* \"#utility.yul\":82:86   */\n  dup3\n    /* \"#utility.yul\":78:90   */\n  div\n    /* \"#utility.yul\":68:90   */\n  swap1\n  pop\n    /* \"#utility.yul\":135:136   */\n  0x01\n    /* \"#utility.yul\":129:133   */\n  dup3\n    /* \"#utility.yul\":125:137   */\n  and\n    /* \"#utility.yul\":156:174   */\n  dup1\n    /* \"#utility.yul\":146:227   */\n  tag_35\n  jumpi\n    /* \"#utility.yul\":212:216   */\n  0x7f\n    /* \"#utility.yul\":204:210   */\n  dup3\n    /* \"#utility.yul\":200:217   */\n  and\n    /* \"#utility.yul\":190:217   */\n  swap2\n  pop\n    /* \"#utility.yul\":146:227   */\ntag_35:\n    /* \"#utility.yul\":274:276   */\n  0x20\n    /* \"#utility.yul\":266:272   */\n  dup3\n    /* \"#utility.yul\":263:277   */\n  lt\n    /* \"#utility.yul\":243:261   */\n  dup2\n    /* \"#utility.yul\":240:278   */\n  eq\n    /* \"#utility.yul\":237:321   */\n  iszero\n  tag_36\n  jumpi\n    /* \"#utility.yul\":293:311   */\n  tag_37\n  tag_38\n  jump\t// in\ntag_37:\n    /* \"#utility.yul\":237:321   */\ntag_36:\n    /* \"#utility.yul\":58:327   */\n  pop\n    /* \"#utility.yul\":7:327   */\n  swap2\n  swap1\n  pop\n  jump\t// out\n    /* \"#utility.yul\":333:513   */\ntag_38:\n    /* \"#utility.yul\":381:458   */\n  0x4e487b7100000000000000000000000000000000000000000000000000000000\n    /* \"#utility.yul\":378:379   */\n  0x00\n    /* \"#utility.yul\":371:459   */\n  mstore\n    /* \"#utility.yul\":478:482   */\n  0x22\n    /* \"#utility.yul\":475:476   */\n  0x04\n    /* \"#utility.yul\":468:483   */\n  mstore\n    /* \"#utility.yul\":502:506   */\n  0x24\n    /* \"#utility.yul\":499:500   */\n  0x00\n    /* \"#utility.yul\":492:507   */\n  revert\n    /* \"AttackGame.sol\":64:943  contract AttackGame {\r... */\ntag_6:\n  dataSize(sub_0)\n  dup1\n  dataOffset(sub_0)\n  0x00\n  codecopy\n  0x00\n  return\nstop\n\nsub_0: assembly {\n        /* \"AttackGame.sol\":64:943  contract AttackGame {\r... */\n      mstore(0x40, 0x80)\n      callvalue\n      dup1\n      iszero\n      tag_1\n      jumpi\n      0x00\n      dup1\n      revert\n    tag_1:\n      pop\n      jumpi(tag_2, lt(calldatasize, 0x04))\n      shr(0xe0, calldataload(0x00))\n      dup1\n      0x07546172\n      eq\n      tag_3\n      jumpi\n      dup1\n      0xabf5f2ed\n      eq\n      tag_4\n      jumpi\n      dup1\n      0xb688a363\n      eq\n      tag_5\n      jumpi\n      dup1\n      0xf887d019\n      eq\n      tag_6\n      jumpi\n    tag_2:\n      0x00\n      dup1\n      revert\n        /* \"AttackGame.sol\":91:112  address public minter */\n    tag_3:\n      tag_7\n      tag_8\n      jump\t// in\n    tag_7:\n      mload(0x40)\n      tag_9\n      swap2\n      swap1\n      tag_10\n      jump\t// in\n    tag_9:\n      mload(0x40)\n      dup1\n      swap2\n      sub\n      swap1\n      return\n        /* \"AttackGame.sol\":217:258  mapping (address => uint[3]) public Stats */\n    tag_4:\n      tag_11\n      0x04\n      dup1\n      calldatasize\n      sub\n      dup2\n      add\n      swap1\n      tag_12\n      swap2\n      swap1\n      tag_13\n      jump\t// in\n    tag_12:\n      tag_14\n      jump\t// in\n    tag_11:\n      mload(0x40)\n      tag_15\n      swap2\n      swap1\n      tag_16\n      jump\t// in\n    tag_15:\n      mload(0x40)\n      dup1\n      swap2\n      sub\n      swap1\n      return\n        /* \"AttackGame.sol\":816:938  function join() public {\r... */\n    tag_5:\n      tag_17\n      tag_18\n      jump\t// in\n    tag_17:\n      stop\n        /* \"AttackGame.sol\":265:304  mapping (address => bool) public joined */\n    tag_6:\n      tag_19\n      0x04\n      dup1\n      calldatasize\n      sub\n      dup2\n      add\n      swap1\n      tag_20\n      swap2\n      swap1\n      tag_21\n      jump\t// in\n    tag_20:\n      tag_22\n      jump\t// in\n    tag_19:\n      mload(0x40)\n      tag_23\n      swap2\n      swap1\n      tag_24\n      jump\t// in\n    tag_23:\n      mload(0x40)\n      dup1\n      swap2\n      sub\n      swap1\n      return\n        /* \"AttackGame.sol\":91:112  address public minter */\n    tag_8:\n      0x00\n      dup1\n      sload\n      swap1\n      0x0100\n      exp\n      swap1\n      div\n      0xffffffffffffffffffffffffffffffffffffffff\n      and\n      dup2\n      jump\t// out\n        /* \"AttackGame.sol\":217:258  mapping (address => uint[3]) public Stats */\n    tag_14:\n      mstore(0x20, 0x01)\n      dup2\n      0x00\n      mstore\n      keccak256(0x00, 0x40)\n      dup2\n      0x03\n      dup2\n      lt\n      tag_25\n      jumpi\n      0x00\n      dup1\n      revert\n    tag_25:\n      add\n      0x00\n      swap2\n      pop\n      swap2\n      pop\n      pop\n      sload\n      dup2\n      jump\t// out\n        /* \"AttackGame.sol\":816:938  function join() public {\r... */\n    tag_18:\n        /* \"AttackGame.sol\":880:884  true */\n      0x01\n        /* \"AttackGame.sol\":858:884  joined[msg.sender] != true */\n      iszero\n      iszero\n        /* \"AttackGame.sol\":858:864  joined */\n      0x02\n        /* \"AttackGame.sol\":858:876  joined[msg.sender] */\n      0x00\n        /* \"AttackGame.sol\":865:875  msg.sender */\n      caller\n        /* \"AttackGame.sol\":858:876  joined[msg.sender] */\n      0xffffffffffffffffffffffffffffffffffffffff\n      and\n      0xffffffffffffffffffffffffffffffffffffffff\n      and\n      dup2\n      mstore\n      0x20\n      add\n      swap1\n      dup2\n      mstore\n      0x20\n      add\n      0x00\n      keccak256\n      0x00\n      swap1\n      sload\n      swap1\n      0x0100\n      exp\n      swap1\n      div\n      0xff\n      and\n        /* \"AttackGame.sol\":858:884  joined[msg.sender] != true */\n      iszero\n      iszero\n      eq\n      iszero\n        /* \"AttackGame.sol\":850:885  require(joined[msg.sender] != true) */\n      tag_28\n      jumpi\n      0x00\n      dup1\n      revert\n    tag_28:\n        /* \"AttackGame.sol\":921:930  random(5) */\n      tag_29\n        /* \"AttackGame.sol\":928:929  5 */\n      0x05\n        /* \"AttackGame.sol\":921:927  random */\n      tag_30\n        /* \"AttackGame.sol\":921:930  random(5) */\n      jump\t// in\n    tag_29:\n        /* \"AttackGame.sol\":919:920  5 */\n      0x05\n        /* \"AttackGame.sol\":919:930  5+random(5) */\n      tag_31\n      swap2\n      swap1\n      tag_32\n      jump\t// in\n    tag_31:\n        /* \"AttackGame.sol\":896:901  Stats */\n      0x01\n        /* \"AttackGame.sol\":896:913  Stats[msg.sender] */\n      0x00\n        /* \"AttackGame.sol\":902:912  msg.sender */\n      caller\n        /* \"AttackGame.sol\":896:913  Stats[msg.sender] */\n      0xffffffffffffffffffffffffffffffffffffffff\n      and\n      0xffffffffffffffffffffffffffffffffffffffff\n      and\n      dup2\n      mstore\n      0x20\n      add\n      swap1\n      dup2\n      mstore\n      0x20\n      add\n      0x00\n      keccak256\n        /* \"AttackGame.sol\":914:915  0 */\n      0x00\n        /* \"AttackGame.sol\":896:916  Stats[msg.sender][0] */\n      0x03\n      dup2\n      lt\n      tag_33\n      jumpi\n      tag_34\n      tag_35\n      jump\t// in\n    tag_34:\n    tag_33:\n      add\n        /* \"AttackGame.sol\":896:930  Stats[msg.sender][0] = 5+random(5) */\n      dup2\n      swap1\n      sstore\n      pop\n        /* \"AttackGame.sol\":816:938  function join() public {\r... */\n      jump\t// out\n        /* \"AttackGame.sol\":265:304  mapping (address => bool) public joined */\n    tag_22:\n      mstore(0x20, 0x02)\n      dup1\n      0x00\n      mstore\n      keccak256(0x00, 0x40)\n      0x00\n      swap2\n      pop\n      sload\n      swap1\n      0x0100\n      exp\n      swap1\n      div\n      0xff\n      and\n      dup2\n      jump\t// out\n        /* \"AttackGame.sol\":620:788  function random(uint number) private view returns(uint){\r... */\n    tag_30:\n        /* \"AttackGame.sol\":670:674  uint */\n      0x00\n        /* \"AttackGame.sol\":774:780  number */\n      dup2\n        /* \"AttackGame.sol\":725:740  block.timestamp */\n      timestamp\n        /* \"AttackGame.sol\":741:757  block.difficulty */\n      difficulty\n        /* \"AttackGame.sol\":758:768  msg.sender */\n      caller\n        /* \"AttackGame.sol\":708:769  abi.encodePacked(block.timestamp,block.difficulty,msg.sender) */\n      add(0x20, mload(0x40))\n      tag_38\n      swap4\n      swap3\n      swap2\n      swap1\n      tag_39\n      jump\t// in\n    tag_38:\n      mload(0x40)\n      0x20\n      dup2\n      dup4\n      sub\n      sub\n      dup2\n      mstore\n      swap1\n      0x40\n      mstore\n        /* \"AttackGame.sol\":698:770  keccak256(abi.encodePacked(block.timestamp,block.difficulty,msg.sender)) */\n      dup1\n      mload\n      swap1\n      0x20\n      add\n      keccak256\n        /* \"AttackGame.sol\":693:771  uint(keccak256(abi.encodePacked(block.timestamp,block.difficulty,msg.sender))) */\n      0x00\n      shr\n        /* \"AttackGame.sol\":693:780  uint(keccak256(abi.encodePacked(block.timestamp,block.difficulty,msg.sender))) % number */\n      tag_40\n      swap2\n      swap1\n      tag_41\n      jump\t// in\n    tag_40:\n        /* \"AttackGame.sol\":686:780  return uint(keccak256(abi.encodePacked(block.timestamp,block.difficulty,msg.sender))) % number */\n      swap1\n      pop\n        /* \"AttackGame.sol\":620:788  function random(uint number) private view returns(uint){\r... */\n      swap2\n      swap1\n      pop\n      jump\t// out\n        /* \"#utility.yul\":7:146   */\n    tag_43:\n        /* \"#utility.yul\":53:58   */\n      0x00\n        /* \"#utility.yul\":91:97   */\n      dup2\n        /* \"#utility.yul\":78:98   */\n      calldataload\n        /* \"#utility.yul\":69:98   */\n      swap1\n      pop\n        /* \"#utility.yul\":107:140   */\n      tag_45\n        /* \"#utility.yul\":134:139   */\n      dup2\n        /* \"#utility.yul\":107:140   */\n      tag_46\n      jump\t// in\n    tag_45:\n        /* \"#utility.yul\":7:146   */\n      swap3\n      swap2\n      pop\n      pop\n      jump\t// out\n        /* \"#utility.yul\":152:291   */\n    tag_47:\n        /* \"#utility.yul\":198:203   */\n      0x00\n        /* \"#utility.yul\":236:242   */\n      dup2\n        /* \"#utility.yul\":223:243   */\n      calldataload\n        /* \"#utility.yul\":214:243   */\n      swap1\n      pop\n        /* \"#utility.yul\":252:285   */\n      tag_49\n        /* \"#utility.yul\":279:284   */\n      dup2\n        /* \"#utility.yul\":252:285   */\n      tag_50\n      jump\t// in\n    tag_49:\n        /* \"#utility.yul\":152:291   */\n      swap3\n      swap2\n      pop\n      pop\n      jump\t// out\n        /* \"#utility.yul\":297:626   */\n    tag_21:\n        /* \"#utility.yul\":356:362   */\n      0x00\n        /* \"#utility.yul\":405:407   */\n      0x20\n        /* \"#utility.yul\":393:402   */\n      dup3\n        /* \"#utility.yul\":384:391   */\n      dup5\n        /* \"#utility.yul\":380:403   */\n      sub\n        /* \"#utility.yul\":376:408   */\n      slt\n        /* \"#utility.yul\":373:492   */\n      iszero\n      tag_52\n      jumpi\n        /* \"#utility.yul\":411:490   */\n      tag_53\n      tag_54\n      jump\t// in\n    tag_53:\n        /* \"#utility.yul\":373:492   */\n    tag_52:\n        /* \"#utility.yul\":531:532   */\n      0x00\n        /* \"#utility.yul\":556:609   */\n      tag_55\n        /* \"#utility.yul\":601:608   */\n      dup5\n        /* \"#utility.yul\":592:598   */\n      dup3\n        /* \"#utility.yul\":581:590   */\n      dup6\n        /* \"#utility.yul\":577:599   */\n      add\n        /* \"#utility.yul\":556:609   */\n      tag_43\n      jump\t// in\n    tag_55:\n        /* \"#utility.yul\":546:609   */\n      swap2\n      pop\n        /* \"#utility.yul\":502:619   */\n      pop\n        /* \"#utility.yul\":297:626   */\n      swap3\n      swap2\n      pop\n      pop\n      jump\t// out\n        /* \"#utility.yul\":632:1106   */\n    tag_13:\n        /* \"#utility.yul\":700:706   */\n      0x00\n        /* \"#utility.yul\":708:714   */\n      dup1\n        /* \"#utility.yul\":757:759   */\n      0x40\n        /* \"#utility.yul\":745:754   */\n      dup4\n        /* \"#utility.yul\":736:743   */\n      dup6\n        /* \"#utility.yul\":732:755   */\n      sub\n        /* \"#utility.yul\":728:760   */\n      slt\n        /* \"#utility.yul\":725:844   */\n      iszero\n      tag_57\n      jumpi\n        /* \"#utility.yul\":763:842   */\n      tag_58\n      tag_54\n      jump\t// in\n    tag_58:\n        /* \"#utility.yul\":725:844   */\n    tag_57:\n        /* \"#utility.yul\":883:884   */\n      0x00\n        /* \"#utility.yul\":908:961   */\n      tag_59\n        /* \"#utility.yul\":953:960   */\n      dup6\n        /* \"#utility.yul\":944:950   */\n      dup3\n        /* \"#utility.yul\":933:942   */\n      dup7\n        /* \"#utility.yul\":929:951   */\n      add\n        /* \"#utility.yul\":908:961   */\n      tag_43\n      jump\t// in\n    tag_59:\n        /* \"#utility.yul\":898:961   */\n      swap3\n      pop\n        /* \"#utility.yul\":854:971   */\n      pop\n        /* \"#utility.yul\":1010:1012   */\n      0x20\n        /* \"#utility.yul\":1036:1089   */\n      tag_60\n        /* \"#utility.yul\":1081:1088   */\n      dup6\n        /* \"#utility.yul\":1072:1078   */\n      dup3\n        /* \"#utility.yul\":1061:1070   */\n      dup7\n        /* \"#utility.yul\":1057:1079   */\n      add\n        /* \"#utility.yul\":1036:1089   */\n      tag_47\n      jump\t// in\n    tag_60:\n        /* \"#utility.yul\":1026:1089   */\n      swap2\n      pop\n        /* \"#utility.yul\":981:1099   */\n      pop\n        /* \"#utility.yul\":632:1106   */\n      swap3\n      pop\n      swap3\n      swap1\n      pop\n      jump\t// out\n        /* \"#utility.yul\":1112:1230   */\n    tag_61:\n        /* \"#utility.yul\":1199:1223   */\n      tag_63\n        /* \"#utility.yul\":1217:1222   */\n      dup2\n        /* \"#utility.yul\":1199:1223   */\n      tag_64\n      jump\t// in\n    tag_63:\n        /* \"#utility.yul\":1194:1197   */\n      dup3\n        /* \"#utility.yul\":1187:1224   */\n      mstore\n        /* \"#utility.yul\":1112:1230   */\n      pop\n      pop\n      jump\t// out\n        /* \"#utility.yul\":1236:1393   */\n    tag_65:\n        /* \"#utility.yul\":1341:1386   */\n      tag_67\n        /* \"#utility.yul\":1361:1385   */\n      tag_68\n        /* \"#utility.yul\":1379:1384   */\n      dup3\n        /* \"#utility.yul\":1361:1385   */\n      tag_64\n      jump\t// in\n    tag_68:\n        /* \"#utility.yul\":1341:1386   */\n      tag_69\n      jump\t// in\n    tag_67:\n        /* \"#utility.yul\":1336:1339   */\n      dup3\n        /* \"#utility.yul\":1329:1387   */\n      mstore\n        /* \"#utility.yul\":1236:1393   */\n      pop\n      pop\n      jump\t// out\n        /* \"#utility.yul\":1399:1508   */\n    tag_70:\n        /* \"#utility.yul\":1480:1501   */\n      tag_72\n        /* \"#utility.yul\":1495:1500   */\n      dup2\n        /* \"#utility.yul\":1480:1501   */\n      tag_73\n      jump\t// in\n    tag_72:\n        /* \"#utility.yul\":1475:1478   */\n      dup3\n        /* \"#utility.yul\":1468:1502   */\n      mstore\n        /* \"#utility.yul\":1399:1508   */\n      pop\n      pop\n      jump\t// out\n        /* \"#utility.yul\":1514:1632   */\n    tag_74:\n        /* \"#utility.yul\":1601:1625   */\n      tag_76\n        /* \"#utility.yul\":1619:1624   */\n      dup2\n        /* \"#utility.yul\":1601:1625   */\n      tag_77\n      jump\t// in\n    tag_76:\n        /* \"#utility.yul\":1596:1599   */\n      dup3\n        /* \"#utility.yul\":1589:1626   */\n      mstore\n        /* \"#utility.yul\":1514:1632   */\n      pop\n      pop\n      jump\t// out\n        /* \"#utility.yul\":1638:1795   */\n    tag_78:\n        /* \"#utility.yul\":1743:1788   */\n      tag_80\n        /* \"#utility.yul\":1763:1787   */\n      tag_81\n        /* \"#utility.yul\":1781:1786   */\n      dup3\n        /* \"#utility.yul\":1763:1787   */\n      tag_77\n      jump\t// in\n    tag_81:\n        /* \"#utility.yul\":1743:1788   */\n      tag_82\n      jump\t// in\n    tag_80:\n        /* \"#utility.yul\":1738:1741   */\n      dup3\n        /* \"#utility.yul\":1731:1789   */\n      mstore\n        /* \"#utility.yul\":1638:1795   */\n      pop\n      pop\n      jump\t// out\n        /* \"#utility.yul\":1801:2339   */\n    tag_39:\n        /* \"#utility.yul\":1969:1972   */\n      0x00\n        /* \"#utility.yul\":1984:2059   */\n      tag_84\n        /* \"#utility.yul\":2055:2058   */\n      dup3\n        /* \"#utility.yul\":2046:2052   */\n      dup7\n        /* \"#utility.yul\":1984:2059   */\n      tag_78\n      jump\t// in\n    tag_84:\n        /* \"#utility.yul\":2084:2086   */\n      0x20\n        /* \"#utility.yul\":2079:2082   */\n      dup3\n        /* \"#utility.yul\":2075:2087   */\n      add\n        /* \"#utility.yul\":2068:2087   */\n      swap2\n      pop\n        /* \"#utility.yul\":2097:2172   */\n      tag_85\n        /* \"#utility.yul\":2168:2171   */\n      dup3\n        /* \"#utility.yul\":2159:2165   */\n      dup6\n        /* \"#utility.yul\":2097:2172   */\n      tag_78\n      jump\t// in\n    tag_85:\n        /* \"#utility.yul\":2197:2199   */\n      0x20\n        /* \"#utility.yul\":2192:2195   */\n      dup3\n        /* \"#utility.yul\":2188:2200   */\n      add\n        /* \"#utility.yul\":2181:2200   */\n      swap2\n      pop\n        /* \"#utility.yul\":2210:2285   */\n      tag_86\n        /* \"#utility.yul\":2281:2284   */\n      dup3\n        /* \"#utility.yul\":2272:2278   */\n      dup5\n        /* \"#utility.yul\":2210:2285   */\n      tag_65\n      jump\t// in\n    tag_86:\n        /* \"#utility.yul\":2310:2312   */\n      0x14\n        /* \"#utility.yul\":2305:2308   */\n      dup3\n        /* \"#utility.yul\":2301:2313   */\n      add\n        /* \"#utility.yul\":2294:2313   */\n      swap2\n      pop\n        /* \"#utility.yul\":2330:2333   */\n      dup2\n        /* \"#utility.yul\":2323:2333   */\n      swap1\n      pop\n        /* \"#utility.yul\":1801:2339   */\n      swap5\n      swap4\n      pop\n      pop\n      pop\n      pop\n      jump\t// out\n        /* \"#utility.yul\":2345:2567   */\n    tag_10:\n        /* \"#utility.yul\":2438:2442   */\n      0x00\n        /* \"#utility.yul\":2476:2478   */\n      0x20\n        /* \"#utility.yul\":2465:2474   */\n      dup3\n        /* \"#utility.yul\":2461:2479   */\n      add\n        /* \"#utility.yul\":2453:2479   */\n      swap1\n      pop\n        /* \"#utility.yul\":2489:2560   */\n      tag_88\n        /* \"#utility.yul\":2557:2558   */\n      0x00\n        /* \"#utility.yul\":2546:2555   */\n      dup4\n        /* \"#utility.yul\":2542:2559   */\n      add\n        /* \"#utility.yul\":2533:2539   */\n      dup5\n        /* \"#utility.yul\":2489:2560   */\n      tag_61\n      jump\t// in\n    tag_88:\n        /* \"#utility.yul\":2345:2567   */\n      swap3\n      swap2\n      pop\n      pop\n      jump\t// out\n        /* \"#utility.yul\":2573:2783   */\n    tag_24:\n        /* \"#utility.yul\":2660:2664   */\n      0x00\n        /* \"#utility.yul\":2698:2700   */\n      0x20\n        /* \"#utility.yul\":2687:2696   */\n      dup3\n        /* \"#utility.yul\":2683:2701   */\n      add\n        /* \"#utility.yul\":2675:2701   */\n      swap1\n      pop\n        /* \"#utility.yul\":2711:2776   */\n      tag_90\n        /* \"#utility.yul\":2773:2774   */\n      0x00\n        /* \"#utility.yul\":2762:2771   */\n      dup4\n        /* \"#utility.yul\":2758:2775   */\n      add\n        /* \"#utility.yul\":2749:2755   */\n      dup5\n        /* \"#utility.yul\":2711:2776   */\n      tag_70\n      jump\t// in\n    tag_90:\n        /* \"#utility.yul\":2573:2783   */\n      swap3\n      swap2\n      pop\n      pop\n      jump\t// out\n        /* \"#utility.yul\":2789:3011   */\n    tag_16:\n        /* \"#utility.yul\":2882:2886   */\n      0x00\n        /* \"#utility.yul\":2920:2922   */\n      0x20\n        /* \"#utility.yul\":2909:2918   */\n      dup3\n        /* \"#utility.yul\":2905:2923   */\n      add\n        /* \"#utility.yul\":2897:2923   */\n      swap1\n      pop\n        /* \"#utility.yul\":2933:3004   */\n      tag_92\n        /* \"#utility.yul\":3001:3002   */\n      0x00\n        /* \"#utility.yul\":2990:2999   */\n      dup4\n        /* \"#utility.yul\":2986:3003   */\n      add\n        /* \"#utility.yul\":2977:2983   */\n      dup5\n        /* \"#utility.yul\":2933:3004   */\n      tag_74\n      jump\t// in\n    tag_92:\n        /* \"#utility.yul\":2789:3011   */\n      swap3\n      swap2\n      pop\n      pop\n      jump\t// out\n        /* \"#utility.yul\":3098:3403   */\n    tag_32:\n        /* \"#utility.yul\":3138:3141   */\n      0x00\n        /* \"#utility.yul\":3157:3177   */\n      tag_96\n        /* \"#utility.yul\":3175:3176   */\n      dup3\n        /* \"#utility.yul\":3157:3177   */\n      tag_77\n      jump\t// in\n    tag_96:\n        /* \"#utility.yul\":3152:3177   */\n      swap2\n      pop\n        /* \"#utility.yul\":3191:3211   */\n      tag_97\n        /* \"#utility.yul\":3209:3210   */\n      dup4\n        /* \"#utility.yul\":3191:3211   */\n      tag_77\n      jump\t// in\n    tag_97:\n        /* \"#utility.yul\":3186:3211   */\n      swap3\n      pop\n        /* \"#utility.yul\":3345:3346   */\n      dup3\n        /* \"#utility.yul\":3277:3343   */\n      0xffffffffffffffffffffffffffffffffffffffffffffffffffffffffffffffff\n        /* \"#utility.yul\":3273:3347   */\n      sub\n        /* \"#utility.yul\":3270:3271   */\n      dup3\n        /* \"#utility.yul\":3267:3348   */\n      gt\n        /* \"#utility.yul\":3264:3371   */\n      iszero\n      tag_98\n      jumpi\n        /* \"#utility.yul\":3351:3369   */\n      tag_99\n      tag_100\n      jump\t// in\n    tag_99:\n        /* \"#utility.yul\":3264:3371   */\n    tag_98:\n        /* \"#utility.yul\":3395:3396   */\n      dup3\n        /* \"#utility.yul\":3392:3393   */\n      dup3\n        /* \"#utility.yul\":3388:3397   */\n      add\n        /* \"#utility.yul\":3381:3397   */\n      swap1\n      pop\n        /* \"#utility.yul\":3098:3403   */\n      swap3\n      swap2\n      pop\n      pop\n      jump\t// out\n        /* \"#utility.yul\":3409:3505   */\n    tag_64:\n        /* \"#utility.yul\":3446:3453   */\n      0x00\n        /* \"#utility.yul\":3475:3499   */\n      tag_102\n        /* \"#utility.yul\":3493:3498   */\n      dup3\n        /* \"#utility.yul\":3475:3499   */\n      tag_103\n      jump\t// in\n    tag_102:\n        /* \"#utility.yul\":3464:3499   */\n      swap1\n      pop\n        /* \"#utility.yul\":3409:3505   */\n      swap2\n      swap1\n      pop\n      jump\t// out\n        /* \"#utility.yul\":3511:3601   */\n    tag_73:\n        /* \"#utility.yul\":3545:3552   */\n      0x00\n        /* \"#utility.yul\":3588:3593   */\n      dup2\n        /* \"#utility.yul\":3581:3594   */\n      iszero\n        /* \"#utility.yul\":3574:3595   */\n      iszero\n        /* \"#utility.yul\":3563:3595   */\n      swap1\n      pop\n        /* \"#utility.yul\":3511:3601   */\n      swap2\n      swap1\n      pop\n      jump\t// out\n        /* \"#utility.yul\":3607:3733   */\n    tag_103:\n        /* \"#utility.yul\":3644:3651   */\n      0x00\n        /* \"#utility.yul\":3684:3726   */\n      0xffffffffffffffffffffffffffffffffffffffff\n        /* \"#utility.yul\":3677:3682   */\n      dup3\n        /* \"#utility.yul\":3673:3727   */\n      and\n        /* \"#utility.yul\":3662:3727   */\n      swap1\n      pop\n        /* \"#utility.yul\":3607:3733   */\n      swap2\n      swap1\n      pop\n      jump\t// out\n        /* \"#utility.yul\":3739:3816   */\n    tag_77:\n        /* \"#utility.yul\":3776:3783   */\n      0x00\n        /* \"#utility.yul\":3805:3810   */\n      dup2\n        /* \"#utility.yul\":3794:3810   */\n      swap1\n      pop\n        /* \"#utility.yul\":3739:3816   */\n      swap2\n      swap1\n      pop\n      jump\t// out\n        /* \"#utility.yul\":3822:3922   */\n    tag_69:\n        /* \"#utility.yul\":3861:3868   */\n      0x00\n        /* \"#utility.yul\":3890:3916   */\n      tag_108\n        /* \"#utility.yul\":3910:3915   */\n      dup3\n        /* \"#utility.yul\":3890:3916   */\n      tag_109\n      jump\t// in\n    tag_108:\n        /* \"#utility.yul\":3879:3916   */\n      swap1\n      pop\n        /* \"#utility.yul\":3822:3922   */\n      swap2\n      swap1\n      pop\n      jump\t// out\n        /* \"#utility.yul\":3928:4022   */\n    tag_109:\n        /* \"#utility.yul\":3967:3974   */\n      0x00\n        /* \"#utility.yul\":3996:4016   */\n      tag_111\n        /* \"#utility.yul\":4010:4015   */\n      dup3\n        /* \"#utility.yul\":3996:4016   */\n      tag_112\n      jump\t// in\n    tag_111:\n        /* \"#utility.yul\":3985:4016   */\n      swap1\n      pop\n        /* \"#utility.yul\":3928:4022   */\n      swap2\n      swap1\n      pop\n      jump\t// out\n        /* \"#utility.yul\":4028:4107   */\n    tag_82:\n        /* \"#utility.yul\":4067:4074   */\n      0x00\n        /* \"#utility.yul\":4096:4101   */\n      dup2\n        /* \"#utility.yul\":4085:4101   */\n      swap1\n      pop\n        /* \"#utility.yul\":4028:4107   */\n      swap2\n      swap1\n      pop\n      jump\t// out\n        /* \"#utility.yul\":4113:4289   */\n    tag_41:\n        /* \"#utility.yul\":4145:4146   */\n      0x00\n        /* \"#utility.yul\":4162:4182   */\n      tag_115\n        /* \"#utility.yul\":4180:4181   */\n      dup3\n        /* \"#utility.yul\":4162:4182   */\n      tag_77\n      jump\t// in\n    tag_115:\n        /* \"#utility.yul\":4157:4182   */\n      swap2\n      pop\n        /* \"#utility.yul\":4196:4216   */\n      tag_116\n        /* \"#utility.yul\":4214:4215   */\n      dup4\n        /* \"#utility.yul\":4196:4216   */\n      tag_77\n      jump\t// in\n    tag_116:\n        /* \"#utility.yul\":4191:4216   */\n      swap3\n      pop\n        /* \"#utility.yul\":4235:4236   */\n      dup3\n        /* \"#utility.yul\":4225:4260   */\n      tag_117\n      jumpi\n        /* \"#utility.yul\":4240:4258   */\n      tag_118\n      tag_119\n      jump\t// in\n    tag_118:\n        /* \"#utility.yul\":4225:4260   */\n    tag_117:\n        /* \"#utility.yul\":4281:4282   */\n      dup3\n        /* \"#utility.yul\":4278:4279   */\n      dup3\n        /* \"#utility.yul\":4274:4283   */\n      mod\n        /* \"#utility.yul\":4269:4283   */\n      swap1\n      pop\n        /* \"#utility.yul\":4113:4289   */\n      swap3\n      swap2\n      pop\n      pop\n      jump\t// out\n        /* \"#utility.yul\":4295:4475   */\n    tag_100:\n        /* \"#utility.yul\":4343:4420   */\n      0x4e487b7100000000000000000000000000000000000000000000000000000000\n        /* \"#utility.yul\":4340:4341   */\n      0x00\n        /* \"#utility.yul\":4333:4421   */\n      mstore\n        /* \"#utility.yul\":4440:4444   */\n      0x11\n        /* \"#utility.yul\":4437:4438   */\n      0x04\n        /* \"#utility.yul\":4430:4445   */\n      mstore\n        /* \"#utility.yul\":4464:4468   */\n      0x24\n        /* \"#utility.yul\":4461:4462   */\n      0x00\n        /* \"#utility.yul\":4454:4469   */\n      revert\n        /* \"#utility.yul\":4481:4661   */\n    tag_119:\n        /* \"#utility.yul\":4529:4606   */\n      0x4e487b7100000000000000000000000000000000000000000000000000000000\n        /* \"#utility.yul\":4526:4527   */\n      0x00\n        /* \"#utility.yul\":4519:4607   */\n      mstore\n        /* \"#utility.yul\":4626:4630   */\n      0x12\n        /* \"#utility.yul\":4623:4624   */\n      0x04\n        /* \"#utility.yul\":4616:4631   */\n      mstore\n        /* \"#utility.yul\":4650:4654   */\n      0x24\n        /* \"#utility.yul\":4647:4648   */\n      0x00\n        /* \"#utility.yul\":4640:4655   */\n      revert\n        /* \"#utility.yul\":4667:4847   */\n    tag_35:\n        /* \"#utility.yul\":4715:4792   */\n      0x4e487b7100000000000000000000000000000000000000000000000000000000\n        /* \"#utility.yul\":4712:4713   */\n      0x00\n        /* \"#utility.yul\":4705:4793   */\n      mstore\n        /* \"#utility.yul\":4812:4816   */\n      0x32\n        /* \"#utility.yul\":4809:4810   */\n      0x04\n        /* \"#utility.yul\":4802:4817   */\n      mstore\n        /* \"#utility.yul\":4836:4840   */\n      0x24\n        /* \"#utility.yul\":4833:4834   */\n      0x00\n        /* \"#utility.yul\":4826:4841   */\n      revert\n        /* \"#utility.yul\":4976:5093   */\n    tag_54:\n        /* \"#utility.yul\":5085:5086   */\n      0x00\n        /* \"#utility.yul\":5082:5083   */\n      dup1\n        /* \"#utility.yul\":5075:5087   */\n      revert\n        /* \"#utility.yul\":5099:5193   */\n    tag_112:\n        /* \"#utility.yul\":5132:5140   */\n      0x00\n        /* \"#utility.yul\":5180:5185   */\n      dup2\n        /* \"#utility.yul\":5176:5178   */\n      0x60\n        /* \"#utility.yul\":5172:5186   */\n      shl\n        /* \"#utility.yul\":5151:5186   */\n      swap1\n      pop\n        /* \"#utility.yul\":5099:5193   */\n      swap2\n      swap1\n      pop\n      jump\t// out\n        /* \"#utility.yul\":5199:5321   */\n    tag_46:\n        /* \"#utility.yul\":5272:5296   */\n      tag_128\n        /* \"#utility.yul\":5290:5295   */\n      dup2\n        /* \"#utility.yul\":5272:5296   */\n      tag_64\n      jump\t// in\n    tag_128:\n        /* \"#utility.yul\":5265:5270   */\n      dup2\n        /* \"#utility.yul\":5262:5297   */\n      eq\n        /* \"#utility.yul\":5252:5315   */\n      tag_129\n      jumpi\n        /* \"#utility.yul\":5311:5312   */\n      0x00\n        /* \"#utility.yul\":5308:5309   */\n      dup1\n        /* \"#utility.yul\":5301:5313   */\n      revert\n        /* \"#utility.yul\":5252:5315   */\n    tag_129:\n        /* \"#utility.yul\":5199:5321   */\n      pop\n      jump\t// out\n        /* \"#utility.yul\":5327:5449   */\n    tag_50:\n        /* \"#utility.yul\":5400:5424   */\n      tag_131\n        /* \"#utility.yul\":5418:5423   */\n      dup2\n        /* \"#utility.yul\":5400:5424   */\n      tag_77\n      jump\t// in\n    tag_131:\n        /* \"#utility.yul\":5393:5398   */\n      dup2\n        /* \"#utility.yul\":5390:5425   */\n      eq\n        /* \"#utility.yul\":5380:5443   */\n      tag_132\n      jumpi\n        /* \"#utility.yul\":5439:5440   */\n      0x00\n        /* \"#utility.yul\":5436:5437   */\n      dup1\n        /* \"#utility.yul\":5429:5441   */\n      revert\n        /* \"#utility.yul\":5380:5443   */\n    tag_132:\n        /* \"#utility.yul\":5327:5449   */\n      pop\n      jump\t// out\n\n    auxdata: 0xa264697066735822122021fa234ba4714842ba98af1fcb099bb8cba9b5fe35a1c669247754930224614064736f6c63430008070033\n}\n",
				"bytecode": {
					"linkReferences": {},
					"object": "608060405260405180606001604052806040518060400160405280600681526020017f417474616368000000000000000000000000000000000000000000000000000081525081526020016040518060400160405280600781526020017f446566696e63650000000000000000000000000000000000000000000000000081525081526020016040518060400160405280600781526020017f42616c616e63650000000000000000000000000000000000000000000000000081525081525060039060036100ce929190610121565b503480156100db57600080fd5b50336000806101000a81548173ffffffffffffffffffffffffffffffffffffffff021916908373ffffffffffffffffffffffffffffffffffffffff1602179055506102e9565b828054828255906000526020600020908101928215610170579160200282015b8281111561016f57825182908051906020019061015f929190610181565b5091602001919060010190610141565b5b50905061017d9190610207565b5090565b82805461018d90610288565b90600052602060002090601f0160209004810192826101af57600085556101f6565b82601f106101c857805160ff19168380011785556101f6565b828001600101855582156101f6579182015b828111156101f55782518255916020019190600101906101da565b5b509050610203919061022b565b5090565b5b80821115610227576000818161021e9190610248565b50600101610208565b5090565b5b8082111561024457600081600090555060010161022c565b5090565b50805461025490610288565b6000825580601f106102665750610285565b601f016020900490600052602060002090810190610284919061022b565b5b50565b600060028204905060018216806102a057607f821691505b602082108114156102b4576102b36102ba565b5b50919050565b7f4e487b7100000000000000000000000000000000000000000000000000000000600052602260045260246000fd5b6105d4806102f86000396000f3fe608060405234801561001057600080fd5b506004361061004c5760003560e01c80630754617214610051578063abf5f2ed1461006f578063b688a3631461009f578063f887d019146100a9575b600080fd5b6100596100d9565b6040516100669190610383565b60405180910390f35b610089600480360381019061008491906102ab565b6100fd565b60405161009691906103b9565b60405180910390f35b6100a7610125565b005b6100c360048036038101906100be919061027e565b6101f2565b6040516100d0919061039e565b60405180910390f35b60008054906101000a900473ffffffffffffffffffffffffffffffffffffffff1681565b6001602052816000526040600020816003811061011957600080fd5b01600091509150505481565b60011515600260003373ffffffffffffffffffffffffffffffffffffffff1673ffffffffffffffffffffffffffffffffffffffff16815260200190815260200160002060009054906101000a900460ff161515141561018357600080fd5b61018d6005610212565b600561019991906103d4565b600160003373ffffffffffffffffffffffffffffffffffffffff1673ffffffffffffffffffffffffffffffffffffffff1681526020019081526020016000206000600381106101eb576101ea61052f565b5b0181905550565b60026020528060005260406000206000915054906101000a900460ff1681565b60008142443360405160200161022a93929190610346565b6040516020818303038152906040528051906020012060001c61024d91906104a0565b9050919050565b60008135905061026381610570565b92915050565b60008135905061027881610587565b92915050565b6000602082840312156102945761029361055e565b5b60006102a284828501610254565b91505092915050565b600080604083850312156102c2576102c161055e565b5b60006102d085828601610254565b92505060206102e185828601610269565b9150509250929050565b6102f48161042a565b82525050565b61030b6103068261042a565b610472565b82525050565b61031a8161043c565b82525050565b61032981610468565b82525050565b61034061033b82610468565b610496565b82525050565b6000610352828661032f565b602082019150610362828561032f565b60208201915061037282846102fa565b601482019150819050949350505050565b600060208201905061039860008301846102eb565b92915050565b60006020820190506103b36000830184610311565b92915050565b60006020820190506103ce6000830184610320565b92915050565b60006103df82610468565b91506103ea83610468565b9250827fffffffffffffffffffffffffffffffffffffffffffffffffffffffffffffffff0382111561041f5761041e6104d1565b5b828201905092915050565b600061043582610448565b9050919050565b60008115159050919050565b600073ffffffffffffffffffffffffffffffffffffffff82169050919050565b6000819050919050565b600061047d82610484565b9050919050565b600061048f82610563565b9050919050565b6000819050919050565b60006104ab82610468565b91506104b683610468565b9250826104c6576104c5610500565b5b828206905092915050565b7f4e487b7100000000000000000000000000000000000000000000000000000000600052601160045260246000fd5b7f4e487b7100000000000000000000000000000000000000000000000000000000600052601260045260246000fd5b7f4e487b7100000000000000000000000000000000000000000000000000000000600052603260045260246000fd5b600080fd5b60008160601b9050919050565b6105798161042a565b811461058457600080fd5b50565b61059081610468565b811461059b57600080fd5b5056fea264697066735822122021fa234ba4714842ba98af1fcb099bb8cba9b5fe35a1c669247754930224614064736f6c63430008070033",
					"opcodes": "PUSH1 0x80 PUSH1 0x40 MSTORE PUSH1 0x40 MLOAD DUP1 PUSH1 0x60 ADD PUSH1 0x40 MSTORE DUP1 PUSH1 0x40 MLOAD DUP1 PUSH1 0x40 ADD PUSH1 0x40 MSTORE DUP1 PUSH1 0x6 DUP2 MSTORE PUSH1 0x20 ADD PUSH32 0x4174746163680000000000000000000000000000000000000000000000000000 DUP2 MSTORE POP DUP2 MSTORE PUSH1 0x20 ADD PUSH1 0x40 MLOAD DUP1 PUSH1 0x40 ADD PUSH1 0x40 MSTORE DUP1 PUSH1 0x7 DUP2 MSTORE PUSH1 0x20 ADD PUSH32 0x446566696E636500000000000000000000000000000000000000000000000000 DUP2 MSTORE POP DUP2 MSTORE PUSH1 0x20 ADD PUSH1 0x40 MLOAD DUP1 PUSH1 0x40 ADD PUSH1 0x40 MSTORE DUP1 PUSH1 0x7 DUP2 MSTORE PUSH1 0x20 ADD PUSH32 0x42616C616E636500000000000000000000000000000000000000000000000000 DUP2 MSTORE POP DUP2 MSTORE POP PUSH1 0x3 SWAP1 PUSH1 0x3 PUSH2 0xCE SWAP3 SWAP2 SWAP1 PUSH2 0x121 JUMP JUMPDEST POP CALLVALUE DUP1 ISZERO PUSH2 0xDB JUMPI PUSH1 0x0 DUP1 REVERT JUMPDEST POP CALLER PUSH1 0x0 DUP1 PUSH2 0x100 EXP DUP2 SLOAD DUP2 PUSH20 0xFFFFFFFFFFFFFFFFFFFFFFFFFFFFFFFFFFFFFFFF MUL NOT AND SWAP1 DUP4 PUSH20 0xFFFFFFFFFFFFFFFFFFFFFFFFFFFFFFFFFFFFFFFF AND MUL OR SWAP1 SSTORE POP PUSH2 0x2E9 JUMP JUMPDEST DUP3 DUP1 SLOAD DUP3 DUP3 SSTORE SWAP1 PUSH1 0x0 MSTORE PUSH1 0x20 PUSH1 0x0 KECCAK256 SWAP1 DUP2 ADD SWAP3 DUP3 ISZERO PUSH2 0x170 JUMPI SWAP2 PUSH1 0x20 MUL DUP3 ADD JUMPDEST DUP3 DUP2 GT ISZERO PUSH2 0x16F JUMPI DUP3 MLOAD DUP3 SWAP1 DUP1 MLOAD SWAP1 PUSH1 0x20 ADD SWAP1 PUSH2 0x15F SWAP3 SWAP2 SWAP1 PUSH2 0x181 JUMP JUMPDEST POP SWAP2 PUSH1 0x20 ADD SWAP2 SWAP1 PUSH1 0x1 ADD SWAP1 PUSH2 0x141 JUMP JUMPDEST JUMPDEST POP SWAP1 POP PUSH2 0x17D SWAP2 SWAP1 PUSH2 0x207 JUMP JUMPDEST POP SWAP1 JUMP JUMPDEST DUP3 DUP1 SLOAD PUSH2 0x18D SWAP1 PUSH2 0x288 JUMP JUMPDEST SWAP1 PUSH1 0x0 MSTORE PUSH1 0x20 PUSH1 0x0 KECCAK256 SWAP1 PUSH1 0x1F ADD PUSH1 0x20 SWAP1 DIV DUP2 ADD SWAP3 DUP3 PUSH2 0x1AF JUMPI PUSH1 0x0 DUP6 SSTORE PUSH2 0x1F6 JUMP JUMPDEST DUP3 PUSH1 0x1F LT PUSH2 0x1C8 JUMPI DUP1 MLOAD PUSH1 0xFF NOT AND DUP4 DUP1 ADD OR DUP6 SSTORE PUSH2 0x1F6 JUMP JUMPDEST DUP3 DUP1 ADD PUSH1 0x1 ADD DUP6 SSTORE DUP3 ISZERO PUSH2 0x1F6 JUMPI SWAP2 DUP3 ADD JUMPDEST DUP3 DUP2 GT ISZERO PUSH2 0x1F5 JUMPI DUP3 MLOAD DUP3 SSTORE SWAP2 PUSH1 0x20 ADD SWAP2 SWAP1 PUSH1 0x1 ADD SWAP1 PUSH2 0x1DA JUMP JUMPDEST JUMPDEST POP SWAP1 POP PUSH2 0x203 SWAP2 SWAP1 PUSH2 0x22B JUMP JUMPDEST POP SWAP1 JUMP JUMPDEST JUMPDEST DUP1 DUP3 GT ISZERO PUSH2 0x227 JUMPI PUSH1 0x0 DUP2 DUP2 PUSH2 0x21E SWAP2 SWAP1 PUSH2 0x248 JUMP JUMPDEST POP PUSH1 0x1 ADD PUSH2 0x208 JUMP JUMPDEST POP SWAP1 JUMP JUMPDEST JUMPDEST DUP1 DUP3 GT ISZERO PUSH2 0x244 JUMPI PUSH1 0x0 DUP2 PUSH1 0x0 SWAP1 SSTORE POP PUSH1 0x1 ADD PUSH2 0x22C JUMP JUMPDEST POP SWAP1 JUMP JUMPDEST POP DUP1 SLOAD PUSH2 0x254 SWAP1 PUSH2 0x288 JUMP JUMPDEST PUSH1 0x0 DUP3 SSTORE DUP1 PUSH1 0x1F LT PUSH2 0x266 JUMPI POP PUSH2 0x285 JUMP JUMPDEST PUSH1 0x1F ADD PUSH1 0x20 SWAP1 DIV SWAP1 PUSH1 0x0 MSTORE PUSH1 0x20 PUSH1 0x0 KECCAK256 SWAP1 DUP2 ADD SWAP1 PUSH2 0x284 SWAP2 SWAP1 PUSH2 0x22B JUMP JUMPDEST JUMPDEST POP JUMP JUMPDEST PUSH1 0x0 PUSH1 0x2 DUP3 DIV SWAP1 POP PUSH1 0x1 DUP3 AND DUP1 PUSH2 0x2A0 JUMPI PUSH1 0x7F DUP3 AND SWAP2 POP JUMPDEST PUSH1 0x20 DUP3 LT DUP2 EQ ISZERO PUSH2 0x2B4 JUMPI PUSH2 0x2B3 PUSH2 0x2BA JUMP JUMPDEST JUMPDEST POP SWAP2 SWAP1 POP JUMP JUMPDEST PUSH32 0x4E487B7100000000000000000000000000000000000000000000000000000000 PUSH1 0x0 MSTORE PUSH1 0x22 PUSH1 0x4 MSTORE PUSH1 0x24 PUSH1 0x0 REVERT JUMPDEST PUSH2 0x5D4 DUP1 PUSH2 0x2F8 PUSH1 0x0 CODECOPY PUSH1 0x0 RETURN INVALID PUSH1 0x80 PUSH1 0x40 MSTORE CALLVALUE DUP1 ISZERO PUSH2 0x10 JUMPI PUSH1 0x0 DUP1 REVERT JUMPDEST POP PUSH1 0x4 CALLDATASIZE LT PUSH2 0x4C JUMPI PUSH1 0x0 CALLDATALOAD PUSH1 0xE0 SHR DUP1 PUSH4 0x7546172 EQ PUSH2 0x51 JUMPI DUP1 PUSH4 0xABF5F2ED EQ PUSH2 0x6F JUMPI DUP1 PUSH4 0xB688A363 EQ PUSH2 0x9F JUMPI DUP1 PUSH4 0xF887D019 EQ PUSH2 0xA9 JUMPI JUMPDEST PUSH1 0x0 DUP1 REVERT JUMPDEST PUSH2 0x59 PUSH2 0xD9 JUMP JUMPDEST PUSH1 0x40 MLOAD PUSH2 0x66 SWAP2 SWAP1 PUSH2 0x383 JUMP JUMPDEST PUSH1 0x40 MLOAD DUP1 SWAP2 SUB SWAP1 RETURN JUMPDEST PUSH2 0x89 PUSH1 0x4 DUP1 CALLDATASIZE SUB DUP2 ADD SWAP1 PUSH2 0x84 SWAP2 SWAP1 PUSH2 0x2AB JUMP JUMPDEST PUSH2 0xFD JUMP JUMPDEST PUSH1 0x40 MLOAD PUSH2 0x96 SWAP2 SWAP1 PUSH2 0x3B9 JUMP JUMPDEST PUSH1 0x40 MLOAD DUP1 SWAP2 SUB SWAP1 RETURN JUMPDEST PUSH2 0xA7 PUSH2 0x125 JUMP JUMPDEST STOP JUMPDEST PUSH2 0xC3 PUSH1 0x4 DUP1 CALLDATASIZE SUB DUP2 ADD SWAP1 PUSH2 0xBE SWAP2 SWAP1 PUSH2 0x27E JUMP JUMPDEST PUSH2 0x1F2 JUMP JUMPDEST PUSH1 0x40 MLOAD PUSH2 0xD0 SWAP2 SWAP1 PUSH2 0x39E JUMP JUMPDEST PUSH1 0x40 MLOAD DUP1 SWAP2 SUB SWAP1 RETURN JUMPDEST PUSH1 0x0 DUP1 SLOAD SWAP1 PUSH2 0x100 EXP SWAP1 DIV PUSH20 0xFFFFFFFFFFFFFFFFFFFFFFFFFFFFFFFFFFFFFFFF AND DUP2 JUMP JUMPDEST PUSH1 0x1 PUSH1 0x20 MSTORE DUP2 PUSH1 0x0 MSTORE PUSH1 0x40 PUSH1 0x0 KECCAK256 DUP2 PUSH1 0x3 DUP2 LT PUSH2 0x119 JUMPI PUSH1 0x0 DUP1 REVERT JUMPDEST ADD PUSH1 0x0 SWAP2 POP SWAP2 POP POP SLOAD DUP2 JUMP JUMPDEST PUSH1 0x1 ISZERO ISZERO PUSH1 0x2 PUSH1 0x0 CALLER PUSH20 0xFFFFFFFFFFFFFFFFFFFFFFFFFFFFFFFFFFFFFFFF AND PUSH20 0xFFFFFFFFFFFFFFFFFFFFFFFFFFFFFFFFFFFFFFFF AND DUP2 MSTORE PUSH1 0x20 ADD SWAP1 DUP2 MSTORE PUSH1 0x20 ADD PUSH1 0x0 KECCAK256 PUSH1 0x0 SWAP1 SLOAD SWAP1 PUSH2 0x100 EXP SWAP1 DIV PUSH1 0xFF AND ISZERO ISZERO EQ ISZERO PUSH2 0x183 JUMPI PUSH1 0x0 DUP1 REVERT JUMPDEST PUSH2 0x18D PUSH1 0x5 PUSH2 0x212 JUMP JUMPDEST PUSH1 0x5 PUSH2 0x199 SWAP2 SWAP1 PUSH2 0x3D4 JUMP JUMPDEST PUSH1 0x1 PUSH1 0x0 CALLER PUSH20 0xFFFFFFFFFFFFFFFFFFFFFFFFFFFFFFFFFFFFFFFF AND PUSH20 0xFFFFFFFFFFFFFFFFFFFFFFFFFFFFFFFFFFFFFFFF AND DUP2 MSTORE PUSH1 0x20 ADD SWAP1 DUP2 MSTORE PUSH1 0x20 ADD PUSH1 0x0 KECCAK256 PUSH1 0x0 PUSH1 0x3 DUP2 LT PUSH2 0x1EB JUMPI PUSH2 0x1EA PUSH2 0x52F JUMP JUMPDEST JUMPDEST ADD DUP2 SWAP1 SSTORE POP JUMP JUMPDEST PUSH1 0x2 PUSH1 0x20 MSTORE DUP1 PUSH1 0x0 MSTORE PUSH1 0x40 PUSH1 0x0 KECCAK256 PUSH1 0x0 SWAP2 POP SLOAD SWAP1 PUSH2 0x100 EXP SWAP1 DIV PUSH1 0xFF AND DUP2 JUMP JUMPDEST PUSH1 0x0 DUP2 TIMESTAMP DIFFICULTY CALLER PUSH1 0x40 MLOAD PUSH1 0x20 ADD PUSH2 0x22A SWAP4 SWAP3 SWAP2 SWAP1 PUSH2 0x346 JUMP JUMPDEST PUSH1 0x40 MLOAD PUSH1 0x20 DUP2 DUP4 SUB SUB DUP2 MSTORE SWAP1 PUSH1 0x40 MSTORE DUP1 MLOAD SWAP1 PUSH1 0x20 ADD KECCAK256 PUSH1 0x0 SHR PUSH2 0x24D SWAP2 SWAP1 PUSH2 0x4A0 JUMP JUMPDEST SWAP1 POP SWAP2 SWAP1 POP JUMP JUMPDEST PUSH1 0x0 DUP2 CALLDATALOAD SWAP1 POP PUSH2 0x263 DUP2 PUSH2 0x570 JUMP JUMPDEST SWAP3 SWAP2 POP POP JUMP JUMPDEST PUSH1 0x0 DUP2 CALLDATALOAD SWAP1 POP PUSH2 0x278 DUP2 PUSH2 0x587 JUMP JUMPDEST SWAP3 SWAP2 POP POP JUMP JUMPDEST PUSH1 0x0 PUSH1 0x20 DUP3 DUP5 SUB SLT ISZERO PUSH2 0x294 JUMPI PUSH2 0x293 PUSH2 0x55E JUMP JUMPDEST JUMPDEST PUSH1 0x0 PUSH2 0x2A2 DUP5 DUP3 DUP6 ADD PUSH2 0x254 JUMP JUMPDEST SWAP2 POP POP SWAP3 SWAP2 POP POP JUMP JUMPDEST PUSH1 0x0 DUP1 PUSH1 0x40 DUP4 DUP6 SUB SLT ISZERO PUSH2 0x2C2 JUMPI PUSH2 0x2C1 PUSH2 0x55E JUMP JUMPDEST JUMPDEST PUSH1 0x0 PUSH2 0x2D0 DUP6 DUP3 DUP7 ADD PUSH2 0x254 JUMP JUMPDEST SWAP3 POP POP PUSH1 0x20 PUSH2 0x2E1 DUP6 DUP3 DUP7 ADD PUSH2 0x269 JUMP JUMPDEST SWAP2 POP POP SWAP3 POP SWAP3 SWAP1 POP JUMP JUMPDEST PUSH2 0x2F4 DUP2 PUSH2 0x42A JUMP JUMPDEST DUP3 MSTORE POP POP JUMP JUMPDEST PUSH2 0x30B PUSH2 0x306 DUP3 PUSH2 0x42A JUMP JUMPDEST PUSH2 0x472 JUMP JUMPDEST DUP3 MSTORE POP POP JUMP JUMPDEST PUSH2 0x31A DUP2 PUSH2 0x43C JUMP JUMPDEST DUP3 MSTORE POP POP JUMP JUMPDEST PUSH2 0x329 DUP2 PUSH2 0x468 JUMP JUMPDEST DUP3 MSTORE POP POP JUMP JUMPDEST PUSH2 0x340 PUSH2 0x33B DUP3 PUSH2 0x468 JUMP JUMPDEST PUSH2 0x496 JUMP JUMPDEST DUP3 MSTORE POP POP JUMP JUMPDEST PUSH1 0x0 PUSH2 0x352 DUP3 DUP7 PUSH2 0x32F JUMP JUMPDEST PUSH1 0x20 DUP3 ADD SWAP2 POP PUSH2 0x362 DUP3 DUP6 PUSH2 0x32F JUMP JUMPDEST PUSH1 0x20 DUP3 ADD SWAP2 POP PUSH2 0x372 DUP3 DUP5 PUSH2 0x2FA JUMP JUMPDEST PUSH1 0x14 DUP3 ADD SWAP2 POP DUP2 SWAP1 POP SWAP5 SWAP4 POP POP POP POP JUMP JUMPDEST PUSH1 0x0 PUSH1 0x20 DUP3 ADD SWAP1 POP PUSH2 0x398 PUSH1 0x0 DUP4 ADD DUP5 PUSH2 0x2EB JUMP JUMPDEST SWAP3 SWAP2 POP POP JUMP JUMPDEST PUSH1 0x0 PUSH1 0x20 DUP3 ADD SWAP1 POP PUSH2 0x3B3 PUSH1 0x0 DUP4 ADD DUP5 PUSH2 0x311 JUMP JUMPDEST SWAP3 SWAP2 POP POP JUMP JUMPDEST PUSH1 0x0 PUSH1 0x20 DUP3 ADD SWAP1 POP PUSH2 0x3CE PUSH1 0x0 DUP4 ADD DUP5 PUSH2 0x320 JUMP JUMPDEST SWAP3 SWAP2 POP POP JUMP JUMPDEST PUSH1 0x0 PUSH2 0x3DF DUP3 PUSH2 0x468 JUMP JUMPDEST SWAP2 POP PUSH2 0x3EA DUP4 PUSH2 0x468 JUMP JUMPDEST SWAP3 POP DUP3 PUSH32 0xFFFFFFFFFFFFFFFFFFFFFFFFFFFFFFFFFFFFFFFFFFFFFFFFFFFFFFFFFFFFFFFF SUB DUP3 GT ISZERO PUSH2 0x41F JUMPI PUSH2 0x41E PUSH2 0x4D1 JUMP JUMPDEST JUMPDEST DUP3 DUP3 ADD SWAP1 POP SWAP3 SWAP2 POP POP JUMP JUMPDEST PUSH1 0x0 PUSH2 0x435 DUP3 PUSH2 0x448 JUMP JUMPDEST SWAP1 POP SWAP2 SWAP1 POP JUMP JUMPDEST PUSH1 0x0 DUP2 ISZERO ISZERO SWAP1 POP SWAP2 SWAP1 POP JUMP JUMPDEST PUSH1 0x0 PUSH20 0xFFFFFFFFFFFFFFFFFFFFFFFFFFFFFFFFFFFFFFFF DUP3 AND SWAP1 POP SWAP2 SWAP1 POP JUMP JUMPDEST PUSH1 0x0 DUP2 SWAP1 POP SWAP2 SWAP1 POP JUMP JUMPDEST PUSH1 0x0 PUSH2 0x47D DUP3 PUSH2 0x484 JUMP JUMPDEST SWAP1 POP SWAP2 SWAP1 POP JUMP JUMPDEST PUSH1 0x0 PUSH2 0x48F DUP3 PUSH2 0x563 JUMP JUMPDEST SWAP1 POP SWAP2 SWAP1 POP JUMP JUMPDEST PUSH1 0x0 DUP2 SWAP1 POP SWAP2 SWAP1 POP JUMP JUMPDEST PUSH1 0x0 PUSH2 0x4AB DUP3 PUSH2 0x468 JUMP JUMPDEST SWAP2 POP PUSH2 0x4B6 DUP4 PUSH2 0x468 JUMP JUMPDEST SWAP3 POP DUP3 PUSH2 0x4C6 JUMPI PUSH2 0x4C5 PUSH2 0x500 JUMP JUMPDEST JUMPDEST DUP3 DUP3 MOD SWAP1 POP SWAP3 SWAP2 POP POP JUMP JUMPDEST PUSH32 0x4E487B7100000000000000000000000000000000000000000000000000000000 PUSH1 0x0 MSTORE PUSH1 0x11 PUSH1 0x4 MSTORE PUSH1 0x24 PUSH1 0x0 REVERT JUMPDEST PUSH32 0x4E487B7100000000000000000000000000000000000000000000000000000000 PUSH1 0x0 MSTORE PUSH1 0x12 PUSH1 0x4 MSTORE PUSH1 0x24 PUSH1 0x0 REVERT JUMPDEST PUSH32 0x4E487B7100000000000000000000000000000000000000000000000000000000 PUSH1 0x0 MSTORE PUSH1 0x32 PUSH1 0x4 MSTORE PUSH1 0x24 PUSH1 0x0 REVERT JUMPDEST PUSH1 0x0 DUP1 REVERT JUMPDEST PUSH1 0x0 DUP2 PUSH1 0x60 SHL SWAP1 POP SWAP2 SWAP1 POP JUMP JUMPDEST PUSH2 0x579 DUP2 PUSH2 0x42A JUMP JUMPDEST DUP2 EQ PUSH2 0x584 JUMPI PUSH1 0x0 DUP1 REVERT JUMPDEST POP JUMP JUMPDEST PUSH2 0x590 DUP2 PUSH2 0x468 JUMP JUMPDEST DUP2 EQ PUSH2 0x59B JUMPI PUSH1 0x0 DUP1 REVERT JUMPDEST POP JUMP INVALID LOG2 PUSH5 0x6970667358 0x22 SLT KECCAK256 0x21 STATICCALL 0x23 0x4B LOG4 PUSH18 0x4842BA98AF1FCB099BB8CBA9B5FE35A1C669 0x24 PUSH24 0x54930224614064736F6C6343000807003300000000000000 "
				},
				"gasEstimates": {
					"creation": {
						"codeDepositCost": "298400",
						"executionCost": "infinite",
						"totalCost": "infinite"
					},
					"external": {
						"Stats(address,uint256)": "infinite",
						"join()": "infinite",
						"joined(address)": "2889",
						"minter()": "2489"
					},
					"internal": {
						"random(uint256)": "infinite"
					}
				},
				"methodIdentifiers": {
					"Stats(address,uint256)": "abf5f2ed",
					"join()": "b688a363",
					"joined(address)": "f887d019",
					"minter()": "07546172"
				}
			},
			"storageLayout": {
				"storage": [
					{
						"astId": 3,
						"contract": "AttackGame.sol:AttackGame",
						"label": "minter",
						"offset": 0,
						"slot": "0",
						"type": "t_address"
					},
					{
						"astId": 9,
						"contract": "AttackGame.sol:AttackGame",
						"label": "Stats",
						"offset": 0,
						"slot": "1",
						"type": "t_mapping(t_address,t_array(t_uint256)3_storage)"
					},
					{
						"astId": 13,
						"contract": "AttackGame.sol:AttackGame",
						"label": "joined",
						"offset": 0,
						"slot": "2",
						"type": "t_mapping(t_address,t_bool)"
					},
					{
						"astId": 20,
						"contract": "AttackGame.sol:AttackGame",
						"label": "StatsInfo",
						"offset": 0,
						"slot": "3",
						"type": "t_array(t_string_storage)dyn_storage"
					}
				],
				"types": {
					"t_address": {
						"encoding": "inplace",
						"label": "address",
						"numberOfBytes": "20"
					},
					"t_array(t_string_storage)dyn_storage": {
						"base": "t_string_storage",
						"encoding": "dynamic_array",
						"label": "string[]",
						"numberOfBytes": "32"
					},
					"t_array(t_uint256)3_storage": {
						"base": "t_uint256",
						"encoding": "inplace",
						"label": "uint256[3]",
						"numberOfBytes": "96"
					},
					"t_bool": {
						"encoding": "inplace",
						"label": "bool",
						"numberOfBytes": "1"
					},
					"t_mapping(t_address,t_array(t_uint256)3_storage)": {
						"encoding": "mapping",
						"key": "t_address",
						"label": "mapping(address => uint256[3])",
						"numberOfBytes": "32",
						"value": "t_array(t_uint256)3_storage"
					},
					"t_mapping(t_address,t_bool)": {
						"encoding": "mapping",
						"key": "t_address",
						"label": "mapping(address => bool)",
						"numberOfBytes": "32",
						"value": "t_bool"
					},
					"t_string_storage": {
						"encoding": "bytes",
						"label": "string",
						"numberOfBytes": "32"
					},
					"t_uint256": {
						"encoding": "inplace",
						"label": "uint256",
						"numberOfBytes": "32"
					}
				}
			},
			"userdoc": {
				"kind": "user",
				"methods": {},
				"version": 1
			}
		}
	}
}