{
	"AttackGame.sol": {
		"AttackGame": {
			"abi": [
				{
					"inputs": [],
					"stateMutability": "nonpayable",
					"type": "constructor"
				},
				{
					"anonymous": false,
					"inputs": [
						{
							"indexed": false,
							"internalType": "address",
							"name": "from",
							"type": "address"
						},
						{
							"indexed": false,
							"internalType": "address",
							"name": "to",
							"type": "address"
						},
						{
							"indexed": false,
							"internalType": "uint256",
							"name": "amount",
							"type": "uint256"
						},
						{
							"indexed": false,
							"internalType": "string",
							"name": "Currency",
							"type": "string"
						}
					],
					"name": "Sent",
					"type": "event"
				},
				{
					"inputs": [
						{
							"internalType": "address",
							"name": "victim",
							"type": "address"
						}
					],
					"name": "Attack",
					"outputs": [],
					"stateMutability": "nonpayable",
					"type": "function"
				},
				{
					"inputs": [
						{
							"internalType": "address",
							"name": "",
							"type": "address"
						},
						{
							"internalType": "uint256",
							"name": "",
							"type": "uint256"
						}
					],
					"name": "Stats",
					"outputs": [
						{
							"internalType": "int256",
							"name": "",
							"type": "int256"
						}
					],
					"stateMutability": "view",
					"type": "function"
				},
				{
					"inputs": [
						{
							"internalType": "string",
							"name": "name",
							"type": "string"
						}
					],
					"name": "join",
					"outputs": [],
					"stateMutability": "nonpayable",
					"type": "function"
				},
				{
					"inputs": [],
					"name": "minter",
					"outputs": [
						{
							"internalType": "address",
							"name": "",
							"type": "address"
						}
					],
					"stateMutability": "view",
					"type": "function"
				},
				{
					"inputs": [
						{
							"internalType": "address",
							"name": "",
							"type": "address"
						}
					],
					"name": "names",
					"outputs": [
						{
							"internalType": "string",
							"name": "",
							"type": "string"
						}
					],
					"stateMutability": "view",
					"type": "function"
				}
			],
			"devdoc": {
				"kind": "dev",
				"methods": {},
				"version": 1
			},
			"evm": {
				"assembly": "    /* \"AttackGame.sol\":64:2186  contract AttackGame {\r... */\n  mstore(0x40, 0x80)\n    /* \"AttackGame.sol\":373:424  string[] StatsInfo = [\"Attach\",\"Defince\",\"Balance\"] */\n  mload(0x40)\n  dup1\n  0x60\n  add\n  0x40\n  mstore\n  dup1\n  mload(0x40)\n  dup1\n  0x40\n  add\n  0x40\n  mstore\n  dup1\n  0x06\n  dup2\n  mstore\n  0x20\n  add\n  0x4174746163680000000000000000000000000000000000000000000000000000\n  dup2\n  mstore\n  pop\n  dup2\n  mstore\n  0x20\n  add\n  mload(0x40)\n  dup1\n  0x40\n  add\n  0x40\n  mstore\n  dup1\n  0x07\n  dup2\n  mstore\n  0x20\n  add\n  0x446566696e636500000000000000000000000000000000000000000000000000\n  dup2\n  mstore\n  pop\n  dup2\n  mstore\n  0x20\n  add\n  mload(0x40)\n  dup1\n  0x40\n  add\n  0x40\n  mstore\n  dup1\n  0x07\n  dup2\n  mstore\n  0x20\n  add\n  0x42616c616e636500000000000000000000000000000000000000000000000000\n  dup2\n  mstore\n  pop\n  dup2\n  mstore\n  pop\n  0x04\n  swap1\n  0x03\n  tag_1\n  swap3\n  swap2\n  swap1\n  tag_2\n  jump\t// in\ntag_1:\n  pop\n    /* \"AttackGame.sol\":559:611  constructor() {\r... */\n  callvalue\n  dup1\n  iszero\n  tag_3\n  jumpi\n  0x00\n  dup1\n  revert\ntag_3:\n  pop\n    /* \"AttackGame.sol\":593:603  msg.sender */\n  caller\n    /* \"AttackGame.sol\":584:590  minter */\n  0x00\n  dup1\n    /* \"AttackGame.sol\":584:603  minter = msg.sender */\n  0x0100\n  exp\n  dup2\n  sload\n  dup2\n  0xffffffffffffffffffffffffffffffffffffffff\n  mul\n  not\n  and\n  swap1\n  dup4\n  0xffffffffffffffffffffffffffffffffffffffff\n  and\n  mul\n  or\n  swap1\n  sstore\n  pop\n    /* \"AttackGame.sol\":64:2186  contract AttackGame {\r... */\n  jump(tag_6)\ntag_2:\n  dup3\n  dup1\n  sload\n  dup3\n  dup3\n  sstore\n  swap1\n  0x00\n  mstore\n  keccak256(0x00, 0x20)\n  swap1\n  dup2\n  add\n  swap3\n  dup3\n  iszero\n  tag_7\n  jumpi\n  swap2\n  0x20\n  mul\n  dup3\n  add\ntag_8:\n  dup3\n  dup2\n  gt\n  iszero\n  tag_9\n  jumpi\n  dup3\n  mload\n  dup3\n  swap1\n  dup1\n  mload\n  swap1\n  0x20\n  add\n  swap1\n  tag_10\n  swap3\n  swap2\n  swap1\n  tag_11\n  jump\t// in\ntag_10:\n  pop\n  swap2\n  0x20\n  add\n  swap2\n  swap1\n  0x01\n  add\n  swap1\n  jump(tag_8)\ntag_9:\ntag_7:\n  pop\n  swap1\n  pop\n  tag_12\n  swap2\n  swap1\n  tag_13\n  jump\t// in\ntag_12:\n  pop\n  swap1\n  jump\t// out\ntag_11:\n  dup3\n  dup1\n  sload\n  tag_14\n  swap1\n  tag_15\n  jump\t// in\ntag_14:\n  swap1\n  0x00\n  mstore\n  keccak256(0x00, 0x20)\n  swap1\n  0x1f\n  add\n  0x20\n  swap1\n  div\n  dup2\n  add\n  swap3\n  dup3\n  tag_17\n  jumpi\n  0x00\n  dup6\n  sstore\n  jump(tag_16)\ntag_17:\n  dup3\n  0x1f\n  lt\n  tag_18\n  jumpi\n  dup1\n  mload\n  not(0xff)\n  and\n  dup4\n  dup1\n  add\n  or\n  dup6\n  sstore\n  jump(tag_16)\ntag_18:\n  dup3\n  dup1\n  add\n  0x01\n  add\n  dup6\n  sstore\n  dup3\n  iszero\n  tag_16\n  jumpi\n  swap2\n  dup3\n  add\ntag_19:\n  dup3\n  dup2\n  gt\n  iszero\n  tag_20\n  jumpi\n  dup3\n  mload\n  dup3\n  sstore\n  swap2\n  0x20\n  add\n  swap2\n  swap1\n  0x01\n  add\n  swap1\n  jump(tag_19)\ntag_20:\ntag_16:\n  pop\n  swap1\n  pop\n  tag_21\n  swap2\n  swap1\n  tag_22\n  jump\t// in\ntag_21:\n  pop\n  swap1\n  jump\t// out\ntag_13:\ntag_23:\n  dup1\n  dup3\n  gt\n  iszero\n  tag_24\n  jumpi\n  0x00\n  dup2\n  dup2\n  tag_25\n  swap2\n  swap1\n  tag_26\n  jump\t// in\ntag_25:\n  pop\n  0x01\n  add\n  jump(tag_23)\ntag_24:\n  pop\n  swap1\n  jump\t// out\ntag_22:\ntag_27:\n  dup1\n  dup3\n  gt\n  iszero\n  tag_28\n  jumpi\n  0x00\n  dup2\n  0x00\n  swap1\n  sstore\n  pop\n  0x01\n  add\n  jump(tag_27)\ntag_28:\n  pop\n  swap1\n  jump\t// out\ntag_26:\n  pop\n  dup1\n  sload\n  tag_29\n  swap1\n  tag_15\n  jump\t// in\ntag_29:\n  0x00\n  dup3\n  sstore\n  dup1\n  0x1f\n  lt\n  tag_31\n  jumpi\n  pop\n  jump(tag_30)\ntag_31:\n  0x1f\n  add\n  0x20\n  swap1\n  div\n  swap1\n  0x00\n  mstore\n  keccak256(0x00, 0x20)\n  swap1\n  dup2\n  add\n  swap1\n  tag_32\n  swap2\n  swap1\n  tag_22\n  jump\t// in\ntag_32:\ntag_30:\n  pop\n  jump\t// out\n    /* \"#utility.yul\":7:327   */\ntag_15:\n    /* \"#utility.yul\":51:57   */\n  0x00\n    /* \"#utility.yul\":88:89   */\n  0x02\n    /* \"#utility.yul\":82:86   */\n  dup3\n    /* \"#utility.yul\":78:90   */\n  div\n    /* \"#utility.yul\":68:90   */\n  swap1\n  pop\n    /* \"#utility.yul\":135:136   */\n  0x01\n    /* \"#utility.yul\":129:133   */\n  dup3\n    /* \"#utility.yul\":125:137   */\n  and\n    /* \"#utility.yul\":156:174   */\n  dup1\n    /* \"#utility.yul\":146:227   */\n  tag_35\n  jumpi\n    /* \"#utility.yul\":212:216   */\n  0x7f\n    /* \"#utility.yul\":204:210   */\n  dup3\n    /* \"#utility.yul\":200:217   */\n  and\n    /* \"#utility.yul\":190:217   */\n  swap2\n  pop\n    /* \"#utility.yul\":146:227   */\ntag_35:\n    /* \"#utility.yul\":274:276   */\n  0x20\n    /* \"#utility.yul\":266:272   */\n  dup3\n    /* \"#utility.yul\":263:277   */\n  lt\n    /* \"#utility.yul\":243:261   */\n  dup2\n    /* \"#utility.yul\":240:278   */\n  eq\n    /* \"#utility.yul\":237:321   */\n  iszero\n  tag_36\n  jumpi\n    /* \"#utility.yul\":293:311   */\n  tag_37\n  tag_38\n  jump\t// in\ntag_37:\n    /* \"#utility.yul\":237:321   */\ntag_36:\n    /* \"#utility.yul\":58:327   */\n  pop\n    /* \"#utility.yul\":7:327   */\n  swap2\n  swap1\n  pop\n  jump\t// out\n    /* \"#utility.yul\":333:513   */\ntag_38:\n    /* \"#utility.yul\":381:458   */\n  0x4e487b7100000000000000000000000000000000000000000000000000000000\n    /* \"#utility.yul\":378:379   */\n  0x00\n    /* \"#utility.yul\":371:459   */\n  mstore\n    /* \"#utility.yul\":478:482   */\n  0x22\n    /* \"#utility.yul\":475:476   */\n  0x04\n    /* \"#utility.yul\":468:483   */\n  mstore\n    /* \"#utility.yul\":502:506   */\n  0x24\n    /* \"#utility.yul\":499:500   */\n  0x00\n    /* \"#utility.yul\":492:507   */\n  revert\n    /* \"AttackGame.sol\":64:2186  contract AttackGame {\r... */\ntag_6:\n  dataSize(sub_0)\n  dup1\n  dataOffset(sub_0)\n  0x00\n  codecopy\n  0x00\n  return\nstop\n\nsub_0: assembly {\n        /* \"AttackGame.sol\":64:2186  contract AttackGame {\r... */\n      mstore(0x40, 0x80)\n      callvalue\n      dup1\n      iszero\n      tag_1\n      jumpi\n      0x00\n      dup1\n      revert\n    tag_1:\n      pop\n      jumpi(tag_2, lt(calldatasize, 0x04))\n      shr(0xe0, calldataload(0x00))\n      dup1\n      0x07546172\n      eq\n      tag_3\n      jumpi\n      dup1\n      0x5cf3d346\n      eq\n      tag_4\n      jumpi\n      dup1\n      0x6a786b07\n      eq\n      tag_5\n      jumpi\n      dup1\n      0xabf5f2ed\n      eq\n      tag_6\n      jumpi\n      dup1\n      0xbc346c9c\n      eq\n      tag_7\n      jumpi\n    tag_2:\n      0x00\n      dup1\n      revert\n        /* \"AttackGame.sol\":91:112  address public minter */\n    tag_3:\n      tag_8\n      tag_9\n      jump\t// in\n    tag_8:\n      mload(0x40)\n      tag_10\n      swap2\n      swap1\n      tag_11\n      jump\t// in\n    tag_10:\n      mload(0x40)\n      dup1\n      swap2\n      sub\n      swap1\n      return\n        /* \"AttackGame.sol\":326:366  mapping (address => string) public names */\n    tag_4:\n      tag_12\n      0x04\n      dup1\n      calldatasize\n      sub\n      dup2\n      add\n      swap1\n      tag_13\n      swap2\n      swap1\n      tag_14\n      jump\t// in\n    tag_13:\n      tag_15\n      jump\t// in\n    tag_12:\n      mload(0x40)\n      tag_16\n      swap2\n      swap1\n      tag_17\n      jump\t// in\n    tag_16:\n      mload(0x40)\n      dup1\n      swap2\n      sub\n      swap1\n      return\n        /* \"AttackGame.sol\":878:1181  function join(string memory name) public {\r... */\n    tag_5:\n      tag_18\n      0x04\n      dup1\n      calldatasize\n      sub\n      dup2\n      add\n      swap1\n      tag_19\n      swap2\n      swap1\n      tag_20\n      jump\t// in\n    tag_19:\n      tag_21\n      jump\t// in\n    tag_18:\n      stop\n        /* \"AttackGame.sol\":240:280  mapping (address => int[3]) public Stats */\n    tag_6:\n      tag_22\n      0x04\n      dup1\n      calldatasize\n      sub\n      dup2\n      add\n      swap1\n      tag_23\n      swap2\n      swap1\n      tag_24\n      jump\t// in\n    tag_23:\n      tag_25\n      jump\t// in\n    tag_22:\n      mload(0x40)\n      tag_26\n      swap2\n      swap1\n      tag_27\n      jump\t// in\n    tag_26:\n      mload(0x40)\n      dup1\n      swap2\n      sub\n      swap1\n      return\n        /* \"AttackGame.sol\":1205:2169  function Attack(address victim) public  {\r... */\n    tag_7:\n      tag_28\n      0x04\n      dup1\n      calldatasize\n      sub\n      dup2\n      add\n      swap1\n      tag_29\n      swap2\n      swap1\n      tag_14\n      jump\t// in\n    tag_29:\n      tag_30\n      jump\t// in\n    tag_28:\n      stop\n        /* \"AttackGame.sol\":91:112  address public minter */\n    tag_9:\n      0x00\n      dup1\n      sload\n      swap1\n      0x0100\n      exp\n      swap1\n      div\n      0xffffffffffffffffffffffffffffffffffffffff\n      and\n      dup2\n      jump\t// out\n        /* \"AttackGame.sol\":326:366  mapping (address => string) public names */\n    tag_15:\n      mstore(0x20, 0x03)\n      dup1\n      0x00\n      mstore\n      keccak256(0x00, 0x40)\n      0x00\n      swap2\n      pop\n      swap1\n      pop\n      dup1\n      sload\n      tag_31\n      swap1\n      tag_32\n      jump\t// in\n    tag_31:\n      dup1\n      0x1f\n      add\n      0x20\n      dup1\n      swap2\n      div\n      mul\n      0x20\n      add\n      mload(0x40)\n      swap1\n      dup2\n      add\n      0x40\n      mstore\n      dup1\n      swap3\n      swap2\n      swap1\n      dup2\n      dup2\n      mstore\n      0x20\n      add\n      dup3\n      dup1\n      sload\n      tag_33\n      swap1\n      tag_32\n      jump\t// in\n    tag_33:\n      dup1\n      iszero\n      tag_34\n      jumpi\n      dup1\n      0x1f\n      lt\n      tag_35\n      jumpi\n      0x0100\n      dup1\n      dup4\n      sload\n      div\n      mul\n      dup4\n      mstore\n      swap2\n      0x20\n      add\n      swap2\n      jump(tag_34)\n    tag_35:\n      dup3\n      add\n      swap2\n      swap1\n      0x00\n      mstore\n      keccak256(0x00, 0x20)\n      swap1\n    tag_36:\n      dup2\n      sload\n      dup2\n      mstore\n      swap1\n      0x01\n      add\n      swap1\n      0x20\n      add\n      dup1\n      dup4\n      gt\n      tag_36\n      jumpi\n      dup3\n      swap1\n      sub\n      0x1f\n      and\n      dup3\n      add\n      swap2\n    tag_34:\n      pop\n      pop\n      pop\n      pop\n      pop\n      dup2\n      jump\t// out\n        /* \"AttackGame.sol\":878:1181  function join(string memory name) public {\r... */\n    tag_21:\n        /* \"AttackGame.sol\":960:964  true */\n      0x01\n        /* \"AttackGame.sol\":938:964  joined[msg.sender] != true */\n      iszero\n      iszero\n        /* \"AttackGame.sol\":938:944  joined */\n      0x02\n        /* \"AttackGame.sol\":938:956  joined[msg.sender] */\n      0x00\n        /* \"AttackGame.sol\":945:955  msg.sender */\n      caller\n        /* \"AttackGame.sol\":938:956  joined[msg.sender] */\n      0xffffffffffffffffffffffffffffffffffffffff\n      and\n      0xffffffffffffffffffffffffffffffffffffffff\n      and\n      dup2\n      mstore\n      0x20\n      add\n      swap1\n      dup2\n      mstore\n      0x20\n      add\n      0x00\n      keccak256\n      0x00\n      swap1\n      sload\n      swap1\n      0x0100\n      exp\n      swap1\n      div\n      0xff\n      and\n        /* \"AttackGame.sol\":938:964  joined[msg.sender] != true */\n      iszero\n      iszero\n      eq\n      iszero\n        /* \"AttackGame.sol\":930:965  require(joined[msg.sender] != true) */\n      tag_38\n      jumpi\n      0x00\n      dup1\n      revert\n    tag_38:\n        /* \"AttackGame.sol\":997:1001  true */\n      0x01\n        /* \"AttackGame.sol\":976:982  joined */\n      0x02\n        /* \"AttackGame.sol\":976:994  joined[msg.sender] */\n      0x00\n        /* \"AttackGame.sol\":983:993  msg.sender */\n      caller\n        /* \"AttackGame.sol\":976:994  joined[msg.sender] */\n      0xffffffffffffffffffffffffffffffffffffffff\n      and\n      0xffffffffffffffffffffffffffffffffffffffff\n      and\n      dup2\n      mstore\n      0x20\n      add\n      swap1\n      dup2\n      mstore\n      0x20\n      add\n      0x00\n      keccak256\n      0x00\n        /* \"AttackGame.sol\":976:1001  joined[msg.sender] = true */\n      0x0100\n      exp\n      dup2\n      sload\n      dup2\n      0xff\n      mul\n      not\n      and\n      swap1\n      dup4\n      iszero\n      iszero\n      mul\n      or\n      swap1\n      sstore\n      pop\n        /* \"AttackGame.sol\":1041:1050  random(5) */\n      tag_39\n        /* \"AttackGame.sol\":1048:1049  5 */\n      0x05\n        /* \"AttackGame.sol\":1041:1047  random */\n      tag_40\n        /* \"AttackGame.sol\":1041:1050  random(5) */\n      jump\t// in\n    tag_39:\n        /* \"AttackGame.sol\":1035:1036  5 */\n      0x05\n        /* \"AttackGame.sol\":1035:1051  5+int(random(5)) */\n      tag_41\n      swap2\n      swap1\n      tag_42\n      jump\t// in\n    tag_41:\n        /* \"AttackGame.sol\":1012:1017  Stats */\n      0x01\n        /* \"AttackGame.sol\":1012:1029  Stats[msg.sender] */\n      0x00\n        /* \"AttackGame.sol\":1018:1028  msg.sender */\n      caller\n        /* \"AttackGame.sol\":1012:1029  Stats[msg.sender] */\n      0xffffffffffffffffffffffffffffffffffffffff\n      and\n      0xffffffffffffffffffffffffffffffffffffffff\n      and\n      dup2\n      mstore\n      0x20\n      add\n      swap1\n      dup2\n      mstore\n      0x20\n      add\n      0x00\n      keccak256\n        /* \"AttackGame.sol\":1030:1031  0 */\n      0x00\n        /* \"AttackGame.sol\":1012:1032  Stats[msg.sender][0] */\n      0x03\n      dup2\n      lt\n      tag_43\n      jumpi\n      tag_44\n      tag_45\n      jump\t// in\n    tag_44:\n    tag_43:\n      add\n        /* \"AttackGame.sol\":1012:1051  Stats[msg.sender][0] = 5+int(random(5)) */\n      dup2\n      swap1\n      sstore\n      pop\n        /* \"AttackGame.sol\":1091:1100  random(5) */\n      tag_47\n        /* \"AttackGame.sol\":1098:1099  5 */\n      0x05\n        /* \"AttackGame.sol\":1091:1097  random */\n      tag_40\n        /* \"AttackGame.sol\":1091:1100  random(5) */\n      jump\t// in\n    tag_47:\n        /* \"AttackGame.sol\":1085:1086  5 */\n      0x05\n        /* \"AttackGame.sol\":1085:1101  5+int(random(5)) */\n      tag_48\n      swap2\n      swap1\n      tag_42\n      jump\t// in\n    tag_48:\n        /* \"AttackGame.sol\":1062:1067  Stats */\n      0x01\n        /* \"AttackGame.sol\":1062:1079  Stats[msg.sender] */\n      0x00\n        /* \"AttackGame.sol\":1068:1078  msg.sender */\n      caller\n        /* \"AttackGame.sol\":1062:1079  Stats[msg.sender] */\n      0xffffffffffffffffffffffffffffffffffffffff\n      and\n      0xffffffffffffffffffffffffffffffffffffffff\n      and\n      dup2\n      mstore\n      0x20\n      add\n      swap1\n      dup2\n      mstore\n      0x20\n      add\n      0x00\n      keccak256\n        /* \"AttackGame.sol\":1080:1081  1 */\n      0x01\n        /* \"AttackGame.sol\":1062:1082  Stats[msg.sender][1] */\n      0x03\n      dup2\n      lt\n      tag_49\n      jumpi\n      tag_50\n      tag_45\n      jump\t// in\n    tag_50:\n    tag_49:\n      add\n        /* \"AttackGame.sol\":1062:1101  Stats[msg.sender][1] = 5+int(random(5)) */\n      dup2\n      swap1\n      sstore\n      pop\n        /* \"AttackGame.sol\":1135:1138  100 */\n      0x64\n        /* \"AttackGame.sol\":1112:1117  Stats */\n      0x01\n        /* \"AttackGame.sol\":1112:1129  Stats[msg.sender] */\n      0x00\n        /* \"AttackGame.sol\":1118:1128  msg.sender */\n      caller\n        /* \"AttackGame.sol\":1112:1129  Stats[msg.sender] */\n      0xffffffffffffffffffffffffffffffffffffffff\n      and\n      0xffffffffffffffffffffffffffffffffffffffff\n      and\n      dup2\n      mstore\n      0x20\n      add\n      swap1\n      dup2\n      mstore\n      0x20\n      add\n      0x00\n      keccak256\n        /* \"AttackGame.sol\":1130:1131  2 */\n      0x02\n        /* \"AttackGame.sol\":1112:1132  Stats[msg.sender][2] */\n      0x03\n      dup2\n      lt\n      tag_52\n      jumpi\n      tag_53\n      tag_45\n      jump\t// in\n    tag_53:\n    tag_52:\n      add\n        /* \"AttackGame.sol\":1112:1138  Stats[msg.sender][2] = 100 */\n      dup2\n      swap1\n      sstore\n      pop\n        /* \"AttackGame.sol\":1169:1173  name */\n      dup1\n        /* \"AttackGame.sol\":1149:1154  names */\n      0x03\n        /* \"AttackGame.sol\":1149:1166  names[msg.sender] */\n      0x00\n        /* \"AttackGame.sol\":1155:1165  msg.sender */\n      caller\n        /* \"AttackGame.sol\":1149:1166  names[msg.sender] */\n      0xffffffffffffffffffffffffffffffffffffffff\n      and\n      0xffffffffffffffffffffffffffffffffffffffff\n      and\n      dup2\n      mstore\n      0x20\n      add\n      swap1\n      dup2\n      mstore\n      0x20\n      add\n      0x00\n      keccak256\n        /* \"AttackGame.sol\":1149:1173  names[msg.sender] = name */\n      swap1\n      dup1\n      mload\n      swap1\n      0x20\n      add\n      swap1\n      tag_55\n      swap3\n      swap2\n      swap1\n      tag_56\n      jump\t// in\n    tag_55:\n      pop\n        /* \"AttackGame.sol\":878:1181  function join(string memory name) public {\r... */\n      pop\n      jump\t// out\n        /* \"AttackGame.sol\":240:280  mapping (address => int[3]) public Stats */\n    tag_25:\n      mstore(0x20, 0x01)\n      dup2\n      0x00\n      mstore\n      keccak256(0x00, 0x40)\n      dup2\n      0x03\n      dup2\n      lt\n      tag_57\n      jumpi\n      0x00\n      dup1\n      revert\n    tag_57:\n      add\n      0x00\n      swap2\n      pop\n      swap2\n      pop\n      pop\n      sload\n      dup2\n      jump\t// out\n        /* \"AttackGame.sol\":1205:2169  function Attack(address victim) public  {\r... */\n    tag_30:\n        /* \"AttackGame.sol\":1282:1286  true */\n      0x01\n        /* \"AttackGame.sol\":1264:1286  joined[victim] == true */\n      iszero\n      iszero\n        /* \"AttackGame.sol\":1264:1270  joined */\n      0x02\n        /* \"AttackGame.sol\":1264:1278  joined[victim] */\n      0x00\n        /* \"AttackGame.sol\":1271:1277  victim */\n      dup4\n        /* \"AttackGame.sol\":1264:1278  joined[victim] */\n      0xffffffffffffffffffffffffffffffffffffffff\n      and\n      0xffffffffffffffffffffffffffffffffffffffff\n      and\n      dup2\n      mstore\n      0x20\n      add\n      swap1\n      dup2\n      mstore\n      0x20\n      add\n      0x00\n      keccak256\n      0x00\n      swap1\n      sload\n      swap1\n      0x0100\n      exp\n      swap1\n      div\n      0xff\n      and\n        /* \"AttackGame.sol\":1264:1286  joined[victim] == true */\n      iszero\n      iszero\n      eq\n        /* \"AttackGame.sol\":1256:1287  require(joined[victim] == true) */\n      tag_60\n      jumpi\n      0x00\n      dup1\n      revert\n    tag_60:\n        /* \"AttackGame.sol\":1298:1308  int result */\n      0x00\n        /* \"AttackGame.sol\":1334:1339  Stats */\n      0x01\n        /* \"AttackGame.sol\":1334:1347  Stats[victim] */\n      0x00\n        /* \"AttackGame.sol\":1340:1346  victim */\n      dup4\n        /* \"AttackGame.sol\":1334:1347  Stats[victim] */\n      0xffffffffffffffffffffffffffffffffffffffff\n      and\n      0xffffffffffffffffffffffffffffffffffffffff\n      and\n      dup2\n      mstore\n      0x20\n      add\n      swap1\n      dup2\n      mstore\n      0x20\n      add\n      0x00\n      keccak256\n        /* \"AttackGame.sol\":1348:1349  1 */\n      0x01\n        /* \"AttackGame.sol\":1334:1350  Stats[victim][1] */\n      0x03\n      dup2\n      lt\n      tag_61\n      jumpi\n      tag_62\n      tag_45\n      jump\t// in\n    tag_62:\n    tag_61:\n      add\n      sload\n        /* \"AttackGame.sol\":1311:1316  Stats */\n      0x01\n        /* \"AttackGame.sol\":1311:1328  Stats[msg.sender] */\n      0x00\n        /* \"AttackGame.sol\":1317:1327  msg.sender */\n      caller\n        /* \"AttackGame.sol\":1311:1328  Stats[msg.sender] */\n      0xffffffffffffffffffffffffffffffffffffffff\n      and\n      0xffffffffffffffffffffffffffffffffffffffff\n      and\n      dup2\n      mstore\n      0x20\n      add\n      swap1\n      dup2\n      mstore\n      0x20\n      add\n      0x00\n      keccak256\n        /* \"AttackGame.sol\":1329:1330  0 */\n      0x00\n        /* \"AttackGame.sol\":1311:1331  Stats[msg.sender][0] */\n      0x03\n      dup2\n      lt\n      tag_64\n      jumpi\n      tag_65\n      tag_45\n      jump\t// in\n    tag_65:\n    tag_64:\n      add\n      sload\n        /* \"AttackGame.sol\":1311:1350  Stats[msg.sender][0] - Stats[victim][1] */\n      tag_67\n      swap2\n      swap1\n      tag_68\n      jump\t// in\n    tag_67:\n        /* \"AttackGame.sol\":1298:1350  int result = Stats[msg.sender][0] - Stats[victim][1] */\n      swap1\n      pop\n        /* \"AttackGame.sol\":1374:1375  0 */\n      0x00\n        /* \"AttackGame.sol\":1367:1373  result */\n      dup2\n        /* \"AttackGame.sol\":1367:1375  result>0 */\n      sgt\n        /* \"AttackGame.sol\":1363:2142  if (result>0){\r... */\n      iszero\n      tag_69\n      jumpi\n        /* \"AttackGame.sol\":1459:1460  2 */\n      0x02\n        /* \"AttackGame.sol\":1452:1458  result */\n      dup2\n        /* \"AttackGame.sol\":1452:1460  result*2 */\n      tag_70\n      swap2\n      swap1\n      tag_71\n      jump\t// in\n    tag_70:\n        /* \"AttackGame.sol\":1432:1437  Stats */\n      0x01\n        /* \"AttackGame.sol\":1432:1445  Stats[victim] */\n      0x00\n        /* \"AttackGame.sol\":1438:1444  victim */\n      dup5\n        /* \"AttackGame.sol\":1432:1445  Stats[victim] */\n      0xffffffffffffffffffffffffffffffffffffffff\n      and\n      0xffffffffffffffffffffffffffffffffffffffff\n      and\n      dup2\n      mstore\n      0x20\n      add\n      swap1\n      dup2\n      mstore\n      0x20\n      add\n      0x00\n      keccak256\n        /* \"AttackGame.sol\":1446:1447  2 */\n      0x02\n        /* \"AttackGame.sol\":1432:1448  Stats[victim][2] */\n      0x03\n      dup2\n      lt\n      tag_72\n      jumpi\n      tag_73\n      tag_45\n      jump\t// in\n    tag_73:\n    tag_72:\n      add\n      0x00\n        /* \"AttackGame.sol\":1432:1460  Stats[victim][2] -= result*2 */\n      dup3\n      dup3\n      sload\n      tag_75\n      swap2\n      swap1\n      tag_68\n      jump\t// in\n    tag_75:\n      swap3\n      pop\n      pop\n      dup2\n      swap1\n      sstore\n      pop\n        /* \"AttackGame.sol\":1546:1547  2 */\n      0x02\n        /* \"AttackGame.sol\":1539:1545  result */\n      dup2\n        /* \"AttackGame.sol\":1539:1547  result/2 */\n      tag_76\n      swap2\n      swap1\n      tag_77\n      jump\t// in\n    tag_76:\n        /* \"AttackGame.sol\":1515:1520  Stats */\n      0x01\n        /* \"AttackGame.sol\":1515:1532  Stats[msg.sender] */\n      0x00\n        /* \"AttackGame.sol\":1521:1531  msg.sender */\n      caller\n        /* \"AttackGame.sol\":1515:1532  Stats[msg.sender] */\n      0xffffffffffffffffffffffffffffffffffffffff\n      and\n      0xffffffffffffffffffffffffffffffffffffffff\n      and\n      dup2\n      mstore\n      0x20\n      add\n      swap1\n      dup2\n      mstore\n      0x20\n      add\n      0x00\n      keccak256\n        /* \"AttackGame.sol\":1533:1534  2 */\n      0x02\n        /* \"AttackGame.sol\":1515:1535  Stats[msg.sender][2] */\n      0x03\n      dup2\n      lt\n      tag_78\n      jumpi\n      tag_79\n      tag_45\n      jump\t// in\n    tag_79:\n    tag_78:\n      add\n      0x00\n        /* \"AttackGame.sol\":1515:1547  Stats[msg.sender][2] -= result/2 */\n      dup3\n      dup3\n      sload\n      tag_81\n      swap2\n      swap1\n      tag_68\n      jump\t// in\n    tag_81:\n      swap3\n      pop\n      pop\n      dup2\n      swap1\n      sstore\n      pop\n        /* \"AttackGame.sol\":1640:1642  10 */\n      0x0a\n        /* \"AttackGame.sol\":1616:1621  Stats */\n      0x01\n        /* \"AttackGame.sol\":1616:1633  Stats[msg.sender] */\n      0x00\n        /* \"AttackGame.sol\":1622:1632  msg.sender */\n      caller\n        /* \"AttackGame.sol\":1616:1633  Stats[msg.sender] */\n      0xffffffffffffffffffffffffffffffffffffffff\n      and\n      0xffffffffffffffffffffffffffffffffffffffff\n      and\n      dup2\n      mstore\n      0x20\n      add\n      swap1\n      dup2\n      mstore\n      0x20\n      add\n      0x00\n      keccak256\n        /* \"AttackGame.sol\":1634:1635  0 */\n      0x00\n        /* \"AttackGame.sol\":1616:1636  Stats[msg.sender][0] */\n      0x03\n      dup2\n      lt\n      tag_82\n      jumpi\n      tag_83\n      tag_45\n      jump\t// in\n    tag_83:\n    tag_82:\n      add\n      0x00\n        /* \"AttackGame.sol\":1616:1642  Stats[msg.sender][0] += 10 */\n      dup3\n      dup3\n      sload\n      tag_85\n      swap2\n      swap1\n      tag_42\n      jump\t// in\n    tag_85:\n      swap3\n      pop\n      pop\n      dup2\n      swap1\n      sstore\n      pop\n        /* \"AttackGame.sol\":1730:1732  10 */\n      0x0a\n        /* \"AttackGame.sol\":1710:1715  Stats */\n      0x01\n        /* \"AttackGame.sol\":1710:1723  Stats[victim] */\n      0x00\n        /* \"AttackGame.sol\":1716:1722  victim */\n      dup5\n        /* \"AttackGame.sol\":1710:1723  Stats[victim] */\n      0xffffffffffffffffffffffffffffffffffffffff\n      and\n      0xffffffffffffffffffffffffffffffffffffffff\n      and\n      dup2\n      mstore\n      0x20\n      add\n      swap1\n      dup2\n      mstore\n      0x20\n      add\n      0x00\n      keccak256\n        /* \"AttackGame.sol\":1724:1725  1 */\n      0x01\n        /* \"AttackGame.sol\":1710:1726  Stats[victim][1] */\n      0x03\n      dup2\n      lt\n      tag_86\n      jumpi\n      tag_87\n      tag_45\n      jump\t// in\n    tag_87:\n    tag_86:\n      add\n      0x00\n        /* \"AttackGame.sol\":1710:1732  Stats[victim][1] += 10 */\n      dup3\n      dup3\n      sload\n      tag_89\n      swap2\n      swap1\n      tag_42\n      jump\t// in\n    tag_89:\n      swap3\n      pop\n      pop\n      dup2\n      swap1\n      sstore\n      pop\n        /* \"AttackGame.sol\":1363:2142  if (result>0){\r... */\n      jump(tag_90)\n    tag_69:\n        /* \"AttackGame.sol\":1774:1776  -1 */\n      0xffffffffffffffffffffffffffffffffffffffffffffffffffffffffffffffff\n        /* \"AttackGame.sol\":1764:1776  result *= -1 */\n      dup2\n      tag_91\n      swap2\n      swap1\n      tag_71\n      jump\t// in\n    tag_91:\n      swap1\n      pop\n        /* \"AttackGame.sol\":1859:1860  2 */\n      0x02\n        /* \"AttackGame.sol\":1852:1858  result */\n      dup2\n        /* \"AttackGame.sol\":1852:1860  result/2 */\n      tag_92\n      swap2\n      swap1\n      tag_77\n      jump\t// in\n    tag_92:\n        /* \"AttackGame.sol\":1832:1837  Stats */\n      0x01\n        /* \"AttackGame.sol\":1832:1845  Stats[victim] */\n      0x00\n        /* \"AttackGame.sol\":1838:1844  victim */\n      dup5\n        /* \"AttackGame.sol\":1832:1845  Stats[victim] */\n      0xffffffffffffffffffffffffffffffffffffffff\n      and\n      0xffffffffffffffffffffffffffffffffffffffff\n      and\n      dup2\n      mstore\n      0x20\n      add\n      swap1\n      dup2\n      mstore\n      0x20\n      add\n      0x00\n      keccak256\n        /* \"AttackGame.sol\":1846:1847  2 */\n      0x02\n        /* \"AttackGame.sol\":1832:1848  Stats[victim][2] */\n      0x03\n      dup2\n      lt\n      tag_93\n      jumpi\n      tag_94\n      tag_45\n      jump\t// in\n    tag_94:\n    tag_93:\n      add\n      0x00\n        /* \"AttackGame.sol\":1832:1860  Stats[victim][2] -= result/2 */\n      dup3\n      dup3\n      sload\n      tag_96\n      swap2\n      swap1\n      tag_68\n      jump\t// in\n    tag_96:\n      swap3\n      pop\n      pop\n      dup2\n      swap1\n      sstore\n      pop\n        /* \"AttackGame.sol\":1939:1945  result */\n      dup1\n        /* \"AttackGame.sol\":1915:1920  Stats */\n      0x01\n        /* \"AttackGame.sol\":1915:1932  Stats[msg.sender] */\n      0x00\n        /* \"AttackGame.sol\":1921:1931  msg.sender */\n      caller\n        /* \"AttackGame.sol\":1915:1932  Stats[msg.sender] */\n      0xffffffffffffffffffffffffffffffffffffffff\n      and\n      0xffffffffffffffffffffffffffffffffffffffff\n      and\n      dup2\n      mstore\n      0x20\n      add\n      swap1\n      dup2\n      mstore\n      0x20\n      add\n      0x00\n      keccak256\n        /* \"AttackGame.sol\":1933:1934  2 */\n      0x02\n        /* \"AttackGame.sol\":1915:1935  Stats[msg.sender][2] */\n      0x03\n      dup2\n      lt\n      tag_97\n      jumpi\n      tag_98\n      tag_45\n      jump\t// in\n    tag_98:\n    tag_97:\n      add\n      0x00\n        /* \"AttackGame.sol\":1915:1945  Stats[msg.sender][2] -= result */\n      dup3\n      dup3\n      sload\n      tag_100\n      swap2\n      swap1\n      tag_68\n      jump\t// in\n    tag_100:\n      swap3\n      pop\n      pop\n      dup2\n      swap1\n      sstore\n      pop\n        /* \"AttackGame.sol\":2128:2130  20 */\n      0x14\n        /* \"AttackGame.sol\":2108:2113  Stats */\n      0x01\n        /* \"AttackGame.sol\":2108:2121  Stats[victim] */\n      0x00\n        /* \"AttackGame.sol\":2114:2120  victim */\n      dup5\n        /* \"AttackGame.sol\":2108:2121  Stats[victim] */\n      0xffffffffffffffffffffffffffffffffffffffff\n      and\n      0xffffffffffffffffffffffffffffffffffffffff\n      and\n      dup2\n      mstore\n      0x20\n      add\n      swap1\n      dup2\n      mstore\n      0x20\n      add\n      0x00\n      keccak256\n        /* \"AttackGame.sol\":2122:2123  1 */\n      0x01\n        /* \"AttackGame.sol\":2108:2124  Stats[victim][1] */\n      0x03\n      dup2\n      lt\n      tag_101\n      jumpi\n      tag_102\n      tag_45\n      jump\t// in\n    tag_102:\n    tag_101:\n      add\n      0x00\n        /* \"AttackGame.sol\":2108:2130  Stats[victim][1] += 20 */\n      dup3\n      dup3\n      sload\n      tag_104\n      swap2\n      swap1\n      tag_42\n      jump\t// in\n    tag_104:\n      swap3\n      pop\n      pop\n      dup2\n      swap1\n      sstore\n      pop\n        /* \"AttackGame.sol\":1363:2142  if (result>0){\r... */\n    tag_90:\n        /* \"AttackGame.sol\":1245:2169  {\r... */\n      pop\n        /* \"AttackGame.sol\":1205:2169  function Attack(address victim) public  {\r... */\n      pop\n      jump\t// out\n        /* \"AttackGame.sol\":682:850  function random(uint number) private view returns(uint){\r... */\n    tag_40:\n        /* \"AttackGame.sol\":732:736  uint */\n      0x00\n        /* \"AttackGame.sol\":836:842  number */\n      dup2\n        /* \"AttackGame.sol\":787:802  block.timestamp */\n      timestamp\n        /* \"AttackGame.sol\":803:819  block.difficulty */\n      difficulty\n        /* \"AttackGame.sol\":820:830  msg.sender */\n      caller\n        /* \"AttackGame.sol\":770:831  abi.encodePacked(block.timestamp,block.difficulty,msg.sender) */\n      add(0x20, mload(0x40))\n      tag_106\n      swap4\n      swap3\n      swap2\n      swap1\n      tag_107\n      jump\t// in\n    tag_106:\n      mload(0x40)\n      0x20\n      dup2\n      dup4\n      sub\n      sub\n      dup2\n      mstore\n      swap1\n      0x40\n      mstore\n        /* \"AttackGame.sol\":760:832  keccak256(abi.encodePacked(block.timestamp,block.difficulty,msg.sender)) */\n      dup1\n      mload\n      swap1\n      0x20\n      add\n      keccak256\n        /* \"AttackGame.sol\":755:833  uint(keccak256(abi.encodePacked(block.timestamp,block.difficulty,msg.sender))) */\n      0x00\n      shr\n        /* \"AttackGame.sol\":755:842  uint(keccak256(abi.encodePacked(block.timestamp,block.difficulty,msg.sender))) % number */\n      tag_108\n      swap2\n      swap1\n      tag_109\n      jump\t// in\n    tag_108:\n        /* \"AttackGame.sol\":748:842  return uint(keccak256(abi.encodePacked(block.timestamp,block.difficulty,msg.sender))) % number */\n      swap1\n      pop\n        /* \"AttackGame.sol\":682:850  function random(uint number) private view returns(uint){\r... */\n      swap2\n      swap1\n      pop\n      jump\t// out\n    tag_56:\n      dup3\n      dup1\n      sload\n      tag_110\n      swap1\n      tag_32\n      jump\t// in\n    tag_110:\n      swap1\n      0x00\n      mstore\n      keccak256(0x00, 0x20)\n      swap1\n      0x1f\n      add\n      0x20\n      swap1\n      div\n      dup2\n      add\n      swap3\n      dup3\n      tag_112\n      jumpi\n      0x00\n      dup6\n      sstore\n      jump(tag_111)\n    tag_112:\n      dup3\n      0x1f\n      lt\n      tag_113\n      jumpi\n      dup1\n      mload\n      not(0xff)\n      and\n      dup4\n      dup1\n      add\n      or\n      dup6\n      sstore\n      jump(tag_111)\n    tag_113:\n      dup3\n      dup1\n      add\n      0x01\n      add\n      dup6\n      sstore\n      dup3\n      iszero\n      tag_111\n      jumpi\n      swap2\n      dup3\n      add\n    tag_114:\n      dup3\n      dup2\n      gt\n      iszero\n      tag_115\n      jumpi\n      dup3\n      mload\n      dup3\n      sstore\n      swap2\n      0x20\n      add\n      swap2\n      swap1\n      0x01\n      add\n      swap1\n      jump(tag_114)\n    tag_115:\n    tag_111:\n      pop\n      swap1\n      pop\n      tag_116\n      swap2\n      swap1\n      tag_117\n      jump\t// in\n    tag_116:\n      pop\n      swap1\n      jump\t// out\n    tag_117:\n    tag_118:\n      dup1\n      dup3\n      gt\n      iszero\n      tag_119\n      jumpi\n      0x00\n      dup2\n      0x00\n      swap1\n      sstore\n      pop\n      0x01\n      add\n      jump(tag_118)\n    tag_119:\n      pop\n      swap1\n      jump\t// out\n        /* \"#utility.yul\":7:419   */\n    tag_121:\n        /* \"#utility.yul\":85:90   */\n      0x00\n        /* \"#utility.yul\":110:176   */\n      tag_123\n        /* \"#utility.yul\":126:175   */\n      tag_124\n        /* \"#utility.yul\":168:174   */\n      dup5\n        /* \"#utility.yul\":126:175   */\n      tag_125\n      jump\t// in\n    tag_124:\n        /* \"#utility.yul\":110:176   */\n      tag_126\n      jump\t// in\n    tag_123:\n        /* \"#utility.yul\":101:176   */\n      swap1\n      pop\n        /* \"#utility.yul\":199:205   */\n      dup3\n        /* \"#utility.yul\":192:197   */\n      dup2\n        /* \"#utility.yul\":185:206   */\n      mstore\n        /* \"#utility.yul\":237:241   */\n      0x20\n        /* \"#utility.yul\":230:235   */\n      dup2\n        /* \"#utility.yul\":226:242   */\n      add\n        /* \"#utility.yul\":275:278   */\n      dup5\n        /* \"#utility.yul\":266:272   */\n      dup5\n        /* \"#utility.yul\":261:264   */\n      dup5\n        /* \"#utility.yul\":257:273   */\n      add\n        /* \"#utility.yul\":254:279   */\n      gt\n        /* \"#utility.yul\":251:363   */\n      iszero\n      tag_127\n      jumpi\n        /* \"#utility.yul\":282:361   */\n      tag_128\n      tag_129\n      jump\t// in\n    tag_128:\n        /* \"#utility.yul\":251:363   */\n    tag_127:\n        /* \"#utility.yul\":372:413   */\n      tag_130\n        /* \"#utility.yul\":406:412   */\n      dup5\n        /* \"#utility.yul\":401:404   */\n      dup3\n        /* \"#utility.yul\":396:399   */\n      dup6\n        /* \"#utility.yul\":372:413   */\n      tag_131\n      jump\t// in\n    tag_130:\n        /* \"#utility.yul\":91:419   */\n      pop\n        /* \"#utility.yul\":7:419   */\n      swap4\n      swap3\n      pop\n      pop\n      pop\n      jump\t// out\n        /* \"#utility.yul\":425:564   */\n    tag_132:\n        /* \"#utility.yul\":471:476   */\n      0x00\n        /* \"#utility.yul\":509:515   */\n      dup2\n        /* \"#utility.yul\":496:516   */\n      calldataload\n        /* \"#utility.yul\":487:516   */\n      swap1\n      pop\n        /* \"#utility.yul\":525:558   */\n      tag_134\n        /* \"#utility.yul\":552:557   */\n      dup2\n        /* \"#utility.yul\":525:558   */\n      tag_135\n      jump\t// in\n    tag_134:\n        /* \"#utility.yul\":425:564   */\n      swap3\n      swap2\n      pop\n      pop\n      jump\t// out\n        /* \"#utility.yul\":584:924   */\n    tag_136:\n        /* \"#utility.yul\":640:645   */\n      0x00\n        /* \"#utility.yul\":689:692   */\n      dup3\n        /* \"#utility.yul\":682:686   */\n      0x1f\n        /* \"#utility.yul\":674:680   */\n      dup4\n        /* \"#utility.yul\":670:687   */\n      add\n        /* \"#utility.yul\":666:693   */\n      slt\n        /* \"#utility.yul\":656:778   */\n      tag_138\n      jumpi\n        /* \"#utility.yul\":697:776   */\n      tag_139\n      tag_140\n      jump\t// in\n    tag_139:\n        /* \"#utility.yul\":656:778   */\n    tag_138:\n        /* \"#utility.yul\":814:820   */\n      dup2\n        /* \"#utility.yul\":801:821   */\n      calldataload\n        /* \"#utility.yul\":839:918   */\n      tag_141\n        /* \"#utility.yul\":914:917   */\n      dup5\n        /* \"#utility.yul\":906:912   */\n      dup3\n        /* \"#utility.yul\":899:903   */\n      0x20\n        /* \"#utility.yul\":891:897   */\n      dup7\n        /* \"#utility.yul\":887:904   */\n      add\n        /* \"#utility.yul\":839:918   */\n      tag_121\n      jump\t// in\n    tag_141:\n        /* \"#utility.yul\":830:918   */\n      swap2\n      pop\n        /* \"#utility.yul\":646:924   */\n      pop\n        /* \"#utility.yul\":584:924   */\n      swap3\n      swap2\n      pop\n      pop\n      jump\t// out\n        /* \"#utility.yul\":930:1069   */\n    tag_142:\n        /* \"#utility.yul\":976:981   */\n      0x00\n        /* \"#utility.yul\":1014:1020   */\n      dup2\n        /* \"#utility.yul\":1001:1021   */\n      calldataload\n        /* \"#utility.yul\":992:1021   */\n      swap1\n      pop\n        /* \"#utility.yul\":1030:1063   */\n      tag_144\n        /* \"#utility.yul\":1057:1062   */\n      dup2\n        /* \"#utility.yul\":1030:1063   */\n      tag_145\n      jump\t// in\n    tag_144:\n        /* \"#utility.yul\":930:1069   */\n      swap3\n      swap2\n      pop\n      pop\n      jump\t// out\n        /* \"#utility.yul\":1075:1404   */\n    tag_14:\n        /* \"#utility.yul\":1134:1140   */\n      0x00\n        /* \"#utility.yul\":1183:1185   */\n      0x20\n        /* \"#utility.yul\":1171:1180   */\n      dup3\n        /* \"#utility.yul\":1162:1169   */\n      dup5\n        /* \"#utility.yul\":1158:1181   */\n      sub\n        /* \"#utility.yul\":1154:1186   */\n      slt\n        /* \"#utility.yul\":1151:1270   */\n      iszero\n      tag_147\n      jumpi\n        /* \"#utility.yul\":1189:1268   */\n      tag_148\n      tag_149\n      jump\t// in\n    tag_148:\n        /* \"#utility.yul\":1151:1270   */\n    tag_147:\n        /* \"#utility.yul\":1309:1310   */\n      0x00\n        /* \"#utility.yul\":1334:1387   */\n      tag_150\n        /* \"#utility.yul\":1379:1386   */\n      dup5\n        /* \"#utility.yul\":1370:1376   */\n      dup3\n        /* \"#utility.yul\":1359:1368   */\n      dup6\n        /* \"#utility.yul\":1355:1377   */\n      add\n        /* \"#utility.yul\":1334:1387   */\n      tag_132\n      jump\t// in\n    tag_150:\n        /* \"#utility.yul\":1324:1387   */\n      swap2\n      pop\n        /* \"#utility.yul\":1280:1397   */\n      pop\n        /* \"#utility.yul\":1075:1404   */\n      swap3\n      swap2\n      pop\n      pop\n      jump\t// out\n        /* \"#utility.yul\":1410:1884   */\n    tag_24:\n        /* \"#utility.yul\":1478:1484   */\n      0x00\n        /* \"#utility.yul\":1486:1492   */\n      dup1\n        /* \"#utility.yul\":1535:1537   */\n      0x40\n        /* \"#utility.yul\":1523:1532   */\n      dup4\n        /* \"#utility.yul\":1514:1521   */\n      dup6\n        /* \"#utility.yul\":1510:1533   */\n      sub\n        /* \"#utility.yul\":1506:1538   */\n      slt\n        /* \"#utility.yul\":1503:1622   */\n      iszero\n      tag_152\n      jumpi\n        /* \"#utility.yul\":1541:1620   */\n      tag_153\n      tag_149\n      jump\t// in\n    tag_153:\n        /* \"#utility.yul\":1503:1622   */\n    tag_152:\n        /* \"#utility.yul\":1661:1662   */\n      0x00\n        /* \"#utility.yul\":1686:1739   */\n      tag_154\n        /* \"#utility.yul\":1731:1738   */\n      dup6\n        /* \"#utility.yul\":1722:1728   */\n      dup3\n        /* \"#utility.yul\":1711:1720   */\n      dup7\n        /* \"#utility.yul\":1707:1729   */\n      add\n        /* \"#utility.yul\":1686:1739   */\n      tag_132\n      jump\t// in\n    tag_154:\n        /* \"#utility.yul\":1676:1739   */\n      swap3\n      pop\n        /* \"#utility.yul\":1632:1749   */\n      pop\n        /* \"#utility.yul\":1788:1790   */\n      0x20\n        /* \"#utility.yul\":1814:1867   */\n      tag_155\n        /* \"#utility.yul\":1859:1866   */\n      dup6\n        /* \"#utility.yul\":1850:1856   */\n      dup3\n        /* \"#utility.yul\":1839:1848   */\n      dup7\n        /* \"#utility.yul\":1835:1857   */\n      add\n        /* \"#utility.yul\":1814:1867   */\n      tag_142\n      jump\t// in\n    tag_155:\n        /* \"#utility.yul\":1804:1867   */\n      swap2\n      pop\n        /* \"#utility.yul\":1759:1877   */\n      pop\n        /* \"#utility.yul\":1410:1884   */\n      swap3\n      pop\n      swap3\n      swap1\n      pop\n      jump\t// out\n        /* \"#utility.yul\":1890:2399   */\n    tag_20:\n        /* \"#utility.yul\":1959:1965   */\n      0x00\n        /* \"#utility.yul\":2008:2010   */\n      0x20\n        /* \"#utility.yul\":1996:2005   */\n      dup3\n        /* \"#utility.yul\":1987:1994   */\n      dup5\n        /* \"#utility.yul\":1983:2006   */\n      sub\n        /* \"#utility.yul\":1979:2011   */\n      slt\n        /* \"#utility.yul\":1976:2095   */\n      iszero\n      tag_157\n      jumpi\n        /* \"#utility.yul\":2014:2093   */\n      tag_158\n      tag_149\n      jump\t// in\n    tag_158:\n        /* \"#utility.yul\":1976:2095   */\n    tag_157:\n        /* \"#utility.yul\":2162:2163   */\n      0x00\n        /* \"#utility.yul\":2151:2160   */\n      dup3\n        /* \"#utility.yul\":2147:2164   */\n      add\n        /* \"#utility.yul\":2134:2165   */\n      calldataload\n        /* \"#utility.yul\":2192:2210   */\n      0xffffffffffffffff\n        /* \"#utility.yul\":2184:2190   */\n      dup2\n        /* \"#utility.yul\":2181:2211   */\n      gt\n        /* \"#utility.yul\":2178:2295   */\n      iszero\n      tag_159\n      jumpi\n        /* \"#utility.yul\":2214:2293   */\n      tag_160\n      tag_161\n      jump\t// in\n    tag_160:\n        /* \"#utility.yul\":2178:2295   */\n    tag_159:\n        /* \"#utility.yul\":2319:2382   */\n      tag_162\n        /* \"#utility.yul\":2374:2381   */\n      dup5\n        /* \"#utility.yul\":2365:2371   */\n      dup3\n        /* \"#utility.yul\":2354:2363   */\n      dup6\n        /* \"#utility.yul\":2350:2372   */\n      add\n        /* \"#utility.yul\":2319:2382   */\n      tag_136\n      jump\t// in\n    tag_162:\n        /* \"#utility.yul\":2309:2382   */\n      swap2\n      pop\n        /* \"#utility.yul\":2105:2392   */\n      pop\n        /* \"#utility.yul\":1890:2399   */\n      swap3\n      swap2\n      pop\n      pop\n      jump\t// out\n        /* \"#utility.yul\":2405:2523   */\n    tag_163:\n        /* \"#utility.yul\":2492:2516   */\n      tag_165\n        /* \"#utility.yul\":2510:2515   */\n      dup2\n        /* \"#utility.yul\":2492:2516   */\n      tag_166\n      jump\t// in\n    tag_165:\n        /* \"#utility.yul\":2487:2490   */\n      dup3\n        /* \"#utility.yul\":2480:2517   */\n      mstore\n        /* \"#utility.yul\":2405:2523   */\n      pop\n      pop\n      jump\t// out\n        /* \"#utility.yul\":2529:2686   */\n    tag_167:\n        /* \"#utility.yul\":2634:2679   */\n      tag_169\n        /* \"#utility.yul\":2654:2678   */\n      tag_170\n        /* \"#utility.yul\":2672:2677   */\n      dup3\n        /* \"#utility.yul\":2654:2678   */\n      tag_166\n      jump\t// in\n    tag_170:\n        /* \"#utility.yul\":2634:2679   */\n      tag_171\n      jump\t// in\n    tag_169:\n        /* \"#utility.yul\":2629:2632   */\n      dup3\n        /* \"#utility.yul\":2622:2680   */\n      mstore\n        /* \"#utility.yul\":2529:2686   */\n      pop\n      pop\n      jump\t// out\n        /* \"#utility.yul\":2692:2807   */\n    tag_172:\n        /* \"#utility.yul\":2777:2800   */\n      tag_174\n        /* \"#utility.yul\":2794:2799   */\n      dup2\n        /* \"#utility.yul\":2777:2800   */\n      tag_175\n      jump\t// in\n    tag_174:\n        /* \"#utility.yul\":2772:2775   */\n      dup3\n        /* \"#utility.yul\":2765:2801   */\n      mstore\n        /* \"#utility.yul\":2692:2807   */\n      pop\n      pop\n      jump\t// out\n        /* \"#utility.yul\":2813:3177   */\n    tag_176:\n        /* \"#utility.yul\":2901:2904   */\n      0x00\n        /* \"#utility.yul\":2929:2968   */\n      tag_178\n        /* \"#utility.yul\":2962:2967   */\n      dup3\n        /* \"#utility.yul\":2929:2968   */\n      tag_179\n      jump\t// in\n    tag_178:\n        /* \"#utility.yul\":2984:3055   */\n      tag_180\n        /* \"#utility.yul\":3048:3054   */\n      dup2\n        /* \"#utility.yul\":3043:3046   */\n      dup6\n        /* \"#utility.yul\":2984:3055   */\n      tag_181\n      jump\t// in\n    tag_180:\n        /* \"#utility.yul\":2977:3055   */\n      swap4\n      pop\n        /* \"#utility.yul\":3064:3116   */\n      tag_182\n        /* \"#utility.yul\":3109:3115   */\n      dup2\n        /* \"#utility.yul\":3104:3107   */\n      dup6\n        /* \"#utility.yul\":3097:3101   */\n      0x20\n        /* \"#utility.yul\":3090:3095   */\n      dup7\n        /* \"#utility.yul\":3086:3102   */\n      add\n        /* \"#utility.yul\":3064:3116   */\n      tag_183\n      jump\t// in\n    tag_182:\n        /* \"#utility.yul\":3141:3170   */\n      tag_184\n        /* \"#utility.yul\":3163:3169   */\n      dup2\n        /* \"#utility.yul\":3141:3170   */\n      tag_185\n      jump\t// in\n    tag_184:\n        /* \"#utility.yul\":3136:3139   */\n      dup5\n        /* \"#utility.yul\":3132:3171   */\n      add\n        /* \"#utility.yul\":3125:3171   */\n      swap2\n      pop\n        /* \"#utility.yul\":2905:3177   */\n      pop\n        /* \"#utility.yul\":2813:3177   */\n      swap3\n      swap2\n      pop\n      pop\n      jump\t// out\n        /* \"#utility.yul\":3183:3340   */\n    tag_186:\n        /* \"#utility.yul\":3288:3333   */\n      tag_188\n        /* \"#utility.yul\":3308:3332   */\n      tag_189\n        /* \"#utility.yul\":3326:3331   */\n      dup3\n        /* \"#utility.yul\":3308:3332   */\n      tag_190\n      jump\t// in\n    tag_189:\n        /* \"#utility.yul\":3288:3333   */\n      tag_191\n      jump\t// in\n    tag_188:\n        /* \"#utility.yul\":3283:3286   */\n      dup3\n        /* \"#utility.yul\":3276:3334   */\n      mstore\n        /* \"#utility.yul\":3183:3340   */\n      pop\n      pop\n      jump\t// out\n        /* \"#utility.yul\":3346:3884   */\n    tag_107:\n        /* \"#utility.yul\":3514:3517   */\n      0x00\n        /* \"#utility.yul\":3529:3604   */\n      tag_193\n        /* \"#utility.yul\":3600:3603   */\n      dup3\n        /* \"#utility.yul\":3591:3597   */\n      dup7\n        /* \"#utility.yul\":3529:3604   */\n      tag_186\n      jump\t// in\n    tag_193:\n        /* \"#utility.yul\":3629:3631   */\n      0x20\n        /* \"#utility.yul\":3624:3627   */\n      dup3\n        /* \"#utility.yul\":3620:3632   */\n      add\n        /* \"#utility.yul\":3613:3632   */\n      swap2\n      pop\n        /* \"#utility.yul\":3642:3717   */\n      tag_194\n        /* \"#utility.yul\":3713:3716   */\n      dup3\n        /* \"#utility.yul\":3704:3710   */\n      dup6\n        /* \"#utility.yul\":3642:3717   */\n      tag_186\n      jump\t// in\n    tag_194:\n        /* \"#utility.yul\":3742:3744   */\n      0x20\n        /* \"#utility.yul\":3737:3740   */\n      dup3\n        /* \"#utility.yul\":3733:3745   */\n      add\n        /* \"#utility.yul\":3726:3745   */\n      swap2\n      pop\n        /* \"#utility.yul\":3755:3830   */\n      tag_195\n        /* \"#utility.yul\":3826:3829   */\n      dup3\n        /* \"#utility.yul\":3817:3823   */\n      dup5\n        /* \"#utility.yul\":3755:3830   */\n      tag_167\n      jump\t// in\n    tag_195:\n        /* \"#utility.yul\":3855:3857   */\n      0x14\n        /* \"#utility.yul\":3850:3853   */\n      dup3\n        /* \"#utility.yul\":3846:3858   */\n      add\n        /* \"#utility.yul\":3839:3858   */\n      swap2\n      pop\n        /* \"#utility.yul\":3875:3878   */\n      dup2\n        /* \"#utility.yul\":3868:3878   */\n      swap1\n      pop\n        /* \"#utility.yul\":3346:3884   */\n      swap5\n      swap4\n      pop\n      pop\n      pop\n      pop\n      jump\t// out\n        /* \"#utility.yul\":3890:4112   */\n    tag_11:\n        /* \"#utility.yul\":3983:3987   */\n      0x00\n        /* \"#utility.yul\":4021:4023   */\n      0x20\n        /* \"#utility.yul\":4010:4019   */\n      dup3\n        /* \"#utility.yul\":4006:4024   */\n      add\n        /* \"#utility.yul\":3998:4024   */\n      swap1\n      pop\n        /* \"#utility.yul\":4034:4105   */\n      tag_197\n        /* \"#utility.yul\":4102:4103   */\n      0x00\n        /* \"#utility.yul\":4091:4100   */\n      dup4\n        /* \"#utility.yul\":4087:4104   */\n      add\n        /* \"#utility.yul\":4078:4084   */\n      dup5\n        /* \"#utility.yul\":4034:4105   */\n      tag_163\n      jump\t// in\n    tag_197:\n        /* \"#utility.yul\":3890:4112   */\n      swap3\n      swap2\n      pop\n      pop\n      jump\t// out\n        /* \"#utility.yul\":4118:4336   */\n    tag_27:\n        /* \"#utility.yul\":4209:4213   */\n      0x00\n        /* \"#utility.yul\":4247:4249   */\n      0x20\n        /* \"#utility.yul\":4236:4245   */\n      dup3\n        /* \"#utility.yul\":4232:4250   */\n      add\n        /* \"#utility.yul\":4224:4250   */\n      swap1\n      pop\n        /* \"#utility.yul\":4260:4329   */\n      tag_199\n        /* \"#utility.yul\":4326:4327   */\n      0x00\n        /* \"#utility.yul\":4315:4324   */\n      dup4\n        /* \"#utility.yul\":4311:4328   */\n      add\n        /* \"#utility.yul\":4302:4308   */\n      dup5\n        /* \"#utility.yul\":4260:4329   */\n      tag_172\n      jump\t// in\n    tag_199:\n        /* \"#utility.yul\":4118:4336   */\n      swap3\n      swap2\n      pop\n      pop\n      jump\t// out\n        /* \"#utility.yul\":4342:4655   */\n    tag_17:\n        /* \"#utility.yul\":4455:4459   */\n      0x00\n        /* \"#utility.yul\":4493:4495   */\n      0x20\n        /* \"#utility.yul\":4482:4491   */\n      dup3\n        /* \"#utility.yul\":4478:4496   */\n      add\n        /* \"#utility.yul\":4470:4496   */\n      swap1\n      pop\n        /* \"#utility.yul\":4542:4551   */\n      dup2\n        /* \"#utility.yul\":4536:4540   */\n      dup2\n        /* \"#utility.yul\":4532:4552   */\n      sub\n        /* \"#utility.yul\":4528:4529   */\n      0x00\n        /* \"#utility.yul\":4517:4526   */\n      dup4\n        /* \"#utility.yul\":4513:4530   */\n      add\n        /* \"#utility.yul\":4506:4553   */\n      mstore\n        /* \"#utility.yul\":4570:4648   */\n      tag_201\n        /* \"#utility.yul\":4643:4647   */\n      dup2\n        /* \"#utility.yul\":4634:4640   */\n      dup5\n        /* \"#utility.yul\":4570:4648   */\n      tag_176\n      jump\t// in\n    tag_201:\n        /* \"#utility.yul\":4562:4648   */\n      swap1\n      pop\n        /* \"#utility.yul\":4342:4655   */\n      swap3\n      swap2\n      pop\n      pop\n      jump\t// out\n        /* \"#utility.yul\":4661:4790   */\n    tag_126:\n        /* \"#utility.yul\":4695:4701   */\n      0x00\n        /* \"#utility.yul\":4722:4742   */\n      tag_203\n      tag_204\n      jump\t// in\n    tag_203:\n        /* \"#utility.yul\":4712:4742   */\n      swap1\n      pop\n        /* \"#utility.yul\":4751:4784   */\n      tag_205\n        /* \"#utility.yul\":4779:4783   */\n      dup3\n        /* \"#utility.yul\":4771:4777   */\n      dup3\n        /* \"#utility.yul\":4751:4784   */\n      tag_206\n      jump\t// in\n    tag_205:\n        /* \"#utility.yul\":4661:4790   */\n      swap2\n      swap1\n      pop\n      jump\t// out\n        /* \"#utility.yul\":4796:4871   */\n    tag_204:\n        /* \"#utility.yul\":4829:4835   */\n      0x00\n        /* \"#utility.yul\":4862:4864   */\n      0x40\n        /* \"#utility.yul\":4856:4865   */\n      mload\n        /* \"#utility.yul\":4846:4865   */\n      swap1\n      pop\n        /* \"#utility.yul\":4796:4871   */\n      swap1\n      jump\t// out\n        /* \"#utility.yul\":4877:5185   */\n    tag_125:\n        /* \"#utility.yul\":4939:4943   */\n      0x00\n        /* \"#utility.yul\":5029:5047   */\n      0xffffffffffffffff\n        /* \"#utility.yul\":5021:5027   */\n      dup3\n        /* \"#utility.yul\":5018:5048   */\n      gt\n        /* \"#utility.yul\":5015:5071   */\n      iszero\n      tag_209\n      jumpi\n        /* \"#utility.yul\":5051:5069   */\n      tag_210\n      tag_211\n      jump\t// in\n    tag_210:\n        /* \"#utility.yul\":5015:5071   */\n    tag_209:\n        /* \"#utility.yul\":5089:5118   */\n      tag_212\n        /* \"#utility.yul\":5111:5117   */\n      dup3\n        /* \"#utility.yul\":5089:5118   */\n      tag_185\n      jump\t// in\n    tag_212:\n        /* \"#utility.yul\":5081:5118   */\n      swap1\n      pop\n        /* \"#utility.yul\":5173:5177   */\n      0x20\n        /* \"#utility.yul\":5167:5171   */\n      dup2\n        /* \"#utility.yul\":5163:5178   */\n      add\n        /* \"#utility.yul\":5155:5178   */\n      swap1\n      pop\n        /* \"#utility.yul\":4877:5185   */\n      swap2\n      swap1\n      pop\n      jump\t// out\n        /* \"#utility.yul\":5191:5290   */\n    tag_179:\n        /* \"#utility.yul\":5243:5249   */\n      0x00\n        /* \"#utility.yul\":5277:5282   */\n      dup2\n        /* \"#utility.yul\":5271:5283   */\n      mload\n        /* \"#utility.yul\":5261:5283   */\n      swap1\n      pop\n        /* \"#utility.yul\":5191:5290   */\n      swap2\n      swap1\n      pop\n      jump\t// out\n        /* \"#utility.yul\":5296:5465   */\n    tag_181:\n        /* \"#utility.yul\":5380:5391   */\n      0x00\n        /* \"#utility.yul\":5414:5420   */\n      dup3\n        /* \"#utility.yul\":5409:5412   */\n      dup3\n        /* \"#utility.yul\":5402:5421   */\n      mstore\n        /* \"#utility.yul\":5454:5458   */\n      0x20\n        /* \"#utility.yul\":5449:5452   */\n      dup3\n        /* \"#utility.yul\":5445:5459   */\n      add\n        /* \"#utility.yul\":5430:5459   */\n      swap1\n      pop\n        /* \"#utility.yul\":5296:5465   */\n      swap3\n      swap2\n      pop\n      pop\n      jump\t// out\n        /* \"#utility.yul\":5471:5996   */\n    tag_42:\n        /* \"#utility.yul\":5510:5513   */\n      0x00\n        /* \"#utility.yul\":5529:5548   */\n      tag_216\n        /* \"#utility.yul\":5546:5547   */\n      dup3\n        /* \"#utility.yul\":5529:5548   */\n      tag_175\n      jump\t// in\n    tag_216:\n        /* \"#utility.yul\":5524:5548   */\n      swap2\n      pop\n        /* \"#utility.yul\":5562:5581   */\n      tag_217\n        /* \"#utility.yul\":5579:5580   */\n      dup4\n        /* \"#utility.yul\":5562:5581   */\n      tag_175\n      jump\t// in\n    tag_217:\n        /* \"#utility.yul\":5557:5581   */\n      swap3\n      pop\n        /* \"#utility.yul\":5750:5751   */\n      dup2\n        /* \"#utility.yul\":5682:5748   */\n      0x7fffffffffffffffffffffffffffffffffffffffffffffffffffffffffffffff\n        /* \"#utility.yul\":5678:5752   */\n      sub\n        /* \"#utility.yul\":5675:5676   */\n      dup4\n        /* \"#utility.yul\":5671:5753   */\n      sgt\n        /* \"#utility.yul\":5666:5667   */\n      0x00\n        /* \"#utility.yul\":5663:5664   */\n      dup4\n        /* \"#utility.yul\":5659:5668   */\n      slt\n        /* \"#utility.yul\":5652:5669   */\n      iszero\n        /* \"#utility.yul\":5648:5754   */\n      and\n        /* \"#utility.yul\":5645:5777   */\n      iszero\n      tag_218\n      jumpi\n        /* \"#utility.yul\":5757:5775   */\n      tag_219\n      tag_220\n      jump\t// in\n    tag_219:\n        /* \"#utility.yul\":5645:5777   */\n    tag_218:\n        /* \"#utility.yul\":5937:5938   */\n      dup2\n        /* \"#utility.yul\":5869:5935   */\n      0x8000000000000000000000000000000000000000000000000000000000000000\n        /* \"#utility.yul\":5865:5939   */\n      sub\n        /* \"#utility.yul\":5862:5863   */\n      dup4\n        /* \"#utility.yul\":5858:5940   */\n      slt\n        /* \"#utility.yul\":5854:5855   */\n      0x00\n        /* \"#utility.yul\":5851:5852   */\n      dup4\n        /* \"#utility.yul\":5847:5856   */\n      slt\n        /* \"#utility.yul\":5843:5941   */\n      and\n        /* \"#utility.yul\":5840:5964   */\n      iszero\n      tag_221\n      jumpi\n        /* \"#utility.yul\":5944:5962   */\n      tag_222\n      tag_220\n      jump\t// in\n    tag_222:\n        /* \"#utility.yul\":5840:5964   */\n    tag_221:\n        /* \"#utility.yul\":5988:5989   */\n      dup3\n        /* \"#utility.yul\":5985:5986   */\n      dup3\n        /* \"#utility.yul\":5981:5990   */\n      add\n        /* \"#utility.yul\":5974:5990   */\n      swap1\n      pop\n        /* \"#utility.yul\":5471:5996   */\n      swap3\n      swap2\n      pop\n      pop\n      jump\t// out\n        /* \"#utility.yul\":6002:6387   */\n    tag_77:\n        /* \"#utility.yul\":6041:6042   */\n      0x00\n        /* \"#utility.yul\":6058:6077   */\n      tag_224\n        /* \"#utility.yul\":6075:6076   */\n      dup3\n        /* \"#utility.yul\":6058:6077   */\n      tag_175\n      jump\t// in\n    tag_224:\n        /* \"#utility.yul\":6053:6077   */\n      swap2\n      pop\n        /* \"#utility.yul\":6091:6110   */\n      tag_225\n        /* \"#utility.yul\":6108:6109   */\n      dup4\n        /* \"#utility.yul\":6091:6110   */\n      tag_175\n      jump\t// in\n    tag_225:\n        /* \"#utility.yul\":6086:6110   */\n      swap3\n      pop\n        /* \"#utility.yul\":6129:6130   */\n      dup3\n        /* \"#utility.yul\":6119:6154   */\n      tag_226\n      jumpi\n        /* \"#utility.yul\":6134:6152   */\n      tag_227\n      tag_228\n      jump\t// in\n    tag_227:\n        /* \"#utility.yul\":6119:6154   */\n    tag_226:\n        /* \"#utility.yul\":6320:6321   */\n      0x01\n        /* \"#utility.yul\":6317:6318   */\n      0x00\n        /* \"#utility.yul\":6313:6322   */\n      sub\n        /* \"#utility.yul\":6310:6311   */\n      dup4\n        /* \"#utility.yul\":6307:6323   */\n      eq\n        /* \"#utility.yul\":6226:6292   */\n      0x8000000000000000000000000000000000000000000000000000000000000000\n        /* \"#utility.yul\":6223:6224   */\n      dup4\n        /* \"#utility.yul\":6220:6293   */\n      eq\n        /* \"#utility.yul\":6203:6333   */\n      and\n        /* \"#utility.yul\":6200:6356   */\n      iszero\n      tag_229\n      jumpi\n        /* \"#utility.yul\":6336:6354   */\n      tag_230\n      tag_220\n      jump\t// in\n    tag_230:\n        /* \"#utility.yul\":6200:6356   */\n    tag_229:\n        /* \"#utility.yul\":6379:6380   */\n      dup3\n        /* \"#utility.yul\":6376:6377   */\n      dup3\n        /* \"#utility.yul\":6371:6381   */\n      sdiv\n        /* \"#utility.yul\":6366:6381   */\n      swap1\n      pop\n        /* \"#utility.yul\":6002:6387   */\n      swap3\n      swap2\n      pop\n      pop\n      jump\t// out\n        /* \"#utility.yul\":6393:7384   */\n    tag_71:\n        /* \"#utility.yul\":6432:6439   */\n      0x00\n        /* \"#utility.yul\":6455:6474   */\n      tag_232\n        /* \"#utility.yul\":6472:6473   */\n      dup3\n        /* \"#utility.yul\":6455:6474   */\n      tag_175\n      jump\t// in\n    tag_232:\n        /* \"#utility.yul\":6450:6474   */\n      swap2\n      pop\n        /* \"#utility.yul\":6488:6507   */\n      tag_233\n        /* \"#utility.yul\":6505:6506   */\n      dup4\n        /* \"#utility.yul\":6488:6507   */\n      tag_175\n      jump\t// in\n    tag_233:\n        /* \"#utility.yul\":6483:6507   */\n      swap3\n      pop\n        /* \"#utility.yul\":6689:6690   */\n      dup3\n        /* \"#utility.yul\":6621:6687   */\n      0x7fffffffffffffffffffffffffffffffffffffffffffffffffffffffffffffff\n        /* \"#utility.yul\":6617:6691   */\n      div\n        /* \"#utility.yul\":6614:6615   */\n      dup3\n        /* \"#utility.yul\":6611:6692   */\n      gt\n        /* \"#utility.yul\":6606:6607   */\n      0x00\n        /* \"#utility.yul\":6603:6604   */\n      dup5\n        /* \"#utility.yul\":6599:6608   */\n      sgt\n        /* \"#utility.yul\":6595:6596   */\n      0x00\n        /* \"#utility.yul\":6592:6593   */\n      dup5\n        /* \"#utility.yul\":6588:6597   */\n      sgt\n        /* \"#utility.yul\":6584:6609   */\n      and\n        /* \"#utility.yul\":6580:6693   */\n      and\n        /* \"#utility.yul\":6577:6716   */\n      iszero\n      tag_234\n      jumpi\n        /* \"#utility.yul\":6696:6714   */\n      tag_235\n      tag_220\n      jump\t// in\n    tag_235:\n        /* \"#utility.yul\":6577:6716   */\n    tag_234:\n        /* \"#utility.yul\":6900:6901   */\n      dup2\n        /* \"#utility.yul\":6832:6898   */\n      0x8000000000000000000000000000000000000000000000000000000000000000\n        /* \"#utility.yul\":6827:6902   */\n      sdiv\n        /* \"#utility.yul\":6824:6825   */\n      dup4\n        /* \"#utility.yul\":6820:6903   */\n      slt\n        /* \"#utility.yul\":6815:6816   */\n      0x00\n        /* \"#utility.yul\":6812:6813   */\n      dup5\n        /* \"#utility.yul\":6808:6817   */\n      slt\n        /* \"#utility.yul\":6804:6805   */\n      0x00\n        /* \"#utility.yul\":6801:6802   */\n      dup5\n        /* \"#utility.yul\":6797:6806   */\n      sgt\n        /* \"#utility.yul\":6793:6818   */\n      and\n        /* \"#utility.yul\":6789:6904   */\n      and\n        /* \"#utility.yul\":6786:6927   */\n      iszero\n      tag_236\n      jumpi\n        /* \"#utility.yul\":6907:6925   */\n      tag_237\n      tag_220\n      jump\t// in\n    tag_237:\n        /* \"#utility.yul\":6786:6927   */\n    tag_236:\n        /* \"#utility.yul\":7111:7112   */\n      dup3\n        /* \"#utility.yul\":7043:7109   */\n      0x8000000000000000000000000000000000000000000000000000000000000000\n        /* \"#utility.yul\":7038:7113   */\n      sdiv\n        /* \"#utility.yul\":7035:7036   */\n      dup3\n        /* \"#utility.yul\":7031:7114   */\n      slt\n        /* \"#utility.yul\":7026:7027   */\n      0x00\n        /* \"#utility.yul\":7023:7024   */\n      dup5\n        /* \"#utility.yul\":7019:7028   */\n      sgt\n        /* \"#utility.yul\":7015:7016   */\n      0x00\n        /* \"#utility.yul\":7012:7013   */\n      dup5\n        /* \"#utility.yul\":7008:7017   */\n      slt\n        /* \"#utility.yul\":7004:7029   */\n      and\n        /* \"#utility.yul\":7000:7115   */\n      and\n        /* \"#utility.yul\":6997:7138   */\n      iszero\n      tag_238\n      jumpi\n        /* \"#utility.yul\":7118:7136   */\n      tag_239\n      tag_220\n      jump\t// in\n    tag_239:\n        /* \"#utility.yul\":6997:7138   */\n    tag_238:\n        /* \"#utility.yul\":7321:7322   */\n      dup3\n        /* \"#utility.yul\":7253:7319   */\n      0x7fffffffffffffffffffffffffffffffffffffffffffffffffffffffffffffff\n        /* \"#utility.yul\":7248:7323   */\n      sdiv\n        /* \"#utility.yul\":7245:7246   */\n      dup3\n        /* \"#utility.yul\":7241:7324   */\n      slt\n        /* \"#utility.yul\":7236:7237   */\n      0x00\n        /* \"#utility.yul\":7233:7234   */\n      dup5\n        /* \"#utility.yul\":7229:7238   */\n      slt\n        /* \"#utility.yul\":7225:7226   */\n      0x00\n        /* \"#utility.yul\":7222:7223   */\n      dup5\n        /* \"#utility.yul\":7218:7227   */\n      slt\n        /* \"#utility.yul\":7214:7239   */\n      and\n        /* \"#utility.yul\":7210:7325   */\n      and\n        /* \"#utility.yul\":7207:7348   */\n      iszero\n      tag_240\n      jumpi\n        /* \"#utility.yul\":7328:7346   */\n      tag_241\n      tag_220\n      jump\t// in\n    tag_241:\n        /* \"#utility.yul\":7207:7348   */\n    tag_240:\n        /* \"#utility.yul\":7376:7377   */\n      dup3\n        /* \"#utility.yul\":7373:7374   */\n      dup3\n        /* \"#utility.yul\":7369:7378   */\n      mul\n        /* \"#utility.yul\":7358:7378   */\n      swap1\n      pop\n        /* \"#utility.yul\":6393:7384   */\n      swap3\n      swap2\n      pop\n      pop\n      jump\t// out\n        /* \"#utility.yul\":7390:7917   */\n    tag_68:\n        /* \"#utility.yul\":7429:7433   */\n      0x00\n        /* \"#utility.yul\":7449:7468   */\n      tag_243\n        /* \"#utility.yul\":7466:7467   */\n      dup3\n        /* \"#utility.yul\":7449:7468   */\n      tag_175\n      jump\t// in\n    tag_243:\n        /* \"#utility.yul\":7444:7468   */\n      swap2\n      pop\n        /* \"#utility.yul\":7482:7501   */\n      tag_244\n        /* \"#utility.yul\":7499:7500   */\n      dup4\n        /* \"#utility.yul\":7482:7501   */\n      tag_175\n      jump\t// in\n    tag_244:\n        /* \"#utility.yul\":7477:7501   */\n      swap3\n      pop\n        /* \"#utility.yul\":7671:7672   */\n      dup3\n        /* \"#utility.yul\":7603:7669   */\n      0x8000000000000000000000000000000000000000000000000000000000000000\n        /* \"#utility.yul\":7599:7673   */\n      add\n        /* \"#utility.yul\":7596:7597   */\n      dup3\n        /* \"#utility.yul\":7592:7674   */\n      slt\n        /* \"#utility.yul\":7587:7588   */\n      0x00\n        /* \"#utility.yul\":7584:7585   */\n      dup5\n        /* \"#utility.yul\":7580:7589   */\n      slt\n        /* \"#utility.yul\":7573:7590   */\n      iszero\n        /* \"#utility.yul\":7569:7675   */\n      and\n        /* \"#utility.yul\":7566:7698   */\n      iszero\n      tag_245\n      jumpi\n        /* \"#utility.yul\":7678:7696   */\n      tag_246\n      tag_220\n      jump\t// in\n    tag_246:\n        /* \"#utility.yul\":7566:7698   */\n    tag_245:\n        /* \"#utility.yul\":7857:7858   */\n      dup3\n        /* \"#utility.yul\":7789:7855   */\n      0x7fffffffffffffffffffffffffffffffffffffffffffffffffffffffffffffff\n        /* \"#utility.yul\":7785:7859   */\n      add\n        /* \"#utility.yul\":7782:7783   */\n      dup3\n        /* \"#utility.yul\":7778:7860   */\n      sgt\n        /* \"#utility.yul\":7774:7775   */\n      0x00\n        /* \"#utility.yul\":7771:7772   */\n      dup5\n        /* \"#utility.yul\":7767:7776   */\n      slt\n        /* \"#utility.yul\":7763:7861   */\n      and\n        /* \"#utility.yul\":7760:7884   */\n      iszero\n      tag_247\n      jumpi\n        /* \"#utility.yul\":7864:7882   */\n      tag_248\n      tag_220\n      jump\t// in\n    tag_248:\n        /* \"#utility.yul\":7760:7884   */\n    tag_247:\n        /* \"#utility.yul\":7909:7910   */\n      dup3\n        /* \"#utility.yul\":7906:7907   */\n      dup3\n        /* \"#utility.yul\":7902:7911   */\n      sub\n        /* \"#utility.yul\":7894:7911   */\n      swap1\n      pop\n        /* \"#utility.yul\":7390:7917   */\n      swap3\n      swap2\n      pop\n      pop\n      jump\t// out\n        /* \"#utility.yul\":7923:8019   */\n    tag_166:\n        /* \"#utility.yul\":7960:7967   */\n      0x00\n        /* \"#utility.yul\":7989:8013   */\n      tag_250\n        /* \"#utility.yul\":8007:8012   */\n      dup3\n        /* \"#utility.yul\":7989:8013   */\n      tag_251\n      jump\t// in\n    tag_250:\n        /* \"#utility.yul\":7978:8013   */\n      swap1\n      pop\n        /* \"#utility.yul\":7923:8019   */\n      swap2\n      swap1\n      pop\n      jump\t// out\n        /* \"#utility.yul\":8025:8101   */\n    tag_175:\n        /* \"#utility.yul\":8061:8068   */\n      0x00\n        /* \"#utility.yul\":8090:8095   */\n      dup2\n        /* \"#utility.yul\":8079:8095   */\n      swap1\n      pop\n        /* \"#utility.yul\":8025:8101   */\n      swap2\n      swap1\n      pop\n      jump\t// out\n        /* \"#utility.yul\":8107:8233   */\n    tag_251:\n        /* \"#utility.yul\":8144:8151   */\n      0x00\n        /* \"#utility.yul\":8184:8226   */\n      0xffffffffffffffffffffffffffffffffffffffff\n        /* \"#utility.yul\":8177:8182   */\n      dup3\n        /* \"#utility.yul\":8173:8227   */\n      and\n        /* \"#utility.yul\":8162:8227   */\n      swap1\n      pop\n        /* \"#utility.yul\":8107:8233   */\n      swap2\n      swap1\n      pop\n      jump\t// out\n        /* \"#utility.yul\":8239:8316   */\n    tag_190:\n        /* \"#utility.yul\":8276:8283   */\n      0x00\n        /* \"#utility.yul\":8305:8310   */\n      dup2\n        /* \"#utility.yul\":8294:8310   */\n      swap1\n      pop\n        /* \"#utility.yul\":8239:8316   */\n      swap2\n      swap1\n      pop\n      jump\t// out\n        /* \"#utility.yul\":8322:8476   */\n    tag_131:\n        /* \"#utility.yul\":8406:8412   */\n      dup3\n        /* \"#utility.yul\":8401:8404   */\n      dup2\n        /* \"#utility.yul\":8396:8399   */\n      dup4\n        /* \"#utility.yul\":8383:8413   */\n      calldatacopy\n        /* \"#utility.yul\":8468:8469   */\n      0x00\n        /* \"#utility.yul\":8459:8465   */\n      dup4\n        /* \"#utility.yul\":8454:8457   */\n      dup4\n        /* \"#utility.yul\":8450:8466   */\n      add\n        /* \"#utility.yul\":8443:8470   */\n      mstore\n        /* \"#utility.yul\":8322:8476   */\n      pop\n      pop\n      pop\n      jump\t// out\n        /* \"#utility.yul\":8482:8789   */\n    tag_183:\n        /* \"#utility.yul\":8550:8551   */\n      0x00\n        /* \"#utility.yul\":8560:8673   */\n    tag_257:\n        /* \"#utility.yul\":8574:8580   */\n      dup4\n        /* \"#utility.yul\":8571:8572   */\n      dup2\n        /* \"#utility.yul\":8568:8581   */\n      lt\n        /* \"#utility.yul\":8560:8673   */\n      iszero\n      tag_259\n      jumpi\n        /* \"#utility.yul\":8659:8660   */\n      dup1\n        /* \"#utility.yul\":8654:8657   */\n      dup3\n        /* \"#utility.yul\":8650:8661   */\n      add\n        /* \"#utility.yul\":8644:8662   */\n      mload\n        /* \"#utility.yul\":8640:8641   */\n      dup2\n        /* \"#utility.yul\":8635:8638   */\n      dup5\n        /* \"#utility.yul\":8631:8642   */\n      add\n        /* \"#utility.yul\":8624:8663   */\n      mstore\n        /* \"#utility.yul\":8596:8598   */\n      0x20\n        /* \"#utility.yul\":8593:8594   */\n      dup2\n        /* \"#utility.yul\":8589:8599   */\n      add\n        /* \"#utility.yul\":8584:8599   */\n      swap1\n      pop\n        /* \"#utility.yul\":8560:8673   */\n      jump(tag_257)\n    tag_259:\n        /* \"#utility.yul\":8691:8697   */\n      dup4\n        /* \"#utility.yul\":8688:8689   */\n      dup2\n        /* \"#utility.yul\":8685:8698   */\n      gt\n        /* \"#utility.yul\":8682:8783   */\n      iszero\n      tag_260\n      jumpi\n        /* \"#utility.yul\":8771:8772   */\n      0x00\n        /* \"#utility.yul\":8762:8768   */\n      dup5\n        /* \"#utility.yul\":8757:8760   */\n      dup5\n        /* \"#utility.yul\":8753:8769   */\n      add\n        /* \"#utility.yul\":8746:8773   */\n      mstore\n        /* \"#utility.yul\":8682:8783   */\n    tag_260:\n        /* \"#utility.yul\":8531:8789   */\n      pop\n        /* \"#utility.yul\":8482:8789   */\n      pop\n      pop\n      pop\n      jump\t// out\n        /* \"#utility.yul\":8795:9115   */\n    tag_32:\n        /* \"#utility.yul\":8839:8845   */\n      0x00\n        /* \"#utility.yul\":8876:8877   */\n      0x02\n        /* \"#utility.yul\":8870:8874   */\n      dup3\n        /* \"#utility.yul\":8866:8878   */\n      div\n        /* \"#utility.yul\":8856:8878   */\n      swap1\n      pop\n        /* \"#utility.yul\":8923:8924   */\n      0x01\n        /* \"#utility.yul\":8917:8921   */\n      dup3\n        /* \"#utility.yul\":8913:8925   */\n      and\n        /* \"#utility.yul\":8944:8962   */\n      dup1\n        /* \"#utility.yul\":8934:9015   */\n      tag_262\n      jumpi\n        /* \"#utility.yul\":9000:9004   */\n      0x7f\n        /* \"#utility.yul\":8992:8998   */\n      dup3\n        /* \"#utility.yul\":8988:9005   */\n      and\n        /* \"#utility.yul\":8978:9005   */\n      swap2\n      pop\n        /* \"#utility.yul\":8934:9015   */\n    tag_262:\n        /* \"#utility.yul\":9062:9064   */\n      0x20\n        /* \"#utility.yul\":9054:9060   */\n      dup3\n        /* \"#utility.yul\":9051:9065   */\n      lt\n        /* \"#utility.yul\":9031:9049   */\n      dup2\n        /* \"#utility.yul\":9028:9066   */\n      eq\n        /* \"#utility.yul\":9025:9109   */\n      iszero\n      tag_263\n      jumpi\n        /* \"#utility.yul\":9081:9099   */\n      tag_264\n      tag_265\n      jump\t// in\n    tag_264:\n        /* \"#utility.yul\":9025:9109   */\n    tag_263:\n        /* \"#utility.yul\":8846:9115   */\n      pop\n        /* \"#utility.yul\":8795:9115   */\n      swap2\n      swap1\n      pop\n      jump\t// out\n        /* \"#utility.yul\":9121:9402   */\n    tag_206:\n        /* \"#utility.yul\":9204:9231   */\n      tag_267\n        /* \"#utility.yul\":9226:9230   */\n      dup3\n        /* \"#utility.yul\":9204:9231   */\n      tag_185\n      jump\t// in\n    tag_267:\n        /* \"#utility.yul\":9196:9202   */\n      dup2\n        /* \"#utility.yul\":9192:9232   */\n      add\n        /* \"#utility.yul\":9334:9340   */\n      dup2\n        /* \"#utility.yul\":9322:9332   */\n      dup2\n        /* \"#utility.yul\":9319:9341   */\n      lt\n        /* \"#utility.yul\":9298:9316   */\n      0xffffffffffffffff\n        /* \"#utility.yul\":9286:9296   */\n      dup3\n        /* \"#utility.yul\":9283:9317   */\n      gt\n        /* \"#utility.yul\":9280:9342   */\n      or\n        /* \"#utility.yul\":9277:9365   */\n      iszero\n      tag_268\n      jumpi\n        /* \"#utility.yul\":9345:9363   */\n      tag_269\n      tag_211\n      jump\t// in\n    tag_269:\n        /* \"#utility.yul\":9277:9365   */\n    tag_268:\n        /* \"#utility.yul\":9385:9395   */\n      dup1\n        /* \"#utility.yul\":9381:9383   */\n      0x40\n        /* \"#utility.yul\":9374:9396   */\n      mstore\n        /* \"#utility.yul\":9164:9402   */\n      pop\n        /* \"#utility.yul\":9121:9402   */\n      pop\n      pop\n      jump\t// out\n        /* \"#utility.yul\":9408:9508   */\n    tag_171:\n        /* \"#utility.yul\":9447:9454   */\n      0x00\n        /* \"#utility.yul\":9476:9502   */\n      tag_271\n        /* \"#utility.yul\":9496:9501   */\n      dup3\n        /* \"#utility.yul\":9476:9502   */\n      tag_272\n      jump\t// in\n    tag_271:\n        /* \"#utility.yul\":9465:9502   */\n      swap1\n      pop\n        /* \"#utility.yul\":9408:9508   */\n      swap2\n      swap1\n      pop\n      jump\t// out\n        /* \"#utility.yul\":9514:9608   */\n    tag_272:\n        /* \"#utility.yul\":9553:9560   */\n      0x00\n        /* \"#utility.yul\":9582:9602   */\n      tag_274\n        /* \"#utility.yul\":9596:9601   */\n      dup3\n        /* \"#utility.yul\":9582:9602   */\n      tag_275\n      jump\t// in\n    tag_274:\n        /* \"#utility.yul\":9571:9602   */\n      swap1\n      pop\n        /* \"#utility.yul\":9514:9608   */\n      swap2\n      swap1\n      pop\n      jump\t// out\n        /* \"#utility.yul\":9614:9693   */\n    tag_191:\n        /* \"#utility.yul\":9653:9660   */\n      0x00\n        /* \"#utility.yul\":9682:9687   */\n      dup2\n        /* \"#utility.yul\":9671:9687   */\n      swap1\n      pop\n        /* \"#utility.yul\":9614:9693   */\n      swap2\n      swap1\n      pop\n      jump\t// out\n        /* \"#utility.yul\":9699:9875   */\n    tag_109:\n        /* \"#utility.yul\":9731:9732   */\n      0x00\n        /* \"#utility.yul\":9748:9768   */\n      tag_278\n        /* \"#utility.yul\":9766:9767   */\n      dup3\n        /* \"#utility.yul\":9748:9768   */\n      tag_190\n      jump\t// in\n    tag_278:\n        /* \"#utility.yul\":9743:9768   */\n      swap2\n      pop\n        /* \"#utility.yul\":9782:9802   */\n      tag_279\n        /* \"#utility.yul\":9800:9801   */\n      dup4\n        /* \"#utility.yul\":9782:9802   */\n      tag_190\n      jump\t// in\n    tag_279:\n        /* \"#utility.yul\":9777:9802   */\n      swap3\n      pop\n        /* \"#utility.yul\":9821:9822   */\n      dup3\n        /* \"#utility.yul\":9811:9846   */\n      tag_280\n      jumpi\n        /* \"#utility.yul\":9826:9844   */\n      tag_281\n      tag_228\n      jump\t// in\n    tag_281:\n        /* \"#utility.yul\":9811:9846   */\n    tag_280:\n        /* \"#utility.yul\":9867:9868   */\n      dup3\n        /* \"#utility.yul\":9864:9865   */\n      dup3\n        /* \"#utility.yul\":9860:9869   */\n      mod\n        /* \"#utility.yul\":9855:9869   */\n      swap1\n      pop\n        /* \"#utility.yul\":9699:9875   */\n      swap3\n      swap2\n      pop\n      pop\n      jump\t// out\n        /* \"#utility.yul\":9881:10061   */\n    tag_220:\n        /* \"#utility.yul\":9929:10006   */\n      0x4e487b7100000000000000000000000000000000000000000000000000000000\n        /* \"#utility.yul\":9926:9927   */\n      0x00\n        /* \"#utility.yul\":9919:10007   */\n      mstore\n        /* \"#utility.yul\":10026:10030   */\n      0x11\n        /* \"#utility.yul\":10023:10024   */\n      0x04\n        /* \"#utility.yul\":10016:10031   */\n      mstore\n        /* \"#utility.yul\":10050:10054   */\n      0x24\n        /* \"#utility.yul\":10047:10048   */\n      0x00\n        /* \"#utility.yul\":10040:10055   */\n      revert\n        /* \"#utility.yul\":10067:10247   */\n    tag_228:\n        /* \"#utility.yul\":10115:10192   */\n      0x4e487b7100000000000000000000000000000000000000000000000000000000\n        /* \"#utility.yul\":10112:10113   */\n      0x00\n        /* \"#utility.yul\":10105:10193   */\n      mstore\n        /* \"#utility.yul\":10212:10216   */\n      0x12\n        /* \"#utility.yul\":10209:10210   */\n      0x04\n        /* \"#utility.yul\":10202:10217   */\n      mstore\n        /* \"#utility.yul\":10236:10240   */\n      0x24\n        /* \"#utility.yul\":10233:10234   */\n      0x00\n        /* \"#utility.yul\":10226:10241   */\n      revert\n        /* \"#utility.yul\":10253:10433   */\n    tag_265:\n        /* \"#utility.yul\":10301:10378   */\n      0x4e487b7100000000000000000000000000000000000000000000000000000000\n        /* \"#utility.yul\":10298:10299   */\n      0x00\n        /* \"#utility.yul\":10291:10379   */\n      mstore\n        /* \"#utility.yul\":10398:10402   */\n      0x22\n        /* \"#utility.yul\":10395:10396   */\n      0x04\n        /* \"#utility.yul\":10388:10403   */\n      mstore\n        /* \"#utility.yul\":10422:10426   */\n      0x24\n        /* \"#utility.yul\":10419:10420   */\n      0x00\n        /* \"#utility.yul\":10412:10427   */\n      revert\n        /* \"#utility.yul\":10439:10619   */\n    tag_45:\n        /* \"#utility.yul\":10487:10564   */\n      0x4e487b7100000000000000000000000000000000000000000000000000000000\n        /* \"#utility.yul\":10484:10485   */\n      0x00\n        /* \"#utility.yul\":10477:10565   */\n      mstore\n        /* \"#utility.yul\":10584:10588   */\n      0x32\n        /* \"#utility.yul\":10581:10582   */\n      0x04\n        /* \"#utility.yul\":10574:10589   */\n      mstore\n        /* \"#utility.yul\":10608:10612   */\n      0x24\n        /* \"#utility.yul\":10605:10606   */\n      0x00\n        /* \"#utility.yul\":10598:10613   */\n      revert\n        /* \"#utility.yul\":10625:10805   */\n    tag_211:\n        /* \"#utility.yul\":10673:10750   */\n      0x4e487b7100000000000000000000000000000000000000000000000000000000\n        /* \"#utility.yul\":10670:10671   */\n      0x00\n        /* \"#utility.yul\":10663:10751   */\n      mstore\n        /* \"#utility.yul\":10770:10774   */\n      0x41\n        /* \"#utility.yul\":10767:10768   */\n      0x04\n        /* \"#utility.yul\":10760:10775   */\n      mstore\n        /* \"#utility.yul\":10794:10798   */\n      0x24\n        /* \"#utility.yul\":10791:10792   */\n      0x00\n        /* \"#utility.yul\":10784:10799   */\n      revert\n        /* \"#utility.yul\":10811:10928   */\n    tag_140:\n        /* \"#utility.yul\":10920:10921   */\n      0x00\n        /* \"#utility.yul\":10917:10918   */\n      dup1\n        /* \"#utility.yul\":10910:10922   */\n      revert\n        /* \"#utility.yul\":10934:11051   */\n    tag_129:\n        /* \"#utility.yul\":11043:11044   */\n      0x00\n        /* \"#utility.yul\":11040:11041   */\n      dup1\n        /* \"#utility.yul\":11033:11045   */\n      revert\n        /* \"#utility.yul\":11057:11174   */\n    tag_161:\n        /* \"#utility.yul\":11166:11167   */\n      0x00\n        /* \"#utility.yul\":11163:11164   */\n      dup1\n        /* \"#utility.yul\":11156:11168   */\n      revert\n        /* \"#utility.yul\":11180:11297   */\n    tag_149:\n        /* \"#utility.yul\":11289:11290   */\n      0x00\n        /* \"#utility.yul\":11286:11287   */\n      dup1\n        /* \"#utility.yul\":11279:11291   */\n      revert\n        /* \"#utility.yul\":11303:11405   */\n    tag_185:\n        /* \"#utility.yul\":11344:11350   */\n      0x00\n        /* \"#utility.yul\":11395:11397   */\n      0x1f\n        /* \"#utility.yul\":11391:11398   */\n      not\n        /* \"#utility.yul\":11386:11388   */\n      0x1f\n        /* \"#utility.yul\":11379:11384   */\n      dup4\n        /* \"#utility.yul\":11375:11389   */\n      add\n        /* \"#utility.yul\":11371:11399   */\n      and\n        /* \"#utility.yul\":11361:11399   */\n      swap1\n      pop\n        /* \"#utility.yul\":11303:11405   */\n      swap2\n      swap1\n      pop\n      jump\t// out\n        /* \"#utility.yul\":11411:11505   */\n    tag_275:\n        /* \"#utility.yul\":11444:11452   */\n      0x00\n        /* \"#utility.yul\":11492:11497   */\n      dup2\n        /* \"#utility.yul\":11488:11490   */\n      0x60\n        /* \"#utility.yul\":11484:11498   */\n      shl\n        /* \"#utility.yul\":11463:11498   */\n      swap1\n      pop\n        /* \"#utility.yul\":11411:11505   */\n      swap2\n      swap1\n      pop\n      jump\t// out\n        /* \"#utility.yul\":11511:11633   */\n    tag_135:\n        /* \"#utility.yul\":11584:11608   */\n      tag_294\n        /* \"#utility.yul\":11602:11607   */\n      dup2\n        /* \"#utility.yul\":11584:11608   */\n      tag_166\n      jump\t// in\n    tag_294:\n        /* \"#utility.yul\":11577:11582   */\n      dup2\n        /* \"#utility.yul\":11574:11609   */\n      eq\n        /* \"#utility.yul\":11564:11627   */\n      tag_295\n      jumpi\n        /* \"#utility.yul\":11623:11624   */\n      0x00\n        /* \"#utility.yul\":11620:11621   */\n      dup1\n        /* \"#utility.yul\":11613:11625   */\n      revert\n        /* \"#utility.yul\":11564:11627   */\n    tag_295:\n        /* \"#utility.yul\":11511:11633   */\n      pop\n      jump\t// out\n        /* \"#utility.yul\":11639:11761   */\n    tag_145:\n        /* \"#utility.yul\":11712:11736   */\n      tag_297\n        /* \"#utility.yul\":11730:11735   */\n      dup2\n        /* \"#utility.yul\":11712:11736   */\n      tag_190\n      jump\t// in\n    tag_297:\n        /* \"#utility.yul\":11705:11710   */\n      dup2\n        /* \"#utility.yul\":11702:11737   */\n      eq\n        /* \"#utility.yul\":11692:11755   */\n      tag_298\n      jumpi\n        /* \"#utility.yul\":11751:11752   */\n      0x00\n        /* \"#utility.yul\":11748:11749   */\n      dup1\n        /* \"#utility.yul\":11741:11753   */\n      revert\n        /* \"#utility.yul\":11692:11755   */\n    tag_298:\n        /* \"#utility.yul\":11639:11761   */\n      pop\n      jump\t// out\n\n    auxdata: 0xa26469706673582212200ff359b92e1aa4483529d32a8cdd73110c144895524e37615e051918e03c6ad464736f6c63430008070033\n}\n",
				"bytecode": {
					"linkReferences": {},
					"object": "608060405260405180606001604052806040518060400160405280600681526020017f417474616368000000000000000000000000000000000000000000000000000081525081526020016040518060400160405280600781526020017f446566696e63650000000000000000000000000000000000000000000000000081525081526020016040518060400160405280600781526020017f42616c616e6365000000000000000000000000000000000000000000000000008152508152506004906003620000d092919062000125565b50348015620000de57600080fd5b50336000806101000a81548173ffffffffffffffffffffffffffffffffffffffff021916908373ffffffffffffffffffffffffffffffffffffffff1602179055506200030f565b82805482825590600052602060002090810192821562000179579160200282015b8281111562000178578251829080519060200190620001679291906200018c565b509160200191906001019062000146565b5b5090506200018891906200021d565b5090565b8280546200019a90620002aa565b90600052602060002090601f016020900481019282620001be57600085556200020a565b82601f10620001d957805160ff19168380011785556200020a565b828001600101855582156200020a579182015b8281111562000209578251825591602001919060010190620001ec565b5b50905062000219919062000245565b5090565b5b8082111562000241576000818162000237919062000264565b506001016200021e565b5090565b5b808211156200026057600081600090555060010162000246565b5090565b5080546200027290620002aa565b6000825580601f10620002865750620002a7565b601f016020900490600052602060002090810190620002a6919062000245565b5b50565b60006002820490506001821680620002c357607f821691505b60208210811415620002da57620002d9620002e0565b5b50919050565b7f4e487b7100000000000000000000000000000000000000000000000000000000600052602260045260246000fd5b6111d4806200031f6000396000f3fe608060405234801561001057600080fd5b50600436106100575760003560e01c8063075461721461005c5780635cf3d3461461007a5780636a786b07146100aa578063abf5f2ed146100c6578063bc346c9c146100f6575b600080fd5b610064610112565b6040516100719190610b96565b60405180910390f35b610094600480360381019061008f9190610a1e565b610136565b6040516100a19190610bcc565b60405180910390f35b6100c460048036038101906100bf9190610a8b565b6101d6565b005b6100e060048036038101906100db9190610a4b565b610416565b6040516100ed9190610bb1565b60405180910390f35b610110600480360381019061010b9190610a1e565b61043e565b005b60008054906101000a900473ffffffffffffffffffffffffffffffffffffffff1681565b6003602052806000526040600020600091509050805461015590610f91565b80601f016020809104026020016040519081016040528092919081815260200182805461018190610f91565b80156101ce5780601f106101a3576101008083540402835291602001916101ce565b820191906000526020600020905b8154815290600101906020018083116101b157829003601f168201915b505050505081565b60011515600260003373ffffffffffffffffffffffffffffffffffffffff1673ffffffffffffffffffffffffffffffffffffffff16815260200190815260200160002060009054906101000a900460ff161515141561023457600080fd5b6001600260003373ffffffffffffffffffffffffffffffffffffffff1673ffffffffffffffffffffffffffffffffffffffff16815260200190815260200160002060006101000a81548160ff021916908315150217905550610296600561089f565b60056102a29190610c60565b600160003373ffffffffffffffffffffffffffffffffffffffff1673ffffffffffffffffffffffffffffffffffffffff1681526020019081526020016000206000600381106102f4576102f36110e0565b5b0181905550610303600561089f565b600561030f9190610c60565b600160003373ffffffffffffffffffffffffffffffffffffffff1673ffffffffffffffffffffffffffffffffffffffff168152602001908152602001600020600160038110610361576103606110e0565b5b01819055506064600160003373ffffffffffffffffffffffffffffffffffffffff1673ffffffffffffffffffffffffffffffffffffffff1681526020019081526020016000206002600381106103ba576103b96110e0565b5b018190555080600360003373ffffffffffffffffffffffffffffffffffffffff1673ffffffffffffffffffffffffffffffffffffffff16815260200190815260200160002090805190602001906104129291906108e1565b5050565b6001602052816000526040600020816003811061043257600080fd5b01600091509150505481565b60011515600260008373ffffffffffffffffffffffffffffffffffffffff1673ffffffffffffffffffffffffffffffffffffffff16815260200190815260200160002060009054906101000a900460ff1615151461049b57600080fd5b6000600160008373ffffffffffffffffffffffffffffffffffffffff1673ffffffffffffffffffffffffffffffffffffffff1681526020019081526020016000206001600381106104ef576104ee6110e0565b5b0154600160003373ffffffffffffffffffffffffffffffffffffffff1673ffffffffffffffffffffffffffffffffffffffff168152602001908152602001600020600060038110610543576105426110e0565b5b015461054f9190610e75565b90506000811315610721576002816105679190610d5e565b600160008473ffffffffffffffffffffffffffffffffffffffff1673ffffffffffffffffffffffffffffffffffffffff1681526020019081526020016000206002600381106105b9576105b86110e0565b5b0160008282546105c99190610e75565b925050819055506002816105dd9190610cf4565b600160003373ffffffffffffffffffffffffffffffffffffffff1673ffffffffffffffffffffffffffffffffffffffff16815260200190815260200160002060026003811061062f5761062e6110e0565b5b01600082825461063f9190610e75565b92505081905550600a600160003373ffffffffffffffffffffffffffffffffffffffff1673ffffffffffffffffffffffffffffffffffffffff16815260200190815260200160002060006003811061069a576106996110e0565b5b0160008282546106aa9190610c60565b92505081905550600a600160008473ffffffffffffffffffffffffffffffffffffffff1673ffffffffffffffffffffffffffffffffffffffff168152602001908152602001600020600160038110610705576107046110e0565b5b0160008282546107159190610c60565b9250508190555061089b565b7fffffffffffffffffffffffffffffffffffffffffffffffffffffffffffffffff8161074d9190610d5e565b905060028161075c9190610cf4565b600160008473ffffffffffffffffffffffffffffffffffffffff1673ffffffffffffffffffffffffffffffffffffffff1681526020019081526020016000206002600381106107ae576107ad6110e0565b5b0160008282546107be9190610e75565b9250508190555080600160003373ffffffffffffffffffffffffffffffffffffffff1673ffffffffffffffffffffffffffffffffffffffff168152602001908152602001600020600260038110610818576108176110e0565b5b0160008282546108289190610e75565b925050819055506014600160008473ffffffffffffffffffffffffffffffffffffffff1673ffffffffffffffffffffffffffffffffffffffff168152602001908152602001600020600160038110610883576108826110e0565b5b0160008282546108939190610c60565b925050819055505b5050565b6000814244336040516020016108b793929190610b59565b6040516020818303038152906040528051906020012060001c6108da9190611022565b9050919050565b8280546108ed90610f91565b90600052602060002090601f01602090048101928261090f5760008555610956565b82601f1061092857805160ff1916838001178555610956565b82800160010185558215610956579182015b8281111561095557825182559160200191906001019061093a565b5b5090506109639190610967565b5090565b5b80821115610980576000816000905550600101610968565b5090565b600061099761099284610c13565b610bee565b9050828152602081018484840111156109b3576109b2611143565b5b6109be848285610f4f565b509392505050565b6000813590506109d581611170565b92915050565b600082601f8301126109f0576109ef61113e565b5b8135610a00848260208601610984565b91505092915050565b600081359050610a1881611187565b92915050565b600060208284031215610a3457610a3361114d565b5b6000610a42848285016109c6565b91505092915050565b60008060408385031215610a6257610a6161114d565b5b6000610a70858286016109c6565b9250506020610a8185828601610a09565b9150509250929050565b600060208284031215610aa157610aa061114d565b5b600082013567ffffffffffffffff811115610abf57610abe611148565b5b610acb848285016109db565b91505092915050565b610add81610f09565b82525050565b610af4610aef82610f09565b610ff4565b82525050565b610b0381610f1b565b82525050565b6000610b1482610c44565b610b1e8185610c4f565b9350610b2e818560208601610f5e565b610b3781611152565b840191505092915050565b610b53610b4e82610f45565b611018565b82525050565b6000610b658286610b42565b602082019150610b758285610b42565b602082019150610b858284610ae3565b601482019150819050949350505050565b6000602082019050610bab6000830184610ad4565b92915050565b6000602082019050610bc66000830184610afa565b92915050565b60006020820190508181036000830152610be68184610b09565b905092915050565b6000610bf8610c09565b9050610c048282610fc3565b919050565b6000604051905090565b600067ffffffffffffffff821115610c2e57610c2d61110f565b5b610c3782611152565b9050602081019050919050565b600081519050919050565b600082825260208201905092915050565b6000610c6b82610f1b565b9150610c7683610f1b565b9250817f7fffffffffffffffffffffffffffffffffffffffffffffffffffffffffffffff03831360008312151615610cb157610cb0611053565b5b817f8000000000000000000000000000000000000000000000000000000000000000038312600083121615610ce957610ce8611053565b5b828201905092915050565b6000610cff82610f1b565b9150610d0a83610f1b565b925082610d1a57610d19611082565b5b600160000383147f800000000000000000000000000000000000000000000000000000000000000083141615610d5357610d52611053565b5b828205905092915050565b6000610d6982610f1b565b9150610d7483610f1b565b9250827f7fffffffffffffffffffffffffffffffffffffffffffffffffffffffffffffff0482116000841360008413161615610db357610db2611053565b5b817f80000000000000000000000000000000000000000000000000000000000000000583126000841260008413161615610df057610def611053565b5b827f80000000000000000000000000000000000000000000000000000000000000000582126000841360008412161615610e2d57610e2c611053565b5b827f7fffffffffffffffffffffffffffffffffffffffffffffffffffffffffffffff0582126000841260008412161615610e6a57610e69611053565b5b828202905092915050565b6000610e8082610f1b565b9150610e8b83610f1b565b9250827f800000000000000000000000000000000000000000000000000000000000000001821260008412151615610ec657610ec5611053565b5b827f7fffffffffffffffffffffffffffffffffffffffffffffffffffffffffffffff018213600084121615610efe57610efd611053565b5b828203905092915050565b6000610f1482610f25565b9050919050565b6000819050919050565b600073ffffffffffffffffffffffffffffffffffffffff82169050919050565b6000819050919050565b82818337600083830152505050565b60005b83811015610f7c578082015181840152602081019050610f61565b83811115610f8b576000848401525b50505050565b60006002820490506001821680610fa957607f821691505b60208210811415610fbd57610fbc6110b1565b5b50919050565b610fcc82611152565b810181811067ffffffffffffffff82111715610feb57610fea61110f565b5b80604052505050565b6000610fff82611006565b9050919050565b600061101182611163565b9050919050565b6000819050919050565b600061102d82610f45565b915061103883610f45565b92508261104857611047611082565b5b828206905092915050565b7f4e487b7100000000000000000000000000000000000000000000000000000000600052601160045260246000fd5b7f4e487b7100000000000000000000000000000000000000000000000000000000600052601260045260246000fd5b7f4e487b7100000000000000000000000000000000000000000000000000000000600052602260045260246000fd5b7f4e487b7100000000000000000000000000000000000000000000000000000000600052603260045260246000fd5b7f4e487b7100000000000000000000000000000000000000000000000000000000600052604160045260246000fd5b600080fd5b600080fd5b600080fd5b600080fd5b6000601f19601f8301169050919050565b60008160601b9050919050565b61117981610f09565b811461118457600080fd5b50565b61119081610f45565b811461119b57600080fd5b5056fea26469706673582212200ff359b92e1aa4483529d32a8cdd73110c144895524e37615e051918e03c6ad464736f6c63430008070033",
					"opcodes": "PUSH1 0x80 PUSH1 0x40 MSTORE PUSH1 0x40 MLOAD DUP1 PUSH1 0x60 ADD PUSH1 0x40 MSTORE DUP1 PUSH1 0x40 MLOAD DUP1 PUSH1 0x40 ADD PUSH1 0x40 MSTORE DUP1 PUSH1 0x6 DUP2 MSTORE PUSH1 0x20 ADD PUSH32 0x4174746163680000000000000000000000000000000000000000000000000000 DUP2 MSTORE POP DUP2 MSTORE PUSH1 0x20 ADD PUSH1 0x40 MLOAD DUP1 PUSH1 0x40 ADD PUSH1 0x40 MSTORE DUP1 PUSH1 0x7 DUP2 MSTORE PUSH1 0x20 ADD PUSH32 0x446566696E636500000000000000000000000000000000000000000000000000 DUP2 MSTORE POP DUP2 MSTORE PUSH1 0x20 ADD PUSH1 0x40 MLOAD DUP1 PUSH1 0x40 ADD PUSH1 0x40 MSTORE DUP1 PUSH1 0x7 DUP2 MSTORE PUSH1 0x20 ADD PUSH32 0x42616C616E636500000000000000000000000000000000000000000000000000 DUP2 MSTORE POP DUP2 MSTORE POP PUSH1 0x4 SWAP1 PUSH1 0x3 PUSH3 0xD0 SWAP3 SWAP2 SWAP1 PUSH3 0x125 JUMP JUMPDEST POP CALLVALUE DUP1 ISZERO PUSH3 0xDE JUMPI PUSH1 0x0 DUP1 REVERT JUMPDEST POP CALLER PUSH1 0x0 DUP1 PUSH2 0x100 EXP DUP2 SLOAD DUP2 PUSH20 0xFFFFFFFFFFFFFFFFFFFFFFFFFFFFFFFFFFFFFFFF MUL NOT AND SWAP1 DUP4 PUSH20 0xFFFFFFFFFFFFFFFFFFFFFFFFFFFFFFFFFFFFFFFF AND MUL OR SWAP1 SSTORE POP PUSH3 0x30F JUMP JUMPDEST DUP3 DUP1 SLOAD DUP3 DUP3 SSTORE SWAP1 PUSH1 0x0 MSTORE PUSH1 0x20 PUSH1 0x0 KECCAK256 SWAP1 DUP2 ADD SWAP3 DUP3 ISZERO PUSH3 0x179 JUMPI SWAP2 PUSH1 0x20 MUL DUP3 ADD JUMPDEST DUP3 DUP2 GT ISZERO PUSH3 0x178 JUMPI DUP3 MLOAD DUP3 SWAP1 DUP1 MLOAD SWAP1 PUSH1 0x20 ADD SWAP1 PUSH3 0x167 SWAP3 SWAP2 SWAP1 PUSH3 0x18C JUMP JUMPDEST POP SWAP2 PUSH1 0x20 ADD SWAP2 SWAP1 PUSH1 0x1 ADD SWAP1 PUSH3 0x146 JUMP JUMPDEST JUMPDEST POP SWAP1 POP PUSH3 0x188 SWAP2 SWAP1 PUSH3 0x21D JUMP JUMPDEST POP SWAP1 JUMP JUMPDEST DUP3 DUP1 SLOAD PUSH3 0x19A SWAP1 PUSH3 0x2AA JUMP JUMPDEST SWAP1 PUSH1 0x0 MSTORE PUSH1 0x20 PUSH1 0x0 KECCAK256 SWAP1 PUSH1 0x1F ADD PUSH1 0x20 SWAP1 DIV DUP2 ADD SWAP3 DUP3 PUSH3 0x1BE JUMPI PUSH1 0x0 DUP6 SSTORE PUSH3 0x20A JUMP JUMPDEST DUP3 PUSH1 0x1F LT PUSH3 0x1D9 JUMPI DUP1 MLOAD PUSH1 0xFF NOT AND DUP4 DUP1 ADD OR DUP6 SSTORE PUSH3 0x20A JUMP JUMPDEST DUP3 DUP1 ADD PUSH1 0x1 ADD DUP6 SSTORE DUP3 ISZERO PUSH3 0x20A JUMPI SWAP2 DUP3 ADD JUMPDEST DUP3 DUP2 GT ISZERO PUSH3 0x209 JUMPI DUP3 MLOAD DUP3 SSTORE SWAP2 PUSH1 0x20 ADD SWAP2 SWAP1 PUSH1 0x1 ADD SWAP1 PUSH3 0x1EC JUMP JUMPDEST JUMPDEST POP SWAP1 POP PUSH3 0x219 SWAP2 SWAP1 PUSH3 0x245 JUMP JUMPDEST POP SWAP1 JUMP JUMPDEST JUMPDEST DUP1 DUP3 GT ISZERO PUSH3 0x241 JUMPI PUSH1 0x0 DUP2 DUP2 PUSH3 0x237 SWAP2 SWAP1 PUSH3 0x264 JUMP JUMPDEST POP PUSH1 0x1 ADD PUSH3 0x21E JUMP JUMPDEST POP SWAP1 JUMP JUMPDEST JUMPDEST DUP1 DUP3 GT ISZERO PUSH3 0x260 JUMPI PUSH1 0x0 DUP2 PUSH1 0x0 SWAP1 SSTORE POP PUSH1 0x1 ADD PUSH3 0x246 JUMP JUMPDEST POP SWAP1 JUMP JUMPDEST POP DUP1 SLOAD PUSH3 0x272 SWAP1 PUSH3 0x2AA JUMP JUMPDEST PUSH1 0x0 DUP3 SSTORE DUP1 PUSH1 0x1F LT PUSH3 0x286 JUMPI POP PUSH3 0x2A7 JUMP JUMPDEST PUSH1 0x1F ADD PUSH1 0x20 SWAP1 DIV SWAP1 PUSH1 0x0 MSTORE PUSH1 0x20 PUSH1 0x0 KECCAK256 SWAP1 DUP2 ADD SWAP1 PUSH3 0x2A6 SWAP2 SWAP1 PUSH3 0x245 JUMP JUMPDEST JUMPDEST POP JUMP JUMPDEST PUSH1 0x0 PUSH1 0x2 DUP3 DIV SWAP1 POP PUSH1 0x1 DUP3 AND DUP1 PUSH3 0x2C3 JUMPI PUSH1 0x7F DUP3 AND SWAP2 POP JUMPDEST PUSH1 0x20 DUP3 LT DUP2 EQ ISZERO PUSH3 0x2DA JUMPI PUSH3 0x2D9 PUSH3 0x2E0 JUMP JUMPDEST JUMPDEST POP SWAP2 SWAP1 POP JUMP JUMPDEST PUSH32 0x4E487B7100000000000000000000000000000000000000000000000000000000 PUSH1 0x0 MSTORE PUSH1 0x22 PUSH1 0x4 MSTORE PUSH1 0x24 PUSH1 0x0 REVERT JUMPDEST PUSH2 0x11D4 DUP1 PUSH3 0x31F PUSH1 0x0 CODECOPY PUSH1 0x0 RETURN INVALID PUSH1 0x80 PUSH1 0x40 MSTORE CALLVALUE DUP1 ISZERO PUSH2 0x10 JUMPI PUSH1 0x0 DUP1 REVERT JUMPDEST POP PUSH1 0x4 CALLDATASIZE LT PUSH2 0x57 JUMPI PUSH1 0x0 CALLDATALOAD PUSH1 0xE0 SHR DUP1 PUSH4 0x7546172 EQ PUSH2 0x5C JUMPI DUP1 PUSH4 0x5CF3D346 EQ PUSH2 0x7A JUMPI DUP1 PUSH4 0x6A786B07 EQ PUSH2 0xAA JUMPI DUP1 PUSH4 0xABF5F2ED EQ PUSH2 0xC6 JUMPI DUP1 PUSH4 0xBC346C9C EQ PUSH2 0xF6 JUMPI JUMPDEST PUSH1 0x0 DUP1 REVERT JUMPDEST PUSH2 0x64 PUSH2 0x112 JUMP JUMPDEST PUSH1 0x40 MLOAD PUSH2 0x71 SWAP2 SWAP1 PUSH2 0xB96 JUMP JUMPDEST PUSH1 0x40 MLOAD DUP1 SWAP2 SUB SWAP1 RETURN JUMPDEST PUSH2 0x94 PUSH1 0x4 DUP1 CALLDATASIZE SUB DUP2 ADD SWAP1 PUSH2 0x8F SWAP2 SWAP1 PUSH2 0xA1E JUMP JUMPDEST PUSH2 0x136 JUMP JUMPDEST PUSH1 0x40 MLOAD PUSH2 0xA1 SWAP2 SWAP1 PUSH2 0xBCC JUMP JUMPDEST PUSH1 0x40 MLOAD DUP1 SWAP2 SUB SWAP1 RETURN JUMPDEST PUSH2 0xC4 PUSH1 0x4 DUP1 CALLDATASIZE SUB DUP2 ADD SWAP1 PUSH2 0xBF SWAP2 SWAP1 PUSH2 0xA8B JUMP JUMPDEST PUSH2 0x1D6 JUMP JUMPDEST STOP JUMPDEST PUSH2 0xE0 PUSH1 0x4 DUP1 CALLDATASIZE SUB DUP2 ADD SWAP1 PUSH2 0xDB SWAP2 SWAP1 PUSH2 0xA4B JUMP JUMPDEST PUSH2 0x416 JUMP JUMPDEST PUSH1 0x40 MLOAD PUSH2 0xED SWAP2 SWAP1 PUSH2 0xBB1 JUMP JUMPDEST PUSH1 0x40 MLOAD DUP1 SWAP2 SUB SWAP1 RETURN JUMPDEST PUSH2 0x110 PUSH1 0x4 DUP1 CALLDATASIZE SUB DUP2 ADD SWAP1 PUSH2 0x10B SWAP2 SWAP1 PUSH2 0xA1E JUMP JUMPDEST PUSH2 0x43E JUMP JUMPDEST STOP JUMPDEST PUSH1 0x0 DUP1 SLOAD SWAP1 PUSH2 0x100 EXP SWAP1 DIV PUSH20 0xFFFFFFFFFFFFFFFFFFFFFFFFFFFFFFFFFFFFFFFF AND DUP2 JUMP JUMPDEST PUSH1 0x3 PUSH1 0x20 MSTORE DUP1 PUSH1 0x0 MSTORE PUSH1 0x40 PUSH1 0x0 KECCAK256 PUSH1 0x0 SWAP2 POP SWAP1 POP DUP1 SLOAD PUSH2 0x155 SWAP1 PUSH2 0xF91 JUMP JUMPDEST DUP1 PUSH1 0x1F ADD PUSH1 0x20 DUP1 SWAP2 DIV MUL PUSH1 0x20 ADD PUSH1 0x40 MLOAD SWAP1 DUP2 ADD PUSH1 0x40 MSTORE DUP1 SWAP3 SWAP2 SWAP1 DUP2 DUP2 MSTORE PUSH1 0x20 ADD DUP3 DUP1 SLOAD PUSH2 0x181 SWAP1 PUSH2 0xF91 JUMP JUMPDEST DUP1 ISZERO PUSH2 0x1CE JUMPI DUP1 PUSH1 0x1F LT PUSH2 0x1A3 JUMPI PUSH2 0x100 DUP1 DUP4 SLOAD DIV MUL DUP4 MSTORE SWAP2 PUSH1 0x20 ADD SWAP2 PUSH2 0x1CE JUMP JUMPDEST DUP3 ADD SWAP2 SWAP1 PUSH1 0x0 MSTORE PUSH1 0x20 PUSH1 0x0 KECCAK256 SWAP1 JUMPDEST DUP2 SLOAD DUP2 MSTORE SWAP1 PUSH1 0x1 ADD SWAP1 PUSH1 0x20 ADD DUP1 DUP4 GT PUSH2 0x1B1 JUMPI DUP3 SWAP1 SUB PUSH1 0x1F AND DUP3 ADD SWAP2 JUMPDEST POP POP POP POP POP DUP2 JUMP JUMPDEST PUSH1 0x1 ISZERO ISZERO PUSH1 0x2 PUSH1 0x0 CALLER PUSH20 0xFFFFFFFFFFFFFFFFFFFFFFFFFFFFFFFFFFFFFFFF AND PUSH20 0xFFFFFFFFFFFFFFFFFFFFFFFFFFFFFFFFFFFFFFFF AND DUP2 MSTORE PUSH1 0x20 ADD SWAP1 DUP2 MSTORE PUSH1 0x20 ADD PUSH1 0x0 KECCAK256 PUSH1 0x0 SWAP1 SLOAD SWAP1 PUSH2 0x100 EXP SWAP1 DIV PUSH1 0xFF AND ISZERO ISZERO EQ ISZERO PUSH2 0x234 JUMPI PUSH1 0x0 DUP1 REVERT JUMPDEST PUSH1 0x1 PUSH1 0x2 PUSH1 0x0 CALLER PUSH20 0xFFFFFFFFFFFFFFFFFFFFFFFFFFFFFFFFFFFFFFFF AND PUSH20 0xFFFFFFFFFFFFFFFFFFFFFFFFFFFFFFFFFFFFFFFF AND DUP2 MSTORE PUSH1 0x20 ADD SWAP1 DUP2 MSTORE PUSH1 0x20 ADD PUSH1 0x0 KECCAK256 PUSH1 0x0 PUSH2 0x100 EXP DUP2 SLOAD DUP2 PUSH1 0xFF MUL NOT AND SWAP1 DUP4 ISZERO ISZERO MUL OR SWAP1 SSTORE POP PUSH2 0x296 PUSH1 0x5 PUSH2 0x89F JUMP JUMPDEST PUSH1 0x5 PUSH2 0x2A2 SWAP2 SWAP1 PUSH2 0xC60 JUMP JUMPDEST PUSH1 0x1 PUSH1 0x0 CALLER PUSH20 0xFFFFFFFFFFFFFFFFFFFFFFFFFFFFFFFFFFFFFFFF AND PUSH20 0xFFFFFFFFFFFFFFFFFFFFFFFFFFFFFFFFFFFFFFFF AND DUP2 MSTORE PUSH1 0x20 ADD SWAP1 DUP2 MSTORE PUSH1 0x20 ADD PUSH1 0x0 KECCAK256 PUSH1 0x0 PUSH1 0x3 DUP2 LT PUSH2 0x2F4 JUMPI PUSH2 0x2F3 PUSH2 0x10E0 JUMP JUMPDEST JUMPDEST ADD DUP2 SWAP1 SSTORE POP PUSH2 0x303 PUSH1 0x5 PUSH2 0x89F JUMP JUMPDEST PUSH1 0x5 PUSH2 0x30F SWAP2 SWAP1 PUSH2 0xC60 JUMP JUMPDEST PUSH1 0x1 PUSH1 0x0 CALLER PUSH20 0xFFFFFFFFFFFFFFFFFFFFFFFFFFFFFFFFFFFFFFFF AND PUSH20 0xFFFFFFFFFFFFFFFFFFFFFFFFFFFFFFFFFFFFFFFF AND DUP2 MSTORE PUSH1 0x20 ADD SWAP1 DUP2 MSTORE PUSH1 0x20 ADD PUSH1 0x0 KECCAK256 PUSH1 0x1 PUSH1 0x3 DUP2 LT PUSH2 0x361 JUMPI PUSH2 0x360 PUSH2 0x10E0 JUMP JUMPDEST JUMPDEST ADD DUP2 SWAP1 SSTORE POP PUSH1 0x64 PUSH1 0x1 PUSH1 0x0 CALLER PUSH20 0xFFFFFFFFFFFFFFFFFFFFFFFFFFFFFFFFFFFFFFFF AND PUSH20 0xFFFFFFFFFFFFFFFFFFFFFFFFFFFFFFFFFFFFFFFF AND DUP2 MSTORE PUSH1 0x20 ADD SWAP1 DUP2 MSTORE PUSH1 0x20 ADD PUSH1 0x0 KECCAK256 PUSH1 0x2 PUSH1 0x3 DUP2 LT PUSH2 0x3BA JUMPI PUSH2 0x3B9 PUSH2 0x10E0 JUMP JUMPDEST JUMPDEST ADD DUP2 SWAP1 SSTORE POP DUP1 PUSH1 0x3 PUSH1 0x0 CALLER PUSH20 0xFFFFFFFFFFFFFFFFFFFFFFFFFFFFFFFFFFFFFFFF AND PUSH20 0xFFFFFFFFFFFFFFFFFFFFFFFFFFFFFFFFFFFFFFFF AND DUP2 MSTORE PUSH1 0x20 ADD SWAP1 DUP2 MSTORE PUSH1 0x20 ADD PUSH1 0x0 KECCAK256 SWAP1 DUP1 MLOAD SWAP1 PUSH1 0x20 ADD SWAP1 PUSH2 0x412 SWAP3 SWAP2 SWAP1 PUSH2 0x8E1 JUMP JUMPDEST POP POP JUMP JUMPDEST PUSH1 0x1 PUSH1 0x20 MSTORE DUP2 PUSH1 0x0 MSTORE PUSH1 0x40 PUSH1 0x0 KECCAK256 DUP2 PUSH1 0x3 DUP2 LT PUSH2 0x432 JUMPI PUSH1 0x0 DUP1 REVERT JUMPDEST ADD PUSH1 0x0 SWAP2 POP SWAP2 POP POP SLOAD DUP2 JUMP JUMPDEST PUSH1 0x1 ISZERO ISZERO PUSH1 0x2 PUSH1 0x0 DUP4 PUSH20 0xFFFFFFFFFFFFFFFFFFFFFFFFFFFFFFFFFFFFFFFF AND PUSH20 0xFFFFFFFFFFFFFFFFFFFFFFFFFFFFFFFFFFFFFFFF AND DUP2 MSTORE PUSH1 0x20 ADD SWAP1 DUP2 MSTORE PUSH1 0x20 ADD PUSH1 0x0 KECCAK256 PUSH1 0x0 SWAP1 SLOAD SWAP1 PUSH2 0x100 EXP SWAP1 DIV PUSH1 0xFF AND ISZERO ISZERO EQ PUSH2 0x49B JUMPI PUSH1 0x0 DUP1 REVERT JUMPDEST PUSH1 0x0 PUSH1 0x1 PUSH1 0x0 DUP4 PUSH20 0xFFFFFFFFFFFFFFFFFFFFFFFFFFFFFFFFFFFFFFFF AND PUSH20 0xFFFFFFFFFFFFFFFFFFFFFFFFFFFFFFFFFFFFFFFF AND DUP2 MSTORE PUSH1 0x20 ADD SWAP1 DUP2 MSTORE PUSH1 0x20 ADD PUSH1 0x0 KECCAK256 PUSH1 0x1 PUSH1 0x3 DUP2 LT PUSH2 0x4EF JUMPI PUSH2 0x4EE PUSH2 0x10E0 JUMP JUMPDEST JUMPDEST ADD SLOAD PUSH1 0x1 PUSH1 0x0 CALLER PUSH20 0xFFFFFFFFFFFFFFFFFFFFFFFFFFFFFFFFFFFFFFFF AND PUSH20 0xFFFFFFFFFFFFFFFFFFFFFFFFFFFFFFFFFFFFFFFF AND DUP2 MSTORE PUSH1 0x20 ADD SWAP1 DUP2 MSTORE PUSH1 0x20 ADD PUSH1 0x0 KECCAK256 PUSH1 0x0 PUSH1 0x3 DUP2 LT PUSH2 0x543 JUMPI PUSH2 0x542 PUSH2 0x10E0 JUMP JUMPDEST JUMPDEST ADD SLOAD PUSH2 0x54F SWAP2 SWAP1 PUSH2 0xE75 JUMP JUMPDEST SWAP1 POP PUSH1 0x0 DUP2 SGT ISZERO PUSH2 0x721 JUMPI PUSH1 0x2 DUP2 PUSH2 0x567 SWAP2 SWAP1 PUSH2 0xD5E JUMP JUMPDEST PUSH1 0x1 PUSH1 0x0 DUP5 PUSH20 0xFFFFFFFFFFFFFFFFFFFFFFFFFFFFFFFFFFFFFFFF AND PUSH20 0xFFFFFFFFFFFFFFFFFFFFFFFFFFFFFFFFFFFFFFFF AND DUP2 MSTORE PUSH1 0x20 ADD SWAP1 DUP2 MSTORE PUSH1 0x20 ADD PUSH1 0x0 KECCAK256 PUSH1 0x2 PUSH1 0x3 DUP2 LT PUSH2 0x5B9 JUMPI PUSH2 0x5B8 PUSH2 0x10E0 JUMP JUMPDEST JUMPDEST ADD PUSH1 0x0 DUP3 DUP3 SLOAD PUSH2 0x5C9 SWAP2 SWAP1 PUSH2 0xE75 JUMP JUMPDEST SWAP3 POP POP DUP2 SWAP1 SSTORE POP PUSH1 0x2 DUP2 PUSH2 0x5DD SWAP2 SWAP1 PUSH2 0xCF4 JUMP JUMPDEST PUSH1 0x1 PUSH1 0x0 CALLER PUSH20 0xFFFFFFFFFFFFFFFFFFFFFFFFFFFFFFFFFFFFFFFF AND PUSH20 0xFFFFFFFFFFFFFFFFFFFFFFFFFFFFFFFFFFFFFFFF AND DUP2 MSTORE PUSH1 0x20 ADD SWAP1 DUP2 MSTORE PUSH1 0x20 ADD PUSH1 0x0 KECCAK256 PUSH1 0x2 PUSH1 0x3 DUP2 LT PUSH2 0x62F JUMPI PUSH2 0x62E PUSH2 0x10E0 JUMP JUMPDEST JUMPDEST ADD PUSH1 0x0 DUP3 DUP3 SLOAD PUSH2 0x63F SWAP2 SWAP1 PUSH2 0xE75 JUMP JUMPDEST SWAP3 POP POP DUP2 SWAP1 SSTORE POP PUSH1 0xA PUSH1 0x1 PUSH1 0x0 CALLER PUSH20 0xFFFFFFFFFFFFFFFFFFFFFFFFFFFFFFFFFFFFFFFF AND PUSH20 0xFFFFFFFFFFFFFFFFFFFFFFFFFFFFFFFFFFFFFFFF AND DUP2 MSTORE PUSH1 0x20 ADD SWAP1 DUP2 MSTORE PUSH1 0x20 ADD PUSH1 0x0 KECCAK256 PUSH1 0x0 PUSH1 0x3 DUP2 LT PUSH2 0x69A JUMPI PUSH2 0x699 PUSH2 0x10E0 JUMP JUMPDEST JUMPDEST ADD PUSH1 0x0 DUP3 DUP3 SLOAD PUSH2 0x6AA SWAP2 SWAP1 PUSH2 0xC60 JUMP JUMPDEST SWAP3 POP POP DUP2 SWAP1 SSTORE POP PUSH1 0xA PUSH1 0x1 PUSH1 0x0 DUP5 PUSH20 0xFFFFFFFFFFFFFFFFFFFFFFFFFFFFFFFFFFFFFFFF AND PUSH20 0xFFFFFFFFFFFFFFFFFFFFFFFFFFFFFFFFFFFFFFFF AND DUP2 MSTORE PUSH1 0x20 ADD SWAP1 DUP2 MSTORE PUSH1 0x20 ADD PUSH1 0x0 KECCAK256 PUSH1 0x1 PUSH1 0x3 DUP2 LT PUSH2 0x705 JUMPI PUSH2 0x704 PUSH2 0x10E0 JUMP JUMPDEST JUMPDEST ADD PUSH1 0x0 DUP3 DUP3 SLOAD PUSH2 0x715 SWAP2 SWAP1 PUSH2 0xC60 JUMP JUMPDEST SWAP3 POP POP DUP2 SWAP1 SSTORE POP PUSH2 0x89B JUMP JUMPDEST PUSH32 0xFFFFFFFFFFFFFFFFFFFFFFFFFFFFFFFFFFFFFFFFFFFFFFFFFFFFFFFFFFFFFFFF DUP2 PUSH2 0x74D SWAP2 SWAP1 PUSH2 0xD5E JUMP JUMPDEST SWAP1 POP PUSH1 0x2 DUP2 PUSH2 0x75C SWAP2 SWAP1 PUSH2 0xCF4 JUMP JUMPDEST PUSH1 0x1 PUSH1 0x0 DUP5 PUSH20 0xFFFFFFFFFFFFFFFFFFFFFFFFFFFFFFFFFFFFFFFF AND PUSH20 0xFFFFFFFFFFFFFFFFFFFFFFFFFFFFFFFFFFFFFFFF AND DUP2 MSTORE PUSH1 0x20 ADD SWAP1 DUP2 MSTORE PUSH1 0x20 ADD PUSH1 0x0 KECCAK256 PUSH1 0x2 PUSH1 0x3 DUP2 LT PUSH2 0x7AE JUMPI PUSH2 0x7AD PUSH2 0x10E0 JUMP JUMPDEST JUMPDEST ADD PUSH1 0x0 DUP3 DUP3 SLOAD PUSH2 0x7BE SWAP2 SWAP1 PUSH2 0xE75 JUMP JUMPDEST SWAP3 POP POP DUP2 SWAP1 SSTORE POP DUP1 PUSH1 0x1 PUSH1 0x0 CALLER PUSH20 0xFFFFFFFFFFFFFFFFFFFFFFFFFFFFFFFFFFFFFFFF AND PUSH20 0xFFFFFFFFFFFFFFFFFFFFFFFFFFFFFFFFFFFFFFFF AND DUP2 MSTORE PUSH1 0x20 ADD SWAP1 DUP2 MSTORE PUSH1 0x20 ADD PUSH1 0x0 KECCAK256 PUSH1 0x2 PUSH1 0x3 DUP2 LT PUSH2 0x818 JUMPI PUSH2 0x817 PUSH2 0x10E0 JUMP JUMPDEST JUMPDEST ADD PUSH1 0x0 DUP3 DUP3 SLOAD PUSH2 0x828 SWAP2 SWAP1 PUSH2 0xE75 JUMP JUMPDEST SWAP3 POP POP DUP2 SWAP1 SSTORE POP PUSH1 0x14 PUSH1 0x1 PUSH1 0x0 DUP5 PUSH20 0xFFFFFFFFFFFFFFFFFFFFFFFFFFFFFFFFFFFFFFFF AND PUSH20 0xFFFFFFFFFFFFFFFFFFFFFFFFFFFFFFFFFFFFFFFF AND DUP2 MSTORE PUSH1 0x20 ADD SWAP1 DUP2 MSTORE PUSH1 0x20 ADD PUSH1 0x0 KECCAK256 PUSH1 0x1 PUSH1 0x3 DUP2 LT PUSH2 0x883 JUMPI PUSH2 0x882 PUSH2 0x10E0 JUMP JUMPDEST JUMPDEST ADD PUSH1 0x0 DUP3 DUP3 SLOAD PUSH2 0x893 SWAP2 SWAP1 PUSH2 0xC60 JUMP JUMPDEST SWAP3 POP POP DUP2 SWAP1 SSTORE POP JUMPDEST POP POP JUMP JUMPDEST PUSH1 0x0 DUP2 TIMESTAMP DIFFICULTY CALLER PUSH1 0x40 MLOAD PUSH1 0x20 ADD PUSH2 0x8B7 SWAP4 SWAP3 SWAP2 SWAP1 PUSH2 0xB59 JUMP JUMPDEST PUSH1 0x40 MLOAD PUSH1 0x20 DUP2 DUP4 SUB SUB DUP2 MSTORE SWAP1 PUSH1 0x40 MSTORE DUP1 MLOAD SWAP1 PUSH1 0x20 ADD KECCAK256 PUSH1 0x0 SHR PUSH2 0x8DA SWAP2 SWAP1 PUSH2 0x1022 JUMP JUMPDEST SWAP1 POP SWAP2 SWAP1 POP JUMP JUMPDEST DUP3 DUP1 SLOAD PUSH2 0x8ED SWAP1 PUSH2 0xF91 JUMP JUMPDEST SWAP1 PUSH1 0x0 MSTORE PUSH1 0x20 PUSH1 0x0 KECCAK256 SWAP1 PUSH1 0x1F ADD PUSH1 0x20 SWAP1 DIV DUP2 ADD SWAP3 DUP3 PUSH2 0x90F JUMPI PUSH1 0x0 DUP6 SSTORE PUSH2 0x956 JUMP JUMPDEST DUP3 PUSH1 0x1F LT PUSH2 0x928 JUMPI DUP1 MLOAD PUSH1 0xFF NOT AND DUP4 DUP1 ADD OR DUP6 SSTORE PUSH2 0x956 JUMP JUMPDEST DUP3 DUP1 ADD PUSH1 0x1 ADD DUP6 SSTORE DUP3 ISZERO PUSH2 0x956 JUMPI SWAP2 DUP3 ADD JUMPDEST DUP3 DUP2 GT ISZERO PUSH2 0x955 JUMPI DUP3 MLOAD DUP3 SSTORE SWAP2 PUSH1 0x20 ADD SWAP2 SWAP1 PUSH1 0x1 ADD SWAP1 PUSH2 0x93A JUMP JUMPDEST JUMPDEST POP SWAP1 POP PUSH2 0x963 SWAP2 SWAP1 PUSH2 0x967 JUMP JUMPDEST POP SWAP1 JUMP JUMPDEST JUMPDEST DUP1 DUP3 GT ISZERO PUSH2 0x980 JUMPI PUSH1 0x0 DUP2 PUSH1 0x0 SWAP1 SSTORE POP PUSH1 0x1 ADD PUSH2 0x968 JUMP JUMPDEST POP SWAP1 JUMP JUMPDEST PUSH1 0x0 PUSH2 0x997 PUSH2 0x992 DUP5 PUSH2 0xC13 JUMP JUMPDEST PUSH2 0xBEE JUMP JUMPDEST SWAP1 POP DUP3 DUP2 MSTORE PUSH1 0x20 DUP2 ADD DUP5 DUP5 DUP5 ADD GT ISZERO PUSH2 0x9B3 JUMPI PUSH2 0x9B2 PUSH2 0x1143 JUMP JUMPDEST JUMPDEST PUSH2 0x9BE DUP5 DUP3 DUP6 PUSH2 0xF4F JUMP JUMPDEST POP SWAP4 SWAP3 POP POP POP JUMP JUMPDEST PUSH1 0x0 DUP2 CALLDATALOAD SWAP1 POP PUSH2 0x9D5 DUP2 PUSH2 0x1170 JUMP JUMPDEST SWAP3 SWAP2 POP POP JUMP JUMPDEST PUSH1 0x0 DUP3 PUSH1 0x1F DUP4 ADD SLT PUSH2 0x9F0 JUMPI PUSH2 0x9EF PUSH2 0x113E JUMP JUMPDEST JUMPDEST DUP2 CALLDATALOAD PUSH2 0xA00 DUP5 DUP3 PUSH1 0x20 DUP7 ADD PUSH2 0x984 JUMP JUMPDEST SWAP2 POP POP SWAP3 SWAP2 POP POP JUMP JUMPDEST PUSH1 0x0 DUP2 CALLDATALOAD SWAP1 POP PUSH2 0xA18 DUP2 PUSH2 0x1187 JUMP JUMPDEST SWAP3 SWAP2 POP POP JUMP JUMPDEST PUSH1 0x0 PUSH1 0x20 DUP3 DUP5 SUB SLT ISZERO PUSH2 0xA34 JUMPI PUSH2 0xA33 PUSH2 0x114D JUMP JUMPDEST JUMPDEST PUSH1 0x0 PUSH2 0xA42 DUP5 DUP3 DUP6 ADD PUSH2 0x9C6 JUMP JUMPDEST SWAP2 POP POP SWAP3 SWAP2 POP POP JUMP JUMPDEST PUSH1 0x0 DUP1 PUSH1 0x40 DUP4 DUP6 SUB SLT ISZERO PUSH2 0xA62 JUMPI PUSH2 0xA61 PUSH2 0x114D JUMP JUMPDEST JUMPDEST PUSH1 0x0 PUSH2 0xA70 DUP6 DUP3 DUP7 ADD PUSH2 0x9C6 JUMP JUMPDEST SWAP3 POP POP PUSH1 0x20 PUSH2 0xA81 DUP6 DUP3 DUP7 ADD PUSH2 0xA09 JUMP JUMPDEST SWAP2 POP POP SWAP3 POP SWAP3 SWAP1 POP JUMP JUMPDEST PUSH1 0x0 PUSH1 0x20 DUP3 DUP5 SUB SLT ISZERO PUSH2 0xAA1 JUMPI PUSH2 0xAA0 PUSH2 0x114D JUMP JUMPDEST JUMPDEST PUSH1 0x0 DUP3 ADD CALLDATALOAD PUSH8 0xFFFFFFFFFFFFFFFF DUP2 GT ISZERO PUSH2 0xABF JUMPI PUSH2 0xABE PUSH2 0x1148 JUMP JUMPDEST JUMPDEST PUSH2 0xACB DUP5 DUP3 DUP6 ADD PUSH2 0x9DB JUMP JUMPDEST SWAP2 POP POP SWAP3 SWAP2 POP POP JUMP JUMPDEST PUSH2 0xADD DUP2 PUSH2 0xF09 JUMP JUMPDEST DUP3 MSTORE POP POP JUMP JUMPDEST PUSH2 0xAF4 PUSH2 0xAEF DUP3 PUSH2 0xF09 JUMP JUMPDEST PUSH2 0xFF4 JUMP JUMPDEST DUP3 MSTORE POP POP JUMP JUMPDEST PUSH2 0xB03 DUP2 PUSH2 0xF1B JUMP JUMPDEST DUP3 MSTORE POP POP JUMP JUMPDEST PUSH1 0x0 PUSH2 0xB14 DUP3 PUSH2 0xC44 JUMP JUMPDEST PUSH2 0xB1E DUP2 DUP6 PUSH2 0xC4F JUMP JUMPDEST SWAP4 POP PUSH2 0xB2E DUP2 DUP6 PUSH1 0x20 DUP7 ADD PUSH2 0xF5E JUMP JUMPDEST PUSH2 0xB37 DUP2 PUSH2 0x1152 JUMP JUMPDEST DUP5 ADD SWAP2 POP POP SWAP3 SWAP2 POP POP JUMP JUMPDEST PUSH2 0xB53 PUSH2 0xB4E DUP3 PUSH2 0xF45 JUMP JUMPDEST PUSH2 0x1018 JUMP JUMPDEST DUP3 MSTORE POP POP JUMP JUMPDEST PUSH1 0x0 PUSH2 0xB65 DUP3 DUP7 PUSH2 0xB42 JUMP JUMPDEST PUSH1 0x20 DUP3 ADD SWAP2 POP PUSH2 0xB75 DUP3 DUP6 PUSH2 0xB42 JUMP JUMPDEST PUSH1 0x20 DUP3 ADD SWAP2 POP PUSH2 0xB85 DUP3 DUP5 PUSH2 0xAE3 JUMP JUMPDEST PUSH1 0x14 DUP3 ADD SWAP2 POP DUP2 SWAP1 POP SWAP5 SWAP4 POP POP POP POP JUMP JUMPDEST PUSH1 0x0 PUSH1 0x20 DUP3 ADD SWAP1 POP PUSH2 0xBAB PUSH1 0x0 DUP4 ADD DUP5 PUSH2 0xAD4 JUMP JUMPDEST SWAP3 SWAP2 POP POP JUMP JUMPDEST PUSH1 0x0 PUSH1 0x20 DUP3 ADD SWAP1 POP PUSH2 0xBC6 PUSH1 0x0 DUP4 ADD DUP5 PUSH2 0xAFA JUMP JUMPDEST SWAP3 SWAP2 POP POP JUMP JUMPDEST PUSH1 0x0 PUSH1 0x20 DUP3 ADD SWAP1 POP DUP2 DUP2 SUB PUSH1 0x0 DUP4 ADD MSTORE PUSH2 0xBE6 DUP2 DUP5 PUSH2 0xB09 JUMP JUMPDEST SWAP1 POP SWAP3 SWAP2 POP POP JUMP JUMPDEST PUSH1 0x0 PUSH2 0xBF8 PUSH2 0xC09 JUMP JUMPDEST SWAP1 POP PUSH2 0xC04 DUP3 DUP3 PUSH2 0xFC3 JUMP JUMPDEST SWAP2 SWAP1 POP JUMP JUMPDEST PUSH1 0x0 PUSH1 0x40 MLOAD SWAP1 POP SWAP1 JUMP JUMPDEST PUSH1 0x0 PUSH8 0xFFFFFFFFFFFFFFFF DUP3 GT ISZERO PUSH2 0xC2E JUMPI PUSH2 0xC2D PUSH2 0x110F JUMP JUMPDEST JUMPDEST PUSH2 0xC37 DUP3 PUSH2 0x1152 JUMP JUMPDEST SWAP1 POP PUSH1 0x20 DUP2 ADD SWAP1 POP SWAP2 SWAP1 POP JUMP JUMPDEST PUSH1 0x0 DUP2 MLOAD SWAP1 POP SWAP2 SWAP1 POP JUMP JUMPDEST PUSH1 0x0 DUP3 DUP3 MSTORE PUSH1 0x20 DUP3 ADD SWAP1 POP SWAP3 SWAP2 POP POP JUMP JUMPDEST PUSH1 0x0 PUSH2 0xC6B DUP3 PUSH2 0xF1B JUMP JUMPDEST SWAP2 POP PUSH2 0xC76 DUP4 PUSH2 0xF1B JUMP JUMPDEST SWAP3 POP DUP2 PUSH32 0x7FFFFFFFFFFFFFFFFFFFFFFFFFFFFFFFFFFFFFFFFFFFFFFFFFFFFFFFFFFFFFFF SUB DUP4 SGT PUSH1 0x0 DUP4 SLT ISZERO AND ISZERO PUSH2 0xCB1 JUMPI PUSH2 0xCB0 PUSH2 0x1053 JUMP JUMPDEST JUMPDEST DUP2 PUSH32 0x8000000000000000000000000000000000000000000000000000000000000000 SUB DUP4 SLT PUSH1 0x0 DUP4 SLT AND ISZERO PUSH2 0xCE9 JUMPI PUSH2 0xCE8 PUSH2 0x1053 JUMP JUMPDEST JUMPDEST DUP3 DUP3 ADD SWAP1 POP SWAP3 SWAP2 POP POP JUMP JUMPDEST PUSH1 0x0 PUSH2 0xCFF DUP3 PUSH2 0xF1B JUMP JUMPDEST SWAP2 POP PUSH2 0xD0A DUP4 PUSH2 0xF1B JUMP JUMPDEST SWAP3 POP DUP3 PUSH2 0xD1A JUMPI PUSH2 0xD19 PUSH2 0x1082 JUMP JUMPDEST JUMPDEST PUSH1 0x1 PUSH1 0x0 SUB DUP4 EQ PUSH32 0x8000000000000000000000000000000000000000000000000000000000000000 DUP4 EQ AND ISZERO PUSH2 0xD53 JUMPI PUSH2 0xD52 PUSH2 0x1053 JUMP JUMPDEST JUMPDEST DUP3 DUP3 SDIV SWAP1 POP SWAP3 SWAP2 POP POP JUMP JUMPDEST PUSH1 0x0 PUSH2 0xD69 DUP3 PUSH2 0xF1B JUMP JUMPDEST SWAP2 POP PUSH2 0xD74 DUP4 PUSH2 0xF1B JUMP JUMPDEST SWAP3 POP DUP3 PUSH32 0x7FFFFFFFFFFFFFFFFFFFFFFFFFFFFFFFFFFFFFFFFFFFFFFFFFFFFFFFFFFFFFFF DIV DUP3 GT PUSH1 0x0 DUP5 SGT PUSH1 0x0 DUP5 SGT AND AND ISZERO PUSH2 0xDB3 JUMPI PUSH2 0xDB2 PUSH2 0x1053 JUMP JUMPDEST JUMPDEST DUP2 PUSH32 0x8000000000000000000000000000000000000000000000000000000000000000 SDIV DUP4 SLT PUSH1 0x0 DUP5 SLT PUSH1 0x0 DUP5 SGT AND AND ISZERO PUSH2 0xDF0 JUMPI PUSH2 0xDEF PUSH2 0x1053 JUMP JUMPDEST JUMPDEST DUP3 PUSH32 0x8000000000000000000000000000000000000000000000000000000000000000 SDIV DUP3 SLT PUSH1 0x0 DUP5 SGT PUSH1 0x0 DUP5 SLT AND AND ISZERO PUSH2 0xE2D JUMPI PUSH2 0xE2C PUSH2 0x1053 JUMP JUMPDEST JUMPDEST DUP3 PUSH32 0x7FFFFFFFFFFFFFFFFFFFFFFFFFFFFFFFFFFFFFFFFFFFFFFFFFFFFFFFFFFFFFFF SDIV DUP3 SLT PUSH1 0x0 DUP5 SLT PUSH1 0x0 DUP5 SLT AND AND ISZERO PUSH2 0xE6A JUMPI PUSH2 0xE69 PUSH2 0x1053 JUMP JUMPDEST JUMPDEST DUP3 DUP3 MUL SWAP1 POP SWAP3 SWAP2 POP POP JUMP JUMPDEST PUSH1 0x0 PUSH2 0xE80 DUP3 PUSH2 0xF1B JUMP JUMPDEST SWAP2 POP PUSH2 0xE8B DUP4 PUSH2 0xF1B JUMP JUMPDEST SWAP3 POP DUP3 PUSH32 0x8000000000000000000000000000000000000000000000000000000000000000 ADD DUP3 SLT PUSH1 0x0 DUP5 SLT ISZERO AND ISZERO PUSH2 0xEC6 JUMPI PUSH2 0xEC5 PUSH2 0x1053 JUMP JUMPDEST JUMPDEST DUP3 PUSH32 0x7FFFFFFFFFFFFFFFFFFFFFFFFFFFFFFFFFFFFFFFFFFFFFFFFFFFFFFFFFFFFFFF ADD DUP3 SGT PUSH1 0x0 DUP5 SLT AND ISZERO PUSH2 0xEFE JUMPI PUSH2 0xEFD PUSH2 0x1053 JUMP JUMPDEST JUMPDEST DUP3 DUP3 SUB SWAP1 POP SWAP3 SWAP2 POP POP JUMP JUMPDEST PUSH1 0x0 PUSH2 0xF14 DUP3 PUSH2 0xF25 JUMP JUMPDEST SWAP1 POP SWAP2 SWAP1 POP JUMP JUMPDEST PUSH1 0x0 DUP2 SWAP1 POP SWAP2 SWAP1 POP JUMP JUMPDEST PUSH1 0x0 PUSH20 0xFFFFFFFFFFFFFFFFFFFFFFFFFFFFFFFFFFFFFFFF DUP3 AND SWAP1 POP SWAP2 SWAP1 POP JUMP JUMPDEST PUSH1 0x0 DUP2 SWAP1 POP SWAP2 SWAP1 POP JUMP JUMPDEST DUP3 DUP2 DUP4 CALLDATACOPY PUSH1 0x0 DUP4 DUP4 ADD MSTORE POP POP POP JUMP JUMPDEST PUSH1 0x0 JUMPDEST DUP4 DUP2 LT ISZERO PUSH2 0xF7C JUMPI DUP1 DUP3 ADD MLOAD DUP2 DUP5 ADD MSTORE PUSH1 0x20 DUP2 ADD SWAP1 POP PUSH2 0xF61 JUMP JUMPDEST DUP4 DUP2 GT ISZERO PUSH2 0xF8B JUMPI PUSH1 0x0 DUP5 DUP5 ADD MSTORE JUMPDEST POP POP POP POP JUMP JUMPDEST PUSH1 0x0 PUSH1 0x2 DUP3 DIV SWAP1 POP PUSH1 0x1 DUP3 AND DUP1 PUSH2 0xFA9 JUMPI PUSH1 0x7F DUP3 AND SWAP2 POP JUMPDEST PUSH1 0x20 DUP3 LT DUP2 EQ ISZERO PUSH2 0xFBD JUMPI PUSH2 0xFBC PUSH2 0x10B1 JUMP JUMPDEST JUMPDEST POP SWAP2 SWAP1 POP JUMP JUMPDEST PUSH2 0xFCC DUP3 PUSH2 0x1152 JUMP JUMPDEST DUP2 ADD DUP2 DUP2 LT PUSH8 0xFFFFFFFFFFFFFFFF DUP3 GT OR ISZERO PUSH2 0xFEB JUMPI PUSH2 0xFEA PUSH2 0x110F JUMP JUMPDEST JUMPDEST DUP1 PUSH1 0x40 MSTORE POP POP POP JUMP JUMPDEST PUSH1 0x0 PUSH2 0xFFF DUP3 PUSH2 0x1006 JUMP JUMPDEST SWAP1 POP SWAP2 SWAP1 POP JUMP JUMPDEST PUSH1 0x0 PUSH2 0x1011 DUP3 PUSH2 0x1163 JUMP JUMPDEST SWAP1 POP SWAP2 SWAP1 POP JUMP JUMPDEST PUSH1 0x0 DUP2 SWAP1 POP SWAP2 SWAP1 POP JUMP JUMPDEST PUSH1 0x0 PUSH2 0x102D DUP3 PUSH2 0xF45 JUMP JUMPDEST SWAP2 POP PUSH2 0x1038 DUP4 PUSH2 0xF45 JUMP JUMPDEST SWAP3 POP DUP3 PUSH2 0x1048 JUMPI PUSH2 0x1047 PUSH2 0x1082 JUMP JUMPDEST JUMPDEST DUP3 DUP3 MOD SWAP1 POP SWAP3 SWAP2 POP POP JUMP JUMPDEST PUSH32 0x4E487B7100000000000000000000000000000000000000000000000000000000 PUSH1 0x0 MSTORE PUSH1 0x11 PUSH1 0x4 MSTORE PUSH1 0x24 PUSH1 0x0 REVERT JUMPDEST PUSH32 0x4E487B7100000000000000000000000000000000000000000000000000000000 PUSH1 0x0 MSTORE PUSH1 0x12 PUSH1 0x4 MSTORE PUSH1 0x24 PUSH1 0x0 REVERT JUMPDEST PUSH32 0x4E487B7100000000000000000000000000000000000000000000000000000000 PUSH1 0x0 MSTORE PUSH1 0x22 PUSH1 0x4 MSTORE PUSH1 0x24 PUSH1 0x0 REVERT JUMPDEST PUSH32 0x4E487B7100000000000000000000000000000000000000000000000000000000 PUSH1 0x0 MSTORE PUSH1 0x32 PUSH1 0x4 MSTORE PUSH1 0x24 PUSH1 0x0 REVERT JUMPDEST PUSH32 0x4E487B7100000000000000000000000000000000000000000000000000000000 PUSH1 0x0 MSTORE PUSH1 0x41 PUSH1 0x4 MSTORE PUSH1 0x24 PUSH1 0x0 REVERT JUMPDEST PUSH1 0x0 DUP1 REVERT JUMPDEST PUSH1 0x0 DUP1 REVERT JUMPDEST PUSH1 0x0 DUP1 REVERT JUMPDEST PUSH1 0x0 DUP1 REVERT JUMPDEST PUSH1 0x0 PUSH1 0x1F NOT PUSH1 0x1F DUP4 ADD AND SWAP1 POP SWAP2 SWAP1 POP JUMP JUMPDEST PUSH1 0x0 DUP2 PUSH1 0x60 SHL SWAP1 POP SWAP2 SWAP1 POP JUMP JUMPDEST PUSH2 0x1179 DUP2 PUSH2 0xF09 JUMP JUMPDEST DUP2 EQ PUSH2 0x1184 JUMPI PUSH1 0x0 DUP1 REVERT JUMPDEST POP JUMP JUMPDEST PUSH2 0x1190 DUP2 PUSH2 0xF45 JUMP JUMPDEST DUP2 EQ PUSH2 0x119B JUMPI PUSH1 0x0 DUP1 REVERT JUMPDEST POP JUMP INVALID LOG2 PUSH5 0x6970667358 0x22 SLT KECCAK256 0xF RETURN MSIZE 0xB9 0x2E BYTE LOG4 BASEFEE CALLDATALOAD 0x29 0xD3 0x2A DUP13 0xDD PUSH20 0x110C144895524E37615E051918E03C6AD464736F PUSH13 0x63430008070033000000000000 "
				},
				"gasEstimates": {
					"creation": {
						"codeDepositCost": "912800",
						"executionCost": "infinite",
						"totalCost": "infinite"
					},
					"external": {
						"Attack(address)": "infinite",
						"Stats(address,uint256)": "3060",
						"join(string)": "infinite",
						"minter()": "2489",
						"names(address)": "infinite"
					},
					"internal": {
						"random(uint256)": "infinite"
					}
				},
				"methodIdentifiers": {
					"Attack(address)": "bc346c9c",
					"Stats(address,uint256)": "abf5f2ed",
					"join(string)": "6a786b07",
					"minter()": "07546172",
					"names(address)": "5cf3d346"
				}
			},
			"storageLayout": {
				"storage": [
					{
						"astId": 3,
						"contract": "AttackGame.sol:AttackGame",
						"label": "minter",
						"offset": 0,
						"slot": "0",
						"type": "t_address"
					},
					{
						"astId": 9,
						"contract": "AttackGame.sol:AttackGame",
						"label": "Stats",
						"offset": 0,
						"slot": "1",
						"type": "t_mapping(t_address,t_array(t_int256)3_storage)"
					},
					{
						"astId": 13,
						"contract": "AttackGame.sol:AttackGame",
						"label": "joined",
						"offset": 0,
						"slot": "2",
						"type": "t_mapping(t_address,t_bool)"
					},
					{
						"astId": 17,
						"contract": "AttackGame.sol:AttackGame",
						"label": "names",
						"offset": 0,
						"slot": "3",
						"type": "t_mapping(t_address,t_string_storage)"
					},
					{
						"astId": 24,
						"contract": "AttackGame.sol:AttackGame",
						"label": "StatsInfo",
						"offset": 0,
						"slot": "4",
						"type": "t_array(t_string_storage)dyn_storage"
					}
				],
				"types": {
					"t_address": {
						"encoding": "inplace",
						"label": "address",
						"numberOfBytes": "20"
					},
					"t_array(t_int256)3_storage": {
						"base": "t_int256",
						"encoding": "inplace",
						"label": "int256[3]",
						"numberOfBytes": "96"
					},
					"t_array(t_string_storage)dyn_storage": {
						"base": "t_string_storage",
						"encoding": "dynamic_array",
						"label": "string[]",
						"numberOfBytes": "32"
					},
					"t_bool": {
						"encoding": "inplace",
						"label": "bool",
						"numberOfBytes": "1"
					},
					"t_int256": {
						"encoding": "inplace",
						"label": "int256",
						"numberOfBytes": "32"
					},
					"t_mapping(t_address,t_array(t_int256)3_storage)": {
						"encoding": "mapping",
						"key": "t_address",
						"label": "mapping(address => int256[3])",
						"numberOfBytes": "32",
						"value": "t_array(t_int256)3_storage"
					},
					"t_mapping(t_address,t_bool)": {
						"encoding": "mapping",
						"key": "t_address",
						"label": "mapping(address => bool)",
						"numberOfBytes": "32",
						"value": "t_bool"
					},
					"t_mapping(t_address,t_string_storage)": {
						"encoding": "mapping",
						"key": "t_address",
						"label": "mapping(address => string)",
						"numberOfBytes": "32",
						"value": "t_string_storage"
					},
					"t_string_storage": {
						"encoding": "bytes",
						"label": "string",
						"numberOfBytes": "32"
					}
				}
			},
			"userdoc": {
				"kind": "user",
				"methods": {},
				"version": 1
			}
		}
	}
}