{
	"AttackGame.sol": {
		"AttackGame": {
			"abi": [
				{
					"inputs": [],
					"stateMutability": "nonpayable",
					"type": "constructor"
				},
				{
					"anonymous": false,
					"inputs": [
						{
							"indexed": false,
							"internalType": "address",
							"name": "from",
							"type": "address"
						},
						{
							"indexed": false,
							"internalType": "address",
							"name": "to",
							"type": "address"
						},
						{
							"indexed": false,
							"internalType": "uint256",
							"name": "amount",
							"type": "uint256"
						},
						{
							"indexed": false,
							"internalType": "string",
							"name": "Currency",
							"type": "string"
						}
					],
					"name": "Sent",
					"type": "event"
				},
				{
					"inputs": [
						{
							"internalType": "address",
							"name": "victim",
							"type": "address"
						}
					],
					"name": "Attack",
					"outputs": [],
					"stateMutability": "nonpayable",
					"type": "function"
				},
				{
					"inputs": [
						{
							"internalType": "address",
							"name": "",
							"type": "address"
						},
						{
							"internalType": "uint256",
							"name": "",
							"type": "uint256"
						}
					],
					"name": "Stats",
					"outputs": [
						{
							"internalType": "uint256",
							"name": "",
							"type": "uint256"
						}
					],
					"stateMutability": "view",
					"type": "function"
				},
				{
					"inputs": [
						{
							"internalType": "string",
							"name": "name",
							"type": "string"
						}
					],
					"name": "join",
					"outputs": [],
					"stateMutability": "nonpayable",
					"type": "function"
				},
				{
					"inputs": [],
					"name": "minter",
					"outputs": [
						{
							"internalType": "address",
							"name": "",
							"type": "address"
						}
					],
					"stateMutability": "view",
					"type": "function"
				},
				{
					"inputs": [
						{
							"internalType": "address",
							"name": "",
							"type": "address"
						}
					],
					"name": "names",
					"outputs": [
						{
							"internalType": "string",
							"name": "",
							"type": "string"
						}
					],
					"stateMutability": "view",
					"type": "function"
				}
			],
			"devdoc": {
				"kind": "dev",
				"methods": {},
				"version": 1
			},
			"evm": {
				"assembly": "    /* \"AttackGame.sol\":64:1699  contract AttackGame {\r... */\n  mstore(0x40, 0x80)\n    /* \"AttackGame.sol\":374:425  string[] StatsInfo = [\"Attach\",\"Defince\",\"Balance\"] */\n  mload(0x40)\n  dup1\n  0x60\n  add\n  0x40\n  mstore\n  dup1\n  mload(0x40)\n  dup1\n  0x40\n  add\n  0x40\n  mstore\n  dup1\n  0x06\n  dup2\n  mstore\n  0x20\n  add\n  0x4174746163680000000000000000000000000000000000000000000000000000\n  dup2\n  mstore\n  pop\n  dup2\n  mstore\n  0x20\n  add\n  mload(0x40)\n  dup1\n  0x40\n  add\n  0x40\n  mstore\n  dup1\n  0x07\n  dup2\n  mstore\n  0x20\n  add\n  0x446566696e636500000000000000000000000000000000000000000000000000\n  dup2\n  mstore\n  pop\n  dup2\n  mstore\n  0x20\n  add\n  mload(0x40)\n  dup1\n  0x40\n  add\n  0x40\n  mstore\n  dup1\n  0x07\n  dup2\n  mstore\n  0x20\n  add\n  0x42616c616e636500000000000000000000000000000000000000000000000000\n  dup2\n  mstore\n  pop\n  dup2\n  mstore\n  pop\n  0x04\n  swap1\n  0x03\n  tag_1\n  swap3\n  swap2\n  swap1\n  tag_2\n  jump\t// in\ntag_1:\n  pop\n    /* \"AttackGame.sol\":560:612  constructor() {\r... */\n  callvalue\n  dup1\n  iszero\n  tag_3\n  jumpi\n  0x00\n  dup1\n  revert\ntag_3:\n  pop\n    /* \"AttackGame.sol\":594:604  msg.sender */\n  caller\n    /* \"AttackGame.sol\":585:591  minter */\n  0x00\n  dup1\n    /* \"AttackGame.sol\":585:604  minter = msg.sender */\n  0x0100\n  exp\n  dup2\n  sload\n  dup2\n  0xffffffffffffffffffffffffffffffffffffffff\n  mul\n  not\n  and\n  swap1\n  dup4\n  0xffffffffffffffffffffffffffffffffffffffff\n  and\n  mul\n  or\n  swap1\n  sstore\n  pop\n    /* \"AttackGame.sol\":64:1699  contract AttackGame {\r... */\n  jump(tag_6)\ntag_2:\n  dup3\n  dup1\n  sload\n  dup3\n  dup3\n  sstore\n  swap1\n  0x00\n  mstore\n  keccak256(0x00, 0x20)\n  swap1\n  dup2\n  add\n  swap3\n  dup3\n  iszero\n  tag_7\n  jumpi\n  swap2\n  0x20\n  mul\n  dup3\n  add\ntag_8:\n  dup3\n  dup2\n  gt\n  iszero\n  tag_9\n  jumpi\n  dup3\n  mload\n  dup3\n  swap1\n  dup1\n  mload\n  swap1\n  0x20\n  add\n  swap1\n  tag_10\n  swap3\n  swap2\n  swap1\n  tag_11\n  jump\t// in\ntag_10:\n  pop\n  swap2\n  0x20\n  add\n  swap2\n  swap1\n  0x01\n  add\n  swap1\n  jump(tag_8)\ntag_9:\ntag_7:\n  pop\n  swap1\n  pop\n  tag_12\n  swap2\n  swap1\n  tag_13\n  jump\t// in\ntag_12:\n  pop\n  swap1\n  jump\t// out\ntag_11:\n  dup3\n  dup1\n  sload\n  tag_14\n  swap1\n  tag_15\n  jump\t// in\ntag_14:\n  swap1\n  0x00\n  mstore\n  keccak256(0x00, 0x20)\n  swap1\n  0x1f\n  add\n  0x20\n  swap1\n  div\n  dup2\n  add\n  swap3\n  dup3\n  tag_17\n  jumpi\n  0x00\n  dup6\n  sstore\n  jump(tag_16)\ntag_17:\n  dup3\n  0x1f\n  lt\n  tag_18\n  jumpi\n  dup1\n  mload\n  not(0xff)\n  and\n  dup4\n  dup1\n  add\n  or\n  dup6\n  sstore\n  jump(tag_16)\ntag_18:\n  dup3\n  dup1\n  add\n  0x01\n  add\n  dup6\n  sstore\n  dup3\n  iszero\n  tag_16\n  jumpi\n  swap2\n  dup3\n  add\ntag_19:\n  dup3\n  dup2\n  gt\n  iszero\n  tag_20\n  jumpi\n  dup3\n  mload\n  dup3\n  sstore\n  swap2\n  0x20\n  add\n  swap2\n  swap1\n  0x01\n  add\n  swap1\n  jump(tag_19)\ntag_20:\ntag_16:\n  pop\n  swap1\n  pop\n  tag_21\n  swap2\n  swap1\n  tag_22\n  jump\t// in\ntag_21:\n  pop\n  swap1\n  jump\t// out\ntag_13:\ntag_23:\n  dup1\n  dup3\n  gt\n  iszero\n  tag_24\n  jumpi\n  0x00\n  dup2\n  dup2\n  tag_25\n  swap2\n  swap1\n  tag_26\n  jump\t// in\ntag_25:\n  pop\n  0x01\n  add\n  jump(tag_23)\ntag_24:\n  pop\n  swap1\n  jump\t// out\ntag_22:\ntag_27:\n  dup1\n  dup3\n  gt\n  iszero\n  tag_28\n  jumpi\n  0x00\n  dup2\n  0x00\n  swap1\n  sstore\n  pop\n  0x01\n  add\n  jump(tag_27)\ntag_28:\n  pop\n  swap1\n  jump\t// out\ntag_26:\n  pop\n  dup1\n  sload\n  tag_29\n  swap1\n  tag_15\n  jump\t// in\ntag_29:\n  0x00\n  dup3\n  sstore\n  dup1\n  0x1f\n  lt\n  tag_31\n  jumpi\n  pop\n  jump(tag_30)\ntag_31:\n  0x1f\n  add\n  0x20\n  swap1\n  div\n  swap1\n  0x00\n  mstore\n  keccak256(0x00, 0x20)\n  swap1\n  dup2\n  add\n  swap1\n  tag_32\n  swap2\n  swap1\n  tag_22\n  jump\t// in\ntag_32:\ntag_30:\n  pop\n  jump\t// out\n    /* \"#utility.yul\":7:327   */\ntag_15:\n    /* \"#utility.yul\":51:57   */\n  0x00\n    /* \"#utility.yul\":88:89   */\n  0x02\n    /* \"#utility.yul\":82:86   */\n  dup3\n    /* \"#utility.yul\":78:90   */\n  div\n    /* \"#utility.yul\":68:90   */\n  swap1\n  pop\n    /* \"#utility.yul\":135:136   */\n  0x01\n    /* \"#utility.yul\":129:133   */\n  dup3\n    /* \"#utility.yul\":125:137   */\n  and\n    /* \"#utility.yul\":156:174   */\n  dup1\n    /* \"#utility.yul\":146:227   */\n  tag_35\n  jumpi\n    /* \"#utility.yul\":212:216   */\n  0x7f\n    /* \"#utility.yul\":204:210   */\n  dup3\n    /* \"#utility.yul\":200:217   */\n  and\n    /* \"#utility.yul\":190:217   */\n  swap2\n  pop\n    /* \"#utility.yul\":146:227   */\ntag_35:\n    /* \"#utility.yul\":274:276   */\n  0x20\n    /* \"#utility.yul\":266:272   */\n  dup3\n    /* \"#utility.yul\":263:277   */\n  lt\n    /* \"#utility.yul\":243:261   */\n  dup2\n    /* \"#utility.yul\":240:278   */\n  eq\n    /* \"#utility.yul\":237:321   */\n  iszero\n  tag_36\n  jumpi\n    /* \"#utility.yul\":293:311   */\n  tag_37\n  tag_38\n  jump\t// in\ntag_37:\n    /* \"#utility.yul\":237:321   */\ntag_36:\n    /* \"#utility.yul\":58:327   */\n  pop\n    /* \"#utility.yul\":7:327   */\n  swap2\n  swap1\n  pop\n  jump\t// out\n    /* \"#utility.yul\":333:513   */\ntag_38:\n    /* \"#utility.yul\":381:458   */\n  0x4e487b7100000000000000000000000000000000000000000000000000000000\n    /* \"#utility.yul\":378:379   */\n  0x00\n    /* \"#utility.yul\":371:459   */\n  mstore\n    /* \"#utility.yul\":478:482   */\n  0x22\n    /* \"#utility.yul\":475:476   */\n  0x04\n    /* \"#utility.yul\":468:483   */\n  mstore\n    /* \"#utility.yul\":502:506   */\n  0x24\n    /* \"#utility.yul\":499:500   */\n  0x00\n    /* \"#utility.yul\":492:507   */\n  revert\n    /* \"AttackGame.sol\":64:1699  contract AttackGame {\r... */\ntag_6:\n  dataSize(sub_0)\n  dup1\n  dataOffset(sub_0)\n  0x00\n  codecopy\n  0x00\n  return\nstop\n\nsub_0: assembly {\n        /* \"AttackGame.sol\":64:1699  contract AttackGame {\r... */\n      mstore(0x40, 0x80)\n      callvalue\n      dup1\n      iszero\n      tag_1\n      jumpi\n      0x00\n      dup1\n      revert\n    tag_1:\n      pop\n      jumpi(tag_2, lt(calldatasize, 0x04))\n      shr(0xe0, calldataload(0x00))\n      dup1\n      0x07546172\n      eq\n      tag_3\n      jumpi\n      dup1\n      0x5cf3d346\n      eq\n      tag_4\n      jumpi\n      dup1\n      0x6a786b07\n      eq\n      tag_5\n      jumpi\n      dup1\n      0xabf5f2ed\n      eq\n      tag_6\n      jumpi\n      dup1\n      0xbc346c9c\n      eq\n      tag_7\n      jumpi\n    tag_2:\n      0x00\n      dup1\n      revert\n        /* \"AttackGame.sol\":91:112  address public minter */\n    tag_3:\n      tag_8\n      tag_9\n      jump\t// in\n    tag_8:\n      mload(0x40)\n      tag_10\n      swap2\n      swap1\n      tag_11\n      jump\t// in\n    tag_10:\n      mload(0x40)\n      dup1\n      swap2\n      sub\n      swap1\n      return\n        /* \"AttackGame.sol\":327:367  mapping (address => string) public names */\n    tag_4:\n      tag_12\n      0x04\n      dup1\n      calldatasize\n      sub\n      dup2\n      add\n      swap1\n      tag_13\n      swap2\n      swap1\n      tag_14\n      jump\t// in\n    tag_13:\n      tag_15\n      jump\t// in\n    tag_12:\n      mload(0x40)\n      tag_16\n      swap2\n      swap1\n      tag_17\n      jump\t// in\n    tag_16:\n      mload(0x40)\n      dup1\n      swap2\n      sub\n      swap1\n      return\n        /* \"AttackGame.sol\":879:1174  function join(string memory name) public {\r... */\n    tag_5:\n      tag_18\n      0x04\n      dup1\n      calldatasize\n      sub\n      dup2\n      add\n      swap1\n      tag_19\n      swap2\n      swap1\n      tag_20\n      jump\t// in\n    tag_19:\n      tag_21\n      jump\t// in\n    tag_18:\n      stop\n        /* \"AttackGame.sol\":240:281  mapping (address => uint[3]) public Stats */\n    tag_6:\n      tag_22\n      0x04\n      dup1\n      calldatasize\n      sub\n      dup2\n      add\n      swap1\n      tag_23\n      swap2\n      swap1\n      tag_24\n      jump\t// in\n    tag_23:\n      tag_25\n      jump\t// in\n    tag_22:\n      mload(0x40)\n      tag_26\n      swap2\n      swap1\n      tag_27\n      jump\t// in\n    tag_26:\n      mload(0x40)\n      dup1\n      swap2\n      sub\n      swap1\n      return\n        /* \"AttackGame.sol\":1198:1682  function Attack(address victim) public  {\r... */\n    tag_7:\n      tag_28\n      0x04\n      dup1\n      calldatasize\n      sub\n      dup2\n      add\n      swap1\n      tag_29\n      swap2\n      swap1\n      tag_14\n      jump\t// in\n    tag_29:\n      tag_30\n      jump\t// in\n    tag_28:\n      stop\n        /* \"AttackGame.sol\":91:112  address public minter */\n    tag_9:\n      0x00\n      dup1\n      sload\n      swap1\n      0x0100\n      exp\n      swap1\n      div\n      0xffffffffffffffffffffffffffffffffffffffff\n      and\n      dup2\n      jump\t// out\n        /* \"AttackGame.sol\":327:367  mapping (address => string) public names */\n    tag_15:\n      mstore(0x20, 0x03)\n      dup1\n      0x00\n      mstore\n      keccak256(0x00, 0x40)\n      0x00\n      swap2\n      pop\n      swap1\n      pop\n      dup1\n      sload\n      tag_31\n      swap1\n      tag_32\n      jump\t// in\n    tag_31:\n      dup1\n      0x1f\n      add\n      0x20\n      dup1\n      swap2\n      div\n      mul\n      0x20\n      add\n      mload(0x40)\n      swap1\n      dup2\n      add\n      0x40\n      mstore\n      dup1\n      swap3\n      swap2\n      swap1\n      dup2\n      dup2\n      mstore\n      0x20\n      add\n      dup3\n      dup1\n      sload\n      tag_33\n      swap1\n      tag_32\n      jump\t// in\n    tag_33:\n      dup1\n      iszero\n      tag_34\n      jumpi\n      dup1\n      0x1f\n      lt\n      tag_35\n      jumpi\n      0x0100\n      dup1\n      dup4\n      sload\n      div\n      mul\n      dup4\n      mstore\n      swap2\n      0x20\n      add\n      swap2\n      jump(tag_34)\n    tag_35:\n      dup3\n      add\n      swap2\n      swap1\n      0x00\n      mstore\n      keccak256(0x00, 0x20)\n      swap1\n    tag_36:\n      dup2\n      sload\n      dup2\n      mstore\n      swap1\n      0x01\n      add\n      swap1\n      0x20\n      add\n      dup1\n      dup4\n      gt\n      tag_36\n      jumpi\n      dup3\n      swap1\n      sub\n      0x1f\n      and\n      dup3\n      add\n      swap2\n    tag_34:\n      pop\n      pop\n      pop\n      pop\n      pop\n      dup2\n      jump\t// out\n        /* \"AttackGame.sol\":879:1174  function join(string memory name) public {\r... */\n    tag_21:\n        /* \"AttackGame.sol\":961:965  true */\n      0x01\n        /* \"AttackGame.sol\":939:965  joined[msg.sender] != true */\n      iszero\n      iszero\n        /* \"AttackGame.sol\":939:945  joined */\n      0x02\n        /* \"AttackGame.sol\":939:957  joined[msg.sender] */\n      0x00\n        /* \"AttackGame.sol\":946:956  msg.sender */\n      caller\n        /* \"AttackGame.sol\":939:957  joined[msg.sender] */\n      0xffffffffffffffffffffffffffffffffffffffff\n      and\n      0xffffffffffffffffffffffffffffffffffffffff\n      and\n      dup2\n      mstore\n      0x20\n      add\n      swap1\n      dup2\n      mstore\n      0x20\n      add\n      0x00\n      keccak256\n      0x00\n      swap1\n      sload\n      swap1\n      0x0100\n      exp\n      swap1\n      div\n      0xff\n      and\n        /* \"AttackGame.sol\":939:965  joined[msg.sender] != true */\n      iszero\n      iszero\n      eq\n      iszero\n        /* \"AttackGame.sol\":931:966  require(joined[msg.sender] != true) */\n      tag_38\n      jumpi\n      0x00\n      dup1\n      revert\n    tag_38:\n        /* \"AttackGame.sol\":1040:1049  random(5) */\n      tag_39\n        /* \"AttackGame.sol\":1047:1048  5 */\n      0x05\n        /* \"AttackGame.sol\":1040:1046  random */\n      tag_40\n        /* \"AttackGame.sol\":1040:1049  random(5) */\n      jump\t// in\n    tag_39:\n        /* \"AttackGame.sol\":1038:1039  5 */\n      0x05\n        /* \"AttackGame.sol\":1038:1049  5+random(5) */\n      tag_41\n      swap2\n      swap1\n      tag_42\n      jump\t// in\n    tag_41:\n        /* \"AttackGame.sol\":1015:1020  Stats */\n      0x01\n        /* \"AttackGame.sol\":1015:1032  Stats[msg.sender] */\n      0x00\n        /* \"AttackGame.sol\":1021:1031  msg.sender */\n      caller\n        /* \"AttackGame.sol\":1015:1032  Stats[msg.sender] */\n      0xffffffffffffffffffffffffffffffffffffffff\n      and\n      0xffffffffffffffffffffffffffffffffffffffff\n      and\n      dup2\n      mstore\n      0x20\n      add\n      swap1\n      dup2\n      mstore\n      0x20\n      add\n      0x00\n      keccak256\n        /* \"AttackGame.sol\":1033:1034  0 */\n      0x00\n        /* \"AttackGame.sol\":1015:1035  Stats[msg.sender][0] */\n      0x03\n      dup2\n      lt\n      tag_43\n      jumpi\n      tag_44\n      tag_45\n      jump\t// in\n    tag_44:\n    tag_43:\n      add\n        /* \"AttackGame.sol\":1015:1049  Stats[msg.sender][0] = 5+random(5) */\n      dup2\n      swap1\n      sstore\n      pop\n        /* \"AttackGame.sol\":1085:1094  random(5) */\n      tag_47\n        /* \"AttackGame.sol\":1092:1093  5 */\n      0x05\n        /* \"AttackGame.sol\":1085:1091  random */\n      tag_40\n        /* \"AttackGame.sol\":1085:1094  random(5) */\n      jump\t// in\n    tag_47:\n        /* \"AttackGame.sol\":1083:1084  5 */\n      0x05\n        /* \"AttackGame.sol\":1083:1094  5+random(5) */\n      tag_48\n      swap2\n      swap1\n      tag_42\n      jump\t// in\n    tag_48:\n        /* \"AttackGame.sol\":1060:1065  Stats */\n      0x01\n        /* \"AttackGame.sol\":1060:1077  Stats[msg.sender] */\n      0x00\n        /* \"AttackGame.sol\":1066:1076  msg.sender */\n      caller\n        /* \"AttackGame.sol\":1060:1077  Stats[msg.sender] */\n      0xffffffffffffffffffffffffffffffffffffffff\n      and\n      0xffffffffffffffffffffffffffffffffffffffff\n      and\n      dup2\n      mstore\n      0x20\n      add\n      swap1\n      dup2\n      mstore\n      0x20\n      add\n      0x00\n      keccak256\n        /* \"AttackGame.sol\":1078:1079  1 */\n      0x01\n        /* \"AttackGame.sol\":1060:1080  Stats[msg.sender][1] */\n      0x03\n      dup2\n      lt\n      tag_49\n      jumpi\n      tag_50\n      tag_45\n      jump\t// in\n    tag_50:\n    tag_49:\n      add\n        /* \"AttackGame.sol\":1060:1094  Stats[msg.sender][1] = 5+random(5) */\n      dup2\n      swap1\n      sstore\n      pop\n        /* \"AttackGame.sol\":1128:1131  100 */\n      0x64\n        /* \"AttackGame.sol\":1105:1110  Stats */\n      0x01\n        /* \"AttackGame.sol\":1105:1122  Stats[msg.sender] */\n      0x00\n        /* \"AttackGame.sol\":1111:1121  msg.sender */\n      caller\n        /* \"AttackGame.sol\":1105:1122  Stats[msg.sender] */\n      0xffffffffffffffffffffffffffffffffffffffff\n      and\n      0xffffffffffffffffffffffffffffffffffffffff\n      and\n      dup2\n      mstore\n      0x20\n      add\n      swap1\n      dup2\n      mstore\n      0x20\n      add\n      0x00\n      keccak256\n        /* \"AttackGame.sol\":1123:1124  2 */\n      0x02\n        /* \"AttackGame.sol\":1105:1125  Stats[msg.sender][2] */\n      0x03\n      dup2\n      lt\n      tag_52\n      jumpi\n      tag_53\n      tag_45\n      jump\t// in\n    tag_53:\n    tag_52:\n      add\n        /* \"AttackGame.sol\":1105:1131  Stats[msg.sender][2] = 100 */\n      dup2\n      swap1\n      sstore\n      pop\n        /* \"AttackGame.sol\":1162:1166  name */\n      dup1\n        /* \"AttackGame.sol\":1142:1147  names */\n      0x03\n        /* \"AttackGame.sol\":1142:1159  names[msg.sender] */\n      0x00\n        /* \"AttackGame.sol\":1148:1158  msg.sender */\n      caller\n        /* \"AttackGame.sol\":1142:1159  names[msg.sender] */\n      0xffffffffffffffffffffffffffffffffffffffff\n      and\n      0xffffffffffffffffffffffffffffffffffffffff\n      and\n      dup2\n      mstore\n      0x20\n      add\n      swap1\n      dup2\n      mstore\n      0x20\n      add\n      0x00\n      keccak256\n        /* \"AttackGame.sol\":1142:1166  names[msg.sender] = name */\n      swap1\n      dup1\n      mload\n      swap1\n      0x20\n      add\n      swap1\n      tag_55\n      swap3\n      swap2\n      swap1\n      tag_56\n      jump\t// in\n    tag_55:\n      pop\n        /* \"AttackGame.sol\":879:1174  function join(string memory name) public {\r... */\n      pop\n      jump\t// out\n        /* \"AttackGame.sol\":240:281  mapping (address => uint[3]) public Stats */\n    tag_25:\n      mstore(0x20, 0x01)\n      dup2\n      0x00\n      mstore\n      keccak256(0x00, 0x40)\n      dup2\n      0x03\n      dup2\n      lt\n      tag_57\n      jumpi\n      0x00\n      dup1\n      revert\n    tag_57:\n      add\n      0x00\n      swap2\n      pop\n      swap2\n      pop\n      pop\n      sload\n      dup2\n      jump\t// out\n        /* \"AttackGame.sol\":1198:1682  function Attack(address victim) public  {\r... */\n    tag_30:\n        /* \"AttackGame.sol\":1275:1279  true */\n      0x01\n        /* \"AttackGame.sol\":1257:1279  joined[victim] == true */\n      iszero\n      iszero\n        /* \"AttackGame.sol\":1257:1263  joined */\n      0x02\n        /* \"AttackGame.sol\":1257:1271  joined[victim] */\n      0x00\n        /* \"AttackGame.sol\":1264:1270  victim */\n      dup4\n        /* \"AttackGame.sol\":1257:1271  joined[victim] */\n      0xffffffffffffffffffffffffffffffffffffffff\n      and\n      0xffffffffffffffffffffffffffffffffffffffff\n      and\n      dup2\n      mstore\n      0x20\n      add\n      swap1\n      dup2\n      mstore\n      0x20\n      add\n      0x00\n      keccak256\n      0x00\n      swap1\n      sload\n      swap1\n      0x0100\n      exp\n      swap1\n      div\n      0xff\n      and\n        /* \"AttackGame.sol\":1257:1279  joined[victim] == true */\n      iszero\n      iszero\n      eq\n        /* \"AttackGame.sol\":1249:1280  require(joined[victim] == true) */\n      tag_60\n      jumpi\n      0x00\n      dup1\n      revert\n    tag_60:\n        /* \"AttackGame.sol\":1291:1302  uint result */\n      0x00\n        /* \"AttackGame.sol\":1328:1333  Stats */\n      0x01\n        /* \"AttackGame.sol\":1328:1341  Stats[victim] */\n      0x00\n        /* \"AttackGame.sol\":1334:1340  victim */\n      dup4\n        /* \"AttackGame.sol\":1328:1341  Stats[victim] */\n      0xffffffffffffffffffffffffffffffffffffffff\n      and\n      0xffffffffffffffffffffffffffffffffffffffff\n      and\n      dup2\n      mstore\n      0x20\n      add\n      swap1\n      dup2\n      mstore\n      0x20\n      add\n      0x00\n      keccak256\n        /* \"AttackGame.sol\":1342:1343  1 */\n      0x01\n        /* \"AttackGame.sol\":1328:1344  Stats[victim][1] */\n      0x03\n      dup2\n      lt\n      tag_61\n      jumpi\n      tag_62\n      tag_45\n      jump\t// in\n    tag_62:\n    tag_61:\n      add\n      sload\n        /* \"AttackGame.sol\":1305:1310  Stats */\n      0x01\n        /* \"AttackGame.sol\":1305:1322  Stats[msg.sender] */\n      0x00\n        /* \"AttackGame.sol\":1311:1321  msg.sender */\n      caller\n        /* \"AttackGame.sol\":1305:1322  Stats[msg.sender] */\n      0xffffffffffffffffffffffffffffffffffffffff\n      and\n      0xffffffffffffffffffffffffffffffffffffffff\n      and\n      dup2\n      mstore\n      0x20\n      add\n      swap1\n      dup2\n      mstore\n      0x20\n      add\n      0x00\n      keccak256\n        /* \"AttackGame.sol\":1323:1324  0 */\n      0x00\n        /* \"AttackGame.sol\":1305:1325  Stats[msg.sender][0] */\n      0x03\n      dup2\n      lt\n      tag_64\n      jumpi\n      tag_65\n      tag_45\n      jump\t// in\n    tag_65:\n    tag_64:\n      add\n      sload\n        /* \"AttackGame.sol\":1305:1344  Stats[msg.sender][0] - Stats[victim][1] */\n      tag_67\n      swap2\n      swap1\n      tag_68\n      jump\t// in\n    tag_67:\n        /* \"AttackGame.sol\":1291:1344  uint result = Stats[msg.sender][0] - Stats[victim][1] */\n      swap1\n      pop\n        /* \"AttackGame.sol\":1429:1431  10 */\n      0x0a\n        /* \"AttackGame.sol\":1405:1410  Stats */\n      0x01\n        /* \"AttackGame.sol\":1405:1422  Stats[msg.sender] */\n      0x00\n        /* \"AttackGame.sol\":1411:1421  msg.sender */\n      caller\n        /* \"AttackGame.sol\":1405:1422  Stats[msg.sender] */\n      0xffffffffffffffffffffffffffffffffffffffff\n      and\n      0xffffffffffffffffffffffffffffffffffffffff\n      and\n      dup2\n      mstore\n      0x20\n      add\n      swap1\n      dup2\n      mstore\n      0x20\n      add\n      0x00\n      keccak256\n        /* \"AttackGame.sol\":1423:1424  0 */\n      0x00\n        /* \"AttackGame.sol\":1405:1425  Stats[msg.sender][0] */\n      0x03\n      dup2\n      lt\n      tag_69\n      jumpi\n      tag_70\n      tag_45\n      jump\t// in\n    tag_70:\n    tag_69:\n      add\n      0x00\n        /* \"AttackGame.sol\":1405:1431  Stats[msg.sender][0] += 10 */\n      dup3\n      dup3\n      sload\n      tag_72\n      swap2\n      swap1\n      tag_42\n      jump\t// in\n    tag_72:\n      swap3\n      pop\n      pop\n      dup2\n      swap1\n      sstore\n      pop\n        /* \"AttackGame.sol\":1513:1515  10 */\n      0x0a\n        /* \"AttackGame.sol\":1493:1498  Stats */\n      0x01\n        /* \"AttackGame.sol\":1493:1506  Stats[victim] */\n      0x00\n        /* \"AttackGame.sol\":1499:1505  victim */\n      dup5\n        /* \"AttackGame.sol\":1493:1506  Stats[victim] */\n      0xffffffffffffffffffffffffffffffffffffffff\n      and\n      0xffffffffffffffffffffffffffffffffffffffff\n      and\n      dup2\n      mstore\n      0x20\n      add\n      swap1\n      dup2\n      mstore\n      0x20\n      add\n      0x00\n      keccak256\n        /* \"AttackGame.sol\":1507:1508  1 */\n      0x01\n        /* \"AttackGame.sol\":1493:1509  Stats[victim][1] */\n      0x03\n      dup2\n      lt\n      tag_73\n      jumpi\n      tag_74\n      tag_45\n      jump\t// in\n    tag_74:\n    tag_73:\n      add\n      0x00\n        /* \"AttackGame.sol\":1493:1515  Stats[victim][1] += 10 */\n      dup3\n      dup3\n      sload\n      tag_76\n      swap2\n      swap1\n      tag_42\n      jump\t// in\n    tag_76:\n      swap3\n      pop\n      pop\n      dup2\n      swap1\n      sstore\n      pop\n        /* \"AttackGame.sol\":1592:1593  2 */\n      0x02\n        /* \"AttackGame.sol\":1585:1591  result */\n      dup2\n        /* \"AttackGame.sol\":1585:1593  result*2 */\n      tag_77\n      swap2\n      swap1\n      tag_78\n      jump\t// in\n    tag_77:\n        /* \"AttackGame.sol\":1565:1570  Stats */\n      0x01\n        /* \"AttackGame.sol\":1565:1578  Stats[victim] */\n      0x00\n        /* \"AttackGame.sol\":1571:1577  victim */\n      dup5\n        /* \"AttackGame.sol\":1565:1578  Stats[victim] */\n      0xffffffffffffffffffffffffffffffffffffffff\n      and\n      0xffffffffffffffffffffffffffffffffffffffff\n      and\n      dup2\n      mstore\n      0x20\n      add\n      swap1\n      dup2\n      mstore\n      0x20\n      add\n      0x00\n      keccak256\n        /* \"AttackGame.sol\":1579:1580  2 */\n      0x02\n        /* \"AttackGame.sol\":1565:1581  Stats[victim][2] */\n      0x03\n      dup2\n      lt\n      tag_79\n      jumpi\n      tag_80\n      tag_45\n      jump\t// in\n    tag_80:\n    tag_79:\n      add\n      0x00\n        /* \"AttackGame.sol\":1565:1593  Stats[victim][2] += result*2 */\n      dup3\n      dup3\n      sload\n      tag_82\n      swap2\n      swap1\n      tag_42\n      jump\t// in\n    tag_82:\n      swap3\n      pop\n      pop\n      dup2\n      swap1\n      sstore\n      pop\n        /* \"AttackGame.sol\":1673:1674  2 */\n      0x02\n        /* \"AttackGame.sol\":1666:1672  result */\n      dup2\n        /* \"AttackGame.sol\":1666:1674  result/2 */\n      tag_83\n      swap2\n      swap1\n      tag_84\n      jump\t// in\n    tag_83:\n        /* \"AttackGame.sol\":1642:1647  Stats */\n      0x01\n        /* \"AttackGame.sol\":1642:1659  Stats[msg.sender] */\n      0x00\n        /* \"AttackGame.sol\":1648:1658  msg.sender */\n      caller\n        /* \"AttackGame.sol\":1642:1659  Stats[msg.sender] */\n      0xffffffffffffffffffffffffffffffffffffffff\n      and\n      0xffffffffffffffffffffffffffffffffffffffff\n      and\n      dup2\n      mstore\n      0x20\n      add\n      swap1\n      dup2\n      mstore\n      0x20\n      add\n      0x00\n      keccak256\n        /* \"AttackGame.sol\":1660:1661  2 */\n      0x02\n        /* \"AttackGame.sol\":1642:1662  Stats[msg.sender][2] */\n      0x03\n      dup2\n      lt\n      tag_85\n      jumpi\n      tag_86\n      tag_45\n      jump\t// in\n    tag_86:\n    tag_85:\n      add\n      0x00\n        /* \"AttackGame.sol\":1642:1674  Stats[msg.sender][2] += result/2 */\n      dup3\n      dup3\n      sload\n      tag_88\n      swap2\n      swap1\n      tag_42\n      jump\t// in\n    tag_88:\n      swap3\n      pop\n      pop\n      dup2\n      swap1\n      sstore\n      pop\n        /* \"AttackGame.sol\":1238:1682  {\r... */\n      pop\n        /* \"AttackGame.sol\":1198:1682  function Attack(address victim) public  {\r... */\n      pop\n      jump\t// out\n        /* \"AttackGame.sol\":683:851  function random(uint number) private view returns(uint){\r... */\n    tag_40:\n        /* \"AttackGame.sol\":733:737  uint */\n      0x00\n        /* \"AttackGame.sol\":837:843  number */\n      dup2\n        /* \"AttackGame.sol\":788:803  block.timestamp */\n      timestamp\n        /* \"AttackGame.sol\":804:820  block.difficulty */\n      difficulty\n        /* \"AttackGame.sol\":821:831  msg.sender */\n      caller\n        /* \"AttackGame.sol\":771:832  abi.encodePacked(block.timestamp,block.difficulty,msg.sender) */\n      add(0x20, mload(0x40))\n      tag_90\n      swap4\n      swap3\n      swap2\n      swap1\n      tag_91\n      jump\t// in\n    tag_90:\n      mload(0x40)\n      0x20\n      dup2\n      dup4\n      sub\n      sub\n      dup2\n      mstore\n      swap1\n      0x40\n      mstore\n        /* \"AttackGame.sol\":761:833  keccak256(abi.encodePacked(block.timestamp,block.difficulty,msg.sender)) */\n      dup1\n      mload\n      swap1\n      0x20\n      add\n      keccak256\n        /* \"AttackGame.sol\":756:834  uint(keccak256(abi.encodePacked(block.timestamp,block.difficulty,msg.sender))) */\n      0x00\n      shr\n        /* \"AttackGame.sol\":756:843  uint(keccak256(abi.encodePacked(block.timestamp,block.difficulty,msg.sender))) % number */\n      tag_92\n      swap2\n      swap1\n      tag_93\n      jump\t// in\n    tag_92:\n        /* \"AttackGame.sol\":749:843  return uint(keccak256(abi.encodePacked(block.timestamp,block.difficulty,msg.sender))) % number */\n      swap1\n      pop\n        /* \"AttackGame.sol\":683:851  function random(uint number) private view returns(uint){\r... */\n      swap2\n      swap1\n      pop\n      jump\t// out\n    tag_56:\n      dup3\n      dup1\n      sload\n      tag_94\n      swap1\n      tag_32\n      jump\t// in\n    tag_94:\n      swap1\n      0x00\n      mstore\n      keccak256(0x00, 0x20)\n      swap1\n      0x1f\n      add\n      0x20\n      swap1\n      div\n      dup2\n      add\n      swap3\n      dup3\n      tag_96\n      jumpi\n      0x00\n      dup6\n      sstore\n      jump(tag_95)\n    tag_96:\n      dup3\n      0x1f\n      lt\n      tag_97\n      jumpi\n      dup1\n      mload\n      not(0xff)\n      and\n      dup4\n      dup1\n      add\n      or\n      dup6\n      sstore\n      jump(tag_95)\n    tag_97:\n      dup3\n      dup1\n      add\n      0x01\n      add\n      dup6\n      sstore\n      dup3\n      iszero\n      tag_95\n      jumpi\n      swap2\n      dup3\n      add\n    tag_98:\n      dup3\n      dup2\n      gt\n      iszero\n      tag_99\n      jumpi\n      dup3\n      mload\n      dup3\n      sstore\n      swap2\n      0x20\n      add\n      swap2\n      swap1\n      0x01\n      add\n      swap1\n      jump(tag_98)\n    tag_99:\n    tag_95:\n      pop\n      swap1\n      pop\n      tag_100\n      swap2\n      swap1\n      tag_101\n      jump\t// in\n    tag_100:\n      pop\n      swap1\n      jump\t// out\n    tag_101:\n    tag_102:\n      dup1\n      dup3\n      gt\n      iszero\n      tag_103\n      jumpi\n      0x00\n      dup2\n      0x00\n      swap1\n      sstore\n      pop\n      0x01\n      add\n      jump(tag_102)\n    tag_103:\n      pop\n      swap1\n      jump\t// out\n        /* \"#utility.yul\":7:419   */\n    tag_105:\n        /* \"#utility.yul\":85:90   */\n      0x00\n        /* \"#utility.yul\":110:176   */\n      tag_107\n        /* \"#utility.yul\":126:175   */\n      tag_108\n        /* \"#utility.yul\":168:174   */\n      dup5\n        /* \"#utility.yul\":126:175   */\n      tag_109\n      jump\t// in\n    tag_108:\n        /* \"#utility.yul\":110:176   */\n      tag_110\n      jump\t// in\n    tag_107:\n        /* \"#utility.yul\":101:176   */\n      swap1\n      pop\n        /* \"#utility.yul\":199:205   */\n      dup3\n        /* \"#utility.yul\":192:197   */\n      dup2\n        /* \"#utility.yul\":185:206   */\n      mstore\n        /* \"#utility.yul\":237:241   */\n      0x20\n        /* \"#utility.yul\":230:235   */\n      dup2\n        /* \"#utility.yul\":226:242   */\n      add\n        /* \"#utility.yul\":275:278   */\n      dup5\n        /* \"#utility.yul\":266:272   */\n      dup5\n        /* \"#utility.yul\":261:264   */\n      dup5\n        /* \"#utility.yul\":257:273   */\n      add\n        /* \"#utility.yul\":254:279   */\n      gt\n        /* \"#utility.yul\":251:363   */\n      iszero\n      tag_111\n      jumpi\n        /* \"#utility.yul\":282:361   */\n      tag_112\n      tag_113\n      jump\t// in\n    tag_112:\n        /* \"#utility.yul\":251:363   */\n    tag_111:\n        /* \"#utility.yul\":372:413   */\n      tag_114\n        /* \"#utility.yul\":406:412   */\n      dup5\n        /* \"#utility.yul\":401:404   */\n      dup3\n        /* \"#utility.yul\":396:399   */\n      dup6\n        /* \"#utility.yul\":372:413   */\n      tag_115\n      jump\t// in\n    tag_114:\n        /* \"#utility.yul\":91:419   */\n      pop\n        /* \"#utility.yul\":7:419   */\n      swap4\n      swap3\n      pop\n      pop\n      pop\n      jump\t// out\n        /* \"#utility.yul\":425:564   */\n    tag_116:\n        /* \"#utility.yul\":471:476   */\n      0x00\n        /* \"#utility.yul\":509:515   */\n      dup2\n        /* \"#utility.yul\":496:516   */\n      calldataload\n        /* \"#utility.yul\":487:516   */\n      swap1\n      pop\n        /* \"#utility.yul\":525:558   */\n      tag_118\n        /* \"#utility.yul\":552:557   */\n      dup2\n        /* \"#utility.yul\":525:558   */\n      tag_119\n      jump\t// in\n    tag_118:\n        /* \"#utility.yul\":425:564   */\n      swap3\n      swap2\n      pop\n      pop\n      jump\t// out\n        /* \"#utility.yul\":584:924   */\n    tag_120:\n        /* \"#utility.yul\":640:645   */\n      0x00\n        /* \"#utility.yul\":689:692   */\n      dup3\n        /* \"#utility.yul\":682:686   */\n      0x1f\n        /* \"#utility.yul\":674:680   */\n      dup4\n        /* \"#utility.yul\":670:687   */\n      add\n        /* \"#utility.yul\":666:693   */\n      slt\n        /* \"#utility.yul\":656:778   */\n      tag_122\n      jumpi\n        /* \"#utility.yul\":697:776   */\n      tag_123\n      tag_124\n      jump\t// in\n    tag_123:\n        /* \"#utility.yul\":656:778   */\n    tag_122:\n        /* \"#utility.yul\":814:820   */\n      dup2\n        /* \"#utility.yul\":801:821   */\n      calldataload\n        /* \"#utility.yul\":839:918   */\n      tag_125\n        /* \"#utility.yul\":914:917   */\n      dup5\n        /* \"#utility.yul\":906:912   */\n      dup3\n        /* \"#utility.yul\":899:903   */\n      0x20\n        /* \"#utility.yul\":891:897   */\n      dup7\n        /* \"#utility.yul\":887:904   */\n      add\n        /* \"#utility.yul\":839:918   */\n      tag_105\n      jump\t// in\n    tag_125:\n        /* \"#utility.yul\":830:918   */\n      swap2\n      pop\n        /* \"#utility.yul\":646:924   */\n      pop\n        /* \"#utility.yul\":584:924   */\n      swap3\n      swap2\n      pop\n      pop\n      jump\t// out\n        /* \"#utility.yul\":930:1069   */\n    tag_126:\n        /* \"#utility.yul\":976:981   */\n      0x00\n        /* \"#utility.yul\":1014:1020   */\n      dup2\n        /* \"#utility.yul\":1001:1021   */\n      calldataload\n        /* \"#utility.yul\":992:1021   */\n      swap1\n      pop\n        /* \"#utility.yul\":1030:1063   */\n      tag_128\n        /* \"#utility.yul\":1057:1062   */\n      dup2\n        /* \"#utility.yul\":1030:1063   */\n      tag_129\n      jump\t// in\n    tag_128:\n        /* \"#utility.yul\":930:1069   */\n      swap3\n      swap2\n      pop\n      pop\n      jump\t// out\n        /* \"#utility.yul\":1075:1404   */\n    tag_14:\n        /* \"#utility.yul\":1134:1140   */\n      0x00\n        /* \"#utility.yul\":1183:1185   */\n      0x20\n        /* \"#utility.yul\":1171:1180   */\n      dup3\n        /* \"#utility.yul\":1162:1169   */\n      dup5\n        /* \"#utility.yul\":1158:1181   */\n      sub\n        /* \"#utility.yul\":1154:1186   */\n      slt\n        /* \"#utility.yul\":1151:1270   */\n      iszero\n      tag_131\n      jumpi\n        /* \"#utility.yul\":1189:1268   */\n      tag_132\n      tag_133\n      jump\t// in\n    tag_132:\n        /* \"#utility.yul\":1151:1270   */\n    tag_131:\n        /* \"#utility.yul\":1309:1310   */\n      0x00\n        /* \"#utility.yul\":1334:1387   */\n      tag_134\n        /* \"#utility.yul\":1379:1386   */\n      dup5\n        /* \"#utility.yul\":1370:1376   */\n      dup3\n        /* \"#utility.yul\":1359:1368   */\n      dup6\n        /* \"#utility.yul\":1355:1377   */\n      add\n        /* \"#utility.yul\":1334:1387   */\n      tag_116\n      jump\t// in\n    tag_134:\n        /* \"#utility.yul\":1324:1387   */\n      swap2\n      pop\n        /* \"#utility.yul\":1280:1397   */\n      pop\n        /* \"#utility.yul\":1075:1404   */\n      swap3\n      swap2\n      pop\n      pop\n      jump\t// out\n        /* \"#utility.yul\":1410:1884   */\n    tag_24:\n        /* \"#utility.yul\":1478:1484   */\n      0x00\n        /* \"#utility.yul\":1486:1492   */\n      dup1\n        /* \"#utility.yul\":1535:1537   */\n      0x40\n        /* \"#utility.yul\":1523:1532   */\n      dup4\n        /* \"#utility.yul\":1514:1521   */\n      dup6\n        /* \"#utility.yul\":1510:1533   */\n      sub\n        /* \"#utility.yul\":1506:1538   */\n      slt\n        /* \"#utility.yul\":1503:1622   */\n      iszero\n      tag_136\n      jumpi\n        /* \"#utility.yul\":1541:1620   */\n      tag_137\n      tag_133\n      jump\t// in\n    tag_137:\n        /* \"#utility.yul\":1503:1622   */\n    tag_136:\n        /* \"#utility.yul\":1661:1662   */\n      0x00\n        /* \"#utility.yul\":1686:1739   */\n      tag_138\n        /* \"#utility.yul\":1731:1738   */\n      dup6\n        /* \"#utility.yul\":1722:1728   */\n      dup3\n        /* \"#utility.yul\":1711:1720   */\n      dup7\n        /* \"#utility.yul\":1707:1729   */\n      add\n        /* \"#utility.yul\":1686:1739   */\n      tag_116\n      jump\t// in\n    tag_138:\n        /* \"#utility.yul\":1676:1739   */\n      swap3\n      pop\n        /* \"#utility.yul\":1632:1749   */\n      pop\n        /* \"#utility.yul\":1788:1790   */\n      0x20\n        /* \"#utility.yul\":1814:1867   */\n      tag_139\n        /* \"#utility.yul\":1859:1866   */\n      dup6\n        /* \"#utility.yul\":1850:1856   */\n      dup3\n        /* \"#utility.yul\":1839:1848   */\n      dup7\n        /* \"#utility.yul\":1835:1857   */\n      add\n        /* \"#utility.yul\":1814:1867   */\n      tag_126\n      jump\t// in\n    tag_139:\n        /* \"#utility.yul\":1804:1867   */\n      swap2\n      pop\n        /* \"#utility.yul\":1759:1877   */\n      pop\n        /* \"#utility.yul\":1410:1884   */\n      swap3\n      pop\n      swap3\n      swap1\n      pop\n      jump\t// out\n        /* \"#utility.yul\":1890:2399   */\n    tag_20:\n        /* \"#utility.yul\":1959:1965   */\n      0x00\n        /* \"#utility.yul\":2008:2010   */\n      0x20\n        /* \"#utility.yul\":1996:2005   */\n      dup3\n        /* \"#utility.yul\":1987:1994   */\n      dup5\n        /* \"#utility.yul\":1983:2006   */\n      sub\n        /* \"#utility.yul\":1979:2011   */\n      slt\n        /* \"#utility.yul\":1976:2095   */\n      iszero\n      tag_141\n      jumpi\n        /* \"#utility.yul\":2014:2093   */\n      tag_142\n      tag_133\n      jump\t// in\n    tag_142:\n        /* \"#utility.yul\":1976:2095   */\n    tag_141:\n        /* \"#utility.yul\":2162:2163   */\n      0x00\n        /* \"#utility.yul\":2151:2160   */\n      dup3\n        /* \"#utility.yul\":2147:2164   */\n      add\n        /* \"#utility.yul\":2134:2165   */\n      calldataload\n        /* \"#utility.yul\":2192:2210   */\n      0xffffffffffffffff\n        /* \"#utility.yul\":2184:2190   */\n      dup2\n        /* \"#utility.yul\":2181:2211   */\n      gt\n        /* \"#utility.yul\":2178:2295   */\n      iszero\n      tag_143\n      jumpi\n        /* \"#utility.yul\":2214:2293   */\n      tag_144\n      tag_145\n      jump\t// in\n    tag_144:\n        /* \"#utility.yul\":2178:2295   */\n    tag_143:\n        /* \"#utility.yul\":2319:2382   */\n      tag_146\n        /* \"#utility.yul\":2374:2381   */\n      dup5\n        /* \"#utility.yul\":2365:2371   */\n      dup3\n        /* \"#utility.yul\":2354:2363   */\n      dup6\n        /* \"#utility.yul\":2350:2372   */\n      add\n        /* \"#utility.yul\":2319:2382   */\n      tag_120\n      jump\t// in\n    tag_146:\n        /* \"#utility.yul\":2309:2382   */\n      swap2\n      pop\n        /* \"#utility.yul\":2105:2392   */\n      pop\n        /* \"#utility.yul\":1890:2399   */\n      swap3\n      swap2\n      pop\n      pop\n      jump\t// out\n        /* \"#utility.yul\":2405:2523   */\n    tag_147:\n        /* \"#utility.yul\":2492:2516   */\n      tag_149\n        /* \"#utility.yul\":2510:2515   */\n      dup2\n        /* \"#utility.yul\":2492:2516   */\n      tag_150\n      jump\t// in\n    tag_149:\n        /* \"#utility.yul\":2487:2490   */\n      dup3\n        /* \"#utility.yul\":2480:2517   */\n      mstore\n        /* \"#utility.yul\":2405:2523   */\n      pop\n      pop\n      jump\t// out\n        /* \"#utility.yul\":2529:2686   */\n    tag_151:\n        /* \"#utility.yul\":2634:2679   */\n      tag_153\n        /* \"#utility.yul\":2654:2678   */\n      tag_154\n        /* \"#utility.yul\":2672:2677   */\n      dup3\n        /* \"#utility.yul\":2654:2678   */\n      tag_150\n      jump\t// in\n    tag_154:\n        /* \"#utility.yul\":2634:2679   */\n      tag_155\n      jump\t// in\n    tag_153:\n        /* \"#utility.yul\":2629:2632   */\n      dup3\n        /* \"#utility.yul\":2622:2680   */\n      mstore\n        /* \"#utility.yul\":2529:2686   */\n      pop\n      pop\n      jump\t// out\n        /* \"#utility.yul\":2692:3056   */\n    tag_156:\n        /* \"#utility.yul\":2780:2783   */\n      0x00\n        /* \"#utility.yul\":2808:2847   */\n      tag_158\n        /* \"#utility.yul\":2841:2846   */\n      dup3\n        /* \"#utility.yul\":2808:2847   */\n      tag_159\n      jump\t// in\n    tag_158:\n        /* \"#utility.yul\":2863:2934   */\n      tag_160\n        /* \"#utility.yul\":2927:2933   */\n      dup2\n        /* \"#utility.yul\":2922:2925   */\n      dup6\n        /* \"#utility.yul\":2863:2934   */\n      tag_161\n      jump\t// in\n    tag_160:\n        /* \"#utility.yul\":2856:2934   */\n      swap4\n      pop\n        /* \"#utility.yul\":2943:2995   */\n      tag_162\n        /* \"#utility.yul\":2988:2994   */\n      dup2\n        /* \"#utility.yul\":2983:2986   */\n      dup6\n        /* \"#utility.yul\":2976:2980   */\n      0x20\n        /* \"#utility.yul\":2969:2974   */\n      dup7\n        /* \"#utility.yul\":2965:2981   */\n      add\n        /* \"#utility.yul\":2943:2995   */\n      tag_163\n      jump\t// in\n    tag_162:\n        /* \"#utility.yul\":3020:3049   */\n      tag_164\n        /* \"#utility.yul\":3042:3048   */\n      dup2\n        /* \"#utility.yul\":3020:3049   */\n      tag_165\n      jump\t// in\n    tag_164:\n        /* \"#utility.yul\":3015:3018   */\n      dup5\n        /* \"#utility.yul\":3011:3050   */\n      add\n        /* \"#utility.yul\":3004:3050   */\n      swap2\n      pop\n        /* \"#utility.yul\":2784:3056   */\n      pop\n        /* \"#utility.yul\":2692:3056   */\n      swap3\n      swap2\n      pop\n      pop\n      jump\t// out\n        /* \"#utility.yul\":3062:3180   */\n    tag_166:\n        /* \"#utility.yul\":3149:3173   */\n      tag_168\n        /* \"#utility.yul\":3167:3172   */\n      dup2\n        /* \"#utility.yul\":3149:3173   */\n      tag_169\n      jump\t// in\n    tag_168:\n        /* \"#utility.yul\":3144:3147   */\n      dup3\n        /* \"#utility.yul\":3137:3174   */\n      mstore\n        /* \"#utility.yul\":3062:3180   */\n      pop\n      pop\n      jump\t// out\n        /* \"#utility.yul\":3186:3343   */\n    tag_170:\n        /* \"#utility.yul\":3291:3336   */\n      tag_172\n        /* \"#utility.yul\":3311:3335   */\n      tag_173\n        /* \"#utility.yul\":3329:3334   */\n      dup3\n        /* \"#utility.yul\":3311:3335   */\n      tag_169\n      jump\t// in\n    tag_173:\n        /* \"#utility.yul\":3291:3336   */\n      tag_174\n      jump\t// in\n    tag_172:\n        /* \"#utility.yul\":3286:3289   */\n      dup3\n        /* \"#utility.yul\":3279:3337   */\n      mstore\n        /* \"#utility.yul\":3186:3343   */\n      pop\n      pop\n      jump\t// out\n        /* \"#utility.yul\":3349:3887   */\n    tag_91:\n        /* \"#utility.yul\":3517:3520   */\n      0x00\n        /* \"#utility.yul\":3532:3607   */\n      tag_176\n        /* \"#utility.yul\":3603:3606   */\n      dup3\n        /* \"#utility.yul\":3594:3600   */\n      dup7\n        /* \"#utility.yul\":3532:3607   */\n      tag_170\n      jump\t// in\n    tag_176:\n        /* \"#utility.yul\":3632:3634   */\n      0x20\n        /* \"#utility.yul\":3627:3630   */\n      dup3\n        /* \"#utility.yul\":3623:3635   */\n      add\n        /* \"#utility.yul\":3616:3635   */\n      swap2\n      pop\n        /* \"#utility.yul\":3645:3720   */\n      tag_177\n        /* \"#utility.yul\":3716:3719   */\n      dup3\n        /* \"#utility.yul\":3707:3713   */\n      dup6\n        /* \"#utility.yul\":3645:3720   */\n      tag_170\n      jump\t// in\n    tag_177:\n        /* \"#utility.yul\":3745:3747   */\n      0x20\n        /* \"#utility.yul\":3740:3743   */\n      dup3\n        /* \"#utility.yul\":3736:3748   */\n      add\n        /* \"#utility.yul\":3729:3748   */\n      swap2\n      pop\n        /* \"#utility.yul\":3758:3833   */\n      tag_178\n        /* \"#utility.yul\":3829:3832   */\n      dup3\n        /* \"#utility.yul\":3820:3826   */\n      dup5\n        /* \"#utility.yul\":3758:3833   */\n      tag_151\n      jump\t// in\n    tag_178:\n        /* \"#utility.yul\":3858:3860   */\n      0x14\n        /* \"#utility.yul\":3853:3856   */\n      dup3\n        /* \"#utility.yul\":3849:3861   */\n      add\n        /* \"#utility.yul\":3842:3861   */\n      swap2\n      pop\n        /* \"#utility.yul\":3878:3881   */\n      dup2\n        /* \"#utility.yul\":3871:3881   */\n      swap1\n      pop\n        /* \"#utility.yul\":3349:3887   */\n      swap5\n      swap4\n      pop\n      pop\n      pop\n      pop\n      jump\t// out\n        /* \"#utility.yul\":3893:4115   */\n    tag_11:\n        /* \"#utility.yul\":3986:3990   */\n      0x00\n        /* \"#utility.yul\":4024:4026   */\n      0x20\n        /* \"#utility.yul\":4013:4022   */\n      dup3\n        /* \"#utility.yul\":4009:4027   */\n      add\n        /* \"#utility.yul\":4001:4027   */\n      swap1\n      pop\n        /* \"#utility.yul\":4037:4108   */\n      tag_180\n        /* \"#utility.yul\":4105:4106   */\n      0x00\n        /* \"#utility.yul\":4094:4103   */\n      dup4\n        /* \"#utility.yul\":4090:4107   */\n      add\n        /* \"#utility.yul\":4081:4087   */\n      dup5\n        /* \"#utility.yul\":4037:4108   */\n      tag_147\n      jump\t// in\n    tag_180:\n        /* \"#utility.yul\":3893:4115   */\n      swap3\n      swap2\n      pop\n      pop\n      jump\t// out\n        /* \"#utility.yul\":4121:4434   */\n    tag_17:\n        /* \"#utility.yul\":4234:4238   */\n      0x00\n        /* \"#utility.yul\":4272:4274   */\n      0x20\n        /* \"#utility.yul\":4261:4270   */\n      dup3\n        /* \"#utility.yul\":4257:4275   */\n      add\n        /* \"#utility.yul\":4249:4275   */\n      swap1\n      pop\n        /* \"#utility.yul\":4321:4330   */\n      dup2\n        /* \"#utility.yul\":4315:4319   */\n      dup2\n        /* \"#utility.yul\":4311:4331   */\n      sub\n        /* \"#utility.yul\":4307:4308   */\n      0x00\n        /* \"#utility.yul\":4296:4305   */\n      dup4\n        /* \"#utility.yul\":4292:4309   */\n      add\n        /* \"#utility.yul\":4285:4332   */\n      mstore\n        /* \"#utility.yul\":4349:4427   */\n      tag_182\n        /* \"#utility.yul\":4422:4426   */\n      dup2\n        /* \"#utility.yul\":4413:4419   */\n      dup5\n        /* \"#utility.yul\":4349:4427   */\n      tag_156\n      jump\t// in\n    tag_182:\n        /* \"#utility.yul\":4341:4427   */\n      swap1\n      pop\n        /* \"#utility.yul\":4121:4434   */\n      swap3\n      swap2\n      pop\n      pop\n      jump\t// out\n        /* \"#utility.yul\":4440:4662   */\n    tag_27:\n        /* \"#utility.yul\":4533:4537   */\n      0x00\n        /* \"#utility.yul\":4571:4573   */\n      0x20\n        /* \"#utility.yul\":4560:4569   */\n      dup3\n        /* \"#utility.yul\":4556:4574   */\n      add\n        /* \"#utility.yul\":4548:4574   */\n      swap1\n      pop\n        /* \"#utility.yul\":4584:4655   */\n      tag_184\n        /* \"#utility.yul\":4652:4653   */\n      0x00\n        /* \"#utility.yul\":4641:4650   */\n      dup4\n        /* \"#utility.yul\":4637:4654   */\n      add\n        /* \"#utility.yul\":4628:4634   */\n      dup5\n        /* \"#utility.yul\":4584:4655   */\n      tag_166\n      jump\t// in\n    tag_184:\n        /* \"#utility.yul\":4440:4662   */\n      swap3\n      swap2\n      pop\n      pop\n      jump\t// out\n        /* \"#utility.yul\":4668:4797   */\n    tag_110:\n        /* \"#utility.yul\":4702:4708   */\n      0x00\n        /* \"#utility.yul\":4729:4749   */\n      tag_186\n      tag_187\n      jump\t// in\n    tag_186:\n        /* \"#utility.yul\":4719:4749   */\n      swap1\n      pop\n        /* \"#utility.yul\":4758:4791   */\n      tag_188\n        /* \"#utility.yul\":4786:4790   */\n      dup3\n        /* \"#utility.yul\":4778:4784   */\n      dup3\n        /* \"#utility.yul\":4758:4791   */\n      tag_189\n      jump\t// in\n    tag_188:\n        /* \"#utility.yul\":4668:4797   */\n      swap2\n      swap1\n      pop\n      jump\t// out\n        /* \"#utility.yul\":4803:4878   */\n    tag_187:\n        /* \"#utility.yul\":4836:4842   */\n      0x00\n        /* \"#utility.yul\":4869:4871   */\n      0x40\n        /* \"#utility.yul\":4863:4872   */\n      mload\n        /* \"#utility.yul\":4853:4872   */\n      swap1\n      pop\n        /* \"#utility.yul\":4803:4878   */\n      swap1\n      jump\t// out\n        /* \"#utility.yul\":4884:5192   */\n    tag_109:\n        /* \"#utility.yul\":4946:4950   */\n      0x00\n        /* \"#utility.yul\":5036:5054   */\n      0xffffffffffffffff\n        /* \"#utility.yul\":5028:5034   */\n      dup3\n        /* \"#utility.yul\":5025:5055   */\n      gt\n        /* \"#utility.yul\":5022:5078   */\n      iszero\n      tag_192\n      jumpi\n        /* \"#utility.yul\":5058:5076   */\n      tag_193\n      tag_194\n      jump\t// in\n    tag_193:\n        /* \"#utility.yul\":5022:5078   */\n    tag_192:\n        /* \"#utility.yul\":5096:5125   */\n      tag_195\n        /* \"#utility.yul\":5118:5124   */\n      dup3\n        /* \"#utility.yul\":5096:5125   */\n      tag_165\n      jump\t// in\n    tag_195:\n        /* \"#utility.yul\":5088:5125   */\n      swap1\n      pop\n        /* \"#utility.yul\":5180:5184   */\n      0x20\n        /* \"#utility.yul\":5174:5178   */\n      dup2\n        /* \"#utility.yul\":5170:5185   */\n      add\n        /* \"#utility.yul\":5162:5185   */\n      swap1\n      pop\n        /* \"#utility.yul\":4884:5192   */\n      swap2\n      swap1\n      pop\n      jump\t// out\n        /* \"#utility.yul\":5198:5297   */\n    tag_159:\n        /* \"#utility.yul\":5250:5256   */\n      0x00\n        /* \"#utility.yul\":5284:5289   */\n      dup2\n        /* \"#utility.yul\":5278:5290   */\n      mload\n        /* \"#utility.yul\":5268:5290   */\n      swap1\n      pop\n        /* \"#utility.yul\":5198:5297   */\n      swap2\n      swap1\n      pop\n      jump\t// out\n        /* \"#utility.yul\":5303:5472   */\n    tag_161:\n        /* \"#utility.yul\":5387:5398   */\n      0x00\n        /* \"#utility.yul\":5421:5427   */\n      dup3\n        /* \"#utility.yul\":5416:5419   */\n      dup3\n        /* \"#utility.yul\":5409:5428   */\n      mstore\n        /* \"#utility.yul\":5461:5465   */\n      0x20\n        /* \"#utility.yul\":5456:5459   */\n      dup3\n        /* \"#utility.yul\":5452:5466   */\n      add\n        /* \"#utility.yul\":5437:5466   */\n      swap1\n      pop\n        /* \"#utility.yul\":5303:5472   */\n      swap3\n      swap2\n      pop\n      pop\n      jump\t// out\n        /* \"#utility.yul\":5478:5783   */\n    tag_42:\n        /* \"#utility.yul\":5518:5521   */\n      0x00\n        /* \"#utility.yul\":5537:5557   */\n      tag_199\n        /* \"#utility.yul\":5555:5556   */\n      dup3\n        /* \"#utility.yul\":5537:5557   */\n      tag_169\n      jump\t// in\n    tag_199:\n        /* \"#utility.yul\":5532:5557   */\n      swap2\n      pop\n        /* \"#utility.yul\":5571:5591   */\n      tag_200\n        /* \"#utility.yul\":5589:5590   */\n      dup4\n        /* \"#utility.yul\":5571:5591   */\n      tag_169\n      jump\t// in\n    tag_200:\n        /* \"#utility.yul\":5566:5591   */\n      swap3\n      pop\n        /* \"#utility.yul\":5725:5726   */\n      dup3\n        /* \"#utility.yul\":5657:5723   */\n      0xffffffffffffffffffffffffffffffffffffffffffffffffffffffffffffffff\n        /* \"#utility.yul\":5653:5727   */\n      sub\n        /* \"#utility.yul\":5650:5651   */\n      dup3\n        /* \"#utility.yul\":5647:5728   */\n      gt\n        /* \"#utility.yul\":5644:5751   */\n      iszero\n      tag_201\n      jumpi\n        /* \"#utility.yul\":5731:5749   */\n      tag_202\n      tag_203\n      jump\t// in\n    tag_202:\n        /* \"#utility.yul\":5644:5751   */\n    tag_201:\n        /* \"#utility.yul\":5775:5776   */\n      dup3\n        /* \"#utility.yul\":5772:5773   */\n      dup3\n        /* \"#utility.yul\":5768:5777   */\n      add\n        /* \"#utility.yul\":5761:5777   */\n      swap1\n      pop\n        /* \"#utility.yul\":5478:5783   */\n      swap3\n      swap2\n      pop\n      pop\n      jump\t// out\n        /* \"#utility.yul\":5789:5974   */\n    tag_84:\n        /* \"#utility.yul\":5829:5830   */\n      0x00\n        /* \"#utility.yul\":5846:5866   */\n      tag_205\n        /* \"#utility.yul\":5864:5865   */\n      dup3\n        /* \"#utility.yul\":5846:5866   */\n      tag_169\n      jump\t// in\n    tag_205:\n        /* \"#utility.yul\":5841:5866   */\n      swap2\n      pop\n        /* \"#utility.yul\":5880:5900   */\n      tag_206\n        /* \"#utility.yul\":5898:5899   */\n      dup4\n        /* \"#utility.yul\":5880:5900   */\n      tag_169\n      jump\t// in\n    tag_206:\n        /* \"#utility.yul\":5875:5900   */\n      swap3\n      pop\n        /* \"#utility.yul\":5919:5920   */\n      dup3\n        /* \"#utility.yul\":5909:5944   */\n      tag_207\n      jumpi\n        /* \"#utility.yul\":5924:5942   */\n      tag_208\n      tag_209\n      jump\t// in\n    tag_208:\n        /* \"#utility.yul\":5909:5944   */\n    tag_207:\n        /* \"#utility.yul\":5966:5967   */\n      dup3\n        /* \"#utility.yul\":5963:5964   */\n      dup3\n        /* \"#utility.yul\":5959:5968   */\n      div\n        /* \"#utility.yul\":5954:5968   */\n      swap1\n      pop\n        /* \"#utility.yul\":5789:5974   */\n      swap3\n      swap2\n      pop\n      pop\n      jump\t// out\n        /* \"#utility.yul\":5980:6328   */\n    tag_78:\n        /* \"#utility.yul\":6020:6027   */\n      0x00\n        /* \"#utility.yul\":6043:6063   */\n      tag_211\n        /* \"#utility.yul\":6061:6062   */\n      dup3\n        /* \"#utility.yul\":6043:6063   */\n      tag_169\n      jump\t// in\n    tag_211:\n        /* \"#utility.yul\":6038:6063   */\n      swap2\n      pop\n        /* \"#utility.yul\":6077:6097   */\n      tag_212\n        /* \"#utility.yul\":6095:6096   */\n      dup4\n        /* \"#utility.yul\":6077:6097   */\n      tag_169\n      jump\t// in\n    tag_212:\n        /* \"#utility.yul\":6072:6097   */\n      swap3\n      pop\n        /* \"#utility.yul\":6265:6266   */\n      dup2\n        /* \"#utility.yul\":6197:6263   */\n      0xffffffffffffffffffffffffffffffffffffffffffffffffffffffffffffffff\n        /* \"#utility.yul\":6193:6267   */\n      div\n        /* \"#utility.yul\":6190:6191   */\n      dup4\n        /* \"#utility.yul\":6187:6268   */\n      gt\n        /* \"#utility.yul\":6182:6183   */\n      dup3\n        /* \"#utility.yul\":6175:6184   */\n      iszero\n        /* \"#utility.yul\":6168:6185   */\n      iszero\n        /* \"#utility.yul\":6164:6269   */\n      and\n        /* \"#utility.yul\":6161:6292   */\n      iszero\n      tag_213\n      jumpi\n        /* \"#utility.yul\":6272:6290   */\n      tag_214\n      tag_203\n      jump\t// in\n    tag_214:\n        /* \"#utility.yul\":6161:6292   */\n    tag_213:\n        /* \"#utility.yul\":6320:6321   */\n      dup3\n        /* \"#utility.yul\":6317:6318   */\n      dup3\n        /* \"#utility.yul\":6313:6322   */\n      mul\n        /* \"#utility.yul\":6302:6322   */\n      swap1\n      pop\n        /* \"#utility.yul\":5980:6328   */\n      swap3\n      swap2\n      pop\n      pop\n      jump\t// out\n        /* \"#utility.yul\":6334:6525   */\n    tag_68:\n        /* \"#utility.yul\":6374:6378   */\n      0x00\n        /* \"#utility.yul\":6394:6414   */\n      tag_216\n        /* \"#utility.yul\":6412:6413   */\n      dup3\n        /* \"#utility.yul\":6394:6414   */\n      tag_169\n      jump\t// in\n    tag_216:\n        /* \"#utility.yul\":6389:6414   */\n      swap2\n      pop\n        /* \"#utility.yul\":6428:6448   */\n      tag_217\n        /* \"#utility.yul\":6446:6447   */\n      dup4\n        /* \"#utility.yul\":6428:6448   */\n      tag_169\n      jump\t// in\n    tag_217:\n        /* \"#utility.yul\":6423:6448   */\n      swap3\n      pop\n        /* \"#utility.yul\":6467:6468   */\n      dup3\n        /* \"#utility.yul\":6464:6465   */\n      dup3\n        /* \"#utility.yul\":6461:6469   */\n      lt\n        /* \"#utility.yul\":6458:6492   */\n      iszero\n      tag_218\n      jumpi\n        /* \"#utility.yul\":6472:6490   */\n      tag_219\n      tag_203\n      jump\t// in\n    tag_219:\n        /* \"#utility.yul\":6458:6492   */\n    tag_218:\n        /* \"#utility.yul\":6517:6518   */\n      dup3\n        /* \"#utility.yul\":6514:6515   */\n      dup3\n        /* \"#utility.yul\":6510:6519   */\n      sub\n        /* \"#utility.yul\":6502:6519   */\n      swap1\n      pop\n        /* \"#utility.yul\":6334:6525   */\n      swap3\n      swap2\n      pop\n      pop\n      jump\t// out\n        /* \"#utility.yul\":6531:6627   */\n    tag_150:\n        /* \"#utility.yul\":6568:6575   */\n      0x00\n        /* \"#utility.yul\":6597:6621   */\n      tag_221\n        /* \"#utility.yul\":6615:6620   */\n      dup3\n        /* \"#utility.yul\":6597:6621   */\n      tag_222\n      jump\t// in\n    tag_221:\n        /* \"#utility.yul\":6586:6621   */\n      swap1\n      pop\n        /* \"#utility.yul\":6531:6627   */\n      swap2\n      swap1\n      pop\n      jump\t// out\n        /* \"#utility.yul\":6633:6759   */\n    tag_222:\n        /* \"#utility.yul\":6670:6677   */\n      0x00\n        /* \"#utility.yul\":6710:6752   */\n      0xffffffffffffffffffffffffffffffffffffffff\n        /* \"#utility.yul\":6703:6708   */\n      dup3\n        /* \"#utility.yul\":6699:6753   */\n      and\n        /* \"#utility.yul\":6688:6753   */\n      swap1\n      pop\n        /* \"#utility.yul\":6633:6759   */\n      swap2\n      swap1\n      pop\n      jump\t// out\n        /* \"#utility.yul\":6765:6842   */\n    tag_169:\n        /* \"#utility.yul\":6802:6809   */\n      0x00\n        /* \"#utility.yul\":6831:6836   */\n      dup2\n        /* \"#utility.yul\":6820:6836   */\n      swap1\n      pop\n        /* \"#utility.yul\":6765:6842   */\n      swap2\n      swap1\n      pop\n      jump\t// out\n        /* \"#utility.yul\":6848:7002   */\n    tag_115:\n        /* \"#utility.yul\":6932:6938   */\n      dup3\n        /* \"#utility.yul\":6927:6930   */\n      dup2\n        /* \"#utility.yul\":6922:6925   */\n      dup4\n        /* \"#utility.yul\":6909:6939   */\n      calldatacopy\n        /* \"#utility.yul\":6994:6995   */\n      0x00\n        /* \"#utility.yul\":6985:6991   */\n      dup4\n        /* \"#utility.yul\":6980:6983   */\n      dup4\n        /* \"#utility.yul\":6976:6992   */\n      add\n        /* \"#utility.yul\":6969:6996   */\n      mstore\n        /* \"#utility.yul\":6848:7002   */\n      pop\n      pop\n      pop\n      jump\t// out\n        /* \"#utility.yul\":7008:7315   */\n    tag_163:\n        /* \"#utility.yul\":7076:7077   */\n      0x00\n        /* \"#utility.yul\":7086:7199   */\n    tag_227:\n        /* \"#utility.yul\":7100:7106   */\n      dup4\n        /* \"#utility.yul\":7097:7098   */\n      dup2\n        /* \"#utility.yul\":7094:7107   */\n      lt\n        /* \"#utility.yul\":7086:7199   */\n      iszero\n      tag_229\n      jumpi\n        /* \"#utility.yul\":7185:7186   */\n      dup1\n        /* \"#utility.yul\":7180:7183   */\n      dup3\n        /* \"#utility.yul\":7176:7187   */\n      add\n        /* \"#utility.yul\":7170:7188   */\n      mload\n        /* \"#utility.yul\":7166:7167   */\n      dup2\n        /* \"#utility.yul\":7161:7164   */\n      dup5\n        /* \"#utility.yul\":7157:7168   */\n      add\n        /* \"#utility.yul\":7150:7189   */\n      mstore\n        /* \"#utility.yul\":7122:7124   */\n      0x20\n        /* \"#utility.yul\":7119:7120   */\n      dup2\n        /* \"#utility.yul\":7115:7125   */\n      add\n        /* \"#utility.yul\":7110:7125   */\n      swap1\n      pop\n        /* \"#utility.yul\":7086:7199   */\n      jump(tag_227)\n    tag_229:\n        /* \"#utility.yul\":7217:7223   */\n      dup4\n        /* \"#utility.yul\":7214:7215   */\n      dup2\n        /* \"#utility.yul\":7211:7224   */\n      gt\n        /* \"#utility.yul\":7208:7309   */\n      iszero\n      tag_230\n      jumpi\n        /* \"#utility.yul\":7297:7298   */\n      0x00\n        /* \"#utility.yul\":7288:7294   */\n      dup5\n        /* \"#utility.yul\":7283:7286   */\n      dup5\n        /* \"#utility.yul\":7279:7295   */\n      add\n        /* \"#utility.yul\":7272:7299   */\n      mstore\n        /* \"#utility.yul\":7208:7309   */\n    tag_230:\n        /* \"#utility.yul\":7057:7315   */\n      pop\n        /* \"#utility.yul\":7008:7315   */\n      pop\n      pop\n      pop\n      jump\t// out\n        /* \"#utility.yul\":7321:7641   */\n    tag_32:\n        /* \"#utility.yul\":7365:7371   */\n      0x00\n        /* \"#utility.yul\":7402:7403   */\n      0x02\n        /* \"#utility.yul\":7396:7400   */\n      dup3\n        /* \"#utility.yul\":7392:7404   */\n      div\n        /* \"#utility.yul\":7382:7404   */\n      swap1\n      pop\n        /* \"#utility.yul\":7449:7450   */\n      0x01\n        /* \"#utility.yul\":7443:7447   */\n      dup3\n        /* \"#utility.yul\":7439:7451   */\n      and\n        /* \"#utility.yul\":7470:7488   */\n      dup1\n        /* \"#utility.yul\":7460:7541   */\n      tag_232\n      jumpi\n        /* \"#utility.yul\":7526:7530   */\n      0x7f\n        /* \"#utility.yul\":7518:7524   */\n      dup3\n        /* \"#utility.yul\":7514:7531   */\n      and\n        /* \"#utility.yul\":7504:7531   */\n      swap2\n      pop\n        /* \"#utility.yul\":7460:7541   */\n    tag_232:\n        /* \"#utility.yul\":7588:7590   */\n      0x20\n        /* \"#utility.yul\":7580:7586   */\n      dup3\n        /* \"#utility.yul\":7577:7591   */\n      lt\n        /* \"#utility.yul\":7557:7575   */\n      dup2\n        /* \"#utility.yul\":7554:7592   */\n      eq\n        /* \"#utility.yul\":7551:7635   */\n      iszero\n      tag_233\n      jumpi\n        /* \"#utility.yul\":7607:7625   */\n      tag_234\n      tag_235\n      jump\t// in\n    tag_234:\n        /* \"#utility.yul\":7551:7635   */\n    tag_233:\n        /* \"#utility.yul\":7372:7641   */\n      pop\n        /* \"#utility.yul\":7321:7641   */\n      swap2\n      swap1\n      pop\n      jump\t// out\n        /* \"#utility.yul\":7647:7928   */\n    tag_189:\n        /* \"#utility.yul\":7730:7757   */\n      tag_237\n        /* \"#utility.yul\":7752:7756   */\n      dup3\n        /* \"#utility.yul\":7730:7757   */\n      tag_165\n      jump\t// in\n    tag_237:\n        /* \"#utility.yul\":7722:7728   */\n      dup2\n        /* \"#utility.yul\":7718:7758   */\n      add\n        /* \"#utility.yul\":7860:7866   */\n      dup2\n        /* \"#utility.yul\":7848:7858   */\n      dup2\n        /* \"#utility.yul\":7845:7867   */\n      lt\n        /* \"#utility.yul\":7824:7842   */\n      0xffffffffffffffff\n        /* \"#utility.yul\":7812:7822   */\n      dup3\n        /* \"#utility.yul\":7809:7843   */\n      gt\n        /* \"#utility.yul\":7806:7868   */\n      or\n        /* \"#utility.yul\":7803:7891   */\n      iszero\n      tag_238\n      jumpi\n        /* \"#utility.yul\":7871:7889   */\n      tag_239\n      tag_194\n      jump\t// in\n    tag_239:\n        /* \"#utility.yul\":7803:7891   */\n    tag_238:\n        /* \"#utility.yul\":7911:7921   */\n      dup1\n        /* \"#utility.yul\":7907:7909   */\n      0x40\n        /* \"#utility.yul\":7900:7922   */\n      mstore\n        /* \"#utility.yul\":7690:7928   */\n      pop\n        /* \"#utility.yul\":7647:7928   */\n      pop\n      pop\n      jump\t// out\n        /* \"#utility.yul\":7934:8034   */\n    tag_155:\n        /* \"#utility.yul\":7973:7980   */\n      0x00\n        /* \"#utility.yul\":8002:8028   */\n      tag_241\n        /* \"#utility.yul\":8022:8027   */\n      dup3\n        /* \"#utility.yul\":8002:8028   */\n      tag_242\n      jump\t// in\n    tag_241:\n        /* \"#utility.yul\":7991:8028   */\n      swap1\n      pop\n        /* \"#utility.yul\":7934:8034   */\n      swap2\n      swap1\n      pop\n      jump\t// out\n        /* \"#utility.yul\":8040:8134   */\n    tag_242:\n        /* \"#utility.yul\":8079:8086   */\n      0x00\n        /* \"#utility.yul\":8108:8128   */\n      tag_244\n        /* \"#utility.yul\":8122:8127   */\n      dup3\n        /* \"#utility.yul\":8108:8128   */\n      tag_245\n      jump\t// in\n    tag_244:\n        /* \"#utility.yul\":8097:8128   */\n      swap1\n      pop\n        /* \"#utility.yul\":8040:8134   */\n      swap2\n      swap1\n      pop\n      jump\t// out\n        /* \"#utility.yul\":8140:8219   */\n    tag_174:\n        /* \"#utility.yul\":8179:8186   */\n      0x00\n        /* \"#utility.yul\":8208:8213   */\n      dup2\n        /* \"#utility.yul\":8197:8213   */\n      swap1\n      pop\n        /* \"#utility.yul\":8140:8219   */\n      swap2\n      swap1\n      pop\n      jump\t// out\n        /* \"#utility.yul\":8225:8401   */\n    tag_93:\n        /* \"#utility.yul\":8257:8258   */\n      0x00\n        /* \"#utility.yul\":8274:8294   */\n      tag_248\n        /* \"#utility.yul\":8292:8293   */\n      dup3\n        /* \"#utility.yul\":8274:8294   */\n      tag_169\n      jump\t// in\n    tag_248:\n        /* \"#utility.yul\":8269:8294   */\n      swap2\n      pop\n        /* \"#utility.yul\":8308:8328   */\n      tag_249\n        /* \"#utility.yul\":8326:8327   */\n      dup4\n        /* \"#utility.yul\":8308:8328   */\n      tag_169\n      jump\t// in\n    tag_249:\n        /* \"#utility.yul\":8303:8328   */\n      swap3\n      pop\n        /* \"#utility.yul\":8347:8348   */\n      dup3\n        /* \"#utility.yul\":8337:8372   */\n      tag_250\n      jumpi\n        /* \"#utility.yul\":8352:8370   */\n      tag_251\n      tag_209\n      jump\t// in\n    tag_251:\n        /* \"#utility.yul\":8337:8372   */\n    tag_250:\n        /* \"#utility.yul\":8393:8394   */\n      dup3\n        /* \"#utility.yul\":8390:8391   */\n      dup3\n        /* \"#utility.yul\":8386:8395   */\n      mod\n        /* \"#utility.yul\":8381:8395   */\n      swap1\n      pop\n        /* \"#utility.yul\":8225:8401   */\n      swap3\n      swap2\n      pop\n      pop\n      jump\t// out\n        /* \"#utility.yul\":8407:8587   */\n    tag_203:\n        /* \"#utility.yul\":8455:8532   */\n      0x4e487b7100000000000000000000000000000000000000000000000000000000\n        /* \"#utility.yul\":8452:8453   */\n      0x00\n        /* \"#utility.yul\":8445:8533   */\n      mstore\n        /* \"#utility.yul\":8552:8556   */\n      0x11\n        /* \"#utility.yul\":8549:8550   */\n      0x04\n        /* \"#utility.yul\":8542:8557   */\n      mstore\n        /* \"#utility.yul\":8576:8580   */\n      0x24\n        /* \"#utility.yul\":8573:8574   */\n      0x00\n        /* \"#utility.yul\":8566:8581   */\n      revert\n        /* \"#utility.yul\":8593:8773   */\n    tag_209:\n        /* \"#utility.yul\":8641:8718   */\n      0x4e487b7100000000000000000000000000000000000000000000000000000000\n        /* \"#utility.yul\":8638:8639   */\n      0x00\n        /* \"#utility.yul\":8631:8719   */\n      mstore\n        /* \"#utility.yul\":8738:8742   */\n      0x12\n        /* \"#utility.yul\":8735:8736   */\n      0x04\n        /* \"#utility.yul\":8728:8743   */\n      mstore\n        /* \"#utility.yul\":8762:8766   */\n      0x24\n        /* \"#utility.yul\":8759:8760   */\n      0x00\n        /* \"#utility.yul\":8752:8767   */\n      revert\n        /* \"#utility.yul\":8779:8959   */\n    tag_235:\n        /* \"#utility.yul\":8827:8904   */\n      0x4e487b7100000000000000000000000000000000000000000000000000000000\n        /* \"#utility.yul\":8824:8825   */\n      0x00\n        /* \"#utility.yul\":8817:8905   */\n      mstore\n        /* \"#utility.yul\":8924:8928   */\n      0x22\n        /* \"#utility.yul\":8921:8922   */\n      0x04\n        /* \"#utility.yul\":8914:8929   */\n      mstore\n        /* \"#utility.yul\":8948:8952   */\n      0x24\n        /* \"#utility.yul\":8945:8946   */\n      0x00\n        /* \"#utility.yul\":8938:8953   */\n      revert\n        /* \"#utility.yul\":8965:9145   */\n    tag_45:\n        /* \"#utility.yul\":9013:9090   */\n      0x4e487b7100000000000000000000000000000000000000000000000000000000\n        /* \"#utility.yul\":9010:9011   */\n      0x00\n        /* \"#utility.yul\":9003:9091   */\n      mstore\n        /* \"#utility.yul\":9110:9114   */\n      0x32\n        /* \"#utility.yul\":9107:9108   */\n      0x04\n        /* \"#utility.yul\":9100:9115   */\n      mstore\n        /* \"#utility.yul\":9134:9138   */\n      0x24\n        /* \"#utility.yul\":9131:9132   */\n      0x00\n        /* \"#utility.yul\":9124:9139   */\n      revert\n        /* \"#utility.yul\":9151:9331   */\n    tag_194:\n        /* \"#utility.yul\":9199:9276   */\n      0x4e487b7100000000000000000000000000000000000000000000000000000000\n        /* \"#utility.yul\":9196:9197   */\n      0x00\n        /* \"#utility.yul\":9189:9277   */\n      mstore\n        /* \"#utility.yul\":9296:9300   */\n      0x41\n        /* \"#utility.yul\":9293:9294   */\n      0x04\n        /* \"#utility.yul\":9286:9301   */\n      mstore\n        /* \"#utility.yul\":9320:9324   */\n      0x24\n        /* \"#utility.yul\":9317:9318   */\n      0x00\n        /* \"#utility.yul\":9310:9325   */\n      revert\n        /* \"#utility.yul\":9337:9454   */\n    tag_124:\n        /* \"#utility.yul\":9446:9447   */\n      0x00\n        /* \"#utility.yul\":9443:9444   */\n      dup1\n        /* \"#utility.yul\":9436:9448   */\n      revert\n        /* \"#utility.yul\":9460:9577   */\n    tag_113:\n        /* \"#utility.yul\":9569:9570   */\n      0x00\n        /* \"#utility.yul\":9566:9567   */\n      dup1\n        /* \"#utility.yul\":9559:9571   */\n      revert\n        /* \"#utility.yul\":9583:9700   */\n    tag_145:\n        /* \"#utility.yul\":9692:9693   */\n      0x00\n        /* \"#utility.yul\":9689:9690   */\n      dup1\n        /* \"#utility.yul\":9682:9694   */\n      revert\n        /* \"#utility.yul\":9706:9823   */\n    tag_133:\n        /* \"#utility.yul\":9815:9816   */\n      0x00\n        /* \"#utility.yul\":9812:9813   */\n      dup1\n        /* \"#utility.yul\":9805:9817   */\n      revert\n        /* \"#utility.yul\":9829:9931   */\n    tag_165:\n        /* \"#utility.yul\":9870:9876   */\n      0x00\n        /* \"#utility.yul\":9921:9923   */\n      0x1f\n        /* \"#utility.yul\":9917:9924   */\n      not\n        /* \"#utility.yul\":9912:9914   */\n      0x1f\n        /* \"#utility.yul\":9905:9910   */\n      dup4\n        /* \"#utility.yul\":9901:9915   */\n      add\n        /* \"#utility.yul\":9897:9925   */\n      and\n        /* \"#utility.yul\":9887:9925   */\n      swap1\n      pop\n        /* \"#utility.yul\":9829:9931   */\n      swap2\n      swap1\n      pop\n      jump\t// out\n        /* \"#utility.yul\":9937:10031   */\n    tag_245:\n        /* \"#utility.yul\":9970:9978   */\n      0x00\n        /* \"#utility.yul\":10018:10023   */\n      dup2\n        /* \"#utility.yul\":10014:10016   */\n      0x60\n        /* \"#utility.yul\":10010:10024   */\n      shl\n        /* \"#utility.yul\":9989:10024   */\n      swap1\n      pop\n        /* \"#utility.yul\":9937:10031   */\n      swap2\n      swap1\n      pop\n      jump\t// out\n        /* \"#utility.yul\":10037:10159   */\n    tag_119:\n        /* \"#utility.yul\":10110:10134   */\n      tag_264\n        /* \"#utility.yul\":10128:10133   */\n      dup2\n        /* \"#utility.yul\":10110:10134   */\n      tag_150\n      jump\t// in\n    tag_264:\n        /* \"#utility.yul\":10103:10108   */\n      dup2\n        /* \"#utility.yul\":10100:10135   */\n      eq\n        /* \"#utility.yul\":10090:10153   */\n      tag_265\n      jumpi\n        /* \"#utility.yul\":10149:10150   */\n      0x00\n        /* \"#utility.yul\":10146:10147   */\n      dup1\n        /* \"#utility.yul\":10139:10151   */\n      revert\n        /* \"#utility.yul\":10090:10153   */\n    tag_265:\n        /* \"#utility.yul\":10037:10159   */\n      pop\n      jump\t// out\n        /* \"#utility.yul\":10165:10287   */\n    tag_129:\n        /* \"#utility.yul\":10238:10262   */\n      tag_267\n        /* \"#utility.yul\":10256:10261   */\n      dup2\n        /* \"#utility.yul\":10238:10262   */\n      tag_169\n      jump\t// in\n    tag_267:\n        /* \"#utility.yul\":10231:10236   */\n      dup2\n        /* \"#utility.yul\":10228:10263   */\n      eq\n        /* \"#utility.yul\":10218:10281   */\n      tag_268\n      jumpi\n        /* \"#utility.yul\":10277:10278   */\n      0x00\n        /* \"#utility.yul\":10274:10275   */\n      dup1\n        /* \"#utility.yul\":10267:10279   */\n      revert\n        /* \"#utility.yul\":10218:10281   */\n    tag_268:\n        /* \"#utility.yul\":10165:10287   */\n      pop\n      jump\t// out\n\n    auxdata: 0xa264697066735822122027947022c1faf2c723b828eb28e5aa0e2591b644fb0cde5bbfa6684c11afc2d164736f6c63430008070033\n}\n",
				"bytecode": {
					"linkReferences": {},
					"object": "608060405260405180606001604052806040518060400160405280600681526020017f417474616368000000000000000000000000000000000000000000000000000081525081526020016040518060400160405280600781526020017f446566696e63650000000000000000000000000000000000000000000000000081525081526020016040518060400160405280600781526020017f42616c616e6365000000000000000000000000000000000000000000000000008152508152506004906003620000d092919062000125565b50348015620000de57600080fd5b50336000806101000a81548173ffffffffffffffffffffffffffffffffffffffff021916908373ffffffffffffffffffffffffffffffffffffffff1602179055506200030f565b82805482825590600052602060002090810192821562000179579160200282015b8281111562000178578251829080519060200190620001679291906200018c565b509160200191906001019062000146565b5b5090506200018891906200021d565b5090565b8280546200019a90620002aa565b90600052602060002090601f016020900481019282620001be57600085556200020a565b82601f10620001d957805160ff19168380011785556200020a565b828001600101855582156200020a579182015b8281111562000209578251825591602001919060010190620001ec565b5b50905062000219919062000245565b5090565b5b8082111562000241576000818162000237919062000264565b506001016200021e565b5090565b5b808211156200026057600081600090555060010162000246565b5090565b5080546200027290620002aa565b6000825580601f10620002865750620002a7565b601f016020900490600052602060002090810190620002a6919062000245565b5b50565b60006002820490506001821680620002c357607f821691505b60208210811415620002da57620002d9620002e0565b5b50919050565b7f4e487b7100000000000000000000000000000000000000000000000000000000600052602260045260246000fd5b610e56806200031f6000396000f3fe608060405234801561001057600080fd5b50600436106100575760003560e01c8063075461721461005c5780635cf3d3461461007a5780636a786b07146100aa578063abf5f2ed146100c6578063bc346c9c146100f6575b600080fd5b610064610112565b60405161007191906109b6565b60405180910390f35b610094600480360381019061008f919061083e565b610136565b6040516100a191906109d1565b60405180910390f35b6100c460048036038101906100bf91906108ab565b6101d6565b005b6100e060048036038101906100db919061086b565b6103be565b6040516100ed91906109f3565b60405180910390f35b610110600480360381019061010b919061083e565b6103e6565b005b60008054906101000a900473ffffffffffffffffffffffffffffffffffffffff1681565b6003602052806000526040600020600091509050805461015590610c13565b80601f016020809104026020016040519081016040528092919081815260200182805461018190610c13565b80156101ce5780601f106101a3576101008083540402835291602001916101ce565b820191906000526020600020905b8154815290600101906020018083116101b157829003601f168201915b505050505081565b60011515600260003373ffffffffffffffffffffffffffffffffffffffff1673ffffffffffffffffffffffffffffffffffffffff16815260200190815260200160002060009054906101000a900460ff161515141561023457600080fd5b61023e60056106bf565b600561024a9190610a80565b600160003373ffffffffffffffffffffffffffffffffffffffff1673ffffffffffffffffffffffffffffffffffffffff16815260200190815260200160002060006003811061029c5761029b610d62565b5b01819055506102ab60056106bf565b60056102b79190610a80565b600160003373ffffffffffffffffffffffffffffffffffffffff1673ffffffffffffffffffffffffffffffffffffffff16815260200190815260200160002060016003811061030957610308610d62565b5b01819055506064600160003373ffffffffffffffffffffffffffffffffffffffff1673ffffffffffffffffffffffffffffffffffffffff16815260200190815260200160002060026003811061036257610361610d62565b5b018190555080600360003373ffffffffffffffffffffffffffffffffffffffff1673ffffffffffffffffffffffffffffffffffffffff16815260200190815260200160002090805190602001906103ba929190610701565b5050565b600160205281600052604060002081600381106103da57600080fd5b01600091509150505481565b60011515600260008373ffffffffffffffffffffffffffffffffffffffff1673ffffffffffffffffffffffffffffffffffffffff16815260200190815260200160002060009054906101000a900460ff1615151461044357600080fd5b6000600160008373ffffffffffffffffffffffffffffffffffffffff1673ffffffffffffffffffffffffffffffffffffffff16815260200190815260200160002060016003811061049757610496610d62565b5b0154600160003373ffffffffffffffffffffffffffffffffffffffff1673ffffffffffffffffffffffffffffffffffffffff1681526020019081526020016000206000600381106104eb576104ea610d62565b5b01546104f79190610b61565b9050600a600160003373ffffffffffffffffffffffffffffffffffffffff1673ffffffffffffffffffffffffffffffffffffffff16815260200190815260200160002060006003811061054d5761054c610d62565b5b01600082825461055d9190610a80565b92505081905550600a600160008473ffffffffffffffffffffffffffffffffffffffff1673ffffffffffffffffffffffffffffffffffffffff1681526020019081526020016000206001600381106105b8576105b7610d62565b5b0160008282546105c89190610a80565b925050819055506002816105dc9190610b07565b600160008473ffffffffffffffffffffffffffffffffffffffff1673ffffffffffffffffffffffffffffffffffffffff16815260200190815260200160002060026003811061062e5761062d610d62565b5b01600082825461063e9190610a80565b925050819055506002816106529190610ad6565b600160003373ffffffffffffffffffffffffffffffffffffffff1673ffffffffffffffffffffffffffffffffffffffff1681526020019081526020016000206002600381106106a4576106a3610d62565b5b0160008282546106b49190610a80565b925050819055505050565b6000814244336040516020016106d793929190610979565b6040516020818303038152906040528051906020012060001c6106fa9190610ca4565b9050919050565b82805461070d90610c13565b90600052602060002090601f01602090048101928261072f5760008555610776565b82601f1061074857805160ff1916838001178555610776565b82800160010185558215610776579182015b8281111561077557825182559160200191906001019061075a565b5b5090506107839190610787565b5090565b5b808211156107a0576000816000905550600101610788565b5090565b60006107b76107b284610a33565b610a0e565b9050828152602081018484840111156107d3576107d2610dc5565b5b6107de848285610bd1565b509392505050565b6000813590506107f581610df2565b92915050565b600082601f8301126108105761080f610dc0565b5b81356108208482602086016107a4565b91505092915050565b60008135905061083881610e09565b92915050565b60006020828403121561085457610853610dcf565b5b6000610862848285016107e6565b91505092915050565b6000806040838503121561088257610881610dcf565b5b6000610890858286016107e6565b92505060206108a185828601610829565b9150509250929050565b6000602082840312156108c1576108c0610dcf565b5b600082013567ffffffffffffffff8111156108df576108de610dca565b5b6108eb848285016107fb565b91505092915050565b6108fd81610b95565b82525050565b61091461090f82610b95565b610c76565b82525050565b600061092582610a64565b61092f8185610a6f565b935061093f818560208601610be0565b61094881610dd4565b840191505092915050565b61095c81610bc7565b82525050565b61097361096e82610bc7565b610c9a565b82525050565b60006109858286610962565b6020820191506109958285610962565b6020820191506109a58284610903565b601482019150819050949350505050565b60006020820190506109cb60008301846108f4565b92915050565b600060208201905081810360008301526109eb818461091a565b905092915050565b6000602082019050610a086000830184610953565b92915050565b6000610a18610a29565b9050610a248282610c45565b919050565b6000604051905090565b600067ffffffffffffffff821115610a4e57610a4d610d91565b5b610a5782610dd4565b9050602081019050919050565b600081519050919050565b600082825260208201905092915050565b6000610a8b82610bc7565b9150610a9683610bc7565b9250827fffffffffffffffffffffffffffffffffffffffffffffffffffffffffffffffff03821115610acb57610aca610cd5565b5b828201905092915050565b6000610ae182610bc7565b9150610aec83610bc7565b925082610afc57610afb610d04565b5b828204905092915050565b6000610b1282610bc7565b9150610b1d83610bc7565b9250817fffffffffffffffffffffffffffffffffffffffffffffffffffffffffffffffff0483118215151615610b5657610b55610cd5565b5b828202905092915050565b6000610b6c82610bc7565b9150610b7783610bc7565b925082821015610b8a57610b89610cd5565b5b828203905092915050565b6000610ba082610ba7565b9050919050565b600073ffffffffffffffffffffffffffffffffffffffff82169050919050565b6000819050919050565b82818337600083830152505050565b60005b83811015610bfe578082015181840152602081019050610be3565b83811115610c0d576000848401525b50505050565b60006002820490506001821680610c2b57607f821691505b60208210811415610c3f57610c3e610d33565b5b50919050565b610c4e82610dd4565b810181811067ffffffffffffffff82111715610c6d57610c6c610d91565b5b80604052505050565b6000610c8182610c88565b9050919050565b6000610c9382610de5565b9050919050565b6000819050919050565b6000610caf82610bc7565b9150610cba83610bc7565b925082610cca57610cc9610d04565b5b828206905092915050565b7f4e487b7100000000000000000000000000000000000000000000000000000000600052601160045260246000fd5b7f4e487b7100000000000000000000000000000000000000000000000000000000600052601260045260246000fd5b7f4e487b7100000000000000000000000000000000000000000000000000000000600052602260045260246000fd5b7f4e487b7100000000000000000000000000000000000000000000000000000000600052603260045260246000fd5b7f4e487b7100000000000000000000000000000000000000000000000000000000600052604160045260246000fd5b600080fd5b600080fd5b600080fd5b600080fd5b6000601f19601f8301169050919050565b60008160601b9050919050565b610dfb81610b95565b8114610e0657600080fd5b50565b610e1281610bc7565b8114610e1d57600080fd5b5056fea264697066735822122027947022c1faf2c723b828eb28e5aa0e2591b644fb0cde5bbfa6684c11afc2d164736f6c63430008070033",
					"opcodes": "PUSH1 0x80 PUSH1 0x40 MSTORE PUSH1 0x40 MLOAD DUP1 PUSH1 0x60 ADD PUSH1 0x40 MSTORE DUP1 PUSH1 0x40 MLOAD DUP1 PUSH1 0x40 ADD PUSH1 0x40 MSTORE DUP1 PUSH1 0x6 DUP2 MSTORE PUSH1 0x20 ADD PUSH32 0x4174746163680000000000000000000000000000000000000000000000000000 DUP2 MSTORE POP DUP2 MSTORE PUSH1 0x20 ADD PUSH1 0x40 MLOAD DUP1 PUSH1 0x40 ADD PUSH1 0x40 MSTORE DUP1 PUSH1 0x7 DUP2 MSTORE PUSH1 0x20 ADD PUSH32 0x446566696E636500000000000000000000000000000000000000000000000000 DUP2 MSTORE POP DUP2 MSTORE PUSH1 0x20 ADD PUSH1 0x40 MLOAD DUP1 PUSH1 0x40 ADD PUSH1 0x40 MSTORE DUP1 PUSH1 0x7 DUP2 MSTORE PUSH1 0x20 ADD PUSH32 0x42616C616E636500000000000000000000000000000000000000000000000000 DUP2 MSTORE POP DUP2 MSTORE POP PUSH1 0x4 SWAP1 PUSH1 0x3 PUSH3 0xD0 SWAP3 SWAP2 SWAP1 PUSH3 0x125 JUMP JUMPDEST POP CALLVALUE DUP1 ISZERO PUSH3 0xDE JUMPI PUSH1 0x0 DUP1 REVERT JUMPDEST POP CALLER PUSH1 0x0 DUP1 PUSH2 0x100 EXP DUP2 SLOAD DUP2 PUSH20 0xFFFFFFFFFFFFFFFFFFFFFFFFFFFFFFFFFFFFFFFF MUL NOT AND SWAP1 DUP4 PUSH20 0xFFFFFFFFFFFFFFFFFFFFFFFFFFFFFFFFFFFFFFFF AND MUL OR SWAP1 SSTORE POP PUSH3 0x30F JUMP JUMPDEST DUP3 DUP1 SLOAD DUP3 DUP3 SSTORE SWAP1 PUSH1 0x0 MSTORE PUSH1 0x20 PUSH1 0x0 KECCAK256 SWAP1 DUP2 ADD SWAP3 DUP3 ISZERO PUSH3 0x179 JUMPI SWAP2 PUSH1 0x20 MUL DUP3 ADD JUMPDEST DUP3 DUP2 GT ISZERO PUSH3 0x178 JUMPI DUP3 MLOAD DUP3 SWAP1 DUP1 MLOAD SWAP1 PUSH1 0x20 ADD SWAP1 PUSH3 0x167 SWAP3 SWAP2 SWAP1 PUSH3 0x18C JUMP JUMPDEST POP SWAP2 PUSH1 0x20 ADD SWAP2 SWAP1 PUSH1 0x1 ADD SWAP1 PUSH3 0x146 JUMP JUMPDEST JUMPDEST POP SWAP1 POP PUSH3 0x188 SWAP2 SWAP1 PUSH3 0x21D JUMP JUMPDEST POP SWAP1 JUMP JUMPDEST DUP3 DUP1 SLOAD PUSH3 0x19A SWAP1 PUSH3 0x2AA JUMP JUMPDEST SWAP1 PUSH1 0x0 MSTORE PUSH1 0x20 PUSH1 0x0 KECCAK256 SWAP1 PUSH1 0x1F ADD PUSH1 0x20 SWAP1 DIV DUP2 ADD SWAP3 DUP3 PUSH3 0x1BE JUMPI PUSH1 0x0 DUP6 SSTORE PUSH3 0x20A JUMP JUMPDEST DUP3 PUSH1 0x1F LT PUSH3 0x1D9 JUMPI DUP1 MLOAD PUSH1 0xFF NOT AND DUP4 DUP1 ADD OR DUP6 SSTORE PUSH3 0x20A JUMP JUMPDEST DUP3 DUP1 ADD PUSH1 0x1 ADD DUP6 SSTORE DUP3 ISZERO PUSH3 0x20A JUMPI SWAP2 DUP3 ADD JUMPDEST DUP3 DUP2 GT ISZERO PUSH3 0x209 JUMPI DUP3 MLOAD DUP3 SSTORE SWAP2 PUSH1 0x20 ADD SWAP2 SWAP1 PUSH1 0x1 ADD SWAP1 PUSH3 0x1EC JUMP JUMPDEST JUMPDEST POP SWAP1 POP PUSH3 0x219 SWAP2 SWAP1 PUSH3 0x245 JUMP JUMPDEST POP SWAP1 JUMP JUMPDEST JUMPDEST DUP1 DUP3 GT ISZERO PUSH3 0x241 JUMPI PUSH1 0x0 DUP2 DUP2 PUSH3 0x237 SWAP2 SWAP1 PUSH3 0x264 JUMP JUMPDEST POP PUSH1 0x1 ADD PUSH3 0x21E JUMP JUMPDEST POP SWAP1 JUMP JUMPDEST JUMPDEST DUP1 DUP3 GT ISZERO PUSH3 0x260 JUMPI PUSH1 0x0 DUP2 PUSH1 0x0 SWAP1 SSTORE POP PUSH1 0x1 ADD PUSH3 0x246 JUMP JUMPDEST POP SWAP1 JUMP JUMPDEST POP DUP1 SLOAD PUSH3 0x272 SWAP1 PUSH3 0x2AA JUMP JUMPDEST PUSH1 0x0 DUP3 SSTORE DUP1 PUSH1 0x1F LT PUSH3 0x286 JUMPI POP PUSH3 0x2A7 JUMP JUMPDEST PUSH1 0x1F ADD PUSH1 0x20 SWAP1 DIV SWAP1 PUSH1 0x0 MSTORE PUSH1 0x20 PUSH1 0x0 KECCAK256 SWAP1 DUP2 ADD SWAP1 PUSH3 0x2A6 SWAP2 SWAP1 PUSH3 0x245 JUMP JUMPDEST JUMPDEST POP JUMP JUMPDEST PUSH1 0x0 PUSH1 0x2 DUP3 DIV SWAP1 POP PUSH1 0x1 DUP3 AND DUP1 PUSH3 0x2C3 JUMPI PUSH1 0x7F DUP3 AND SWAP2 POP JUMPDEST PUSH1 0x20 DUP3 LT DUP2 EQ ISZERO PUSH3 0x2DA JUMPI PUSH3 0x2D9 PUSH3 0x2E0 JUMP JUMPDEST JUMPDEST POP SWAP2 SWAP1 POP JUMP JUMPDEST PUSH32 0x4E487B7100000000000000000000000000000000000000000000000000000000 PUSH1 0x0 MSTORE PUSH1 0x22 PUSH1 0x4 MSTORE PUSH1 0x24 PUSH1 0x0 REVERT JUMPDEST PUSH2 0xE56 DUP1 PUSH3 0x31F PUSH1 0x0 CODECOPY PUSH1 0x0 RETURN INVALID PUSH1 0x80 PUSH1 0x40 MSTORE CALLVALUE DUP1 ISZERO PUSH2 0x10 JUMPI PUSH1 0x0 DUP1 REVERT JUMPDEST POP PUSH1 0x4 CALLDATASIZE LT PUSH2 0x57 JUMPI PUSH1 0x0 CALLDATALOAD PUSH1 0xE0 SHR DUP1 PUSH4 0x7546172 EQ PUSH2 0x5C JUMPI DUP1 PUSH4 0x5CF3D346 EQ PUSH2 0x7A JUMPI DUP1 PUSH4 0x6A786B07 EQ PUSH2 0xAA JUMPI DUP1 PUSH4 0xABF5F2ED EQ PUSH2 0xC6 JUMPI DUP1 PUSH4 0xBC346C9C EQ PUSH2 0xF6 JUMPI JUMPDEST PUSH1 0x0 DUP1 REVERT JUMPDEST PUSH2 0x64 PUSH2 0x112 JUMP JUMPDEST PUSH1 0x40 MLOAD PUSH2 0x71 SWAP2 SWAP1 PUSH2 0x9B6 JUMP JUMPDEST PUSH1 0x40 MLOAD DUP1 SWAP2 SUB SWAP1 RETURN JUMPDEST PUSH2 0x94 PUSH1 0x4 DUP1 CALLDATASIZE SUB DUP2 ADD SWAP1 PUSH2 0x8F SWAP2 SWAP1 PUSH2 0x83E JUMP JUMPDEST PUSH2 0x136 JUMP JUMPDEST PUSH1 0x40 MLOAD PUSH2 0xA1 SWAP2 SWAP1 PUSH2 0x9D1 JUMP JUMPDEST PUSH1 0x40 MLOAD DUP1 SWAP2 SUB SWAP1 RETURN JUMPDEST PUSH2 0xC4 PUSH1 0x4 DUP1 CALLDATASIZE SUB DUP2 ADD SWAP1 PUSH2 0xBF SWAP2 SWAP1 PUSH2 0x8AB JUMP JUMPDEST PUSH2 0x1D6 JUMP JUMPDEST STOP JUMPDEST PUSH2 0xE0 PUSH1 0x4 DUP1 CALLDATASIZE SUB DUP2 ADD SWAP1 PUSH2 0xDB SWAP2 SWAP1 PUSH2 0x86B JUMP JUMPDEST PUSH2 0x3BE JUMP JUMPDEST PUSH1 0x40 MLOAD PUSH2 0xED SWAP2 SWAP1 PUSH2 0x9F3 JUMP JUMPDEST PUSH1 0x40 MLOAD DUP1 SWAP2 SUB SWAP1 RETURN JUMPDEST PUSH2 0x110 PUSH1 0x4 DUP1 CALLDATASIZE SUB DUP2 ADD SWAP1 PUSH2 0x10B SWAP2 SWAP1 PUSH2 0x83E JUMP JUMPDEST PUSH2 0x3E6 JUMP JUMPDEST STOP JUMPDEST PUSH1 0x0 DUP1 SLOAD SWAP1 PUSH2 0x100 EXP SWAP1 DIV PUSH20 0xFFFFFFFFFFFFFFFFFFFFFFFFFFFFFFFFFFFFFFFF AND DUP2 JUMP JUMPDEST PUSH1 0x3 PUSH1 0x20 MSTORE DUP1 PUSH1 0x0 MSTORE PUSH1 0x40 PUSH1 0x0 KECCAK256 PUSH1 0x0 SWAP2 POP SWAP1 POP DUP1 SLOAD PUSH2 0x155 SWAP1 PUSH2 0xC13 JUMP JUMPDEST DUP1 PUSH1 0x1F ADD PUSH1 0x20 DUP1 SWAP2 DIV MUL PUSH1 0x20 ADD PUSH1 0x40 MLOAD SWAP1 DUP2 ADD PUSH1 0x40 MSTORE DUP1 SWAP3 SWAP2 SWAP1 DUP2 DUP2 MSTORE PUSH1 0x20 ADD DUP3 DUP1 SLOAD PUSH2 0x181 SWAP1 PUSH2 0xC13 JUMP JUMPDEST DUP1 ISZERO PUSH2 0x1CE JUMPI DUP1 PUSH1 0x1F LT PUSH2 0x1A3 JUMPI PUSH2 0x100 DUP1 DUP4 SLOAD DIV MUL DUP4 MSTORE SWAP2 PUSH1 0x20 ADD SWAP2 PUSH2 0x1CE JUMP JUMPDEST DUP3 ADD SWAP2 SWAP1 PUSH1 0x0 MSTORE PUSH1 0x20 PUSH1 0x0 KECCAK256 SWAP1 JUMPDEST DUP2 SLOAD DUP2 MSTORE SWAP1 PUSH1 0x1 ADD SWAP1 PUSH1 0x20 ADD DUP1 DUP4 GT PUSH2 0x1B1 JUMPI DUP3 SWAP1 SUB PUSH1 0x1F AND DUP3 ADD SWAP2 JUMPDEST POP POP POP POP POP DUP2 JUMP JUMPDEST PUSH1 0x1 ISZERO ISZERO PUSH1 0x2 PUSH1 0x0 CALLER PUSH20 0xFFFFFFFFFFFFFFFFFFFFFFFFFFFFFFFFFFFFFFFF AND PUSH20 0xFFFFFFFFFFFFFFFFFFFFFFFFFFFFFFFFFFFFFFFF AND DUP2 MSTORE PUSH1 0x20 ADD SWAP1 DUP2 MSTORE PUSH1 0x20 ADD PUSH1 0x0 KECCAK256 PUSH1 0x0 SWAP1 SLOAD SWAP1 PUSH2 0x100 EXP SWAP1 DIV PUSH1 0xFF AND ISZERO ISZERO EQ ISZERO PUSH2 0x234 JUMPI PUSH1 0x0 DUP1 REVERT JUMPDEST PUSH2 0x23E PUSH1 0x5 PUSH2 0x6BF JUMP JUMPDEST PUSH1 0x5 PUSH2 0x24A SWAP2 SWAP1 PUSH2 0xA80 JUMP JUMPDEST PUSH1 0x1 PUSH1 0x0 CALLER PUSH20 0xFFFFFFFFFFFFFFFFFFFFFFFFFFFFFFFFFFFFFFFF AND PUSH20 0xFFFFFFFFFFFFFFFFFFFFFFFFFFFFFFFFFFFFFFFF AND DUP2 MSTORE PUSH1 0x20 ADD SWAP1 DUP2 MSTORE PUSH1 0x20 ADD PUSH1 0x0 KECCAK256 PUSH1 0x0 PUSH1 0x3 DUP2 LT PUSH2 0x29C JUMPI PUSH2 0x29B PUSH2 0xD62 JUMP JUMPDEST JUMPDEST ADD DUP2 SWAP1 SSTORE POP PUSH2 0x2AB PUSH1 0x5 PUSH2 0x6BF JUMP JUMPDEST PUSH1 0x5 PUSH2 0x2B7 SWAP2 SWAP1 PUSH2 0xA80 JUMP JUMPDEST PUSH1 0x1 PUSH1 0x0 CALLER PUSH20 0xFFFFFFFFFFFFFFFFFFFFFFFFFFFFFFFFFFFFFFFF AND PUSH20 0xFFFFFFFFFFFFFFFFFFFFFFFFFFFFFFFFFFFFFFFF AND DUP2 MSTORE PUSH1 0x20 ADD SWAP1 DUP2 MSTORE PUSH1 0x20 ADD PUSH1 0x0 KECCAK256 PUSH1 0x1 PUSH1 0x3 DUP2 LT PUSH2 0x309 JUMPI PUSH2 0x308 PUSH2 0xD62 JUMP JUMPDEST JUMPDEST ADD DUP2 SWAP1 SSTORE POP PUSH1 0x64 PUSH1 0x1 PUSH1 0x0 CALLER PUSH20 0xFFFFFFFFFFFFFFFFFFFFFFFFFFFFFFFFFFFFFFFF AND PUSH20 0xFFFFFFFFFFFFFFFFFFFFFFFFFFFFFFFFFFFFFFFF AND DUP2 MSTORE PUSH1 0x20 ADD SWAP1 DUP2 MSTORE PUSH1 0x20 ADD PUSH1 0x0 KECCAK256 PUSH1 0x2 PUSH1 0x3 DUP2 LT PUSH2 0x362 JUMPI PUSH2 0x361 PUSH2 0xD62 JUMP JUMPDEST JUMPDEST ADD DUP2 SWAP1 SSTORE POP DUP1 PUSH1 0x3 PUSH1 0x0 CALLER PUSH20 0xFFFFFFFFFFFFFFFFFFFFFFFFFFFFFFFFFFFFFFFF AND PUSH20 0xFFFFFFFFFFFFFFFFFFFFFFFFFFFFFFFFFFFFFFFF AND DUP2 MSTORE PUSH1 0x20 ADD SWAP1 DUP2 MSTORE PUSH1 0x20 ADD PUSH1 0x0 KECCAK256 SWAP1 DUP1 MLOAD SWAP1 PUSH1 0x20 ADD SWAP1 PUSH2 0x3BA SWAP3 SWAP2 SWAP1 PUSH2 0x701 JUMP JUMPDEST POP POP JUMP JUMPDEST PUSH1 0x1 PUSH1 0x20 MSTORE DUP2 PUSH1 0x0 MSTORE PUSH1 0x40 PUSH1 0x0 KECCAK256 DUP2 PUSH1 0x3 DUP2 LT PUSH2 0x3DA JUMPI PUSH1 0x0 DUP1 REVERT JUMPDEST ADD PUSH1 0x0 SWAP2 POP SWAP2 POP POP SLOAD DUP2 JUMP JUMPDEST PUSH1 0x1 ISZERO ISZERO PUSH1 0x2 PUSH1 0x0 DUP4 PUSH20 0xFFFFFFFFFFFFFFFFFFFFFFFFFFFFFFFFFFFFFFFF AND PUSH20 0xFFFFFFFFFFFFFFFFFFFFFFFFFFFFFFFFFFFFFFFF AND DUP2 MSTORE PUSH1 0x20 ADD SWAP1 DUP2 MSTORE PUSH1 0x20 ADD PUSH1 0x0 KECCAK256 PUSH1 0x0 SWAP1 SLOAD SWAP1 PUSH2 0x100 EXP SWAP1 DIV PUSH1 0xFF AND ISZERO ISZERO EQ PUSH2 0x443 JUMPI PUSH1 0x0 DUP1 REVERT JUMPDEST PUSH1 0x0 PUSH1 0x1 PUSH1 0x0 DUP4 PUSH20 0xFFFFFFFFFFFFFFFFFFFFFFFFFFFFFFFFFFFFFFFF AND PUSH20 0xFFFFFFFFFFFFFFFFFFFFFFFFFFFFFFFFFFFFFFFF AND DUP2 MSTORE PUSH1 0x20 ADD SWAP1 DUP2 MSTORE PUSH1 0x20 ADD PUSH1 0x0 KECCAK256 PUSH1 0x1 PUSH1 0x3 DUP2 LT PUSH2 0x497 JUMPI PUSH2 0x496 PUSH2 0xD62 JUMP JUMPDEST JUMPDEST ADD SLOAD PUSH1 0x1 PUSH1 0x0 CALLER PUSH20 0xFFFFFFFFFFFFFFFFFFFFFFFFFFFFFFFFFFFFFFFF AND PUSH20 0xFFFFFFFFFFFFFFFFFFFFFFFFFFFFFFFFFFFFFFFF AND DUP2 MSTORE PUSH1 0x20 ADD SWAP1 DUP2 MSTORE PUSH1 0x20 ADD PUSH1 0x0 KECCAK256 PUSH1 0x0 PUSH1 0x3 DUP2 LT PUSH2 0x4EB JUMPI PUSH2 0x4EA PUSH2 0xD62 JUMP JUMPDEST JUMPDEST ADD SLOAD PUSH2 0x4F7 SWAP2 SWAP1 PUSH2 0xB61 JUMP JUMPDEST SWAP1 POP PUSH1 0xA PUSH1 0x1 PUSH1 0x0 CALLER PUSH20 0xFFFFFFFFFFFFFFFFFFFFFFFFFFFFFFFFFFFFFFFF AND PUSH20 0xFFFFFFFFFFFFFFFFFFFFFFFFFFFFFFFFFFFFFFFF AND DUP2 MSTORE PUSH1 0x20 ADD SWAP1 DUP2 MSTORE PUSH1 0x20 ADD PUSH1 0x0 KECCAK256 PUSH1 0x0 PUSH1 0x3 DUP2 LT PUSH2 0x54D JUMPI PUSH2 0x54C PUSH2 0xD62 JUMP JUMPDEST JUMPDEST ADD PUSH1 0x0 DUP3 DUP3 SLOAD PUSH2 0x55D SWAP2 SWAP1 PUSH2 0xA80 JUMP JUMPDEST SWAP3 POP POP DUP2 SWAP1 SSTORE POP PUSH1 0xA PUSH1 0x1 PUSH1 0x0 DUP5 PUSH20 0xFFFFFFFFFFFFFFFFFFFFFFFFFFFFFFFFFFFFFFFF AND PUSH20 0xFFFFFFFFFFFFFFFFFFFFFFFFFFFFFFFFFFFFFFFF AND DUP2 MSTORE PUSH1 0x20 ADD SWAP1 DUP2 MSTORE PUSH1 0x20 ADD PUSH1 0x0 KECCAK256 PUSH1 0x1 PUSH1 0x3 DUP2 LT PUSH2 0x5B8 JUMPI PUSH2 0x5B7 PUSH2 0xD62 JUMP JUMPDEST JUMPDEST ADD PUSH1 0x0 DUP3 DUP3 SLOAD PUSH2 0x5C8 SWAP2 SWAP1 PUSH2 0xA80 JUMP JUMPDEST SWAP3 POP POP DUP2 SWAP1 SSTORE POP PUSH1 0x2 DUP2 PUSH2 0x5DC SWAP2 SWAP1 PUSH2 0xB07 JUMP JUMPDEST PUSH1 0x1 PUSH1 0x0 DUP5 PUSH20 0xFFFFFFFFFFFFFFFFFFFFFFFFFFFFFFFFFFFFFFFF AND PUSH20 0xFFFFFFFFFFFFFFFFFFFFFFFFFFFFFFFFFFFFFFFF AND DUP2 MSTORE PUSH1 0x20 ADD SWAP1 DUP2 MSTORE PUSH1 0x20 ADD PUSH1 0x0 KECCAK256 PUSH1 0x2 PUSH1 0x3 DUP2 LT PUSH2 0x62E JUMPI PUSH2 0x62D PUSH2 0xD62 JUMP JUMPDEST JUMPDEST ADD PUSH1 0x0 DUP3 DUP3 SLOAD PUSH2 0x63E SWAP2 SWAP1 PUSH2 0xA80 JUMP JUMPDEST SWAP3 POP POP DUP2 SWAP1 SSTORE POP PUSH1 0x2 DUP2 PUSH2 0x652 SWAP2 SWAP1 PUSH2 0xAD6 JUMP JUMPDEST PUSH1 0x1 PUSH1 0x0 CALLER PUSH20 0xFFFFFFFFFFFFFFFFFFFFFFFFFFFFFFFFFFFFFFFF AND PUSH20 0xFFFFFFFFFFFFFFFFFFFFFFFFFFFFFFFFFFFFFFFF AND DUP2 MSTORE PUSH1 0x20 ADD SWAP1 DUP2 MSTORE PUSH1 0x20 ADD PUSH1 0x0 KECCAK256 PUSH1 0x2 PUSH1 0x3 DUP2 LT PUSH2 0x6A4 JUMPI PUSH2 0x6A3 PUSH2 0xD62 JUMP JUMPDEST JUMPDEST ADD PUSH1 0x0 DUP3 DUP3 SLOAD PUSH2 0x6B4 SWAP2 SWAP1 PUSH2 0xA80 JUMP JUMPDEST SWAP3 POP POP DUP2 SWAP1 SSTORE POP POP POP JUMP JUMPDEST PUSH1 0x0 DUP2 TIMESTAMP DIFFICULTY CALLER PUSH1 0x40 MLOAD PUSH1 0x20 ADD PUSH2 0x6D7 SWAP4 SWAP3 SWAP2 SWAP1 PUSH2 0x979 JUMP JUMPDEST PUSH1 0x40 MLOAD PUSH1 0x20 DUP2 DUP4 SUB SUB DUP2 MSTORE SWAP1 PUSH1 0x40 MSTORE DUP1 MLOAD SWAP1 PUSH1 0x20 ADD KECCAK256 PUSH1 0x0 SHR PUSH2 0x6FA SWAP2 SWAP1 PUSH2 0xCA4 JUMP JUMPDEST SWAP1 POP SWAP2 SWAP1 POP JUMP JUMPDEST DUP3 DUP1 SLOAD PUSH2 0x70D SWAP1 PUSH2 0xC13 JUMP JUMPDEST SWAP1 PUSH1 0x0 MSTORE PUSH1 0x20 PUSH1 0x0 KECCAK256 SWAP1 PUSH1 0x1F ADD PUSH1 0x20 SWAP1 DIV DUP2 ADD SWAP3 DUP3 PUSH2 0x72F JUMPI PUSH1 0x0 DUP6 SSTORE PUSH2 0x776 JUMP JUMPDEST DUP3 PUSH1 0x1F LT PUSH2 0x748 JUMPI DUP1 MLOAD PUSH1 0xFF NOT AND DUP4 DUP1 ADD OR DUP6 SSTORE PUSH2 0x776 JUMP JUMPDEST DUP3 DUP1 ADD PUSH1 0x1 ADD DUP6 SSTORE DUP3 ISZERO PUSH2 0x776 JUMPI SWAP2 DUP3 ADD JUMPDEST DUP3 DUP2 GT ISZERO PUSH2 0x775 JUMPI DUP3 MLOAD DUP3 SSTORE SWAP2 PUSH1 0x20 ADD SWAP2 SWAP1 PUSH1 0x1 ADD SWAP1 PUSH2 0x75A JUMP JUMPDEST JUMPDEST POP SWAP1 POP PUSH2 0x783 SWAP2 SWAP1 PUSH2 0x787 JUMP JUMPDEST POP SWAP1 JUMP JUMPDEST JUMPDEST DUP1 DUP3 GT ISZERO PUSH2 0x7A0 JUMPI PUSH1 0x0 DUP2 PUSH1 0x0 SWAP1 SSTORE POP PUSH1 0x1 ADD PUSH2 0x788 JUMP JUMPDEST POP SWAP1 JUMP JUMPDEST PUSH1 0x0 PUSH2 0x7B7 PUSH2 0x7B2 DUP5 PUSH2 0xA33 JUMP JUMPDEST PUSH2 0xA0E JUMP JUMPDEST SWAP1 POP DUP3 DUP2 MSTORE PUSH1 0x20 DUP2 ADD DUP5 DUP5 DUP5 ADD GT ISZERO PUSH2 0x7D3 JUMPI PUSH2 0x7D2 PUSH2 0xDC5 JUMP JUMPDEST JUMPDEST PUSH2 0x7DE DUP5 DUP3 DUP6 PUSH2 0xBD1 JUMP JUMPDEST POP SWAP4 SWAP3 POP POP POP JUMP JUMPDEST PUSH1 0x0 DUP2 CALLDATALOAD SWAP1 POP PUSH2 0x7F5 DUP2 PUSH2 0xDF2 JUMP JUMPDEST SWAP3 SWAP2 POP POP JUMP JUMPDEST PUSH1 0x0 DUP3 PUSH1 0x1F DUP4 ADD SLT PUSH2 0x810 JUMPI PUSH2 0x80F PUSH2 0xDC0 JUMP JUMPDEST JUMPDEST DUP2 CALLDATALOAD PUSH2 0x820 DUP5 DUP3 PUSH1 0x20 DUP7 ADD PUSH2 0x7A4 JUMP JUMPDEST SWAP2 POP POP SWAP3 SWAP2 POP POP JUMP JUMPDEST PUSH1 0x0 DUP2 CALLDATALOAD SWAP1 POP PUSH2 0x838 DUP2 PUSH2 0xE09 JUMP JUMPDEST SWAP3 SWAP2 POP POP JUMP JUMPDEST PUSH1 0x0 PUSH1 0x20 DUP3 DUP5 SUB SLT ISZERO PUSH2 0x854 JUMPI PUSH2 0x853 PUSH2 0xDCF JUMP JUMPDEST JUMPDEST PUSH1 0x0 PUSH2 0x862 DUP5 DUP3 DUP6 ADD PUSH2 0x7E6 JUMP JUMPDEST SWAP2 POP POP SWAP3 SWAP2 POP POP JUMP JUMPDEST PUSH1 0x0 DUP1 PUSH1 0x40 DUP4 DUP6 SUB SLT ISZERO PUSH2 0x882 JUMPI PUSH2 0x881 PUSH2 0xDCF JUMP JUMPDEST JUMPDEST PUSH1 0x0 PUSH2 0x890 DUP6 DUP3 DUP7 ADD PUSH2 0x7E6 JUMP JUMPDEST SWAP3 POP POP PUSH1 0x20 PUSH2 0x8A1 DUP6 DUP3 DUP7 ADD PUSH2 0x829 JUMP JUMPDEST SWAP2 POP POP SWAP3 POP SWAP3 SWAP1 POP JUMP JUMPDEST PUSH1 0x0 PUSH1 0x20 DUP3 DUP5 SUB SLT ISZERO PUSH2 0x8C1 JUMPI PUSH2 0x8C0 PUSH2 0xDCF JUMP JUMPDEST JUMPDEST PUSH1 0x0 DUP3 ADD CALLDATALOAD PUSH8 0xFFFFFFFFFFFFFFFF DUP2 GT ISZERO PUSH2 0x8DF JUMPI PUSH2 0x8DE PUSH2 0xDCA JUMP JUMPDEST JUMPDEST PUSH2 0x8EB DUP5 DUP3 DUP6 ADD PUSH2 0x7FB JUMP JUMPDEST SWAP2 POP POP SWAP3 SWAP2 POP POP JUMP JUMPDEST PUSH2 0x8FD DUP2 PUSH2 0xB95 JUMP JUMPDEST DUP3 MSTORE POP POP JUMP JUMPDEST PUSH2 0x914 PUSH2 0x90F DUP3 PUSH2 0xB95 JUMP JUMPDEST PUSH2 0xC76 JUMP JUMPDEST DUP3 MSTORE POP POP JUMP JUMPDEST PUSH1 0x0 PUSH2 0x925 DUP3 PUSH2 0xA64 JUMP JUMPDEST PUSH2 0x92F DUP2 DUP6 PUSH2 0xA6F JUMP JUMPDEST SWAP4 POP PUSH2 0x93F DUP2 DUP6 PUSH1 0x20 DUP7 ADD PUSH2 0xBE0 JUMP JUMPDEST PUSH2 0x948 DUP2 PUSH2 0xDD4 JUMP JUMPDEST DUP5 ADD SWAP2 POP POP SWAP3 SWAP2 POP POP JUMP JUMPDEST PUSH2 0x95C DUP2 PUSH2 0xBC7 JUMP JUMPDEST DUP3 MSTORE POP POP JUMP JUMPDEST PUSH2 0x973 PUSH2 0x96E DUP3 PUSH2 0xBC7 JUMP JUMPDEST PUSH2 0xC9A JUMP JUMPDEST DUP3 MSTORE POP POP JUMP JUMPDEST PUSH1 0x0 PUSH2 0x985 DUP3 DUP7 PUSH2 0x962 JUMP JUMPDEST PUSH1 0x20 DUP3 ADD SWAP2 POP PUSH2 0x995 DUP3 DUP6 PUSH2 0x962 JUMP JUMPDEST PUSH1 0x20 DUP3 ADD SWAP2 POP PUSH2 0x9A5 DUP3 DUP5 PUSH2 0x903 JUMP JUMPDEST PUSH1 0x14 DUP3 ADD SWAP2 POP DUP2 SWAP1 POP SWAP5 SWAP4 POP POP POP POP JUMP JUMPDEST PUSH1 0x0 PUSH1 0x20 DUP3 ADD SWAP1 POP PUSH2 0x9CB PUSH1 0x0 DUP4 ADD DUP5 PUSH2 0x8F4 JUMP JUMPDEST SWAP3 SWAP2 POP POP JUMP JUMPDEST PUSH1 0x0 PUSH1 0x20 DUP3 ADD SWAP1 POP DUP2 DUP2 SUB PUSH1 0x0 DUP4 ADD MSTORE PUSH2 0x9EB DUP2 DUP5 PUSH2 0x91A JUMP JUMPDEST SWAP1 POP SWAP3 SWAP2 POP POP JUMP JUMPDEST PUSH1 0x0 PUSH1 0x20 DUP3 ADD SWAP1 POP PUSH2 0xA08 PUSH1 0x0 DUP4 ADD DUP5 PUSH2 0x953 JUMP JUMPDEST SWAP3 SWAP2 POP POP JUMP JUMPDEST PUSH1 0x0 PUSH2 0xA18 PUSH2 0xA29 JUMP JUMPDEST SWAP1 POP PUSH2 0xA24 DUP3 DUP3 PUSH2 0xC45 JUMP JUMPDEST SWAP2 SWAP1 POP JUMP JUMPDEST PUSH1 0x0 PUSH1 0x40 MLOAD SWAP1 POP SWAP1 JUMP JUMPDEST PUSH1 0x0 PUSH8 0xFFFFFFFFFFFFFFFF DUP3 GT ISZERO PUSH2 0xA4E JUMPI PUSH2 0xA4D PUSH2 0xD91 JUMP JUMPDEST JUMPDEST PUSH2 0xA57 DUP3 PUSH2 0xDD4 JUMP JUMPDEST SWAP1 POP PUSH1 0x20 DUP2 ADD SWAP1 POP SWAP2 SWAP1 POP JUMP JUMPDEST PUSH1 0x0 DUP2 MLOAD SWAP1 POP SWAP2 SWAP1 POP JUMP JUMPDEST PUSH1 0x0 DUP3 DUP3 MSTORE PUSH1 0x20 DUP3 ADD SWAP1 POP SWAP3 SWAP2 POP POP JUMP JUMPDEST PUSH1 0x0 PUSH2 0xA8B DUP3 PUSH2 0xBC7 JUMP JUMPDEST SWAP2 POP PUSH2 0xA96 DUP4 PUSH2 0xBC7 JUMP JUMPDEST SWAP3 POP DUP3 PUSH32 0xFFFFFFFFFFFFFFFFFFFFFFFFFFFFFFFFFFFFFFFFFFFFFFFFFFFFFFFFFFFFFFFF SUB DUP3 GT ISZERO PUSH2 0xACB JUMPI PUSH2 0xACA PUSH2 0xCD5 JUMP JUMPDEST JUMPDEST DUP3 DUP3 ADD SWAP1 POP SWAP3 SWAP2 POP POP JUMP JUMPDEST PUSH1 0x0 PUSH2 0xAE1 DUP3 PUSH2 0xBC7 JUMP JUMPDEST SWAP2 POP PUSH2 0xAEC DUP4 PUSH2 0xBC7 JUMP JUMPDEST SWAP3 POP DUP3 PUSH2 0xAFC JUMPI PUSH2 0xAFB PUSH2 0xD04 JUMP JUMPDEST JUMPDEST DUP3 DUP3 DIV SWAP1 POP SWAP3 SWAP2 POP POP JUMP JUMPDEST PUSH1 0x0 PUSH2 0xB12 DUP3 PUSH2 0xBC7 JUMP JUMPDEST SWAP2 POP PUSH2 0xB1D DUP4 PUSH2 0xBC7 JUMP JUMPDEST SWAP3 POP DUP2 PUSH32 0xFFFFFFFFFFFFFFFFFFFFFFFFFFFFFFFFFFFFFFFFFFFFFFFFFFFFFFFFFFFFFFFF DIV DUP4 GT DUP3 ISZERO ISZERO AND ISZERO PUSH2 0xB56 JUMPI PUSH2 0xB55 PUSH2 0xCD5 JUMP JUMPDEST JUMPDEST DUP3 DUP3 MUL SWAP1 POP SWAP3 SWAP2 POP POP JUMP JUMPDEST PUSH1 0x0 PUSH2 0xB6C DUP3 PUSH2 0xBC7 JUMP JUMPDEST SWAP2 POP PUSH2 0xB77 DUP4 PUSH2 0xBC7 JUMP JUMPDEST SWAP3 POP DUP3 DUP3 LT ISZERO PUSH2 0xB8A JUMPI PUSH2 0xB89 PUSH2 0xCD5 JUMP JUMPDEST JUMPDEST DUP3 DUP3 SUB SWAP1 POP SWAP3 SWAP2 POP POP JUMP JUMPDEST PUSH1 0x0 PUSH2 0xBA0 DUP3 PUSH2 0xBA7 JUMP JUMPDEST SWAP1 POP SWAP2 SWAP1 POP JUMP JUMPDEST PUSH1 0x0 PUSH20 0xFFFFFFFFFFFFFFFFFFFFFFFFFFFFFFFFFFFFFFFF DUP3 AND SWAP1 POP SWAP2 SWAP1 POP JUMP JUMPDEST PUSH1 0x0 DUP2 SWAP1 POP SWAP2 SWAP1 POP JUMP JUMPDEST DUP3 DUP2 DUP4 CALLDATACOPY PUSH1 0x0 DUP4 DUP4 ADD MSTORE POP POP POP JUMP JUMPDEST PUSH1 0x0 JUMPDEST DUP4 DUP2 LT ISZERO PUSH2 0xBFE JUMPI DUP1 DUP3 ADD MLOAD DUP2 DUP5 ADD MSTORE PUSH1 0x20 DUP2 ADD SWAP1 POP PUSH2 0xBE3 JUMP JUMPDEST DUP4 DUP2 GT ISZERO PUSH2 0xC0D JUMPI PUSH1 0x0 DUP5 DUP5 ADD MSTORE JUMPDEST POP POP POP POP JUMP JUMPDEST PUSH1 0x0 PUSH1 0x2 DUP3 DIV SWAP1 POP PUSH1 0x1 DUP3 AND DUP1 PUSH2 0xC2B JUMPI PUSH1 0x7F DUP3 AND SWAP2 POP JUMPDEST PUSH1 0x20 DUP3 LT DUP2 EQ ISZERO PUSH2 0xC3F JUMPI PUSH2 0xC3E PUSH2 0xD33 JUMP JUMPDEST JUMPDEST POP SWAP2 SWAP1 POP JUMP JUMPDEST PUSH2 0xC4E DUP3 PUSH2 0xDD4 JUMP JUMPDEST DUP2 ADD DUP2 DUP2 LT PUSH8 0xFFFFFFFFFFFFFFFF DUP3 GT OR ISZERO PUSH2 0xC6D JUMPI PUSH2 0xC6C PUSH2 0xD91 JUMP JUMPDEST JUMPDEST DUP1 PUSH1 0x40 MSTORE POP POP POP JUMP JUMPDEST PUSH1 0x0 PUSH2 0xC81 DUP3 PUSH2 0xC88 JUMP JUMPDEST SWAP1 POP SWAP2 SWAP1 POP JUMP JUMPDEST PUSH1 0x0 PUSH2 0xC93 DUP3 PUSH2 0xDE5 JUMP JUMPDEST SWAP1 POP SWAP2 SWAP1 POP JUMP JUMPDEST PUSH1 0x0 DUP2 SWAP1 POP SWAP2 SWAP1 POP JUMP JUMPDEST PUSH1 0x0 PUSH2 0xCAF DUP3 PUSH2 0xBC7 JUMP JUMPDEST SWAP2 POP PUSH2 0xCBA DUP4 PUSH2 0xBC7 JUMP JUMPDEST SWAP3 POP DUP3 PUSH2 0xCCA JUMPI PUSH2 0xCC9 PUSH2 0xD04 JUMP JUMPDEST JUMPDEST DUP3 DUP3 MOD SWAP1 POP SWAP3 SWAP2 POP POP JUMP JUMPDEST PUSH32 0x4E487B7100000000000000000000000000000000000000000000000000000000 PUSH1 0x0 MSTORE PUSH1 0x11 PUSH1 0x4 MSTORE PUSH1 0x24 PUSH1 0x0 REVERT JUMPDEST PUSH32 0x4E487B7100000000000000000000000000000000000000000000000000000000 PUSH1 0x0 MSTORE PUSH1 0x12 PUSH1 0x4 MSTORE PUSH1 0x24 PUSH1 0x0 REVERT JUMPDEST PUSH32 0x4E487B7100000000000000000000000000000000000000000000000000000000 PUSH1 0x0 MSTORE PUSH1 0x22 PUSH1 0x4 MSTORE PUSH1 0x24 PUSH1 0x0 REVERT JUMPDEST PUSH32 0x4E487B7100000000000000000000000000000000000000000000000000000000 PUSH1 0x0 MSTORE PUSH1 0x32 PUSH1 0x4 MSTORE PUSH1 0x24 PUSH1 0x0 REVERT JUMPDEST PUSH32 0x4E487B7100000000000000000000000000000000000000000000000000000000 PUSH1 0x0 MSTORE PUSH1 0x41 PUSH1 0x4 MSTORE PUSH1 0x24 PUSH1 0x0 REVERT JUMPDEST PUSH1 0x0 DUP1 REVERT JUMPDEST PUSH1 0x0 DUP1 REVERT JUMPDEST PUSH1 0x0 DUP1 REVERT JUMPDEST PUSH1 0x0 DUP1 REVERT JUMPDEST PUSH1 0x0 PUSH1 0x1F NOT PUSH1 0x1F DUP4 ADD AND SWAP1 POP SWAP2 SWAP1 POP JUMP JUMPDEST PUSH1 0x0 DUP2 PUSH1 0x60 SHL SWAP1 POP SWAP2 SWAP1 POP JUMP JUMPDEST PUSH2 0xDFB DUP2 PUSH2 0xB95 JUMP JUMPDEST DUP2 EQ PUSH2 0xE06 JUMPI PUSH1 0x0 DUP1 REVERT JUMPDEST POP JUMP JUMPDEST PUSH2 0xE12 DUP2 PUSH2 0xBC7 JUMP JUMPDEST DUP2 EQ PUSH2 0xE1D JUMPI PUSH1 0x0 DUP1 REVERT JUMPDEST POP JUMP INVALID LOG2 PUSH5 0x6970667358 0x22 SLT KECCAK256 0x27 SWAP5 PUSH17 0x22C1FAF2C723B828EB28E5AA0E2591B644 0xFB 0xC 0xDE JUMPDEST 0xBF 0xA6 PUSH9 0x4C11AFC2D164736F6C PUSH4 0x43000807 STOP CALLER "
				},
				"gasEstimates": {
					"creation": {
						"codeDepositCost": "734000",
						"executionCost": "infinite",
						"totalCost": "infinite"
					},
					"external": {
						"Attack(address)": "infinite",
						"Stats(address,uint256)": "infinite",
						"join(string)": "infinite",
						"minter()": "2489",
						"names(address)": "infinite"
					},
					"internal": {
						"random(uint256)": "infinite"
					}
				},
				"methodIdentifiers": {
					"Attack(address)": "bc346c9c",
					"Stats(address,uint256)": "abf5f2ed",
					"join(string)": "6a786b07",
					"minter()": "07546172",
					"names(address)": "5cf3d346"
				}
			},
			"storageLayout": {
				"storage": [
					{
						"astId": 3,
						"contract": "AttackGame.sol:AttackGame",
						"label": "minter",
						"offset": 0,
						"slot": "0",
						"type": "t_address"
					},
					{
						"astId": 9,
						"contract": "AttackGame.sol:AttackGame",
						"label": "Stats",
						"offset": 0,
						"slot": "1",
						"type": "t_mapping(t_address,t_array(t_uint256)3_storage)"
					},
					{
						"astId": 13,
						"contract": "AttackGame.sol:AttackGame",
						"label": "joined",
						"offset": 0,
						"slot": "2",
						"type": "t_mapping(t_address,t_bool)"
					},
					{
						"astId": 17,
						"contract": "AttackGame.sol:AttackGame",
						"label": "names",
						"offset": 0,
						"slot": "3",
						"type": "t_mapping(t_address,t_string_storage)"
					},
					{
						"astId": 24,
						"contract": "AttackGame.sol:AttackGame",
						"label": "StatsInfo",
						"offset": 0,
						"slot": "4",
						"type": "t_array(t_string_storage)dyn_storage"
					}
				],
				"types": {
					"t_address": {
						"encoding": "inplace",
						"label": "address",
						"numberOfBytes": "20"
					},
					"t_array(t_string_storage)dyn_storage": {
						"base": "t_string_storage",
						"encoding": "dynamic_array",
						"label": "string[]",
						"numberOfBytes": "32"
					},
					"t_array(t_uint256)3_storage": {
						"base": "t_uint256",
						"encoding": "inplace",
						"label": "uint256[3]",
						"numberOfBytes": "96"
					},
					"t_bool": {
						"encoding": "inplace",
						"label": "bool",
						"numberOfBytes": "1"
					},
					"t_mapping(t_address,t_array(t_uint256)3_storage)": {
						"encoding": "mapping",
						"key": "t_address",
						"label": "mapping(address => uint256[3])",
						"numberOfBytes": "32",
						"value": "t_array(t_uint256)3_storage"
					},
					"t_mapping(t_address,t_bool)": {
						"encoding": "mapping",
						"key": "t_address",
						"label": "mapping(address => bool)",
						"numberOfBytes": "32",
						"value": "t_bool"
					},
					"t_mapping(t_address,t_string_storage)": {
						"encoding": "mapping",
						"key": "t_address",
						"label": "mapping(address => string)",
						"numberOfBytes": "32",
						"value": "t_string_storage"
					},
					"t_string_storage": {
						"encoding": "bytes",
						"label": "string",
						"numberOfBytes": "32"
					},
					"t_uint256": {
						"encoding": "inplace",
						"label": "uint256",
						"numberOfBytes": "32"
					}
				}
			},
			"userdoc": {
				"kind": "user",
				"methods": {},
				"version": 1
			}
		}
	}
}