{
	"data": {
		"bytecode": {
			"linkReferences": {},
			"object": "608060405260006001553480156200001657600080fd5b5060405162000dd738038062000dd783398181016040528101906200003c9190620001e0565b336000806101000a81548173ffffffffffffffffffffffffffffffffffffffff021916908373ffffffffffffffffffffffffffffffffffffffff16021790555060005b8151811015620001135760036040518060400160405280848481518110620000ac57620000ab62000350565b5b60200260200101518152602001600081525090806001815401808255809150506001900390600052602060002090600202016000909190919091506000820151816000015560208201518160010155505080806200010a90620002d3565b9150506200007f565b5050620003ed565b6000620001326200012c846200025a565b62000231565b90508083825260208201905082856020860282011115620001585762000157620003b3565b5b60005b858110156200018c5781620001718882620001c9565b8452602084019350602083019250506001810190506200015b565b5050509392505050565b600082601f830112620001ae57620001ad620003ae565b5b8151620001c08482602086016200011b565b91505092915050565b600081519050620001da81620003d3565b92915050565b600060208284031215620001f957620001f8620003bd565b5b600082015167ffffffffffffffff8111156200021a5762000219620003b8565b5b620002288482850162000196565b91505092915050565b60006200023d62000250565b90506200024b82826200029d565b919050565b6000604051905090565b600067ffffffffffffffff8211156200027857620002776200037f565b5b602082029050602081019050919050565b6000819050919050565b6000819050919050565b620002a882620003c2565b810181811067ffffffffffffffff82111715620002ca57620002c96200037f565b5b80604052505050565b6000620002e08262000293565b91507fffffffffffffffffffffffffffffffffffffffffffffffffffffffffffffffff82141562000316576200031562000321565b5b600182019050919050565b7f4e487b7100000000000000000000000000000000000000000000000000000000600052601160045260246000fd5b7f4e487b7100000000000000000000000000000000000000000000000000000000600052603260045260246000fd5b7f4e487b7100000000000000000000000000000000000000000000000000000000600052604160045260246000fd5b600080fd5b600080fd5b600080fd5b600080fd5b6000601f19601f8301169050919050565b620003de8162000289565b8114620003ea57600080fd5b50565b6109da80620003fd6000396000f3fe608060405234801561001057600080fd5b506004361061007d5760003560e01c80632e4176cf1161005b5780632e4176cf146100ed578063609ff1bd1461010b5780639e7b8d6114610129578063a3ec138d146101455761007d565b80630121b93f14610082578063013cf08b1461009e5780632bfda515146100cf575b600080fd5b61009c6004803603810190610097919061059b565b610176565b005b6100b860048036038101906100b3919061059b565b610272565b6040516100c69291906106cc565b60405180910390f35b6100d76102a6565b6040516100e491906106b1565b60405180910390f35b6100f56102ee565b604051610102919061066d565b60405180910390f35b610113610312565b6040516101209190610755565b60405180910390f35b610143600480360381019061013e919061056e565b6103f2565b005b61015f600480360381019061015a919061056e565b610513565b60405161016d929190610688565b60405180910390f35b6000600260003373ffffffffffffffffffffffffffffffffffffffff1673ffffffffffffffffffffffffffffffffffffffff16815260200190815260200160002090508060000160009054906101000a900460ff161561020b576040517f08c379a0000000000000000000000000000000000000000000000000000000008152600401610202906106f5565b60405180910390fd5b60018160000160006101000a81548160ff021916908315150217905550818160010181905550600160038381548110610247576102466108a1565b5b906000526020600020906002020160010160008282546102679190610781565b925050819055505050565b6003818154811061028257600080fd5b90600052602060002090600202016000915090508060000154908060010154905082565b600080600154146102bb5760015490506102eb565b60036102c5610312565b815481106102d6576102d56108a1565b5b90600052602060002090600202016000015490505b90565b60008054906101000a900473ffffffffffffffffffffffffffffffffffffffff1681565b6000806000905060005b600380549050811015610392576003838154811061033d5761033c6108a1565b5b90600052602060002090600202016001015460038281548110610363576103626108a1565b5b906000526020600020906002020160010154111561037f578092505b808061038a90610829565b91505061031c565b50600382815481106103a7576103a66108a1565b5b906000526020600020906002020160010154905060036103c5610312565b815481106103d6576103d56108a1565b5b9060005260206000209060020201600001546001819055505090565b60008054906101000a900473ffffffffffffffffffffffffffffffffffffffff1673ffffffffffffffffffffffffffffffffffffffff163373ffffffffffffffffffffffffffffffffffffffff1614610480576040517f08c379a000000000000000000000000000000000000000000000000000000000815260040161047790610715565b60405180910390fd5b600260008273ffffffffffffffffffffffffffffffffffffffff1673ffffffffffffffffffffffffffffffffffffffff16815260200190815260200160002060000160009054906101000a900460ff1615610510576040517f08c379a000000000000000000000000000000000000000000000000000000000815260040161050790610735565b60405180910390fd5b50565b60026020528060005260406000206000915090508060000160009054906101000a900460ff16908060010154905082565b60008135905061055381610976565b92915050565b6000813590506105688161098d565b92915050565b600060208284031215610584576105836108d0565b5b600061059284828501610544565b91505092915050565b6000602082840312156105b1576105b06108d0565b5b60006105bf84828501610559565b91505092915050565b6105d1816107d7565b82525050565b6105e0816107e9565b82525050565b6105ef816107f5565b82525050565b6000610602600e83610770565b915061060d826108d5565b602082019050919050565b6000610625602883610770565b9150610630826108fe565b604082019050919050565b6000610648601883610770565b91506106538261094d565b602082019050919050565b6106678161081f565b82525050565b600060208201905061068260008301846105c8565b92915050565b600060408201905061069d60008301856105d7565b6106aa602083018461065e565b9392505050565b60006020820190506106c660008301846105e6565b92915050565b60006040820190506106e160008301856105e6565b6106ee602083018461065e565b9392505050565b6000602082019050818103600083015261070e816105f5565b9050919050565b6000602082019050818103600083015261072e81610618565b9050919050565b6000602082019050818103600083015261074e8161063b565b9050919050565b600060208201905061076a600083018461065e565b92915050565b600082825260208201905092915050565b600061078c8261081f565b91506107978361081f565b9250827fffffffffffffffffffffffffffffffffffffffffffffffffffffffffffffffff038211156107cc576107cb610872565b5b828201905092915050565b60006107e2826107ff565b9050919050565b60008115159050919050565b6000819050919050565b600073ffffffffffffffffffffffffffffffffffffffff82169050919050565b6000819050919050565b60006108348261081f565b91507fffffffffffffffffffffffffffffffffffffffffffffffffffffffffffffffff82141561086757610866610872565b5b600182019050919050565b7f4e487b7100000000000000000000000000000000000000000000000000000000600052601160045260246000fd5b7f4e487b7100000000000000000000000000000000000000000000000000000000600052603260045260246000fd5b600080fd5b7f416c726561647920766f7465642e000000000000000000000000000000000000600082015250565b7f4f6e6c79206368616972706572736f6e2063616e20676976652072696768742060008201527f746f20766f74652e000000000000000000000000000000000000000000000000602082015250565b7f54686520766f74657220616c726561647920766f7465642e0000000000000000600082015250565b61097f816107d7565b811461098a57600080fd5b50565b6109968161081f565b81146109a157600080fd5b5056fea26469706673582212202f6d24c7ca05dcca9546388655663ae8272702aa9e3114973f1be33ffa238afa64736f6c63430008070033",
			"opcodes": "PUSH1 0x80 PUSH1 0x40 MSTORE PUSH1 0x0 PUSH1 0x1 SSTORE CALLVALUE DUP1 ISZERO PUSH3 0x16 JUMPI PUSH1 0x0 DUP1 REVERT JUMPDEST POP PUSH1 0x40 MLOAD PUSH3 0xDD7 CODESIZE SUB DUP1 PUSH3 0xDD7 DUP4 CODECOPY DUP2 DUP2 ADD PUSH1 0x40 MSTORE DUP2 ADD SWAP1 PUSH3 0x3C SWAP2 SWAP1 PUSH3 0x1E0 JUMP JUMPDEST CALLER PUSH1 0x0 DUP1 PUSH2 0x100 EXP DUP2 SLOAD DUP2 PUSH20 0xFFFFFFFFFFFFFFFFFFFFFFFFFFFFFFFFFFFFFFFF MUL NOT AND SWAP1 DUP4 PUSH20 0xFFFFFFFFFFFFFFFFFFFFFFFFFFFFFFFFFFFFFFFF AND MUL OR SWAP1 SSTORE POP PUSH1 0x0 JUMPDEST DUP2 MLOAD DUP2 LT ISZERO PUSH3 0x113 JUMPI PUSH1 0x3 PUSH1 0x40 MLOAD DUP1 PUSH1 0x40 ADD PUSH1 0x40 MSTORE DUP1 DUP5 DUP5 DUP2 MLOAD DUP2 LT PUSH3 0xAC JUMPI PUSH3 0xAB PUSH3 0x350 JUMP JUMPDEST JUMPDEST PUSH1 0x20 MUL PUSH1 0x20 ADD ADD MLOAD DUP2 MSTORE PUSH1 0x20 ADD PUSH1 0x0 DUP2 MSTORE POP SWAP1 DUP1 PUSH1 0x1 DUP2 SLOAD ADD DUP1 DUP3 SSTORE DUP1 SWAP2 POP POP PUSH1 0x1 SWAP1 SUB SWAP1 PUSH1 0x0 MSTORE PUSH1 0x20 PUSH1 0x0 KECCAK256 SWAP1 PUSH1 0x2 MUL ADD PUSH1 0x0 SWAP1 SWAP2 SWAP1 SWAP2 SWAP1 SWAP2 POP PUSH1 0x0 DUP3 ADD MLOAD DUP2 PUSH1 0x0 ADD SSTORE PUSH1 0x20 DUP3 ADD MLOAD DUP2 PUSH1 0x1 ADD SSTORE POP POP DUP1 DUP1 PUSH3 0x10A SWAP1 PUSH3 0x2D3 JUMP JUMPDEST SWAP2 POP POP PUSH3 0x7F JUMP JUMPDEST POP POP PUSH3 0x3ED JUMP JUMPDEST PUSH1 0x0 PUSH3 0x132 PUSH3 0x12C DUP5 PUSH3 0x25A JUMP JUMPDEST PUSH3 0x231 JUMP JUMPDEST SWAP1 POP DUP1 DUP4 DUP3 MSTORE PUSH1 0x20 DUP3 ADD SWAP1 POP DUP3 DUP6 PUSH1 0x20 DUP7 MUL DUP3 ADD GT ISZERO PUSH3 0x158 JUMPI PUSH3 0x157 PUSH3 0x3B3 JUMP JUMPDEST JUMPDEST PUSH1 0x0 JUMPDEST DUP6 DUP2 LT ISZERO PUSH3 0x18C JUMPI DUP2 PUSH3 0x171 DUP9 DUP3 PUSH3 0x1C9 JUMP JUMPDEST DUP5 MSTORE PUSH1 0x20 DUP5 ADD SWAP4 POP PUSH1 0x20 DUP4 ADD SWAP3 POP POP PUSH1 0x1 DUP2 ADD SWAP1 POP PUSH3 0x15B JUMP JUMPDEST POP POP POP SWAP4 SWAP3 POP POP POP JUMP JUMPDEST PUSH1 0x0 DUP3 PUSH1 0x1F DUP4 ADD SLT PUSH3 0x1AE JUMPI PUSH3 0x1AD PUSH3 0x3AE JUMP JUMPDEST JUMPDEST DUP2 MLOAD PUSH3 0x1C0 DUP5 DUP3 PUSH1 0x20 DUP7 ADD PUSH3 0x11B JUMP JUMPDEST SWAP2 POP POP SWAP3 SWAP2 POP POP JUMP JUMPDEST PUSH1 0x0 DUP2 MLOAD SWAP1 POP PUSH3 0x1DA DUP2 PUSH3 0x3D3 JUMP JUMPDEST SWAP3 SWAP2 POP POP JUMP JUMPDEST PUSH1 0x0 PUSH1 0x20 DUP3 DUP5 SUB SLT ISZERO PUSH3 0x1F9 JUMPI PUSH3 0x1F8 PUSH3 0x3BD JUMP JUMPDEST JUMPDEST PUSH1 0x0 DUP3 ADD MLOAD PUSH8 0xFFFFFFFFFFFFFFFF DUP2 GT ISZERO PUSH3 0x21A JUMPI PUSH3 0x219 PUSH3 0x3B8 JUMP JUMPDEST JUMPDEST PUSH3 0x228 DUP5 DUP3 DUP6 ADD PUSH3 0x196 JUMP JUMPDEST SWAP2 POP POP SWAP3 SWAP2 POP POP JUMP JUMPDEST PUSH1 0x0 PUSH3 0x23D PUSH3 0x250 JUMP JUMPDEST SWAP1 POP PUSH3 0x24B DUP3 DUP3 PUSH3 0x29D JUMP JUMPDEST SWAP2 SWAP1 POP JUMP JUMPDEST PUSH1 0x0 PUSH1 0x40 MLOAD SWAP1 POP SWAP1 JUMP JUMPDEST PUSH1 0x0 PUSH8 0xFFFFFFFFFFFFFFFF DUP3 GT ISZERO PUSH3 0x278 JUMPI PUSH3 0x277 PUSH3 0x37F JUMP JUMPDEST JUMPDEST PUSH1 0x20 DUP3 MUL SWAP1 POP PUSH1 0x20 DUP2 ADD SWAP1 POP SWAP2 SWAP1 POP JUMP JUMPDEST PUSH1 0x0 DUP2 SWAP1 POP SWAP2 SWAP1 POP JUMP JUMPDEST PUSH1 0x0 DUP2 SWAP1 POP SWAP2 SWAP1 POP JUMP JUMPDEST PUSH3 0x2A8 DUP3 PUSH3 0x3C2 JUMP JUMPDEST DUP2 ADD DUP2 DUP2 LT PUSH8 0xFFFFFFFFFFFFFFFF DUP3 GT OR ISZERO PUSH3 0x2CA JUMPI PUSH3 0x2C9 PUSH3 0x37F JUMP JUMPDEST JUMPDEST DUP1 PUSH1 0x40 MSTORE POP POP POP JUMP JUMPDEST PUSH1 0x0 PUSH3 0x2E0 DUP3 PUSH3 0x293 JUMP JUMPDEST SWAP2 POP PUSH32 0xFFFFFFFFFFFFFFFFFFFFFFFFFFFFFFFFFFFFFFFFFFFFFFFFFFFFFFFFFFFFFFFF DUP3 EQ ISZERO PUSH3 0x316 JUMPI PUSH3 0x315 PUSH3 0x321 JUMP JUMPDEST JUMPDEST PUSH1 0x1 DUP3 ADD SWAP1 POP SWAP2 SWAP1 POP JUMP JUMPDEST PUSH32 0x4E487B7100000000000000000000000000000000000000000000000000000000 PUSH1 0x0 MSTORE PUSH1 0x11 PUSH1 0x4 MSTORE PUSH1 0x24 PUSH1 0x0 REVERT JUMPDEST PUSH32 0x4E487B7100000000000000000000000000000000000000000000000000000000 PUSH1 0x0 MSTORE PUSH1 0x32 PUSH1 0x4 MSTORE PUSH1 0x24 PUSH1 0x0 REVERT JUMPDEST PUSH32 0x4E487B7100000000000000000000000000000000000000000000000000000000 PUSH1 0x0 MSTORE PUSH1 0x41 PUSH1 0x4 MSTORE PUSH1 0x24 PUSH1 0x0 REVERT JUMPDEST PUSH1 0x0 DUP1 REVERT JUMPDEST PUSH1 0x0 DUP1 REVERT JUMPDEST PUSH1 0x0 DUP1 REVERT JUMPDEST PUSH1 0x0 DUP1 REVERT JUMPDEST PUSH1 0x0 PUSH1 0x1F NOT PUSH1 0x1F DUP4 ADD AND SWAP1 POP SWAP2 SWAP1 POP JUMP JUMPDEST PUSH3 0x3DE DUP2 PUSH3 0x289 JUMP JUMPDEST DUP2 EQ PUSH3 0x3EA JUMPI PUSH1 0x0 DUP1 REVERT JUMPDEST POP JUMP JUMPDEST PUSH2 0x9DA DUP1 PUSH3 0x3FD PUSH1 0x0 CODECOPY PUSH1 0x0 RETURN INVALID PUSH1 0x80 PUSH1 0x40 MSTORE CALLVALUE DUP1 ISZERO PUSH2 0x10 JUMPI PUSH1 0x0 DUP1 REVERT JUMPDEST POP PUSH1 0x4 CALLDATASIZE LT PUSH2 0x7D JUMPI PUSH1 0x0 CALLDATALOAD PUSH1 0xE0 SHR DUP1 PUSH4 0x2E4176CF GT PUSH2 0x5B JUMPI DUP1 PUSH4 0x2E4176CF EQ PUSH2 0xED JUMPI DUP1 PUSH4 0x609FF1BD EQ PUSH2 0x10B JUMPI DUP1 PUSH4 0x9E7B8D61 EQ PUSH2 0x129 JUMPI DUP1 PUSH4 0xA3EC138D EQ PUSH2 0x145 JUMPI PUSH2 0x7D JUMP JUMPDEST DUP1 PUSH4 0x121B93F EQ PUSH2 0x82 JUMPI DUP1 PUSH4 0x13CF08B EQ PUSH2 0x9E JUMPI DUP1 PUSH4 0x2BFDA515 EQ PUSH2 0xCF JUMPI JUMPDEST PUSH1 0x0 DUP1 REVERT JUMPDEST PUSH2 0x9C PUSH1 0x4 DUP1 CALLDATASIZE SUB DUP2 ADD SWAP1 PUSH2 0x97 SWAP2 SWAP1 PUSH2 0x59B JUMP JUMPDEST PUSH2 0x176 JUMP JUMPDEST STOP JUMPDEST PUSH2 0xB8 PUSH1 0x4 DUP1 CALLDATASIZE SUB DUP2 ADD SWAP1 PUSH2 0xB3 SWAP2 SWAP1 PUSH2 0x59B JUMP JUMPDEST PUSH2 0x272 JUMP JUMPDEST PUSH1 0x40 MLOAD PUSH2 0xC6 SWAP3 SWAP2 SWAP1 PUSH2 0x6CC JUMP JUMPDEST PUSH1 0x40 MLOAD DUP1 SWAP2 SUB SWAP1 RETURN JUMPDEST PUSH2 0xD7 PUSH2 0x2A6 JUMP JUMPDEST PUSH1 0x40 MLOAD PUSH2 0xE4 SWAP2 SWAP1 PUSH2 0x6B1 JUMP JUMPDEST PUSH1 0x40 MLOAD DUP1 SWAP2 SUB SWAP1 RETURN JUMPDEST PUSH2 0xF5 PUSH2 0x2EE JUMP JUMPDEST PUSH1 0x40 MLOAD PUSH2 0x102 SWAP2 SWAP1 PUSH2 0x66D JUMP JUMPDEST PUSH1 0x40 MLOAD DUP1 SWAP2 SUB SWAP1 RETURN JUMPDEST PUSH2 0x113 PUSH2 0x312 JUMP JUMPDEST PUSH1 0x40 MLOAD PUSH2 0x120 SWAP2 SWAP1 PUSH2 0x755 JUMP JUMPDEST PUSH1 0x40 MLOAD DUP1 SWAP2 SUB SWAP1 RETURN JUMPDEST PUSH2 0x143 PUSH1 0x4 DUP1 CALLDATASIZE SUB DUP2 ADD SWAP1 PUSH2 0x13E SWAP2 SWAP1 PUSH2 0x56E JUMP JUMPDEST PUSH2 0x3F2 JUMP JUMPDEST STOP JUMPDEST PUSH2 0x15F PUSH1 0x4 DUP1 CALLDATASIZE SUB DUP2 ADD SWAP1 PUSH2 0x15A SWAP2 SWAP1 PUSH2 0x56E JUMP JUMPDEST PUSH2 0x513 JUMP JUMPDEST PUSH1 0x40 MLOAD PUSH2 0x16D SWAP3 SWAP2 SWAP1 PUSH2 0x688 JUMP JUMPDEST PUSH1 0x40 MLOAD DUP1 SWAP2 SUB SWAP1 RETURN JUMPDEST PUSH1 0x0 PUSH1 0x2 PUSH1 0x0 CALLER PUSH20 0xFFFFFFFFFFFFFFFFFFFFFFFFFFFFFFFFFFFFFFFF AND PUSH20 0xFFFFFFFFFFFFFFFFFFFFFFFFFFFFFFFFFFFFFFFF AND DUP2 MSTORE PUSH1 0x20 ADD SWAP1 DUP2 MSTORE PUSH1 0x20 ADD PUSH1 0x0 KECCAK256 SWAP1 POP DUP1 PUSH1 0x0 ADD PUSH1 0x0 SWAP1 SLOAD SWAP1 PUSH2 0x100 EXP SWAP1 DIV PUSH1 0xFF AND ISZERO PUSH2 0x20B JUMPI PUSH1 0x40 MLOAD PUSH32 0x8C379A000000000000000000000000000000000000000000000000000000000 DUP2 MSTORE PUSH1 0x4 ADD PUSH2 0x202 SWAP1 PUSH2 0x6F5 JUMP JUMPDEST PUSH1 0x40 MLOAD DUP1 SWAP2 SUB SWAP1 REVERT JUMPDEST PUSH1 0x1 DUP2 PUSH1 0x0 ADD PUSH1 0x0 PUSH2 0x100 EXP DUP2 SLOAD DUP2 PUSH1 0xFF MUL NOT AND SWAP1 DUP4 ISZERO ISZERO MUL OR SWAP1 SSTORE POP DUP2 DUP2 PUSH1 0x1 ADD DUP2 SWAP1 SSTORE POP PUSH1 0x1 PUSH1 0x3 DUP4 DUP2 SLOAD DUP2 LT PUSH2 0x247 JUMPI PUSH2 0x246 PUSH2 0x8A1 JUMP JUMPDEST JUMPDEST SWAP1 PUSH1 0x0 MSTORE PUSH1 0x20 PUSH1 0x0 KECCAK256 SWAP1 PUSH1 0x2 MUL ADD PUSH1 0x1 ADD PUSH1 0x0 DUP3 DUP3 SLOAD PUSH2 0x267 SWAP2 SWAP1 PUSH2 0x781 JUMP JUMPDEST SWAP3 POP POP DUP2 SWAP1 SSTORE POP POP POP JUMP JUMPDEST PUSH1 0x3 DUP2 DUP2 SLOAD DUP2 LT PUSH2 0x282 JUMPI PUSH1 0x0 DUP1 REVERT JUMPDEST SWAP1 PUSH1 0x0 MSTORE PUSH1 0x20 PUSH1 0x0 KECCAK256 SWAP1 PUSH1 0x2 MUL ADD PUSH1 0x0 SWAP2 POP SWAP1 POP DUP1 PUSH1 0x0 ADD SLOAD SWAP1 DUP1 PUSH1 0x1 ADD SLOAD SWAP1 POP DUP3 JUMP JUMPDEST PUSH1 0x0 DUP1 PUSH1 0x1 SLOAD EQ PUSH2 0x2BB JUMPI PUSH1 0x1 SLOAD SWAP1 POP PUSH2 0x2EB JUMP JUMPDEST PUSH1 0x3 PUSH2 0x2C5 PUSH2 0x312 JUMP JUMPDEST DUP2 SLOAD DUP2 LT PUSH2 0x2D6 JUMPI PUSH2 0x2D5 PUSH2 0x8A1 JUMP JUMPDEST JUMPDEST SWAP1 PUSH1 0x0 MSTORE PUSH1 0x20 PUSH1 0x0 KECCAK256 SWAP1 PUSH1 0x2 MUL ADD PUSH1 0x0 ADD SLOAD SWAP1 POP JUMPDEST SWAP1 JUMP JUMPDEST PUSH1 0x0 DUP1 SLOAD SWAP1 PUSH2 0x100 EXP SWAP1 DIV PUSH20 0xFFFFFFFFFFFFFFFFFFFFFFFFFFFFFFFFFFFFFFFF AND DUP2 JUMP JUMPDEST PUSH1 0x0 DUP1 PUSH1 0x0 SWAP1 POP PUSH1 0x0 JUMPDEST PUSH1 0x3 DUP1 SLOAD SWAP1 POP DUP2 LT ISZERO PUSH2 0x392 JUMPI PUSH1 0x3 DUP4 DUP2 SLOAD DUP2 LT PUSH2 0x33D JUMPI PUSH2 0x33C PUSH2 0x8A1 JUMP JUMPDEST JUMPDEST SWAP1 PUSH1 0x0 MSTORE PUSH1 0x20 PUSH1 0x0 KECCAK256 SWAP1 PUSH1 0x2 MUL ADD PUSH1 0x1 ADD SLOAD PUSH1 0x3 DUP3 DUP2 SLOAD DUP2 LT PUSH2 0x363 JUMPI PUSH2 0x362 PUSH2 0x8A1 JUMP JUMPDEST JUMPDEST SWAP1 PUSH1 0x0 MSTORE PUSH1 0x20 PUSH1 0x0 KECCAK256 SWAP1 PUSH1 0x2 MUL ADD PUSH1 0x1 ADD SLOAD GT ISZERO PUSH2 0x37F JUMPI DUP1 SWAP3 POP JUMPDEST DUP1 DUP1 PUSH2 0x38A SWAP1 PUSH2 0x829 JUMP JUMPDEST SWAP2 POP POP PUSH2 0x31C JUMP JUMPDEST POP PUSH1 0x3 DUP3 DUP2 SLOAD DUP2 LT PUSH2 0x3A7 JUMPI PUSH2 0x3A6 PUSH2 0x8A1 JUMP JUMPDEST JUMPDEST SWAP1 PUSH1 0x0 MSTORE PUSH1 0x20 PUSH1 0x0 KECCAK256 SWAP1 PUSH1 0x2 MUL ADD PUSH1 0x1 ADD SLOAD SWAP1 POP PUSH1 0x3 PUSH2 0x3C5 PUSH2 0x312 JUMP JUMPDEST DUP2 SLOAD DUP2 LT PUSH2 0x3D6 JUMPI PUSH2 0x3D5 PUSH2 0x8A1 JUMP JUMPDEST JUMPDEST SWAP1 PUSH1 0x0 MSTORE PUSH1 0x20 PUSH1 0x0 KECCAK256 SWAP1 PUSH1 0x2 MUL ADD PUSH1 0x0 ADD SLOAD PUSH1 0x1 DUP2 SWAP1 SSTORE POP POP SWAP1 JUMP JUMPDEST PUSH1 0x0 DUP1 SLOAD SWAP1 PUSH2 0x100 EXP SWAP1 DIV PUSH20 0xFFFFFFFFFFFFFFFFFFFFFFFFFFFFFFFFFFFFFFFF AND PUSH20 0xFFFFFFFFFFFFFFFFFFFFFFFFFFFFFFFFFFFFFFFF AND CALLER PUSH20 0xFFFFFFFFFFFFFFFFFFFFFFFFFFFFFFFFFFFFFFFF AND EQ PUSH2 0x480 JUMPI PUSH1 0x40 MLOAD PUSH32 0x8C379A000000000000000000000000000000000000000000000000000000000 DUP2 MSTORE PUSH1 0x4 ADD PUSH2 0x477 SWAP1 PUSH2 0x715 JUMP JUMPDEST PUSH1 0x40 MLOAD DUP1 SWAP2 SUB SWAP1 REVERT JUMPDEST PUSH1 0x2 PUSH1 0x0 DUP3 PUSH20 0xFFFFFFFFFFFFFFFFFFFFFFFFFFFFFFFFFFFFFFFF AND PUSH20 0xFFFFFFFFFFFFFFFFFFFFFFFFFFFFFFFFFFFFFFFF AND DUP2 MSTORE PUSH1 0x20 ADD SWAP1 DUP2 MSTORE PUSH1 0x20 ADD PUSH1 0x0 KECCAK256 PUSH1 0x0 ADD PUSH1 0x0 SWAP1 SLOAD SWAP1 PUSH2 0x100 EXP SWAP1 DIV PUSH1 0xFF AND ISZERO PUSH2 0x510 JUMPI PUSH1 0x40 MLOAD PUSH32 0x8C379A000000000000000000000000000000000000000000000000000000000 DUP2 MSTORE PUSH1 0x4 ADD PUSH2 0x507 SWAP1 PUSH2 0x735 JUMP JUMPDEST PUSH1 0x40 MLOAD DUP1 SWAP2 SUB SWAP1 REVERT JUMPDEST POP JUMP JUMPDEST PUSH1 0x2 PUSH1 0x20 MSTORE DUP1 PUSH1 0x0 MSTORE PUSH1 0x40 PUSH1 0x0 KECCAK256 PUSH1 0x0 SWAP2 POP SWAP1 POP DUP1 PUSH1 0x0 ADD PUSH1 0x0 SWAP1 SLOAD SWAP1 PUSH2 0x100 EXP SWAP1 DIV PUSH1 0xFF AND SWAP1 DUP1 PUSH1 0x1 ADD SLOAD SWAP1 POP DUP3 JUMP JUMPDEST PUSH1 0x0 DUP2 CALLDATALOAD SWAP1 POP PUSH2 0x553 DUP2 PUSH2 0x976 JUMP JUMPDEST SWAP3 SWAP2 POP POP JUMP JUMPDEST PUSH1 0x0 DUP2 CALLDATALOAD SWAP1 POP PUSH2 0x568 DUP2 PUSH2 0x98D JUMP JUMPDEST SWAP3 SWAP2 POP POP JUMP JUMPDEST PUSH1 0x0 PUSH1 0x20 DUP3 DUP5 SUB SLT ISZERO PUSH2 0x584 JUMPI PUSH2 0x583 PUSH2 0x8D0 JUMP JUMPDEST JUMPDEST PUSH1 0x0 PUSH2 0x592 DUP5 DUP3 DUP6 ADD PUSH2 0x544 JUMP JUMPDEST SWAP2 POP POP SWAP3 SWAP2 POP POP JUMP JUMPDEST PUSH1 0x0 PUSH1 0x20 DUP3 DUP5 SUB SLT ISZERO PUSH2 0x5B1 JUMPI PUSH2 0x5B0 PUSH2 0x8D0 JUMP JUMPDEST JUMPDEST PUSH1 0x0 PUSH2 0x5BF DUP5 DUP3 DUP6 ADD PUSH2 0x559 JUMP JUMPDEST SWAP2 POP POP SWAP3 SWAP2 POP POP JUMP JUMPDEST PUSH2 0x5D1 DUP2 PUSH2 0x7D7 JUMP JUMPDEST DUP3 MSTORE POP POP JUMP JUMPDEST PUSH2 0x5E0 DUP2 PUSH2 0x7E9 JUMP JUMPDEST DUP3 MSTORE POP POP JUMP JUMPDEST PUSH2 0x5EF DUP2 PUSH2 0x7F5 JUMP JUMPDEST DUP3 MSTORE POP POP JUMP JUMPDEST PUSH1 0x0 PUSH2 0x602 PUSH1 0xE DUP4 PUSH2 0x770 JUMP JUMPDEST SWAP2 POP PUSH2 0x60D DUP3 PUSH2 0x8D5 JUMP JUMPDEST PUSH1 0x20 DUP3 ADD SWAP1 POP SWAP2 SWAP1 POP JUMP JUMPDEST PUSH1 0x0 PUSH2 0x625 PUSH1 0x28 DUP4 PUSH2 0x770 JUMP JUMPDEST SWAP2 POP PUSH2 0x630 DUP3 PUSH2 0x8FE JUMP JUMPDEST PUSH1 0x40 DUP3 ADD SWAP1 POP SWAP2 SWAP1 POP JUMP JUMPDEST PUSH1 0x0 PUSH2 0x648 PUSH1 0x18 DUP4 PUSH2 0x770 JUMP JUMPDEST SWAP2 POP PUSH2 0x653 DUP3 PUSH2 0x94D JUMP JUMPDEST PUSH1 0x20 DUP3 ADD SWAP1 POP SWAP2 SWAP1 POP JUMP JUMPDEST PUSH2 0x667 DUP2 PUSH2 0x81F JUMP JUMPDEST DUP3 MSTORE POP POP JUMP JUMPDEST PUSH1 0x0 PUSH1 0x20 DUP3 ADD SWAP1 POP PUSH2 0x682 PUSH1 0x0 DUP4 ADD DUP5 PUSH2 0x5C8 JUMP JUMPDEST SWAP3 SWAP2 POP POP JUMP JUMPDEST PUSH1 0x0 PUSH1 0x40 DUP3 ADD SWAP1 POP PUSH2 0x69D PUSH1 0x0 DUP4 ADD DUP6 PUSH2 0x5D7 JUMP JUMPDEST PUSH2 0x6AA PUSH1 0x20 DUP4 ADD DUP5 PUSH2 0x65E JUMP JUMPDEST SWAP4 SWAP3 POP POP POP JUMP JUMPDEST PUSH1 0x0 PUSH1 0x20 DUP3 ADD SWAP1 POP PUSH2 0x6C6 PUSH1 0x0 DUP4 ADD DUP5 PUSH2 0x5E6 JUMP JUMPDEST SWAP3 SWAP2 POP POP JUMP JUMPDEST PUSH1 0x0 PUSH1 0x40 DUP3 ADD SWAP1 POP PUSH2 0x6E1 PUSH1 0x0 DUP4 ADD DUP6 PUSH2 0x5E6 JUMP JUMPDEST PUSH2 0x6EE PUSH1 0x20 DUP4 ADD DUP5 PUSH2 0x65E JUMP JUMPDEST SWAP4 SWAP3 POP POP POP JUMP JUMPDEST PUSH1 0x0 PUSH1 0x20 DUP3 ADD SWAP1 POP DUP2 DUP2 SUB PUSH1 0x0 DUP4 ADD MSTORE PUSH2 0x70E DUP2 PUSH2 0x5F5 JUMP JUMPDEST SWAP1 POP SWAP2 SWAP1 POP JUMP JUMPDEST PUSH1 0x0 PUSH1 0x20 DUP3 ADD SWAP1 POP DUP2 DUP2 SUB PUSH1 0x0 DUP4 ADD MSTORE PUSH2 0x72E DUP2 PUSH2 0x618 JUMP JUMPDEST SWAP1 POP SWAP2 SWAP1 POP JUMP JUMPDEST PUSH1 0x0 PUSH1 0x20 DUP3 ADD SWAP1 POP DUP2 DUP2 SUB PUSH1 0x0 DUP4 ADD MSTORE PUSH2 0x74E DUP2 PUSH2 0x63B JUMP JUMPDEST SWAP1 POP SWAP2 SWAP1 POP JUMP JUMPDEST PUSH1 0x0 PUSH1 0x20 DUP3 ADD SWAP1 POP PUSH2 0x76A PUSH1 0x0 DUP4 ADD DUP5 PUSH2 0x65E JUMP JUMPDEST SWAP3 SWAP2 POP POP JUMP JUMPDEST PUSH1 0x0 DUP3 DUP3 MSTORE PUSH1 0x20 DUP3 ADD SWAP1 POP SWAP3 SWAP2 POP POP JUMP JUMPDEST PUSH1 0x0 PUSH2 0x78C DUP3 PUSH2 0x81F JUMP JUMPDEST SWAP2 POP PUSH2 0x797 DUP4 PUSH2 0x81F JUMP JUMPDEST SWAP3 POP DUP3 PUSH32 0xFFFFFFFFFFFFFFFFFFFFFFFFFFFFFFFFFFFFFFFFFFFFFFFFFFFFFFFFFFFFFFFF SUB DUP3 GT ISZERO PUSH2 0x7CC JUMPI PUSH2 0x7CB PUSH2 0x872 JUMP JUMPDEST JUMPDEST DUP3 DUP3 ADD SWAP1 POP SWAP3 SWAP2 POP POP JUMP JUMPDEST PUSH1 0x0 PUSH2 0x7E2 DUP3 PUSH2 0x7FF JUMP JUMPDEST SWAP1 POP SWAP2 SWAP1 POP JUMP JUMPDEST PUSH1 0x0 DUP2 ISZERO ISZERO SWAP1 POP SWAP2 SWAP1 POP JUMP JUMPDEST PUSH1 0x0 DUP2 SWAP1 POP SWAP2 SWAP1 POP JUMP JUMPDEST PUSH1 0x0 PUSH20 0xFFFFFFFFFFFFFFFFFFFFFFFFFFFFFFFFFFFFFFFF DUP3 AND SWAP1 POP SWAP2 SWAP1 POP JUMP JUMPDEST PUSH1 0x0 DUP2 SWAP1 POP SWAP2 SWAP1 POP JUMP JUMPDEST PUSH1 0x0 PUSH2 0x834 DUP3 PUSH2 0x81F JUMP JUMPDEST SWAP2 POP PUSH32 0xFFFFFFFFFFFFFFFFFFFFFFFFFFFFFFFFFFFFFFFFFFFFFFFFFFFFFFFFFFFFFFFF DUP3 EQ ISZERO PUSH2 0x867 JUMPI PUSH2 0x866 PUSH2 0x872 JUMP JUMPDEST JUMPDEST PUSH1 0x1 DUP3 ADD SWAP1 POP SWAP2 SWAP1 POP JUMP JUMPDEST PUSH32 0x4E487B7100000000000000000000000000000000000000000000000000000000 PUSH1 0x0 MSTORE PUSH1 0x11 PUSH1 0x4 MSTORE PUSH1 0x24 PUSH1 0x0 REVERT JUMPDEST PUSH32 0x4E487B7100000000000000000000000000000000000000000000000000000000 PUSH1 0x0 MSTORE PUSH1 0x32 PUSH1 0x4 MSTORE PUSH1 0x24 PUSH1 0x0 REVERT JUMPDEST PUSH1 0x0 DUP1 REVERT JUMPDEST PUSH32 0x416C726561647920766F7465642E000000000000000000000000000000000000 PUSH1 0x0 DUP3 ADD MSTORE POP JUMP JUMPDEST PUSH32 0x4F6E6C79206368616972706572736F6E2063616E206769766520726967687420 PUSH1 0x0 DUP3 ADD MSTORE PUSH32 0x746F20766F74652E000000000000000000000000000000000000000000000000 PUSH1 0x20 DUP3 ADD MSTORE POP JUMP JUMPDEST PUSH32 0x54686520766F74657220616C726561647920766F7465642E0000000000000000 PUSH1 0x0 DUP3 ADD MSTORE POP JUMP JUMPDEST PUSH2 0x97F DUP2 PUSH2 0x7D7 JUMP JUMPDEST DUP2 EQ PUSH2 0x98A JUMPI PUSH1 0x0 DUP1 REVERT JUMPDEST POP JUMP JUMPDEST PUSH2 0x996 DUP2 PUSH2 0x81F JUMP JUMPDEST DUP2 EQ PUSH2 0x9A1 JUMPI PUSH1 0x0 DUP1 REVERT JUMPDEST POP JUMP INVALID LOG2 PUSH5 0x6970667358 0x22 SLT KECCAK256 0x2F PUSH14 0x24C7CA05DCCA9546388655663AE8 0x27 0x27 MUL 0xAA SWAP15 BALANCE EQ SWAP8 EXTCODEHASH SHL 0xE3 EXTCODEHASH STATICCALL 0x23 DUP11 STATICCALL PUSH5 0x736F6C6343 STOP ADDMOD SMOD STOP CALLER "
		},
		"gasEstimates": {
			"creation": {
				"codeDepositCost": "504400",
				"executionCost": "infinite",
				"totalCost": "infinite"
			},
			"external": {
				"chairperson()": "2511",
				"getWinnerName()": "infinite",
				"giveRightToVote(address)": "5205",
				"proposals(uint256)": "infinite",
				"vote(uint256)": "infinite",
				"voters(address)": "5148",
				"winningProposal()": "infinite"
			}
		},
		"methodIdentifiers": {
			"chairperson()": "2e4176cf",
			"getWinnerName()": "2bfda515",
			"giveRightToVote(address)": "9e7b8d61",
			"proposals(uint256)": "013cf08b",
			"vote(uint256)": "0121b93f",
			"voters(address)": "a3ec138d",
			"winningProposal()": "609ff1bd"
		}
	},
	"abi": [
		{
			"inputs": [
				{
					"internalType": "bytes32[]",
					"name": "proposalNames",
					"type": "bytes32[]"
				}
			],
			"stateMutability": "nonpayable",
			"type": "constructor"
		},
		{
			"inputs": [],
			"name": "chairperson",
			"outputs": [
				{
					"internalType": "address",
					"name": "",
					"type": "address"
				}
			],
			"stateMutability": "view",
			"type": "function"
		},
		{
			"inputs": [],
			"name": "getWinnerName",
			"outputs": [
				{
					"internalType": "bytes32",
					"name": "",
					"type": "bytes32"
				}
			],
			"stateMutability": "nonpayable",
			"type": "function"
		},
		{
			"inputs": [
				{
					"internalType": "address",
					"name": "voter",
					"type": "address"
				}
			],
			"name": "giveRightToVote",
			"outputs": [],
			"stateMutability": "view",
			"type": "function"
		},
		{
			"inputs": [
				{
					"internalType": "uint256",
					"name": "",
					"type": "uint256"
				}
			],
			"name": "proposals",
			"outputs": [
				{
					"internalType": "bytes32",
					"name": "name",
					"type": "bytes32"
				},
				{
					"internalType": "uint256",
					"name": "voteCount",
					"type": "uint256"
				}
			],
			"stateMutability": "view",
			"type": "function"
		},
		{
			"inputs": [
				{
					"internalType": "uint256",
					"name": "proposal",
					"type": "uint256"
				}
			],
			"name": "vote",
			"outputs": [],
			"stateMutability": "nonpayable",
			"type": "function"
		},
		{
			"inputs": [
				{
					"internalType": "address",
					"name": "",
					"type": "address"
				}
			],
			"name": "voters",
			"outputs": [
				{
					"internalType": "bool",
					"name": "voted",
					"type": "bool"
				},
				{
					"internalType": "uint256",
					"name": "vote",
					"type": "uint256"
				}
			],
			"stateMutability": "view",
			"type": "function"
		},
		{
			"inputs": [],
			"name": "winningProposal",
			"outputs": [
				{
					"internalType": "uint256",
					"name": "winningProposal_",
					"type": "uint256"
				}
			],
			"stateMutability": "nonpayable",
			"type": "function"
		}
	]
}